S01800006275696C642F6D6963617A2F6D61696E2E73726563E5
S11300000C948F010C94A12E0C94AB2E0C94B52E51
S11300100C94BF2E0C94C92E0C94D32E0C94DD2E6C
S11300200C94112F0C94AE010C94AE010C94762D0B
S11300300C946E2B0C94D52B0C94842E0C941E2BA8
S11300400C94462B0C941B2F0C94822F0C94AE0111
S11300500C94EF2F0C94AE010C94AE010C94AE01F1
S11300600C945D2C0C9428310C9407310C941231AF
S11300700C941D310C943B310C94EB300C94AE0178
S11300800C94FC300C94AE010C94AE01C717E91724
S1130090EE171A181A181F183C1883181B212B2145
S11300A04C219121A521B521042BBF217222A52227
S11300B0B222B622BA22C122C922E02238237E23E8
S11300C09C23B223EB2376249424A824B324472826
S11300D08128CE28F2280129BF29D029D329D6295D
S11300E0112A092A312A3A2403241D24042B3124F9
S11300F0042B042B6824342434243424042B042BAC
S1130100042B3724372437244B3056306B30B4302B
S1130110BB30C230C930D03000081C1814100000A5
S11301202110422063308440A550C660E7700881E6
S113013029914AA16BB18CC1ADD1CEE1EFF131125D
S1130140100273325222B5529442F772D662399336
S113015018837BB35AA3BDD39CC3FFF3DEE36224AD
S1130160433420040114E664C774A44485546AA586
S11301704BB528850995EEE5CFF5ACC58DD553363D
S1130180722611163006D776F6669556B4465BB7D6
S11301907AA719973887DFF7FEE79DD7BCC7C4480D
S11301A0E5588668A7784008611802282338CCC926
S11301B0EDD98EE9AFF9488969990AA92BB9F55A9D
S11301C0D44AB77A966A711A500A333A122AFDDB76
S11301D0DCCBBFFB9EEB799B588B3BBB1AABA66C6D
S11301E0877CE44CC55C222C033C600C411CAEEDC6
S11301F08FFDECCDCDDD2AAD0BBD688D499D977E7D
S1130200B66ED55EF44E133E322E511E700E9FFF15
S1130210BEEFDDDFFCCF1BBF3AAF599F788F8891CB
S1130220A981CAB1EBA10CD12DC14EF16FE18010AF
S1130230A100C230E3200450254046706760B983B2
S11302409893FBA3DAB33DC31CD37FE35EF3B102FF
S11302509012F322D2323542145277625672EAB5C2
S1130260CBA5A89589856EF54FE52CD50DC5E2344F
S1130270C324A01481046674476424540544DBA792
S1130280FAB79987B8975FE77EF71DC73CD7D3269F
S1130290F2369106B01657667676154634564CD922
S11302A06DC90EF92FE9C899E9898AB9ABA94458EF
S11302B0654806782768C018E1088238A3287DCBF2
S11302C05CDB3FEB1EFBF98BD89BBBAB9ABB754A3F
S11302D0545A376A167AF10AD01AB32A923A2EFD82
S11302E00FED6CDD4DCDAABD8BADE89DC98D267C8F
S11302F0076C645C454CA23C832CE01CC10C1FEFD2
S11303003EFF5DCF7CDF9BAFBABFD98FF89F176EDE
S1130310367E554E745E932EB23ED10EF01E1124DD
S11303201FBECFEFD0E1DEBFCDBF11E0A0E0B1E052
S1130330E0EAF8E600E00BBF02C007900D92A2339A
S1130340B107D9F718E0A2E3B1E001C01D92A338C8
S1130350B107E1F70E9471310C944E340C94000003
S1130360FC0120816181862F90E0A0E0B0E0772736
S11303706627922B2381622B2281722B0895C098C9
S11303800895B89A0895C09A089587B78F7E87BF55
S1130390089510925E0710925D0784E08093DF0158
S11303A01092EB05109270071092EE0110929803D0
S11303B0109297030895809196078F3F71F0E82F6C
S11303C0F0E0EE55FE4F9081909396079F3F11F415
S11303D090936F089FEF908308958FEF089583B7EC
S11303E083BF00B600FCFDCF089530918203332310
S11303F0C1F020912F02E22FF0E0EE0FFF1FE45135
S1130400FA4F80819181118210823150309382039E
S11304102F5F243019F020932F02089510922F0299
S1130420089580E090E008950F931F938FB7F89498
S113043060919503709196030CB51DB506B602FE46
S113044004C06F5F7F4F0CB51DB58FBFCB01A0E01B
S1130450B0E07727662720E030E0602B712B822BF9
S1130460932B1F910F9108959FB7F894E82FF0E014
S1130470EE55FE4F20812F3FC9F421E030E0E0919A
S11304806F08E81711F020E030E0232B79F4209175
S113049096072F3F19F48093960704C0F0E0EE55B9
S11304A0FE4F808380936F0880E001C085E09FBF8A
S11304B00895409182034430B8F450912F02242FC0
S11304C030E0250F311D2430310510F0245031095E
S11304D0F901EE0FFF1FE451FA4F918380834F5FC0
S11304E04093820380E0089581E00895CF93CFB7CD
S11304F0F89480914708811108C08DE10E9434026C
S1130500811103C081E080934708CFBFCF91089544
S11305108091CA058A3021F48091DF01843021F072
S113052081E08093470108958FE10E943402109284
S1130530470108959FB7F89420910D01281307C02F
S113054080915B01823019F49FBF81E008959FBFC1
S113055080E008959FB7F89480915B01823019F090
S11305609FBF8FEF089580910D019FBF0895CF9392
S1130570C82F0E94AA02C8130AC081E02091510129
S1130580309152012430310519F080E001C085E03A
S1130590CF910895CF93CFB7F89410924B01109256
S11305A04A010E94C50187B78F7D87BF0E94C3019E
S11305B0CFBF80E0CF910895CF92DF92EF92FF9268
S11305C00F931F930E941402C0901E06D0901F0622
S11305D0E0902006F09021060091E0011091E101E5
S11305E02091E2013091E3010C0D1D1D2E1D3F1DD4
S11305F06C157D058E059F0530F00C151D052E0527
S11306003F0558F005C00C151D052E053F0590F556
S1130610601771078207930768F568017901C61AA4
S1130620D70AE80AF90A41E0C41640E8D406E1040E
S1130630F10418F18B019C0110582F4F3F4F009388
S11306401E0610931F06209320063093210697015F
S113065086011058210931090093E0011093E1014A
S11306602093E2013093E301C12CE0E8DE2EE12C7B
S1130670F12C13C0C12CD12C760100931E061093CB
S11306801F0620932006309321061092E001109259
S1130690E1011092E2011092E3014CB55DB54D5FAA
S11306A05F4F9A01261B370B2C153D0518F4AB013F
S11306B04C0D5D1D4115510511F441E050E04150D0
S11306C05109509379004093780081E080937C0035
S11306D080917D00816080937D001F910F91FF9038
S11306E0EF90DF90CF900895CF93CFB7F894809197
S11306F05A01882329F010925A0183E00E9434029F
S1130700CFBFCF910895409181034330B8F4509105
S11307109F07242F30E0250F311D2330310510F0C1
S113072023503109F901EE0FFF1FEE58F74F918363
S113073080834F5F4093810380E0089581E00895B2
S1130740309181033323C1F020919F07E22FF0E021
S1130750EE0FFF1FEE58F74F8081918111821082B6
S11307603150309381032F5F233019F020939F077A
S1130770089510929F07089580E090E00895CF9225
S1130780DF92EF92FF920F931F930E941402C09086
S11307905D01D0905E01E0905F01F09060010091F6
S11307A0D5011091D6012091D7013091D8010C0DBB
S11307B01D1D2E1D3F1D6C157D058E059F0530F0FA
S11307C00C151D052E053F0558F005C00C151D051B
S11307D02E053F0590F5601771078207930768F5AA
S11307E068017901C61AD70AE80AF90A41E0C41671
S11307F040E8D406E104F10418F18B019C0110587F
S11308002F4F3F4F00935D0110935E0120935F01D2
S11308103093600197018601105821093109009332
S1130820D5011093D6012093D7013093D801C12C60
S113083010E8D12EE12CF12C13C0C12CD12C76015F
S113084000935D0110935E0120935F01309360017A
S11308501092D5011092D6011092D7011092D801AE
S11308604CB55DB54D5F5F4F9A01261B370B2C15B8
S11308703D0518F4AB014C0D5D1D4115510511F4F6
S113088041E050E04150510959BD48BD88E086BF60
S113089087B7886087BF1F910F91FF90EF90DF901B
S11308A0CF900895CF92DF92EF92FF920F931F9310
S11308B00E941402C090D702D090D802E090D902CE
S11308C0F090DA0200913302109134022091350243
S11308D0309136020C0D1D1D2E1D3F1D6C157D051E
S11308E08E059F0530F00C151D052E053F0558F0AB
S11308F005C00C151D052E053F0590F56017710701
S11309008207930768F568017901C61AD70AE80ACD
S1130910F90A41E0C41640E8D406E104F10418F1F0
S11309208B019C0110582F4F3F4F0093D702109317
S1130930D8022093D9023093DA0297018601105825
S113094021093109009333021093340220933502B4
S113095030933602C12C00E8D02EE12CF12C13C0C8
S1130960C12CD12C76010093D7021093D802209386
S1130970D9023093DA0210923302109234021092A8
S11309803502109236024CB55DB54D5F5F4F9A014A
S1130990261B370B2C153D0518F4AB014C0D5D1DC2
S11309A04115510511F441E050E0415051095BBD3E
S11309B04ABD80E186BF87B7806187BF1F910F91D1
S11309C0FF90EF90DF90CF9008952F923F924F9237
S11309D05F926F927F928F929F92AF92BF92CF92CB
S11309E0DF92EF92FF920F931F93EFB7F8948091E9
S11309F02A0290912B02A0912C02B0912D021C018D
S1130A002D019C01A20160E070E080E090E003E031
S1130A100E94EC3351016201E12CF12C00E010E062
S1130A200E942C3459016A017B01F82F192F03E02D
S1130A300E94EC330F2F0E942C3459016A017B0170
S1130A40F82F192F03E00E94EC330F2F0E942C344F
S1130A5059016A017B01F82F192F03E00E94EC333E
S1130A600F2F0E942C3459016A017B01F82F192F92
S1130A7003E00E94EC330F2F0E942C3401E00E940B
S1130A80EC3329013A0100E20E94073449015A017A
S1130A90C301B2019695879577956795680D791D81
S1130AA08A1D9B1D97FF05C09F776F5F7F4F8F4FF8
S1130AB09F4F60932A0270932B0280932C02909391
S1130AC02D02EFBF1F910F91FF90EF90DF90CF9019
S1130AD0BF90AF909F908F907F906F905F904F905A
S1130AE03F902F90089530915501E32FF0E0EE0FE1
S1130AF0FF1FEA5BF84F80819181209153012223EB
S1130B0059F03F5F343019F03093550102C0109210
S1130B10550121502093530108958091EA058111D4
S1130B2002C08BE004C08F5F8093EA058AE00C94D6
S1130B303402FF920F931F93CF93DF938AE1809344
S1130B40F90180E88093FA0113E01093FB011092FD
S1130B50FC011092F6011092F001FF24F394F0923C
S1130B60F1011092F20186E08093FD011092FE01E2
S1130B700FE00093FF0110921402109215021092DC
S1130B801602109217020E94E50460930002CFEF50
S1130B90DFEFD0930902C09308020E94E50460933A
S1130BA00102F092F30185E08093050284E08093D2
S1130BB002021093060210930302D0930B02C09317
S1130BC00A021092F40180E2809307021092F50168
S1130BD01092F701D0930D02C0930C02009304020B
S1130BE084EF91E090930F0280930E021092F8012B
S1130BF082EC97E0A0E0B0E08093100290931102A1
S1130C00A0931202B0931302DF91CF911F910F9121
S1130C10FF900895EEE1F1E06927660FF11DE60FFC
S1130C20F11DC895982F802D3196C895902508956B
S1130C3090913B012091460191112FC081112DC04B
S1130C4041E040933B018091060180933A01822F59
S1130C50817080939801809100019091010190939B
S1130C603901809338018091450180933701322FF7
S1130C7031703427267EE32FF0E0EE0FFF1FEE5F86
S1130C80FE4F808191819093010180930001232B79
S1130C902093460182E20C94340220FF02C02B7F91
S1130CA001C02D7F209346010895CF93DF93D82F61
S1130CB0C62F8091DF01813069F030F08230B9F1C4
S1130CC0833009F444C001C1DD2309F418C10E9432
S1130CD0C90112C1D11113C1809197039091980356
S1130CE00E940A06909398038093970382E080936E
S1130CF0DF01C0937007C43409F0E7C08091460156
S1130D0080FF04C082FDE1C0846003C081FDDDC0BA
S1130D1082608093460180914601877E886080933B
S1130D204601109245018FEF80930601E8C0D1116E
S1130D30CCC06093EE0180919703909198030E9438
S1130D400A06909398038093970383E0D6C080911A
S1130D50EB058F3F09F4B9C0DD2309F451C082309B
S1130D6008F4B3C0E0915D07EE2311F0E15001C037
S1130D70E2E0AE2FB0E0A35AB84F12964C9150E087
S1130D80542F4427EE2311F0E15001C0E2E0F0E0DB
S1130D90E35AF84F8281482B2091970330919803AE
S1130DA04217530709F091C080E00E941806209171
S1130DB0EE01E09186033091870381E08E0F863047
S1130DC010F4982F01C090E0931769F0F0E0EA570F
S1130DD0FC4F2283863018F48093860302C010925D
S1130DE086030E9476020E94C901809136018D7F9C
S1130DF08093360180914701882309F480C073C031
S1130E00823008F44DC0E0915E07F0E0E35AF84FF9
S1130E10228130914601932F9695969596959370DD
S1130E20892F90E08130910519F0029781F01FC05D
S1130E30832F877E806180934601211102C083E164
S1130E4001C080E0809345012093060110C0809189
S1130E504501863960F4E0910001F0910101E80F49
S1130E60F11D2083809145018F5F8093450180911E
S1130E705E07E82FF0E0E35AF84F62818F5F83301A
S1130E8018F480935E0702C010925E078091970366
S1130E90909198030E940A06909398038093970375
S1130EA080915D07E82FF0E0E35AF84FC2838F5F2B
S1130EB0833018F480935D0702C010925D0780911F
S1130EC0EB058F5F8093EB051AC00E94C9018091E6
S1130ED036018D7F8093360181E00E94180680914F
S1130EE04701882339F084E08093DF01DF91CF91BB
S1130EF00C948802DD2319F081E08093DF01DF91F7
S1130F00CF91089563FF04C062FD04C097E003C05D
S1130F1093E001C09DE067FF07C086FF02C09E5FAB
S1130F2001C09C5F66FD9A5FFA01908380E008959A
S1130F3080918403882349F0109284031092C9019C
S1130F401092C80187E10C9434020895FF920F9324
S1130F501F93CF93DF93DC0173E0B695A7957A9541
S1130F60E1F787709927E62FF0E001E010E098019F
S1130F7002C0220F331F6A95E2F7B901FF24FA94E5
S1130F80F20EF4229C012E0F3F1FED01C053DE4FE1
S1130F902930310590F42F2D082E01C0220F0A9418
S1130FA0EAF76150710901C0660F8A95EAF7609506
S1130FB088816823622B68834DC00097C9F02F2D68
S1130FC0082E01C0220F0A94EAF7A801082E02C0D5
S1130FD0440F551F0A94E2F74150510938813423D4
S1130FE0322B388328E030E0281B390B119602C0DD
S1130FF020E030E0A053BE4F6F2D70E0CD01805D46
S11310009140A901485F5F4FE417F50748F0CB0111
S113101002C0959587952A95E2F78D939A01EECFB4
S11310202E173F07B8F4DC01A053BE4FE21BF30BAD
S11310304FEF5FEF0E2E01C0440F0A94EAF73C9184
S113104034238F2D90E002C0959587952A95E2F779
S1131050382B3C93DF91CF911F910F91FF9008950E
S11310608091DF029091E002892B59F581E090E0B4
S113107090936907809368078BEC91E09093E0026A
S11310808093DF021092EA011092E90181E08093DB
S1131090EB015E9A569A8091E9019091EA019C01D4
S11310A02F5F3F4F3093EA012093E901FC01E553A0
S11310B0FE4F90818FB7F8949CB95E9A8FBF80E001
S11310C0089585E0089593E8980F923050F4909134
S11310D0360191609093360190E298279093CC0565
S11310E08DE78093CB010C9430089FB7F8948091DE
S11310F036018E7F809336018EE78093CB019FBFAC
S11311000C9430082091410130914201232BB1F518
S11311102FB7F89433E130933F0110923E0190933E
S113112044018093430182E090E0909342018093D4
S1131130410110923C0110923D01665E60934001B2
S11311402FBF8FB7F8949091CA059A3011F48FBFCE
S113115017C08FBF9FB7F8948091E702811106C032
S113116081E08093E7021092E80201C080E09FBF13
S1131170882331F00E94760280E0089585E0089586
S1131180109242011092410181E008958FEF809303
S1131190C3078093C20784E68093C80780919303B2
S11311A090919403892BF1F48FEA97E09093940340
S11311B0809393038CE18093C60780910701882371
S11311C099F0109207016CE18FEA97E00E9482087F
S11311D0882359F091E090930701109294031092A0
S11311E09303089585E0089580E00895FB0183301A
S11311F009F471C028F4882319F1823099F174C07C
S1131200833589F0803F29F1803509F06DC08081F4
S113121091812FB7F89431E030931C06909321020A
S1131220809320020BC0808191812FB7F89431E024
S113123030931C069093DC028093DB022FBF54C0D2
S113124090818FB7F89421E020931C0690931C079B
S11312504AC090818FB7F89421E020931C069093A4
S1131260970141C09081892F8F7395FD806C9927D8
S113127087FD909597FF19C08F3F2FEF9207B9F024
S11312808D3F2FEF9207ACF48B3F2FEF92079CF426
S1131290883F2FEF92078CF4843F2FEF92077CF462
S11312A08D3E9F4F74F087E00DC08FE10BC08BE142
S11312B009C087E107C083E105C08FE003C08BE06C
S11312C001C083E09FB7F89421E020931C0680932B
S11312D026029FBF09C090818FB7F89421E0209324
S11312E01C069093AA078FBF8091510190915201DF
S11312F00697029718F482E10C9434020895FB01D6
S113130080878091FF0581FD1FC080915301843047
S1131310D8F490915401E92FF0E0EE0FFF1FEA5B3F
S1131320F84F718360839F5F943019F09093540158
S113133002C0109254018F5F8093530187E00E9492
S1131340340280E090E0089581EF90E00895CF9317
S1131350CFB7F8948091C8019091C901892B19F4F1
S1131360CFBF89E00EC081E08093840389B78F7B6F
S113137089BF8091DE01811102C00E949807CFBF0E
S113138080E0CF910895CF93C82F0E94AA02C8137A
S11313901BC02FB7F8948091510190915201843071
S11313A0910519F42FBF89E010C0079719F02FBFDA
S11313B081E00BC088E090E090935201809351014A
S11313C02FBFCF910C94A70985E0CF91089580E0B9
S11313D00C94C309CF92DF92EF92FF92CF93DF93E5
S11313E000D000D0CDB7DEB76B017C0129833A83EE
S11313F04B835C830E941402660F771F881F991F1A
S11314006C197D098E099F09E1E029813A814B819C
S11314105C81621773078407950708F4E0E08E2F58
S11314200F900F900F900F90DF91CF91FF90EF905E
S1131430DF90CF9008959FB7F89481E020910B013D
S1131440211180E09FBF08958F929F92AF92BF9227
S1131450CF92DF92EF92FF92CF93DF9300D000D030
S1131460CDB7DEB74B015C0129833A834B835C83A0
S11314700E9414026B017C01CC0CDD1CEE1CFF1CD1
S1131480C818D908EA08FB084601570129813A819E
S11314904B815C81C216D306E406F50610F44901BB
S11314A05A010E94140260931E0670931F068093D3
S11314B0200690932106D501C4018C199D09AE091B
S11314C0BF09B695A795979587958093E00190936A
S11314D0E101A093E201B093E3010F900F900F900C
S11314E00F90DF91CF91FF90EF90DF90CF90BF905E
S11314F0AF909F908F900C94DC026E9A8FB9779B7B
S1131500FECF8FB108959091F70591110C947D0A47
S113151080E00895CF93CFB7F8940E941B0A8111FD
S113152003C0CFBF81E00EC00E94C3010E94BF016F
S113153083E00E94830A8BE00E94830A0E94C30115
S1131540CFBF80E0CF9108951F93CF93DF931F9275
S1131550CDB7DEB720914A0130914B0123303105DC
S113156009F049C089830E94C3010E94BF01898197
S1131570882311F085E001C084E00E94830A83FD82
S113158009C080E00E94830A83FB112710F981E0DF
S1131590182701C011E00E94C30111112EC084E07C
S11315A090E090934B0180934A01E0919103F09174
S11315B092030480F581E02D8FEF838382838183FE
S11315C080830E9414026093D7027093D8028093A0
S11315D0D9029093DA0280EE91E0A0E0B0E080932B
S11315E0330290933402A0933502B09336020E94E2
S11315F0520480E003C084E001C081E00F90DF91D9
S1131600CF911F910895CF93CFB7F8940E941B0AEE
S1131610811103C0CFBF81E00BC00E94C3010E94AF
S1131620BF0186E00E94830A0E94C301CFBF80E00D
S1131630CF910895CF92DF92EF92FF920F931F9371
S1131640CF93DF930091AD071091AE07E0902E0584
S1131650F0902F05C0918F03D091900320916201E7
S113166030916301CE010A962817390708F4C9019D
S11316706C0121E0C21AD108CC15DD05A0F40115D6
S1131680110529F0F801EC0FFD1F808101C080E0F5
S11316900E947D0AE114F10421F0F701EC0FFD1F13
S11316A080832196E9CF6F9A0115110531F0F80175
S11316B0EC0FFD1F80818FB901C01FB8D093900338
S11316C0C0938F0380E0DF91CF911F910F91FF9022
S11316D0EF90DF90CF90089550936301409362019F
S11316E09093AE078093AD0770932F0560932E05FA
S11316F01092900310928F03452B19F08FB10C9424
S11317001A0B85E10E94340280E00895CF93DF93A1
S11317100E94C3010E94BF01C0916705D091680572
S11317208091F705882391F08FE790E09093E2028F
S11317308093E1028FE70E947D0A41E050E0BE0100
S113174080E090E0DF91CF910C946C0BDF91CF910E
S11317500895EF92FF921F93CF93DF931F92CDB71B
S1131760DEB77C018091F7058823A9F08EE390E031
S11317709093E2028093E1028EE369830E947D0AE2
S1131780182F6981462F50E060E070E0C7010E9485
S11317906C0B812F01C080E00F90DF91CF911F91DE
S11317A0FF90EF9008950F931F93CF93CFB7F894C2
S11317B090915B01923071F490910D0198130AC0DD
S11317C08091C90381110EC08091CA03882309F452
S11317D03EC008C090E0CFBF81E08927CF911F9120
S11317E00F91089520915C0130E0C901019661E0F8
S11317F070E08D30910511F480E090E0E82FE695DB
S1131800E695E695F0E0E753FC4FA081482F47703A
S11318108B0102C0000F111F4A95E2F7A801BA2FED
S1131820B02331F040954A23408380935C0106C085
S11318308217930711F00196DCCF8FEF8093CC01D0
S113184081E080935B0182E00E94340205C08FEF47
S113185080930D0110925B0191E0BDCF4F925F9296
S11318606F927F928F929F92AF92BF92CF92DF92AC
S1131870EF92FF920F931F93CF93DF930E94140272
S1131880C8E1D6E040E044244A94542C3201E0E01C
S1131890F6E029912223C1F180809180A280B38057
S11318A06B017C01C818D908EA08FB08048115817A
S11318B026813781C016D106E206F30668F0080DCA
S11318C0191D2A1D3B1D0083118322833383148237
S11318D01582168217820CC060837183828393837E
S11318E00C191D092E093F090483158326833783A8
S11318F004811581268137814016510662067306DC
S113190018F02801390141E0389626E0E831F20761
S113191009F0BFCF442341F177FE04C07694679465
S11319205794479460935D0170935E0180935F01C7
S1131930909360014092D5015092D6016092D701F4
S11319407092D801DF91CF911F910F91FF90EF908A
S1131950DF90CF90BF90AF909F908F907F906F90CB
S11319605F904F900C94BF0387B7877F87BFDF9149
S1131970CF911F910F91FF90EF90DF90CF90BF9088
S1131980AF909F908F907F906F905F904F9008954D
S1131990EF92FF920F931F93CF93DF938C01FFB6C7
S11319A0F8940E941B0A882311F10E94C3010E942B
S11319B0BF018091F705882381F083E50E947D0AA9
S11319C0E82E80E00E947D0AC82FD0E0DC2FCC27CF
S11319D080E00E947D0AC82B01C0E12C0E94C30153
S11319E0E1FE05C0F801C083FFBE80E002C0FFBE77
S11319F081E0DF91CF911F910F91FF90EF900895B7
S1131A00CF93DF9300D0CDB7DEB79FB7F894209182
S1131A10F705222389F09FBF6A8379830E947D0A98
S1131A207981872F0E947D0A6A81862F0F900F90FB
S1131A30DF91CF910C947D0A9FBF80E00F900F90AF
S1131A40DF91CF91089580911C0790E00B9725E0DA
S1131A50289FB001299F700D11246B597E4F70642B
S1131A6088E10C94000DE1E080918E03811101C0A6
S1131A70E0E041E080919701811101C040E021E064
S1131A808091D201811101C020E080912702882336
S1131A9051F051E030E080911D06811101C050E009
S1131AA0852F932F02C080E090E06091AA0730E474
S1131AB0639FB001112462627260F0E0FE2FEE2792
S1131AC0F295FF0FF07E6E2B7F2B50E0542F4427AE
S1131AD05295507F642B752B30E0322F2227330F21
S1131AE0330F330F622B732B54E0880F991F5A95D1
S1131AF0E1F7682B792B81E10C94000D80914F0163
S1131B00909150010197F1F582E090E0909350019B
S1131B1080934F01DE98DE9A80914F01909150019D
S1131B20029781F583E090E09093500180934F01F8
S1131B300E94C3010E94BF0168E170E08DE10E9430
S1131B40000D81E08093DD0210924E0180B386FB8C
S1131B50882780F98093DE0283E10E94340281E0C9
S1131B600E94830A6FE772E08CE10E94000D0E94DC
S1131B70230D0E94330D66E57AE287E10E94000D91
S1131B800C94C3010895509133015C3118F4252F4E
S1131B9030E002C02CE130E08CE1E9ECF7E0DF0159
S1131BA01D928A95E9F74091350180E090E0821713
S1131BB0930791F0E42FF0E0EE5DF94F6081552337
S1131BC029F04F5F4A3F09F440E05150FC01E155D0
S1131BD0F84F628F0196EBCF409335015093330158
S1131BE00E94C608882319F083E20C9434020895F5
S1131BF0CF93DF931F92CDB7DEB79091320191114D
S1131C000BC0909133019D3738F091E090933201ED
S1131C1089830E94C30D89819FB7F8942091330171
S1131C202A3FB8F430913401E32FF0E0EE5DF94F30
S1131C30808381E0830F8A3F19F08093340102C0CE
S1131C40109234012F5F209333019FBF80E090E016
S1131C5003C09FBF8FEF9FEF0F90DF91CF91089547
S1131C60CF92DF92EF92FF92CF93C82F6A017B014C
S1131C700E94140229E0C29FF0011124E553FC4F95
S1131C80660F771F881F991F6083718382839383F4
S1131C90C482D582E682F7828085816082608087F3
S1131CA08AE1CF91FF90EF90DF90CF900C943402B3
S1131CB097B79F7D97BF90E296BF882319F08EB5A2
S1131CC0806402C08EB58F7B8EBD87B7806287BF6C
S1131CD080E008956E98BA9ABB98B99A0E94C1019F
S1131CE06C9A6F986B986A986E9A709A8DB18C7F83
S1131CF08DB908951F93CF93DF931F92CDB7DEB7AD
S1131D001FB7F8949091F70591111FC091E090933B
S1131D10F7052091080190914C01211102C09230E5
S1131D2079F0911115C092E090934C011092080142
S1131D3089830E946A0E0E94C1010E94BF018981A9
S1131D4080930B0180E01FBF07C01FBF85E004C064
S1131D501092F70581E0F7CF0F90DF91CF911F919B
S1131D600895CF93CFB7F8949091F70591110FC0D0
S1131D7091E09093F70580930B0190910801809175
S1131D804C01911110C0823071F484E118C021E03B
S1131D9030E001C0220F8A95EAF780914D01822B31
S1131DA080934D012EC0882349F180914C0181110B
S1131DB009C081E080934C011092D40186E10E9415
S1131DC034021FC08091D9018F3FD9F481E090E0A3
S1131DD0E0910901EE2311F080E090E0892B89F471
S1131DE080910A018F3F19F410920A0104C0F0E0B7
S1131DF0E752FE4F10821092090103C00E946A0E3E
S1131E00D4CFCFBF80E0CF91089580E00C94B10E81
S1131E108091C8019091C901892BF1F080918403CC
S1131E2081111AC083E090E09093C9018093C801A6
S1131E3081E08093DE019FB7F89480910B019FBFEE
S1131E40813011F40C94860B81E00E947A0E882371
S1131E50C9F381E00C94B10E0895CF92DF92EF9212
S1131E60FF92CF93DF93C82F6A017B010E94140273
S1131E70DFB7F8942C2F30E0F901B3E0EE0FFF1F29
S1131E80BA95E1F7E050FA4F6083718382839383BC
S1131E90C482D582E682F782F901E050FA4F81E0EC
S1131EA0808F80911B06811102C00E942E0CDFBF1F
S1131EB0DF91CF91FF90EF90DF90CF9008957F92C4
S1131EC08F929F92AF92BF92CF92DF92EF92FF9246
S1131ED00F931F93CF93DF9300D000D0CDB7DEB71D
S1131EE04B015C017FB6F89429833A834B835C836E
S1131EF00E941402660F771F881F991F68197909B9
S1131F008A099B096B017C0129813A814B815C819F
S1131F10621773078407950710F469017A01970122
S1131F208601061B170B280B390BB901A8017695FE
S1131F3067955795479582E00E942D0F7FBE0F90BD
S1131F400F900F900F90DF91CF911F910F91FF9001
S1131F50EF90DF90CF90BF90AF909F908F907F9045
S1131F600895CF93CFB7F89480914A0190914B0193
S1131F70019719F4CFBF89E00DC081E00E94580E8B
S1131F8081E090E090934B0180934A0110924901C3
S1131F90CFBF80E0CF910895CF93DF93EB010E94F0
S1131FA05902CD2B89F48091C70191E0980F909349
S1131FB0C701843148F01092C7019FB7F8948BB3DE
S1131FC021E082278BBB9FBF9FB7F8948BB324E09B
S1131FD082278BBB9FBF84E2DF91CF910C943402A4
S1131FE080914D0181114EC080910B018F3F09F00A
S1131FF049C08091F705811145C081E08093450770
S113200080919D0181111092450780914507882395
S1132010B9F180910801811104C080914C01823092
S113202099F180914C01823029F580910801811148
S113203021C080910A018F3FC9F09FEF909308015E
S1132040E82FF0E0E752FE4F908190930A019F3F02
S113205011F4909309019FEF90838093D40181E060
S113206080934C0186E10E94340204C080930801ED
S113207010924C0180914C01811109C06E9807C0E7
S113208085E0089581E008950E94C301CACF80E0ED
S11320900895CF93CFB7F89490910B01981719F046
S11320A0CFBF81E02DC08FEF80930B0170914D0164
S11320B0711105C01092F7050E94F00F1CC060E07A
S11320C0872F90E06170AC01062E02C055954795AC
S11320D00A94E2F740FF12C060930B0181E090E0A4
S11320E001C0880F6A95EAF78095872380934D0194
S11320F084E10E943402CFBF80E002C06F5FE2CF70
S1132100CF910895CF93CFB7F89480E00E944910FF
S1132110CFBFCF91089581E00C944910CF93CFB7EE
S1132120F8948091C8019091C901892B09F110920A
S1132130DE0180918403882319F00E9498071AC055
S11321408091D301882311F0B79904C00E9908C077
S1132150882319F081508093D3010E94080F0AC08C
S113216082E090E09093C9018093C8011092D3015A
S11321700E948B10CFBFCF91089580E88093960181
S11321801092DE0110929D07109295071092D301D0
S11321900E94C3010E94BF0188E00E94830A88E074
S11321A00E94830A0E94C3010E948B100C948E101B
S11321B00F93CF932091C1033091C2034091C30385
S11321C05091C4036091C5037091C603C091C703C5
S11321D0B091C803FC01A8E021938C2F9B2F08E049
S11321E00E940734C82FB92FA150B1F7CF910F9196
S11321F00895EF92FF920F931F93CF93DF93CDB780
S1132200DEB72C970FB6F894DEBF0FBECDBF1FB755
S1132210F894CE0101960E94D810909120028091EA
S1132220210299878A879091DB028091DC029B8747
S11322308C871FBF21E0809120029091210201969A
S113224009F020E0722F770F770F770F60E06F6748
S113225072608CE10E94000D8FB7F8949091F7059D
S1132260911102C08FBF16C08FBF80EE0E947D0AFD
S113227080E80E947D0A8E010F5F1F4F7E018DE072
S1132280E80EF11CF80181918F010E947D0A0E1560
S11322901F05C1F72C960FB6F894DEBF0FBECDBF55
S11322A0DF91CF911F910F91FF90EF900895CF93FD
S11322B0CFB7F8940E941B0A811103C0CFBF81E0FD
S11322C027C080911C06882309F10E94C3010E9443
S11322D0BF0186E00E94830A0E94C3010E94BF01DD
S11322E00E94230D0E94330D6091260270E0606EFF
S11322F0706885E10E94000D0E94C3010E94BF0125
S11323000E94F9100E94C30110921C06CFBF80E006
S1132310CF910895CF930E9457110E94B10FE0917D
S1132320F405F091F505CFB7F89480914A019091A6
S11323304B01019729F582E090E090934B01809343
S11323404A01F0939203E0939103A081B1818681C5
S11323509781890F8E5F8C930E94C3010E94BF01F5
S113236089E00E94830A0E94C3010E94BF01E09198
S11323709103F091920361E0808191810E94A90B05
S1132380CFBFCF9108950E941B0A81110C948A112A
S113239080E00E947A0E8823C9F30C94050FCF9233
S11323A0DF92EF92FF926B017C01809148018111D1
S11323B01FC083E0809348010E94140260931E06AC
S11323C070931F068093200690932106F694E79459
S11323D0D794C794C092E001D092E101E092E20167
S11323E0F092E301FF90EF90DF90CF900C94DC0229
S11323F0FF90EF90DF90CF900895CF93E0919B01F1
S1132400F0919C01C0810E94E5042FEF3FEF02C0D0
S1132410220F331FCA95E2F74DE050E0509352016A
S113242040935101209530952623372384E1829FE0
S1132430B001839F700D112480E090E0CF910C9443
S1132440CF11CF92DF92EF92FF920F931F9380915F
S11324504A08882339F000915807109159071092BF
S11324604A0818C0E0919B01F0919C0110810E94E0
S1132470E5042FEF3FEF02C0220F331F1A95E2F756
S1132480209530952623372384E1829F8001839F02
S1132490100D11240E94140220E030E0660F771F13
S11324A0881F991F600F711F821F931FC090E50141
S11324B0D090E601E090E701F090E8016C197D0905
S11324C08E099F09C0908F01D0909001E0909101F6
S11324D0F0909201C616D706E806F90698F48091A2
S11324E0F4059091F505892BE9F010929D010E9465
S11324F0CA020E94821084E090E09093520180937B
S1132500510110C08EE090E09093520180935101EC
S1132510C901B8011F910F91FF90EF90DF90CF9008
S11325200C94CF111F910F91FF90EF90DF90CF90FB
S113253008952F923F924F925F926F927F928F9263
S11325409F92AF92BF92CF92DF92EF92FF920F933E
S11325501F93FC01DB0117968C91179716968C90AC
S11325601697912CA12CB12C540199248824B82AB3
S113257014968C911497882A15968C911597982AFD
S11325809401A50160E070E080E090E000E20E9428
S1132590EC331396FC90139712962C901297822C7E
S11325A0912CA12CB12C540199248824BF28FC908F
S11325B08F281196AC919A2A1401250151016201C8
S11325C0E12CF12C00E010E00E94233420833183BD
S11325D04283538364837583868397831F910F910A
S11325E0FF90EF90DF90CF90BF90AF909F908F902F
S11325F07F906F905F904F903F902F900895FC01D3
S1132600CB01328137FF29C0232F2C70283021F0D1
S11326102C3021F023E003C027E001C02DE04181EC
S113262046FF01C033FF2E5F3196432F407C30E0DC
S1132630403861F4E20FF31F218130E0322F22276A
S11326404081242BFC013183208305C0BF01620F2C
S1132650731F0E94991280E0089581E008958F927B
S11326609F92AF92BF92CF92DF92EF92FF920F931D
S11326701F93CF93DF93EC014A01D901B02EF601E9
S11326808EEF860F823070F54B839C82623039F472
S11326909C9111968C919D838E8317E026C02C917A
S11326A011963C91119712964C91129713965C9146
S11326B0139714966C91149715967C91159716960A
S11326C08C91169717969C91DE0115966E011DE06C
S11326D0C10ED11C2D9308E00E940734AC15BD0532
S11326E0C9F702C013E001C01DE08EEF8B0D8230EC
S11326F058F58E149F0411F4A11007C0DE01A10F38
S1132700B11DEC921196FC921E5FA12FB0E082E005
S1132710B81208C090818181CA0FDB1F9883898316
S11327201E5F12C020813181428153816481758191
S113273086819781CA0FDB1FE8E0299308E00E9495
S11327400734E150D1F7185F812FDF91CF911F91AA
S11327500F91FF90EF90DF90CF90BF90AF909F903C
S11327608F900895AF92CF92DF92EF92FF920F93E2
S11327701F93CF93DF93CDB7DEB728970FB6F894A6
S1132780DEBF0FBECDBFFC01562F642FC9019801D7
S1132790E0900A02F0900B0244E0649F600111246F
S11327A040E4549FD0011124AC2942814373A42BEB
S11327B0A2834181523069F4A0910C02B0910D02C0
S11327C0BA83A983623008F18E159F05F1F4406441
S11327D01DC07091C10379837091C2037A83709193
S11327E0C3037B837091C4037C837091C5037D8391
S11327F07091C6037E837091C7037F837091C80371
S11328007887623010F05230F8F64F7B4183A18014
S1132810A6FAAA24A0F8DE0111966D01052FAC01D9
S1132820CF0101960E942F1380E028960FB6F894EA
S1132830DEBF0FBECDBFDF91CF911F910F91FF90EF
S1132840EF90DF90CF90AF9008952FB7F894B79999
S113285005C00E9903C02FBF81E0089580E88093DE
S113286096011092DE0110929D0710929507109226
S1132870D30182E090E09093C9018093C80189B7A5
S11328808F7B89BF80E488BF8AB780628ABF8AB79A
S11328908F7E8ABF89B7806489BF2FBF80E0089587
S11328A0E091F405F091F5050190F081E02D81812E
S11328B085FF04C00E9482100C9425140895109280
S11328C00701E0919303F09194033097D1F0809144
S11328D09E0780FD16C080910701811116C02389CF
S11328E084896789673718F08CE10C94340290E08E
S11328F0922B848B938BCF010E948208882329F02A
S1132900F3CF81E080930701E6CF0895CF93CFB74B
S1132910F8940E941B0A811103C0CFBF81E01FC03D
S1132920B79B1BC00E94BF018091F705882349F023
S11329308FE70E947D0A80E00E947D0A80E00E9469
S11329407D0A0E94C3010E94BF0188E00E94830A9D
S113295088E00E94830A0E94C301CFBF80E0CF9128
S113296008951F93CF93DF931FB7F8948091CD05FB
S11329708111AEC08CE00E949A02882309F4A8C099
S113298081E08093CD0580915A01882339F00E941B
S1132990491E8330910509F486C089C080912802BC
S11329A09091290220917C08211106C021E0029710
S11329B009F020E0822F01C081E0209157018111AC
S11329C008C081E090E0211102C080E090E0892BF2
S11329D051F08CE00E94B702882309F471C08CE0A6
S11329E00E946D1570C08091990190919A01892B74
S11329F009F442C08CE00E94B702882309F460C045
S1132A00C0919901D0919A010E94AA028C3089F553
S1132A10209779F188819981892B59F18A819B8149
S1132A20892B19F48F81811124C08C819D81892B7C
S1132A3001F12E818F8190E0820F911D8E379105D7
S1132A40C4F48091510190915201049791F48AE069
S1132A5090E09093520180935101D093F505C09377
S1132A60F40583EA93E090939C0180939B010E9478
S1132A70C31182E090E01BC08091DA01811104C08F
S1132A8080918003882349F00E94491E8330910578
S1132A9071F484E00E94340206C08CE00E94B70204
S1132AA0811111C00DC01092CD0583E090E01FBFCD
S1132AB0892B79F48CE0DF91CF911F910C94C30999
S1132AC080E090E0F4CF1092CD058CE00E94D30B0F
S1132AD01FBFDF91CF911F9108951F93CF93DF9371
S1132AE01F92CDB7DEB790910D019C3021F48983FC
S1132AF00E94B11489811FB7F89490915B019111E0
S1132B000BC091E090935B018093CC0182E00E9422
S1132B1034021FBF80E017C0E82FE695E695E695DE
S1132B20F0E0E753FC4F9081877021E030E001C072
S1132B30220F8A95EAF7892F822319F4292B2083FF
S1132B4001C085E01FBF0F90DF91CF911F910895C1
S1132B508CE00E949A02811103C08CE00C946D15E4
S1132B600C94B1142FB7F894FC01808180938003F6
S1132B702FBF0C94A81520EE280F982F41E050E0A9
S1132B8060E070E0992351F0440F551F661F771FD2
S1132B9091509213F7CF40E050E0BA014427587F98
S1132BA07770452B462B472B51F08093F90169EF41
S1132BB071E080E00E94F60880E090E0089588EEDD
S1132BC090E00895CF93DF93CFEFDFEFD0930B0224
S1132BD0C0930A026AE072E080E50E94F608D0938E
S1132BE00D02C0930C026CE072E083E50E94F608CB
S1132BF01092F601D0930902C0930802E8E1F2E0D2
S1132C001082118212821382148215821682178214
S1132C10DF91CF910895EF92FF920F931F93CF937B
S1132C20DF93CDB7DEB728970FB6F894DEBF0FBE9B
S1132C30CDBF8C017B01FC01608171816A5F7F4F94
S1132C40CE0101960E949912F801808191810E941F
S1132C508303C8010E94590210923B02E114F1045B
S1132C6021F0F9EEEF16F10429F40E94E215EF28A1
S1132C7009F4D99A28960FB6F894DEBF0FBECDBFDB
S1132C80DF91CF911F910F91FF90EF9008950F93D3
S1132C901F93CF93DF93CDB7DEB728970FB6F89481
S1132CA0DEBF0FBECDBF8B01BA01813069F130F0B8
S1132CB0823069F5C8010E94CC0F29C0D801ED917A
S1132CC0FC9182818C70883049F4878190E0982F40
S1132CD088272681822B9A83898307C0BF016A5F74
S1132CE07F4FCE0101960E949912D8011296ED9160
S1132CF0FC9113978FEF80838D919C910E948303A5
S1132D00C8010E94590203C0C8010E940B162896EC
S1132D100FB6F894DEBF0FBECDBFDF91CF911F91E8
S1132D200F9108956F927F928F929F92AF92BF926C
S1132D30CF92DF92EF92FF920F931F93CF93DF9383
S1132D40CDB7DEB768970FB6F894DEBF0FBECDBF20
S1132D508AE10E94BB151092F10108E716E910936D
S1132D600B0200930A026AE072E080E50E94F60812
S1132D7082E297E790930902809308022091FC0174
S1132D80B090D0019A8B898B88E0FE017196DE01A8
S1132D90199601900D928A95E1F7211190C08091C6
S1132DA0E40181118CC00E94F5014C01009709F4E3
S1132DB086C00E94A0033C01009721F4C4010E9434
S1132DC059027DC08BEE8093D1018FEF9FEF9093DA
S1132DD05307809352078AE10E94BB1510930B029C
S1132DE000930A026AE072E080E50E94F60812E0AD
S1132DF01093DD0189859A859093090280930802D6
S1132E00D40111967C926E92C3014A9615969C93B6
S1132E108E9314978091C10389838091C2038A831E
S1132E208091C3038B838091C4038C838091C503F9
S1132E308D838091C6038E838091C7038F83809195
S1132E40C8038887A12CFE0131966F01EE24EA9411
S1132E50FE2C03E09E01275F3F4F48E756E962E0FE
S1132E60C30101960E942F13D40116968C931697D2
S1132E70ED91FC91119783E28183ED91FC9111977F
S1132E8088EC828321E020934B08B0924C088BE4B9
S1132E9098E013969C938E93129717961C93209305
S1132EA0E401B40181E00E947F09892B41F0109272
S1132EB0E401C4010E945902C3010E94830368967D
S1132EC00FB6F894DEBF0FBECDBFDF91CF911F9137
S1132ED00F91FF90EF90DF90CF90BF90AF909F90B5
S1132EE08F907F906F9008950F931F93811112C05C
S1132EF0D99820914E0830914F0800E518E042E03F
S1132F0062E08CE392E00E94B21384E21F910F917D
S1132F100C943402DA981F910F910C9492168091BC
S1132F20E4018823A9F08091DC038D7F8093DC0386
S1132F301092E4018FEF9FEF90930B0280930A02AB
S1132F406AE072E080E50E94F608DA980C94921622
S1132F500895CF92DF92EF92FF920F931F93CF9336
S1132F60DF93CDB7DEB760970FB6F894DEBF0FBE20
S1132F70CDBF7B016A01082F10E0F8013197E830DA
S1132F80F10508F0DFC0EA5BFF4F0C94E633DB0188
S1132F908D919C910E948303C7010E945902C11420
S1132FA0D10431F01092E4018C2D0E947417CAC030
S1132FB02091070280EC93E0289FA001299F500DE7
S1132FC01124662757FD6095762F81E00E94300E0C
S1132FD0B9C0BA01C7010E940B16B4C0DB01ED9160
S1132FE0FC91BF016F5F7F4F82818C708C3011F038
S1132FF087E001C08DE0680F711DCE0101960E942B
S11330009912F701808191810E948303C7010E9474
S1133010590210923B02C114D10429F0F9EECF16E3
S1133020D10409F08FC00E94E215CD2809F08AC0AE
S1133030D99A88C0BA01C7010E94CC0F83C080917D
S113304064059091650501979093650580936405E7
S1133050DB0119968C9192E0980F923020F0811147
S113306002C00E948F17F701808191810E9483031F
S1133070C7010E94590266C0F5E064327F0719F463
S113308010922C055FC0E1E8F1E080E090E021912E
S113309031912E153F0541F4FC01EE0FFF1FEF5750
S11330A0FE4F1182108204C001968730910579F792
S11330B01092490810924808809165018F77D701D2
S11330C018968C9318979091990391509093990323
S11330D0ED91FC9192819C70983031F49091F605B9
S11330E091509093F60507C09C3029F490915B07AA
S11330F0915090935B07A601B7010E94471688E0A0
S11331000E9434021FC0FB0100811181809156018D
S11331108823C1F0B8016A5F7F4FCE0109960E94EF
S11331209912B801605F7F4FCE0101960E949912F7
S1133130D7018D919C910E948303C7010E9459027B
S11331401092560160960FB6F894DEBF0FBECDBF45
S1133150DF91CF911F910F91FF90EF90DF90CF906F
S113316008950F931F93CF93DF93EC018B0180910C
S1133170FF058E7F8093FF0580915301882371F0B2
S11331800E947305A801BE0188850E94A91787E0E3
S1133190DF91CF911F910F910C943402DF91CF9165
S11331A01F910F9108958091990190919A01009730
S11331B021F061EF70E00E94B11880917008909145
S11331C07108009721F061EF70E00E94B11810922D
S11331D071081092700810929A01109299018091CE
S11331E0EE038D7F8093EE0380E008954F925F920B
S11331F06F927F928F929F92AF92BF92CF92DF9203
S1133200EF92FF920F931F93CF93DF93CDB7DEB767
S113321068970FB6F894DEBF0FBECDBFEBECF3E0BA
S113322020E030E0108511FFD7C1408051806280DA
S11332307380C480D580E680F7804B015C018418DC
S11332409508A608B7088C149D04AE04BF0408F4BE
S1133250C3C110FF03C01D7F10870AC0D301C20180
S11332608C0D9D1DAE1DBF1D80839183A283B383EE
S1133270223009F4CDC018F4213081F006C0233087
S113328009F460C1243009F460C180E00E949A020C
S1133290882309F4A8C10E94E709A5C18091E4012B
S11332A0882309F4A0C11091DD01123039F4909102
S11332B0080280910902998B8A8B1BC02091180205
S11332C03091190240911A0250911B0260911C0224
S11332D070911D0280911E0290911F02FE01719651
S11332E0DE015996219308E00E940734EA17FB0790
S11332F0C9F740900A0250900B020E94F5014C015C
S1133300009709F48AC10E94A0033C01009709F4C4
S11333107BC0D40111969C938E934A9615969C93E8
S11333208E93149719961C92E0900A02F0900B0267
S1133330123019F442E050E002C048E050E0BE010F
S11333406F5E7F4FCE0101960E943E34D401ED9111
S1133350FC91123010F483E204C04E145F04D9F7D8
S113336083E68183812F880F880F806C828380910C
S1133370C10389878091C2038A878091C3038B87A5
S11333808091C4038C878091C5038D878091C60387
S11333908E878091C7038F878091C803888BA18013
S11333A0A6FAAA24A0F8F401808191819E01275FE6
S11333B03F4F690103E09E012F5F3F4FA201612F40
S11333C001960E942F13D40116968C9316978CE0C5
S11333D091E013969C938E93129781E017968C93A9
S11333E0B40186E00E947F09892B21F0C3010E9469
S11333F083030AC0809164059091650501969093BA
S1133400650580936405EFC0C4010E94590205C19B
S11334100E9414022B013C01440C551C661C771CB1
S11334208091FF018F3070F421E030E002C0220F60
S1133430331F8A95E2F7A0ECB3E00E94AA339B0104
S1133440AC0104C020EC33E040E050E0A0910E0257
S1133450B0910F020E94B9336B017C0101E811E0C5
S1133460812C912C5401D801ED91FC91309709F4F1
S11334704BC08091480890914908E817F90709F46E
S113348043C0848195810E94B001A70196010E94E6
S1133490EA09D801ED91FC911197882321F18085E7
S11334A08F7780871D921C929091990391509093ED
S11334B09903A081B18112969C919C70983031F44B
S11334C09091F60591509093F60507C09C3029F42D
S11334D090915B07915090935B0740EF50E0BF01E0
S11334E00E94471611C0848195810E94B001A301F6
S11334F09201261B370B480B590B82169306A40620
S1133500B50610F449015A010E5F1F4F31E00F3820
S1133510130709F0A8CF81149104A104B10409F49C
S113352062C0C814D904EA04FB0410F4460157012C
S1133530B701A601481959096A097B0982E00E946A
S1133540300E51C00E9474034EC08091DA01811183
S113355039C081E08093DA0180914E0790914F0742
S1133560A0915007B091510740912202509123023B
S11335706091240270912502840F951FA61FB71F26
S113358040913702509138026091390270913A02A9
S11335904093EF035093F0036093F1037093F203AD
S11335A08093F3039093F403A093F503B093F6038D
S11335B08091F703816082608093F7038AE10E941F
S11335C0340207C01092DA018091640181111092D3
S11335D064010E94A81507C02F5F3F4F399625301C
S11335E0310509F01FCE8AE10E94340268960FB6B5
S11335F0F894DEBF0FBECDBFDF91CF911F910F9125
S1133600FF90EF90DF90CF90BF90AF909F908F90FE
S11336107F906F905F904F9008950E948F170E9443
S11336208F17E1CF87E090E090935201809351018E
S11336300E948A0A81E080939D010E9482100E9468
S1133640AA02823031F08C3039F0811110C089E047
S113365001C08DE00C94340280915A01882319F042
S113366085E00E9434021092CD050C94B1140895A3
S1133670CF9386E090E090935201809351010E9491
S113368057110E94CA020E94B10FCFB7F89420913B
S11336908F0130919001409191015091920160917C
S11336A0E5017091E6018091E7019091E8010E94A3
S11336B0EA09882319F00E94121B1FC020918F0170
S11336C03091900140919101509192018091E501D6
S11336D09091E601A091E701B091E801E0914801E1
S11336E0E1110BC0E1E0E0934801BC01CD01605160
S11336F07109810991090E94240ACFBFCF910895CD
S1133700CF93C82F0E94AA02C81331C02FB7F894D0
S11337108091510190915201049719F02FBF81E0DB
S113372027C085E090E090935201809351012FBF10
S11337301092E5011092E6011092E7011092E8015F
S113374010928F01109290011092910110929201A7
S11337500E94251481110CC00E947A0E811103C0AD
S11337600E94381B02C00E94050F80E001C081EF57
S1133770CF9108950F931F93CF93DF93E091EA05C0
S113378041E050E060E070E00E2E04C0440F551F8D
S1133790661F771F0A94D2F7F0915A07F11121C0DE
S11337A08091540790915507A0915607B0915707FF
S11337B08827987FB770EB3190F4C1E0CE0F8A016F
S11337C09B01082319232A233B23012B022B032BC0
S11337D031F4440F551F661F771FEC2FECCFE09395
S11337E0EA058091EA058B3108F095C0F11195C086
S11337F00E94BB1580919907813079F008F45DC06F
S1133800823021F0833009F0E2C007C080E0DF910C
S1133810CF911F910F910C94801BC0915801D091AE
S113382059010E94AA028111D2C0209709F4CFC085
S113383088819981892B09F4CAC08A819B81892B4B
S113384019F48F818111C3C08C819D81892B09F466
S1133850BEC02E818F8190E0820F911D8E3791051D
S11338600CF0B5C02FB7F89480915101909152019A
S1133870049711F02FBFABC089E090E09093520100
S1133880809351012FBFD093F505C093F405109296
S1133890E5011092E6011092E7011092E8011092FE
S11338A08F01109290011092910110929201DF9178
S11338B0CF911F910F910C94C3118091D2029091DA
S11338C0D302A091D402B091D5024FB7F8942091BD
S11338D05101309152012330310519F02430310562
S11338E011F04FBF74C023E030E0309352012093B5
S11338F051014FBF80939E0190939F01A093A0011B
S1133900B093A1018DEA8093EF01DF91CF911F91D4
S11339100F910C94050FFF2351F180919907815069
S1133920823020F476956795579547950091540712
S1133930109155072091560730915707DB01CA01B2
S113394088279927AA27BC7F892B8A2B8B2B79F46C
S1133950DB01CA0180239123A223B323892B8A2B61
S11339608B2B29F0440F551F661F771FE7CF8091DB
S113397099078150823068F48091A1039091A20349
S113398090930B0280930A026AE072E080E50E9441
S1133990F608E0915801F0915901309751F0808177
S11339A091810E94830380915801909159010E9452
S11339B05902109259011092580180E00E949A0213
S11339C0882319F080E00E94D30B10925701DF91F5
S11339D0CF911F910F910895CF93DF9381E00E94BF
S11339E09A02882309F4B1C00E94D3180E94D31804
S11339F08091FF0582608093FF05809153018823A5
S1133A0051F00E94730541EF50E0BC01FC01808538
S1133A100E94A917F2CF8091FF058D7F8093FF0547
S1133A2080915701882329F081E080935A070E94EE
S1133A30BA1B10929B0787EA93E09093A1078093A7
S1133A40A0071092A60780E395E09093A3078093C4
S1133A50A20784E08093A70788EF95E09093A507D9
S1133A608093A4078091DC038D7F8093DC038FEF28
S1133A7080934B081092DD011092E401EEECF5E026
S1133A808083349695E0EA3EF907D1F78FEF80936F
S1133A90CD011092DC0110923B0210926505109248
S1133AA064058091E5038D7F8093E503C1E8D1E04F
S1133AB0E991F991309731F041EF50E0BF018085F1
S1133AC00E944716E1E0CF38DE0791F7E1E8F1E024
S1133AD01192119281E0EF38F807D1F7109249085A
S1133AE010924808109299031092F60510925B0701
S1133AF086E691E090932505809324058AE697E075
S1133B0090932905809328058BE597E090932705EA
S1133B108093260510922B0510922C0581E090E0ED
S1133B20909329028093280280916401811110925C
S1133B3064011092DA018091F7038D7F8093F7037B
S1133B4081E0DF91CF910C943402DF91CF910895FD
S1133B504091010280915701811102C00C94D30B52
S1133B6080919907823081F18330D1F1813009F05D
S1133B7082C0E0915801F0915901A081B18193E094
S1133B8011969C93A081B18198E012969C93A08198
S1133B90B18113964C934F5F40930102A081B18190
S1133BA09FEF14969C93A081B18115969C93A0815C
S1133BB0B18116969C93A081B18117969C9397E04E
S1133BC0968390939C0787838FEF9FEF90930B02CC
S1133BD080930A026AE072E080E50E94F6084BC016
S1133BE05091070220EC33E0529FC001539F900D87
S1133BF01124AA2797FDA095BA2F8093D2029093FF
S1133C00D302A093D402B093D502E0915801F0916D
S1133C105901A081B18183E411968C93A081B18173
S1133C2088EC12968C93A081B18113964C934F5FCC
S1133C3040930102A081B1818FEF14968C93A081EF
S1133C40B18115968C93A081B18116968C93A08135
S1133C50B18117968C938081918108960E94D81027
S1133C60E0915801F09159018FE0868386E08093BA
S1133C709C0781E087830C94BA1B80912802909161
S1133C802902029719F482E00C94801B8EE00C94B4
S1133C9034020E94AA028C3089F4809151019091DF
S1133CA05201079759F08CE00E94B702882349F02B
S1133CB08CE00E94801B81E090E0089583E090E016
S1133CC0089580E090E008950E94CA020E94030BC8
S1133CD00E94861410929D010E94821084E090E05C
S1133CE090935201809351010E94AA02813041F0C5
S1133CF028F0823041F08C3041F008950C948D0509
S1133D0080E00C9434020C943D1E1092CD050C946A
S1133D10B1140F931F93CF93DF930091510110912E
S1133D205201C091F405D091F5050E94030B0E9445
S1133D30861410929D010E94CA020E94821084E09F
S1133D4090E090935201809351010F30110529F4B2
S1133D500E94AA0281117AC03DC00031110509F008
S1133D6075C010919501009193010E94AA028C30B4
S1133D7009F06CC010922E02113091F118F01B3032
S1133D8091F14DC01092ED011092EC01EA81FB819A
S1133D908081843009F043C0E881F9818181877092
S1133DA08330E9F58BEE90E09093ED018093EC0184
S1133DB00023A9F181E080935A01809199019091A7
S1133DC09A01909371088093700810929A0110924E
S1133DD099018CE0DF91CF911F910F910C94801B7E
S1133DE081EE90E018C080915C07882391F01092D6
S1133DF0A60390917F039093A5039091CB05909394
S1133E00A403909161019093A303815080935C0774
S1133E1015C089EE90E09093ED018093EC018091C0
S1133E20990190919A01909371088093700810926F
S1133E309A011092990183E00E9434021092CD05F8
S1133E40DF91CF911F910F910C94B114DF91CF9119
S1133E501F910F91089580939301609395010E949F
S1133E601B0A811102C00C94A7090C94891E0F939C
S1133E701F93CF93DF93EC018B018091E10286FFC6
S1133E802AC18F7B8F3309F0B0C1C0916705D091EF
S1133E90680528812093CA018091C8019091C901C5
S1133EA08430910579F118F4039749F003C1853002
S1133EB0910509F451C0069709F469C0FBC084E078
S1133EC090E09093C9018093C80130E080919601FD
S1133ED090E02817390734F0DF91CF911F910F91AB
S1133EE00C94BD10B79903C00E9B0E94BD10809125
S1133EF0CA0184508E3880F7BE016F5F7F4F43E064
S1133F0050E022C06A81898183FDE6CF44E951E013
S1133F100E9482078111E0CF409194018091CA01EF
S1133F2090E00197242F30E028173907ACF644308D
S1133F3098F085E090E09093C9018093C8014350C4
S1133F4050E0BE016C5F7F4F80E090E0DF91CF9145
S1133F501F910F910C946C0B4091CA012091940114
S1133F60842F90E0821B9109893791050CF0B4CF1E
S1133F7086E090E09093C9018093C801421B50E011
S1133F806091670570916805665E7F4FDDCF0E9482
S1133F90C3018091D301811102C00E948B10309122
S1133FA09507C0916705D09168052091CA01332314
S1133FB049F12530C0F180919D0790E0FC01EE0F9E
S1133FC0FF1FEE0FFF1FEB58F84F70816181528184
S1133FD04381DE01AD56BF4F7C93DE01AE56BF4F29
S1133FE06C93DE01AF56BF4F5C93DE01A057BF4F09
S1133FF04C9301968770992780939D073150309395
S1134000950711C08FEFDE01AD56BF4F8C93DE01D3
S1134010AE56BF4F8C93DE01AF56BF4F8C93DE017B
S1134020A057BF4F8C93E22FF0E080919401E81BDE
S1134030F109EC0FFD1F818D87FF36C0012BA1F123
S113404089818770823029F580914A0190914B01D2
S11340500697D9F4E0919103F09192030190F081D5
S1134060E02D93818B81981310C00E94C501898132
S113407021E030E030934B0120934A0160E08295C7
S113408081700E942B1F0E94F00F80918E03882361
S113409059F080918403811107C088E1DF91CF91A9
S11340A01F910F910C943402DF91CF911F910F91C6
S11340B00C948E101092DE010E94C3010E948B109A
S11340C080918403882309F490C0DF91CF911F91DC
S11340D00F910C9498078E3309F087C00E94C30196
S11340E0E0919103F091920380819181C817D907DF
S11340F059F40E94BF01E0919103F09192038081F1
S11341009181668101960DC00196C817D90779F48B
S11341100E94BF01E0919103F09192036781828133
S11341209381DF91CF911F910F910C94A90B83E0A0
S113413090E090934B0180934A01809151019091BA
S113414052018A30910509F444C08B30910509F479
S113415046C0099709F049C08CE090E09093520161
S11341608093510120918F013091900140919101F0
S113417050919201211531054105510579F48FE0E3
S113418090E0909352018093510180E00E94A40A30
S1134190DF91CF911F910F910C9450148091E50100
S11341A09091E601A091E701B091E801E091480106
S11341B0E1111BC0E2E0E0934801BC01CD01605174
S11341C0710981099109DF91CF911F910F910C948D
S11341D0240ADF91CF911F910F910C94FD11DF916F
S11341E0CF911F910F910C942112DF91CF911F91C8
S11341F00F9108956F927F928F929F92AF92BF9288
S1134200CF92DF92EF92FF920F931F93CF93DF939E
S1134210CDB7DEB760970FB6F894DEBF0FBECDBF43
S113422090E08532910510F00C94042BFC01E25BC4
S1134230FF4F0C94E6332FB7F8948091510190917D
S11342405201009711F42FBF40C3049709F0E3C251
S113425081E090E018C080917C08815080937C08B4
S1134260882311F081E03FC02FB7F8948091510169
S1134270909152018430910509F4CDC2892B09F043
S1134280CAC282E090E090935201809351012FBF03
S11342900E94050F0C94042B8FB7F8949091CC01D5
S11342A090930D0192E090935B018FBF80910D017B
S11342B0813089F038F08230D1F08C3009F409C1B2
S11342C00C94042B80E00E94B70281114FC10E941C
S11342D0E7090C94042B81E00E94C309882311F49C
S11342E00C94042B80E00E9434020C94042B9FB79E
S11342F0F89481E080931C061092D20180938E037F
S1134300109227029FBF82E00E94B702882321F007
S11343100E943D1E0C94042B82E00E94C3090C945D
S1134320042B80917008909171086091EC01709158
S1134330ED0110925A0110927108109270080097C2
S113434009F4C7C00E94B118C4C08091DA0188235F
S113435011F40C94042B80916401882311F40C94BF
S1134360042B109264010C94042B40911002509180
S11343701102609112027091130283E0EFC08091E8
S1134380FF0580FF02C00C94042B80915301882305
S113439011F40C94042BE0915501F0E0EE0FFF1F93
S11343A0EA5BF84F00811181D80116968C91811136
S11343B00AC00E94730560E070E0C8010E94CC0F3F
S11343C087E00E943402F801808580938503209160
S11343D0FF05822F81608093FF0580919901909160
S11343E09A01892B11F00C94ED2A0190F081E02DB3
S11343F08181882339F08091010283838F5F8093C8
S1134400010206C08091000283838F5F80930002C3
S11344101092A6038091020280937F038093A503E8
S1134420809105028093CB058093A40380910302BD
S11344308093A3039091F201992329F0833018F01B
S113444082E08093A3038091A30380936101809110
S11344504808909149088017910719F410925C0755
S113446004C08091060280935C07D80116968C9153
S1134470169717964C91179750E0480F511D495FB6
S11344805F4F440F551F662757FD6095762F409365
S11344909A0350939B0360939C0370939D03ED9147
S11344A0FC91818185FF0CC04A5C5F4F6F4F7F4F49
S11344B040939A0350939B0360939C0370939D03D2
S11344C010939A01009399018CE00E949A02882328
S11344D021F00E94B1140C94042B8CE00E946D1501
S11344E00C94042B8091480890914908892B11F071
S11344F00C94042B80919903882311F40C94042BBD
S1134500E1E8F1E06191719161157105C1F0DB01A0
S113451018968C9187FF13C07093490860934808DC
S11345208093650187E00E947F09892B11F40C9424
S1134530042B109249081092480888E0D4CEB1E0C8
S1134540EF38FB07F9F60C94042B4091D2025091FA
S1134550D3026091D4027091D50280E00E94300EA3
S11345600C94042B0E94BA1B0C94042B0E94A81DCB
S11345700C94042B60EA77E080E00E947F090C949D
S1134580042B83E090E090932902809328020C94FA
S1134590042B9FB7F89481E080931C068093D2018A
S11345A010928E03809327029FBF81E090E0909346
S11345B029028093280282E00E94D30B0C94042BDE
S11345C0CE0101960E94C80C811107C08981909187
S11345D0EF01981714F48093EF0120919E0130911C
S11345E09F014091A0015091A101609162077091D7
S11345F0630780916407909165070E94EA09882304
S113460009F42DC18091EF018D528093EF010E9436
S1134610030B0E9486140E94821084E090E0909321
S11346205201809351019091EF0180918001882380
S113463069F0E091AB07F091AC078091FE0521E0B1
S1134640280F2093FE05E80FF11D90839091FE053D
S113465080918001981303C081E080935A070E94DF
S1134660E709893011F00C94042B0E948D05CCC706
S11346708FB7F89490911C078FBF8FB7F89421E0FF
S113468020931C0690931C078FBF0E9457110E9411
S1134690821084E090E0909352018093510181E074
S11346A00E949A02882309F4AFC78091660581119C
S11346B00E94990569EF71E080E00E94F6086CE0C1
S11346C072E083E50E94F6086AE072E080E50E94E9
S11346D0F6086BEF71E083E00E94F6086AEF71E080
S11346E082E00E94F60868EF71E080EF0E94F6080D
S11346F081E00E94D30B0E94921686C780915101DB
S1134700909152018830910531F008F47DC70F97DC
S1134710039738F079C780E00E947A0E8111B8CDF2
S1134720D7C00E941B0A8111A2C080E00E947A0EA9
S1134730882309F49CC0ACCD80E00E947A0E8111DC
S11347400FC00E9457118091510190915201079717
S113475021F40E94030B0E948A0A0E94821054C70B
S113476082E1C1CD8FB7F89490914E01911116C694
S11347708FBF10B316FB112710F98091DD029091C1
S1134780DE02981721F1181322C084E090E0909380
S1134790500180934F018FB7F89491E090934E01AC
S11347A08FBF0E94C3010E94BF0160E070E08DE1F1
S11347B00E94000D0E94F9100E94C3010E94030B85
S11347C00E94861410929D0180E10E94340210938D
S11347D0DE0283E188CD9FB7F89480910B019FBFDF
S11347E0882321F0813009F476C00EC7E09151018D
S11347F0F09152013197E131F10508F005C7ED5808
S1134800FF4F0C94E6332FB7F89480914F019091A9
S11348105001892B11F02FBFF7C681E090E09093EF
S1134820500180934F012FBFDD9A44E150E060E0D6
S113483070E080E00E942D0FE7C60E9457110E948D
S11348408A0A0E941402660F771F881F991F6093BB
S113485062077093630780936407909365078FE002
S113486042CD0E94381BD0C60E948A11CDC60E9438
S1134870891ECAC60E94030B0E9486141FB7F894AF
S113488080914F0190915001049779F482E090E077
S11348909093500180934F010E94C3010E94BF0175
S11348A087E00E94830A0E94C3011FBF1092500137
S11348B010924F01DE98DD98DE9A10929D010E94BD
S11348C0821010925201109251010E94EC1C9CC65D
S11348D00E94641E99C61FB7F8948091C8019091F4
S11348E0C901892BF9F00E94860B1CC01FB7F894EC
S11348F060912E0570912F058091AD079091AE07C0
S113490010922F0510922E051092AE071092AD074B
S113491010926301109262011092900310928F031F
S11349200E94371F1FBF70C68FB7F8949091D401AF
S11349309093080192E090934C018FBF80910801FD
S1134940811162C60E94C1010E94BF0184E1CBCCE7
S11349500E948B108FB7F8941092C9011092C8016D
S11349608FBF81E1C0CCE0916705F091680520819B
S1134970225080919401281B8FB7F8948FBF8090A8
S1134980670590906805822F90E0D401A80FB91FA5
S11349905B963C913F77D4013C93A80FB91F5A967C
S11349A08C91DF01AC56BF4F8C93D4018C91EB56A4
S11349B0FF4F80832C93809151019091520107976E
S11349C009F059C312968C91807390E041973CF0A2
S11349D08091280290912902039709F04CC3F401B5
S11349E0818183FF07C08091280290912902039757
S11349F009F041C30E94AA02823009F452C18C30EA
S1134A0009F45BC1811137C380915701882309F4EC
S1134A1032C380919907833009F04BC08091FE0521
S1134A20811129C3D40111968C9111978770833019
S1134A3009F021C35A968C915A97883009F01BC308
S1134A405C968C915C9790E0982F88275B962C91CC
S1134A50822B90930B0280930A026AE072E080E555
S1134A600E94F608F401868D90E0982F8827258D02
S1134A70822B9093090280930802878D0E94BB15B4
S1134A80D40191968C91919790E0982F88279096D5
S1134A902C91822B90930D0280930C026CE072E0B7
S1134AA083E50E94F6088091FE058F5F8093FE05E2
S1134AB010C0F4018181877009F0DDC28091F10199
S1134AC0882309F4D8C28091FE059091800189174A
S1134AD058F081E080935A078091D3038D7F8093AF
S1134AE0D3030E94E709C7C20091AB071091AC073A
S1134AF0F2E28F9F000D111D1124F090EA05D401FC
S1134B0012968C911297982F9078903809F0B3C22E
S1134B108295869586958370F801808315968C918D
S1134B20159790E0982F882714962C911497822B30
S1134B309283818312968C911297807C803861F4E1
S1134B4017968C91179790E0982F882716962C919A
S1134B50822B9483838307C0B4016A5F7F4FC801AB
S1134B6003960E949912D8011B96FC921B971C96DF
S1134B701C921C97F401828D1D968C931D97838D36
S1134B801E968C931E97848D881F8827881F1F96D6
S1134B908C931F97EB56FF4F808150968C93C401E2
S1134BA080579F4F0E94B001D80151966D937D9319
S1134BB08D939C93549756961C921E925597579694
S1134BC01C92579758961C92589759961C9259972D
S1134BD05A961C925A975B961C925B975C961C9211
S1134BE05C975D961C925D975E961C925E975F96AD
S1134BF01C925F9790961C92909791961C92E091CC
S1134C00AB07F091AC077090FE05DF0122E2729EC3
S1134C10A00DB11D1124612C671409F4F1C4218184
S1134C20328111968D919C91129728173907B1F50D
S1134C3080819C91891332C0823051F42381348164
S1134C4013968D919C9114972817390739F513C23F
S1134C50833021F5238134814581568167817085B4
S1134C601396AC9013971496BC9014971596CC9009
S1134C7015971696DC9016971796EC90179718963A
S1134C80FC90189719960C9119971A961C911A97DB
S1134C90818592850E94353409F4EDC16394B296FE
S1134CA0BBCF8091280290912902039709F0E3C1B8
S1134CB0D4018C9180688C93DEC1F401818187706A
S1134CC0833011F4828D8D5FDFB6F89490915A0190
S1134CD0992309F484C09091EE039D7F9093EE0391
S1134CE01092ED011092EC0100917008109171087E
S1134CF0813019F0853091F06FC00115110509F468
S1134D006BC0D80119968C918F3F21F0811102C09C
S1134D100E948F178EEFF80181875EC0D4015C96E4
S1134D209C915C975B962C915B975D961C9180910E
S1134D30E401882309F450C08091DC038D7F8093C3
S1134D40DC031092E401111139C030E0392B3093A7
S1134D500D0220930C026CE072E083E50E94F608D9
S1134D6020910802309109022F3F3F4F91F1F40145
S1134D7092819295969596959370933051F5BE01D4
S1134D806F5F7F4FC4010E94FF12898180931802D4
S1134D908A81809319028B8180931A028C8180937B
S1134DA01B028D8180931C028E8180931D028F8152
S1134DB080931E02888580931F020BC02FEF3FEF64
S1134DC030930B0220930A026AE072E080E50E94AD
S1134DD0F608812F0E9474170E9474034BC1873018
S1134DE091F030F4843059F0863009F4E6C042C1C1
S1134DF0893009F4E2C08A3009F4EFC03BC1D40120
S1134E0012968C91DCC0D40112962C91B22FB07CF6
S1134E10EB2EB7FF2FC1322F3C70C40104963830FB
S1134E2019F4C401089604C03C3011F4C4010E9670
S1134E30F401318136FF01C023FF0296E1E86E2EB2
S1134E40E1E07E2EE0E0F0E00E2D10E0D3012D91A4
S1134E503D913D0121153105A1F1D9014D915C919F
S1134E60DA0112966C916C70B0E16B9FB001112461
S1134E706017710731F54A5F5F4F60E8E61203C0BF
S1134E8072E0C72E02C068E0C62EBC01F12CDA0124
S1134E90AD90AD01DB01BD90BD01AB1003C0F39437
S1134EA0FC14A8F3FC100DC0309751F0208131811F
S1134EB0D90111964C911197406111964C9301C000
S1134EC0F901BFE86B16B1E07B0609F0BFCF30975C
S1134ED029F080858068808788E0CAC0E090240536
S1134EE0F090250580912C058111C4C0BE016F5F2F
S1134EF07F4FC4010E94FF128111BCC0C4010196FE
S1134F00F4014281642F6C7047FFB4C0683021F013
S1134F106C3021F0E3E003C0E7E001C0EDE0D40130
S1134F2011962C91119726FF0BC043FF09C01596CB
S1134F302C91159730E0322F222714968C9108C0BB
S1134F40F0E0E80FF91F218130E0322F2227808121
S1134F50282B429546954695437070E07595679564
S1134F60759567958E010F5F1F4FC7010E94B2139D
S1134F70E0912405F0912505818181608183D70129
S1134F8012966C91129711968C9183FD05C0AE0117
S1134F90475F5F4F0E948207898580932A0581E0DD
S1134FA080932C0564E275E087E00E947F09892BD9
S1134FB009F460C010922C055DC0F40182818295D1
S1134FC0869586958370833009F054C0BE016F5F67
S1134FD07F4FC4010E94FF124DC080910C0290913A
S1134FE00D0221E08E3FFFEF9F0709F420E0E091DE
S1134FF0A007F091A1071182222311F030E801C02B
S113500030EC328340910A0230910B0244833583A1
S1135010222321F08683978387E005C0CF0106967B
S11350200E94D8108DE08093A6078FEF80933005FF
S1135030109231058091F801813019F480E4809355
S113504031058091F001813029F480913105806827
S1135050809331058091F201813029F480913105EA
S113506080618093310510923205109233058CE0F3
S11350700E943402DFBE90926805809267058FB764
S1135080F8941092DE018FBF0E948E10BDC28091F1
S1135090CF0181112FC02091710730917207409187
S11350A0730750917407EFB7F894609114067091E8
S11350B015068091160690911706C0901006D090A0
S11350C01106E0901206F09013066C0D7D1D8E1DE6
S11350D09F1DEFBF209371073093720740937307AE
S11350E0509374071092CF01660F771F881F991F82
S11350F00E945F0F0E941402660F771F881F991F7A
S11351003CC00E941402660F771F881F991F2FB797
S1135110F89410921A062FBFEBECF3E0A0E02FEF07
S11351203FEF4FEF5FE7B085B1FF1AC0C080D18079
S1135130E280F3804B015C018C189D08AE08BF0827
S1135140C480D580E680F780C818D908EA08FB082F
S1135150C216D306E406F5061CF4A7019601A1E0E5
S11351603996B3E0E83FFB07F1F6AA2309F44CC2F1
S113517012161306140615061CF00E94F61844C2F3
S11351802093710730937207409373075093740709
S1135190E1E0E093CF010E945F0F36C280919E0749
S11351A0882309F431C203E913E0F12CEE24E394DB
S11351B090919E078E2D892369F0F8011182108247
S11351C08E2D8095892380939E07F11003C083E27E
S11351D00E943402EE0CF3940E5F1F4FF8E0FF12AE
S11351E0E7CF12C210910701E12FF0E0EE0FFF1F8D
S11351F0ED56FC4F118210820E945F14111104C2FB
S11352000DC12FB7F894109247089091CA0588EF02
S1135210890F823050F41092CA05E091A003F0E0A7
S1135220EE0FFF1FEB51FD4F10822FBF823010F5A0
S11352302FB7F89480919A078F5F80939A07809193
S1135240D602833481F48091870390918603981762
S113525039F08F5F80938703863010F010928703B4
S113526090E080E005C081E0983009F480E091E0AE
S11352702FBF03C091115AC080E03FB7F89420912A
S113528047013FBF222339F02FB7F8943AE0309317
S1135290CA052FBF3FC04FB7F8943091E502209163
S11352A0E7024FBF6FB7F89450918603409187038C
S11352B06FBF541709F131111FC03FB7F89422E0B2
S11352C02093E5025FB7F894409186032091870309
S11352D05FBF421739F0E0918703F0E0EA57FC4FD3
S11352E0228101C020E02093E60223E42093D60229
S11352F01092A0033FBF0CC02150223058F42FB7A6
S1135300F89435E43093D60231E03093A0032FBFF4
S113531011E001C010E0992351F09FB7F8948093F5
S11353203E019FBF81E20E94340201C010E00FB72A
S1135330F8948091CA058A3021F40E9488020FBF34
S113534063C10FBF112309F45FC18FB7F8941092A2
S11353507908109278081092320291E09093CA056D
S11353608FBF0E947508882309F44EC18FB7F89443
S113537099E09093CA058FBF0E94760245C1569862
S11353805798109269051092EB01539A549A579AC0
S11353908FB7F8941092CA051092DF018FBF34C101
S11353A080E20C947321539854982EC110924201B8
S11353B0109241018FB7F89410913E018FBF8091F4
S11353C03D01811113E080914301909144012091AA
S11353D03C01211119C120910701211115C120910E
S11353E09303309194032817390709F00DC11092E3
S11353F09403109293030E945F1411110FC08091C3
S11354003301882319F00E94C30DFEC010923201AB
S1135410FBC00E94C608882309F4F6C083E20C94FA
S113542073213FB7F894809138019091390120910C
S113543098013FBF3FB7F894E22FF0E0EE0FFF1F53
S1135440EE5FFE4F9183808380914601222311F009
S11354508B7F01C08D7F8093460110923B013FBF3B
S1135460D3C082E297E79A8789878E01075F1F4F2F
S113547028E736E942E062E08CE392E00E94B2134E
S11354800091830310913E0280913D0283FD06C08A
S1135490AE014F5F5F4F612F0E948207F98007378B
S11354A008F08FC0802F90E08F0D911D8E379105ED
S11354B00CF087C0812F82958695869583701C7029
S11354C016951695811103C009F47EC003C081307E
S11354D009F47AC0113009F477C00E94F5014C0137
S11354E0009709F474C08CE392E0D40111969C9364
S11354F08E9386E592E013969C938E9312978CEC90
S113550092E015969C938E93149717960C93179785
S11355101696FC9280913D02887C816280933D02C4
S113552080913E028F7C80933E02073618F08061A2
S113553080933E02F401118680913E0283FF14C0E1
S11355408C70883059F48091430290E0982F88271A
S113555020914202822B9A83898306C062E472E01E
S1135560CE0101960E949912123051F429813A8198
S1135570809108029091090228173907A9F531C0D2
S11355801330E1F429813A814B815C816D817E8104
S1135590A0901802B0901902C0901A02D0901B0279
S11355A0E0901C02F0901D0200911E0210911F0257
S11355B08F8198850E943534B9F413C0112389F082
S11355C013C008EE10E005C005EF10E002C001EFC3
S11355D010E0012BC9F0DA9817C02E7F2093FF0545
S11355E013C0B40184E002C0B40185E00E947F09C5
S11355F08C010115110569F3C4010E945902E9CF18
S113560063946092FE0537CD60960FB6F894DEBFC2
S11356100FBECDBFDF91CF911F910F91FF90EF90FF
S1135620DF90CF90BF90AF909F908F907F906F90BE
S113563008958FB7F89408958FBF08951F920F921D
S11356400FB60F9211240BB60F922F933F934F93E3
S11356505F936F937F938F939F93AF93BF93EF93D6
S1135660FF930E94EF01FF91EF91BF91AF919F9142
S11356708F917F916F915F914F913F912F910F90F7
S11356800BBE0F900FBE0F901F9018951F920F9294
S11356900FB60F9211240BB60F922F933F934F9393
S11356A05F936F937F938F939F93AF93BF93EF9386
S11356B0FF930E94EF01FF91EF91BF91AF919F91F2
S11356C08F917F916F915F914F913F912F910F90A7
S11356D00BBE0F900FBE0F901F90189578941F92D9
S11356E00F920FB60F9211240BB60F922F933F9384
S11356F04F935F936F937F938F939F93AF93BF93D6
S1135700CF93EF93FF930E94C5017894CFB7F89499
S11357108091330290913402A0913502B091360207
S1135720892B8A2B8B2B51F580914A0190914B0147
S11357308430910528F18630910550F0069701F5E3
S113574081E090E090934B0180934A016BE010C09C
S11357500E94C3010E94BF0189E00E94830A0E9443
S1135760C30181E090E090934B0180934A0167E08C
S113577080E00E942B1F0E94F00F02C00E9452047E
S1135780CFBFFF91EF91CF91BF91AF919F918F9137
S11357907F916F915F914F913F912F910F900BBE2D
S11357A00F900FBE0F901F90189578941F920F9230
S11357B00FB60F9211240BB60F92AF92BF92CF92F5
S11357C0DF92EF92FF920F931F932F933F934F9388
S11357D05F936F937F938F939F93AF93BF93CF9375
S11357E0DF93EF93FF9387B7877F87BF7894BFB624
S11357F0F8948091D5019091D601A091D701B091F0
S1135800D801892B8A2B8B2BC1F581E080931B0651
S113581008E116E0C0E0D6E0A12CF80180818823DD
S113582001F1C880D980EA80FB800E9414026C19BF
S11358307D098E099F09CC80DD80EE80FF806C1588
S11358407D058E059F0568F0F8011082AA2039F0C5
S1135850F2E0AF1206C089E10E94340202C00E9445
S11358607E0DA3940F5F1F4F289683E0A812D5CF17
S113587010921B060E942E0C02C00E94BF03BFBEE2
S1135880FF91EF91DF91CF91BF91AF919F918F9154
S11358907F916F915F914F913F912F911F910F9144
S11358A0FF90EF90DF90CF90BF90AF900F900BBE22
S11358B00F900FBE0F901F90189578941F920F921F
S11358C00FB60F9211240BB60F921F932F933F9391
S11358D04F935F936F937F938F939F93AF93BF93F4
S11358E0EF93FF93CF93DF931F92CDB7DEB78091F1
S11358F07D008E7F80937D0078941FB7F89480910B
S1135900E0019091E101A091E201B091E301892BC2
S11359108A2B8B2B09F0CAC080914801823051F048
S11359208330A1F0813009F0C3C0109248010E9475
S1135930121BBEC0109248018FE090E09093520178
S11359408093510180E00E94A40A62C01092480131
S113595080915101909152018D30910509F445C017
S11359600E9709F0A5C00E948A0A81E190E0909305
S1135970520180935101CE0101960E94C80C8111FD
S1135980FACF8699ADC00E94030B0E9486148BE067
S113599090E09093520180935101E0919B01F0912A
S11359A09C0183818F5F838392819817A0F48091F7
S11359B0F4059091F505892B09F47AC010929D01A4
S11359C00E94CA020E94821084E090E090935201E7
S11359D0809351016DC080818F5F8083918198177E
S11359E008F490830E94211263C00E948A0A80E115
S11359F090E09093520180935101CE0101960E9450
S1135A00C80C8111FACF81E00E94A40A811103C05D
S1135A100E9450144DC00E94030B0E948614E09112
S1135A209B01F0919C0183818F5F838392819817FE
S1135A3038F48091F4059091F505892B59F438C018
S1135A4080818F5F80839181981708F490830E94EE
S1135A50FD112EC010929D010E94CA020E94821064
S1135A6084E090E090935201809351010E94AA0235
S1135A708C30F1F410922E0281EE90E09093ED01BF
S1135A808093EC018091990190919A01909371080F
S1135A908093700810929A011092990183E00E94F9
S1135AA034021092CD050E94B11402C00E94DC029F
S1135AB01FBF0F90DF91CF91FF91EF91BF91AF91F5
S1135AC09F918F917F916F915F914F913F912F9112
S1135AD01F910F900BBE0F900FBE0F901F90189543
S1135AE081E00E94A40A81114ECF92CF78941F9234
S1135AF00F920FB60F9211240BB60F92CF92DF9232
S1135B00EF92FF921F932F933F934F935F936F9363
S1135B107F938F939F93AF93BF93CF93DF93EF9331
S1135B20FF93C6B5D7B51FB7F8940E941402660F49
S1135B30771F881F991F6B017C012AE0C21AD108C4
S1135B40E108F1089E01220F331F621B730BC61A72
S1135B50D70AE108F10880914A0190914B01843001
S1135B60910519F00597F1F059C085E090E0909304
S1135B704B0180934A0181E08093DB01109249013B
S1135B8080E00E94580EE0919103F091920304800A
S1135B90F581E02DC382D282E182F0820E94C501A8
S1135BA0849997C01092DB0181E00E94580EE09125
S1135BB09103F09192030190F081E02D818185FFA2
S1135BC01FC086E090E090934B0180934A010E94AD
S1135BD014026093D7027093D8028093D9029093F1
S1135BE0DA028BE490E0A0E0B0E08093330290937B
S1135BF03402A0933502B09336020E9452040CC0C2
S1135C0081E090E090934B0180934A0160E080E052
S1135C100E942B1F0E94F00F849B5BC0809149015E
S1135C20811133C08091DB0181112FC081E0809309
S1135C30DB0180E00E94580E20B38091C80190914E
S1135C40C901892BA9F080919507883088F4E091E7
S1135C509D07E80FE77094E0E99FF0011124EB58E9
S1135C60F84FC082D182E282F3828F5F80939507DE
S1135C7081E080934901D093E402C093E3028499C4
S1135C8028C024FBFF24F0F801C0F12C8091DB0133
S1135C908130F9F41092DB010E94580E10924901F0
S1135CA0F11017C08091E3029091E402C81BD90B54
S1135CB0CC0FDD1F649768F48091C8019091C901ED
S1135CC0892B39F080919507882319F081508093AE
S1135CD095071FBFFF91EF91DF91CF91BF91AF91D6
S1135CE09F918F917F916F915F914F913F912F91F0
