S01800006275696C642F6D6963617A2F6D61696E2E73726563E5
S11300000C9491010C94A8340C94B2340C94BC3428
S11300100C94C6340C94D0340C94DA340C94E43438
S11300200C9418350C94B0010C94B0010C947D33ED
S11300300C946E310C94D5310C948B340C941E3189
S11300400C9446310C9422350C9489350C94B001EF
S11300500C94F6350C94B0010C94B0010C94B001DE
S11300600C9473320C942F370C940E370C9419376C
S11300700C9424370C9442370C94F2360C94B0014F
S11300800C9403370C94B0010C94B001AD13B0136D
S1130090B313B613B913BC13C7134F145214F12579
S11300A001262226672691269E26A226A6265D28BC
S11300B0612818292B2931293F2946295C299D29A2
S11300C0F4293A2A582A6E2AA72A322B502B642B59
S11300D06F2BF32D3A2EAE2ED22EE12E9F2FB02F62
S11300E0B32FB62FF12FE92F1130F62ABF2AD92AC0
S11300F00031ED2A00310031242BF02AF02AF02AB5
S1130100003100310031F32AF32AF32A52365D36E6
S11301107236BB36C236C936D036D73600081C18FC
S1130120141000002110422063308440A550C660A2
S1130130E770088129914AA16BB18CC1ADD1CEE1A0
S1130140EFF13112100273325222B5529442F77217
S1130150D662399318837BB35AA3BDD39CC3FFF3F0
S1130160DEE36224433420040114E664C774A44427
S113017085546AA54BB528850995EEE5CFF5ACC540
S11301808DD55336722611163006D776F6669556F7
S1130190B4465BB77AA719973887DFF7FEE79DD790
S11301A0BCC7C448E5588668A77840086118022887
S11301B02338CCC9EDD98EE9AFF9488969990AA9E0
S11301C02BB9F55AD44AB77A966A711A500A333A57
S11301D0122AFDDBDCCBBFFB9EEB799B588B3BBB30
S11301E01AABA66C877CE44CC55C222C033C600CE7
S11301F0411CAEED8FFDECCDCDDD2AAD0BBD688D80
S1130200499D977EB66ED55EF44E133E322E511E36
S1130210700E9FFFBEEFDDDFFCCF1BBF3AAF599FCF
S1130220788F8891A981CAB1EBA10CD12DC14EF16F
S11302306FE18010A100C230E320045025404670D5
S11302406760B9839893FBA3DAB33DC31CD37FE300
S11302505EF3B1029012F322D23235421452776225
S11302605672EAB5CBA5A89589856EF54FE52CD5D0
S11302700DC5E234C324A014810466744764245475
S11302800544DBA7FAB79987B8975FE77EF71DC7E0
S11302903CD7D326F2369106B016576676761546C5
S11302A034564CD96DC90EF92FE9C899E9898AB930
S11302B0ABA94458654806782768C018E108823815
S11302C0A3287DCB5CDB3FEB1EFBF98BD89BBBAB40
S11302D09ABB754A545A376A167AF10AD01AB32A65
S11302E0923A2EFD0FED6CDD4DCDAABD8BADE89D90
S11302F0C98D267C076C645C454CA23C832CE01CB5
S1130300C10C1FEF3EFF5DCF7CDF9BAFBABFD98F1F
S1130310F89F176E367E554E745E932EB23ED10E04
S1130320F01E11241FBECFEFD0E1DEBFCDBF11E020
S1130330A0E0B1E0EEEBF9E700E00BBF02C00790EC
S11303400D92AA35B107D9F719E0AAE5B1E001C0C9
S11303501D92AF39B107E1F70E9478370C94DD3C68
S11303600C9400009FB7F894E82FF0E0E35EF74F99
S113037010829FBF0895FC0120816181862F90E047
S1130380A0E0B0E077276627922B2381622B22819D
S1130390722B0895C0980895B89A0895C09A089544
S11303A09FB7F8948BB321E082278BBB9FBF08953E
S11303B087B78F7E87BF08958C7090919101937F4A
S11303C0892B8093910108951092780810927708F0
S11303D084E08093AD0310928E0710928D081092E2
S11303E0BA03109276051092750508958091B408A9
S11303F08F3F71F0E82FF0E0E652FE4F908190932A
S1130400B4089F3F11F490938D099FEF9083089552
S11304108FEF089583B783BF00B600FCFDCF089526
S113042030915B053323C1F02091FC03E22FF0E00F
S1130430EE0FFF1FE157F84F8081918111821082E6
S1130440315030935B052F5F243019F02093FC0367
S113045008951092FC03089580E090E008950F93AE
S11304601F938FB7F89460917305709174050CB560
S11304701DB506B602FE04C06F5F7F4F0CB51DB5F7
S11304808FBFCB01A0E0B0E07727662720E030E003
S1130490602B712B822B932B1F910F9108959FB783
S11304A0F894E82FF0E0E652FE4F20812F3FC9F484
S11304B021E030E0E0918D09E81711F020E030E010
S11304C0232B79F42091B4082F3F19F48093B408B6
S11304D004C0F0E0E652FE4F808380938D0980E0F3
S11304E001C085E09FBF08958AE10C944F024091BA
S11304F05B054430B8F45091FC03242F30E0250F01
S1130500311D2430310510F024503109F901EE0F6A
S1130510FF1FE157F84F918380834F5F40935B0542
S113052080E0089581E00895CF93CFB7F894809147
S11305305C09811108C08EE10E944F02811103C041
S113054081E080935C09CFBFCF91089580915407D7
S11305508A3021F48091AD03843021F081E08093CE
S11305606F01089580E20E944F0210926F01089576
S11305709FB7F89420910F01281307C0809185013B
S1130580823019F49FBF81E008959FBF80E00895F1
S11305909FB7F894E82FF0E0E35EF74F80819FBFA8
S11305A008959FB7F89480918501823019F09FBF18
S11305B08FEF089580910F019FBF0895CF93C82FA7
S11305C00E94D102C8130AC081E0209179013091C0
S11305D07A012430310519F080E001C085E0CF9123
S11305E00895CF92DF92EF92FF920F931F930E9490
S11305F02F02C0908701D0908801E0908901F0908B
S11306008A01009112021091130220911402309178
S113061015020C0D1D1D2E1D3F1D6C157D058E052F
S11306209F0530F00C151D052E053F0558F005C03B
S11306300C151D052E053F0590F5601771078207FF
S1130640930768F568017901C61AD70AE80AF90A16
S113065041E0C41640E8D406E104F10418F18B012A
S11306609C0110582F4F3F4F00938701109388012E
S11306702093890130938A0197018601105821093A
S11306803109009312021093130220931402309341
S11306901502C12CE0E8DE2EE12CF12C13C0C12C94
S11306A0D12C76010093870110938801209389014E
S11306B030938A01109212021092130210921402C3
S11306C0109215024CB55DB54D5F5F4F9A01261B24
S11306D0370B2C153D0518F4AB014C0D5D1D411570
S11306E0510511F441E050E04150510959BD48BD54
S11306F088E086BF87B7886087BF1F910F91FF90FE
S1130700EF90DF90CF900895CF93CFB7F8941092E5
S11307107301109272010E94D80187B78F7D87BF41
S11307200E94CE01CFBF80E0CF910895CF92DF9297
S1130730EF92FF920F931F930E942F02C0903208F2
S1130740D0903308E0903408F09035080091AE035F
S11307501091AF032091B0033091B1030C0D1D1D16
S11307602E1D3F1D6C157D058E059F0530F00C1563
S11307701D052E053F0558F005C00C151D052E0559
S11307803F0590F5601771078207930768F56801C4
S11307907901C61AD70AE80AF90A41E0C41640E802
S11307A0D406E104F10418F18B019C0110582F4F79
S11307B03F4F00933208109333082093340830934A
S11307C03508970186011058210931090093AE03B9
S11307D01093AF032093B0033093B103C12CF0E81E
S11307E0DF2EE12CF12C13C0C12CD12C7601009307
S11307F0320810933308209334083093350810924C
S1130800AE031092AF031092B0031092B1034CB533
S11308105DB54D5F5F4F9A01261B370B2C153D05C7
S113082018F4AB014C0D5D1D4115510511F441E067
S113083050E041505109509379004093780081E091
S113084080937C0080917D00816080937D001F9166
S11308500F91FF90EF90DF90CF90089540915A054B
S11308604330B8F45091BD08242F30E0250F311DDA
S11308702330310510F023503109F901EE0FFF1F29
S1130880E257F64F918380834F5F40935A0580E08F
S1130890089581E0089530915A053323C1F02091E1
S11308A0BD08E22FF0E0EE0FFF1FE257F64F808104
S11308B0918111821082315030935A052F5F233079
S11308C019F02093BD0808951092BD08089580E0A2
S11308D090E008950F931F934FB7F89498E0899F81
S11308E0F0011124E356F84F648175818681978164
S11308F00081118122813381600F711F821F931F38
S11309004FBF1F910F91089530918001E32FF0E0C4
S1130910EE0FFF1FEE59F74F8081918120917E01E8
S1130920222359F03F5F343019F03093800102C024
S113093010928001215020937E010895CF92DF927E
S1130940EF92FF920F931F930E942F02C090A60470
S1130950D090A704E090A804F090A90400910004AA
S11309601091010420910204309103040C0D1D1D0B
S11309702E1D3F1D6C157D058E059F0530F00C1551
S11309801D052E053F0558F005C00C151D052E0547
S11309903F0590F5601771078207930768F56801B2
S11309A07901C61AD70AE80AF90A41E0C41640E8F0
S11309B0D406E104F10418F18B019C0110582F4F67
S11309C03F4F0093A6041093A7042093A8043093E8
S11309D0A9049701860110582109310900930004E4
S11309E0109301042093020430930304C12C90E873
S11309F0D92EE12CF12C13C0C12CD12C76010093FB
S1130A00A6041093A7042093A8043093A904109279
S1130A1000041092010410920204109203044CB5D5
S1130A205DB54D5F5F4F9A01261B370B2C153D05B5
S1130A3018F4AB014C0D5D1D4115510511F441E055
S1130A4050E0415051095BBD4ABD80E186BF87B784
S1130A50806187BF1F910F91FF90EF90DF90CF903F
S1130A6008952F923F924F925F926F927F928F924E
S1130A709F92AF92BF92CF92DF92EF92FF920F9329
S1130A801F93EFB7F8948091F6039091F703A09128
S1130A90F803B091F9031C012D019C01A20160E04F
S1130AA070E080E090E003E00E94C83951016201E7
S1130AB0E12CF12C00E010E00E94083A59016A018F
S1130AC07B01F82F192F03E00E94C8390F2F0E94D1
S1130AD0083A59016A017B01F82F192F03E00E949B
S1130AE0C8390F2F0E94083A59016A017B01F82F77
S1130AF0192F03E00E94C8390F2F0E94083A5901A8
S1130B006A017B01F82F192F03E00E94C8390F2FC7
S1130B100E94083A01E00E94C83929013A0100E222
S1130B200E94E33949015A01C301B20196958795A0
S1130B3077956795680D791D8A1D9B1D97FF05C0E4
S1130B409F776F5F7F4F8F4F9F4F6093F603709334
S1130B50F7038093F8039093F903EFBF1F910F916C
S1130B60FF90EF90DF90CF90BF90AF909F908F90C9
S1130B707F906F905F904F903F902F9008953091A9
S1130B807D01E32FF0E0EE0FFF1FE25BFA4F80815F
S1130B90918120917B01222359F03F5F343019F079
S1130BA030937D0102C010927D01215020937B017E
S1130BB0089580918D07811102C086E004C08F5F83
S1130BC080938D0785E00C944F02FF920F931F933F
S1130BD0CF93DF938AE18093C50380E88093C603B3
S1130BE013E01093C7031092C8031092C20310922B
S1130BF0BC03FF24F394F092BD031092BE0386E07D
S1130C008093C9031092CA030FE00093CB031092A0
S1130C10E0031092E1031092E2031092E3030E94B6
S1130C2031056093CC03CFEFDFEFD093D503C093AE
S1130C30D4030E9431056093CD03F092BF0385E095
S1130C408093D10384E08093CE031093D203109356
S1130C50CF03D093D703C093D6031092C00380E28E
S1130C608093D3031092C1031092C303D093D9038A
S1130C70C093D8030093D00384EF91E09093DB03F7
S1130C808093DA031092C40382EC97E0A0E0B0E012
S1130C908093DC039093DD03A093DE03B093DF0322
S1130CA0DF91CF911F910F91FF900895E2E2F1E05F
S1130CB06927660FF11DE60FF11DC895982F802D49
S1130CC03196C895902508959091630120916E0105
S1130CD091112FC081112DC041E040936301809197
S1130CE0060180936201822F81708093D0018091EC
S1130CF000019091010190936101809360018091C2
S1130D006D0180935F01322F31703427267EE32FEB
S1130D10F0E0EE0FFF1FEE5FFE4F80819181909314
S1130D20010180930001232B20936E0183E20C9434
S1130D304F0220FF02C02B7F01C02D7F20936E0144
S1130D400895CF93DF93D82FC62F8091AD038130C0
S1130D5069F030F08230B9F1833009F444C001C144
S1130D60DD2309F418C10E94E40112C1D11113C199
S1130D7080917505909176050E94560690937605AC
S1130D808093750582E08093AD03C0938D08C434CD
S1130D9009F0E7C080916E0180FF04C082FDE1C0CC
S1130DA0846003C081FDDDC0826080936E01809108
S1130DB06E01877E886080936E0110926D018FEFC3
S1130DC080930601E8C0D111CCC06093BA0380912E
S1130DD07505909176050E9456069093760580934A
S1130DE0750583E0D6C080918E078F3F09F4B9C0A2
S1130DF0DD2309F451C0823008F4B3C0E0917708D0
S1130E00EE2311F0E15001C0E2E0AE2FB0E0A958AA
S1130E10B74F12964C9150E0542F4427EE2311F013
S1130E20E15001C0E2E0F0E0E958F74F8281482B3D
S1130E3020917505309176054217530709F091C04A
S1130E4080E00E9464062091BA03E0916405309129
S1130E50650581E08E0F863010F4982F01C090E074
S1130E60931769F0F0E0EC59FA4F2283863018F4B6
S1130E708093640502C0109264050E9494020E944B
S1130E80E40180915E018D7F80935E0180916F010A
S1130E90882309F480C073C0823008F44DC0E09107
S1130EA07808F0E0E958F74F228130916E01932FD2
S1130EB09695969596959370892F90E0813091053B
S1130EC019F0029781F01FC0832F877E8061809381
S1130ED06E01211102C083E101C080E080936D01A5
S1130EE02093060110C080916D01863960F4E09171
S1130EF00001F0910101E80FF11D208380916D0143
S1130F008F5F80936D0180917808E82FF0E0E958B5
S1130F10F74F62818F5F833018F48093780802C0A2
S1130F201092780880917505909176050E94560676
S1130F30909376058093750580917708E82FF0E00B
S1130F40E958F74FC2838F5F833018F48093770892
S1130F5002C01092770880918E078F5F80938E076E
S1130F601AC00E94E40180915E018D7F80935E012E
S1130F7081E00E94640680916F01882339F084E047
S1130F808093AD03DF91CF910C94A602DD2319F079
S1130F9081E08093AD03DF91CF91089563FF04C096
S1130FA062FD04C097E003C093E001C09DE067FFC9
S1130FB007C086FF02C09E5F01C09C5F66FD9A5F0A
S1130FC0FA01908380E00895DF92EF92FF920F93ED
S1130FD01F93CF93DF93D22EE32EF42ED52FC62F5B
S1130FE0B72FFC01A8E0019398014D2D5E2D6F2DC4
S1130FF07D2F8C2F9B2F08E00E94E3398901D42E8A
S1131000E52EF62ED72FC82FB92FA15061F7DF9107
S1131010CF911F910F91FF90EF90DF9008958091F1
S11310206005882349F01092600510920202109224
S1131030010288E10C944F0208954F925F926F92DF
S11310407F928F929F92AF92BF92CF92DF92EF9254
S1131050FF920F931F93CF93DF930E942F02CDE152
S1131060D8E040E044244A94542C3201EDE9F7E0FE
S113107029912223C1F180809180A280B3806B01E9
S11310807C01C818D908EA08FB0804811581268167
S11310903781C016D106E206F30668F0080D191D63
S11310A02A1D3B1D008311832283338314821582FE
S11310B0168217820CC060837183828393830C1918
S11310C01D092E093F090483158326833783048170
S11310D0158126813781401651066206730618F081
S11310E02801390141E0389628E0ED31F20709F092
S11310F0BFCF442341F177FE04C07694679457949C
S11311004794609387017093880180938901909339
S11311108A01409212025092130260921402709259
S11311201502DF91CF911F910F91FF90EF90DF9007
S1131130CF90BF90AF909F908F907F906F905F9073
S11311404F900C94F10287B7877F87BFDF91CF91CF
S11311501F910F91FF90EF90DF90CF90BF90AF90D1
S11311609F908F907F906F905F904F9008958091A3
S1131170AE049091AF04892B59F581E090E09093EF
S113118086088093850884E092E09093AF0480936E
S1131190AE041092B8031092B70381E08093B903B0
S11311A05E9A569A8091B7039091B8039C012F5F81
S11311B03F4F3093B8032093B703FC01EC5FFD4F1E
S11311C090818FB7F8949CB95E9A8FBF80E00895A0
S11311D085E0089593E8980F923050F490915E0161
S11311E0916090935E0190E29827909359078DE760
S11311F0809304020C94B7089FB7F89480915E0121
S11312008E7F80935E018EE7809304029FBF0C94CF
S1131210B7082091690130916A01232BB1F52FB7EA
S1131220F89433E1309367011092660190936C0156
S113123080936B0182E090E090936A01809369014E
S11312401092640110926501665E609368012FBF7D
S11312508FB7F894909154079A3011F48FBF17C048
S11312608FBF9FB7F8948091B604811106C081E0C6
S11312708093B6041092B70401C080E09FBF882316
S113128031F00E94940280E0089585E00895109260
S11312906A011092690181E008958FEF8093D80864
S11312A08093D70884E68093DD088091710590913E
S11312B07205892BF1F484EC98E090937205809385
S11312C071058CE18093DB0880910701882399F0F4
S11312D0109207016CE184EC98E00E9409098823CC
S11312E059F091E0909307011092720510927105E4
S11312F0089585E0089580E00895FB01833009F4A2
S113130071C028F4882319F1823099F174C08335AF
S113131089F0803F29F1803509F06DC08081918189
S11313202FB7F89431E0309330089093ED03809315
S1131330EC030BC0808191812FB7F89431E0309396
S113134030089093AB048093AA042FBF54C09081BB
S11313508FB7F89421E020933008909338084AC05E
S113136090818FB7F89421E0209330089093CD01B9
S113137041C09081892F8F7395FD806C992787FDDB
S1131380909597FF19C08F3F2FEF9207B9F08D3FCB
S11313902FEF9207ACF48B3F2FEF92079CF4883F1A
S11313A02FEF92078CF4843F2FEF92077CF48D3E4D
S11313B09F4F74F087E00DC08FE10BC08BE109C033
S11313C087E107C083E105C08FE003C08BE001C063
S11313D083E09FB7F89421E0209330088093F203D0
S11313E09FBF09C090818FB7F89421E02093300803
S11313F09093BF088FBF8091790190917A010697ED
S1131400029718F483E10C944F02089520917E0111
S11314102430E0F430917F01E32FF0E0EE0FFF1F62
S1131420EE59F74F9183808381E0830F843019F064
S113143080937F0102C010927F012F5F20937E0171
S113144089E00E944F0280E090E0089581EF90E0EF
S11314500895CF93CFB7F89480910102909102023E
S1131460892B19F4CFBF89E00EC081E08093600519
S113147089B78F7B89BF8091AC03811102C00E9420
S11314800F08CFBF80E0CF910895CF93C82F0E945B
S1131490D102C8131BC02FB7F894809179019091A1
S11314A07A018430910519F42FBF89E010C00797A1
S11314B019F02FBF81E00BC088E090E090937A018F
S11314C0809379012FBFCF910C94290A85E0CF91A5
S11314D0089580E00C94450ACF92DF92EF92FF9238
S11314E0CF93DF9300D000D0CDB7DEB76B017C0182
S11314F029833A834B835C830E942F02660F771FF4
S1131500881F991F6C197D098E099F09E1E02981C3
S11315103A814B815C81621773078407950708F44D
S1131520E0E08E2F0F900F900F900F90DF91CF91EE
S1131530FF90EF90DF90CF90089584E00E94B20175
S113154086E00E94B20185E00C94B2019FB7F89442
S113155081E020910B01211180E09FBF08956E9AD4
S11315608FB9779BFECF8FB1089590919A0791110F
S11315700C94AF0A80E00895CF93CFB7F8940E94FB
S1131580A60A811103C0CFBF81E00EC00E94CE0124
S11315900E94CA0183E00E94B50A8BE00E94B50A4A
S11315A00E94CE01CFBF80E0CF9108951F93CF93C7
S11315B0DF931F92CDB7DEB7209172013091730192
S11315C02330310509F049C089830E94CE010E946D
S11315D0CA018981882311F085E001C084E00E945A
S11315E0B50A83FD09C080E00E94B50A83FB112778
S11315F010F981E0182701C011E00E94CE011111F9
S11316002EC084E090E09093730180937201E09186
S11316106F05F09170050480F581E02D8FEF8383D1
S11316208283818380830E942F026093A604709337
S1131630A7048093A8049093A90480EE91E0A0E00D
S1131640B0E08093000490930104A0930204B0934B
S113165003040E949E0480E003C084E001C081E092
S11316600F90DF91CF911F910895CF93CFB7F89446
S11316700E94A60A811103C0CFBF81E00BC00E9463
S1131680CE010E94CA0186E00E94B50A0E94CE01E2
S1131690CFBF80E0CF910895CF92DF92EF92FF9277
S11316A00F931F93CF93DF930091C2081091C30847
S11316B0E090EB06F090EC06C0916D05D0916E05BC
S11316C020918F0130919001CE010A962817390795
S11316D008F4C9016C0121E0C21AD108CC15DD055A
S11316E0A0F40115110529F0F801EC0FFD1F80810C
S11316F001C080E00E94AF0AE114F10421F0F70177
S1131700EC0FFD1F80832196E9CF6F9A0115110517
S113171031F0F801EC0FFD1F80818FB901C01FB8B3
S1131720D0936E05C0936D0580E0DF91CF911F913A
S11317300F91FF90EF90DF90CF9008955093900118
S113174040938F019093C3088093C2087093EC0672
S11317506093EB0610926E0510926D05452B19F0FF
S11317608FB10C944C0B86E10E944F0280E00895E7
S1131770CF93DF930E94CE010E94CA01C091F1066B
S1131780D091F20680919A07882391F08FE790E038
S11317909093B1048093B0048FE70E94AF0A41E0B4
S11317A050E0BE0180E090E0DF91CF910C949E0B5D
S11317B0DF91CF910895EF92FF921F93CF93DF9320
S11317C01F92CDB7DEB77C0180919A078823A9F0D8
S11317D08EE390E09093B1048093B0048EE3698328
S11317E00E94AF0A182F6981462F50E060E070E034
S11317F0C7010E949E0B812F01C080E00F90DF91F2
S1131800CF911F91FF90EF9008958F929F92AF9286
S1131810BF92CF92DF92EF92FF92CF93DF9300D0EB
S113182000D0CDB7DEB74B015C0129833A834B83EB
S11318305C830E942F026B017C01CC0CDD1CEE1C2E
S1131840FF1CC818D908EA08FB084601570129817A
S11318503A814B815C81C216D306E406F50610F486
S113186049015A010E942F02609332087093330891
S11318708093340890933508D501C4018C199D09CF
S1131880AE09BF09B695A795979587958093AE0342
S11318909093AF03A093B003B093B1030F900F9054
S11318A00F900F90DF91CF91FF90EF90DF90CF904A
S11318B0BF90AF909F908F900C9496030F931F93BB
S11318C0CF93CFB7F89490918501923071F49091B1
S11318D00F0198130AC08091860581110EC0809172
S11318E08705882309F43EC008C090E0CFBF81E09B
S11318F08927CF911F910F9108952091860130E09F
S1131900C901019661E070E08C30910511F480E02A
S113191090E0E82FE695E695E695F0E0EA57FA4F71
S1131920A081482F47708B0102C0000F111F4A95F8
S1131930E2F7A801BA2FB02331F040954A2340833F
S11319408093860106C08217930711F00196DCCFBD
S11319508FEF8093060281E08093850182E00E94EC
S11319604F0205C08FEF80930F011092850191E023
S1131970BDCFCF92DF92EF92FF92CF93C82F6A012F
S11319807B010E942F0229E0C29FF0011124E85735
S1131990FA4F660F771F881F991F608371838283B4
S11319A09383C482D582E682F782808581608260D7
S11319B080878BE1CF91FF90EF90DF90CF900C94D4
S11319C04F02EF92FF920F931F93CF93DF938C01FB
S11319D0FFB6F8940E94A60A882311F10E94CE0152
S11319E00E94CA0180919A07882381F083E50E94AE
S11319F0AF0AE82E80E00E94AF0AC82FD0E0DC2FA7
S1131A00CC2780E00E94AF0AC82B01C0E12C0E94C1
S1131A10CE01E1FE05C0F801C083FFBE80E002C034
S1131A20FFBE81E0DF91CF911F910F91FF90EF9066
S1131A300895CF93DF9300D0CDB7DEB79FB7F89466
S1131A4020919A07222389F09FBF6A8379830E9499
S1131A50AF0A7981872F0E94AF0A6A81862F0F907F
S1131A600F90DF91CF910C94AF0A9FBF80E00F904D
S1131A700F90DF91CF9108958091380890E00B97F3
S1131A8025E0289FB001299F700D11246B597E4FCA
S1131A90706488E10C94190DE1E080916C0581116A
S1131AA001C0E0E041E08091CD01811101C040E03E
S1131AB021E080910F02811101C020E08091F303A5
S1131AC0882351F051E030E080913108811101C048
S1131AD050E0852F932F02C080E090E06091BF0812
S1131AE030E4639FB001112462627260F0E0FE2F63
S1131AF0EE27F295FF0FF07E6E2B7F2B50E0542FD4
S1131B0044275295507F642B752B30E0322F2227C7
S1131B10330F330F330F622B732B54E0880F991F4D
S1131B205A95E1F7682B792B81E10C94190DEF920A
S1131B30FF920F931F93CF93DF93CDB7DEB72C970C
S1131B400FB6F894DEBF0FBECDBFFFB6F894009178
S1131B507E0510917F05209180053091810540918B
S1131B608205509183056091840570918505CE01AD
S1131B7001960E94E4079091EC038091ED0399870C
S1131B808A879091AA048091AB049B878C87FFBEBF
S1131B9021E08091EC039091ED03019609F020E09F
S1131BA0722F770F770F770F60E06F6772608CE1A9
S1131BB00E94190D8FB7F89490919A07911102C061
S1131BC08FBF16C08FBF80EE0E94AF0A80E80E94CC
S1131BD0AF0A8E010F5F1F4F7E018DE0E80EF11CEE
S1131BE0F80181918F010E94AF0A0E151F05C1F7FC
S1131BF02C960FB6F894DEBF0FBECDBFDF91CF9108
S1131C001F910F91FF90EF900895CF93CFB7F89461
S1131C100E94A60A811103C0CFBF81E027C0809132
S1131C203008882309F10E94CE010E94CA0186E08F
S1131C300E94B50A0E94CE010E94CA010E943C0D76
S1131C400E944C0D6091F20370E0606E706885E153
S1131C500E94190D0E94CE010E94CA010E94970D94
S1131C600E94CE0110923008CFBF80E0CF9108953A
S1131C7080917701909178010197F1F582E090E0ED
S1131C809093780180937701DE98DE9A80917701B2
S1131C9090917801029781F583E090E09093780128
S1131CA0809377010E94CE010E94CA0168E170E02E
S1131CB08DE10E94190D81E08093AC0410927601AD
S1131CC080B386FB882780F98093AD0484E10E9469
S1131CD04F0281E00E94B50A6FE772E08CE10E9436
S1131CE0190D0E943C0D0E944C0D66E57AE287E1D5
S1131CF00E94190D0C94CE01089550915B015C3142
S1131D0018F4252F30E002C02CE130E08CE1EEED38
S1131D10F8E0DF011D928A95E9F740915D0180E0CA
S1131D2090E08217930791F0E42FF0E0EF54FD4F19
S1131D306081552329F04F5F4A3F09F440E0515038
S1131D40FC01EC53F74F628F0196EBCF40935D019A
S1131D5050935B010E944D09882319F084E20C948E
S1131D604F020895CF93DF931F92CDB7DEB79091C2
S1131D705A0191110BC090915B019D3738F091E0AD
S1131D8090935A0189830E947D0E89819FB7F894AC
S1131D9020915B012A3FB8F430915C01E32FF0E01D
S1131DA0EF54FD4F808381E0830F8A3F19F08093C5
S1131DB05C0102C010925C012F5F20935B019FBF06
S1131DC080E090E003C09FBF8FEF9FEF0F90DF9103
S1131DD0CF91089597B79F7D97BF90E296BF8823D0
S1131DE019F08EB5806402C08EB58F7B8EBD87B727
S1131DF0806287BF80E008956E98BA9ABB98B99ABA
S1131E000E94CC016C9A6F986B986A986E9A709A3B
S1131E108DB18C7F8DB908951F93CF93DF931F925B
S1131E20CDB7DEB71FB7F89490919A0791111FC0F0
S1131E3091E090939A0720910801909174012111E7
S1131E4002C0923079F0911115C092E09093740120
S1131E501092080189830E94FC0E0E94CC010E940A
S1131E60CA01898180930B0180E01FBF07C01FBF97
S1131E7085E004C010929A0781E0F7CF0F90DF91BC
S1131E80CF911F910895CF93CFB7F89490919A076B
S1131E9091110FC091E090939A0780930B01909158
S1131EA0080180917401911110C0823071F485E1B0
S1131EB018C021E030E001C0220F8A95EAF7809132
S1131EC07501822B809375012EC0882349F180917E
S1131ED07401811109C081E0809374011092110290
S1131EE087E10E944F021FC0809116028F3FD9F4F0
S1131EF081E090E0E0910901EE2311F080E090E0B0
S1131F00892B89F480910A018F3F19F410920A01F8
S1131F1004C0F0E0EA5EFD4F10821092090103C094
S1131F200E94FC0ED4CFCFBF80E0CF91089580E013
S1131F300C94430F8091010290910202892BF1F0DD
S1131F408091600581111AC083E090E090930202B1
S1131F508093010281E08093AC039FB7F894809151
S1131F600B019FBF813011F40C94B80B81E00E94E7
S1131F700C0F8823C9F381E00C94430F0895CF928A
S1131F80DF92EF92FF92CF93DF93C82F6A017B0118
S1131F900E942F02DFB7F8942C2F30E0F901A3E060
S1131FA0EE0FFF1FAA95E1F7E356F84F60837183A4
S1131FB082839383C482D582E682F782F901E35E49
S1131FC0F74F81E0808380912D08811102C00E9427
S1131FD01D08DFBFDF91CF91FF90EF90DF90CF908E
S1131FE00895CF93DF93EB010E947702CD2B61F428
S1131FF08091000291E0980F90930002843120F0C8
S1132000109200020E94D00185E2DF91CF910C94DE
S11320104F02CF93CFB7F8948091720190917301DE
S1132020019719F4CFBF89E00DC081E00E94EA0E48
S113203081E090E09093730180937201109271019A
S1132040CFBF80E0CF910895CF930E94050E0E94E8
S11320500910E0919707F0919807CFB7F894809111
S1132060720190917301019729F582E090E09093B9
S1132070730180937201F0937005E0936F05A08162
S1132080B18186819781890F8E5F8C930E94CE01E6
S11320900E94CA0189E00E94B50A0E94CE010E94F2
S11320A0CA01E0916F05F091700561E08081918132
S11320B00E94DB0BCFBFCF9108950E94A60A811125
S11320C00C94241080E00E940C0F8823C9F30C9414
S11320D0970F8091750181114EC080910B018F3F44
S11320E009F049C080919A07811145C081E080932D
S11320F061088091D5018111109261088091610875
S11321008823B9F180910801811104C08091740180
S1132110823099F180917401823029F5809108010F
S1132120811121C080910A018F3FC9F09FEF9093E4
S11321300801E82FF0E0EA5EFD4F908190930A01D8
S11321409F3F11F4909309019FEF908380931102B4
S113215081E08093740187E10E944F0204C0809360
S113216008011092740180917401811109C06E9864
S113217007C085E0089581E008950E94CE01CACF8A
S113218080E00895CF93CFB7F89490910B019817FE
S113219019F0CFBF81E02DC08FEF80930B017091B8
S11321A07501711105C010929A070E9469101CC034
S11321B060E0872F90E06170AC01062E02C0559557
S11321C047950A94E2F740FF12C060930B0181E047
S11321D090E001C0880F6A95EAF780958723809381
S11321E0750185E10E944F02CFBF80E002C06F5F9E
S11321F0E2CFCF910895CF93CFB7F89480E00E94B7
S1132200C210CFBFCF91089581E00C94C210CF9338
S1132210CFB7F8948091010290910202892B09F1C1
S11322201092AC0380916005882319F00E940F0876
S11322301AC080911002882311F0B79904C00E9936
S113224008C0882319F08150809310020E949A0FCD
S11322500AC082E090E090930202809301021092FF
S113226010020E940411CFBFCF91089580E880939B
S1132270CC011092AC031092BB081092B3081092D8
S113228010020E94CE010E94CA0188E00E94B50A91
S113229088E00E94B50A0E94CE010E9404110C94A9
S11322A00711CF92DF92EF92FF926B017C01809134
S11322B0700181111FC083E0809370010E942F027E
S11322C060933208709333088093340890933508F0
S11322D0F694E794D794C794C092AE03D092AF0318
S11322E0E092B003F092B103FF90EF90DF90CF90B3
S11322F00C949603FF90EF90DF90CF900895CF93C6
S1132300E091D301F091D401C0810E9431052FEFF7
S11323103FEF02C0220F331FCA95E2F74DE050E0B1
S113232050937A01409379012095309526233723E1
S113233084E1829FB001839F700D112480E090E0BE
S1132340CF910C9451112F923F924F925F926F92C2
S11323507F928F929F92AF92BF92CF92DF92EF9231
S1132360FF920F931F93FC01DB0117968C91179733
S113237016968C901697912CA12CB12C540199246B
S11323808824B82A14968C911497882A15968C91CF
S11323901597982A9401A50160E070E080E090E030
S11323A000E20E94C8391396FC90139712962C9061
S11323B01297822C912CA12CB12C5401992488249D
S11323C0BF28FC908F281196AC919A2A14012501FC
S11323D051016201E12CF12C00E010E00E94FF3970
S11323E020833183428353836483758386839783F5
S11323F01F910F91FF90EF90DF90CF90BF90AF901F
S11324009F908F907F906F905F904F903F902F9010
S11324100895CF92DF92FF920F931F93CF93DF9390
S11324201F92CDB7DEB78C01F62E6901FC018181C4
S1132430877009F05FC08281982F9078903809F0F6
S113244059C08295869586958370F9018083F80139
S1132450858190E0982F88272481822BF60192832E
S11324608183F8018281807C803851F4878190E0F7
S1132470982F88272681822BF6019483838309C0B1
S1132480B8016A5F7F4FC601039649830E94A31176
S11324904981F601F3864487F801828DF601858728
S11324A0F801838DF6018687F801848D881F8827BB
S11324B0881FF6018787F801EB56FF4F8081F601EC
S11324C0808BC80180579F4F0E94BB01F601618B2E
S11324D0728B838B948B168A158A178A108E118EB1
S11324E0128E138E148E158E168E178E10A211A2B4
S11324F080E001C081E00F90DF91CF911F910F9197
S1132500FF90DF90CF9008950F931F93CF93DF93A5
S11325101F92CDB7DEB78C014091C803FC018381C3
S11325201F928F9380E291E09F938F9349830E943F
S11325302A3A0F900F900F900F90809117024981C3
S113254081111EC02BE639E06AE1C8010E9409121C
S113255081111DC080916B098230C9F480916C098E
S113256090916D098237914891F480916E09909110
S11325706F098133934459F481E08093170207C0B3
S11325809FB7F8948BB322E082278BBB9FBFC8010F
S11325900F90DF91CF911F910F910895FC018081DD
S11325A08F779181977021F5948D977029F0292F59
S11325B0220F290F2C5F01C023E07A9630E0DF015F
S11325C0A20FB31F4C912F5F3F4F2E0F3F1F942F2D
S11325D0977021F0290F311D290F311D407729F003
S11325E050E056954795240F351FE21BF30B8E0FD1
S11325F008952FB7F894B79905C00E9903C02FBF5B
S113260081E0089580E88093CC011092AC0310928D
S1132610BB081092B3081092100282E090E09093ED
S113262002028093010289B78F7B89BF80E488BF4F
S11326308AB780628ABF8AB78F7E8ABF89B780646F
S113264089BF2FBF80E00895E0919707F091980724
S11326500190F081E02D818185FF04C00E94FB1070
S11326600C94F912089510920701E0917105F0910C
S113267072053097D1F08091BC0880FD16C080911E
S11326800701811116C0238984896789673718F087
S11326908DE10C944F0290E0922B848B938BCF01AD
S11326A00E940909882329F0F3CF81E08093070170
S11326B0E6CF0895CF93CFB7F8940E94A60A81116C
S11326C003C0CFBF81E01FC0B79B1BC00E94CA01DB
S11326D080919A07882349F08FE70E94AF0A80E02F
S11326E00E94AF0A80E00E94AF0A0E94CE010E94BD
S11326F0CA0188E00E94B50A88E00E94B50A0E94D7
S1132700CE01CFBF80E0CF9108956F927F928F92D8
S11327109F92AF92BF92CF92DF92EF92FF920F936C
S11327201F93CF93DF931F92CDB7DEB7182F7FB6D9
S1132730F89469830E94D10269818113BAC06093BD
S11327400F01862F90E0FC013397E930F10508F082
S1132750ADC0EA5BFF4F0C94C23968E083E0A4C0CB
S113276065E084E0A1C066E085E09EC068E086E0A4
S11327709BC068E087E098C08091910185FF04C008
S113278088E00E944F0292C00E94E91F8FC0A0916E
S11327907408209107023091080240910902509177
S11327A00A02B0E00E949539643A21E0720781057B
S11327B0910518F46AE089E077C06B017C01E4EAD2
S11327C0CE1AE1E0DE0AE108F1088091BE088093A8
S11327D0A0048090610990906209A0906309B09070
S11327E064096FB6F8940E942F02660F771F881F42
S11327F0991F681979098A099B098B019C016C1539
S11328007D058E059F0510F4970186016801790105
S1132810C61AD70AE80AF90AB701A6017695679598
S11328205795479584E00E94BF0F6FBEC090830800
S1132830D0908408C114D10479F1E12CF12C80905A
S1132840610990906209A0906309B09064096FB621
S1132850F8940E942F02660F771F881F991F68192A
S113286079098A099B098B019C016C157D058E05EC
S11328709F0510F49701860168017901C61AD70AE9
S1132880E80AF90AB701A601769567955795479521
S113289085E00E94BF0F6FBE0E946B1407C068E002
S11328A08AE002C063E08BE00E9485137FBE80E073
S11328B002C07FBE81E00F90DF91CF911F910F91F5
S11328C0FF90EF90DF90CF90BF90AF909F908F904C
S11328D07F906F9008954F925F926F927F928F9244
S11328E09F92AF92BF92CF92DF92EF92FF920F939B
S11328F01F93CF93DF9300D000D0CDB7DEB75FB680
S1132900F89480916909811178C089E00E94B80225
S1132910882309F472C081E080936909A091740846
S113292020910702309108024091090250910A0255
S1132930B0E00E9495399B01AC01245A3140410911
S113294051096091610970916209809163099091C4
S113295064090E946C0A882339F089E00E94DE022F
S1132960882309F480C106C084E00E94C802882339
S1132970A1F310C00E949D0A8091810181110E94DF
S113298064191092A004109269096AE089E00E9417
S1132990851333C08091A004882319F00E94291F55
S11329A041C1809181018111F9CF8091F40390910B
S11329B0F50320919809211106C021E0029709F03E
S11329C020E0822F01C081E020918201811108C0A2
S11329D081E090E0211102C080E090E0892B79F041
S11329E089E00E94DE02882309F43DC10E949D0A09
S11329F01092690989E00E945E0C5FBE37C1209184
S1132A0083083091840821153105B9F040E050E085
S1132A1060916109709162098091630990916409E0
S1132A200E946C0A882349F08091AE02811105C08E
S1132A3080910502882309F4EBC080915E05909192
S1132A405F05892B09F4D3C0109174082091070203
S1132A50309108024091090250910A0289E02983C9
S1132A603A834B835C830E94DE0229813A814B8145
S1132A705C81882309F4D4C0A12FB0E00E94953969
S1132A804B015C016B017C0124EAC21A21E0D20AE9
S1132A90E108F1088091550790915607A0915707D6
S1132AA0B0915807C81AD90AEA0AFB0AC701B60145
S1132AB024E130E040E050E00E94A039E4E1CE0E91
S1132AC0D11CE11CF11CC61AD70AE80AF90A8C14B5
S1132AD09D04AE04BF0418F4C12CD12C760180915E
S1132AE0830890918408009749F0A0E0B0E08C1529
S1132AF09D05AE05BF0510F46C017D01609161096F
S1132B00709162098091630990916409A70196010B
S1132B100E946C0A811181C00091CE011091CF01F5
S1132B2040900D028090610990906209A090630921
S1132B30B090640960905E0570905F050E94D102B8
S1132B40893009F051C06114710409F44DC0F301D6
S1132B5080819181892B09F447C082819381892BDB
S1132B6019F48781811140C0F30184819581892BF7
S1132B70D9F12681878190E0820F911D8E379105CE
S1132B809CF52FB7F8948091790190917A0104977C
S1132B9011F02FBF29C08BE090E090937A018093CD
S1132BA079012FBF709298076092970786E595E0A8
S1132BB09093D4018093D3018092B3039092B40391
S1132BC0A092B503B092B603C092C101D092C201E3
S1132BD0E092C301F092C401409265091093730816
S1132BE0009372080E945D1082E090E01BC0809107
S1132BF0AE02811104C080910502882349F00E942D
S1132C00291F83309105A9F48CE00E944F020DC066
S1132C1089E00E94DE02882319F083E090E002C07C
S1132C2080E090E08330910521F41092690983E0FB
S1132C3090E05FBE892BD1F489E00F900F900F9044
S1132C400F90DF91CF911F910F91FF90EF90DF9044
S1132C50CF90BF90AF909F908F907F906F905F9038
S1132C604F900C94450A80E090E0E3CF0F900F90D2
S1132C700F900F90DF91CF911F910F91FF90EF90E4
S1132C80DF90CF90BF90AF909F908F907F906F9088
S1132C905F904F9008952FB7F894FC018081809342
S1132CA005022FBF0C946B1420EE280F982F41E0DF
S1132CB050E060E070E0992351F0440F551F661F07
S1132CC0771F91509213F7CF40E050E0BA014427A8
S1132CD0587F7770452B462B472B51F08093C503C3
S1132CE065EC73E080E00E947D0980E090E0089547
S1132CF088EE90E00895E2EAF5E080818D7F80839C
S1132D001092B2038FEF9FEF9093D7038093D60373
S1132D1066ED73E080E50C947D09813029F480919F
S1132D20B20381110C947B1608952F923F924F9217
S1132D305F926F927F928F929F92AF92BF92CF9247
S1132D40DF92EF92FF920F931F93CF93DF93CDB750
S1132D50DEB760970FB6F894DEBF0FBECDBF582E16
S1132D60162F3A016901402E22E082130AC0809195
S1132D70ED069091EE06892B21F082E00E948D16DB
S1132D80E4C00E9410027C01009709F4E4C00E9490
S1132D904B045C01009709F4DBC0D70111969C93A6
S1132DA08E934A9615969C938E93149719965C92DB
S1132DB08090D6039090D703123019F442E050E08B
S1132DC002C048E050E0B601CE0101960E941A3AD2
S1132DD0D701ED91FC9183E28183123040F0B1E0A0
S1132DE0B41528F46814790411F483E68183212F3F
S1132DF0220F220F30E4439EC0011124282B22838A
S1132E0082E0481207C08091D8039091D9039A8731
S1132E10898718C080917E05898780917F058A877C
S1132E20809180058B87809181058C8780918205B4
S1132E308D87809183058E87809184058F8780910B
S1132E408505888B3180D701CD90DC908EEF810F82
S1132E508230D8F4F60164827582123039F4998193
S1132E608A819683878367E0262E11C009811A819F
S1132E702B813C814D815E816F817885C6010696E8
S1132E800E94E4075DE0252E02C043E0242E8EEF6D
S1132E90840D823060F5FFEFCF1ADF0A68147904DD
S1132EA011F436FC07C0F601E20DF11D8082918217
S1132EB023942394822D90E022E042120AC03985A3
S1132EC02A85F601E80FF91F308321832394239484
S1132ED00EC009851A852B853C854D855E856F85D9
S1132EE078898C0D9D1D0E94E40738E0230ED701DC
S1132EF016962C9216978EE091E013969C938E93DF
S1132F00129781E017968C93179786E018968C9306
S1132F1080919C0781FD07C0C7010E94060A8C01AD
S1132F20009751F002C001EF10E0C5010E942E0489
S1132F30C7010E94770211C08091ED069091EE06C0
S1132F4001969093EE068093ED0680E090E009C030
S1132F50C7010E94770201EF10E0852D0E948D16B3
S1132F60C80160960FB6F894DEBF0FBECDBFDF91E7
S1132F70CF911F910F91FF90EF90DF90CF90BF9072
S1132F80AF909F908F907F906F905F904F903F9005
S1132F902F900895CF93DF93CFEFDFEFD093D70334
S1132FA0C093D60366ED73E080E50E947D09D0935B
S1132FB0D903C093D80368ED73E083E50E947D09CB
S1132FC01092C203D093D503C093D403E4EEF3E08C
S1132FD01082118212821382148215821682178241
S1132FE0DF91CF910895EF92FF920F931F93CF93A8
S1132FF0DF93CDB7DEB728970FB6F894DEBF0FBEC8
S1133000CDBF8B017A01833049F118F4813041F04E
S11330106BC0843009F449C0863009F44BC064C0E5
S1133020DB018D919C910E942E04C8010E947702BD
S1133030EF2819F01092B20357C02091D30380EC0B
S113304093E0289FA001299F500D1124662757FD66
S11330506095762F82E00E94B90C46C0DB01ED91A9
S1133060FC91BF016F5F7F4F82818C708C3011F0B7
S113307087E001C08DE0680F711DCE0101960E94AA
S1133080A311F801808191810E942E04C8010E943D
S1133090770210920804E114F10421F0F9EEEF161E
S11330A0F10411F50E94CA171FC0BA01C8010E9499
S11330B0F10F1AC08091ED069091EE06019790935E
S11330C0EE068093ED06DB0119968C9192E0980F41
S11330D0923010F00E948D16F801808191810E9437
S11330E02E04C8010E94770228960FB6F894DEBF1A
S11330F00FBECDBFDF91CF911F910F91FF90EF9045
S113310008950F931F93CF93DF938C01EB0180916C
S11331109C078E7F80939C0780917E01882301F118
S11331200E948404AE01B801F80180850E94F3175F
S1133130CA3ED10539F089E0DF91CF911F910F91FB
S11331400C944F0280917E018823A9F30E94840489
S11331504AEE50E0BC01FC0180850E94F317F2CFD7
S1133160DF91CF911F910F910895CF93C82F89E0DC
S11331700E94B802811134C080915E0590915F0570
S1133180009721F06C2F70E00E94811880916205F5
S113319090916305009721F06C2F70E00E948118D4
S11331A01092370810923608109263051092620547
S11331B010925F0510925E058091DC039091DD030F
S11331C0A091DE03B091DF038093C6019093C70101
S11331D0A093C801B093C9010E949D0A80E001C078
S11331E081E0CF91089510921702D99AD89A8AEE65
S11331F00C94B518EF92FF920F931F93CF93DF9324
S1133200CDB7DEB728970FB6F894DEBF0FBECDBF9B
S11332108B017A01813079F140F0823009F047C0A6
S1133220BA01C8010E94F10F42C0DB01ED91FC918B
S113323082818C70883049F4878190E0982F8827A8
S11332402681822B9A83898307C0BF016A5F7F4FDF
S1133250CE0101960E94A311D8011296ED91FC9122
S113326013978FEF80838D919C910E942E04C80147
S11332700E9477021CC0FB01608171816A5F7F4FED
S1133280CE0101960E94A311D8018D919C910E94B8
S11332902E04C8010E94770210920804E114F1047C
S11332A021F0B9EEEB16F10411F40E94CA17289626
S11332B00FB6F894DEBF0FBECDBFDF91CF911F9143
S11332C00F91FF90EF90089580918101811105C0C5
S11332D08091A004811106C00895109281018AE0B2
S11332E00C944F021092A0040C946B141F93CF9370
S11332F0DF931F92CDB7DEB790910F01993021F47F
S113330089830E946B1489811FB7F8949091850179
S113331091110BC091E0909385018093060282E0A5
S11333200E944F021FBF80E017C0E82FE695E69584
S1133330E695F0E0EA57FA4F9081877021E030E09B
S113334001C0220F8A95EAF7892F822319F4292BC9
S1133350208301C085E01FBF0F90DF91CF911F91A3
S1133360089588E00C9476191092C60366EC73E015
S113337082E00E947D0980911E0190911F0190932B
S1133380D9038093D80368ED73E083E50E947D0937
S11333901092BD0310921702E0918301F091840111
S11333A0309751F0118210828AEB98E093838283E4
S11333B08AE190E09583848381E08093820182E0B6
S11333C08093B70880E090E0A0E0B4E080936E08BA
S11333D090936F08A0937008B093710880EC9BE7FA
S11333E0A0E0B0E08093A1049093A204A093A3046E
S11333F0B093A4048091D6039091D70390937D0554
S113340080937C0510928D071092750810929B078B
S11334101092C1081092C0081092B00180E00C9480
S113342076198F929F92AF92BF92CF92DF92EF92D2
S1133430FF920F931F93CF9387E090E090937A01CC
S1133440809379010E94BC0A81E08093D5010E9497
S1133450FB100E94D102823059F020F48111AEC0D9
S113346084E007C0883091F0893009F481C0A6C097
S11334708DE0CF911F910F91FF90EF90DF90CF904F
S1133480BF90AF909F908F900C944F0290919101B8
S1133490892F8C7F816080939101892F837061F1E2
S11334A0833009F08BC040EC53E060E070E00090A2
S11334B0D10104C0440F551F661F771F0A94D2F729
S11334C040545C4F6F4F7F4FB2E0440F551F661F4F
S11334D0771FBA95D1F77695679557954795CF910C
S11334E01F910F91FF90EF90DF90CF90BF90AF901E
S11334F09F908F900C94BF0FC0908B01D0908C0143
S1133500E0908D01F0908E0184E1C80E81E0D81E18
S1133510E11CF11C8090610990906209A0906309FC
S1133520B0906409CFB7F8940E942F02660F771FFA
S1133530881F991F681979098A099B098B019C01C5
S11335406C157D058E059F0510F4970186016801B1
S11335507901C61AD70AE80AF90AB701A6017695CD
S113356067955795479583E00E94BF0FCFBF26C04C
S113357080918101811104C08091A004882379F095
S11335804091C6015091C7016091C8017091C90171
S1133590769567955795479586E00E94BF0F1092E0
S11335A06909CF911F910F91FF90EF90DF90CF9019
S11335B0BF90AF909F908F900C946B14CF911F91FC
S11335C00F91FF90EF90DF90CF90BF90AF909F90BE
S11335D08F900895CF9386E090E090937A01809342
S11335E079010E94050E0E9484030E940910CFB73E
S11335F0F8942091C1013091C2014091C3015091CE
S1133600C4016091B3037091B4038091B5039091A8
S1133610B6030E946C0A882319F00E94111A1FC075
S11336202091C1013091C2014091C3015091C40164
S11336308091B3039091B403A091B503B091B60304
S1133640E0917001E1110BC0E1E0E0937001BC0175
S1133650CD0160517109810991090E94050CCFBF08
S1133660CF910895BF92CF92DF92EF92FF920F9382
S11336701F93CF93DF9300D000D0CDB7DEB7B82E21
S11336806801790149835A836B837C830E94D10248
S113369049815A816B817C81B81231C02FB7F8946B
S11336A08091790190917A01049719F02FBF81E0FC
S11336B027C085E090E090937A01809379012FBF31
S11336C04093B3035093B4036093B5037093B6036C
S11336D0C092C101D092C201E092C301F092C40130
S11336E00E94F91281110CC00E940C0F811103C0B9
S11336F00E94EA1A02C00E94970F80E001C081EF85
S11337000F900F900F900F90DF91CF911F910F9119
S1133710FF90EF90DF90CF90BF9008950F931F9389
S113372080919101837041F580918B0190918C017E
S1133730A0918D01B0918E0184319105A105B1054F
S113374028F044E150E060E070E002C0AC01BD014B
S11337508C019D01041B150B260B370B409161094D
S113376050916209609163097091640988E00E9434
S1133770321B1F910F91089588E01F910F910C94B3
S1133780450A0F931F938091F4039091F5030297D8
S113379061F400E010E0980140E050E0BA0182E0FA
S11337A00E94321B1F910F9108958EE01F910F917B
S11337B00C944F020F931F93CF93DF93E0918D07E7
S11337C041E050E060E070E00E2E04C0440F551F4D
S11337D0661F771F0A94D2F7F0917508F11121C082
S11337E080916E0890916F08A0917008B091710853
S11337F08827987FB770EB3190F4C1E0CE0F8A012F
S11338009B01082319232A233B23012B022B032B7F
S113381031F4440F551F661F771FEC2FECCFE09354
S11338208D0780918D078B3108F098C0F11198C0F5
S11338300E9454168091B708813091F008F460C05A
S1133840823021F0833009F074C10AC000E010E036
S1133850980140E050E0BA0180E00E94321B69C147
S1133860C0918301D09184010E94D102811161C170
S1133870209709F45EC188819981892B09F459C183
S11338808A819B81892B19F48F81811152C18C818A
S11338909D81892B09F44DC12E818F8190E0820F87
S11338A0911D8E3791050CF044C12FB7F894809187
S11338B0790190917A01049711F02FBF3AC189E000
S11338C090E090937A01809379012FBFD093980769
S11338D0C09397071092B3031092B4031092B503E8
S11338E01092B6031092C1011092C2011092C3014A
S11338F01092C401DF91CF911F910F910C945D1030
S11339008091A1049091A204A091A304B091A40475
S11339104FB7F8942091790130917A012330310521
S113392019F02430310511F04FBF03C123E030E01A
S113393030937A01209379014FBF8093D6019093FD
S1133940D701A093D801B093D9018DEA8093BB032A
S1133950DF91CF911F910F910C94970FFF2351F199
S11339608091B7088150823020F4769567955795F9
S1133970479500916E0810916F082091700830915E
S11339807108DB01CA0188279927AA27BC7F892BE4
S11339908A2B8B2B79F4DB01CA0180239123A22388
S11339A0B323892B8A2B8B2B29F0440F551F661FB9
S11339B0771FE7CF8091B7088150823068F48091F7
S11339C07C0590917D059093D7038093D60366ED93
S11339D073E080E50E947D09E0918301F091840108
S11339E0309751F0808191810E942E04809183014F
S11339F0909184010E9477021092840110928301B5
S1133A0080E00E94B802882319F080E00E945E0CD6
S1133A101092820180911702882309F477C0809163
S1133A206E0990916F099093D5038093D40380918C
S1133A306C0990916D099093D7038093D60366ED3A
S1133A4073E080E50E947D09309177092091760921
S1133A5081E090E0A0E0B0E0022E04C0880F991F3E
S1133A60AA1FBB1F0A94D2F78827987FB770892BA7
S1133A708A2B8B2B49F08091D6039091D703019622
S1133A8019F0332309F448C020916C0930916D0971
S1133A908091D6039091D70340910B0443734868F7
S1133AA040930B046091D8035091D90340910A04C8
S1133AB02817390711F4406401C04F7B40930A046E
S1133AC040910A0420930D0430930E04E0916E0992
S1133AD070916F09E0930F0470931004281739074D
S1133AE011F446FD06C08093110490931204E9E09A
S1133AF001C0E7E0F0E0E65FFB4F6083518385E2BD
S1133B00DF91CF911F910F910C944F02DF91CF91D0
S1133B101F910F910C94B41981E08093D2012093EA
S1133B20820880919101806A809391010E94B11969
S1133B30ABCFDF91CF911F910F910895CF93DF9376
S1133B4081E00E94B802882309F4D5C081EF0E9465
S1133B50B51880919C07826080939C0780917E01B8
S1133B60882351F00E94840441EF50E0BC01FC0121
S1133B7080850E94F317F2CF80919C078D7F8093FC
S1133B809C0780918201882329F081E08093750845
S1133B900E94DA1B80919101982F9C70983041F01B
S1133BA085FF0DC087FF0BC08091D201882339F0B7
S1133BB010921702D99AD89A8AEE0E94B518809169
S1133BC0910186FF03C08AEE0E94B518809191018D
S1133BD08F718093910180E00E94DC018091A205A5
S1133BE08D7F8093A2058FEF809366091092AB03BB
S1133BF01092B203E1E7F7E08083349697E0ED3862
S1133C00F907D1F78FEF80930B021092B002109254
S1133C1008041092EE061092ED068091AB058D7F9C
S1133C208093AB05C3EBD1E0E991F991309731F082
S1133C3041EF50E0BF0180850E94FA18E1E0C13CE9
S1133C40DE0791F7E3EBF1E01192119281E0E13CA0
S1133C50F807D1F71092600910925F091092770566
S1133C60109299071092760886E991E09093E20603
S1133C708093E10687E898E09093E6068093E50652
S1133C8086E798E09093E4068093E3061092E806B2
S1133C901092E90680917B01882341F00E94BF05C0
S1133CA00E94770285E20E944F02F4CF1092B20183
S1133CB01092B10110929401109293011092FB039F
S1133CC01092FA031092780581E090E09093F50346
S1133CD08093F403809192018111109292011092C9
S1133CE0AE028091B4058D7F8093B40581E0DF91AD
S1133CF0CF910C944F02DF91CF9108950F931F93AE
S1133D004091CD0380918201811104C01F910F91D4
S1133D100C945E0C8091B708823081F18330D1F12C
S1133D20813009F092C0E0918301F0918401A08177
S1133D30B18193E011969C93A081B18198E0129691
S1133D409C93A081B18113964C934F5F4093CD0314
S1133D50A081B1819FEF14969C93A081B1811596A7
S1133D609C93A081B18116969C93A081B1811796F2
S1133D709C9397E096839093BA0887838FEF9FEF85
S1133D809093D7038093D60366ED73E080E50E9499
S1133D907D095BC05091D30320EC33E0529FC001F6
S1133DA0539F900D1124AA2797FDA095BA2F8093B5
S1133DB0A1049093A204A093A304B093A404E0915B
S1133DC08301F0918401A081B18183E411968C93E5
S1133DD0A081B18188EC12968C93A081B181139655
S1133DE04C934F5F4093CD03A081B1818FEF149624
S1133DF08C93A081B18115968C93A081B181169684
S1133E008C93A081B18117968C9300917E051091BB
S1133E107F05209180053091810540918205509164
S1133E208305609184057091850580819181089650
S1133E300E94E407E0918301F09184018FE086837E
S1133E4086E08093BA0881E087831F910F910C94D8
S1133E50DA1B0F931F930E94D1028930B9F4809129
S1133E60790190917A01079789F089E00E94DE0236
S1133E70882379F000E010E0980140E050E0BA01B6
S1133E8089E00E94321B81E090E005C083E090E06D
S1133E9002C080E090E01F910F9108958F929F924D
S1133EA0AF92BF92CF92DF92EF92FF920F931F9344
S1133EB0CF93809191018370833051F400E010E03E
S1133EC0980140E050E0BA0188E00E94321B75C0BE
S1133ED0811165C020918B0130918C0140918D013D
S1133EE050918E016091610970916209809163091A
S1133EF090916409645A7140810991090E946C0A85
S1133F00811140C080908B0190908C01A0908D0114
S1133F10B0908E0194EAC92EDD24D394E12CF12CC7
S1133F208091610990916209A0916309B09164093B
S1133F30C81AD90AEA0AFB0ACFB7F8940E942F02DA
S1133F40660F771F881F991F6C0D7D1D8E1D9F1D89
S1133F506B017C01681579058A059B0510F47501D0
S1133F60640197018601061B170B280B390BB90155
S1133F70A801769567955795479583E00E94BF0FF2
S1133F80CFBF1BC0CF911F910F91FF90EF90DF9097
S1133F90CF90BF90AF909F908F900C948E1B87E032
S1133FA0CF911F910F91FF90EF90DF90CF90BF9032
S1133FB0AF909F908F900C944F02CF911F910F91CF
S1133FC0FF90EF90DF90CF90BF90AF909F908F9035
S1133FD00895CF92DF92EF92FF92CF938091910157
S1133FE0982F9C7009F45CC0982F9370933009F457
S1133FF05FC08C7F80939101C0E030ECC32E33E02E
S1134000D32EE12CF12C20918B0130918C01409125
S11340108D0150918E0160916109709162098091C6
S11340206309909164090E946C0A20915D058823BC
S113403049F14091D1014F3008F04EE0D701C6015B
S113404004C0880F991FAA1FBB1F4A95D2F7AC0161
S1134050BD0180918B0190918C01A0918D01B09153
S11340608E01840F951FA61FB71F80938B01909319
S11340708C01A0938D01B0938E012F5F20935D0579
S1134080C1E0C1CF243040F087E0CF91FF90EF90A2
S1134090DF90CF900C944F02CC2351F00E94B119C1
S11340A088E0CF91FF90EF90DF90CF900C945E0C5E
S11340B088E00E94DE02882339F0CF91FF90EF90D0
S11340C0DF90CF900C944E1F88E0CF91FF90EF903B
S11340D0DF90CF900C94450A8091910185FF30C008
S11340E08091D201882311F088E001C084E00E940D
S11340F0DC01809182080E9454162091CB03209306
S1134100D1012F3008F02EE080EC93E0A0E0B0E085
S113411004C0880F991FAA1FBB1F2A95D2F780934A
S11341208B0190938C01A0938D01B0938E0184E058
S113413080935D05809191018C7D836080939101D2
S11341400C94E91F0E9484030E94350B0E945A13A9
S11341501092D5010E94FB1084E090E090937A01C4
S1134160809379010E94D102823081F028F488235F
S113417041F0813041F00895883051F0893051F098
S113418008950C94D90580E00C944F020C94C11B43
S11341900C944E1F109269090C946B140F931F9387
S11341A010920D02283058F4263008F05EC0222305
S11341B049F0213009F068C081EE90E051C02B3005
S11341C0B9F162C010925E0910925D09DC01129689
S11341D0ED91FC9113972081243009F055C0ED91A5
S11341E0FC9181818770833009F04EC08BEE90E0A2
S11341F090935E0980935D09662309F445C081E0CC
S11342008093810180915E0590915F059093630591
S11342108093620510925F0510925E0500E010E045
S1134220980140E050E0BA0189E00E94321B41C08D
S113423080916A09882391F0109259059091B908E8
S1134240909358059091F0069093570590919F0490
S113425090935605815080936A0925C089EE90E0B9
S113426090935E0980935D090FC081E080930D02F5
S11342705093CF014093CE011092690984E00E94CB
S1134280C802811116C011C080915E0590915F052E
S1134290909363058093620510925F0510925E050A
S11342A08AE00E944F02109269091F910F910C94A9
S11342B06B141F910F910895EF92FF920F931F9328
S11342C0CF93DF9300D0CDB7DEB7E0907901F090C3
S11342D07A0100919707109198070E94350B0E946C
S11342E05A131092D5010E9484030E94FB1084E0AB
S11342F090E090937A01809379018FE0E816F104BD
S113430069F40E94D102811129C000E010E09801F3
S113431040E050E0BA010E94321B20C0E1E1EE16F9
S1134320F104E1F42091CB01E0907208F09073085D
S11343306091C50129836A830E94D10229816A811F
S1134340893061F4A701C8010F900F90DF91CF91DC
S11343501F910F91FF90EF900C94CE200F900F902F
S1134360DF91CF911F910F91FF90EF90089580936B
S1134370C5016093CB010E94A60A811102C00C946E
S1134380290A0C945C218F929F92AF92BF92CF9294
S1134390DF92EF92FF92CF93DF9380916509882398
S11343A039F0C0917208D09173081092650918C051
S11343B0E091D301F091D401C0810E9431052FEF27
S11343C03FEF02C0220F331FCA95E2F720953095C4
S11343D02623372384E1829FE001839FD00D11249B
S11343E00E942F026B017C01BE0180E090E0CC0CA6
S11343F0DD1CEE1CFF1CC60ED71EE81EF91E8090A5
S1134400B3039090B403A090B503B090B603C8185A
S1134410D908EA08FB088090C1019090C201A090DD
S1134420C301B090C4018C149D04AE04BF0438F4DD
S1134430C0919707D0919807209799F449C02EE02E
S113444030E030937A0120937901DF91CF91FF908E
S1134450EF90DF90CF90BF90AF909F908F900C948F
S113446051111092D5010E9484030E94FB1084E034
S113447090E090937A01809379010E94D10289306F
S113448039F5C701B601681979098A099B094B01F5
S11344905C0124E1820E911CA11CB11C24E130E0DA
S11344A040E050E00E94A039861A970AA80AB90A87
S11344B027E0A40160E0CE01DF91CF91FF90EF905F
S11344C0DF90CF90BF90AF909F908F900C94CE20B0
S11344D0DF91CF91FF90EF90DF90CF90BF90AF909E
S11344E09F908F9008950F931F93CF93DF93EC01C8
S11344F08B018091B00486FF2AC18F7B8F3309F032
S1134500B0C1C091F106D091F20628812093030234
S113451080910102909102028430910579F118F49E
S1134520039749F003C18530910509F451C00697FA
S113453009F469C0FBC084E090E090930202809388
S1134540010230E08091CC0190E02817390734F063
S1134550DF91CF911F910F910C943611B79903C03D
S11345600E9B0E9436118091030284508E3880F78E
S1134570BE016F5F7F4F43E050E022C06A818981B2
S113458083FDE6CF4AEC51E00E94CE078111E0CFD3
S11345904091CA018091030290E00197242F30E0FA
S11345A028173907ACF6443098F085E090E09093F2
S11345B0020280930102435050E0BE016C5F7F4FC2
S11345C080E090E0DF91CF911F910F910C949E0BAE
S11345D0409103022091CA01842F90E0821B91092B
S11345E0893791050CF0B4CF86E090E090930202F5
S11345F080930102421B50E06091F1067091F20633
S1134600665E7F4FDDCF0E94CE0180911002811142
S113461002C00E9404113091B308C091F106D091F8
S1134620F20620910302332349F12530C0F1809131
S1134630BB0890E0FC01EE0FFF1FEE0FFF1FEE56CC
S1134640F74F7081618152814381DE01AD56BF4FC6
S11346507C93DE01AE56BF4F6C93DE01AF56BF4F65
S11346605C93DE01A057BF4F4C9301968770992746
S11346708093BB0831503093B30811C08FEFDE0133
S1134680AD56BF4F8C93DE01AE56BF4F8C93DE0107
S1134690AF56BF4F8C93DE01A057BF4F8C93E22FD0
S11346A0F0E08091CA01E81BF109EC0FFD1F818D38
S11346B087FF36C0012BA1F189818770823029F5EB
S11346C080917201909173010697D9F4E0916F057E
S11346D0F09170050190F081E02D93818B81981306
S11346E010C00E94D801898121E030E03093730129
S11346F02093720160E0829581700E94B7210E942C
S1134700691080916C05882359F0809160058111AE
S113471007C089E1DF91CF911F910F910C944F0253
S1134720DF91CF911F910F910C9407111092AC035C
S11347300E94CE010E94041180916005882309F42F
S113474090C0DF91CF911F910F910C940F088E337D
S113475009F087C00E94CE01E0916F05F0917005C9
S113476080819181C817D90759F40E94CA01E09148
S11347706F05F091700580819181668101960DC06D
S11347800196C817D90779F40E94CA01E0916F0510
S1134790F0917005678182819381DF91CF911F91A0
S11347A00F910C94DB0B83E090E090937301809362
S11347B072018091790190917A018A30910509F40E
S11347C044C08B30910509F446C0099709F049C0EB
S11347D08CE090E090937A01809379012091C1015B
S11347E03091C2014091C3015091C401211531059A
S11347F04105510579F48FE090E090937A0180931C
S1134800790180E00E94D60ADF91CF911F910F9128
S11348100C9424138091B3039091B403A091B50335
S1134820B091B603E0917001E1111BC0E2E0E093A6
S11348307001BC01CD016051710981099109DF91B9
S1134840CF911F910F910C94050CDF91CF911F9183
S11348500F910C947F11DF91CF911F910F910C94C4
S1134860C321DF91CF911F910F9108954F925F92D1
S11348706F927F928F929F92AF92BF92CF92DF926C
S1134880EF92FF920F931F93CF93DF93CDB7DEB7D1
S113489028970FB6F894DEBF0FBECDBFE8E8F5E069
S11348A020E030E0108511FF56C1408051806280C5
S11348B07380C480D580E680F7804B015C01841846
S11348C09508A608B7088C149D04AE04BF0408F428
S11348D042C110FF03C01D7F10870AC0D301C2016B
S11348E08C0D9D1DAE1DBF1D80839183A283B38358
S11348F02230A1F018F4222341F034C1233009F40A
S113490049C0243009F4E0C02DC180E00E94B802FF
S1134910882309F427C10E94690A24C18091B20343
S1134920882309F41FC18091AB03823039F490913C
S1134930D4038091D50399838A8314C00091E4033E
S11349401091E5032091E6033091E7034091E803D9
S11349505091E9036091EA037091EB03CE01019653
S11349600E94E4074091D6035091D70303E09E01CF
S11349702F5F3F4F6091AB0381E00E949516892B16
S113498009F4F0C08091B203882309F4EBC00E94BB
S11349907B16E8C00E942F022B013C01440C551CDD
S11349A0661C771C8091CB038F3070F421E030E0DB
S11349B002C0220F331F8A95E2F7A0ECB3E00E94F5
S11349C086399B01AC0104C020EC33E040E050E0A8
S11349D0A091DA03B091DB030E9495396B017C014D
S11349E003EB11E0812C912C5401D801ED91FC9141
S11349F0309709F44BC080915F0990916009E817E2
S1134A00F90709F443C0848195810E94BB01A70181
S1134A1096010E946C0AD801ED91FC9111978823AC
S1134A2021F180858F7780871D921C929091770564
S1134A30915090937705A081B18112969C919C70BE
S1134A40983031F49091990791509093990707C049
S1134A509C3029F49091760891509093760840EF19
S1134A6050E0BF010E94FA1811C0848195810E9410
S1134A70BB01A3019201261B370B480B590B82166D
S1134A809306A406B50610F449015A010E5F1F4FA0
S1134A9031E0013C130709F0A8CF81149104A1046B
S1134AA0B10409F45FC0C814D904EA04FB0410F487
S1134AB046015701B701A601481959096A097B093A
S1134AC083E00E94B90C4EC08091AE02811139C0BE
S1134AD081E08093AE0280916A0890916B08A09166
S1134AE06C08B0916D084091EE035091EF03609112
S1134AF0F0037091F103840F951FA61FB71F409117
S1134B0004045091050460910604709107044093D5
S1134B10AC055093AD056093AE057093AF058093DB
S1134B20B0059093B105A093B205B093B3058091FD
S1134B30B405816082608093B4058BE10E944F02CA
S1134B4007C01092AE0280919201811110929201DD
S1134B500E946B1407C02F5F3F4F399625303105F3
S1134B6009F0A0CE8BE10E944F0228960FB6F8946C
S1134B70DEBF0FBECDBFDF91CF911F910F91FF908C
S1134B80EF90DF90CF90BF90AF909F908F907F90E9
S1134B906F905F904F9008952F923F924F925F9243
S1134BA06F927F928F929F92AF92BF92CF92DF9239
S1134BB0EF92FF920F931F93CF93DF93CDB7DEB79E
S1134BC02B970FB6F894DEBF0FBECDBF90E08632B0
S1134BD0910510F00C940031FC01E15BFF4F0C9443
S1134BE0C2392FB7F8948091790190917A01009796
S1134BF011F42FBF26C5049709F0C9C481E090E0E1
S1134C0018C080919809815080939809882311F0E5
S1134C1081E03FC02FB7F8948091790190917A0197
S1134C208430910509F4B3C4892B09F0B0C482E03F
S1134C3090E090937A01809379012FBF0E94970F9F
S1134C400C9400318FB7F8949091060290930F0161
S1134C5092E0909385018FBF80910F01813089F09C
S1134C6038F08230D1F0883009F427C20C94003136
S1134C7080E00E94DE02811165C00E94690A0C94E2
S1134C80003181E00E94450A882311F40C9400311C
S1134C9080E00E944F020C9400319FB7F89481E0A9
S1134CA08093300810920F0280936C051092F303E6
S1134CB09FBF82E00E94DE02882321F00E94C11B74
S1134CC00C94003182E00E94450A0C9400318091DA
S1134CD05F0990916009892B11F00C940031809147
S1134CE07705882311F40C940031E3EBF1E0A191F2
S1134CF0B191109781F018968C91189787FF0BC08B
S1134D008093950187E018968C9310926009109215
S1134D105F0983E0BECF21E0E13CF20741F70C9448
S1134D2000314091A1045091A2046091A3047091B8
S1134D30A40480E00E94B90C0C9400310E94DA1B98
S1134D400C9400310E947E1E0C940031109191014C
S1134D5014FF0FC080910C0190910D0180579F4F5B
S1134D600E94BB016F3F7F4F8F4F9F4F11F40C94F4
S1134D70BF30809191018C70843019F480E00E94DE
S1134D80DC01809191018F7B809391010E94B11984
S1134D908091910184FD43C08F7E80939101809125
S1134DA05D058F5F80935D058091D1018F3008F0A0
S1134DB08EE040EC53E060E070E004C0440F551F07
S1134DC0661F771F8A95D2F780918B0190918C0191
S1134DD0A0918D01B0918E01840F951FA61FB71F5E
S1134DE080938B0190938C01A0938D01B0938E01DD
S1134DF016FF03C08AEE0E94B5188091910187FFC7
S1134E000CC090915D05943040F08F7780939101B0
S1134E1080E00E94DC010E94F31888E04AC280907E
S1134E200C0190900D011091BD03D4015C962C915E
S1134E302770C4012B870E94CE128A87F401008157
S1134E40C40180579F4F0E94BB0110925D052B85C2
S1134E5020936809222329F0422F440F420F4E5F0A
S1134E6001C041E060936109709362098093630912
S1134E7090936409D4015B968C915B978F708F5FDC
S1134E80809374085A962C9122952F708CE390E0AD
S1134E90A0E0B0E004C0880F991FAA1FBB1F2A9589
S1134EA0D2F78093070290930802A0930902B0936B
S1134EB00A0250E0B401645E7F4F8AE597E00E94E5
S1134EC01A3AF401838D84FF1FC00F77802F90E07E
S1134ED00596880F991F033110F0889601C00C962F
S1134EE090938408809383082091C9038091830858
S1134EF090918408F4E12F9F800D911D11249093CB
S1134F0084088093830804C0109284081092830854
S1134F10D40111968C911197829581708093BE086B
S1134F205A962C912F702093D1012F3009F42EE042
S1134F3080EC93E0A0E0B0E004C0880F991FAA1FA2
S1134F40BB1F2A95D2F780938B0190938C01A09379
S1134F508D01B0938E0169E088E00E9485131123CE
S1134F6009F49AC0E0910C01F0910D013F01BAE1FE
S1134F706B0E711C848D877029F0282F220F280F47
S1134F802C5F01C023E030E0D301A20FB31F7C915A
S1134F904091D8035091D9038181877009F079C079
S1134FA060E0872F8770482E512C2F5F3F4FE62FEC
S1134FB0F0E0E415F50594F4EE0FFF1FE20FF31F84
S1134FC0E60DF71D818190E0982F8827E0818E2BD4
S1134FD08417950709F444C06F5FE9CF7077272ED3
S1134FE0312C44E0359427944A95E1F7440C551C40
S1134FF0420E531E1986F9856F2F70E062157305F2
S11350000CF047C093E0660F771F9A95E1F7640DA3
S1135010751D660D771DCE0101960E94A31129818D
S11350203A814B815C816D817E81A0907E05B09038
S11350307F05C0908005D0908105E0908205F090B6
S1135040830500918405109185058F8198850E94C0
S1135050113A11F40C94FA30E985EF5FE987CBCF6C
S113506002E0F4018281807C803811F40C94FD30DC
S113507063E094012A5F3F4FD40115964C91159734
S113508050E0542F442714968C91482B80E00E94C2
S11350909516FA85FF2351F080910C0190910D0132
S11350A00E94841290930D0180930C0180919101D0
S11350B08F7E809391010C9400310E946C200C949B
S11350C0003180919C0780FF02C00C9400318091D4
S11350D07E01882311F40C940031E0918001F0E00A
S11350E0EE0FFF1FEE59F74FE080F180F701868144
S11350F081110AC00E94840460E070E0C7010E942C
S1135100F10F89E00E944F02D70118968C911897ED
S11351108093610520919C07822F816080939C0776
S113512080915E0590915F05892B11F00C94C53038
S11351308091CD03ED91FC9183838F5F8093CD03A8
S1135140109259058091CE038093B9088093580535
S11351508091D1038093F006809357058091CF030B
S1135160809356059091BE03992329F0833018F05B
S113517082E0809356058091560580939F04809128
S1135180D20380936A09F7018681478150E0480F72
S1135190511D495F5F4F440F551F662757FD6095AA
S11351A0762F409355075093560760935707709393
S11351B058070190F081E02D818185FF0CC04A5C85
S11351C05F4F6F4F7F4F409355075093560760933F
S11351D05707709358074091DC035091DD036091A9
S11351E0DE037091DF034093C6015093C7016093BF
S11351F0C8017093C901F0925F05E0925E05809149
S11352009101982F9C70983041F1806480939101B2
S11352100E94B1198091910185FD1FC09091C50331
S1135220909382081092D20180628093910115C0FC
S1135230809162059091630560915D0970915E09AA
S1135240109281011092630510926205009729F073
S11352500E94811802C0109269090E946B140C9478
S113526000318091AE02882311F40C9400318091B6
S11352709201882309F4C4C710929201C1C783E044
S113528090E09093F5038093F403BAC79FB7F89422
S113529081E08093300880930F0210926C05809314
S11352A0F3039FBF81E090E09093F5038093F403B0
S11352B082E00E945E0CA4C780917805882309F4DB
S11352C09FC78091B1019091B2012091FA0330916E
S11352D0FB038217930729F41092FB031092FA033D
S11352E029C020919301309194018217930711F5FD
S11352F00E94BF0580917B01811105C01092940129
S1135300109293010DC0E0917D01F0E0EE0FFF1FBC
S1135310E25BFA4F80819181909394018093930191
S113532060912E0870912F088091B1019091B20183
S11353300E94F10F1092780563C7CE0101960E9476
S1135340E10C811107C089819091BB03981714F473
S11353508093BB032091D6013091D7014091D801AD
S11353605091D90160917C0870917D0880917E08EC
S113537090917F080E946C0A882309F42CC18091C3
S1135380BB038D528093BB030E94350B0E945A13BA
S11353900E94FB1084E090E090937A01809379015D
S11353A09091BB038091B001882369F0E091C0081B
S11353B0F091C10880919B0721E0280F20939B075F
S11353C0E80FF11D908390919B078091B001981391
S11353D003C081E0809375080E94690A893009F04E
S11353E00FC70E94D9050CC78FB7F894909138085D
S11353F08FBF8FB7F89421E020933008909338083A
S11354008FBF0E94050E0E94FB1084E090E09093F1
S11354107A018093790181E00E94B802882309F41B
S1135420EFC68091EF0681110E94E50565EC73E0FB
S113543080E00E947D0968ED73E083E50E947D09A8
S113544066ED73E080E50E947D0967EC73E083E01C
S11354500E947D0966EC73E082E00E947D0964ECA1
S113546073E080EF0E947D0981E00E945E0C0E943F
S1135470B419C6C68091790190917A01883091055A
S113548031F008F4BDC60F97039738F0B9C680E031
S11354900E940C0F8111D2CBD7C00E94A60A8111A1
S11354A0A2C080E00E940C0F882309F49CC0C6CBE4
S11354B080E00E940C0F81110FC00E94050E8091A4
S11354C0790190917A01079721F40E94350B0E948B
S11354D0BC0A0E94FB1094C683E1DBCB8FB7F8941F
S11354E09091760191113AC58FBF10B316FB112725
S11354F010F98091AC049091AD04981721F1181320
S113550022C084E090E090937801809377018FB774
S1135510F89491E0909376018FBF0E94CE010E948F
S1135520CA0160E070E08DE10E94190D0E94970DA0
S11355300E94CE010E94350B0E945A131092D5018D
S113554081E10E944F021093AD0484E1A2CB9FB786
S1135550F89480910B019FBF882321F0813009F4D6
S113556076C04EC6E0917901F0917A013197E1312C
S1135570F10508F045C6EB58FF4F0C94C2392FB71C
S1135580F8948091770190917801892B11F02FBFC5
S113559037C681E090E090937801809377012FBF24
S11355A0DD9A44E150E060E070E080E00E94BF0FCB
S11355B027C60E94050E0E94BC0A0E942F02660F95
S11355C0771F881F991F60937C0870937D088093D0
S11355D07E0890937F0880E15CCB0E94EA1A10C693
S11355E00E9424100DC60E945C210AC60E94350B3D
S11355F00E945A131FB7F894809177019091780113
S1135600049779F482E090E0909378018093770195
S11356100E94CE010E94CA0187E00E94B50A0E943E
S1135620CE011FBF1092780110927701DE98DD98A9
S1135630DE9A1092D5010E94FB1010927A0110920A
S113564079010E949E1DDCC50E94A220D9C51FB706
S1135650F8948091010290910202892BF9F00E9442
S1135660B80B1CC01FB7F8946091EB067091EC0660
S11356708091C2089091C3081092EC061092EB0638
S11356801092C3081092C2081092900110928F01D8
S113569010926E0510926D050E9473221FBFB0C553
S11356A08FB7F894909111029093080192E090932F
S11356B074018FBF809108018111A2C50E94CC01A1
S11356C00E94CA0185E1E5CA0E9404118FB7F894CB
S11356D010920202109201028FBF82E1DACAE091B5
S11356E0F106F091F206208122508091CA01281B14
S11356F08FB7F8948FBF8090F1069090F206822FB6
S113570090E0D401A80FB91F5B963C913F77D40178
S11357103C93A80FB91F5A968C91DF01AC56BF4F2A
S11357208C93D4018C91EB56FF4F80832C93809102
S1135730790190917A01079709F049C212968C91E8
S1135740807390E041973CF08091F4039091F503CD
S1135750039709F03CC2F401818183FF07C0809163
S1135760F4039091F503039709F031C20E94D1022A
S1135770823009F4F5C018F4882341F028C2883037
S113578009F4FAC0893009F44EC121C28091820122
S1135790882309F41CC28091B708833009F055C0EE
S11357A080919B07811113C2D40111968C9111979A
S11357B08770833009F00BC25A968C915A978830BF
S11357C009F005C25C968C915C9790E0982F88272D
S11357D05B962C91822B9093D7038093D60366ED2E
S11357E073E080E50E947D09F401868D90E0982F96
S11357F08827258D822B9093D5038093D403878D9E
S11358000E945416D40191968C91919790E0982F10
S1135810882790962C91822B9093D9038093D80358
S113582068ED73E083E50E947D0980919B078F5F9B
S113583080939B0781E080937508809190058D7F0C
S1135840809390050E94690AC2C1F4018181877026
S113585009F0BDC18091BD03882309F47CC0809107
S11358609B079091B001891758F081E080937508E7
S1135870809190058D7F809390050E94690A65C090
S11358802091C0083091C108F2E28F9F200D311D94
S1135890112440E060918D07C4010E940912811116
S11358A054C0E091C008F091C10870909B07DF01DB
S11358B022E2729EA00DB11D1124612C671409F41B
S11358C041C02181328111968D919C9112972817A4
S11358D03907A9F580819C91891331C0823051F434
S11358E02381348113968D919C911497281739073D
S11358F031F52BC0833019F52381348145815681DC
S1135900678170851396AC9013971496BC90149786
S11359101596CC9015971696DC9016971796EC90E2
S113592017971896FC90189719960C9119971A9630
S11359301C911A97818592850E94113A31F06394E3
S1135940B296BCCF639460929B07C4010E94CE12AE
S1135950882309F43CC1C4010E9484124C0137C15C
S11359608091F4039091F503039709F030C1D401B9
S11359708C9180688C932BC18091910184FD27C107
S1135980F4018181877009F022C18281482F407C13
S113599009F41DC18C7009F01AC1858190E0982F1B
S11359A088272481822B2091D6033091D703821734
S11359B0930709F00CC1403879F4878190E0982F5F
S11359C088272681822B2091D4033091D503821716
S11359D0930709F0FCC0DDC3403C09F0DAC3B4010D
S11359E06A5F7F4FCE0101960E94A31129813A81FB
S11359F04B815C816D817E81A090E403B090E503CE
S1135A00C090E603D090E703E090E803F090E90348
S1135A100091EA031091EB038F8198850E94113A5B
S1135A2009F4B7C3D4C0D40111969C91119797700F
S1135A30933019F45A969C919D5FFFB6F894809127
S1135A408101811105C08091A004882309F4ACC0B0
S1135A5086E09B870E94B20110925E0910925D0954
S1135A60809181019B85882309F486C00091620599
S1135A7010916305913019F0953081F092C00115B1
S1135A80110509F48EC0F80181858F3F11F00E9441
S1135A908D168EEFD80119968C9383C0F401248D52
S1135AA0838D358D9091B203992309F47AC0909136
S1135AB0A2059D7F9093A2051092B203311150C0AC
S1135AC090E0922B9093D9038093D80368ED73E010
S1135AD083E50E947D098091D4039091D5030196BA
S1135AE009F45FC0D40112969C91892F8295869502
S1135AF086958370833009F054C0B4016F5F7F4F83
S1135B00892F8C70883021F08C3021F083E003C021
S1135B1087E001C08DE0F401218126FF01C093FFDD
S1135B208E5F680F711DCE0101960E94A3118981B9
S1135B308093E4038A818093E5038B818093E60359
S1135B408C818093E7038D818093E8038E81809319
S1135B50E9038F818093EA0388858093EB0321C056
S1135B608FEF9FEF9093D7038093D60366ED73E096
S1135B7080E50E947D0915C09B3099F4D4015C96A0
S1135B808C915C9790E0982F88275B962C91822BC0
S1135B902091D6033091D7038217930711F40E9402
S1135BA0F3180E94641912C09B3081F4F401848DAF
S1135BB090E0982F8827238D822B2091D603309153
S1135BC0D7038217930711F40E94F318FFBE909233
S1135BD0F2068092F1068FB7F8941092AC038FBF4F
S1135BE00E9407110DC380910E0281113CC0C09028
S1135BF08E08D0908F08E0909008F09091088FE084
S1135C000E946A042B013C01C0928E08D0928F0836
S1135C10E0929008F092910810920E02BFB6F894A8
S1135C200E942F026419750986099709660F771F68
S1135C30881F991F8B019C016C157D058E059F059E
S1135C4010F49701860168017901C61AD70AE80A97
S1135C50F90AB701A60176956795579547958FE0A0
S1135C600E94BF0FBFBE0E942F02660F771F881FBE
S1135C70991F40C00E942F026B017C01CC0CDD1CDB
S1135C80EE1CFF1C8FE00E94B201E8E8F5E020E082
S1135C9044244A94542C642C4FE7742E808581FF4D
S1135CA01AC080819181A281B381B701A601481BEA
S1135CB0590B6A0B7B0B84819581A681B781841B68
S1135CC0950BA60BB70B84159505A605B7051CF413
S1135CD02C013D0121E0399635E0E53BF307F1F66F
S1135CE0222309F48DC214141504160417042CF08D
