S01800006275696C642F6D6963617A2F6D61696E2E73726563E5
S11300000C947F000C941B310C9425310C942F31EB
S11300100C9439310C9443310C944D310C94573178
S11300200C948B310C949E000C949E000C94F02F35
S11300300C94E12D0C94482E0C94FE300C94912DCC
S11300400C94B92D0C9495310C949E000C949E0044
S11300500C949E000C949E000C949E000C949E00A4
S11300600C94E62E0C949E000C949E000C949E001E
S11300700C949E000C949E000C949E000C949E0084
S11300800C949E000C949E000C949E004410471007
S11300904A104D10501053105E10E610E910B824A9
S11300A0C824E9242E255825652569256D25222790
S11300B02527D627E927EE27FB27022818285528C5
S11300C0AC28F228102926296129EC290A2A1E2A9B
S11300D0292A922CD92CB02979299329732DA7295F
S11300E0732D732DDE29AA29AA29AA29732D732D0C
S11300F0732DAD29AD29AD2900081C181410112445
S11301001FBECFEFD0E1DEBFCDBF11E0A0E0B1E074
S1130110EEE5F8E600E00BBF02C007900D92AA30AE
S1130120B107D9F715E0AAE0B1E001C01D92AA3ADF
S1130130B107E1F70E94FC310C942D340C940000BB
S11301409FB7F894E82FF0E0EC52FB4F10829FBF6A
S11301500895FC0120816181862F90E0A0E0B0E049
S113016077276627922B2381622B2281722B089595
S1130170C0980895B89A0895C09A089587B78F7E55
S113018087BF08958C7090912A01937F892B809367
S11301902A010895809164058F3F71F0E82FF0E003
S11301A0ED58FE4F9081909364059F3F11F4909316
S11301B0A2059FEF908308958FEF089583B783BFBF
S11301C000B600FCFDCF08950F931F938FB7F894EA
S11301D060915603709157030CB51DB506B602FE27
S11301E004C06F5F7F4F0CB51DB58FBFCB01A0E07E
S11301F0B0E07727662720E030E0602B712B822B5C
S1130200932B1F910F910895309149033323C1F02B
S113021020918A02E22FF0E0EE0FFF1FEA5BFB4F12
S113022080819181118210823150309349032F5F74
S1130230243019F020938A02089510928A020895B6
S113024080E090E00895309148033323C1F0209179
S11302508D05E22FF0E0EE0FFF1FED55FA4F808180
S11302609181118210823150309348032F5F2330E3
S113027019F020938D05089510928D05089580E05E
S113028090E00895409149034430B8F450918A02B3
S1130290242F30E0250F311D2430310510F0245077
S11302A03109F901EE0FFF1FEA5BFB4F9183808355
S11302B04F5F4093490380E0089581E008959FB71C
S11302C0F894E82FF0E0ED58FE4F20812F3FC9F459
S11302D021E030E0E091A205E81711F020E030E0E1
S11302E0232B79F4209164052F3F19F4809364053E
S11302F004C0F0E0ED58FE4F80838093A20580E0B7
S113030001C085E09FBF08958AE10C945F0140918C
S113031048034330B8F450918D05242F30E0250F65
S1130320311D2330310510F023503109F901EE0F4E
S1130330FF1FED55FA4F918380834F5F409348032D
S113034080E0089581E008959FB7F8942091070113
S1130350281307C080911E01823019F49FBF81E0E9
S113036008959FBF80E008959FB7F894E82FF0E0C8
S1130370EC52FB4F80819FBF08959FB7F894809102
S11303801E01823019F09FBF8FEF089580910701FD
S11303909FBF0895CF93C82F0E94BD01C8130AC000
S11303A081E020911301309114012430310519F0BA
S11303B080E001C085E0CF910895CF92DF92EF9263
S11303C0FF920F931F930E94E400C0902001D090ED
S11303D02101E0902201F09023010091A0011091ED
S11303E0A1012091A2013091A3010C0D1D1D2E1D10
S11303F03F1D6C157D058E059F0530F00C151D0500
S11304002E053F0558F005C00C151D052E053F05AA
S113041090F5601771078207930768F56801790101
S1130420C61AD70AE80AF90A41E0C41640E8D40615
S1130430E104F10418F18B019C0110582F4F3F4F38
S11304400093200110932101209322013093230172
S1130450970186011058210931090093A0011093D6
S1130460A1012093A2013093A301C12CB0E8DB2E9B
S1130470E12CF12C13C0C12CD12C76010093200166
S11304801093210120932201309323011092A001A3
S11304901092A1011092A2011092A3014CB55DB576
S11304A04D5F5F4F9A01261B370B2C153D0518F441
S11304B0AB014C0D5D1D4115510511F441E050E0B7
S11304C04150510959BD48BD88E086BF87B788604F
S11304D087BF1F910F91FF90EF90DF90CF90089509
S11304E0CF93CFB7F89410920D0110920C010E9493
S11304F0BE0087B78F7D87BF0E94BC00CFBF80E05E
S1130500CF910895CF92DF92EF92FF920F931F93B2
S11305100E94E400C090E904D090EA04E090EB0467
S1130520F090EC04009140021091410220914202AB
S1130530309143020C0D1D1D2E1D3F1D6C157D05B4
S11305408E059F0530F00C151D052E053F0558F04E
S113055005C00C151D052E053F0590F560177107A4
S11305608207930768F568017901C61AD70AE80A71
S1130570F90A41E0C41640E8D406E104F10418F194
S11305808B019C0110582F4F3F4F0093E9041093A7
S1130590EA042093EB043093EC049701860110588D
S11305A02109310900934002109341022093420231
S11305B030934302C12C10E8D12EE12CF12C13C04E
S11305C0C12CD12C76010093E9041093EA04209302
S11305D0EB043093EC04109240021092410210920A
S11305E04202109243024CB55DB54D5F5F4F9A01D4
S11305F0261B370B2C153D0518F4AB014C0D5D1D66
S11306004115510511F441E050E041505109509316
S113061079004093780081E080937C0080917D0094
S1130620816080937D001F910F91FF90EF90DF9088
S1130630CF9008950F931F934FB7F89498E0899F34
S1130640F0011124EC5AFB4F6481758186819781F6
S11306500081118122813381600F711F821F931FDA
S11306604FBF1F910F91089530911901E32FF0E0CE
S1130670EE0FFF1FE75EFA4F8081918120911701F1
S1130680222359F03F5F343019F03093190102C02E
S1130690109219012150209317010895CF92DF92EF
S11306A0EF92FF920F931F930E94E400C0909A026E
S11306B0D0909B02E0909C02F0909D0200918B02EE
S11306C010918C0220918D0230918E020C0D1D1D13
S11306D02E1D3F1D6C157D058E059F0530F00C15F4
S11306E01D052E053F0558F005C00C151D052E05EA
S11306F03F0590F5601771078207930768F5680155
S11307007901C61AD70AE80AF90A41E0C41640E892
S1130710D406E104F10418F18B019C0110582F4F09
S11307203F4F00939A0210939B0220939C023093B4
S11307309D029701860110582109310900938B020B
S113074010938C0220938D0230938E02C12C90E87A
S1130750D92EE12CF12C13C0C12CD12C760100939D
S11307609A0210939B0220939C0230939D02109254
S11307708B0210928C0210928D0210928E024CB554
S11307805DB54D5F5F4F9A01261B370B2C153D0558
S113079018F4AB014C0D5D1D4115510511F441E0F8
S11307A050E0415051095BBD4ABD80E186BF87B727
S11307B0806187BF1F910F91FF90EF90DF90CF90E2
S11307C008952F923F924F925F926F927F928F92F1
S11307D09F92AF92BF92CF92DF92EF92FF920F93CC
S11307E01F93EFB7F8948091840290918502A091B1
S11307F08602B09187021C012D019C01A20160E0D8
S113080070E080E090E003E00E94CB33510162018C
S1130810E12CF12C00E010E00E940B3459016A0134
S11308207B01F82F192F03E00E94CB330F2F0E9476
S11308300B3459016A017B01F82F192F03E00E9440
S1130840CB330F2F0E940B3459016A017B01F82F1F
S1130850192F03E00E94CB330F2F0E940B34590150
S11308606A017B01F82F192F03E00E94CB330F2F6D
S11308700E940B3401E00E94CB3329013A0100E2CB
S11308800E94E63349015A01C301B2019695879546
S113089077956795680D791D8A1D9B1D97FF05C087
S11308A09F776F5F7F4F8F4F9F4F6093840270934A
S11308B085028093860290938702EFBF1F910F9168
S11308C0FF90EF90DF90CF90BF90AF909F908F906C
S11308D07F906F905F904F903F902F90089530914C
S11308E01601E32FF0E0EE0FFF1FE45CFC4F808164
S11308F0918120911501222359F03F5F343019F082
S11309003093160102C01092160121502093150154
S1130910089580914504811102C086E004C08F5F70
S11309208093450485E00C945F01FF920F931F931D
S1130930CF93DF938AE18093530280E8809354023B
S113094013E0109355021092560210925002109226
S11309504A02FF24F394F0924B0210924C0286E078
S113096080935702109258020FE00093590210929C
S11309706E0210926F0210927002109271020E9425
S1130980E10360935A02CFEFDFEFD0936302C09389
S113099062020E94E10360935B02F0924D0285E0E3
S11309A080935F0284E080935C0210936002109352
S11309B05D02D0936502C093640210924E0280E2FD
S11309C08093610210924F0210925102D0936702F9
S11309D0C093660200935E0284EF91E090936902F3
S11309E0809368021092520282EC97E0A0E0B0E09B
S11309F080936A0290936B02A0936C02B0936D0291
S1130A00DF91CF911F910F91FF900895DF92EF92A4
S1130A10FF920F931F93CF93DF93D22EE32EF42EE6
S1130A20D52FC62FB72FFC01A8E0019398014D2DB7
S1130A305E2D6F2D7D2F8C2F9B2F08E00E94E633B7
S1130A408901D42EE52EF62ED72FC82FB92FA15009
S1130A5061F7DF91CF911F910F91FF90EF90DF909D
S1130A6008956F927F928F929F92AF92BF92CF928E
S1130A70DF92EF92FF920F931F93CF93DF934C017A
S1130A803A01F901B02EE6018EEF860F823010F59F
S1130A90D40113964C93139714967C921497623056
S1130AA051F49081818115969C93159716968C9399
S1130AB077E0D72E11C000811181228133814481D6
S1130AC0558166817781C40105960E9406056DE013
S1130AD0D62E02C053E0D52E8EEF8B0D823048F512
S1130AE06E147F0411F4A11007C0F401ED0DF11D83
S1130AF0E082F182D394D394ED2DF0E0B2E0BB1206
S1130B0009C098818981E80DF91D90838183D3946C
S1130B10D3940FC0088119812A813B814C815D8166
S1130B206E817F81C4018E0F9F1F0E940605E8E03D
S1130B30DE0E8D2DDF91CF911F910F91FF90EF90DD
S1130B40DF90CF90BF90AF909F908F907F906F90E9
S1130B50089580914D03882349F010924D0310921B
S1130B60900110928F0188E10C945F0108954F92D7
S1130B705F926F927F928F929F92AF92BF92CF9229
S1130B80DF92EF92FF920F931F93CF93DF930E9414
S1130B90E400C4EDD4E040E044244A94542C3201EF
S1130BA0E4E5F4E029912223C1F180809180A280C0
S1130BB0B3806B017C01C818D908EA08FB080481DA
S1130BC0158126813781C016D106E206F30668F046
S1130BD0080D191D2A1D3B1D0083118322833383B5
S1130BE014821582168217820CC0608371838283FB
S1130BF093830C191D092E093F0904831583268349
S1130C003783048115812681378140165106620697
S1130C10730618F02801390141E0389624E0E43DD8
S1130C20F20709F0BFCF442341F177FE04C0769464
S1130C3067945794479460932001709321018093A3
S1130C402201909323014092A0015092A10160924D
S1130C50A2017092A301DF91CF911F910F91FF9098
S1130C60EF90DF90CF90BF90AF909F908F907F9048
S1130C706F905F904F900C94DD0187B7877F87BF9B
S1130C80DF91CF911F910F91FF90EF90DF90CF9064
S1130C90BF90AF909F908F907F906F905F904F9098
S1130CA00895FF920F931F93CF93DF93DC01C3E06A
S1130CB0B695A795CA95E1F787709927E62FF0E0D6
S1130CC001E010E0980102C0220F331F6A95E2F799
S1130CD0B901FF24FA94F20EF4229C012E0F3F1F57
S1130CE0ED01CD59DA4F2930310590F42F2D082E1E
S1130CF001C0220F0A94EAF76150710901C0660F1E
S1130D008A95EAF7609588816823622B68834DC0D1
S1130D100097C9F02F2D082E01C0220F0A94EAF77C
S1130D20A801082E02C0440F551F0A94E2F741504F
S1130D30510938813423322B388328E030E0281BD2
S1130D40390B119602C020E030E0AD59BA4F6F2D37
S1130D5070E0CD0183569540A901485F5F4FE417C9
S1130D60F50748F0CB0102C0959587952A95E2F7DF
S1130D708D939A01EECF2E173F07B8F4DC01AD59DD
S1130D80BA4FE21BF30B4FEF5FEF0E2E01C0440F7F
S1130D900A94EAF73C9134238F2D90E002C0959594
S1130DA087952A95E2F7382B3C93DF91CF911F91D9
S1130DB00F91FF900895FB01833009F471C028F46A
S1130DC0882319F1823099F174C0833589F0803F0A
S1130DD029F1803509F06DC0808191812FB7F89495
S1130DE031E03093E70490937B0280937A020BC046
S1130DF0808191812FB7F89431E03093E704909388
S1130E009F0280939E022FBF54C090818FB7F894A5
S1130E1021E02093E7049093EF044AC090818FB7B8
S1130E20F89421E02093E7049093660141C09081F7
S1130E30892F8F7395FD806C992787FD909597FF77
S1130E4019C08F3F2FEF9207B9F08D3F2FEF920714
S1130E50ACF48B3F2FEF92079CF4883F2FEF92075F
S1130E608CF4843F2FEF92077CF48D3E9F4F74F0F7
S1130E7087E00DC08FE10BC08BE109C087E107C09B
S1130E8083E105C08FE003C08BE001C083E09FB71E
S1130E90F89421E02093E704809380029FBF09C067
S1130EA090818FB7F89421E02093E70490938F0505
S1130EB08FBF80911301909114010697029718F443
S1130EC083E10C945F010895FB01808780915304B2
S1130ED081FD1FC0809117018430D8F490911801CE
S1130EE0E92FF0E0EE0FFF1FE75EFA4F7183608396
S1130EF09F5F943019F09093180102C0109218016A
S1130F008F5F8093170189E00E945F0180E090E089
S1130F10089581EF90E00895CF93CFB7F89480912E
S1130F208F0190919001892B19F4CFBF89E00EC0F5
S1130F3081E080934D0389B78F7B89BF80913F0205
S1130F40811102C00E94A905CFBF80E0CF9108950E
S1130F50CF93C82F0E94BD01C8131BC02FB7F894AC
S1130F6080911301909114018430910519F42FBFDD
S1130F7089E010C0079719F02FBF81E00BC088E00B
S1130F8090E090931401809313012FBFCF910C94A0
S1130F908C0785E0CF91089580E00C94A807CF9248
S1130FA0DF92EF92FF92CF93DF9300D000D0CDB7C2
S1130FB0DEB76B017C0129833A834B835C830E94F7
S1130FC0E400660F771F881F991F6C197D098E092D
S1130FD09F09E1E029813A814B815C8162177307A3
S1130FE08407950708F4E0E08E2F0F900F900F9080
S1130FF00F90DF91CF91FF90EF90DF90CF90089505
S113100084E00E94A00086E00E94A00085E00C9489
S1131010A0009FB7F89481E020910301211180E0A2
S11310209FBF08956E9A8FB9779BFECF8FB10895B5
S11310309091510491110C94120880E00895CF937B
S1131040CFB7F8940E940908811103C0CFBF81E093
S11310500EC00E94BC000E94B80083E00E941808E1
S11310608BE00E9418080E94BC00CFBF80E0CF91A3
S113107008951F93CF93DF931F92CDB7DEB72091CE
S11310800C0130910D012330310509F049C08983E9
S11310900E94BC000E94B8008981882311F085E079
S11310A001C084E00E94180883FD09C080E00E940A
S11310B0180883FB112710F981E0182701C011E0FB
S11310C00E94BC0011112EC084E090E090930D01A9
S11310D080930C01E0915403F09155030480F58151
S11310E0E02D8FEF83838283818380830E94E400D9
S11310F060939A0270939B0280939C0290939D024A
S113110080EE91E0A0E0B0E080938B0290938C029B
S1131110A0938D02B0938E020E944E0380E003C020
S113112084E001C081E00F90DF91CF911F91089579
S1131130CF93CFB7F8940E940908811103C0CFBFA1
S113114081E00BC00E94BC000E94B80086E00E94AF
S113115018080E94BC00CFBF80E0CF910895CF92C1
S1131160DF92EF92FF920F931F93CF93DF9300913F
S1131170920510919305E090A603F090A703C09107
S11311805203D09153032091280130912901CE01BB
S11311900A962817390708F4C9016C0121E0C21A1C
S11311A0D108CC15DD05A0F40115110529F0F801CD
S11311B0EC0FFD1F808101C080E00E941208E11441
S11311C0F10421F0F701EC0FFD1F80832196E9CF94
S11311D06F9A0115110531F0F801EC0FFD1F8081A4
S11311E08FB901C01FB8D0935303C093520380E05A
S11311F0DF91CF911F910F91FF90EF90DF90CF90EF
S11312000895509329014093280190939305809366
S113121092057093A7036093A60310925303109250
S11312205203452B19F08FB10C94AF0886E10E944C
S11312305F0180E00895CF93DF930E94BC000E9479
S1131240B800C091AC03D091AD03809151048823C0
S113125091F08FE790E09093A3028093A2028FE72E
S11312600E94120841E050E0BE0180E090E0DF916E
S1131270CF910C940109DF91CF910895EF92FF92E1
S11312801F93CF93DF931F92CDB7DEB77C0180917C
S113129051048823A9F08EE390E09093A3028093F5
S11312A0A2028EE369830E941208182F6981462FD7
S11312B050E060E070E0C7010E940109812F01C085
S11312C080E00F90DF91CF911F91FF90EF900895F0
S11312D08F929F92AF92BF92CF92DF92EF92FF9242
S11312E0CF93DF9300D000D0CDB7DEB74B015C01C4
S11312F029833A834B835C830E94E4006B017C0165
S1131300CC0CDD1CEE1CFF1CC818D908EA08FB082D
S11313104601570129813A814B815C81C216D3066B
S1131320E406F50610F449015A010E94E4006093B2
S1131330E9047093EA048093EB049093EC04D501E0
S1131340C4018C199D09AE09BF09B695A795979557
S113135087958093400290934102A0934202B093F8
S113136043020F900F900F900F90DF91CF91FF9059
S1131370EF90DF90CF90BF90AF909F908F900C94A0
S113138082020F931F93CF93CFB7F89490911E01CD
S1131390923071F49091070198130AC0809164030C
S11313A081110EC080916503882309F43EC008C0F2
S11313B090E0CFBF81E08927CF911F910F910895CD
S11313C020911F0130E0C901019661E070E08C308A
S11313D0910511F480E090E0E82FE695E695E69516
S11313E0F0E0EC59FC4FA081482F47708B0102C0FC
S11313F0000F111F4A95E2F7A801BA2FB02331F06C
S113140040954A23408380931F0106C082179307A7
S113141011F00196DCCF8FEF8093930181E08093EC
S11314201E0182E00E945F0105C08FEF80930701D7
S113143010921E0191E0BDCFCF92DF92EF92FF9206
S1131440CF93C82F6A017B010E94E40029E0C29F68
S1131450F0011124EA59FC4F660F771F881F991F6A
S11314606083718382839383C482D582E682F78208
S113147080858160826080878BE1CF91FF90EF90BF
S1131480DF90CF900C945F01EF92FF920F931F9324
S1131490CF93DF938C01FFB6F8940E940908882348
S11314A011F10E94BC000E94B8008091510488236D
S11314B081F083E50E941208E82E80E00E94120861
S11314C0C82FD0E0DC2FCC2780E00E941208C82B64
S11314D001C0E12C0E94BC00E1FE05C0F801C083FC
S11314E0FFBE80E002C0FFBE81E0DF91CF911F917B
S11314F00F91FF90EF900895CF93DF9300D0CDB775
S1131500DEB79FB7F89420915104222389F09FBF3E
S11315106A8379830E9412087981872F0E941208B6
S11315206A81862F0F900F90DF91CF910C9412084F
S11315309FBF80E00F900F90DF91CF91089580912D
S1131540EF0490E00B9725E0289FB001299F700DD0
S113155011246B597E4F706488E10C947C0AE1E09D
S113156080915103811101C0E0E041E08091660166
S1131570811101C040E021E080919D01811101C0F1
S113158020E080918102882351F051E030E0809185
S1131590E804811101C050E0852F932F02C080E040
S11315A090E060918F0530E4639FB0011124626282
S11315B07260F0E0FE2FEE27F295FF0FF07E6E2BA7
S11315C07F2B50E0542F44275295507F642B752B6A
S11315D030E0322F2227330F330F330F622B732B5C
S11315E0A4E0880F991FAA95E1F7682B792B81E174
S11315F00C947C0AEF92FF920F931F93CF93DF9387
S1131600CDB7DEB72C970FB6F894DEBF0FBECDBFB3
S1131610FFB6F89400915C0310915D0320915E0382
S113162030915F03409160035091610360916203C4
S113163070916303CE0101960E94060590917A028F
S113164080917B0299878A8790919E0280919F0264
S11316509B878C87FFBE21E080917A0290917B0268
S1131660019609F020E0722F770F770F770F60E073
S11316706F6772608CE10E947C0A8FB7F894909136
S11316805104911102C08FBF16C08FBF80EE0E941B
S1131690120880E80E9412088E010F5F1F4F7E011E
S11316A08DE0E80EF11CF80181918F010E9412086F
S11316B00E151F05C1F72C960FB6F894DEBF0FBEAA
S11316C0CDBFDF91CF911F910F91FF90EF900895BF
S11316D0CF93CFB7F8940E940908811103C0CFBFFC
S11316E081E027C08091E704882309F10E94BC00AF
S11316F00E94B80086E00E9418080E94BC000E9464
S1131700B8000E949F0A0E94AF0A6091800270E0B4
S1131710606E706885E10E947C0A0E94BC000E9491
S1131720B8000E94FA0A0E94BC001092E704CFBFDE
S113173080E0CF9108958091110190911201019759
S1131740F1F582E090E09093120180931101DE980C
S1131750DE9A8091110190911201029781F583E044
S113176090E090931201809311010E94BC000E94AA
S1131770B80068E170E08DE10E947C0A81E080930A
S1131780A0021092100180B386FB882780F9809311
S1131790A10284E10E945F0181E00E9418086FE7C2
S11317A072E08CE10E947C0A0E949F0A0E94AF0AA8
S11317B066E57AE287E10E947C0A0C94BC000895F5
S11317C097B79F7D97BF90E296BF882319F08EB597
S11317D0806402C08EB58F7B8EBD87B7806287BF61
S11317E080E008956E98BA9ABB98B99A0E94BA009C
S11317F06C9A6F986B986A986E9A709A8DB18C7F78
S11318008DB908951F93CF93DF931F92CDB7DEB7A1
S11318101FB7F8949091510491111FC091E09093D7
S113182051042091000190910E01211102C09230C7
S113183079F0911115C092E090930E01109200017D
S113184089830E94F20B0E94BA000E94B800898129
S11318508093030180E01FBF07C01FBF85E004C061
S11318601092510481E0F7CF0F90DF91CF911F9137
S11318700895CF93CFB7F8949091510491110FC06C
S113188091E0909351048093030190910001809121
S11318900E01911110C0823071F485E118C021E06D
S11318A030E001C0220F8A95EAF780910F01822B64
S11318B080930F012EC0882349F180910E0181117C
S11318C009C081E080930E0110929F0187E10E947C
S11318D05F011FC08091A4018F3FD9F481E090E0A3
S11318E0E0910101EE2311F080E090E0892B89F46E
S11318F0809102018F3F19F41092020104C0F0E0BC
S1131900EC55FE4F10821092010103C00E94F20BAD
S1131910D4CFCFBF80E0CF91089580E00C94390CF0
S113192080918F0190919001892BF1F080914D036A
S113193081111AC083E090E09093900180938F010D
S113194081E080933F029FB7F894809103019FBF89
S1131950813011F40C941B0981E00E94020C88234D
S1131960C9F381E00C94390C0895CF92DF92EF9281
S1131970FF92CF93DF93C82F6A017B010E94E4009A
S1131980DFB7F8942C2F30E0F901B3E0EE0FFF1F1E
S1131990BA95E1F7EC5AFB4F60837183828393839A
S11319A0C482D582E682F782F901EC52FB4F81E0D2
S11319B080838091E404811102C00E94B705DFBFD7
S11319C0DF91CF91FF90EF90DF90CF900895CF9368
S11319D0CFB7F89480910C0190910D01019719F4FF
S11319E0CFBF89E00DC081E00E94E00B81E090E070
S11319F090930D0180930C0110920B01CFBF80E0F6
S1131A00CF910895CF930E94680B0E94E70CE09158
S1131A104E04F0914F04CFB7F89480910C0190914B
S1131A200D01019729F582E090E090930D018093D8
S1131A300C01F0935503E0935403A081B181868196
S1131A409781890F8E5F8C930E94BC000E94B8001E
S1131A5089E00E9418080E94BC000E94B800E0912E
S1131A605403F091550361E0808191810E943E0905
S1131A70CFBFCF9108950E94090881110C94020DE3
S1131A8080E00E94020C8823C9F30C948D0C809191
S1131A900F0181114EC0809103018F3F09F049C0AD
S1131AA080915104811145C081E080931805809193
S1131AB06E01811110921805809118058823B9F1DF
S1131AC080910001811104C080910E01823099F14E
S1131AD080910E01823029F580910001811121C08D
S1131AE0809102018F3FC9F09FEF90930001E82F8E
S1131AF0F0E0EC55FE4F9081909302019F3F11F46A
S1131B00909301019FEF908380939F0181E08093E4
S1131B100E0187E10E945F0104C0809300011092CE
S1131B200E0180910E01811109C06E9807C085E0F5
S1131B30089581E008950E94BC00CACF80E0089512
S1131B40CF93CFB7F89490910301981719F0CFBFB2
S1131B5081E02DC08FEF8093030170910F0171110B
S1131B6005C0109251040E94470D1CC060E0872FED
S1131B7090E06170AC01062E02C0559547950A9419
S1131B80E2F740FF12C06093030181E090E001C0DE
S1131B90880F6A95EAF78095872380930F0185E182
S1131BA00E945F01CFBF80E002C06F5FE2CFCF91A0
S1131BB00895CF93CFB7F89480E00E94A00DCFBFD3
S1131BC0CF91089581E00C94A00DCF93CFB7F894F2
S1131BD080918F0190919001892B09F110923F021D
S1131BE080914D03882319F00E94A9051AC08091A1
S1131BF09E01882311F0B79904C00E9908C0882368
S1131C0019F0815080939E010E94900C0AC082E0DA
S1131C1090E09093900180938F0110929E010E9416
S1131C20E20DCFBFCF91089580E8809365011092B3
S1131C303F0210928C051092620510929E010E9440
S1131C40BC000E94B80088E00E94180888E00E9446
S1131C5018080E94BC000E94E20D0C94E50DCF927E
S1131C60DF92EF92FF926B017C0180910A01811156
S1131C701FC083E080930A010E94E4006093E9049A
S1131C807093EA048093EB049093EC04F694E79445
S1131C90D794C794C0924002D0924102E09242028B
S1131CA0F0924302FF90EF90DF90CF900C94820269
S1131CB0FF90EF90DF90CF900895CF93E0916C0167
S1131CC0F0916D01C0810E94E1032FEF3FEF02C04C
S1131CD0220F331FCA95E2F74DE050E050931401F0
S1131CE040931301209530952623372384E1829F66
S1131CF0B001839F700D112480E090E0CF910C948B
S1131D002F0E2F923F924F925F926F927F928F92FB
S1131D109F92AF92BF92CF92DF92EF92FF920F9376
S1131D201F93FC01DB0117968C91179716968C90E4
S1131D301697912CA12CB12C540199248824B82AEB
S1131D4014968C911497882A15968C911597982A35
S1131D509401A50160E070E080E090E000E20E9460
S1131D60CB331396FC90139712962C901297822CD7
S1131D70912CA12CB12C540199248824BF28FC90C7
S1131D808F281196AC919A2A140125015101620100
S1131D90E12CF12C00E010E00E9402342083318316
S1131DA04283538364837583868397831F910F9142
S1131DB0FF90EF90DF90CF90BF90AF909F908F9067
S1131DC07F906F905F904F903F902F900895CF92A7
S1131DD0DF92FF920F931F93CF93DF931F92CDB7A0
S1131DE0DEB78C01F62E6901FC018181877009F050
S1131DF05FC08281982F9078903809F059C08295FD
S1131E00869586958370F9018083F801858190E039
S1131E10982F88272481822BF60192838183F801ED
S1131E208281807C803851F4878190E0982F8827C4
S1131E302681822BF6019483838309C0B8016A5FEB
S1131E407F4FC601039649830E94810E4981F601A2
S1131E50F3864487F801828DF6018587F801838D26
S1131E60F6018687F801848D881F8827881FF6016C
S1131E708787F801EB56FF4F8081F601808BC801FC
S1131E8080579F4F0E94A900F601618B728B838B50
S1131E90948B168A158A178A108E118E128E138EC1
S1131EA0148E158E168E178E10A211A280E001C01A
S1131EB081E00F90DF91CF911F910F91FF90DF9000
S1131EC0CF900895CF93DF93EC0140915602809117
S1131ED06A0181111DC028E635E06AE1CE010E9445
S1131EE0E70E811115C080916805823089F48091D4
S1131EF0690590916A058833924151F480916B058C
S1131F0090916C058238914919F481E080936A01BB
S1131F10CE01DF91CF910895FC0180818F7791816B
S1131F20977021F5948D977029F0292F220F290F8E
S1131F302C5F01C023E07A9630E0DF01A20FB31FCB
S1131F404C912F5F3F4F2E0F3F1F942F977021F01E
S1131F50290F311D290F311D407729F050E0569586
S1131F604795240F351FE21BF30B8E0F08952FB7EF
S1131F70F894B79905C00E9903C02FBF81E0089566
S1131F8080E88093650110923F0210928C051092B4
S1131F90620510929E0182E090E0909390018093FC
S1131FA08F0189B78F7B89BF80E488BF8AB780623D
S1131FB08ABF8AB78F7E8ABF89B7806489BF2FBFE3
S1131FC080E00895E0914E04F0914F040190F08177
S1131FD0E02D818185FF04C00E94D90D0C94B70FB8
S1131FE00895CF93CFB7F8940E940908811103C0D4
S1131FF0CFBF81E01FC0B79B1BC00E94B800809177
S11320005104882349F08FE70E94120880E00E945F
S1132010120880E00E9412080E94BC000E94B800CE
S113202088E00E94180888E00E9418080E94BC00FA
S1132030CFBF80E0CF9108956F927F928F929F924D
S1132040AF92BF92CF92DF92EF92FF920F931F93C2
S1132050CF93DF931F92CDB7DEB7182F7FB6F894D6
S113206069830E94BD0169818113BAC0609307012D
S1132070862F90E0FC013397E930F10508F0ADC0FC
S1132080EA5BFF4F0C94C53368E083E0A4C065E0CD
S113209084E0A1C066E085E09EC068E086E09BC065
S11320A068E087E098C080912A0185FF04C088E039
S11320B00E945F0192C00E94A41D8FC0A0912D05B3
S11320C0209194013091950140919601509197018E
S11320D0B0E00E949833643A21E0720781059105CB
S11320E018F46AE089E077C06B017C01E4EACE1A57
S11320F0E1E0DE0AE108F10880918E058093950203
S11321008090980590909905A0909A05B0909B05B1
S11321106FB6F8940E94E400660F771F881F991F1A
S1132120681979098A099B098B019C016C157D0545
S11321308E059F0510F49701860168017901C61A7E
S1132140D70AE80AF90AB701A60176956795579563
S1132150479584E00E94B50C6FBEC0903505D090C1
S11321603605C114D10479F1E12CF12C8090980545
S113217090909905A0909A05B0909B056FB6F8943D
S11321800E94E400660F771F881F991F6819790958
S11321908A099B098B019C016C157D058E059F05A1
S11321A010F49701860168017901C61AD70AE80A72
S11321B0F90AB701A601769567955795479585E085
S11321C00E94B50C6FBE0E94021107C068E08AE04D
S11321D002C063E08BE00E941C107FBE80E002C05E
S11321E07FBE81E00F90DF91CF911F910F91FF90FF
S11321F0EF90DF90CF90BF90AF909F908F907F90A3
S11322006F9008954F925F926F927F928F929F92F8
S1132210AF92BF92CF92DF92EF92FF920F931F93F0
S1132220CF93DF9300D000D0CDB7DEB75FB6F8947C
S11322308091A005811178C089E00E94A4018823BF
S113224009F472C081E08093A005A0912D0520912E
S11322509401309195014091960150919701B0E01D
S11322600E9498339B01AC01245A31404109510921
S1132270609198057091990580919A0590919B05BC
S11322800E94CF07882339F089E00E94CA0188237D
S113229009F480C106C084E00E94B4018823A1F33C
S11322A010C00E94000880911A0181110E941E171B
S11322B0109295021092A0056AE089E00E941C1019
S11322C033C080919502882319F00E945D1E41C19C
S11322D080911A018111F9CF809182029091830239
S11322E02091A905211106C021E0029709F020E000
S11322F0822F01C081E020911B01811108C081E07F
S113230090E0211102C080E090E0892B79F089E00F
S11323100E94CA01882309F43DC10E94000810925A
S1132320A00589E00E94C1095FBE37C1209135052F
S11323303091360521153105B9F040E050E0609147
S113234098057091990580919A0590919B050E943A
S1132350CF07882349F080913B02811105C0809109
S11323609201882309F4EBC080914B0390914C03B4
S1132370892B09F4D3C010912D052091940130913B
S11323809501409196015091970189E029833A8300
S11323904B835C830E94CA0129813A814B815C8111
S11323A0882309F4D4C0A12FB0E00E9498334B01D4
S11323B05C016B017C0124EAC21A21E0D20AE10823
S11323C0F10880910E0490910F04A0911004B09133
S11323D01104C81AD90AEA0AFB0AC701B60124E1A2
S11323E030E040E050E00E94A333E4E1CE0ED11C83
S11323F0E11CF11CC61AD70AE80AF90A8C149D04D8
S1132400AE04BF0418F4C12CD12C7601809135059B
S113241090913605009749F0A0E0B0E08C159D0539
S1132420AE05BF0510F46C017D01609198057091B3
S1132430990580919A0590919B05A70196010E94A8
S1132440CF07811181C0009167011091680140900C
S11324509A018090980590909905A0909A05B09063
S11324609B0560904B0370904C030E94BD01893022
S113247009F051C06114710409F44DC0F301808165
S11324809181892B09F447C082819381892B19F4A6
S11324908781811140C0F30184819581892BD9F111
S11324A02681878190E0820F911D8E3791059CF5DE
S11324B02FB7F8948091130190911401049711F0AF
S11324C02FBF29C08BE090E09093140180931301F7
S11324D02FBF70924F0460924E0484E493E0909373
S11324E06D0180936C018092450290924602A09205
S11324F04702B0924802C0925A01D0925B01E09226
S11325005C01F0925D0140929C0510932C050093B0
S11325102B050E943B0D82E090E01BC080913B02A2
S1132520811104C080919201882349F00E945D1EAC
S113253083309105A9F48CE00E945F010DC089E00D
S11325400E94CA01882319F083E090E002C080E071
S113255090E08330910521F41092A00583E090E08F
S11325605FBE892BD1F489E00F900F900F900F90EC
S1132570DF91CF911F910F91FF90EF90DF90CF905B
S1132580BF90AF909F908F907F906F905F904F908F
S11325900C94A80780E090E0E3CF0F900F900F9089
S11325A00F90DF91CF911F910F91FF90EF90DF90EB
S11325B0CF90BF90AF909F908F907F906F905F90DF
S11325C04F9008952FB7F894FC0180818093920175
S11325D02FBF0C94021120EE280F982F41E050E0F9
S11325E060E070E0992351F0440F551F661F771F78
S11325F091509213F7CF40E050E0BA014427587F3E
S11326007770452B462B472B51F08093530263E59B
S113261072E080E00E94DB0680E090E0089588EE9E
S113262090E008952F923F924F925F926F927F9223
S11326308F929F92AF92BF92CF92DF92EF92FF92CE
S11326400F931F93CF93DF93CDB7DEB761970FB688
S1132650F894DEBF0FBECDBF582F942E1901A98662
S1132660BA86CB86DC86ED86FE860F87188B6111D1
S113267029C08B3138F580E098EFAFEFB7E0052E35
S113268004C0B695A795979587950A94D2F780FFCD
S113269019C08EEF840F8230A8F480914402811116
S11326A00FC0598B0E9404013C01009749F00E941D
S11326B023012C015989009741F4C3010E9442016E
S11326C081EF01C088EE90E09FC08BEE80939C0167
S11326D08FEF9FEF9093260580932505852F0E9409
S11326E0EB12309265022092640264E672E080E5A7
S11326F00E94DB0690923E02F2E09F1207C0898599
S11327009A85909363028093620218C089858093AE
S113271072028A85809373028B85809374028C8500
S1132720809375028D85809376028E8580937702DF
S11327308F8580937802888980937902D3011196DA
S11327405C924E92C2014A9615969C938E9314976E
S113275080915C03898380915D038A8380915E0309
S11327608B8380915F038C83809160038D83809140
S113277061038E83809162038F83809163038887D2
S1132780A12CFE0131966F01EE24EA94FE2C03E0A5
S11327909E01275F3F4FA101692DC20101960E944E
S11327A03105D30116968C931697ED91FC911197F0
S11327B083E28183ED91FC91B2E09B1202C088EC2C
S11327C001C08CEC828321E020939D0580929E05BC
S11327D08DE995E0F3019383828382E087832093DC
S11327E04402B30181E00E9464074C01009751F058
S11327F010924402C3010E944201C2010E94870157
S1132800C40102C080E05FCF61960FB6F894DEBFCA
S11328100FBECDBFDF91CF911F910F91FF90EF902D
S1132820DF90CF90BF90AF909F908F907F906F90EC
S11328305F904F903F902F9008958F92AF92BF92E8
S1132840CF92DF92EF92FF920F931F93CF93DF9378
S1132850CDB7DEB728970FB6F894DEBF0FBECDBF55
S1132860811119C0D99844EB54EC64E070E085E020
S113287028960FB6F894DEBF0FBECDBFDF91CF917F
S11328801F910F91FF90EF90DF90CF90BF90AF908A
S11328908F900C941C0A2091690530916A0540912F
S11328A06805609174058091730598E0EBE6F5E0A6
S11328B0DE01119601900D929A95E1F780906305DF
S11328C0A980BA80CB80DC80ED80FE800F811885E2
S11328D00E94121328960FB6F894DEBF0FBECDBF28
S11328E0DF91CF911F910F91FF90EF90DF90CF90E8
S11328F0BF90AF908F900895E0E8F3E080818D7FE2
S11329008083109244028FEF9FEF9093650280932F
S1132910640264E672E080E50E94DB068BEE0C94B0
S11329201D14813029F48091440281110C947C148B
S113293008954F925F926F927F928F929F92AF927F
S1132940BF92CF92DF92EF92FF920F931F93CF9398
S1132950DF93CDB7DEB760970FB6F894DEBF0FBE36
S1132960CDBFB82E162F2A01690122E082130AC0B6
S11329708091A8039091A903892B21F082E00E9401
S1132980911496C00E9404014C01009709F496C06A
S11329900E9423013C01009709F48DC0D4011196D3
S11329A09C938E934A9615969C938E93149719969E
S11329B0BC92E0906402F0906502123019F442E097
S11329C050E002C048E050E0B601CE0101960E94FA
S11329D01D34D401ED91FC9183E28183123038F0EF
S11329E0023028F04E145F0411F483E68183212F12
S11329F0220F220FB0E40B9FC0011124282B228345
S1132A00023039F480916602909167029A8789872F
S1132A1018C080915C03898780915D038A878091C7
S1132A205E038B8780915F038C87809160038D8721
S1132A30809161038E87809162038F878091630305
S1132A40888BA180A6FAAA24A0F8F4018081918140
S1132A509E01275F3F4F69019E012F5F3F4FA201F7
S1132A60612F01960E943105D40116968C93169716
S1132A7086E091E013969C938E93129781E01796CB
S1132A808C93B40186E00E9464078C01009739F0AE
S1132A90C3010E948701C4010E94420111C08091B8
S1132AA0A8039091A90301969093A9038093A80386
S1132AB080E090E009C0C4010E94420101EF10E0EF
S1132AC08B2D0E949114C80160960FB6F894DEBF56
S1132AD00FBECDBFDF91CF911F910F91FF90EF906B
S1132AE0DF90CF90BF90AF909F908F907F906F902A
S1132AF05F904F900895CF93DF93CFEFDFEFD093A4
S1132B006502C093640264E672E080E50E94DB061D
S1132B10D0936702C093660266E672E083E50E9482
S1132B20DB0610925002D0936302C0936202E2E784
S1132B30F2E01082118212821382148215821682AC
S1132B401782DF91CF910895EF92FF920F931F9315
S1132B50CF93DF93CDB7DEB728970FB6F894DEBFD7
S1132B600FBECDBF8B017A01833059F118F4813047
S1132B7041F073C0843009F46DC0863009F453C049
S1132B806CC0DB018D919C910E948701C8010E9459
S1132B904201E114F10431F0109244028E2D0E949E
S1132BA01D145BC02091610280EC93E0289FA0017A
S1132BB0299F500D1124662757FD6095762F82E0DA
S1132BC02FC0DB01ED91FC91BF016F5F7F4F8281CC
S1132BD08C708C3011F087E001C08DE0680F711D9E
S1132BE0CE0101960E94810EF801808191810E949C
S1132BF08701C8010E94420110929302E114F1047A
S1132C0021F0F9EEEF16F10431F40E947B15EF2860
S1132C1011F4D99A22C044EB54EC64E070E085E0EE
S1132C200E941C0A1AC08091A8039091A9030197DD
S1132C309093A9038093A803DB0119968C9192E0E9
S1132C40980F923010F00E949114F80180819181C4
S1132C500E948701C8010E94420128960FB6F89489
S1132C60DEBF0FBECDBFDF91CF911F910F91FF90BB
S1132C70EF9008950F931F93CF93DF938C01EB0193
S1132C80809153048E7F809353048091170188238D
S1132C9001F10E943403AE01B801F80180850E945D
S1132CA0A415CA3ED10539F089E0DF91CF911F9177
S1132CB00F910C945F01809117018823A9F30E945E
S1132CC034034AEE50E0BC01FC0180850E94A41547
S1132CD0F2CFDF91CF911F910F910895CF93C82F19
S1132CE089E00E94A401811134C080914B0390912A
S1132CF04C03009721F06C2F70E00E943A168091EB
S1132D004F0390915003009721F06C2F70E00E94C4
S1132D103A161092EE041092ED04109250031092A1
S1132D204F0310924C0310924B0380916A029091CE
S1132D306B02A0916C02B0916D0280935F0190933D
S1132D406001A0936101B09362010E94000880E0D9
S1132D5001C081E0CF910895EF92FF920F931F93EA
S1132D60CF93DF93CDB7DEB728970FB6F894DEBFC5
S1132D700FBECDBF8B017A01813041F120F082304A
S1132D8009F44CC04EC0DB01ED91FC9182818C7042
S1132D90883049F4878190E0982F88272681822BF8
S1132DA09A83898307C0BF016A5F7F4FCE01019672
S1132DB00E94810ED8011296ED91FC9113978FEF2A
S1132DC080838D919C910E94870128C0FB016081C2
S1132DD071816A5F7F4FCE0101960E94810ED801F6
S1132DE08D919C910E948701C8010E94420110921A
S1132DF09302E114F10421F0B9EEEB16F10431F47D
S1132E000E947B15EF2811F4D99A0BC044EB54ECC3
S1132E1064E070E085E00E941C0A03C0C8010E94BF
S1132E20420128960FB6F894DEBF0FBECDBFDF91E6
S1132E30CF911F910F91FF90EF90089580911A0107
S1132E40811105C080919502811106C008951092E8
S1132E501A018AE00C945F01109295020C940211FD
S1132E601F93CF93DF931F92CDB7DEB790910701E5
S1132E70993021F489830E94021189811FB7F89443
S1132E8090911E0191110BC091E090931E018093CB
S1132E90930182E00E945F011FBF80E017C0E82F0A
S1132EA0E695E695E695F0E0EC59FC4F9081877045
S1132EB021E030E001C0220F8A95EAF7892F8223AE
S1132EC019F4292B208301C085E01FBF0F90DF91E7
S1132ED0CF911F91089588E00C94301710924B0203
S1132EE010926A01E0911C01F0911D01309751F09C
S1132EF0118210828BE895E0938382838AE190E0CB
S1132F009583848381E080931B0182E0809367052D
S1132F1080E090E0A0E0B4E080932705909328053A
S1132F20A0932905B0932A0580EC93EFA0E0B0E0CC
S1132F308093960290939702A0939802B09399027B
S1132F40809164029091650290935B0380935A038D
S1132F501092450410922E0510925204109291057D
S1132F60109290051092490180E00C943017CF9391
S1132F70DF93EB018B3091F48C8D90E0982F8827B0
S1132F802B8D822B20916402309165028217930766
S1132F9029F40E946E178AEE0E946E16CE01DF910C
S1132FA0CF9108958F929F92AF92BF92CF92DF926A
S1132FB0EF92FF920F931F93CF9387E090E090934B
S1132FC01401809313010E941F0881E080936E0115
S1132FD00E94D90D0E94BD01823059F020F4811164
S1132FE0AEC084E007C0883091F0893009F481C014
S1132FF0A6C08DE0CF911F910F91FF90EF90DF90CD
S1133000CF90BF90AF909F908F900C945F01909160
S11330102A01892F8C7F816080932A01892F8370F4
S113302061F1833009F08BC040EC53E060E070E064
S11330300090690104C0440F551F661F771F0A944E
S1133040D2F740545C4F6F4F7F4FB2E0440F551F8F
S1133050661F771FBA95D1F776956795579547956B
S1133060CF911F910F91FF90EF90DF90CF90BF9081
S1133070AF909F908F900C94B50CC0902401D09089
S11330802501E0902601F090270184E1C80E81E03B
S1133090D81EE11CF11C8090980590909905A09091
S11330A09A05B0909B05CFB7F8940E94E400660F90
S11330B0771F881F991F681979098A099B098B0151
S11330C09C016C157D058E059F0510F49701860102
S11330D068017901C61AD70AE80AF90AB701A601F4
S11330E0769567955795479583E00E94B50CCFBFB9
S11330F026C080911A01811104C080919502882311
S113310079F040915F01509160016091610170918B
S11331106201769567955795479586E00E94B50CB0
S11331201092A005CF911F910F91FF90EF90DF9027
S1133130CF90BF90AF909F908F900C940211CF913D
S11331401F910F91FF90EF90DF90CF90BF90AF90C1
S11331509F908F900895CF9386E090E09093140110
S1133160809313010E94680B0E9470020E94E70C76
S1133170CFB7F89420915A0130915B0140915C01E2
S113318050915D0160914502709146028091470221
S1133190909148020E94CF07882319F00E94D21709
S11331A01FC020915A0130915B0140915C01509104
S11331B05D018091450290914602A0914702B09131
S11331C04802E0910A01E1110BC0E1E0E0930A0139
S11331D0BC01CD0160517109810991090E946809FE
S11331E0CFBFCF910895BF92CF92DF92EF92FF921B
S11331F00F931F93CF93DF9300D000D0CDB7DEB7EA
S1133200B82E6801790149835A836B837C830E94B9
S1133210BD0149815A816B817C81B81231C02FB7BD
S1133220F8948091130190911401049719F02FBF21
S113323081E027C085E090E090931401809313010E
S11332402FBF409345025093460260934702709308
S11332504802C0925A01D0925B01E0925C01F09264
S11332605D010E94B70F81110CC00E94020C8111F4
S113327003C00E94AB1802C00E948D0C80E001C004
S113328081EF0F900F900F900F90DF91CF911F91CE
S11332900F91FF90EF90DF90CF90BF9008950F9320
S11332A01F9380912A01837041F5809124019091AC
S11332B02501A0912601B091270184319105A10532
S11332C0B10528F044E150E060E070E002C0AC01D8
S11332D0BD018C019D01041B150B260B370B40917E
S11332E098055091990560919A0570919B0588E025
S11332F00E94F3181F910F91089588E01F910F9178
S11333000C94A8070F931F938091820290918302DB
S1133310029761F400E010E0980140E050E0BA0147
S113332082E00E94F3181F910F9108958EE01F917F
S11333300F910C945F018F92AF92BF92CF92DF9264
S1133340EF92FF920F931F93CF93DF93CDB7DEB726
S113335028970FB6F894DEBF0FBECDBFE0914504A9
S113336041E050E060E070E00E2E04C0440F551FB1
S1133370661F771F0A94D2F7F0912E05F11122C02F
S11333808091270590912805A0912905B0912A05DF
S11333908827987FB770EB3198F4882483948E0E35
S11333A08A019B01082319232A233B23012B022B87
S11333B0032B31F4440F551F661F771FE82DEBCF05
S11333C0E0934504809145048B3108F0B5C0F111B8
S11333D0B5C00E94EB1280916705813091F008F42A
S11333E070C0823021F0833009F07BC10AC000E054
S11333F010E0980140E050E0BA0180E00E94F31828
S113340070C100911C0110911D010E94BD01811128
S113341068C10115110509F464C1F8018081918125
S1133420892B09F45EC182819381892B19F48781E8
S1133430811157C1F80184819581892B09F451C107
S11334402681878190E0820F911D8E3791050CF0C3
S113345048C12FB7F89480911301909114010497F7
S113346011F02FBF3EC189E090E090931401809346
S113347013012FBF10934F0400934E041092450282
S113348010924602109247021092480210925A017A
S113349010925B0110925C0110925D0128960FB6A8
S11334A0F894DEBF0FBECDBFDF91CF911F910F9176
S11334B0FF90EF90DF90CF90BF90AF908F900C94DF
S11334C03B0D8091960290919702A0919802B09141
S11334D099024FB7F89420911301309114012330CD
S11334E0310519F02430310511F04FBFFAC023E043
S11334F030E030931401209313014FBF80936F0188
S113350090937001A0937101B09372018DEA80933E
S1133510490228960FB6F894DEBF0FBECDBFDF91E7
S1133520CF911F910F91FF90EF90DF90CF90BF90BC
S1133530AF908F900C948D0CFF2351F1809167050F
S11335408150823020F47695679557954795009180
S11335502705109128052091290530912A05DB01C2
S1133560CA0188279927AA27BC7F892B8A2B8B2BF2
S113357079F4DB01CA0180239123A223B323892B8D
S11335808A2B8B2B29F0440F551F661F771FE7CF1B
S1133590809167058150823068F480915A0390913C
S11335A05B03909365028093640264E672E080E5B5
S11335B00E94DB06E0911C01F0911D01309751F04F
S11335C0808191810E94870180911C0190911D014D
S11335D00E94420110921D0110921C0180E00E9481
S11335E0A401882319F080E00E94C10910921B01F4
S11335F080916A01882309F454C0809169059091EF
S11336006A05909365028093640264E672E080E543
S11336100E94DB0680916B0590916C059093630288
S113362080936202309174052091730581E090E0EB
S1133630A0E0B0E0022E04C0880F991FAA1FBB1F90
S11336400A94D2F78827987FB770892B8A2B8B2B03
S113365041F08091640290916502019611F0332348
S113366099F12091690530916A054091680560914E
S113367074058091730598E0EBE6F5E0DE011196A0
S113368001900D929A95E1F780906305A980BA8024
S1133690CB80DC80ED80FE800F8118850E941213A0
S11336A020C028960FB6F894DEBF0FBECDBFDF91C1
S11336B0CF911F910F91FF90EF90DF90CF90BF902B
S11336C0AF908F900C946E1781E080936B012093E0
S11336D0340580912A01806A80932A010E946B1725
S11336E0C0CF28960FB6F894DEBF0FBECDBFDF91D2
S11336F0CF911F910F91FF90EF90DF90CF90BF90EB
S1133700AF908F900895CF93DF9381E00E94A4013E
S1133710882309F4D0C081EF0E946E16809153046F
S113372082608093530480911701882351F00E9492
S1133730340341EF50E0BC01FC0180850E94A415D4
S1133740F2CF809153048D7F8093530480911B01A9
S1133750882329F081E080932E050E949B19809193
S11337602A01982F9C70983041F085FF0BC087FF89
S113377009C080916B01882329F00E946E178AEE9C
S11337800E946E1680912A0186FF03C08AEE0E9471
S11337906E1680912A018F7180932A0180E00E9425
S11337A0C200809180038D7F809380038FEF80938C
S11337B09D0510923E0210924402E9E2F4E08083F7
S11337C0349694E0E534F907D1F78FEF80939801AC
S11337D010923D02109293021092A9031092A80332
S11337E0809189038D7F80938903CCE4D1E0E991B2
S11337F0F991309731F041EF50E0BF0180850E948C
S1133800AC16E1E0CA35DE0791F7ECE4F1E0119281
S1133810119281E0EA35F807D1F7109297051092DA
S11338209605109258031092500410922F058FE2BF
S113383091E090939D0380939C0387E395E090939C
S1133840A1038093A0038FE295E090939F0380935C
S11338509E031092A3031092A40380911501882360
S113386029F00E946F040E944201F7CF10924B018D
S113387010924A0110922D0110922C01109289028B
S1133880109288021092590381E090E09093830291
S11338908093820280912B01811110922B0110924E
S11338A03B02809192038D7F8093920381E0DF91AC
S11338B0CF910C945F01DF91CF9108950F931F93E3
S11338C040915B0280911B01811104C01F910F91F3
S11338D00C94C10980916705823081F18330D1F164
S11338E0813009F092C0E0911C01F0911D01A0818A
S11338F0B18193E011969C93A081B18198E01296D6
S11339009C93A081B18113964C934F5F40935B02CB
S1133910A081B1819FEF14969C93A081B1811596EB
S11339209C93A081B18116969C93A081B181179636
S11339309C9397E0968390938B0587838FEF9FEFFB
S1133940909365028093640264E672E080E50E94CD
S1133950DB065BC05091610220EC33E0529FC00152
S1133960539F900D1124AA2797FDA095BA2F8093F9
S1133970960290939702A0939802B0939902E091D3
S11339801C01F0911D01A081B18183E411968C93F7
S1133990A081B18188EC12968C93A081B181139699
S11339A04C934F5F40935B02A081B1818FEF1496DB
S11339B08C93A081B18115968C93A081B1811696C8
S11339C08C93A081B18117968C9300915C03109124
S11339D05D0320915E0330915F0340916003509139
S11339E06103609162037091630380819181089601
S11339F00E940605E0911C01F0911D018FE0868371
S1133A0086E080938B0581E087831F910F910C944E
S1133A109B198F929F92AF92BF92CF92DF92EF92B7
S1133A20FF920F931F93CF9380912A018370833069
S1133A3051F400E010E0980140E050E0BA0188E061
S1133A400E94F31875C0811165C020912401309142
S1133A5025014091260150912701609198057091AC
S1133A60990580919A0590919B05645A714081094A
S1133A7091090E94CF07811140C080902401909049
S1133A802501A0902601B090270144EAC42EDD242C
S1133A90D394E12CF12C8091980590919905A091F3
S1133AA09A05B0919B05C81AD90AEA0AFB0ACFB74E
S1133AB0F8940E94E400660F771F881F991F6C0D0D
S1133AC07D1D8E1D9F1D6B017C01681579058A057E
S1133AD09B0510F47501640197018601061B170B01
S1133AE0280B390BB901A801769567955795479529
S1133AF083E00E94B50CCFBF1BC0CF911F910F91E3
S1133B00FF90EF90DF90CF90BF90AF909F908F90F9
S1133B100C944F1987E0CF911F910F91FF90EF9074
S1133B20DF90CF90BF90AF909F908F900C945F01E7
S1133B30CF911F910F91FF90EF90DF90CF90BF90A6
S1133B40AF909F908F900895CF92DF92EF92FF9263
S1133B50CF9380912A01982F9C7009F45CC0982F10
S1133B609370933009F45FC08C7F80932A01C0E086
S1133B7060ECC62E63E0D62EE12CF12C20912401BA
S1133B8030912501409126015091270160919805BB
S1133B907091990580919A0590919B050E94CF0799
S1133BA020914A03882349F1409169014F3008F07C
S1133BB04EE0D701C60104C0880F991FAA1FBB1F7E
S1133BC04A95D2F7AC01BD01809124019091250161
S1133BD0A0912601B0912701840F951FA61FB71F3E
S1133BE08093240190932501A0932601B09327018B
S1133BF02F5F20934A03C1E0C1CF243040F087E017
S1133C00CF91FF90EF90DF90CF900C945F01CC2385
S1133C1051F00E946B1788E0CF91FF90EF90DF90F6
S1133C20CF900C94C10988E00E94CA01882339F01E
S1133C30CF91FF90EF90DF90CF900C94091D88E016
S1133C40CF91FF90EF90DF90CF900C94A8078091D4
S1133C502A0185FF30C080916B01882311F088E030
S1133C6001C084E00E94C200809134050E94EB12DE
S1133C7020915902209369012F3008F02EE080EC46
S1133C8093E0A0E0B0E004C0880F991FAA1FBB1FF7
S1133C902A95D2F78093240190932501A0932601BD
S1133CA0B093270184E080934A0380912A018C7D9C
S1133CB0836080932A010C94A41D0F931F930E9488
S1133CC0BD018930B9F480911301909114010797D3
S1133CD089F089E00E94CA01882379F000E010E0AD
S1133CE0980140E050E0BA0189E00E94F31881E0B5
S1133CF090E005C083E090E002C080E090E01F9176
S1133D000F9108950E9470020E9498080E94F10F7A
S1133D1010926E010E94D90D84E090E090931401FA
S1133D20809313010E94BD01823081F028F488231E
S1133D3041F0813041F00895883051F0893051F0DC
S1133D4008950C94890480E00C945F010C9482190A
S1133D500C94091D1092A0050C9402110F931F934B
S1133D6010929A01283058F4263008F05EC02223BD
S1133D7049F0213009F068C081EE90E051C02B3049
S1133D80B9F162C01092950510929405DC01129667
S1133D90ED91FC9113972081243009F055C0ED91E9
S1133DA0FC9181818770833009F04EC08BEE90E0E6
S1133DB09093950580939405662309F445C081E0AA
S1133DC080931A0180914B0390914C03909350037C
S1133DD080934F0310924C0310924B0300E010E0C9
S1133DE0980140E050E0BA0189E00E94F31841C014
S1133DF08091A105882391F01092470390918A0540
S1133E00909346039091AB03909345039091940251
S1133E109093440381508093A10525C089EE90E0DE
S1133E2090939505809394050FC081E080939A0147
S1133E3050936801409367011092A00584E00E94AA
S1133E40B401811116C011C080914B0390914C03B1
S1133E509093500380934F0310924C0310924B03A2
S1133E608AE00E945F011092A0051F910F910C94AB
S1133E7002111F910F910895EF92FF920F931F93D8
S1133E80CF93DF9300D0CDB7DEB7E0901301F0906D
S1133E90140100914E0410914F040E9498080E944E
S1133EA0F10F10926E010E9470020E94D90D84E0FD
S1133EB090E090931401809313018FE0E816F104CD
S1133EC069F40E94BD01811129C000E010E098014D
S1133ED040E050E0BA010E94F31820C0E1E1EE1680
S1133EE0F104E1F420916401E0902B05F0902C059D
S1133EF060915E0129836A830E94BD0129816A81E0
S1133F00893061F4A701C8010F900F90DF91CF9120
S1133F101F910F91FF90EF900C94AE1E0F900F9095
S1133F20DF91CF911F910F91FF90EF9008958093AF
S1133F305E01609364010E940908811102C00C941F
S1133F408C070C943C1F8F929F92AF92BF92CF929A
S1133F50DF92EF92FF92CF93DF9380919C058823A9
S1133F6039F0C0912B05D0912C0510929C0518C0F6
S1133F70E0916C01F0916D01C0810E94E1032FEF8B
S1133F803FEF02C0220F331FCA95E2F72095309508
S1133F902623372384E1829FE001839FD00D1124DF
S1133FA00E94E4006B017C01BE0180E090E0CC0C37
S1133FB0DD1CEE1CFF1CC60ED71EE81EF91E8090E9
S1133FC0450290904602A0904702B0904802C8185B
S1133FD0D908EA08FB0880905A0190905B01A090F0
S1133FE05C01B0905D018C149D04AE04BF0438F4F0
S1133FF0C0914E04D0914F04209799F449C02EE00B
S113400030E03093140120931301DF91CF91FF909E
S1134010EF90DF90CF90BF90AF909F908F900C94D3
S11340202F0E10926E010E9470020E94D90D84E03E
S113403090E090931401809313010E94BD01893094
S113404039F5C701B601681979098A099B094B0139
S11340505C0124E1820E911CA11CB11C24E130E01E
S113406040E050E00E94A333861A970AA80AB90ACE
S113407027E0A40160E0CE01DF91CF91FF90EF90A3
S1134080DF90CF90BF90AF909F908F900C94AE1E16
S1134090DF91CF91FF90EF90DF90CF90BF90AF90E2
S11340A09F908F9008950F931F93CF93DF93EC010C
S11340B08B018091A20286FF31C18F7B8F3309F07F
S11340C0B7C1C091AC03D091AD0348814093910135
S11340D080918F01909190018430910579F118F4C9
S11340E0039749F00AC18530910509F45DC006972C
S11340F009F470C002C184E090E090939001809331
S11341008F0150E08091650190E04817590734F021
S1134110DF91CF911F910F910C94140EB79903C0A6
S11341200E9B0E94140E8091910184508E3880F76A
S1134130BE016F5F7F4F43E050E02EC08A819981BA
S113414093FDE6CF83FF04C082FD04C057E003C0A3
S113415053E001C05DE087FF07C096FF02C05E5FC9
S113416001C05C5F86FD5A5F50936301842F90E029
S11341700197252F30E02817390754F65330A1F062
S113418085E090E09093900180938F015350452FE8
S113419050E0BE016C5F7F4F80E090E0DF91CF91F3
S11341A01F910F910C94010920916301842F90E0D9
S11341B0821B9109893791050CF0AACF86E090E023
S11341C09093900180938F01421B50E0BE01665E84
S11341D07F4FE2CF0E94BC0080919E01811102C0FA
S11341E00E94E20D30916205C091AC03D091AD0301
S11341F020919101332349F12530C0F180918C0540
S113420090E0FC01EE0FFF1FEE0FFF1FEF5BFA4F74
S11342107081618152814381DE01AD56BF4F7C9331
S1134220DE01AE56BF4F6C93DE01AF56BF4F5C93B9
S1134230DE01A057BF4F4C93019687709927809356
S11342408C0531503093620511C08FEFDE01AD56FD
S1134250BF4F8C93DE01AE56BF4F8C93DE01AF5639
S1134260BF4F8C93DE01A057BF4F8C93E22FF0E039
S113427080916301E81BF109EC0FFD1F818D87FF1D
S113428036C0012BA1F189818770823029F5809194
S11342900C0190910D010697D9F4E0915403F0912B
S11342A055030190F081E02D93818B81981310C008
S11342B00E94BE00898121E030E030930D012093FB
S11342C00C0160E0829581700E94971F0E94470D47
S11342D080915103882359F080914D03811107C0C7
S11342E089E1DF91CF911F910F910C945F01DF91D0
S11342F0CF911F910F910C94E50D10923F020E94F3
S1134300BC000E94E20D80914D03882309F490C003
S1134310DF91CF911F910F910C94A9058E3309F071
S113432087C00E94BC00E0915403F0915503808142
S11343309181C817D90759F40E94B800E091540339
S1134340F091550380819181668101960DC001969B
S1134350C817D90779F40E94B800E0915403F0918A
S11343605503678182819381DF91CF911F910F91D2
S11343700C943E0983E090E090930D0180930C012E
S113438080911301909114018A30910509F444C07D
S11343908B30910509F446C0099709F049C08CE0B7
S11343A090E0909314018093130120915A0130916D
S11343B05B0140915C0150915D012115310541057E
S11343C0510579F48FE090E09093140180931301E8
S11343D080E00E943908DF91CF911F910F910C94D6
S11343E0E20F8091450290914602A0914702B0915C
S11343F04802E0910A01E1111BC0E2E0E0930A01E6
S1134400BC01CD016051710981099109DF91CF91FE
S11344101F910F910C946809DF91CF911F910F9117
S11344200C945D0EDF91CF911F910F910C94A31FFB
S1134430DF91CF911F910F9108954F925F926F92E8
S11344407F928F929F92AF92BF92CF92DF92EF9220
S1134450FF920F931F93CF93DF93CDB7DEB7689787
S11344600FB6F894DEBF0FBECDBFE6E6F3E020E062
S113447030E0108511FF05C2408051806280738056
S1134480C480D580E680F7804B015C0184189508D0
S1134490A608B7088C149D04AE04BF0408F4F1C147
S11344A010FF03C01D7F10870AC0D301C2018C0D09
S11344B09D1DAE1DBF1D80839183A283B3832330D2
S11344C009F452C028F4222351F0223089F0E0C1CB
S11344D0243009F4E1C0253009F425C1D9C180E0B4
S11344E00E94A401882309F4D3C10E94CC07D0C13F
S11344F080914402882309F4CBC180913E0282302A
S113450039F4909162028091630299838A8314C082
S1134510009172021091730220917402309175021D
S113452040917602509177026091780270917902FD
S1134530CE0101960E9406054091640250916502E5
S113454003E09E012F5F3F4F60913E0281E00E9495
S11345509914892B09F49CC180914402882309F49D
S113456097C10E947C1494C10E94E4002B013C0179
S1134570440C551C661C771C809159028F3070F4D2
S113458021E030E002C0220F331F8A95E2F7A0EC4D
S1134590B3E00E9489339B01AC0104C020EC33E0FA
S11345A040E050E0A0916802B09169020E94983303
S11345B06B017C010CE411E0812C912C5401D80195
S11345C0ED91FC91309709F44BC080919605909140
S11345D09705E817F90709F443C0848195810E947F
S11345E0A900A70196010E94CF07D801ED91FC9183
S11345F01197882321F180858F7780871D921C92E3
S113460090915803915090935803A081B1811296D0
S11346109C919C70983031F49091500491509093F7
S1134620500407C09C3029F490912F059150909329
S11346302F0540EF50E0BF010E94AC1611C08481E9
S113464095810E94A900A3019201261B370B480BF8
S1134650590B82169306A406B50610F449015A01B3
S11346600E5F1F4F31E00A35130709F0A8CF8114FC
S11346709104A104B10409F40BC1C814D904EA04D7
S1134680FB0410F446015701B701A6014819590962
S11346906A097B0983E0F2C080913B02811139C031
S11346A081E080933B028091210590912205A091A5
S11346B02305B091240540917C0250917D026091C4
S11346C07E0270917F02840F951FA61FB71F409131
S11346D08F025091900260919102709192024093E6
S11346E08A0350938B0360938C0370938D038093A0
S11346F08E0390938F03A0939003B09391038091C2
S1134700920381608260809392038BE10E945F0137
S113471007C010923B0280912B01811110922B0152
S11347200E940211B5C08091690590916A051091AB
S1134730680528E0EBE6F5E0DE01519601900D9264
S11347402A95E1F728E0FE017196DE0119960190A1
S11347500D922A95E1F720916402309165022817A1
S1134760390709F0DDC08EEF810F823008F0D8C020
S11347708091930281110DC00E9404014C010097A5
S113478041F00E9423013C01009731F4C4010E94CE
S1134790420101EF10E06BC0D40111969C938E93FB
S11347A04A9615969C938E93149780915C03898303
S11347B080915D038A8380915E038B8380915F0384
S11347C08C83809160038D83809161038E838091BB
S11347D062038F83809163038887409164025091C0
S11347E06502AA24A394FE0131966F017A0103E0C5
S11347F09E01275F3F4F612FC30101960E9431053F
S1134800D40116968C931697ED91FC91119783E63B
S11348108183ED91FC91123009F080C088EC828391
S113482083E08093980122E02093990188E991E044
S1134830D40113969C938E93129717962C9381E030
S1134840809393021230F1F529853A8580916202B2
S1134850909163022817390709F050C0B40183E02E
S11348600E946407009709F04FC000E010E0012B9C
S113487079F044EB54EC64E070E085E00E941C0A9B
S113488007C02F5F3F4F39962630310509F0F1CD2F
S11348908BE10E945F0168960FB6F894DEBF0FBEED
S11348A0CDBFDF91CF911F910F91FF90EF90DF90DB
S11348B0CF90BF90AF909F908F907F906F905F90BC
S11348C04F90089529853A854B855C856D857E8555
S11348D0A0907202B0907302C0907402D0907502DE
S11348E0E0907602F09077020091780210917902BC
S11348F08F8598890E94143409F4B0CF82E0F401C2
S1134900808701EF10E001C08C0110929302C40172
S11349100E944201C3010E948701A9CF8CEC7FCF82
S113492008EE10E0A4CF2F923F924F925F926F92C5
S11349307F928F929F92AF92BF92CF92DF92EF922B
S1134940FF920F931F93CF93DF93CDB7DEB72A97D0
S11349500FB6F894DEBF0FBECDBF90E08C31910549
S113496010F00C94732DFC01E15BFF4F0C94C533E4
S11349702FB7F8948091130190911401009711F4CA
S11349802FBF19C5049709F0BCC481E090E018C09A
S11349908091A90581508093A905882311F081E0B5
S11349A03FC02FB7F8948091130190911401843083
S11349B0910509F4A6C4892B09F0A3C482E090E010
S11349C090931401809313012FBF0E948D0C0C94BB
S11349D0732D8FB7F894909193019093070192E00F
S11349E090931E018FBF80910701813089F038F0C8
S11349F08230D1F0883009F425C20C94732D80E004
S1134A000E94CA01811165C00E94CC070C94732DC9
S1134A1081E00E94A807882311F40C94732D80E090
S1134A200E945F010C94732D9FB7F89481E08093EA
S1134A30E70410929D0180935103109281029FBF5D
S1134A4082E00E94CA01882321F00E9482190C94FA
S1134A50732D82E00E94A8070C94732D8091960513
S1134A6090919705892B11F00C94732D8091580324
S1134A70882311F40C94732DECE4F1E0A191B1912D
S1134A80109781F018968C91189787FF0BC080932C
S1134A902E0187E018968C93109297051092960534
S1134AA083E0BECF21E0EA35F20741F70C94732D81
S1134AB040919602509197026091980270919902E8
S1134AC080E00E941C0A0C94732D0E949B190C9484
S1134AD0732D0E945E1C0C94732D10912A0114FFF7
S1134AE00EC0809104019091050180579F4F0E9450
S1134AF0A9006F3F7F4F8F4F9F4F09F4CEC780911E
S1134B002A018C70843019F480E00E94C2008091E4
S1134B102A018F7B80932A010E946B1780912A01BE
S1134B2084FD46C08F7E80932A0180914A038F5F63
S1134B3080934A03809169018F3008F08EE040EC45
S1134B4053E060E070E004C0440F551F661F771FF8
S1134B508A95D2F78091240190912501A091260194
S1134B60B0912701840F951FA61FB71F80932401BE
S1134B7090932501A0932601B093270116FF03C04B
S1134B808AEE0E946E1680912A0187FF0FC09091D1
S1134B904A03943058F08F7780932A0180E00E9472
S1134BA0C2000E946E178AEE0E946E1688E03DC213
S1134BB08090040190900501F0904B02D4015C9622
S1134BC00C910770C4010E948C0F8A87F401108134
S1134BD0C40180579F4F0E94A90010924A0300937A
S1134BE09F05002329F0402F440F400F4E5F01C062
S1134BF041E0609398057093990580939A0590938A
S1134C009B05D4015B968C915B978F708F5F80932B
S1134C102D055A962C9122952F708CE390E0A0E0FC
S1134C20B0E004C0880F991FAA1FBB1F2A95D2F7B2
S1134C308093940190939501A0939601B09397016A
S1134C4050E0B401645E7F4F82E194E00E941D3421
S1134C50F401838D84FF1FC01F77812F90E0059698
S1134C60880F991F133110F0889601C00C96909309
S1134C703605809335052091570280913505909132
S1134C803605F4E12F9F800D911D11249093360574
S1134C908093350504C01092360510923505D40171
S1134CA011968C9111978295817080938E055A96F6
S1134CB02C912F70209369012F3009F42EE080ECA1
S1134CC093E0A0E0B0E004C0880F991FAA1FBB1FA7
S1134CD02A95D2F78093240190932501A09326016D
S1134CE0B093270169E088E00E941C10FF2009F4BA
S1134CF099C0E0910401F09105013F01BAE16B0E06
S1134D00711C848D877029F0282F220F280F2C5FA7
S1134D1001C023E030E0D301A20FB31F7C91409186
S1134D206602509167028181877009F078C060E063
S1134D30872F8770482E512C2F5F3F4FE62FF0E0CE
S1134D40E415F50594F4EE0FFF1FE20FF31FE60DD3
S1134D50F71D818190E0982F8827E0818E2B84179E
S1134D60950709F443C06F5FE9CF7077272E312C84
S1134D70F4E035942794FA95E1F7440C551C420E5F
S1134D80531E1986F9856F2F70E0621573050CF0B8
S1134D9046C0E3E0660F771FEA95E1F7640D751DE1
S1134DA0660D771DCE0101960E94810E29813A81FC
S1134DB04B815C816D817E81A0905C03B0905D032A
S1134DC0C0905E03D0905F03E0906003F0906103B5
S1134DD000916203109163038F8198850E941434BB
S1134DE009F47DC6E985EF5FE987CCCF02E0D40101
S1134DF012968C91807C803809F473C663E0940128
S1134E002A5F3F4FD40115964C91159750E0542FCB
S1134E10442714968C91482B80E00E949914BA85FB
S1134E20BB2351F080910401909105010E94620F0F
S1134E30909305018093040180912A018F7E8093D1
S1134E402A0151C60E94271E4EC68091530480FD3C
S1134E504AC680911701882309F445C6E0911901D7
S1134E60F0E0EE0FFF1FE75EFA4FE080F180F701FC
S1134E708681811108C00E943403C7010E94420147
S1134E8089E00E945F01D70118968C91189780934E
S1134E904E0320915304822F8160809353048091A8
S1134EA04B0390914C03892B09F0FCC580915B0264
S1134EB0ED91FC9183838F5F80935B021092470393
S1134EC080915C0280938A058093460380915F02FF
S1134ED08093AB038093450380915D0280934403E8
S1134EE090914C02992329F0833018F082E080934A
S1134EF044038091440380939402809160028093E0
S1134F00A105F7018681478150E0480F511D495F93
S1134F105F4F440F551F662757FD6095762F4093CA
S1134F200E0450930F0460931004709311040190C5
S1134F30F081E02D818185FF0CC04A5C5F4F6F4F8B
S1134F407F4F40930E0450930F04609310047093AA
S1134F50110440916A0250916B0260916C0270914D
S1134F606D0240935F0150936001609361017093FF
S1134F706201F0924C03E0924B0380912A01982F36
S1134F809C70983041F1806480932A010E946B17D1
S1134F9080912A0185FD1FC090915302909334059E
S1134FA010926B01806280932A0115C080914F0397
S1134FB090915003609194057091950510921A0197
S1134FC01092500310924F03009729F00E943A1652
S1134FD002C01092A0050E94021185C580913B0277
S1134FE0882309F480C580912B01882309F47BC5AB
S1134FF010922B0178C583E090E090938302809314
S1135000820271C59FB7F89481E08093E70480938E
S11350109D0110925103809381029FBF81E090E033
S1135020909383028093820282E00E94C1095BC54F
S113503080915903882309F456C580914A019091BF
S11350404B0120918802309189028217930729F439
S1135050109289021092880225C020912C0130916F
S11350602D0182179307F1F40E946F0480911501BA
S1135070811105C010922D0110922C010DC0E091F8
S11350801601F0E0EE0FFF1FE45CFC4F808191817C
S113509090932D0180932C0180914A0190914B01B2
S11350A00E944201109259031EC5CE0101960E942E
S11350B0440A811107C0898190914902981714F418
S11350C08093490220916F013091700140917101E8
S11350D050917201609130057091310580913205D3
S11350E0909133050E94CF07882309F42EC1809143
S11350F049028D52809349020E9498080E94F10F40
S11351000E94D90D84E090E09093140180931301E0
S11351109091490280914901882369F0E0919005BA
S1135120F09191058091520421E0280F20935204BC
S1135130E80FF11D908390915204809149019813D6
S113514003C081E080932E050E94CC07893009F0CA
S1135150CAC40E948904C7C48FB7F8949091EF041D
S11351608FBF8FB7F89421E02093E7049093EF0466
S11351708FBF0E94680B0E94D90D84E090E0909349
S113518014018093130181E00E94A401882309F48F
S1135190AAC48091AA0381110E94950463E572E078
S11351A080E00E94DB0666E672E083E50E94DB068F
S11351B064E672E080E50E94DB0665E572E083E068
S11351C00E94DB0664E572E082E00E94DB0662E591
S11351D072E080EF0E94DB0681E00E94C1090E9418
S11351E06E1781C480911301909114018830910548
S11351F031F008F478C40F97039738F074C480E052
S11352000E94020C8111E1CBD9C00E9409088111CE
S1135210A4C080E00E94020C882309F49EC0D5CB70
S113522080E00E94020C81110FC00E94680B8091E3
S1135230130190911401079721F40E9498080E9489
S11352401F080E94D90D4FC483E1EACB8FB7F894AD
S113525090911001992311F08FBF45C48FBF10B3F3
S113526016FB112710F98091A0029091A1029817C2
S113527021F1181322C084E090E0909312018093EE
S113528011018FB7F89491E0909310018FBF0E94A1
S1135290BC000E94B80060E070E08DE10E947C0ACE
S11352A00E94FA0A0E94BC000E9498080E94F10F12
S11352B010926E0181E10E945F011093A10284E1CA
S11352C0AFCB9FB7F894809103019FBF882321F04F
S11352D0813009F476C007C4E0911301F091140100
S11352E03197E131F10508F0FEC3E559FF4F0C9405
S11352F0C5332FB7F8948091110190911201892B35
S113530011F02FBFF0C381E090E0909312018093DD
S113531011012FBFDD9A44E150E060E070E080E0CD
S11353200E94B50CE0C30E94680B0E941F080E94F3
S1135330E400660F771F881F991F609330057093F0
S11353403105809332059093330580E169CB0E9447
S1135350AB18C9C30E94020DC6C30E943C1FC3C33D
S11353600E9498080E94F10F1FB7F89480911101D0
S113537090911201049779F482E090E090931201E5
S1135380809311010E94BC000E94B80087E00E9433
S113539018080E94BC001FBF109212011092110144
S11353A0DE98DD98DE9A10926E010E94D90D10925B
S11353B01401109213010E94831B95C30E94821E44
S11353C092C31FB7F89480918F0190919001892B1B
S11353D0F9F00E941B091CC01FB7F8946091A60342
S11353E07091A70380919205909193051092A70361
S11353F01092A6031092930510929205109229011F
S11354001092280110925303109252030E945320C9
S11354101FBF69C38FB7F89490919F0190930001C7
S113542092E090930E018FBF8091000181115BC3C4
S11354300E94BA000E94B80085E1F2CA0E94E20DFF
S11354408FB7F8941092900110928F018FBF82E170
S1135450E7CAE091AC03F091AD0320812250809122
S11354606301281B8FB7F8948FBF8090AC03909092
S1135470AD03822F90E0D401A80FB91F5B963C9135
S11354803F77D4013C93A80FB91F5A968C91DF0142
S1135490AC56BF4F8C93D4018C91EB56FF4F808355
S11354A02C938091130190911401079709F02EC257
S11354B012968C91807390E041973CF08091820227
S11354C090918302039709F021C2F401818183FF43
S11354D007C08091820290918302039709F016C25B
S11354E00E94BD01823009F4F5C018F4882341F00C
S11354F00DC2883009F4FAC0893009F44EC106C2DD
S113550080911B01882309F401C2809167058330CF
S113551009F055C0809152048111F8C1D40111964B
S11355208C9111978770833009F0F0C15A968C9151
S11355305A97883009F0EAC15C968C915C9790E0A8
S1135540982F88275B962C91822B909365028093E9
S1135550640264E672E080E50E94DB06F401868D55
S113556090E0982F8827258D822B90936302809357
S11355706202878D0E94EB12D40191968C919197CF
S113558090E0982F882790962C91822B9093670215
S11355908093660266E672E083E50E94DB068091F2
S11355A052048F5F8093520481E080932E05809192
S11355B06E038D7F80936E030E94CC07A7C1F40114
S11355C08181877009F0A2C180914B02882309F47C
S11355D07CC08091520490914901891758F081E070
S11355E080932E0580916E038D7F80936E030E94BD
S11355F0CC0765C02091900530919105F2E28F9F10
S1135600200D311D112440E060914504C4010E9425
S1135610E70E811154C0E0919005F09191057090CE
S11356205204DF0122E2729EA00DB11D1124612CEF
S1135630671409F441C02181328111968D919C91A6
S1135640129728173907A9F580819C91891331C0D5
S1135650823051F42381348113968D919C91149757
S11356602817390731F52BC0833019F5238134818C
S113567045815681678170851396AC901397149673
S1135680BC9014971596CC9015971696DC901697A7
S11356901796EC9017971896FC90189719960C91FA
S11356A019971A961C911A97818592850E94143431
S11356B031F06394B296BCCF639460925204C401F7
S11356C00E948C0F882309F421C1C4010E94620F37
S11356D04C011CC18091820290918302039709F0CE
S11356E015C1D4018C9180688C9310C180912A01DA
S11356F084FD0CC1F4018181877009F007C18281A6
S1135700482F407C09F402C18C7009F0FFC08581E8
S113571090E0982F88272481822B20916402309175
S113572065028217930709F0F1C0403879F4878144
S113573090E0982F88272681822B20916202309155
S113574063028217930709F0E1C0B0C1403C09F03D
S1135750ADC1B4016A5F7F4FCE0101960E94810EF4
S113576029813A814B815C816D817E81A090720296
S1135770B0907302C0907402D0907502E0907602EB
S1135780F090770200917802109179028F819885C8
S11357900E94143409F48AC1B9C0D40111961C9131
S11357A011971770133019F45A961C911D5F0FB797
S11357B0F89480911A01811105C080919502882383
S11357C009F49EC086E00E94A000109295051092F4
S11357D0940580911A01882309F48AC0E0904F034C
S11357E0F0905003113019F0153081F086C0E114A7
S11357F0F10409F482C0F70181858F3F11F00E9402
S113580091148EEFD70119968C9377C0F401948D7F
S1135810238D158D80914402882309F46EC08091F4
S113582080038D7F8093800310924402111151C034
S113583030E0392B309367022093660266E672E00B
S113584083E50E94DB0620916202309163022F3FC0
S11358503F4F09F449C0D40112962C91822F8295AE
S1135860869586958370833009F03EC0B4016F5FDE
S11358707F4F822F8C70883021F08C3021F093E0A0
S113588003C097E001C09DE0F401818186FF01C05F
S113589023FF9E5F690F711DCE0101960E94810E48
S11358A08981809372028A81809373028B818093B1
S11358B074028C81809375028D81809376028E812F
S11358C0809377028F818093780288858093790210
S11358D00BC02FEF3FEF309365022093640264E620
S11358E072E080E50E94DB06812F0E941D1405C032
S11358F0B401812F0E94B7174C010E941E1705C0E6
S1135900B401812F0E94B7174C010FBF9092AD03D1
S11359108092AC038FB7F89410923F028FBF0E941D
S1135920E50DE1C080919B0181113CC0C0903D0513
S1135930D0903E05E0903F05F09040058FE00E9436
S11359401A032B013C01C0923D05D0923E05E09222
S11359503F05F092400510929B01BFB6F8940E9457
S1135960E4006419750986099709660F771F881F73
S1135970991F8B019C016C157D058E059F0510F404
S11359809701860168017901C61AD70AE80AF90A5B
S1135990B701A60176956795579547958FE00E94C4
S11359A0B50CBFBE0E94E400660F771F881F991FC5
S11359B040C00E94E4006B017C01CC0CDD1CEE1C99
S11359C0FF1C8FE00E94A000E6E6F3E020E0442400
S11359D04A94542C642C9FE7792E808581FF1AC049
S11359E080819181A281B381B701A601481B590B23
S11359F06A0B7B0B84819581A681B781841B950BEF
S1135A00A60BB70B84159505A605B7051CF42C0148
S1135A103D0121E0399633E0EC39F307F1F6222316
S1135A2009F461C014141504160417042CF0C701FA
S1135A30B6010E941D2257C040923D0550923E057A
S1135A4060923F057092400581E080939B013FB6D0
S1135A50F8940E94E400660F771F881F991F6C1941
S1135A607D098E099F098B019C01641575058605C6
S1135A70970510F49301820168017901C61AD70AC7
S1135A80E80AF90AB701A6017695679557954795EF
S1135A908FE00E94B50C3FBE26C0812F8F7E80937D
S1135AA02A012DC82E7F209353041DC000910401A8
S1135AB01091050180912A01982F906190932A01F9
S1135AC090920501809204018370813031F483E067
S1135AD00E94A00088E00E94A807480117CF03E0B5
S1135AE086C962E08CC92A960FB6F894DEBF0FBE51
S1135AF0CDBFDF91CF911F910F91FF90EF90DF9079
S1135B00CF90BF90AF909F908F907F906F905F9059
S1135B104F903F902F9008958FB7F89408958FBFBA
S1135B2008951F920F920FB60F9211240BB60F9285
S1135B302F933F934F935F936F937F938F939F9391
S1135B40AF93BF93EF93FF930E94DE00FF91EF9119
S1135B50BF91AF919F918F917F916F915F914F9181
S1135B603F912F910F900BBE0F900FBE0F901F907F
S1135B7018951F920F920FB60F9211240BB60F9225
S1135B802F933F934F935F936F937F938F939F9341
S1135B90AF93BF93EF93FF930E94DE00FF91EF91C9
S1135BA0BF91AF919F918F917F916F915F914F9131
S1135BB03F912F910F900BBE0F900FBE0F901F902F
S1135BC0189578941F920F920FB60F9211240BB66A
S1135BD00F922F933F934F935F936F937F938F9382
S1135BE09F93AF93BF93CF93EF93FF930E94BE0015
S1135BF07894CFB7F89480918B0290918C02A09105
S1135C008D02B0918E02892B8A2B8B2B51F58091BA
S1135C100C0190910D018430910528F18630910595
S1135C2050F0069701F581E090E090930D01809388
S1135C300C016BE010C00E94BC000E94B80089E017
S1135C400E9418080E94BC0081E090E090930D012E
S1135C5080930C0167E080E00E94971F0E94470D2B
S1135C6002C00E944E03CFBFFF91EF91CF91BF912D
S1135C70AF919F918F917F916F915F914F913F91E0
S1135C802F910F900BBE0F900FBE0F901F90189581
S1135C9078941F920F920FB60F9211240BB60F92A5
S1135CA0AF92BF92CF92DF92EF92FF920F931F9326
S1135CB02F933F934F935F936F937F938F939F9310
S1135CC0AF93BF93CF93DF93EF93FF9387B7877F10
S1135CD087BF7894BFB6F8948091A0019091A101F8
S1135CE0A091A201B091A301892B8A2B8B2B09F0DF
