:100000000C9480000C94BB2F0C94C52F0C94CF2F14
:100010000C94D92F0C94E32F0C94ED2F0C94F72F04
:100020000C942B300C949F000C949F000C94902EF9
:100030000C94872C0C94EE2C0C949E2F0C94372C43
:100040000C945F2C0C9435300C949F000C949F0002
:100050000C949F000C949F000C949F000C949F00A4
:100060000C94872D0C949F000C949F000C949F007F
:100070000C949F000C949F000C949F000C949F0084
:100080000C949F000C949F000C949F009C13A7134A
:10009000CB135B145E146114641467146A14EB23AD
:1000A000FB231C245C249224B924BC24BF241B2CD5
:1000B00018251B254C256025AA25B725BE25D42546
:1000C0001E26752601271F2735277027FC2719288C
:1000D0002D283828582B9F2BBF278827A2271B2C79
:1000E000B6271B2C1B2CED27B927B927B9271B2CAA
:1000F0001B2C1B2CBC27BC27BC2700081C18141069
:1001000011241FBECFEFD0E1DEBFCDBF11E0A0E0D4
:10011000B1E0EAE4F5E600E00BBF02C007900D9203
:10012000A830B107D9F715E0A8E0B1E001C01D92F1
:10013000A53BB107E1F70E949C300C94A3320C94CC
:1001400000009FB7F894E82FF0E0EE50FB4F1082CC
:100150009FBF0895FC0120816181862F90E0A0E07F
:10016000B0E077276627922B2381622B2281722BA6
:100170000895C0980895B89A0895C09A089587B7C9
:100180008F7E87BF0895809196058F3F71F0E82F8D
:10019000F0E0EE57FE4F9081909396059F3F11F44B
:1001A0009093AC059FEF908308958FEF089583B7E8
:1001B00083BF00B600FCFDCF08950F931F938FB748
:1001C000F89460917103709172030CB51DB506B679
:1001D00002FE04C06F5F7F4F0CB51DB58FBFCB0112
:1001E000A0E0B0E07727662720E030E0602B712B9D
:1001F000822B932B1F910F9108959FB7F894E82FAE
:10020000F0E0EE57FE4F20812F3FC9F421E030E0AF
:10021000E091AC05E81711F020E030E0232B79F4F1
:10022000209196052F3F19F48093960504C0F0E0C5
:10023000EE57FE4F80838093AC0580E001C085E0DF
:100240009FBF08958CE10C94FD008BE10C94FD00A0
:100250009FB7F89420910501281307C080911D01D4
:10026000823019F49FBF81E008959FBF80E0089518
:100270009FB7F894E82FF0E0EE50FB4F80819FBFCE
:1002800008959FB7F89480911D01823019F09FBFA7
:100290008FEF0895809105019FBF0895CF93C82FD8
:1002A0000E944101C8130AC081E0209111013091E0
:1002B00012012430310519F080E001C085E0CF91B2
:1002C00008958091A4029091A50290935603809383
:1002D0005503E0EAF2E086819781A085B18580939D
:1002E0004B0390934C03A0934D03B0934E03808136
:1002F0009181A281B38180933E0490933F04A093A7
:100300004004B09341040895CF92DF92EF92FF92A0
:100310000F931F930E94DD00C0902601D09027010B
:10032000E0902801F09029010091AE011091AF01F9
:100330002091B0013091B1010C0D1D1D2E1D3F1DEE
:100340006C157D058E059F0530F00C151D052E05DD
:100350003F0558F005C00C151D052E053F0590F50D
:10036000601771078207930768F568017901C61A5B
:10037000D70AE80AF90A41E0C41640E8D406E104C5
:10038000F10418F18B019C0110582F4F3F4F00933F
:10039000260110932701209328013093290197010A
:1003A00086011058210931090093AE011093AF0165
:1003B0002093B0013093B101C12C50E8D52EE12C2F
:1003C000F12C13C0C12CD12C76010093260110937F
:1003D000270120932801309329011092AE01109239
:1003E000AF011092B0011092B1014CB55DB54D5FF7
:1003F0005F4F9A01261B370B2C153D0518F4AB01F6
:100400004C0D5D1D4115510511F441E050E0415086
:10041000510959BD48BD88E086BF87B7886087BF4E
:100420001F910F91FF90EF90DF90CF900895CF93A1
:10043000CFB7F89410920B0110920A010E94BF00EE
:1004400087B78F7D87BF0E94BD00CFBF80E0CF916F
:100450000895CF92DF92EF92FF920F931F930E9425
:10046000DD00C0900805D0900905E0900A05F090E5
:100470000B050091BD011091BE012091BF0130918B
:10048000C0010C0D1D1D2E1D3F1D6C157D058E051B
:100490009F0530F00C151D052E053F0558F005C0D1
:1004A0000C151D052E053F0590F560177107820795
:1004B000930768F568017901C61AD70AE80AF90AAC
:1004C00041E0C41640E8D406E104F10418F18B01C0
:1004D0009C0110582F4F3F4F0093080510930905BA
:1004E00020930A0530930B059701860110582109C6
:1004F00031090093BD011093BE012093BF013093D9
:10050000C001C12CE0E8DE2EE12CF12C13C0C12C7F
:10051000D12C7601009308051093090520930A0554
:1005200030930B051092BD011092BE011092BF01D5
:100530001092C0014CB55DB54D5F5F4F9A01261B0F
:10054000370B2C153D0518F4AB014C0D5D1D411505
:10055000510511F441E050E04150510950937900A8
:100560004093780081E080937C0080917D008160E1
:1005700080937D001F910F91FF90EF90DF90CF90BF
:10058000089540914F034330B8F450919D05242FB6
:1005900030E0250F311D2330310510F02350310993
:1005A000F901EE0FFF1FE355FA4F918380834F5FF0
:1005B00040934F0380E0089581E0089540915003F7
:1005C0004430B8F450918902242F30E0250F311DBA
:1005D0002430310510F024503109F901EE0FFF1FCE
:1005E000E05AFB4F918380834F5F4093500380E03C
:1005F000089581E00895309150033323C1F0209194
:100600008902E22FF0E0EE0FFF1FE05AFB4F8081DE
:100610009181118210823150309350032F5F24302A
:1006200019F020938902089510928902089580E0BC
:1006300090E0089530914F033323C1F020919D0540
:10064000E22FF0E0EE0FFF1FE355FA4F808191811A
:1006500011821082315030934F032F5F233019F0F5
:1006600020939D05089510929D05089580E090E0E7
:1006700008950F931F934FB7F89498E0899FF00166
:100680001124EE58FB4F648175818681978100812A
:10069000118122813381600F711F821F931F4FBF11
:1006A0001F910F9108952091610131E0320F2431A3
:1006B00019F0309361010895109261013FB7F894E9
:1006C0002BB342E024272BBB3FBF0895CF92DF928C
:1006D000EF92FF920F931F930E94DD00C09099024A
:1006E000D0909A02E0909B02F0909C0200918A02C6
:1006F00010918B0220918C0230918D020C0D1D1DEA
:100700002E1D3F1D6C157D058E059F0530F00C15C7
:100710001D052E053F0558F005C00C151D052E05BD
:100720003F0590F5601771078207930768F5680128
:100730007901C61AD70AE80AF90A41E0C41640E866
:10074000D406E104F10418F18B019C0110582F4FDD
:100750003F4F0093990210939A0220939B0230938B
:100760009C029701860110582109310900938A02E1
:1007700010938B0220938C0230938D02C12C20E8C1
:10078000D22EE12CF12C13C0C12CD12C7601009378
:10079000990210939A0220939B0230939C0210922C
:1007A0008A0210928B0210928C0210928D024CB52C
:1007B0005DB54D5F5F4F9A01261B370B2C153D052C
:1007C00018F4AB014C0D5D1D4115510511F441E0CC
:1007D00050E0415051095BBD4ABD80E186BF87B7FB
:1007E000806187BF1F910F91FF90EF90DF90CF90B6
:1007F00008952F923F924F925F926F927F928F92C5
:100800009F92AF92BF92CF92DF92EF92FF920F939F
:100810001F93EFB7F8948091820290918302A09188
:100820008402B09185021C012D019C01A20160E0AF
:1008300070E080E090E003E00E94413251016201EB
:10084000E12CF12C00E010E00E94813259016A0194
:100850007B01F82F192F03E00E9441320F2F0E94D5
:10086000813259016A017B01F82F192F03E00E94A0
:1008700041320F2F0E94813259016A017B01F82F0A
:10088000192F03E00E9441320F2F0E94813259013B
:100890006A017B01F82F192F03E00E9441320F2FCC
:1008A0000E94813201E00E94413229013A0100E2B6
:1008B0000E945C3249015A01C301B20196958795A5
:1008C00077956795680D791D8A1D9B1D97FF05C05B
:1008D0009F776F5F7F4F8F4F9F4F60938202709320
:1008E00083028093840290938502EFBF1F910F9142
:1008F000FF90EF90DF90CF90BF90AF909F908F9040
:100900007F906F905F904F903F902F90089530911F
:100910001701E32FF0E0EE0FFF1FE25FFA4F808137
:10092000918120911501222359F03F5F343019F055
:100930003093170102C01092170121502093150126
:10094000089530911401E32FF0E0EE0FFF1FED5BEF
:10095000FC4F8081918120911301222359F03F5F48
:10096000343019F03093140102C010921401215058
:1009700020931301089580915F04811102C086E0E5
:1009800004C08F5F80935F0485E00C94FD00FF92AC
:100990000F931F93CF93DF938AE180934F0280E8F8
:1009A0008093500213E01093510210925202109261
:1009B0004C0210924602FF24F394F09247021092E8
:1009C000480286E080935302109254020FE0009395
:1009D000550210926A0210926B0210926C021092F1
:1009E0006D020E94F90360935602CFEFDFEFD093C0
:1009F0005F02C0935E020E94F90360935702F09277
:100A0000490285E080935B0284E080935802109352
:100A10005C0210935902D0936102C093600210925D
:100A20004A0280E280935D0210924B0210924D02C6
:100A3000D0936302C093620200935A0284EF91E064
:100A4000909365028093640210924E0282EC97E0CC
:100A5000A0E0B0E08093660290936702A0936802E2
:100A6000B0936902DF91CF911F910F91FF9008958C
:100A700063FF04C062FD04C097E003C093E001C0BF
:100A80009DE067FF07C086FF02C09E5F01C09C5FBC
:100A900066FD9A5FFA01908380E008958091620379
:100AA000882349F0109262031092A00110929F01D6
:100AB00089E10C94FD0008959FB7F8948091880215
:100AC0008160809388029FBF0895813419F08D342E
:100AD00019F008950C945C059FB7F89480918802F2
:100AE0008260809388029FBF08954F925F926F92B9
:100AF0007F928F929F92AF92BF92CF92DF92EF92AE
:100B0000FF920F931F93CF93DF930E94DD00C2EFFC
:100B1000D4E040E044244A94542C3201E2E7F4E06B
:100B200029912223C1F180809180A280B3806B0142
:100B30007C01C818D908EA08FB08048115812681C0
:100B40003781C016D106E206F30668F0080D191DBC
:100B50002A1D3B1D00831183228333831482158257
:100B6000168217820CC060837183828393830C1971
:100B70001D092E093F0904831583268337830481C9
:100B8000158126813781401651066206730618F0DA
:100B90002801390141E0389624E0E23FF20709F0EC
:100BA000BFCF442341F177FE04C0769467945794F5
:100BB00047946093260170932701809328019093B6
:100BC00029014092AE015092AF016092B001709243
:100BD000B101DF91CF911F910F91FF90EF90DF90C6
:100BE000CF90BF90AF909F908F907F906F905F90CD
:100BF0004F900C94840187B7877F87BFDF91CF9197
:100C00001F910F91FF90EF90DF90CF90BF90AF902A
:100C10009F908F907F906F905F904F9008959FB7B7
:100C2000F894809188028460809388029FBF089521
:100C30006F927F928F929F92AF92BF92CF92DF92EC
:100C4000EF92FF920F931F93CF93DF93D090B70152
:100C5000CFB6F8948091B305813011F4CFBE71C145
:100C6000A0908802A2FEB6C0E3E5F1E0912C68EF07
:100C7000C191D1912097C1F10990D881C02D8A816D
:100C80008C708C3089F5269689E092E070E010E057
:100C9000191599F0783081F1AE019C0170E0DA010C
:100CA000FD90AD01D9010D919D01F01203C07F5F50
:100CB0007830A9F71F5F0897EBCF7830E9F093946D
:100CC000492D64039001112480E090E02A533E4FA7
:100CD00079910196A901480F591F465B5F4FDA01D0
:100CE0007C9388309105A1F7B1E0E136FB0721F054
:100CF00027E0291508F0BCCF092D10E048EF40038C
:100D0000C00111248F5E9D4FE3E5F1E0B12C7C0121
:100D100052E0E51AF108C191D191209769F109904B
:100D2000D881C02D2A812C70283031F52F8130E0F8
:100D3000322F22274E81242B732E612CD301A22B1C
:100D40009D01A701812C8B1471F0EA016981425049
:100D5000510970E0762F6627C8816C2B261737075C
:100D600091F08394F0CFB394EC01B2E0BB9EC01934
:100D7000D10911242883398321E0E136F20719F0E3
:100D800036E03B1540F62CEF2003F001219FF00DDB
:100D90001124EB19F109EE0FFF1FE05FFD4FB4E0E6
:100DA000000F111FBA95E1F70B290083990C990CDC
:100DB0009B0C990C939481E192E0891991092091FF
:100DC0000305921669F0909203052A2D2F60209357
:100DD000880206C02091030581E192E0821B9109FF
:100DE000A0918802A1FF3AC09C01265C31402223D9
:100DF00029F0FC013197108261E001C060E0EC0154
:100E0000C61BD1092881277030E0D12C70E0472F14
:100E100050E04217530764F4FE0143E0749FE00D75
:100E2000F11D1124448142954F70D40E7F5FEFCFA6
:100E30002091770162130CC04FE050E04D19510929
:100E40002091810130E0215031094217530759F0B8
:100E500060937701AF60A093880205C0209177016D
:100E6000EC01C21BD109DE0112974091880240FFBC
:100E70001FC02091C90350E1259F9001112430919A
:100E80006705322B3C93FE01129280914602882323
:100E900011F080E8808380914E02882319F08081D0
:100EA000806480838D2D80958F709081892B8083C5
:100EB0008091030590917701890F8E5F909158037F
:100EC000890F8093C203B093BE03A093BD03407FFC
:100ED00040938802CFBEE091BB03F091BC038091A8
:100EE00056028F5F8383DFB7F8948091B30581301A
:100EF00039F1C0918802C4FF15C0109157030091C9
:100F00007301802F90E0412F50E06091A901709112
:100F1000AA018F5E9D4F0E949332C5FF03C0100F40
:100F2000109358038091030590917701890F8E5F8C
:100F300090915803890F8093C203CF70C0938802A9
:100F4000DFBFDF91CF911F910F91FF90EF90DF9066
:100F5000CF90BF90AF909F908F907F906F900895AB
:100F6000209115012430E0F430911601E32FF0E0D8
:100F7000EE0FFF1FE25FFA4F9183808381E0830FC2
:100F8000843019F08093160102C0109216012F5F71
:100F9000209315018AE00E94FD0080E090E0089512
:100FA00081EF90E00895CF93CFB7F89480919F019F
:100FB0009091A001892B19F4CFBF89E00EC081E088
:100FC0008093620389B78F7B89BF8091BC018111B7
:100FD00002C00E944E05CFBF80E0CF910895CF930D
:100FE000C82F0E944101C8131BC02FB7F8948091ED
:100FF0001101909112018430910519F42FBF89E0FD
:1010000010C0079719F02FBF81E00BC088E090E077
:1010100090931201809311012FBFCF910C94D307AD
:1010200085E0CF91089580E00C94EF07CF92DF9296
:10103000EF92FF92CF93DF9300D000D0CDB7DEB711
:101040006B017C0129833A834B835C830E94DD0022
:10105000660F771F881F991F6C197D098E099F09DC
:10106000E1E029813A814B815C8162177307840733
:10107000950708F4E0E08E2F0F900F900F900F90DF
:10108000DF91CF91FF90EF90DF90CF900895CF93B5
:10109000DF93EC01888199810E94C102CE01DF912A
:1010A000CF910C94DE029FB7F89481E02091030168
:1010B000211180E09FBF08956E9A8FB9779BFECF74
:1010C0008FB1089590916B0491110C945C0880E0AD
:1010D0000895CF93CFB7F8940E945308811103C0AD
:1010E000CFBF81E00EC00E94BD000E94B90083E026
:1010F0000E9462088BE00E9462080E94BD00CFBF80
:1011000080E0CF9108951F93CF93DF931F92CDB7C7
:10111000DEB720910A0130910B012330310509F02F
:1011200049C089830E94BD000E94B900898188233B
:1011300011F085E001C084E00E94620883FD09C0CF
:1011400080E00E94620883FB112710F981E01827D4
:1011500001C011E00E94BD0011112EC084E090E09A
:1011600090930B0180930A01E0916B03F0916C0363
:101170000480F581E02D8FEF8383828381838083D8
:101180000E94DD006093990270939A0280939B0203
:1011900090939C0280EE91E0A0E0B0E080938A0200
:1011A00090938B02A0938C02B0938D020E946603F1
:1011B00080E003C084E001C081E00F90DF91CF9117
:1011C0001F910895CF93CFB7F8940E9453088111CF
:1011D00003C0CFBF81E00BC00E94BD000E94B900D8
:1011E00086E00E9462080E94BD00CFBF80E0CF91E0
:1011F0000895CF92DF92EF92FF920F931F93CF93B8
:10120000DF930091A1051091A205E090B903F09041
:10121000BA03C0916903D0916A0320912A013091E9
:101220002B01CE010A962817390708F4C9016C0171
:1012300021E0C21AD108CC15DD05A0F40115110575
:1012400029F0F801EC0FFD1F808101C080E00E94B1
:101250005C08E114F10421F0F701EC0FFD1F80831D
:101260002196E9CF6F9A0115110531F0F801EC0FC5
:10127000FD1F80818FB901C01FB8D0936A03C0934E
:10128000690380E0DF91CF911F910F91FF90EF9064
:10129000DF90CF90089550932B0140932A019093B3
:1012A000A2058093A1057093BA036093B9031092CD
:1012B0006A0310926903452B19F08FB10C94F90859
:1012C00087E10E94FD0080E00895CF93DF930E94A4
:1012D000BD000E94B900C091CA03D091CB03809198
:1012E0006B04882391F08FE790E09093AC02809399
:1012F000AB028FE70E945C0841E050E0BE0180E055
:1013000090E0DF91CF910C944B09DF91CF9108953C
:10131000EF92FF921F93CF93DF931F92CDB7DEB76B
:101320007C0180916B048823A9F08EE390E0909378
:10133000AC028093AB028EE369830E945C08182F95
:101340006981462F50E060E070E0C7010E944B09C0
:10135000812F01C080E00F90DF91CF911F91FF900E
:10136000EF9008958F929F92AF92BF92CF92DF92AB
:10137000EF92FF92CF93DF9300D000D0CDB7DEB7CE
:101380004B015C0129833A834B835C830E94DD001F
:101390006B017C01CC0CDD1CEE1CFF1CC818D908AD
:1013A000EA08FB084601570129813A814B815C819B
:1013B000C216D306E406F50610F449015A010E944C
:1013C000DD00609308057093090580930A059093EA
:1013D0000B05D501C4018C199D09AE09BF09B6954D
:1013E000A795979587958093BD019093BE01A09393
:1013F000BF01B093C0010F900F900F900F90DF913D
:10140000CF91FF90EF90DF90CF90BF90AF909F90E3
:101410008F900C9429020F931F93CF93CFB7F8941A
:1014200090911D01923071F49091050198130AC0BA
:101430008091800381110EC080918103882309F47B
:101440003EC008C090E0CFBF81E08927CF911F91B7
:101450000F91089520911E0130E0C901019661E0CD
:1014600070E08C30910511F480E090E0E82FE69573
:10147000E695E695F0E0E058FC4FA081482F4770D4
:101480008B0102C0000F111F4A95E2F7A801BA2F85
:10149000B02331F040954A23408380931E0106C05B
:1014A0008217930711F00196DCCF8FEF8093A30191
:1014B00081E080931D0182E00E94FD0005C08FEF56
:1014C0008093050110921D0191E0BDCFEF92FF9234
:1014D0000F931F93CF93DF938C01FFB6F8940E9474
:1014E0005308882311F10E94BD000E94B900809129
:1014F0006B04882381F083E50E945C08E82E80E07D
:101500000E945C08C82FD0E0DC2FCC2780E00E942E
:101510005C08C82B01C0E12C0E94BD00E1FE05C0A3
:10152000F801C083FFBE80E002C0FFBE81E0DF9112
:10153000CF911F910F91FF90EF900895CF93DF937C
:1015400000D0CDB7DEB79FB7F89420916B0422236B
:1015500089F09FBF6A8379830E945C087981872F15
:101560000E945C086A81862F0F900F90DF91CF91C7
:101570000C945C089FBF80E00F900F90DF91CF919B
:1015800008958091160590E00B9725E0289FB00103
:10159000299F700D11246B597E4F706488E10C9463
:1015A0009E0AE1E080916803811101C0E0E041E022
:1015B00080917401811101C040E021E08091AB0174
:1015C000811101C020E080917E02882351F051E01A
:1015D00030E080910705811101C050E0852F932FE5
:1015E00002C080E090E060919E0530E4639FB0010E
:1015F000112462627260F0E0FE2FEE27F295FF0F79
:10160000F07E6E2B7F2B50E0542F44275295507F55
:10161000642B752B30E0322F2227330F330F330F1B
:10162000622B732B54E0880F991F5A95E1F7682BB2
:10163000792B81E10C949E0A80910F019091100109
:101640000197F1F582E090E09093100180930F01F3
:10165000DE98DE9A80910F0190911001029781F53A
:1016600083E090E09093100180930F010E94BD00F1
:101670000E94B90068E170E08DE10E949E0A81E05D
:1016800080939F0210920E0180B386FB882780F919
:101690008093AA0285E10E94FD0081E00E94620819
:1016A0006FE772E08CE10E949E0A0E94C10A0E94CC
:1016B000D10A66E57AE287E10E949E0A0C94BD0099
:1016C000089597B79F7D97BF90E296BF882319F042
:1016D0008EB5806402C08EB58F7B8EBD87B7806269
:1016E00087BF80E008956E98BA9ABB98B99A0E9415
:1016F000BB006C9A6F986B986A986E9A709A8DB1CD
:101700008C7F8DB908951F93CF93DF931F92CDB730
:10171000DEB71FB7F89490916B0491111FC091E050
:1017200090936B042091000190910C01211102C053
:10173000923079F0911115C092E090930C011092C3
:10174000000189830E94730B0E94BB000E94B900B4
:1017500089818093030180E01FBF07C01FBF85E020
:1017600004C010926B0481E0F7CF0F90DF91CF910E
:101770001F910895CF93CFB7F89490916B04911176
:101780000FC091E090936B0480930301909100014E
:1017900080910C01911110C0823071F486E118C063
:1017A00021E030E001C0220F8A95EAF780910D0117
:1017B000822B80930D012EC0882349F180910C016A
:1017C000811109C081E080930C011092AD0188E184
:1017D0000E94FD001FC08091B6018F3FD9F481E0C7
:1017E00090E0E0910101EE2311F080E090E0892B80
:1017F00089F4809102018F3F19F41092020104C014
:10180000F0E0EA54FE4F10821092010103C00E94E2
:10181000730BD4CFCFBF80E0CF91089580E00C94BC
:10182000BA0B80919F019091A001892BF1F08091DA
:10183000620381111AC083E090E09093A00180932D
:101840009F0181E08093BC019FB7F89480910301D0
:101850009FBF813011F40C94650981E00E94830BD5
:101860008823C9F381E00C94BA0B0895CF92DF92DC
:10187000EF92FF92CF93DF93C82F6A017B010E9402
:10188000DD00DFB7F8942C2F30E0F901A3E0EE0F74
:10189000FF1FAA95E1F7EE58FB4F608371838283A7
:1018A0009383C482D582E682F782F901EE50FB4F22
:1018B00081E0808380910205811102C00E9475053C
:1018C000DFBFDF91CF91FF90EF90DF90CF90089531
:1018D000CF93CFB7F89480910A0190910B010197B3
:1018E00019F4CFBF89E00DC081E00E94610B81E057
:1018F00090E090930B0180930A0110920901CFBFF1
:1019000080E0CF91089580910D0181114EC08091AA
:1019100003018F3F09F049C080916B04811145C0DC
:1019200081E080933F0580917A01811110923F05FB
:1019300080913F058823B9F180910001811104C095
:1019400080910C01823099F180910C01823029F54F
:1019500080910001811121C0809102018F3FC9F067
:101960009FEF90930001E82FF0E0EA54FE4F908142
:10197000909302019F3F11F4909301019FEF908398
:101980008093AD0181E080930C0188E10E94FD000D
:1019900004C08093000110920C0180910C01811110
:1019A00009C06E9807C085E0089581E008950E94FF
:1019B000BD00CACF80E00895CF93CFB7F89490913F
:1019C0000301981719F0CFBF81E02DC08FEF8093EE
:1019D000030170910D01711105C010926B040E94FA
:1019E000830C1CC060E0872F90E06170AC01062E74
:1019F00002C0559547950A94E2F740FF12C06093E4
:101A0000030181E090E001C0880F6A95EAF78095B4
:101A1000872380930D0186E10E94FD00CFBF80E007
:101A200002C06F5FE2CFCF910895CF93CFB7F89404
:101A300080E00E94DC0CCFBFCF91089581E00C9430
:101A4000DC0CCF93CFB7F89480919F019091A001C7
:101A5000892B09F11092BC0180916203882319F04F
:101A60000E944E051AC08091AC01882311F0B799ED
:101A700004C00E9908C0882319F081508093AC01EE
:101A80000E94110C0AC082E090E09093A001809324
:101A90009F011092AC010E941E0DCFBFCF910895FF
:101AA00080E8809372011092BC0110929C05109204
:101AB00095051092AC010E94BD000E94B90088E01B
:101AC0000E94620888E00E9462080E94BD000E9495
:101AD0001E0D0C94210D0F93CF932091780330911C
:101AE000790340917A0350917B0360917C0370915C
:101AF0007D03C0917E03B0917F03FC01A8E0219398
:101B00008C2F9B2F08E00E945C32C82FB92FA15068
:101B1000B1F7CF910F910895EF92FF920F931F931A
:101B2000CF93DF93CDB7DEB72C970FB6F894DEBF17
:101B30000FBECDBF1FB7F894CE0101960E946B0D6A
:101B4000909176028091770299878A8790919D0281
:101B500080919E029B878C871FBF21E08091760237
:101B600090917702019609F020E0722F770F770F9E
:101B7000770F60E06F6772608CE10E949E0A8FB7FA
:101B8000F89490916B04911102C08FBF16C08FBF63
:101B900080EE0E945C0880E80E945C088E010F5F66
:101BA0001F4F7E018DE0E80EF11CF80181918F013D
:101BB0000E945C080E151F05C1F72C960FB6F8940D
:101BC000DEBF0FBECDBFDF91CF911F910F91FF9070
:101BD000EF900895CF93CFB7F8940E9453088111E6
:101BE00003C0CFBF81E027C080910605882309F19B
:101BF0000E94BD000E94B90086E00E9462080E9417
:101C0000BD000E94B9000E94C10A0E94D10A6091E1
:101C10007D0270E0606E706885E10E949E0A0E94FD
:101C2000BD000E94B9000E948C0D0E94BD00109260
:101C30000605CFBF80E0CF910895CF930E94EA0DB3
:101C40000E94680CE0916804F0916904CFB7F894A1
:101C500080910A0190910B01019729F582E090E0B3
:101C600090930B0180930A01F0936C03E0936B0354
:101C7000A081B18186819781890F8E5F8C930E94AC
:101C8000BD000E94B90089E00E9462080E94BD0068
:101C90000E94B900E0916B03F0916C0361E08081D8
:101CA00091810E948809CFBFCF9108950E94530867
:101CB00081110C941D0E80E00E94830B8823C9F3D0
:101CC0000C940E0C0F931F93FC01009709F441C074
:101CD00080819181892BE9F182819381892B19F48B
:101CE0008781811136C084819581892B91F1A681EC
:101CF000878190E08A0F911D8E37910554F5AFB71B
:101D0000F8948091110190911201049719F0AFBFDE
:101D100081E020C089E090E090931201809311014E
:101D2000AFBFF0936904E09368044093C2015093FD
:101D3000C3016093C4017093C501009363011093C4
:101D4000640120936501309366010E94560E80E085
:101D500001C086E01F910F910895CF92DF92EF921C
:101D6000FF920F931F93CF93DF9300D000D0CDB796
:101D7000DEB781E08093B30580917403E091BB03EB
:101D8000F091BC03811115C0809186029091870269
:101D9000892B61F481E090E020912D0130912E019A
:101DA000232B11F480E090E0892B19F08181806170
:101DB00002C081818F7E818380919305882351F0B9
:101DC000109293051092B2011092B3011092B401D7
:101DD0001092B501C090B201D090B301E090B4016F
:101DE000F090B50140916D0350916E0360916F03C7
:101DF0007091700349835A836B837C830E944101F5
:101E000049815A816B817C81833031F4970186014D
:101E10008BEB93E00E94620E0F900F900F900F904B
:101E2000DF91CF911F910F91FF90EF90DF90CF90B6
:101E300008954F925F927F928F929F92AF92BF923E
:101E4000CF92DF92EF92FF920F931F93CF93DF9386
:101E500000D000D0CDB7DEB71091810120916E0483
:101E600030916F04409170045091710485E0298392
:101E70003A834B835C830E944E0129813A814B81D6
:101E80005C81882309F4B4C0A12FB0E00E940E3217
:101E90004B015C016B017C0124EAC21A21E0D20AE9
:101EA000E108F10880913E0490913F04A091400424
:101EB000B0914104C81AD90AEA0AFB0AC701B6015F
:101EC00024E130E040E050E00E941932E4E1CE0E1F
:101ED000D11CE11CF11CC61AD70AE80AF90A8C14B5
:101EE0009D04AE04BF0418F4C12CD12C760180915E
:101EF0007F0190918001009749F0A0E0B0E08C153F
:101F00009D05AE05BF0510F46C017D0160916D0368
:101F100070916E0380916F0390917003A7019601F9
:101F20000E941608811167C0009175011091760119
:101F30007090A60180906D0390906E03A0906F0347
:101F4000B090700340905503509056030E94410199
:101F5000853009F053C04114510409F44FC0F20117
:101F600080819181892B09F449C082819381892BD9
:101F700019F48781811142C0F20184819581892BF6
:101F8000E9F12681878190E0820F911D8E379105BE
:101F9000ACF58091110190911201049779F58BE0D5
:101FA00090E0909312018093110150926904409245
:101FB00068048BE493E09093790180937801809298
:101FC000C2019092C301A092C401B092C501C09217
:101FD0006301D0926401E0926501F0926601709213
:101FE000A7051093600500935F050E94560E06C07A
:101FF00080E090E005C083E090E002C082E090E0E5
:102000000F900F900F900F90DF91CF911F910F9134
:10201000FF90EF90DF90CF90BF90AF909F908F9008
:102020007F905F904F900895CF92DF92EF92FF9252
:102030006B017C018091080181111FC083E08093B6
:1020400008010E94DD0060930805709309058093E4
:102050000A0590930B05F694E794D794C794C09221
:10206000BD01D092BE01E092BF01F092C001FF908D
:10207000EF90DF90CF900C942902FF90EF90DF90CB
:10208000CF900895CF93E0917801F0917901C081CC
:102090000E94F9032FEF3FEF02C0220F331FCA95B2
:1020A000E2F74DE050E0509312014093110120956A
:1020B00030952623372384E1829FB001839F700DE2
:1020C000112480E090E0CF910C9414102F923F9255
:1020D0004F925F926F927F928F929F92AF92BF9238
:1020E000CF92DF92EF92FF920F931F93FC01DB01DF
:1020F00017968C91179716968C901697912CA12C69
:10210000B12C540199248824B82A14968C911497E0
:10211000882A15968C911597982A9401A50160E05C
:1021200070E080E090E000E20E9441321396FC9063
:10213000139712962C901297822C912CA12CB12CD3
:10214000540199248824BF28FC908F281196AC91C3
:102150009A2A1401250151016201E12CF12C00E0C1
:1021600010E00E947832208331834283538364835A
:102170007583868397831F910F91FF90EF90DF9077
:10218000CF90BF90AF909F908F907F906F905F9017
:102190004F903F902F900895FC01CB01328137FF83
:1021A00029C0232F2C70283021F02C3021F023E07F
:1021B00003C027E001C02DE0418146FF01C033FF8D
:1021C0002E5F3196432F407C30E0403861F4E20FBF
:1021D000F31F218130E0322F22274081242BFC0184
:1021E0003183208305C0BF01620F731F0E946610F8
:1021F00080E0089581E008958F929F92AF92BF9200
:10220000CF92DF92EF92FF920F931F93CF93DF93C2
:10221000EC014A01D901B02EF6018EEF860F823013
:1022200070F54B839C82623039F49C9111968C91AD
:102230009D838E8317E026C02C9111963C911197B7
:1022400012964C91129713965C91139714966C9179
:10225000149715967C91159716968C91169717964C
:102260009C91DE0115966E011DE0C10ED11C2D93CF
:1022700008E00E945C32AC15BD05C9F702C013E04E
:1022800001C01DE08EEF8B0D823058F58E149F0437
:1022900011F4A11007C0DE01A10FB11DEC9211963F
:1022A000FC921E5FA12FB0E082E0B81208C09081BE
:1022B0008181CA0FDB1F988389831E5F12C0208132
:1022C0003181428153816481758186819781CA0FF2
:1022D000DB1FE8E0299308E00E945C32E150D1F76F
:1022E000185F812FDF91CF911F910F91FF90EF9099
:1022F000DF90CF90BF90AF909F908F9008952FB7B1
:10230000F894B79905C00E9903C02FBF81E00895D6
:1023100080E8809372011092BC0110929C0510928B
:1023200095051092AC0182E090E09093A00180931B
:102330009F0189B78F7B89BF80E488BF8AB780629D
:102340008ABF8AB78F7E8ABF89B7806489BF2FBF53
:1023500080E00895E0916804F09169040190F081B3
:10236000E02D818185FF04C00E94150D0C947F1122
:102370000895CF93CFB7F8940E945308811103C0FA
:10238000CFBF81E01FC0B79B1BC00E94B9008091E6
:102390006B04882349F08FE70E945C0880E00E946C
:1023A0005C0880E00E945C080E94BD000E94B900A9
:1023B00088E00E94620888E00E9462080E94BD00D6
:1023C000CFBF80E0CF910895FB01833009F471C045
:1023D00028F4882319F1823099F174C0833589F08B
:1023E000803F29F1803509F06DC0808191812FB740
:1023F000F89431E03093060590937702809376024B
:102400000BC0808191812FB7F89431E0309306059D
:1024100090939E0280939D022FBF54C090818FB7EE
:10242000F89421E020930605909316054AC0908108
:102430008FB7F89421E0209306059093740141C072
:102440009081892F8F7395FD806C992787FD9095DA
:1024500097FF19C08F3F2FEF9207B9F08D3F2FEFF5
:102460009207ACF48B3F2FEF92079CF4883F2FEF3D
:1024700092078CF4843F2FEF92077CF48D3E9F4FA0
:1024800074F087E00DC08FE10BC08BE109C087E1DC
:1024900007C083E105C08FE003C08BE001C083E08B
:1024A0009FB7F89421E02093060580937D029FBF9B
:1024B00009C090818FB7F89421E02093060590938E
:1024C0009E058FBF8091110190911201069702978E
:1024D00018F484E10C94FD0008958F929F92AF92BE
:1024E000BF92CF92DF92EF92FF920F931F93CF9301
:1024F000DF938091B305813079F489E0DF91CF914A
:102500001F910F91FF90EF90DF90CF90BF90AF9011
:102510009F908F900C94FD00809167058F3079F427
:1025200083E0DF91CF911F910F91FF90EF90DF90AB
:10253000CF90BF90AF909F908F900C940B0ACFB725
:10254000F89482E08093B305809193058111B3C024
:1025500080916D0190916E01A0916F01B091700119
:10256000892B8A2B8B2B31F580914D0190914E0157
:10257000A0914F01B09150010097A105B105D1F094
:102580008093B2019093B301A093B401B093B501CD
:1025900010924D0110924E0110924F011092500175
:1025A0008091620182FF06C08B7F8093620188E088
:1025B0000E94FD002091B2013091B3014091B4011D
:1025C0005091B50160916D0370916E0380916F031E
:1025D000909170030E9416082091B2013091B301CE
:1025E0004091B4015091B5018823A9F08091510325
:1025F00090915203A0915303B0915403820F931F03
:10260000A41FB51F8093B2019093B301A093B401AE
:10261000B093B501CFCF60916D0370916E0380913F
:102620006F039091700360597140810991090E9474
:102630001608811140C08090B2019090B301A09023
:10264000B401B090B501F0E9CF2EDD24D394E12C94
:10265000F12C80916D0390916E03A0916F03B09166
:102660007003C81AD90AEA0AFB0ADFB7F8940E9475
:10267000DD00660F771F881F991F6C0D7D1D8E1D55
:102680009F1D6B017C01681579058A059B0510F477
:102690007501640197018601061B170B280B390B86
:1026A000B901A801769567955795479582E00E94F4
:1026B000360CDFBF02C00E94AD0ECFBFDF91CF91BD
:1026C0001F910F91FF90EF90DF90CF90BF90AF9050
:1026D0009F908F90089583E00E944E0181110C9489
:1026E0006D1283E00C94EF076F927F928F929F920E
:1026F000AF92BF92CF92DF92EF92FF920F931F9310
:10270000CF93DF931F92CDB7DEB7182F7FB6F89423
:1027100069830E94410169818113E3C060930501CF
:10272000862F90E0FC013397E930F10508F0D6C020
:10273000EA5BFF4F0C943B3280916201897021F07B
:1027400089E00E94FD00CAC00E946B13C7C080913F
:1027500081028823E9F00091860210918702011519
:10276000110521F400912D0110912E0181E080933B
:10277000740385E00E94280181110AC080910C0534
:1027800090910D05892B21F410930D0500930C05F4
:1027900065E084E0A1C0A091810120916E04309198
:1027A0006F044091700450917104B0E00E940E32A9
:1027B000643A21E072078105910518F466E085E02E
:1027C0008BC06B017C01E4EACE1AE1E0DE0AE1088D
:1027D000F10880910C0590910D05892B31F081E075
:1027E0008093AA058CE00E94FD0080906D0390907C
:1027F0006E03A0906F03B09070036FB6F8940E94C0
:10280000DD00660F771F881F991F681979098A09EB
:102810009B098B019C016C157D058E059F0510F4AD
:102820009701860168017901C61AD70AE80AF90AF0
:10283000B701A601769567955795479587E00E9461
:10284000360C6FBEC0907F01D0908001C114D104BE
:1028500079F1E12CF12C80906D0390906E03A090A3
:102860006F03B09070036FB6F8940E94DD00660F9E
:10287000771F881F991F681979098A099B098B019D
:102880009C016C157D058E059F0510F4970186014E
:1028900068017901C61AD70AE80AF90AB701A60140
:1028A000769567955795479588E00E94360C6FBEE0
:1028B0000E94831413C063E086E00EC068E087E0E6
:1028C0000BC063E088E008C06AE089E005C063E00F
:1028D0008AE002C063E08BE00E9474137FBE80E058
:1028E00002C07FBE81E00F90DF91CF911F910F91C9
:1028F000FF90EF90DF90CF90BF90AF909F908F9020
:102900007F906F900895CF93CFB7F8948091AA05E8
:10291000811194C085E00E942801882309F48EC0AB
:1029200081E08093AA05A091810120916E043091ED
:102930006F044091700450917104B0E00E940E3217
:102940009B01AC01245A31404109510960916D034A
:1029500070916E0380916F03909170030E9416082E
:10296000882339F085E00E944E01882309F4BCC019
:1029700006C087E00E9438018823A1F32CC087E0BD
:102980000E94A10088E00E94A10010929402809110
:102990000C0590910D05892BB9F00E946101809181
:1029A0000C0590910D05909352018093510181EE99
:1029B00090E0909305058093040580E10E94FD005E
:1029C00010920D0510920C051092AA0566E085E0A4
:1029D0000E94741333C080910C0590910D05892BD2
:1029E00009F05CC080917F02909180022091B40533
:1029F000211106C021E0029709F020E0822F01C0DA
:102A000081E020911A01811108C081E090E021113C
:102A100002C080E090E0892B99F085E00E944E0191
:102A2000882309F461C087E00E94A10088E00E9429
:102A3000A1001092AA0585E00E940B0ACFBF5BC0DF
:102A400020917F01309180012115310509F140E08D
:102A500050E060916D0370916E0380916F039091CF
:102A600070030E941608882399F08091B8018111A3
:102A70000FC08091A20181110BC085E00E944E0120
:102A8000882319F083E090E021C080E090E01EC030
:102A90008091550390915603892B19F00E94190FCC
:102AA00015C00E944101853011F58091110190916E
:102AB00012010797E1F085E00E944E018823A1F002
:102AC00085E00E94FE1981E090E007C08330910507
:102AD00021F41092AA0583E090E0CFBF892B59F42E
:102AE00085E0CF910C94EF0780E090E0F6CF8DE089
:102AF0000E94FD00EECFCF9108952FB7F894FC010E
:102B000080818093A2012FBF0C948314FC018091DB
:102B10005702A081B18113968C938F5F80935702E7
:102B200010924E038091580280939A0580934D0332
:102B300080915B028093C80380934C03809159027B
:102B400080934B0390914802992329F0833018F029
:102B500082E080934B0380914B038093930280919A
:102B6000A5059091A6058E179F0719F41092AB0545
:102B700004C080915C028093AB058681478150E060
:102B8000480F511D495F5F4F440F551F662757FD82
:102B90006095762F40933E0450933F046093400429
:102BA00070934104A081B18111968C9185FF0CC076
:102BB0004A5C5F4F6F4F7F4F40933E0450933F04FA
:102BC0006093400470934104409166025091670203
:102BD00060916802709169024093680150936901A5
:102BE00060936A0170936B01F0935603E093550371
:102BF000089520EE280F982F41E050E060E070E04B
:102C0000992351F0440F551F661F771F915092135F
:102C1000F7CF40E050E0BA014427587F7770452B4A
:102C2000462B472B51F080934F026FE472E080E017
:102C30000E94E41180E090E0089588EE90E008950D
:102C40008F929F92AF92CF92DF92EF92FF920F936B
:102C5000CF93DF93CDB7DEB760970FB6F894DEBFA2
:102C60000FBECDBFE0916201E1FFC0C08FEF9FEFCB
:102C70009A8789870E94FB024C01009709F459C08A
:102C80000E941A03009731F4C4010E94DE02812CD5
:102C9000912C4FC0D40111969C938E939C01285E79
:102CA0003F4F15963C932E93149729E533E01396E6
:102CB0003C932E93129723E0FC012183ED91FC912C
:102CC000119780EC8283ED91FC911197828188604D
:102CD0008283809178038983809179038A838091AC
:102CE0007A038B8380917B038C8380917C038D831B
:102CF00080917D038E8380917E038F8380917F03FB
:102D00008887E0906002F09061028D919C91A12CE7
:102D10009E012F5F3F4F690103E09E01275F3F4FF8
:102D20004FEF5FEF62E001960E94FC10D40116960F
:102D30008C93809162018D7F809362018114910454
:102D400009F42EC1D4011296ED91FC91139788E0FD
:102D5000808320916603909167031296ED91FC9118
:102D600013972183928320916202909163021296BD
:102D7000ED91FC911397238394831296ED91FC912E
:102D800013979091250195831296ED91FC911397DD
:102D90009FEF9683978317968C93809167058F306A
:102DA00080F42FB7F8948091860290918702892B46
:102DB00031F490928702809286022FBF13C02FBFFA
:102DC00006C0F401108680916D0481FF06C0109248
:102DD0006201C4010E944708E5C0C4010E94B00717
:102DE000892BA9F7809162018860D7C04091490181
:102DF00050914A0160914B0170914C0140936D01DB
:102E000050936E0160936F0170937001109293055F
:102E100010924D0110924E0110924F0110925001EC
:102E200020914204209367052F30A8F480EC93E0B2
:102E3000A0E0B0E0022E04C0880F991FAA1FBB1F9C
:102E40000A94D2F78093510390935203A0935303B3
:102E5000B093540308C01092510310925203109281
:102E6000530310925403309172053093C90380913B
:102E7000510390915203A0915303B0915403411513
:102E800051056105710569F0481B590B6A0B7B0BF5
:102E900040936D0350936E0360936F0370937003C0
:102EA0000EC0E3FF09C080934D0190934E01A093A3
:102EB0004F01B093500103C041E0409393058093CC
:102EC000B2019093B301A093B401B093B501809186
:102ED0005302809377031092B305203110F42093AE
:102EE000550230935A028091660390916703909344
:102EF00061028093600260E672E080E50E94E41166
:102F0000809125010E94F915809167058F3020F48A
:102F10008091A701809348028091780280934E02AD
:102F20006EE472E080EF0E94E41180916202909161
:102F3000630221E08E3FFFEF9F0709F420E0E0915C
:102F4000BB03F091BC031182222311F030E801C0D1
:102F500030EC3283309156023F5F338340916603F9
:102F60003091670344833583222321F0868397833E
:102F700087E005C0CF0106960E946B0D8DE080931F
:102F8000C103809188028F60809388020E94180696
:102F9000809167058F3020F484E08093620102C045
:102FA0001092620160960FB6F894DEBF0FBECDBFDF
:102FB000DF91CF910F91FF90EF90DF90CF90AF9086
:102FC0009F908F9008950E94201680916201877FC4
:102FD0008093620108958091620183FF03C089E0BC
:102FE0000C94FD0080FF05C08E7F809362010E94DB
:102FF00020160C946B13EF92FF920F931F93CF93B5
:10300000DF93CDB7DEB728970FB6F894DEBF0FBEBB
:10301000CDBF8C017B01FC01608171816A5F7F4FB4
:10302000CE0101960E946610F801808191810E9474
:10303000C102C8010E94DE0210929202E114F10462
:1030400021F0F9EEEF16F10451F50FEF1FEF109399
:1030500061020093600260E672E080E50E94E41184
:10306000109363020093620262E672E083E50E94BD
:10307000E41110924C0210935F0200935E021092D2
:103080006E0210926F0210927002109271021092F2
:1030900072021092730210927402109275022896B6
:1030A0000FB6F894DEBF0FBECDBFDF91CF911F9159
:1030B0000F91FF90EF9008950F931F93CF93DF939D
:1030C000CDB7DEB728970FB6F894DEBF0FBECDBFE1
:1030D0008B01813039F118F0823049F12BC0DB01CE
:1030E000ED91FC9182818C70883049F4878190E069
:1030F000982F88272681822B9A83898307C0BF0156
:103100006A5F7F4FCE0101960E946610D801129629
:10311000ED91FC9113978FEF80838D919C910E948C
:10312000C10205C0BA01C8010E94FB1703C0C80153
:103130000E94DE0228960FB6F894DEBF0FBECDBF08
:10314000DF91CF911F910F910895EF92FF920F930E
:103150001F93CF93DF93CDB7DEB760970FB6F89488
:10316000DEBF0FBECDBF8B017A018530E1F050F498
:10317000882371F0823009F082C0BA01C8010E9430
:10318000FB177DC0873099F0883009F459C077C0AB
:10319000CB010E944708EF2819F40E94E3176FC083
:1031A000109262016CC0CB010E94DE0268C083E015
:1031B0006F3A780719F41092B70361C0E3E5F1E0C4
:1031C00080E090E0219131912017310741F4FC011A
:1031D000EE0FFF1FED5AFE4F1182108204C00196C0
:1031E0008730910579F70E940F061092A60510927C
:1031F000A50580912F018F77D80118968C93189789
:1032000090917303915090937303ED91FC9192818F
:103210009C70983031F490916A04915090936A04B4
:1032200007C09C3029F490916205915090936205FB
:10323000A701B8010E945C1883E00E94FD001FC036
:10324000FB01E080F180809118018823C1F0B70173
:103250006A5F7F4FCE0109960E946610B701605FDA
:103260007F4FCE0101960E946610D8018D919C91EE
:103270000E94C102C8010E94DE02109218016096ED
:103280000FB6F894DEBF0FBECDBFDF91CF911F9177
:103290000F91FF90EF9008950F931F93CF93DF93BB
:1032A0008C01EB0180916D048E7F80936D04809181
:1032B0001501882301F10E948704AE01B801F801CD
:1032C00080850E94A518CA3ED10539F08AE0DF91B9
:1032D000CF911F910F910C94FD00809115018823CF
:1032E000A9F30E9487044AEE50E0BC01FC018085EE
:1032F0000E94A518F2CFDF91CF911F910F910895F1
:103300008091C101882391F080919C038D7F8093EF
:103310009C031092C1018FEF9FEF90936102809305
:10332000600260E672E080E50C94E411089587E0A5
:1033300090E090931201809311010E94690881E04E
:1033400080937A010E94150D0E944101823031F074
:10335000853039F0811109C084E001C08EE00C9401
:10336000FD001092AA050C9483140895CF9386E073
:1033700090E090931201809311010E94EA0D0E9447
:1033800017020E94680CCFB7F89420916301309126
:10339000640140916501509166016091C201709194
:1033A000C3018091C4019091C5010E941608882331
:1033B00019F00E9497191FC0209163013091640198
:1033C00040916501509166018091C2019091C301C5
:1033D000A091C401B091C501E0910801E1110BC0B9
:1033E000E1E0E0930801BC01CD0160517109810960
:1033F00091090E94B209CFBFCF910895CF93C82FF2
:103400000E944101C81331C02FB7F8948091110177
:1034100090911201049719F02FBF81E027C085E039
:1034200090E090931201809311012FBF1092C2017E
:103430001092C3011092C4011092C5011092630151
:103440001092640110926501109266010E947F1132
:1034500081110CC00E94830B811103C00E94B61918
:1034600002C00E940E0C80E001C081EFCF91089550
:103470000F931F93CF93DF93E0915F0441E050E0FF
:1034800060E070E00E2E04C0440F551F661F771FCA
:103490000A94D2F7F0916105F11121C080915B058A
:1034A00090915C05A0915D05B0915E058827987F9D
:1034B000B770EB3190F4C1E0CE0F8A019B01082375
:1034C00019232A233B23012B022B032B31F4440F16
:1034D000551F661F771FEC2FECCFE0935F048091A0
:1034E0005F048B3108F056C0F11156C00E94F915E7
:1034F00080919905813071F0F8F0823021F08330AD
:1035000009F0A4C007C080E0DF91CF911F910F9117
:103510000C94FE19C0911B01D0911C010E94410125
:10352000811194C000E010E0980140E050E0BA0141
:10353000CE010E94620E8AC08091950290919602FF
:10354000A0919702B09198024FB7F8942091110181
:10355000309112012330310519F02430310511F07A
:103560004FBF74C023E030E030931201209311016B
:103570004FBF80937B0190937C01A0937D01B0931A
:103580007E018DEA80934502DF91CF911F910F91CB
:103590000C940E0CFF2351F18091990581508230DB
:1035A00020F4769567955795479500915B051091A6
:1035B0005C0520915D0530915E05DB01CA0188271D
:1035C0009927AA27BC7F892B8A2B8B2B79F4DB01C7
:1035D000CA0180239123A223B323892B8A2B8B2B0F
:1035E00029F0440F551F661F771FE7CF809199057B
:1035F0008150823068F480917503909176039093A6
:1036000061028093600260E672E080E50E94E4114E
:10361000E0911B01F0911C01309751F08081918164
:103620000E94C10280911B0190911C010E94DE0248
:1036300010921C0110921B0180E00E942801882337
:1036400019F080E00E940B0A10921A01DF91CF91CD
:103650001F910F910895CF93DF9381E00E9428017D
:10366000882309F440C185E00E942801811149C0E6
:103670008091550390915603009721F061EF70E01F
:103680000E944C198091640390916503009721F08A
:1036900061EF70E00E944C1980910C0590910D052E
:1036A000009769F0909352018093510181EF90E06F
:1036B000909305058093040580E10E94FD0010921F
:1036C0000D0510920C051092650310926403109280
:1036D0005603109255038091660290916702A09163
:1036E0006802B09169028093680190936901A09388
:1036F0006A01B0936B0187E00E94A10088E00E94FC
:10370000A10080916D04826080936D048091150109
:10371000882351F00E94870441EF50E0BC01FC0176
:1037200080850E94A518F2CF80916D048D7F8093D3
:103730006D0480911A01882329F081E0809361054E
:103740000E94381A0E94F9036093560286E294E0C0
:103750009093BC038093BB031092C10386EC91E06D
:103760009093BE038093BD031092C2038FE191E05A
:103770009093C0038093BF031092AA011092A901F5
:10378000109257031092B3051092880210926201B2
:103790001092770110920305109258031092400581
:1037A000109281011092B7018FE08093670580919C
:1037B00093038D7F8093930382E00E94A100809108
:1037C0009C038D7F80939C038FEF8093A8051092BC
:1037D000BB011092C101E3E4F4E08083349694E0ED
:1037E000EF35F907D1F78FEF8093A4011092BA015A
:1037F000109292021092C6031092C5038091A50305
:103800008D7F8093A503C3E5D1E0E991F9913097CD
:1038100031F041EF50E0BF0180850E945C18E1E08B
:10382000C136DE0791F7E3E5F1E01192119281E0F4
:10383000E136F807D1F71092A6051092A50510926F
:10384000730310926A041092620580E391E09093F2
:10385000B0038093AF0388E695E09093B403809320
:10386000B30382E695E09093B2038093B103109284
:10387000B6031092B70380911301882329F00E94A8
:10388000A1040E94DE02F7CF809186029091870208
:10389000009721F00E944708109262011092520195
:1038A0001092510110922E0110922D011092870258
:1038B000109286021092740381E090E0909380024F
:1038C00080937F0280912C01811110922C01109223
:1038D000B8018091AE038D7F8093AE0381E0DF91CC
:1038E000CF910C94FD00DF91CF9108954091570244
:1038F00080911A01811102C00C940B0A80919905E4
:10390000823081F18330D1F1813009F082C0E091C1
:103910001B01F0911C01A081B18193E011969C9351
:10392000A081B18198E012969C93A081B1811396F9
:103930004C934F5F40935702A081B1819FEF149643
:103940009C93A081B18115969C93A081B18116961C
:103950009C93A081B18117969C9397E09683909356
:103960009B0587838FEF9FEF9093610280936002A6
:1039700060E672E080E50E94E4114BC050915D0268
:1039800020EC33E0529FC001539F900D1124AA27D1
:1039900097FDA095BA2F8093950290939602A093DD
:1039A0009702B0939802E0911B01F0911C01A08155
:1039B000B18183E411968C93A081B18188EC129639
:1039C0008C93A081B18113964C934F5F4093570223
:1039D000A081B1818FEF14968C93A081B18115964F
:1039E0008C93A081B18116968C93A081B18117969A
:1039F0008C938081918108960E946B0DE0911B0150
:103A0000F0911C018FE0868386E080939B0581E026
:103A100087830C94381A80917F02909180020297DC
:103A200019F482E00C94FE198FE00C94FD001F93B2
:103A3000CF93DF931F92CDB7DEB7909105019530FC
:103A400021F489830E94831489811FB7F89490918F
:103A50001D0191110BC091E090931D018093A30172
:103A600082E00E94FD001FBF80E017C0E82FE695AE
:103A7000E695E695F0E0E058FC4F9081877021E0F4
:103A800030E001C0220F8A95EAF7892F822319F4CA
:103A9000292B208301C085E01FBF0F90DF91CF91BC
:103AA0001F9108950E9417020E94E2080E94B91116
:103AB00010927A010E94150D84E090E0909312011B
:103AC000809311010E944101823081F028F4882303
:103AD00041F0813041F00895833051F0853051F04C
:103AE00008950C94BB0480E00C94FD000C940B1D15
:103AF0000C946D121092AA050C948314CF9310921B
:103B0000A601483048F4463068F5442341F041307E
:103B1000C1F521EE30E021C04B3031F032C01092BF
:103B2000A4051092A3052DC02091AB05222399F086
:103B300010924E0330919A0530934D033091C80393
:103B400030934C033091930230934B0321502093D8
:103B5000AB05C0E017C029EE30E03093A4052093F8
:103B6000A3050FC081E08093A60170937601609356
:103B700075011092AA0587E00E94380181113EC0AC
:103B80003AC0C1E020910C0530910D0582179307D2
:103B9000F9F40E946101CC2329F08091A305909152
:103BA000A40502C081EE90E020910C0530910D0536
:103BB00030935201209351019093050580930405A1
:103BC00080E10E94FD0010920D0510920C0511C0BD
:103BD000CC2379F08091550390915603909365031F
:103BE0008093640310925603109255038BE00E9459
:103BF000FD001092AA05CF910C948314CF910895E3
:103C0000EF92FF920F931F93CF93DF931F92CDB745
:103C1000DEB70091110110911201E0906804F0905C
:103C200069040E94E2080E94B91110927A010E9470
:103C300017020E94150D84E090E09093120180938A
:103C400011010F30110509F0DCC00E9441018823E9
:103C500019F0833059F0EFC080E00F90DF91CF91E1
:103C60001F910F91FF90EF900C94FE19D7011496BD
:103C70008D919C9115970E94AA000091510310917B
:103C8000520320915303309154036F3FBFEF7B07E2
:103C90008B079B07E9F060936D0370936E0380932D
:103CA0006F03909370030093B2011093B3012093BC
:103CB000B4013093B501D7011296ED91FC911397A1
:103CC000828187708093B701811123C041E025C0B4
:103CD0008091B2019091B301A091B401B091B5016E
:103CE000800F911FA21FB31F8093B2019093B30165
:103CF000A093B401B093B50183E00E94171D83E047
:103D00000F90DF91CF911F910F91FF90EF900C9446
:103D10000B0A482F440F480F4E5F81818F708F5FD1
:103D200080938101808182958F700CE310E020E008
:103D300030E004C0000F111F221F331F8A95D2F7F5
:103D400000936E0410936F042093700430937104F9
:103D5000D7018D919C91DC0111968C9184FF04C058
:103D600081E08093810202C01092810250E0BF0185
:103D70006E5F7F4F80E495E00E949332D7011296E8
:103D8000ED91FC911397818184FF26C016968C914A
:103D9000169717962C9130E0280F311DC901079610
:103DA000880F991F2131310514F0889601C00C96B7
:103DB0009093800180937F012091770380917F0110
:103DC00090918001B4E12B9F800D911D112490935F
:103DD000800180937F0104C01092800110927F01C6
:103DE00083E00E94171D64E083E00E94741387E063
:103DF0000F90DF91CF911F910F91FF90EF900C9456
:103E0000FD0001311105B9F44091710100915F0588
:103E10001091600549830E9441014981853059F420
:103E2000B801C7010F90DF91CF911F910F91FF90C3
:103E3000EF900C947E1D0F90DF91CF911F910F9109
:103E4000FF90EF90089580936701609371010E9445
:103E50005308811102C00C94D3070C94001E8F925A
:103E60009F92AF92BF92CF92DF92EF92FF92CF9349
:103E7000DF938091A705882339F0C0915F05D09129
:103E800060051092A70518C0E0917801F0917901C2
:103E9000C0810E94F9032FEF3FEF02C0220F331FB2
:103EA000CA95E2F7209530952623372384E1829F37
:103EB000E001839FD00D11240E94DD006B017C0185
:103EC000BE0180E090E0CC0CDD1CEE1CFF1CC60E99
:103ED000D71EE81EF91E8090C2019090C301A090E9
:103EE000C401B090C501C818D908EA08FB08809041
:103EF000630190906401A0906501B09066018C14FC
:103F00009D04AE04BF0438F4C0916804D0916904E4
:103F1000209799F448C02EE030E0309312012093AE
:103F20001101DF91CF91FF90EF90DF90CF90BF9084
:103F3000AF909F908F900C94141010927A010E9471
:103F400017020E94150D84E090E090931201809377
:103F500011010E944101853031F5C701B601681990
:103F600079098A099B094B015C0124E1820E911CAD
:103F7000A11CB11C24E130E040E050E00E94193265
:103F8000861A970AA80AB90A47E0B401CE01DF9160
:103F9000CF91FF90EF90DF90CF90BF90AF909F9028
:103FA0008F900C947E1DDF91CF91FF90EF90DF906A
:103FB000CF90BF90AF909F908F9008950F931F93D5
:103FC000CF93DF93EC018B018091AB0286FF2AC176
:103FD0008F7B8F3309F0B0C1C091CA03D091CB035E
:103FE00028812093A10180919F019091A0018430AC
:103FF000910579F118F4039749F003C185309105D3
:1040000009F451C0069709F469C0FBC084E090E050
:104010009093A00180939F0130E08091720190E025
:104020002817390734F0DF91CF911F910F910C942D
:10403000500DB79903C00E9B0E94500D8091A101B5
:1040400084508C3880F7BE016F5F7F4F43E050E0B3
:1040500022C06A81898183FDE6CF4CE651E00E944F
:1040600038058111E0CF40916C018091A10190E071
:104070000197242F30E028173907ACF6443098F028
:1040800085E090E09093A00180939F01435050E021
:10409000BE016C5F7F4F80E090E0DF91CF911F9178
:1040A0000F910C944B094091A10120916C01842F38
:1040B00090E0821B9109893791050CF0B4CF86E01E
:1040C00090E09093A00180939F01421B50E060918B
:1040D000CA037091CB03685E7F4FDDCF0E94BD00A5
:1040E0008091AC01811102C00E941E0D3091950596
:1040F000C091CA03D091CB032091A101332349F190
:104100002530C0F180919C0590E0FC01EE0FFF1F6F
:10411000EE0FFF1FED58FA4F70816181528143818C
:10412000DE01AF56BF4F7C93DE01A057BF4F6C93AB
:10413000DE01A157BF4F5C93DE01A257BF4F4C93E6
:1041400001968770992780939C053150309395058F
:1041500011C08FEFDE01AF56BF4F8C93DE01A05729
:10416000BF4F8C93DE01A157BF4F8C93DE01A25746
:10417000BF4F8C93E22FF0E080916C01E81BF109B6
:10418000EC0FFD1F878987FF36C0012BA1F18981C4
:104190008770823029F580910A0190910B01069772
:1041A000D9F4E0916B03F0916C030190F081E02D64
:1041B00093818B81981310C00E94BF00898121E0F8
:1041C00030E030930B0120930A0160E0829581700A
:1041D0000E94231F0E94830C80916803882359F05A
:1041E00080916203811107C08AE1DF91CF911F9115
:1041F0000F910C94FD00DF91CF911F910F910C94C2
:10420000210D1092BC010E94BD000E941E0D8091E4
:104210006203882309F490C0DF91CF911F910F9121
:104220000C944E058E3309F087C00E94BD00E091CA
:104230006B03F0916C0380819181C817D90759F401
:104240000E94B900E0916B03F0916C038081918131
:10425000668101960DC00196C817D90779F40E94AE
:10426000B900E0916B03F0916C03678182819381C7
:10427000DF91CF911F910F910C94880983E090E01A
:1042800090930B0180930A0180911101909112018A
:104290008A30910509F444C08B30910509F446C079
:1042A000099709F049C08CE090E090931201809347
:1042B0001101209163013091640140916501509199
:1042C0006601211531054105510579F48FE090E033
:1042D000909312018093110180E00E948308DF9186
:1042E000CF911F910F910C94AA118091C2019091CE
:1042F000C301A091C401B091C501E0910801E11191
:104300001BC0E2E0E0930801BC01CD0160517109DE
:1043100081099109DF91CF911F910F910C94B209FE
:10432000DF91CF911F910F910C944210DF91CF91AB
:104330001F910F910C942F1FDF91CF911F910F911F
:1043400008954F925F926F927F928F929F92AF9259
:10435000BF92CF92DF92EF92FF920F931F93CF9372
:10436000DF93CDB7DEB768970FB6F894DEBF0FBE08
:10437000CDBFE2E8F3E020E030E0108511FFE8C1B6
:104380004080518062807380C480D580E680F78051
:104390004B015C0184189508A608B7088C149D048D
:1043A000AE04BF0408F4D4C110FF03C01D7F108702
:1043B0000AC0D301C2018C0D9D1DAE1DBF1D80839F
:1043C0009183A283B3832230B1F018F4213081F0BD
:1043D00006C0233009F4C1C0243009F473C180E061
:1043E0000E942801882309F4BAC10E941308B7C1AA
:1043F0000E941806B4C18091C101882309F4AFC19D
:104400001091BB01123039F490915E0280915F02ED
:10441000998B8A8B1BC020916E0230916F02409164
:1044200070025091710260917202709173028091DA
:10443000740290917502FE017196DE0159962193E6
:1044400008E00E945C32EA17FB07C9F7409060025F
:10445000509061020E94FB024C01009709F478C061
:104460000E941A033C01009709F46FC0D401119611
:104470009C938E93489615969C938E93149781E007
:1044800019968C93E0906002F0906102123019F45A
:1044900042E050E002C048E050E0BE016F5E7F4F56
:1044A000CE0101960E949332D401ED91FC9112301D
:1044B00010F483E204C04E145F04D9F783E68183CD
:1044C000812F880F880F806C828380917803898781
:1044D000809179038A8780917A038B8780917B030F
:1044E0008C8780917C038D8780917D038E8780915E
:1044F0007E038F8780917F03888BA180A6FAAA24F0
:10450000A0F8F401808191819E01275F3F4F6901EE
:1045100003E09E012F5F3F4FA201612F01960E9491
:10452000FC10D40116968C93169784E091E01396B4
:104530009C938E93129781E017968C93179786E041
:1045400018968C93C3010E94C102C4010E94DE022E
:104550000E9480190E94801902C10E94DD002B0177
:104560003C01440C551C661C771C809155028F3011
:1045700070F421E030E002C0220F331F8A95E2F789
:10458000A0ECB3E00E94FF319B01AC0104C020EC21
:1045900033E040E050E0A0916402B09165020E94D7
:1045A0000E326B017C0103E511E0812C912C54014A
:1045B000D801ED91FC91309709F44DC08091A5058B
:1045C0009091A605E817F90709F445C08481958103
:1045D0000E94AA00A70196010E941608D801ED9139
:1045E000FC911197882331F180858F7780871D9208
:1045F0001C9290917303915090937303A081B181A9
:1046000012969C919C70983031F490916A0491506C
:1046100090936A0407C09C3029F4909162059150F0
:104620009093620540EF50E0BF010E945C180E9429
:104630000F0611C0848195810E94AA00A3019201F6
:10464000261B370B480B590B82169306A406B5069A
:1046500010F449015A010E5F1F4F31E00136130774
:1046600009F0A6CF81149104A104B10409F477C024
:10467000C814D904EA04FB0410F446015701C81811
:10468000D908EA08FB080E94DD00660F771F881F23
:10469000991F60939D0370939E0380939F03909353
:1046A000A003C092A103D092A203E092A303F092D0
:1046B000A4038091A503816082608093A5030E947A
:1046C00022014DC08091B801811138C081E08093F2
:1046D000B8018091570590915805A0915905B09166
:1046E0005A054091790250917A0260917B02709153
:1046F0007C02840F951FA61FB71F40918E02509118
:104700008F0260919002709191024093A6035093A2
:10471000A7036093A8037093A9038093AA039093BF
:10472000AB03A093AC03B093AD038091AE03816063
:1047300082608093AE030E94220107C01092B801EC
:1047400080912C01811110922C010E94831407C0CA
:104750002F5F3F4F39962530310509F00ECE0E946C
:10476000220168960FB6F894DEBF0FBECDBFDF9171
:10477000CF911F910F91FF90EF90DF90CF90BF905E
:10478000AF909F908F907F906F905F904F90089523
:104790004F925F926F927F928F929F92AF92BF9251
:1047A000CF92DF92EF92FF920F931F93CF93DF93FD
:1047B000CDB7DEB762970FB6F894DEBF0FBECDBFA0
:1047C00090E08D31910510F00C941B2CFC01E15B05
:1047D000FF4F0C943B322FB7F894809111019091C8
:1047E0001201009711F42FBFF5C3049709F098C385
:1047F00081E090E018C08091B40581508093B405A9
:10480000882311F081E03DC02FB7F8948091110109
:10481000909112018430910509F482C3892B09F02B
:104820007FC382E090E090931201809311012FBF2B
:104830000E940E0C0C941B2C8FB7F8949091A3013E
:104840009093050192E090931D018FBF8091050127
:10485000813081F038F08230B9F0833009F4E8C05B
:104860000C941B2C80E00E944E01811185C00E9497
:104870001308E1C781E00E94EF07882309F4DBC732
:1048800080E00E94FD00D7C79FB7F89481E0809335
:1048900006051092AB018093680310927E029FBFC1
:1048A00082E00E944E01882319F00E940B1DC3C7AD
:1048B00082E00E94EF07BFC78091A5059091A605F1
:1048C000892B09F0B8C780917303882309F4B3C713
:1048D000E3E5F1E0819191910097F9F0DC01189600
:1048E0002C91189727FF19C09093A6058093A505D2
:1048F00020932F0127E018962C9320916D0421FF1F
:1049000006C01092A6051092A50583E0BACF0E94BA
:10491000B007892B09F48FC7F4CFB1E0E136FB076C
:10492000C9F689C7C0909502D0909602E090970290
:10493000F09098020E94DD00660F771F881F991F74
:104940006093820370938303809384039093850321
:10495000C0928603D0928703E0928803F092890385
:1049600080918A038160826080938A030E94220181
:1049700062C70E94381A5FC70E94761C5CC7E0912C
:10498000BB03F091BC0383818093560283818F5FC8
:10499000838340916D0350916E0360916F0370911A
:1049A000700340936A0250936B0260936C027093A1
:1049B0006D028091510390915203A0915303B091E5
:1049C0005403853CE9E09E07A105B10528F0845C0D
:1049D0009940A109B10903C080E090E0DC01409357
:1049E0008B0350938C0360938D0370938E0380939D
:1049F0008F0390939003A0939103B09392038091BF
:104A0000930381608260809393030E9422018091CE
:104A1000620182FF03C08B7F809362011092B30515
:104A20008091560280FF02C0D89805C7D89A03C764
:104A30000E94EB1700C780916D0480FDFCC6809139
:104A40001501882309F4F7C6E0911701F0E0EE0F95
:104A5000FF1FE25FFA4F00811181D80116968C91F9
:104A6000811105C00E9487048AE00E94FD00F801C0
:104A700080858093630320916D04822F81608093F1
:104A80006D048091550390915603892B09F0CBC694
:104A9000C8010E9486155BC08091640390916503F4
:104AA0006091A3057091A4051092190110926503FD
:104AB00010926403009709F44AC00E944C1947C041
:104AC000009155031091560380910C0590910D05AE
:104AD0000097D9F140913E0450913F046091400409
:104AE00070914104C0904B03D0904C03E0904D0373
:104AF000F0904E03CF82D886E986FA8649835A839E
:104B00006B837C831E830D832AE0FE013196A0EA2D
:104B1000B2E001900D922A95E1F70E9486150115E9
:104B2000110599F0E0910C05F0910D050190F081CF
:104B3000E02D8381D8012D913C91D90113969C9150
:104B40009383D801ED91FC9183831092AA050E9472
:104B5000831471C68091B801882309F46CC68091D2
:104B60002C01882309F467C610922C0164C683E0E7
:104B700090E09093800280937F025DC69FB7F89487
:104B800081E0809306058093AB01109268038093C7
:104B90007E029FBF81E090E09093800280937F022D
:104BA00082E00E940B0A47C680917403882309F4AF
:104BB00042C680915101909152012091860230911C
:104BC00087028217930791F410928702109286024F
:104BD00000910405109105050E944708012B19F466
:104BE0000E94E31728C01092620125C020912D0178
:104BF00030912E0182179307F1F40E94A104809155
:104C00001301811105C010922E0110922D010DC0CB
:104C1000E0911401F0E0EE0FFF1FED5BFC4F80818F
:104C2000918190932E0180932D018091510190915B
:104C300052010E94DE0210927403FDC5CE0101965E
:104C40000E94660A811107C08981909145029817D8
:104C500014F48093450220917B0130917C014091B6
:104C60007D0150917E016091630570916405809192
:104C70006505909166050E941608882309F474C1A1
:104C8000809145028D52809345020E94E2080E9465
:104C9000B9110E94150D84E090E090931201809369
:104CA00011019091450280914801882369F0E091BB
:104CB0009F05F091A00580916C0421E0280F2093BE
:104CC0006C04E80FF11D908390916C048091480171
:104CD000981303C081E0809361050E941308893016
:104CE00009F0A9C50E94BB04A6C58FB7F89490919E
:104CF00016058FBF8FB7F89421E020930605909397
:104D000016058FBF0E94EA0D0E94150D84E090E009
:104D1000909312018093110181E00E942801882361
:104D200009F489C58091C70381110E94C7046FE40B
:104D300072E080E00E94E41162E672E083E50E9486
:104D4000E41160E672E080E50E94E41161E572E042
:104D500083E00E94E41160E572E082E00E94E411C9
:104D60006EE472E080EF0E94E41181E00E940B0A81
:104D70008CE28093500260E572E082E00E94E411D0
:104D800081E393E4909363028093620262E672E0AF
:104D900083E50E94E411109246020E945C05809116
:104DA000620290916302019609F445C58091620107
:104DB000857009F040C582E791E89093670380937E
:104DC00066038AE1809325011092490110924A01FD
:104DD00010924B0110924C0185E080934204809325
:104DE000720591E0909378021092A701809362017E
:104DF000809167058F3009F01EC583E00E94171D62
:104E00001AC580911101909112018830910531F0FD
:104E100008F411C50F97039738F00DC580E00E9484
:104E2000830B811105CDD9C00E9453088111A4C004
:104E300080E00E94830B882309F49EC0F9CC80E0B7
:104E40000E94830B81110FC00E94EA0D8091110115
:104E500090911201079721F40E94E2080E946908CC
:104E60000E94150DE8C484E10CCD8FB7F8949091A1
:104E70000E01992311F08FBFDEC48FBF10B316FB54
:104E8000112710F980919F029091AA02981721F1A1
:104E9000181322C084E090E09093100180930F01DA
:104EA0008FB7F89491E090930E018FBF0E94BD00E0
:104EB0000E94B90060E070E08DE10E949E0A0E94AD
:104EC0008C0D0E94BD000E94E2080E94B911109250
:104ED0007A0182E10E94FD001093AA0285E1D1CC03
:104EE0009FB7F894809103019FBF882321F0813000
:104EF00009F476C0A0C4E0911101F091120131973C
:104F0000E131F10508F097C4E459FF4F0C943B32AE
:104F10002FB7F89480910F0190911001892B11F017
:104F20002FBF89C481E090E09093100180930F011E
:104F30002FBFDD9A44E150E060E070E080E00E9425
:104F4000360C79C40E94EA0D0E9469080E94DD00B7
:104F5000660F771F881F991F609363057093640520
:104F6000809365059093660581E18BCC0E94B6190C
:104F700062C40E941D0E5FC40E94001E5CC40E9499
:104F8000E2080E94B9111FB7F89480910F01909127
:104F90001001049779F482E090E0909310018093DF
:104FA0000F010E94BD000E94B90087E00E946208C4
:104FB0000E94BD001FBF1092100110920F01DE98D9
:104FC000DD98DE9A10927A010E94150D109212015E
:104FD000109211010E942B1B2EC40E94521D2BC443
:104FE0001FB7F89480919F019091A001892B09F43B
:104FF00018C40E94650915C41FB7F8946091B903DD
:105000007091BA038091A1059091A2051092BA0304
:105010001092B9031092A2051092A10510922B01D3
:1050200010922A0110926A03109269030E94DE1FF7
:10503000F8C38FB7F8949091AD019093000192E07E
:1050400090930C018FBF809100018111F4C30E94E5
:10505000BB000E94B90086E114CC0E941E0D8FB7E0
:10506000F8941092A00110929F018FBF83E109CCA8
:10507000E091CA03F091CB032081225080916C0112
:10508000281B8FB7F8948FBF8090CA039090CB03F2
:10509000822F90E0D401A80FB91F59963C913F7719
:1050A000D4013C93A80FB91F58968C91DF01AE56DE
:1050B000BF4F8C93D4018C91ED56FF4F80832C937E
:1050C0008091110190911201079709F0E5C21296A3
:1050D0008C91807390E041973CF080917F02909199
:1050E0008002039709F0D8C2F401818183FF07C0D1
:1050F00080917F0290918002039709F0CDC20E94B7
:105100004101853009F467C130F4882359F08230B9
:1051100009F455C1C1C2863009F4BAC28A3009F413
:10512000B7C2BAC280911A01882309F4B5C280912E
:105130009905833009F04BC080916C048111ACC299
:10514000D40111968C9111978770833009F0A4C215
:1051500058968C915897883009F09EC25A968C9137
:105160005A9790E0982F882759962C91822B9093EC
:1051700061028093600260E672E080E50E94E411C3
:10518000F401848D90E0982F8827238D822B9093B3
:105190005F0280935E02858D0E94F915D4015F96AF
:1051A0008C915F9790E0982F88275E962C91822BA8
:1051B000909363028093620262E672E083E50E944C
:1051C000E41180916C048F5F80936C0410C0F40133
:1051D0008181877009F060C280914702882309F4B9
:1051E0005BC280916C0490914801891758F081E06E
:1051F0008093610580918A038D7F80938A030E944A
:1052000013084AC200919F051091A005F2E28F9FFA
:10521000000D111D1124F0905F04D40112968C91A1
:105220001297982F9078903809F036C2829586951B
:1052300086958370F801808315968C91159790E080
:10524000982F882714962C911497822B9283818310
:1052500012968C911297807C803861F417968C910D
:10526000179790E0982F882716962C91822B94837D
:10527000838307C0B4016A5F7F4FC80103960E9411
:105280006610D8011B96FC921B971C961C921C97CB
:10529000F401808D1D968C931D97818D1E968C93A5
:1052A0001E97828D881F8827881F1F968C931F97B3
:1052B000ED56FF4F808150968C93C40182579F4FCB
:1052C0000E94AA00D80151966D937D938D939C9373
:1052D000549756961C921E92559757961C92579724
:1052E00058961C92589759961C9259975A961C9208
:1052F0005A975B961C925B975C961C925C975D96A6
:105300001C925D975E961C925E975F961C925F97CB
:1053100090961C92909791961C92E0919F05F09127
:10532000A00570906C04DF0122E2729EA00DB11DF9
:105330001124612C671409F47AC2218132811196FB
:105340008D919C91129728173907B1F580819C9116
:10535000891332C0823051F42381348113968D91A8
:105360009C9114972817390739F596C1833021F598
:105370002381348145815681678170851396AC9075
:1053800013971496BC9014971596CC901597169673
:10539000DC9016971796EC9017971896FC90189734
:1053A00019960C9119971A961C911A9781859285D6
:1053B0000E948A3209F470C16394B296BBCF809187
:1053C0007F0290918002039709F066C1D4018C910D
:1053D00080688C935DC1F40181818770833011F402
:1053E000808D8D5F1FB7F894863091F030F4813056
:1053F00051F0843009F43BC149C1873061F08930F4
:1054000009F435C143C1C4010E9453034C013EC19C
:10541000F40182812FC1D40112962C91B22FB07C5D
:10542000DB2EB7FF33C1322F3C70C40104963830F5
:1054300019F4C401089604C03C3011F4C4010E965E
:10544000F401318136FF01C023FF0296B3E56B2ED4
:10545000B1E07B2EE0E0F0E0ED2CF12CD3012D91BA
:105460003D913D0121153105A9F1D9016D917C9145
:10547000DB0112964C914C70B0E14B9FA0011124BE
:105480004E155F0539F56A5F7F4FA0E8CA2EDC1024
:1054900003C052E0C52E02C048E0C42EAC0100E0BB
:1054A000DB01AD90BD01DA01BD90AD01AB1003C0D1
:1054B0000F5F0C15A8F30C110DC0309751F020812F
:1054C0003181D90111964C911197406111964C93FD
:1054D00001C0F901B1E66B16B1E07B0609F0BECF61
:1054E000309739F080858068808783E00E94FD00D6
:1054F000CDC06090AF037090B0038091B70381116D
:10550000C5C0BE01655F7F4FC4010E94CC108111F0
:10551000BDC0C4010196F4016281262F2C7067FF83
:10552000B5C0283021F02C3021F0E3E003C0E7E0E3
:1055300001C0EDE0D40111963C91119736FF0BC0EC
:1055400063FF09C015964C91159750E0542F4427DE
:1055500014968C9108C0F0E0E80FF91F418150E0EB
:10556000542F44278081482B629566956695637019
:1055700030E03595279535952795A22FC3010196E3
:10558000E0906002F090610274E0679F6001112476
:10559000F301728173737C29F901B6E0EE0FFF1FEE
:1055A000BA95E1F77E2BF3017283223071F4E0911A
:1055B0006202F0916302FA83E9834E155F05F9F404
:1055C000F30171817064718321C0709178037983D4
:1055D000709179037A8370917A037B8370917B0356
:1055E0007C8370917C037D8370917D037E837091B9
:1055F0007E037F8370917F037887A230F0F6D3011A
:1056000011967C9111977F7B11967C93F301A18079
:10561000A6FAAA24A0F8DE0111966D01022F9E01C0
:10562000255F3F4F0E94FC10E091AF03F091B00363
:10563000818181608183F3016281818183FD03C067
:10564000A6010E94380589818093B50387E0809385
:10565000B70380916D0481FF03C01092B70316C099
:105660008FEA93E00E94B007892BB9F70FC0D401ED
:1056700012968C918295869586958370833031F44D
:10568000BE016F5F7F4FC4010E94CC101FBF04C0DA
:10569000C4010E9453034C019092CB038092CA0331
:1056A0008FB7F8941092BC018FBF0E94210DC3C028
:1056B0008091A80181113CC0C0906E05D0906F050B
:1056C000E0907005F09071058FE00E9439034B0166
:1056D0005C01C0926E05D0926F05E0927005F09269
:1056E00071051092A8011FB7F8940E94DD00681997
:1056F00079098A099B09660F771F881F991F4B013B
:105700005C016C157D058E059F0510F4460157015F
:1057100075016401C61AD70AE80AF90AB701A60199
:1057200076956795579547958FE00E94360C1FBF79
:105730000E94DD00660F771F881F991F40C00E94DE
:10574000DD002B013C01440C551C661C771C8FE0CE
:105750000E94A100E2E8F3E020E0CC24CA94DC2C13
:10576000EC2C4FE7F42E808581FF1AC08081918157
:10577000A281B381B301A201481B590B6A0B7B0BB9
:1057800084819581A681B781841B950BA60BB70BED
:105790008C159D05AE05BF051CF46C017D0121E053
:1057A000399643E0EF3AF407F1F6222309F443C0B7
:1057B0001C141D041E041F042CF0C301B2010E941E
:1057C000A12139C0C0926E05D0926F05E09270059C
:1057D000F092710581E08093A8011FB7F8940E94B0
:1057E000DD00660F771F881F991F641975098609E8
:1057F00097092B013C016C157D058E059F0510F462
:105800002601370173016201C61AD70AE80AF90AAC
:10581000B701A60176956795579547958FE00E9449
:10582000360C1FBF08C02E7F20936D0404C0639404
:1058300060926C0431CF62960FB6F894DEBF0FBE53
:10584000CDBFDF91CF911F910F91FF90EF90DF902F
:10585000CF90BF90AF909F908F907F906F905F9010
:105860004F9008958FB7F89408958FBF08951F92B1
:105870000F920FB60F9211240BB60F922F933F93F6
:105880004F935F936F937F938F939F93AF93BF9348
:10589000EF93FF930E94D700FF91EF91BF91AF91DB
:1058A0009F918F917F916F915F914F913F912F9138
:1058B0000F900BBE0F900FBE0F901F9018951F9268
:1058C0000F920FB60F9211240BB60F922F933F93A6
:1058D0004F935F936F937F938F939F93AF93BF93F8
:1058E000EF93FF930E94D700FF91EF91BF91AF918B
:1058F0009F918F917F916F915F914F913F912F91E8
:105900000F900BBE0F900FBE0F901F9018957894BC
:105910001F920F920FB60F9211240BB60F922F9376
:105920003F934F935F936F937F938F939F93AF9327
:10593000BF93CF93EF93FF930E94BF007894CFB7AC
:10594000F89480918A0290918B02A0918C02B09180
:105950008D02892B8A2B8B2B51F580910A01909116
:105960000B018430910528F18630910550F006979F
:1059700001F581E090E090930B0180930A016BE0C8
:1059800010C00E94BD000E94B90089E00E94620818
:105990000E94BD0081E090E090930B0180930A018A
:1059A00067E080E00E94231F0E94830C02C00E94D7
:1059B0006603CFBFFF91EF91CF91BF91AF919F91C0
:1059C0008F917F916F915F914F913F912F910F90A8
:1059D0000BBE0F900FBE0F901F90189578941F92DA
:1059E0000F920FB60F9211240BB60F92AF92BF9287
:1059F000CF92DF92EF92FF920F931F932F933F93DB
:105A00004F935F936F937F938F939F93AF93BF93C6
:105A1000CF93DF93EF93FF9387B7877F87BF789408
:105A2000BFB6F8948091AE019091AF01A091B00102
:105A3000B091B101892B8A2B8B2B09F048C081E0F2
:105A40008093020502EF14E0C2E7D4E0A12CF80134
:105A50008081882381F1C880D980EA80FB800E9400
:105A6000DD006C197D098E099F09CC80DD80EE80F8
:105A7000FF806C157D058E059F05E8F0F80110820A
:105A8000F7E0AF16B1F0FA1540F0AA2079F082E005
:105A9000A81211C00E94AD0E0EC0E8E0AE1649F08B
:105AA000FFE0AF1208C00E94250105C00E941C0B38
:105AB00002C00E948314A3940F5F1F4F289680E1B9
:105AC000A812C5CF109202050E94750502C00E945F
:105AD0008401BFBEFF91EF91DF91CF91BF91AF9154
