S01800006275696C642F6D6963617A2F6D61696E2E73726563E5
S11300000C9480000C94DB300C94E5300C94EF30AD
S11300100C94F9300C9403310C940D310C94173179
S11300200C944B310C949F000C949F000C94B02FB3
S11300300C94A72D0C940E2E0C94BE300C94572DBA
S11300400C947F2D0C9455310C949F000C949F00BC
S11300500C949F000C949F000C949F000C949F00A0
S11300600C94A72E0C949F000C949F000C949F005A
S11300700C949F000C949F000C949F000C949F0080
S11300800C949F000C949F000C949F00B013BB131E
S1130090DF136F147214751478147B147E14FA230E
S11300A00A242B247024AA24B724BB24BF24392D6A
S11300B01A251E2552256625B025BD25C425DA2519
S11300C029268026052723273927742700281D2859
S11300D031283C28902BD72BC3278C27A627392DD2
S11300E0BA27392D392DF127BD27BD27BD27392D35
S11300F0392D392DC027C027C02700081C1814101B
S113010011241FBECFEFD0E1DEBFCDBF11E0A0E0D0
S1130110B1E0EAE8F7E600E00BBF02C007900D92F9
S1130120A830B107D9F715E0A8E0B1E001C01D92ED
S1130130A23CB107E1F70E94BC310C94C3330C9488
S113014000009FB7F894E82FF0E0E350FB4F1082D3
S11301509FBF0895FC0120816181862F90E0A0E07B
S1130160B0E077276627922B2381622B2281722BA2
S11301700895C0980895B89A0895C09A089587B7C5
S11301808F7E87BF08958091A1058F3F71F0E82F7E
S1130190F0E0ED57FE4F90819093A1059F3F11F43D
S11301A09093B9059FEF908308958FEF089583B7D7
S11301B083BF00B600FCFDCF08950F931F938FB744
S11301C0F89460917403709175030CB51DB506B66F
S11301D002FE04C06F5F7F4F0CB51DB58FBFCB010E
S11301E0A0E0B0E07727662720E030E0602B712B99
S11301F0822B932B1F910F9108959FB7F894E82FAA
S1130200F0E0ED57FE4F20812F3FC9F421E030E0AC
S1130210E091B905E81711F020E030E0232B79F4E0
S11302202091A1052F3F19F48093A10504C0F0E0AB
S1130230ED57FE4F80838093B90580E001C085E0CF
S11302409FBF08958CE10C94FD008BE10C94FD009C
S11302509FB7F89420910501281307C080911D01D0
S1130260823019F49FBF81E008959FBF80E0089514
S11302709FB7F894E82FF0E0E350FB4F80819FBFD5
S113028008959FB7F89480911D01823019F09FBFA3
S11302908FEF0895809105019FBF0895CF93C82FD4
S11302A00E944101C8130AC081E0209111013091DC
S11302B012012430310519F080E001C085E0CF91AE
S11302C008958091A5029091A6029093590380937A
S11302D05803E1EAF2E086819781A085B185809395
S11302E04E0390934F03A0935003B0935103808126
S11302F09181A281B3818093490490934A04A0938D
S11303004B04B0934C040895CF92DF92EF92FF9286
S11303100F931F930E94DD00C0902601D090270107
S1130320E0902801F09029010091AF011091B001F3
S11303302091B1013091B2010C0D1D1D2E1D3F1DE8
S11303406C157D058E059F0530F00C151D052E05D9
S11303503F0558F005C00C151D052E053F0590F509
S1130360601771078207930768F568017901C61A57
S1130370D70AE80AF90A41E0C41640E8D406E104C1
S1130380F10418F18B019C0110582F4F3F4F00933B
S11303902601109327012093280130932901970106
S11303A086011058210931090093AF011093B0015F
S11303B02093B1013093B201C12C50E8D52EE12C29
S11303C0F12C13C0C12CD12C76010093260110937B
S11303D0270120932801309329011092AF01109234
S11303E0B0011092B1011092B2014CB55DB54D5FF0
S11303F05F4F9A01261B370B2C153D0518F4AB01F2
S11304004C0D5D1D4115510511F441E050E0415082
S1130410510959BD48BD88E086BF87B7886087BF4A
S11304201F910F91FF90EF90DF90CF900895CF939D
S1130430CFB7F89410920B0110920A010E94BF00EA
S113044087B78F7D87BF0E94BD00CFBF80E0CF916B
S11304500895CF92DF92EF92FF920F931F930E9421
S1130460DD00C0901305D0901405E0901505F090C0
S113047016050091BE011091BF012091C001309179
S1130480C1010C0D1D1D2E1D3F1D6C157D058E0516
S11304909F0530F00C151D052E053F0558F005C0CD
S11304A00C151D052E053F0590F560177107820791
S11304B0930768F568017901C61AD70AE80AF90AA8
S11304C041E0C41640E8D406E104F10418F18B01BC
S11304D09C0110582F4F3F4F0093130510931405A0
S11304E020931505309316059701860110582109AC
S11304F031090093BE011093BF012093C0013093D2
S1130500C101C12CE0E8DE2EE12CF12C13C0C12C7A
S1130510D12C76010093130510931405209315052F
S1130520309316051092BE011092BF011092C001C3
S11305301092C1014CB55DB54D5F5F4F9A01261B0A
S1130540370B2C153D0518F4AB014C0D5D1D411501
S1130550510511F441E050E04150510950937900A4
S11305604093780081E080937C0080917D008160DD
S113057080937D001F910F91FF90EF90DF90CF90BB
S11305800895409152034330B8F45091A805242FA4
S113059030E0250F311D2330310510F0235031098F
S11305A0F901EE0FFF1FE654FA4F918380834F5FEA
S11305B04093520380E0089581E0089540915303ED
S11305C04430B8F450918A02242F30E0250F311DB5
S11305D02430310510F024503109F901EE0FFF1FCA
S11305E0E559FB4F918380834F5F4093530380E031
S11305F0089581E00895309153033323C1F020918D
S11306008A02E22FF0E0EE0FFF1FE559FB4F8081D5
S11306109181118210823150309353032F5F243023
S113062019F020938A02089510928A02089580E0B6
S113063090E00895309152033323C1F02091A8052E
S1130640E22FF0E0EE0FFF1FE654FA4F8081918114
S1130650118210823150309352032F5F233019F0EE
S11306602093A80508951092A805089580E090E0CD
S113067008950F931F934FB7F89498E0899FF00162
S11306801124E358FB4F6481758186819781008131
S1130690118122813381600F711F821F931F4FBF0D
S11306A01F910F910895CF92DF92EF92FF920F93D3
S11306B01F930E94DD00C0909A02D0909B02E090AC
S11306C09C02F0909D0200918B0210918C0220916B
S11306D08D0230918E020C0D1D1D2E1D3F1D6C15BB
S11306E07D058E059F0530F00C151D052E053F0573
S11306F058F005C00C151D052E053F0590F5601733
S113070071078207930768F568017901C61AD70A49
S1130710E80AF90A41E0C41640E8D406E104F10409
S113072018F18B019C0110582F4F3F4F00939A02F0
S113073010939B0220939C0230939D0297018601A3
S113074010582109310900938B0210938C022093D5
S11307508D0230938E02C12C20E8D22EE12CF12C94
S113076013C0C12CD12C760100939A0210939B02E2
S113077020939C0230939D0210928B0210928C0263
S113078010928D0210928E024CB55DB54D5F5F4F95
S11307909A01261B370B2C153D0518F4AB014C0DA3
S11307A05D1D4115510511F441E050E041505109DE
S11307B05BBD4ABD80E186BF87B7806187BF1F915B
S11307C00F91FF90EF90DF90CF9008952F923F927A
S11307D04F925F926F927F928F929F92AF92BF924D
S11307E0CF92DF92EF92FF920F931F93EFB7F8949B
S11307F08091830290918402A0918502B091860237
S11308001C012D019C01A20160E070E080E090E0F9
S113081003E00E94613351016201E12CF12C00E0FC
S113082010E00E94A13359016A017B01F82F192FAE
S113083003E00E9461330F2F0E94A13359016A0122
S11308407B01F82F192F03E00E9461330F2F0E94C0
S1130850A13359016A017B01F82F192F03E00E948B
S113086061330F2F0E94A13359016A017B01F82FD4
S1130870192F03E00E9461330F2F0E94A13301E07E
S11308800E94613329013A0100E20E947C3349014C
S11308905A01C301B2019695879577956795680DBE
S11308A0791D8A1D9B1D97FF05C09F776F5F7F4F42
S11308B08F4F9F4F609383027093840280938502CD
S11308C090938602EFBF1F910F91FF90EF90DF90FE
S11308D0CF90BF90AF909F908F907F906F905F90DC
S11308E04F903F902F90089530911701E32FF0E03F
S11308F0EE0FFF1FE75EFA4F808191812091150171
S1130900222359F03F5F343019F03093170102C0AD
S1130910109217012150209315010895309114016C
S1130920E32FF0E0EE0FFF1FEA5BFC4F8081918123
S113093020911301222359F03F5F343019F0309392
S1130940140102C010921401215020931301089540
S113095080916A04811102C086E004C08F5F809395
S11309606A0485E00C94FD00FF920F931F93CF93CC
S1130970DF938AE18093500280E88093510213E070
S1130980109352021092530210924D021092470299
S1130990FF24F394F09248021092490286E0809377
S11309A05402109255020FE00093560210926B020B
S11309B010926C0210926D0210926E020E94E60375
S11309C060935702CFEFDFEFD0936002C0935F02D2
S11309D00E94E60360935802F0924A0285E08093F5
S11309E05C0284E08093590210935D0210935A02D2
S11309F0D0936202C093610210924B0280E2809312
S1130A005E0210924C0210924E02D0936402C09384
S1130A10630200935B0284EF91E0909366028093FB
S1130A20650210924F0282EC97E0A0E0B0E0809360
S1130A30670290936802A0936902B0936A02DF91FF
S1130A40CF911F910F91FF90089563FF04C062FD41
S1130A5004C097E003C093E001C09DE067FF07C0B6
S1130A6086FF02C09E5F01C09C5F66FD9A5FFA012B
S1130A70908380E0089580916503882349F0109263
S1130A8065031092A1011092A00189E10C94FD006C
S1130A9008959FB7F89480918902816080938902B8
S1130AA09FBF0895813419F08D3419F008950C9482
S1130AB049059FB7F89480918902826080938902E6
S1130AC09FBF08954F925F926F927F928F929F92F1
S1130AD0AF92BF92CF92DF92EF92FF920F931F9348
S1130AE0CF93DF930E94DD00CDEFD4E040E04424B7
S1130AF04A94542C3201EDE7F4E029912223C1F108
S1130B0080809180A280B3806B017C01C818D908D1
S1130B10EA08FB080481158126813781C016D106B5
S1130B20E206F30668F0080D191D2A1D3B1D00831B
S1130B3011832283338314821582168217820CC098
S1130B4060837183828393830C191D092E093F09E5
S1130B500483158326833783048115812681378195
S1130B60401651066206730618F02801390141E067
S1130B70389624E0ED3FF20709F0BFCF442341F15A
S1130B8077FE04C076946794579447946093260143
S1130B907093270180932801909329014092AF011B
S1130BA05092B0016092B1017092B201DF91CF9185
S1130BB01F910F91FF90EF90DF90CF90BF90AF9077
S1130BC09F908F907F906F905F904F900C948401D2
S1130BD087B7877F87BFDF91CF911F910F91FF90D8
S1130BE0EF90DF90CF90BF90AF909F908F907F90C9
S1130BF06F905F904F9008959FB7F8948091890209
S1130C008460809389029FBF08956F927F928F9230
S1130C109F92AF92BF92CF92DF92EF92FF920F9387
S1130C201F93CF93DF93D090B801CFB6F8948091FF
S1130C30C005813011F4CFBE71C1A0908902A2FE1B
S1130C40B6C0E5E5F1E0912C68EFC191D191209710
S1130C50C1F10990D881C02D8A818C708C3089F5BE
S1130C6026968AE092E070E010E0191599F0783049
S1130C7081F1AE019C0170E0DA01FD90AD01D90172
S1130C800D919D01F01203C07F5F7830A9F71F5FBB
S1130C900897EBCF7830E9F09394492D64039001E1
S1130CA0112480E090E029533E4F79910196A901E7
S1130CB0480F591F465B5F4FDA017C9388309105DA
S1130CC0A1F7B1E0E336FB0721F027E0291508F08E
S1130CD0BCCF092D10E048EF4003C00111248E5E03
S1130CE09D4FE5E5F1E0B12C7C0152E0E51AF108F5
S1130CF0C191D191209769F10990D881C02D2A81A1
S1130D002C70283031F52F8130E0322F22274E818C
S1130D10242B732E612CD301A22B9D01A701812CBE
S1130D208B1471F0EA0169814250510970E0762F09
S1130D306627C8816C2B2617370791F08394F0CF70
S1130D40B394EC01B2E0BB9EC019D10911242883ED
S1130D50398321E0E336F20719F036E03B1540F61B
S1130D602CEF2003F001219FF00D1124EB19F10960
S1130D70EE0FFF1FEF5EFD4FB4E0000F111FBA9599
S1130D80E1F70B290083990C990C9B0C990C939413
S1130D9082E192E08919910920910E05921669F079
S1130DA090920E052A2D2F602093890206C020916F
S1130DB00E0582E192E0821B9109A0918902A1FFB4
S1130DC03AC09C01275C3140222329F0FC01319771
S1130DD0108261E001C060E0EC01C61BD1092881EA
S1130DE0277030E0D12C70E0472F50E042175307B2
S1130DF064F4FE0143E0749FE00DF11D112444816D
S1130E0042954F70D40E7F5FEFCF2091780162132B
S1130E100CC04FE050E04D1951092091820130E09F
S1130E20215031094217530759F060937801AF609C
S1130E30A093890205C020917801EC01C21BD1095D
S1130E40DE0112974091890240FF1FC02091CC031C
S1130E5050E1259F9001112430917205322B3C936F
S1130E60FE01129280914702882311F080E880836A
S1130E7080914F02882319F08081806480838D2DB6
S1130E8080958F709081892B808380910E0590913D
S1130E907801890F8E5F90915B03890F8093C5035E
S1130EA0B093C103A093C003407F40938902CFBE97
S1130EB0E091BE03F091BF03809157028F5F83835B
S1130EC0DFB7F8948091C005813039F1C09189026F
S1130ED0C4FF15C010915A0300917401802F90E053
S1130EE0412F50E06091AA017091AB018E5E9D4F3D
S1130EF00E94B333C5FF03C0100F10935B038091AE
S1130F000E0590917801890F8E5F90915B03890F94
S1130F108093C503CF70C0938902DFBFDF91CF9167
S1130F201F910F91FF90EF90DF90CF90BF90AF9003
S1130F309F908F907F906F90089520911501243099
S1130F40E0F430911601E32FF0E0EE0FFF1FE75EAF
S1130F50FA4F9183808381E0830F843019F080936A
S1130F60160102C0109216012F5F209315018AE02A
S1130F700E94FD0080E090E0089581EF90E00895E4
S1130F80CF93CFB7F8948091A0019091A101892BC0
S1130F9019F4CFBF89E00EC081E08093650389B75F
S1130FA08F7B89BF8091BD01811102C00E943B05E6
S1130FB0CFBF80E0CF910895CF93C82F0E94410105
S1130FC0C8131BC02FB7F89480911101909112019E
S1130FD08430910519F42FBF89E010C0079719F0E8
S1130FE02FBF81E00BC088E090E0909312018093C2
S1130FF011012FBFCF910C94C00785E0CF910895C4
S113100080E00C94DC07CF92DF92EF92FF92CF93B3
S1131010DF9300D000D0CDB7DEB76B017C0129830C
S11310203A834B835C830E94DD00660F771F881F21
S1131030991F6C197D098E099F09E1E029813A8184
S11310404B815C81621773078407950708F4E0E01D
S11310508E2F0F900F900F900F90DF91CF91FF90F4
S1131060EF90DF90CF900895CF92DF92EF92FF92AE
S1131070CF93C82F6A017B010E94DD0029E0C29F43
S1131080F0011124EB57FC4F660F771F881F991F3F
S11310906083718382839383C482D582E682F782DC
S11310A08085816082608087CF91FF90EF90DF9090
S11310B0CF900C942201CF93DF93EC018881998126
S11310C00E94C102CE01DF91CF910C94DE029FB742
S11310D0F89481E020910301211180E09FBF0895DD
S11310E06E9A8FB9779BFECF8FB108959091760455
S11310F091110C94700880E00895CF93CFB7F894C1
S11311000E946708811103C0CFBF81E00EC00E9416
S1131110BD000E94B90083E00E9476088BE00E9423
S113112076080E94BD00CFBF80E0CF9108951F9341
S1131130CF93DF931F92CDB7DEB720910A01309190
S11311400B012330310509F049C089830E94BD0099
S11311500E94B9008981882311F085E001C084E0F0
S11311600E94760883FD09C080E00E94760883FB14
S1131170112710F981E0182701C011E00E94BD0079
S113118011112EC084E090E090930B0180930A012A
S1131190E0916E03F0916F030480F581E02D8FEFF1
S11311A083838283818380830E94DD0060939A021B
S11311B070939B0280939C0290939D0280EE91E039
S11311C0A0E0B0E080938B0290938C02A0938D02F8
S11311D0B0938E020E94530380E003C084E001C0F8
S11311E081E00F90DF91CF911F910895CF93CFB7F6
S11311F0F8940E946708811103C0CFBF81E00BC03F
S11312000E94BD000E94B90086E00E9476080E94F8
S1131210BD00CFBF80E0CF910895CF92DF92EF92CF
S1131220FF920F931F93CF93DF930091AE0510911C
S1131230AF05E090BC03F090BD03C0916C03D09166
S11312406D0320912A0130912B01CE010A962817B3
S1131250390708F4C9016C0121E0C21AD108CC1580
S1131260DD05A0F40115110529F0F801EC0FFD1FAF
S1131270808101C080E00E947008E114F10421F033
S1131280F701EC0FFD1F80832196E9CF6F9A0115BA
S1131290110531F0F801EC0FFD1F80818FB901C0F9
S11312A01FB8D0936D03C0936C0380E0DF91CF919E
S11312B01F910F91FF90EF90DF90CF90089550937E
S11312C02B0140932A019093AF058093AE05709350
S11312D0BD036093BC0310926D0310926C03452B05
S11312E019F08FB10C940D0987E10E94FD0080E094
S11312F00895CF93DF930E94BD000E94B900C0916E
S1131300CD03D091CE0380917604882391F08FE7AA
S113131090E09093AD028093AC028FE70E94700836
S113132041E050E0BE0180E090E0DF91CF910C9469
S11313305F09DF91CF910895EF92FF921F93CF93AE
S1131340DF931F92CDB7DEB77C01809176048823AA
S1131350A9F08EE390E09093AD028093AC028EE30B
S113136069830E947008182F6981462F50E060E05D
S113137070E0C7010E945F09812F01C080E00F90D7
S1131380DF91CF911F91FF90EF9008958F929F92DC
S1131390AF92BF92CF92DF92EF92FF92CF93DF93FF
S11313A000D000D0CDB7DEB74B015C0129833A836E
S11313B04B835C830E94DD006B017C01CC0CDD1C43
S11313C0EE1CFF1CC818D908EA08FB08460157019F
S11313D029813A814B815C81C216D306E406F50665
S11313E010F449015A010E94DD00609313057093C3
S11313F014058093150590931605D501C4018C1925
S11314009D09AE09BF09B695A795979587958093D1
S1131410BE019093BF01A093C001B093C1010F908E
S11314200F900F900F90DF91CF91FF90EF90DF908E
S1131430CF90BF90AF909F908F900C9429020F9300
S11314401F93CF93CFB7F89490911D01923071F40C
S11314509091050198130AC08091830381110EC0F5
S113146080918403882309F43EC008C090E0CFBF74
S113147081E08927CF911F910F91089520911E013A
S113148030E0C901019661E070E08C30910511F4FF
S113149080E090E0E82FE695E695E695F0E0ED57DC
S11314A0FC4FA081482F47708B0102C0000F111F11
S11314B04A95E2F7A801BA2FB02331F040954A23A8
S11314C0408380931E0106C08217930711F0019692
S11314D0DCCF8FEF8093A40181E080931D0182E033
S11314E00E94FD0005C08FEF8093050110921D013D
S11314F091E0BDCFEF92FF920F931F93CF93DF93B1
S11315008C01FFB6F8940E946708882311F10E94A9
S1131510BD000E94B90080917604882381F083E5A0
S11315200E947008E82E80E00E947008C82FD0E066
S1131530DC2FCC2780E00E947008C82B01C0E12C6E
S11315400E94BD00E1FE05C0F801C083FFBE80E03B
S113155002C0FFBE81E0DF91CF911F910F91FF90F8
S1131560EF900895CF93DF9300D0CDB7DEB79FB748
S1131570F89420917604222389F09FBF6A837983AB
S11315800E9470087981872F0E9470086A81862FD3
S11315900F900F90DF91CF910C9470089FBF80E063
S11315A00F900F90DF91CF9108958091210590E0E5
S11315B00B9725E0289FB001299F700D11246B59CA
S11315C07E4F706488E10C94B20AE1E080916B0371
S11315D0811101C0E0E041E080917501811101C0F9
S11315E040E021E08091AC01811101C020E08091B4
S11315F07F02882351F051E030E08091120581117F
S113160001C050E0852F932F02C080E090E06091EC
S1131610A90530E4639FB001112462627260F0E0B6
S1131620FE2FEE27F295FF0FF07E6E2B7F2B50E0FE
S1131630542F44275295507F642B752B30E0322F62
S11316402227330F330F330F622B732BA4E0880F41
S1131650991FAA95E1F7682B792B81E10C94B20AC2
S113166080910F01909110010197F1F582E090E0D3
S11316709093100180930F01DE98DE9A80910F0100
S113168090911001029781F583E090E0909310010E
S113169080930F010E94BD000E94B90068E170E0D0
S11316A08DE10E94B20A81E08093A00210920E01A3
S11316B080B386FB882780F98093AB0285E10E9482
S11316C0FD0081E00E9476086FE772E08CE10E94E1
S11316D0B20A0E94D50A0E94E50A66E57AE287E129
S11316E00E94B20A0C94BD00089597B79F7D97BFDE
S11316F090E296BF882319F08EB5806402C08EB53F
S11317008F7B8EBD87B7806287BF80E008956E9817
S1131710BA9ABB98B99A0E94BB006C9A6F986B985E
S11317206A986E9A709A8DB18C7F8DB908951F93C3
S1131730CF93DF931F92CDB7DEB71FB7F894909184
S1131740760491111FC091E09093760420910001DA
S113175090910C01211102C0923079F0911115C0C1
S113176092E090930C011092000189830E94870BF0
S11317700E94BB000E94B90089818093030180E02C
S11317801FBF07C01FBF85E004C01092760481E02C
S1131790F7CF0F90DF91CF911F910895CF93CFB7DB
S11317A0F8949091760491110FC091E0909376048F
S11317B0809303019091000180910C01911110C05C
S11317C0823071F486E118C021E030E001C0220FBC
S11317D08A95EAF780910D01822B80930D012EC02A
S11317E0882349F180910C01811109C081E0809323
S11317F00C011092AE0188E10E94FD001FC080918F
S1131800B7018F3FD9F481E090E0E0910101EE232C
S113181011F080E090E0892B89F4809102018F3FE0
S113182019F41092020104C0F0E0E954FE4F108252
S11318301092010103C00E94870BD4CFCFBF80E078
S1131840CF91089580E00C94CE0B8091A0019091EB
S1131850A101892BF1F08091650381111AC083E005
S113186090E09093A1018093A00181E08093BD0159
S11318709FB7F894809103019FBF813011F40C94B9
S1131880790981E00E94970B8823C9F381E00C94C5
S1131890CE0B0895CF92DF92EF92FF92CF93DF9316
S11318A0C82F6A017B010E94DD00DFB7F8942C2F5A
S11318B030E0F901B3E0EE0FFF1FBA95E1F7E3580A
S11318C0FB4F6083718382839383C482D582E682D3
S11318D0F782F901E350FB4F81E0808380910D058D
S11318E0811102C00E946205DFBFDF91CF91FF909A
S11318F0EF90DF90CF900895CF93CFB7F894809175
S11319000A0190910B01019719F4CFBF89E00DC032
S113191081E00E94750B81E090E090930B0180932D
S11319200A0110920901CFBF80E0CF910895809100
S11319300D0181114EC0809103018F3F09F049C010
S113194080917604811145C081E080934A0580919D
S11319507B01811110924A0580914A058823B9F1CF
S113196080910001811104C080910C01823099F1B1
S113197080910C01823029F580910001811121C0F0
S1131980809102018F3FC9F09FEF90930001E82FEF
S1131990F0E0E954FE4F9081909302019F3F11F4CF
S11319A0909301019FEF90838093AE0181E0809337
S11319B00C0188E10E94FD0004C080930001109294
S11319C00C0180910C01811109C06E9807C085E05B
S11319D0089581E008950E94BD00CACF80E0089573
S11319E0CF93CFB7F89490910301981719F0CFBF14
S11319F081E02DC08FEF8093030170910D0171116F
S1131A0005C0109276040E94970C1CC060E0872FDA
S1131A1090E06170AC01062E02C0559547950A947A
S1131A20E2F740FF12C06093030181E090E001C03F
S1131A30880F6A95EAF78095872380930D0186E1E4
S1131A400E94FD00CFBF80E002C06F5FE2CFCF9164
S1131A500895CF93CFB7F89480E00E94F00CCFBFE5
S1131A60CF91089581E00C94F00CCF93CFB7F89404
S1131A708091A0019091A101892B09F11092BD01DF
S1131A8080916503882319F00E943B051AC0809158
S1131A90AD01882311F0B79904C00E9908C08823BA
S1131AA019F081508093AD010E94250C0AC082E098
S1131AB090E09093A1018093A0011092AD010E9447
S1131AC0320DCFBFCF91089580E8809373011092B7
S1131AD0BD011092A7051092A0051092AD010E94BD
S1131AE0BD000E94B90088E00E94760888E00E9448
S1131AF076080E94BD000E94320D0C94350D0F93A0
S1131B00CF9320917B0330917C0340917D035091CE
S1131B107E0360917F0370918003C0918103B09133
S1131B208203FC01A8E021938C2F9B2F08E00E94E4
S1131B307C33C82FB92FA150B1F7CF910F910895DD
S1131B40EF92FF920F931F93CF93DF93CDB7DEB73E
S1131B502C970FB6F894DEBF0FBECDBF1FB7F89415
S1131B60CE0101960E947F0D9091770280917802B8
S1131B7099878A8790919E0280919F029B878C8788
S1131B801FBF21E08091770290917802019609F0BD
S1131B9020E0722F770F770F770F60E06F67726026
S1131BA08CE10E94B20A8FB7F89490917604911157
S1131BB002C08FBF16C08FBF80EE0E94700880E8FD
S1131BC00E9470088E010F5F1F4F7E018DE0E80EAA
S1131BD0F11CF80181918F010E9470080E151F05F8
S1131BE0C1F72C960FB6F894DEBF0FBECDBFDF91C0
S1131BF0CF911F910F91FF90EF900895CF93CFB79E
S1131C00F8940E946708811103C0CFBF81E027C008
S1131C1080911105882309F10E94BD000E94B9003A
S1131C2086E00E9476080E94BD000E94B9000E94CE
S1131C30D50A0E94E50A60917E0270E0606E7068C9
S1131C4085E10E94B20A0E94BD000E94B9000E9470
S1131C50A00D0E94BD0010921105CFBF80E0CF916E
S1131C600895CF930E94FE0D0E947C0CE0917304B2
S1131C70F0917404CFB7F89480910A0190910B010C
S1131C80019729F582E090E090930B0180930A017B
S1131C90F0936F03E0936E03A081B18186819781F5
S1131CA0890F8E5F8C930E94BD000E94B90089E069
S1131CB00E9476080E94BD000E94B900E0916E0364
S1131CC0F0916F0361E0808191810E949C09CFBFF4
S1131CD0CF9108950E94670881110C94310E80E021
S1131CE00E94970B8823C9F30C94220C0F931F9323
S1131CF0FC01009709F441C080819181892BE9F1AD
S1131D0082819381892B19F48781811136C0848162
S1131D109581892B91F1A681878190E08A0F911D8D
S1131D208E37910554F5AFB7F894809111019091D5
S1131D301201049719F0AFBF81E020C089E090E060
S1131D409093120180931101AFBFF0937404E09358
S1131D5073044093C3015093C4016093C50170930D
S1131D60C6010093640110936501209366013093CA
S1131D7067010E946A0E80E001C086E01F910F9106
S1131D800895CF92DF92EF92FF920F931F93CF9318
S1131D90DF9300D000D0CDB7DEB781E08093C005DB
S1131DA080917703E091BE03F091BF03811115C0C8
S1131DB08091870290918802892B61F481E090E000
S1131DC020912D0130912E01232B11F480E090E01D
S1131DD0892B19F08181806102C081818F7E81838A
S1131DE080919E05882351F010929E051092B301B4
S1131DF01092B4011092B5011092B601C090B301D3
S1131E00D090B401E090B501F090B6014091700318
S1131E1050917103609172037091730349835A83E3
S1131E206B837C830E94410149815A816B817C814F
S1131E30833031F4970186018EEB93E00E94760E95
S1131E400F900F900F900F90DF91CF911F910F91F2
S1131E50FF90EF90DF90CF9008954F925F927F9222
S1131E608F929F92AF92BF92CF92DF92EF92FF92A6
S1131E700F931F93CF93DF9300D000D0CDB7DEB77D
S1131E80109182012091790430917A0440917B046D
S1131E9050917C0485E029833A834B835C830E94C0
S1131EA04E0129813A814B815C81882309F4B4C0B5
S1131EB0A12FB0E00E942E334B015C016B017C0129
S1131EC024EAC21A21E0D20AE108F1088091490407
S1131ED090914A04A0914B04B0914C04C81AD90AB9
S1131EE0EA0AFB0AC701B60124E130E040E050E011
S1131EF00E943933E4E1CE0ED11CE11CF11CC61A58
S1131F00D70AE80AF90A8C149D04AE04BF0418F435
S1131F10C12CD12C76018091800190918101009790
S1131F2049F0A0E0B0E08C159D05AE05BF0510F4A6
S1131F306C017D0160917003709171038091720353
S1131F4090917303A70196010E940308811167C051
S1131F5000917601109177017090A7018090700331
S1131F6090907103A0907203B09073034090580353
S1131F70509059030E944101853009F053C0411427
S1131F80510409F44FC0F20180819181892B09F435
S1131F9049C082819381892B19F48781811142C0C0
S1131FA0F20184819581892BE9F12681878190E072
S1131FB0820F911D8E379105ACF58091110190919E
S1131FC01201049779F58BE090E0909312018093CD
S1131FD0110150927404409273048EE493E0909340
S1131FE07A01809379018092C3019092C401A092F6
S1131FF0C501B092C601C0926401D0926501E0921D
S11320006601F09267017092B40510936B0500931A
S11320106A050E946A0E06C080E090E005C083E075
S113202090E002C082E090E00F900F900F900F902C
S1132030DF91CF911F910F91FF90EF90DF90CF90A0
S1132040BF90AF909F908F907F905F904F90089536
S1132050CF92DF92EF92FF926B017C018091080195
S113206081111FC083E0809308010E94DD0060930A
S11320701305709314058093150590931605F69433
S1132080E794D794C794C092BE01D092BF01E09266
S1132090C001F092C101FF90EF90DF90CF900C94BB
S11320A02902FF90EF90DF90CF900895CF93E091B5
S11320B07901F0917A01C0810E94E6032FEF3FEF8E
S11320C002C0220F331FCA95E2F74DE050E050934F
S11320D0120140931101209530952623372384E182
S11320E0829FB001839F700D112480E090E0CF9116
S11320F00C9428102F923F924F925F926F927F928E
S11321008F929F92AF92BF92CF92DF92EF92FF9203
S11321100F931F93FC01DB0117968C91179716966A
S11321208C901697912CA12CB12C540199248824BD
S1132130B82A14968C911497882A15968C91159721
S1132140982A9401A50160E070E080E090E000E24C
S11321500E9461331396FC90139712962C90129759
S1132160822C912CA12CB12C540199248824BF28B1
S1132170FC908F281196AC919A2A140125015101E3
S11321806201E12CF12C00E010E00E9498332083DE
S113219031834283538364837583868397831F913A
S11321A00F91FF90EF90DF90CF90BF90AF909F90F2
S11321B08F907F906F905F904F903F902F900895F5
S11321C0FC01CB01328137FF29C0232F2C7028302A
S11321D021F02C3021F023E003C027E001C02DE0E2
S11321E0418146FF01C033FF2E5F3196432F407C6F
S11321F030E0403861F4E20FF31F218130E0322FE8
S113220022274081242BFC013183208305C0BF0198
S1132210620F731F0E947A1080E0089581E0089590
S11322208F929F92AF92BF92CF92DF92EF92FF92E2
S11322300F931F93CF93DF93EC014A01D901B02E82
S1132240F6018EEF860F823070F54B839C826230EC
S113225039F49C9111968C919D838E8317E026C04E
S11322602C9111963C91119712964C9112971396BA
S11322705C91139714966C91149715967C9115970D
S113228016968C91169717969C91DE0115966E0101
S11322901DE0C10ED11C2D9308E00E947C33AC15C7
S11322A0BD05C9F702C013E001C01DE08EEF8B0D20
S11322B0823058F58E149F0411F4A11007C0DE017A
S11322C0A10FB11DEC921196FC921E5FA12FB0E0FC
S11322D082E0B81208C090818181CA0FDB1F988305
S11322E089831E5F12C020813181428153816481C0
S11322F0758186819781CA0FDB1FE8E0299308E086
S11323000E947C33E150D1F7185F812FDF91CF9188
S11323101F910F91FF90EF90DF90CF90BF90AF90FF
S11323209F908F9008952FB7F894B79905C00E9990
S113233003C02FBF81E0089580E880937301109259
S1132340BD011092A7051092A0051092AD0182E084
S113235090E09093A1018093A00189B78F7B89BFFE
S113236080E488BF8AB780628ABF8AB78F7E8ABFBB
S113237089B7806489BF2FBF80E00895E09173041A
S1132380F09174040190F081E02D818185FF04C0F7
S11323900E94290D0C9493110895CF93CFB7F8940C
S11323A00E946708811103C0CFBF81E01FC0B79BA3
S11323B01BC00E94B90080917604882349F08FE7FE
S11323C00E94700880E00E94700880E00E947008FB
S11323D00E94BD000E94B90088E00E94760888E04F
S11323E00E9476080E94BD00CFBF80E0CF9108957F
S11323F0FB01833009F471C028F4882319F1823079
S113240099F174C0833589F0803F29F1803509F052
S11324106DC0808191812FB7F89431E0309311051C
S113242090937802809377020BC0808191812FB7BB
S1132430F89431E03093110590939F0280939E02AB
S11324402FBF54C090818FB7F89421E020931105D9
S1132450909321054AC090818FB7F89421E020938E
S113246011059093750141C09081892F8F7395FD5B
S1132470806C992787FD909597FF19C08F3F2FEFA8
S11324809207B9F08D3F2FEF9207ACF48B3F2FEFFB
S113249092079CF4883F2FEF92078CF4843F2FEF30
S11324A092077CF48D3E9F4F74F087E00DC08FE15E
S11324B00BC08BE109C087E107C083E105C08FE051
S11324C003C08BE001C083E09FB7F89421E0209320
S11324D0110580937E029FBF09C090818FB7F89445
S11324E021E0209311059093A9058FBF80911101DC
S11324F0909112010697029718F484E10C94FD0060
S113250008958F929F92AF92BF92CF92DF92EF92F3
S1132510FF920F931F93CF93DF938091C005813077
S113252079F489E0DF91CF911F910F91FF90EF90A3
S1132530DF90CF90BF90AF909F908F900C94FD0050
S1132540809172058F3079F483E0DF91CF911F91F0
S11325500F91FF90EF90DF90CF90BF90AF909F903E
S11325608F900C941F0ACFB7F89482E08093C00533
S113257080919E058111B3C080916E0190916F018D
S1132580A0917001B0917101892B8A2B8B2B31F5AD
S113259080914F0190915001A0915101B09152014D
S11325A00097A105B105D1F08093B3019093B401D4
S11325B0A093B501B093B60110924F01109250014F
S11325C010925101109252018091630182FF06C062
S11325D08B7F8093630188E00E94FD002091B3010A
S11325E03091B4014091B5015091B60160917003EE
S11325F07091710380917203909173030E94030898
S11326002091B3013091B4014091B5015091B601CC
S11326108823A9F08091540390915503A091560307
S1132620B0915703820F931FA41FB51F8093B3016A
S11326309093B401A093B501B093B601CFCF60914C
S113264070037091710380917203909173036059C8
S11326507140810991090E940308811140C0809052
S1132660B3019090B401A090B501B090B601F0E927
S1132670CF2EDD24D394E12CF12C80917003909122
S11326807103A0917203B0917303C81AD90AEA0ABC
S1132690FB0ADFB7F8940E94DD00660F771F881FDE
S11326A0991F6C0D7D1D8E1D9F1D6B017C0168158E
S11326B079058A059B0510F475016401970186016B
S11326C0061B170B280B390BB901A80176956795E2
S11326D05795479582E00E944A0CDFBF02C00E94D2
S11326E0C10ECFBFDF91CF911F910F91FF90EF905B
S11326F0DF90CF90BF90AF909F908F90089583E02C
S11327000E944E0181110C94811283E00C94DC0729
S11327106F927F928F929F92AF92BF92CF92DF92ED
S1132720EF92FF920F931F93CF93DF931F92CDB736
S1132730DEB7182F7FB6F89469830E94410169813E
S11327408113E3C060930501862F90E0FC01339769
S1132750E930F10508F0D6C0EA5BFF4F0C945B3317
S113276080916301897021F089E00E94FD00CAC054
S11327700E947F13C7C0809182028823E9F00091F0
S11327808702109188020115110521F400912D0191
S113279010912E0181E08093770385E00E94280147
S11327A081110AC08091170590911805892B21F495
S11327B0109318050093170565E084E0A1C0A0916B
S11327C082012091790430917A0440917B045091E4
S11327D07C04B0E00E942E33643A21E07207810544
S11327E0910518F466E085E08BC06B017C01E4EA96
S11327F0CE1AE1E0DE0AE108F10880911705909114
S11328001805892B31F081E08093B7058CE00E9494
S1132810FD008090700390907103A0907203B090BB
S113282073036FB6F8940E94DD00660F771F881F4C
S1132830991F681979098A099B098B019C016C15F8
S11328407D058E059F0510F49701860168017901C5
S1132850C61AD70AE80AF90AB701A6017695679558
S11328605795479587E00E944A0C6FBEC09080013F
S1132870D0908101C114D10479F1E12CF12C809024
S1132880700390907103A0907203B09073036FB6BD
S1132890F8940E94DD00660F771F881F991F68193E
S11328A079098A099B098B019C016C157D058E05AC
S11328B09F0510F49701860168017901C61AD70AA9
S11328C0E80AF90AB701A6017695679557954795E1
S11328D088E00E944A0C6FBE0E94971413C063E004
S11328E086E00EC068E087E00BC063E088E008C0C3
S11328F06AE089E005C063E08AE002C063E08BE03F
S11329000E9488137FBE80E002C07FBE81E00F90EA
S1132910DF91CF911F910F91FF90EF90DF90CF90B7
S1132920BF90AF909F908F907F906F900895CF93BA
S1132930CFB7F8948091B705811194C085E00E94C7
S11329402801882309F48EC081E08093B705A09103
S113295082012091790430917A0440917B04509152
S11329607C04B0E00E942E339B01AC01245A314018
S11329704109510960917003709171038091720350
S1132980909173030E940308882339F085E00E9424
S11329904E01882309F4BCC006C087E00E943801B8
S11329A08823A1F32CC087E00E94A10088E00E9444
S11329B0A100109295028091170590911805892B1A
S11329C0B9F00E94610180911705909118059093C8
S11329D054018093530181EE90E09093100580930D
S11329E00F0580E10E94FD00109218051092170552
S11329F01092B70566E085E00E94881333C0809189
S1132A00170590911805892B09F05CC0809180020C
S1132A10909181022091C105211106C021E0029705
S1132A2009F020E0822F01C081E020911A01811178
S1132A3008C081E090E0211102C080E090E0892B81
S1132A4099F085E00E944E01882309F461C087E073
S1132A500E94A10088E00E94A1001092B70585E0C1
S1132A600E941F0ACFBF5BC0209180013091810179
S1132A702115310509F140E050E060917003709137
S1132A80710380917203909173030E940308882359
S1132A9099F08091B90181110FC08091A301811136
S1132AA00BC085E00E944E01882319F083E090E07A
S1132AB021C080E090E01EC080915803909159039A
S1132AC0892B19F00E942D0F15C00E9441018530F9
S1132AD011F580911101909112010797E1F085E0C1
S1132AE00E944E018823A1F085E00E94241A81E00F
S1132AF090E007C08330910521F41092B70583E07C
S1132B0090E0CFBF892B59F485E0CF910C94DC077A
S1132B1080E090E0F6CF8DE00E94FD00EECFCF91F3
S1132B2008952FB7F894FC0180818093A3012FBFEF
S1132B300C94971420EE280F982F41E050E060E0A9
S1132B4070E0992351F0440F551F661F771F915071
S1132B509213F7CF40E050E0BA014427587F7770D2
S1132B60452B462B472B51F08093500260E572E0D1
S1132B7080E00E94F81180E090E0089588EE90E0F3
S1132B800895FC0180915802A081B18113968C9321
S1132B908F5F809358021092510380915902809361
S1132BA0A5058093500380915C028093CB038093AE
S1132BB04F0380915A0280934E03909149029923C6
S1132BC029F0833018F082E080934E0380914E0305
S1132BD0809394028091B2059091B3058E179F075C
S1132BE019F41092B80504C080915D028093B80571
S1132BF08681478150E0480F511D495F5F4F440F64
S1132C00551F662757FD6095762F409349045093CE
S1132C104A0460934B0470934C04A081B1811196D3
S1132C208C9185FF0CC04A5C5F4F6F4F7F4F409380
S1132C30490450934A0460934B0470934C044091AC
S1132C406702509168026091690270916A02409330
S1132C50690150936A0160936B0170936C01F09366
S1132C605903E093580308958F929F92AF92CF92A5
S1132C70DF92EF92FF920F93CF93DF93CDB7DEB73E
S1132C8060970FB6F894DEBF0FBECDBFE09163012D
S1132C90E1FFC0C08FEF9FEF9A8789870E94FB02F4
S1132CA04C01009709F459C00E941A03009731F4AB
S1132CB0C4010E94DE02812C912C4FC0D4011196D4
S1132CC09C938E939C01265E3F4F15963C932E93C6
S1132CD014972CE533E013963C932E93129723E03C
S1132CE0FC012183ED91FC91119780EC8283ED919D
S1132CF0FC91119782818860828380917B03898310
S1132D0080917C038A8380917D038B8380917E03F1
S1132D108C8380917F038D83809180038E83809147
S1132D2081038F83809182038887E0906102F09011
S1132D3062028D919C91A12C9E012F5F3F4F6901EE
S1132D4003E09E01275F3F4F4FEF5FEF62E0019684
S1132D500E941011D40116968C93809163018D7F8B
S1132D60809363018114910409F42EC1D401129655
S1132D70ED91FC91139788E08083209169039091F1
S1132D806A031296ED91FC9113972183928320910B
S1132D906302909164021296ED91FC911397238340
S1132DA094831296ED91FC9113979091250195834C
S1132DB01296ED91FC9113979FEF96839783179644
S1132DC08C93809172058F3080F42FB7F8948091A2
S1132DD0870290918802892B31F490928802809224
S1132DE087022FBF13C02FBF06C0F4011086809145
S1132DF0780481FF06C010926301C4010E945B083D
S1132E00E5C0C4010E949D07892BA9F78091630145
S1132E108860D7C040914B0150914C0160914D01A5
S1132E2070914E0140936E0150936F016093700155
S1132E307093710110929E0510924F0110925001EF
S1132E40109251011092520120914D042093720569
S1132E502F30A8F480EC93E0A0E0B0E0022E04C090
S1132E60880F991FAA1FBB1F0A94D2F7809354039B
S1132E7090935503A0935603B093570308C0109240
S1132E805403109255031092560310925703309135
S1132E907D053093CC038091540390915503A09108
S1132EA05603B0915703411551056105710569F049
S1132EB0481B590B6A0B7B0B4093700350937103AF
S1132EC060937203709373030EC0E3FF09C0809391
S1132ED04F0190935001A0935101B093520103C04C
S1132EE041E040939E058093B3019093B401A09375
S1132EF0B501B093B6018091540280937A03109285
S1132F00C005203110F42093560230935B02809167
S1132F10690390916A03909362028093610261E66F
S1132F2072E080E50E94F811809125010E949A15B3
S1132F30809172058F3020F48091A801809349021A
S1132F408091790280934F026FE472E080EF0E94D7
S1132F50F811809163029091640221E08E3FFFEFAB
S1132F609F0709F420E0E091BE03F091BF031182B2
S1132F70222311F030E801C030EC32833091570243
S1132F803F5F33834091690330916A0344833583FF
S1132F90222321F08683978387E005C0CF0106961C
S1132FA00E947F0D8DE08093C403809189028F601D
S1132FB0809389020E940506809172058F3020F467
S1132FC084E08093630102C01092630160960FB69F
S1132FD0F894DEBF0FBECDBFDF91CF910F91FF906C
S1132FE0EF90DF90CF90AF909F908F900895809155
S1132FF0630183FF03C089E00C94FD0080FF05C0DA
S11330008E7F809363010E9434160C947F13809109
S1133010C201882391F080919F038D7F80939F0349
S11330201092C2018FEF9FEF90936202809361022E
S113303061E672E080E50C94F8110895EF92FF9236
S11330400F931F93CF93DF93CDB7DEB728970FB6B7
S1133050F894DEBF0FBECDBF8C017B01FC01608103
S113306071816A5F7F4FCE0101960E947A10F80148
S1133070808191810E94C102C8010E94DE021092E7
S11330809302E114F10421F0F9EEEF16F10451F585
S11330900FEF1FEF109362020093610261E672E08A
S11330A080E50E94F811109364020093630263E6C2
S11330B072E083E50E94F81110924D0210936002B1
S11330C000935F0210926F021092700210927102CC
S11330D0109272021092730210927402109275028E
S11330E01092760228960FB6F894DEBF0FBECDBFBD
S11330F0DF91CF911F910F91FF90EF900895EF9280
S1133100FF920F931F93CF93DF93CDB7DEB728972A
S11331100FB6F894DEBF0FBECDBF8B017A018130AC
S113312091F130F0823099F5CB010E94DE022FC07C
S1133130DB01ED91FC9182818C70883049F48781A8
S113314090E0982F88272681822B9A83898307C051
S1133150BF016A5F7F4FCE0101960E947A10D801A9
S11331601296ED91FC9113978FEF80838D919C9132
S11331700E94C102C8010E94DE02EF2811F4D9980E
S113318006C0D99A04C0BA01C8010E941E18289624
S11331900FB6F894DEBF0FBECDBFDF91CF911F9164
S11331A00F91FF90EF900895CF92DF92EF92FF92EC
S11331B00F931F93CF93DF93CDB7DEB760970FB60E
S11331C0F894DEBF0FBECDBF8B017A01853009F1C3
S11331D050F4882371F0823009F08CC0BA01C80120
S11331E00E941E1887C08730C1F0883009F45EC081
S11331F081C0CB010E945B08EF2841F40E94341681
S113320080916301877F8093630174C0109263018E
S113321071C0CB010E94DE026DC083E0623B78077F
S113322019F41092BA0366C0E5E5F1E080E090E09D
S1133230219131912017310741F4FC01EE0FFF1F5A
S1133240EB5AFE4F1182108204C00196873091051B
S113325079F70E94FC051092B3051092B205809193
S11332602F018F77D80118968C9318979091760335
S1133270915090937603ED91FC9192819C709830DB
S113328031F49091750491509093750407C09C306B
S113329029F490916D05915090936D05A701B801A3
S11332A00E947F1883E00E94FD0024C0FB01C080BF
S11332B0D180809118018823E9F0B6016A5F7F4FBD
S11332C0CE0109960E947A10B601605F7F4FCE014D
S11332D001960E947A10EF2811F4D99801C0D99A66
S11332E0D8018D919C910E94C102C8010E94DE0206
S11332F01092180160960FB6F894DEBF0FBECDBFD2
S1133300DF91CF911F910F91FF90EF90DF90CF90BD
S113331008950F931F93CF93DF938C01EB0180915A
S113332078048E7F8093780480911501882301F1BD
S11333300E947404AE01B801F80180850E94D4187B
S1133340CA3ED10539F08AE0DF91CF911F910F91E8
S11333500C94FD00809115018823A9F30E94740444
S11333604AEE50E0BC01FC0180850E94D418F2CFE3
S1133370DF91CF911F910F91089587E090E0909392
S11333801201809311010E947D0881E080937B01EA
S11333900E94290D0E944101823031F0853039F0BC
S11333A0811109C084E001C08EE00C94FD001092EC
S11333B0B7050C9497140895CF9386E090E090930A
S11333C01201809311010E94FE0D0E9417020E94B7
S11333D07C0CCFB7F8942091640130916501409141
S11333E06601509167016091C3017091C40180919D
S11333F0C5019091C6010E940308882319F00E9418
S1133400BD191FC02091640130916501409166018E
S1133410509167018091C3019091C401A091C501AD
S1133420B091C601E0910801E1110BC0E1E0E09325
S11334300801BC01CD0160517109810991090E9403
S1133440C609CFBFCF910895CF93C82F0E944101E1
S1133450C81331C02FB7F8948091110190911201D3
S1133460049719F02FBF81E027C085E090E0909386
S11334701201809311012FBF1092C3011092C40155
S11334801092C5011092C601109264011092650158
S113349010926601109267010E94931181110CC071
S11334A00E94970B811103C00E94DC1902C00E9484
S11334B0220C80E001C081EFCF9108950F931F93F8
S11334C0CF93DF93E0916A0441E050E060E070E064
S11334D00E2E04C0440F551F661F771F0A94D2F79F
S11334E0F0916C05F11121C08091660590916705FA
S11334F0A0916805B09169058827987FB770EB3172
S113350090F4C1E0CE0F8A019B01082319232A23DA
S11335103B23012B022B032B31F4440F551F661F51
S1133520771FEC2FECCFE0936A0480916A048B310F
S113353008F056C0F11156C00E949A158091A40556
S1133540813071F0F8F0823021F0833009F0A4C0AA
S113355007C080E0DF91CF911F910F910C94241A42
S1133560C0911B01D0911C010E944101811194C0A2
S113357000E010E0980140E050E0BA01CE010E9462
S1133580760E8AC08091960290919702A09198023B
S1133590B09199024FB7F894209111013091120122
S11335A02330310519F02430310511F04FBF74C0B8
S11335B023E030E030931201209311014FBF809338
S11335C07C0190937D01A0937E01B0937F018DEAED
S11335D080934602DF91CF911F910F910C94220C9E
S11335E0FF2351F18091A4058150823020F4769517
S11335F06795579547950091660510916705209149
S1133600680530916905DB01CA0188279927AA2733
S1133610BC7F892B8A2B8B2B79F4DB01CA01802395
S11336209123A223B323892B8A2B8B2B29F0440FBC
S1133630551F661F771FE7CF8091A4058150823004
S113364068F4809178039091790390936202809357
S1133650610261E672E080E50E94F811E0911B01CD
S1133660F0911C01309751F0808191810E94C10238
S113367080911B0190911C010E94DE0210921C019A
S113368010921B0180E00E942801882319F080E039
S11336900E941F0A10921A01DF91CF911F910F917E
S11336A00895CF93DF9381E00E942801882309F4D1
S11336B040C185E00E942801811149C080915803CE
S11336C090915903009721F061EF70E00E948919ED
S11336D08091670390916803009721F061EF70E097
S11336E00E9489198091170590911805009769F037
S11336F0909354018093530181EF90E090931005CF
S113370080930F0580E10E94FD001092180510922D
S113371017051092680310926703109259031092D0
S113372058038091670290916802A0916902B09158
S11337306A028093690190936A01A0936B01B0932C
S11337406C0187E00E94A10088E00E94A1008091A2
S1133750780482608093780480911501882351F065
S11337600E94740441EF50E0BC01FC0180850E947A
S1133770D418F2CF809178048D7F8093780480915F
S11337801A01882329F081E080936C050E945E1A57
S11337900E94E603609357028FE294E09093BF0384
S11337A08093BE031092C40387EC91E09093C1030D
S11337B08093C0031092C5038FE191E09093C303FB
S11337C08093C2031092AB011092AA0110925A0383
S11337D01092C00510928902109263011092780130
S11337E010920E0510925B0310924B051092820109
S11337F01092B8018FE080937205809196038D7FBB
S11338008093960382E00E94A10080919F038D7FA4
S113381080939F038FEF8093B5051092BC011092A3
S1133820C201EEE4F4E08083349694E0EA36F907CA
S1133830D1F78FEF8093A5011092BB0110929302F0
S11338401092C9031092C8038091A8038D7F8093BE
S1133850A803C5E5D1E0E991F991309731F041EF42
S113386050E0BF0180850E947F18E1E0C336DE0787
S113387091F7E5E5F1E01192119281E0E336F80762
S1133880D1F71092B3051092B205109276031092FC
S1133890750410926D0580E391E09093B3038093D7
S11338A0B20383E795E09093B7038093B6038DE664
S11338B095E09093B5038093B4031092B9031092EA
S11338C0BA0380911301882329F00E948E040E9478
S11338D0DE02F7CF8091870290918802009721F051
S11338E00E945B08109263011092540110925301DC
S11338F010922E0110922D011092880210928702CC
S11339001092770381E090E090938102809380028B
S113391080912C01811110922C011092B901809197
S1133920B1038D7F8093B10381E0DF91CF910C943B
S1133930FD00DF91CF9108954091580280911A01C2
S1133940811102C00C941F0A8091A405823081F178
S11339508330D1F1813009F082C0E0911B01F091F4
S11339601C01A081B18193E011969C93A081B18147
S113397098E012969C93A081B18113964C934F5F6B
S113398040935802A081B1819FEF14969C93A0812B
S1133990B18115969C93A081B18116969C93A081C8
S11339A0B18117969C9397E096839093A60587839D
S11339B08FEF9FEF909362028093610261E672E061
S11339C080E50E94F8114BC050915E0220EC33E078
S11339D0529FC001539F900D1124AA2797FDA095D3
S11339E0BA2F8093960290939702A0939802B09373
S11339F09902E0911B01F0911C01A081B18183E443
S1133A0011968C93A081B18188EC12968C93A0813D
S1133A10B18113964C934F5F40935802A081B181BA
S1133A208FEF14968C93A081B18115968C93A0810D
S1133A30B18116968C93A081B18117968C93808165
S1133A40918108960E947F0DE0911B01F0911C0169
S1133A508FE0868386E08093A60581E087830C94BB
S1133A605E1A8091800290918102029719F482E09B
S1133A700C94241A8FE00C94FD001F93CF93DF93D2
S1133A801F92CDB7DEB790910501953021F489835B
S1133A900E94971489811FB7F89490911D01911188
S1133AA00BC091E090931D018093A40182E00E94D9
S1133AB0FD001FBF80E017C0E82FE695E695E69568
S1133AC0F0E0ED57FC4F9081877021E030E001C0B9
S1133AD0220F8A95EAF7892F822319F4292B208350
S1133AE001C085E01FBF0F90DF91CF911F91089512
S1133AF00E9417020E94F6080E94CD1110927B01C9
S1133B000E94290D84E090E09093120180931101AA
S1133B100E944101823081F028F4882341F08130F1
S1133B2041F00895833051F0853051F008950C949C
S1133B30A80480E00C94FD000C94311D0C948112B7
S1133B401092B7050C949714CF931092A7014830A4
S1133B5048F4463068F5442341F04130C1F521EE84
S1133B6030E021C04B3031F032C01092B1051092D8
S1133B70B0052DC02091B805222399F0109251036D
S1133B803091A505309350033091CB0330934F030C
S1133B903091940230934E0321502093B805C0E035
S1133BA017C029EE30E03093B1052093B0050FC063
S1133BB081E08093A701709377016093760110925E
S1133BC0B70587E00E94380181113EC03AC0C1E0C8
S1133BD0209117053091180582179307F9F40E9474
S1133BE06101CC2329F08091B0059091B10502C008
S1133BF081EE90E02091170530911805309354011F
S1133C00209353019093100580930F0580E10E9447
S1133C10FD00109218051092170511C0CC2379F0FD
S1133C20809158039091590390936803809367039C
S1133C3010925903109258038BE00E94FD001092D9
S1133C40B705CF910C949714CF910895EF92FF92FA
S1133C500F931F93CF93DF931F92CDB7DEB70091DD
S1133C60110110911201E0907304F09074040E9409
S1133C70F6080E94CD1110927B010E9417020E9447
S1133C80290D84E090E090931201809311010F308C
S1133C90110509F0DCC00E944101882319F083302A
S1133CA059F0EFC080E00F90DF91CF911F910F91F9
S1133CB0FF90EF900C94241AD70114968D919C9147
S1133CC015970E94AA000091540310915503209166
S1133CD05603309157036F3FBFEF7B078B079B075A
S1133CE0E9F060937003709371038093720390936F
S1133CF073030093B3011093B4012093B50130937F
S1133D00B601D7011296ED91FC91139782818770C9
S1133D108093B801811123C041E025C08091B30193
S1133D209091B401A091B501B091B601800F911F9B
S1133D30A21FB31F8093B3019093B401A093B50164
S1133D40B093B60183E00E943D1D83E00F90DF91A4
S1133D50CF911F910F91FF90EF900C941F0A482F61
S1133D60440F480F4E5F81818F708F5F8093820173
S1133D70808182958F700CE310E020E030E004C075
S1133D80000F111F221F331F8A95D2F70093790465
S1133D9010937A0420937B0430937C04D7018D9193
S1133DA09C91DC0111968C9184FF04C081E0809386
S1133DB0820202C01092820250E0BF016E5F7F4F08
S1133DC08BE495E00E94B333D7011296ED91FC91F8
S1133DD01397818184FF26C016968C9116971796A7
S1133DE02C9130E0280F311DC9010796880F991FC7
S1133DF02131310514F0889601C00C96909381010D
S1133E008093800120917A038091800190918101B7
S1133E10B4E12B9F800D911D112490938101809317
S1133E20800104C0109281011092800183E00E94FD
S1133E303D1D64E083E00E94881387E00F90DF91CA
S1133E40CF911F910F91FF90EF900C94FD000131E1
S1133E501105B9F44091720100916A0510916B0546
S1133E6049830E9441014981853059F4B801C70151
S1133E700F90DF91CF911F910F91FF90EF900C94D1
S1133E80A41D0F90DF91CF911F910F91FF90EF90A0
S1133E90089580936801609372010E9467088111FC
S1133EA002C00C94C0070C94261E8F929F92AF926E
S1133EB0BF92CF92DF92EF92FF92CF93DF938091E4
S1133EC0B405882339F0C0916A05D0916B0510922E
S1133ED0B40518C0E0917901F0917A01C0810E9483
S1133EE0E6032FEF3FEF02C0220F331FCA95E2F71C
S1133EF0209530952623372384E1829FE001839F18
S1133F00D00D11240E94DD006B017C01BE0180E014
S1133F1090E0CC0CDD1CEE1CFF1CC60ED71EE81E68
S1133F20F91E8090C3019090C401A090C501B09087
S1133F30C601C818D908EA08FB088090640190906B
S1133F406501A0906601B09067018C149D04AE04D5
S1133F50BF0438F4C0917304D0917404209799F489
S1133F6048C02EE030E03093120120931101DF911C
S1133F70CF91FF90EF90DF90CF90BF90AF909F9044
S1133F808F900C94281010927B010E9417020E94BB
S1133F90290D84E090E090931201809311010E9416
S1133FA04101853031F5C701B601681979098A09DB
S1133FB09B094B015C0124E1820E911CA11CB11CE4
S1133FC024E130E040E050E00E943933861A970A39
S1133FD0A80AB90A47E0B401CE01DF91CF91FF905E
S1133FE0EF90DF90CF90BF90AF909F908F900C9404
S1133FF0A41DDF91CF91FF90EF90DF90CF90BF9001
S1134000AF909F908F9008950F931F93CF93DF935A
S1134010EC018B018091AC0286FF2AC18F7B8F3328
S113402009F0B0C1C091CD03D091CE032881209373
S1134030A2018091A0019091A1018430910579F1B0
S113404018F4039749F003C18530910509F451C070
S1134050069709F469C0FBC084E090E09093A10145
S11340608093A00130E08091730190E02817390714
S113407034F0DF91CF911F910F910C94640DB79997
S113408003C00E9B0E94640D8091A20184508E385F
S113409080F7BE016F5F7F4F43E050E022C06A812A
S11340A0898183FDE6CF4DE651E00E94250581110B
S11340B0E0CF40916D018091A20190E00197242FFF
S11340C030E028173907ACF6443098F085E090E0EA
S11340D09093A1018093A001435050E0BE016C5F16
S11340E07F4F80E090E0DF91CF911F910F910C946E
S11340F05F094091A20120916D01842F90E0821B01
S11341009109893791050CF0B4CF86E090E0909343
S1134110A1018093A001421B50E06091CD037091F6
S1134120CE03665E7F4FDDCF0E94BD008091AD015E
S1134130811102C00E94320D3091A005C091CD03BF
S1134140D091CE032091A201332349F12530C0F14F
S11341508091A70590E0FC01EE0FFF1FEE0FFF1FFB
S1134160E258FA4F7081618152814381DE01AD567C
S1134170BF4F7C93DE01AE56BF4F6C93DE01AF564A
S1134180BF4F5C93DE01A057BF4F4C9301968770DD
S113419099278093A70531503093A00511C08FEF64
S11341A0DE01AD56BF4F8C93DE01AE56BF4F8C93EC
S11341B0DE01AF56BF4F8C93DE01A057BF4F8C93E7
S11341C0E22FF0E080916D01E81BF109EC0FFD1F77
S11341D0818D87FF36C0012BA1F1898187708230E0
S11341E029F580910A0190910B010697D9F4E09189
S11341F06E03F0916F030190F081E02D93818B8128
S1134200981310C00E94BF00898121E030E03093F0
S11342100B0120930A0160E0829581700E94491F7E
S11342200E94970C80916B03882359F08091650359
S1134230811107C08AE1DF91CF911F910F910C94F6
S1134240FD00DF91CF911F910F910C94350D1092C9
S1134250BD010E94BD000E94320D80916503882338
S113426009F490C0DF91CF911F910F910C943B05FD
S11342708E3309F087C00E94BD00E0916E03F09177
S11342806F0380819181C817D90759F40E94B9003E
S1134290E0916E03F0916F038081918166810196B4
S11342A00DC00196C817D90779F40E94B900E091AE
S11342B06E03F0916F03678182819381DF91CF91C7
S11342C01F910F910C949C0983E090E090930B0153
S11342D080930A0180911101909112018A30910515
S11342E009F444C08B30910509F446C0099709F0DC
S11342F049C08CE090E090931201809311012091C9
S11343006401309165014091660150916701211566
S113431031054105510579F48FE090E09093120145
S11343208093110180E00E949708DF91CF911F9143
S11343300F910C94BE118091C3019091C401A0917E
S1134340C501B091C601E0910801E1111BC0E2E092
S1134350E0930801BC01CD01605171098109910903
S1134360DF91CF911F910F910C94C609DF91CF91EA
S11343701F910F910C945610DF91CF911F910F91C3
S11343800C94551FDF91CF911F910F9108954F9277
S11343905F926F927F928F929F92AF92BF92CF92D1
S11343A0DF92EF92FF920F931F93CF93DF93CDB7DA
S11343B0DEB768970FB6F894DEBF0FBECDBFE5E851
S11343C0F3E020E030E0108511FFCFC14080518040
S11343D062807380C480D580E680F7804B015C01E5
S11343E084189508A608B7088C149D04AE04BF046D
S11343F008F4BBC110FF03C01D7F10870AC0D3019E
S1134400C2018C0D9D1DAE1DBF1D80839183A283AF
S1134410B3832230B1F018F4213081F006C0233088
S113442009F4C1C0243009F45AC180E00E94280173
S1134430882309F4A1C10E9400089EC10E940506B8
S11344409BC18091C201882309F496C11091BC01DB
S1134450123039F490915F0280916002998B8A8BBB
S11344601BC020916F0230917002409171025091F3
S1134470720260917302709174028091750290913E
S11344807602FE017196DE015996219308E00E949E
S11344907C33EA17FB07C9F740906102509062022F
S11344A00E94FB024C01009709F478C00E941A0391
S11344B03C01009709F46FC0D40111969C938E932C
S11344C04A9615969C938E93149781E019968C9333
S11344D0E0906102F0906202123019F442E050E080
S11344E002C048E050E0BE016F5E7F4FCE010196EE
S11344F00E94B333D401ED91FC91123010F483E2A5
S113450004C04E145F04D9F783E68183812F880F9A
S1134510880F806C828380917B03898780917C03E0
S11345208A8780917D038B8780917E038C8780911D
S11345307F038D87809180038E87809181038F878D
S113454080918203888BA180A6FAAA24A0F8F401A2
S1134550808191819E01275F3F4F690103E09E01A5
S11345602F5F3F4FA201612F01960E941011D401C9
S113457016968C93169784E091E013969C938E93F1
S1134580129781E017968C93179786E018968C9370
S1134590C3010E94C102C4010E94DE020E940718E6
S11345A00E940718E9C00E94DD002B013C01440C65
S11345B0551C661C771C809156028F3070F421E0E4
S11345C030E002C0220F331F8A95E2F7A0ECB3E07B
S11345D00E941F339B01AC0104C020EC33E040E097
S11345E050E0A0916502B09166020E942E336B01E7
S11345F07C0105E511E0812C912C5401D801ED9149
S1134600FC91309709F44DC08091B2059091B305A7
S1134610E817F90709F445C0848195810E94AA002E
S1134620A70196010E940308D801ED91FC9111970E
S1134630882331F180858F7780871D921C92909119
S11346407603915090937603A081B18112969C9148
S11346509C70983031F49091750491509093750446
S113466007C09C3029F490916D05915090936D058D
S113467040EF50E0BF010E947F180E94FC0511C06A
S1134680848195810E94AA00A3019201261B370B05
S1134690480B590B82169306A406B50610F449017B
S11346A05A010E5F1F4F31E00336130709F0A6CFFE
S11346B081149104A104B10409F45EC0C814D9049E
S11346C0EA04FB0410F446015701B701A601481996
S11346D059096A097B0983E00E9434084DC080911E
S11346E0B901811138C081E08093B90180916205DC
S11346F090916305A0916405B091650540917A029B
S113470050917B0260917C0270917D02840F951F11
S1134710A61FB71F40918F025091900260919102A1
S1134720709192024093A9035093AA036093AB0340
S11347307093AC038093AD039093AE03A093AF0347
S1134740B093B0038091B103816082608093B10320
S11347500E94220107C01092B90180912C0181119D
S113476010922C010E94971407C02F5F3F4F399677
S11347702530310509F027CE0E94220168960FB634
S1134780F894DEBF0FBECDBFDF91CF911F910F9183
S1134790FF90EF90DF90CF90BF90AF909F908F905D
S11347A07F906F905F904F9008952F923F924F9219
S11347B05F926F927F928F929F92AF92BF92CF92AD
S11347C0DF92EF92FF920F931F93CF93DF93CDB7B6
S11347D0DEB76A970FB6F894DEBF0FBECDBF90E088
S11347E08D31910510F00C94392DFC01E15BFF4FE4
S11347F00C945B332FB7F8948091110190911201BE
S1134800009711F42FBFEAC3049709F08DC381E028
S113481090E018C08091C10581508093C105882320
S113482011F081E03FC02FB7F8948091110190916D
S113483012018430910509F477C3892B09F074C3FC
S113484082E090E090931201809311012FBF0E94A7
S1134850220C0C94392D8FB7F8949091A401909365
S1134860050192E090931D018FBF80910501813075
S113487089F038F08230D1F0833009F4DBC00C9435
S1134880392D80E00E944E01811175C00E940008FC
S11348900C94392D81E00E94DC07882311F40C94D8
S11348A0392D80E00E94FD000C94392D9FB7F894B7
S11348B081E0809311051092AC0180936B031092F8
S11348C07F029FBF82E00E944E01882321F00E9454
S11348D0311D0C94392D82E00E94DC070C94392D93
S11348E08091B2059091B305892B11F00C94392D68
S11348F080917603882311F40C94392DE5E5F1E0D9
S113490081919191009701F1DC0118962C911897EF
S113491027FF1AC09093B3058093B20520932F010B
S113492027E018962C932091780421FF06C010925A
S1134930B3051092B20583E0B5CF0E949D07892B81
S113494011F40C94392DF3CFB1E0E336FB07C1F633
S11349500C94392D409196025091970260919802DF
S11349607091990280E00E9434080C94392D0E94C1
S11349705E1A0C94392D0E949C1C0C94392DE091E4
S1134980BE03F091BF0383818093570283818F5FBD
S1134990838340917003509171036091720370910D
S11349A0730340936B0250936C0260936D02709397
S11349B06E028091540390915503A0915603B091D7
S11349C05703853CE9E09E07A105B10528F0845C06
S11349D09940A109B10903C080E090E0DC01409353
S11349E08E0350938F03609390037093910380938D
S11349F0920390939303A0939403B09395038091AF
S1134A00960381608260809396030E9422018091C4
S1134A10630182FF03C08B7F809363011092C00502
S1134A208091570280FF03C0D8980C94392DD89AEE
S1134A300C94392D0E94F7170C94392D8091780429
S1134A4080FF02C00C94392D80911501882311F444
S1134A500C94392DE0911701F0E0EE0FFF1FE75E93
S1134A60FA4F00811181D80116968C91811105C0ED
S1134A700E9474048AE00E94FD00F80180858093FE
S1134A80660320917804822F81608093780480915A
S1134A90580390915903892B09F0FDC6C8010E945F
S1134AA0C1155BC080916703909168036091B00564
S1134AB07091B10510921901109268031092670366
S1134AC0009709F44AC00E94891947C0009158030D
S1134AD01091590380911705909118050097D9F109
S1134AE04091490450914A0460914B0470914C04E4
S1134AF0C0904E03D0904F03E0905003F0905103C8
S1134B00CF82D886E986FA8649835A836B837C836D
S1134B101E830D832AE0FE013196A1EAB2E00190E2
S1134B200D922A95E1F70E94C1150115110599F01E
S1134B30E0911705F09118050190F081E02D838133
S1134B40D8012D913C91D90113969C919383D8015E
S1134B50ED91FC9183831092B7050E94971489C745
S1134B608091B901882309F484C780912C0188239A
S1134B7009F47FC710922C017CC783E090E09093E6
S1134B8081028093800275C79FB7F89481E0809377
S1134B9011058093AC0110926B0380937F029FBF39
S1134BA081E090E0909381028093800282E00E94F1
S1134BB01F0A5FC780917703882309F45AC780913D
S1134BC053019091540120918702309188028217F9
S1134BD09307B9F4109288021092870200910F058E
S1134BE0109110050E945B08012B41F40E943416B9
S1134BF080916301877F8093630128C010926301D1
S1134C0025C020912D0130912E0182179307F1F4D4
S1134C100E948E0480911301811105C010922E010F
S1134C2010922D010DC0E0911401F0E0EE0FFF1F72
S1134C30EA5BFC4F8081918190932E0180932D013A
S1134C4080915301909154010E94DE0210927703E7
S1134C5010C7CE0101960E947A0A811107C089818A
S1134C6090914602981714F48093460220917C0197
S1134C7030917D0140917E0150917F0160916E05DC
S1134C8070916F0580917005909171050E940308E1
S1134C90882309F46DC1809146028D5280934602A7
S1134CA00E94F6080E94CD110E94290D84E090E034
S1134CB090931201809311019091460280914A01D0
S1134CC0882369F0E091AC05F091AD0580917704FB
S1134CD021E0280F20937704E80FF11D9083909131
S1134CE0770480914A01981303C081E080936C0596
S1134CF00E940008893009F0BCC60E94A804B9C605
S1134D008FB7F894909121058FBF8FB7F89421E065
S1134D1020931105909321058FBF0E94FE0D0E94E0
S1134D20290D84E090E0909312018093110181E0B9
S1134D300E942801882309F49CC68091CA0381112A
S1134D400E94B40460E572E080E00E94F81163E61A
S1134D5072E083E50E94F81161E672E080E50E944A
S1134D60F81162E572E083E00E94F81161E572E0F7
S1134D7082E00E94F8116FE472E080EF0E94F81163
S1134D8081E00E941F0A82E891E990936402809373
S1134D90630263E672E083E50E94F81111E0109368
S1134DA047020E9449058091630290916402019632
S1134DB009F45FC680916301857009F05AC688E3DF
S1134DC092E190936A03809369038AE180932501B9
S1134DD010924B0110924C0110924D0110924E0111
S1134DE086E080934D0480937D05109379021092A0
S1134DF0A80185E080936301809172058F3009F0EA
S1134E0038C683E00E943D1D34C680911101909103
S1134E1012018830910531F008F42BC60F970397DF
S1134E2038F027C680E00E94970B811110CDD9C0BD
S1134E300E9467088111A4C080E00E94970B882318
S1134E4009F49EC004CD80E00E94970B81110FC02D
S1134E500E94FE0D8091110190911201079721F497
S1134E600E94F6080E947D080E94290D02C684E172
S1134E7019CD8FB7F89490910E01992311F08FBF3B
S1134E80F8C58FBF10B316FB112710F98091A0024B
S1134E909091AB02981721F1181322C084E090E09E
S1134EA09093100180930F018FB7F89491E0909341
S1134EB00E018FBF0E94BD000E94B90060E070E047
S1134EC08DE10E94B20A0E94A00D0E94BD000E94C2
S1134ED0F6080E94CD1110927B0182E10E94FD0030
S1134EE01093AB0285E1DECC9FB7F8948091030167
S1134EF09FBF882321F0813009F476C0BAC5E091C0
S1134F001101F09112013197E131F10508F0B1C5B9
S1134F10E459FF4F0C945B332FB7F89480910F0141
S1134F2090911001892B11F02FBFA3C581E090E06F
S1134F309093100180930F012FBFDD9A44E150E05C
S1134F4060E070E080E00E944A0C93C50E94FE0D70
S1134F500E947D080E94DD00660F771F881F991F3D
S1134F6060936E0570936F0580937005909371053F
S1134F7081E198CC0E94DC197CC50E94310E79C570
S1134F800E94261E76C50E94F6080E94CD111FB706
S1134F90F89480910F0190911001049779F482E0C4
S1134FA090E09093100180930F010E94BD000E9435
S1134FB0B90087E00E9476080E94BD001FBF1092CE
S1134FC0100110920F01DE98DD98DE9A10927B0199
S1134FD00E94290D10921201109211010E94511B7E
S1134FE048C50E94781D45C51FB7F8948091A0015B
S1134FF09091A101892B09F44CC40E94790949C4F8
S11350001FB7F8946091BC037091BD038091AE0505
S11350109091AF051092BD031092BC031092AF059E
S11350201092AE0510922B0110922A0110926D037A
S113503010926C030E9404202CC48FB7F8949091B2
S1135040AE019093000192E090930C018FBF809188
S1135050000181110EC50E94BB000E94B90086E1C7
S113506021CC0E94320D8FB7F8941092A1011092B6
S1135070A0018FBF83E116CCE091CD03F091CE0364
S11350802081225080916D01281B8FB7F8948FBF27
S11350908090CD039090CE03822F90E0D401A80F8E
S11350A0B91F5B963C913F77D4013C93A80FB91F7D
S11350B05A968C91DF01AC56BF4F8C93D4018C91DE
S11350C0EB56FF4F80832C93809111019091120134
S11350D0079709F019C312968C91807390E0419759
S11350E03CF08091800290918102039709F00CC3F7
S11350F0F401818183FF07C0809180029091810235
S1135100039709F001C30E944101823009F44CC1A4
S1135110853009F455C18111F7C280911A018823A1
S113512009F4F2C28091A405833009F04BC0809148
S113513077048111E9C2D40111968C91119787707B
S1135140833009F0E1C25A968C915A97883009F05D
S1135150DBC25C968C915C9790E0982F88275B96D5
S11351602C91822B909362028093610261E672E03B
S113517080E50E94F811F401868D90E0982F88272D
S1135180258D822B9093600280935F02878D0E940D
S11351909A15D40191968C91919790E0982F882735
S11351A090962C91822B909364028093630263E621
S11351B072E083E50E94F811809177048F5F8093F9
S11351C0770410C0F4018181877009F09DC2809139
S11351D04802882309F498C29091770480914A0187
S11351E0981758F081E080936C0580918D038D7F32
S11351F080938D030E94000887C20091AC05109132
S1135200AD05F0906A048281282F2078203809F0B7
S11352107BC2B2E29B9F000D111D112482958695DD
S113522086958370F8018083D40115968C91159727
S113523090E0982F882714962C911497822B9283B0
S1135240818312968C911297807C803861F4179632
S11352508C91179790E0982F882716962C91822B83
S11352609483838307C0B4016A5F7F4FC8010396A8
S11352700E947A10F801F3861486D4015A968C9110
S11352805A9785875B968C915B9786875C968C9101
S1135290881F8827881F8787F401EB56FF4F80817A
S11352A0F801808BC40180579F4F0E94AA00D80147
S11352B051966D937D938D939C93549756961C921F
S11352C01E92559757961C92579758961C9258972A
S11352D059961C9259975A961C925A975B961C920F
S11352E05B975C961C925C975D961C925D975E96AC
S11352F01C925E975F961C925F9790961C92909773
S113530091961C92E091AC05F091AD0570907704F4
S1135310DF0122E2729EA00DB11D1124612C6714DD
S113532009F4A3C32181328111968D919C91129726
S113533028173907B1F580819C91891332C08230D6
S113534051F42381348113968D919C9114972817DD
S1135350390739F5D9C1833021F523813481458159
S11353605681678170851396AC9013971496BC9000
S113537014971596CC9015971696DC901697179659
S1135380EC9017971896FC90189719960C9119970A
S11353901A961C911A97818592850E94AA3309F462
S11353A0B3C16394B296BBCF809180029091810285
S11353B0039709F0A9C1D4018C9180688C93A4C18E
S11353C0F40181818770833011F4828D8D5F1FB762
S11353D0F894863009F449C018F4843041F093C13C
S11353E0873009F455C0893009F47EC18CC1D401D9
S11353F012968C918295869586958370833009F0F8
S113540082C1BE016D5E7F4FC4010E94E010811114
S11354107AC1FB89EC897D896E895F89488D398DD4
S11354202A8D2090AA053090AB05C1010196909376
S1135430AB058093AA05FB87EC877D876E875F8722
S1135440488B398B2A8BEEE4F4E0E12CF12CB0800C
S1135450BFEFBB1609F423C22FEFE21AF20A349607
S113546047E0E416F10499F74EC1F4018281829574
S1135470869586958370833009F045C1BE016F5FC0
S11354807F4FC4010E94E01081113DC1D99A3BC1F4
S1135490D40112962C91B22FB07CDB2EB7FF33C10E
S11354A0322F3C70C4010496383019F4C4010896B4
S11354B004C03C3011F4C4010E96F401318136FF6E
S11354C001C023FF0296B5E56B2EB1E07B2EE0E030
S11354D0F0E0ED2CF12CD3012D913D913D012115EE
S11354E03105A9F1D9016D917C91DB0112964C91A2
S11354F04C70B0E14B9FA00111244E155F0539F5A6
S11355006A5F7F4FA0E8CA2EDC1003C052E0C52EAC
S113551002C048E0C42EAC0100E0DB01AD90BD0147
S1135520DA01BD90AD01AB1003C00F5F0C15A8F3F9
S11355300C110DC0309751F020813181D9011196A1
S11355404C911197406111964C9301C0F901B3E657
S11355506B16B1E07B0609F0BECF309739F0808539
S11355608068808783E00E94FD00CDC06090B20314
S11355707090B3038091BA038111C5C0BE01655F09
S11355807F4FC4010E94E0108111BDC0C401019687
S1135590F4016281262F2C7067FFB5C0283021F0FA
S11355A02C3021F0E3E003C0E7E001C0EDE0D401DA
S11355B011963C91119736FF0BC063FF09C01596F5
S11355C04C91159750E0542F442714968C9108C0A1
S11355D0F0E0E80FF91F418150E0542F4427808107
S11355E0482B629566956695637030E035952795EE
S11355F035952795A22FC3010196E0906102F090A2
S1135600620274E0679F60011124F3017281737375
S11356107C29F901B6E0EE0FFF1FBA95E1F77E2B66
S1135620F3017283223071F4E0916302F091640219
S1135630FA83E9834E155F05F9F4F301718170640F
S1135640718321C070917B03798370917C037A8389
S113565070917D037B8370917E037C8370917F03C3
S11356607D83709180037E83709181037F83709129
S113567082037887A230F0F6D30111967C911197BA
S11356807F7B11967C93F301A180A6FAAA24A0F84B
S1135690DE0111966D01022F9E01255F3F4F0E948E
S11356A01011E091B203F091B30381818160818391
S11356B0F3016281818183FD03C0A6010E94250557
S11356C089818093B80387E08093BA03809178043A
S11356D081FF03C01092BA0316C082EB93E00E94CC
S11356E09D07892BB9F70FC0D40112968C9182952E
S11356F0869586958370833031F4BE016F5F7F4F4A
S1135700C4010E94E0101FBF9092CE038092CD038B
S11357108FB7F8941092BD018FBF0E94350DA9C1B7
S11357208091A90181113CC0C0907905D0907A057F
S1135730E0907B05F0907C058FE00E9439034B01DB
S11357405C01C0927905D0927A05E0927B05F092D3
S11357507C051092A9011FB7F8940E94DD00681916
S113576079098A099B09660F771F881F991F4B01C6
S11357705C016C157D058E059F0510F446015701EB
S113578075016401C61AD70AE80AF90AB701A60125
S113579076956795579547958FE00E944A0C1FBFF1
S11357A00E94DD00660F771F881F991F40C00E946A
S11357B0DD004B015C01880C991CAA1CBB1C8FE00A
S11357C00E94A100E5E8F3E020E0CC24CA94DC2C9C
S11357D0EC2C4FE7F42E808581FF1AC080819181E3
S11357E0A281B381B501A401481B590B6A0B7B0B41
S11357F084819581A681B781841B950BA60BB70B79
S11358008C159D05AE05BF051CF46C017D0121E0DE
S1135810399643E0E23BF407F1F6222309F429C167
S11358201C141D041E041F042CF0C501B4010E94A5
S1135830C7211FC1C0927905D0927A05E0927B05F9
S1135840F0927C0581E08093A9011FB7F8940E942F
S1135850DD00660F771F881F991F681979098A0967
S11358609B094B015C016C157D058E059F0510F4A9
S11358704601570175016401C61AD70AE80AF90AF4
S1135880B701A60176956795579547958FE00E94D5
S11358904A0C1FBFEEC02E7F20937804EAC00E94FA
S11358A0FB023C01009709F42ECF0E941A032C013D
S11358B0009721F4C3010E94DE0225CFD301119683
S11358C09C938E934A9615969C938E931497C70136
S11358D0880F991F880F991F825B9B4F13969C9387
S11358E08E93129780917B03898380917C038A83B2
S11358F080917D038B8380917E038C8380917F03D1
S11359008D83809180038E83809181038F83809126
S1135910820388874091610250916202AA24A39471
S1135920FE0131966F017A0103E09E01255F3F4F2E
S113593063E0C20101960E941011D30116968C9364
S11359401697ED91FC91119783E68183ED91FC917B
S113595011978CEC82831296ED91FC91139782E05F
S113596080831296ED91FC911397218232821296D4
S1135970ED91FC911397138284E017968C931797FB
S113598080917603873008F063C018961C920E94B9
S1135990DD00660F771F881F991FD3011496ED91C0
S11359A0FC9115976383728381839083A5E5B1E0AD
S11359B0E0E08D919D91892B19F0EF5FE730C9F7F5
S11359C0F0E0EE0FFF1FEB5AFE4F71826082809170
S11359D076038F5F80937603D301ED91FC918281EE
S11359E08C70883031F4809175048F5F80937504D6
S11359F007C08C3029F480916D058F5F80936D050D
S1135A008091A80381FD21C0809156028F3070F4EB
S1135A1021E030E002C0220F331F8A95E2F7A0ECA8
S1135A20B3E00E941F339B01AC0104C020EC33E0BF
S1135A3040E050E0A0916502B09166020E942E33CE
S1135A40AB01BC0183E00E9434080E94FC055BCEDC
S1135A50D3011296ED91FC911397B082C3010E9479
S1135A60DE02C2010E94C1024ECE639460927704AA
S1135A704BCE6A960FB6F894DEBF0FBECDBFDF9152
S1135A80CF911F910F91FF90EF90DF90CF90BF9037
S1135A90AF909F908F907F906F905F904F903F90CA
S1135AA02F9008958FB7F89408958FBF08951F928B
S1135AB00F920FB60F9211240BB60F922F933F93B0
S1135AC04F935F936F937F938F939F93AF93BF9302
S1135AD0EF93FF930E94D700FF91EF91BF91AF9195
S1135AE09F918F917F916F915F914F913F912F91F2
S1135AF00F900BBE0F900FBE0F901F9018951F9222
S1135B000F920FB60F9211240BB60F922F933F935F
S1135B104F935F936F937F938F939F93AF93BF93B1
S1135B20EF93FF930E94D700FF91EF91BF91AF9144
S1135B309F918F917F916F915F914F913F912F91A1
S1135B400F900BBE0F900FBE0F901F901895789476
S1135B501F920F920FB60F9211240BB60F922F9330
S1135B603F934F935F936F937F938F939F93AF93E1
S1135B70BF93CF93EF93FF930E94BF007894CFB766
S1135B80F89480918B0290918C02A0918D02B09137
S1135B908E02892B8A2B8B2B51F580910A019091CF
S1135BA00B018430910528F18630910550F0069759
S1135BB001F581E090E090930B0180930A016BE082
S1135BC010C00E94BD000E94B90089E00E947608BE
S1135BD00E94BD0081E090E090930B0180930A0144
S1135BE067E080E00E94491F0E94970C02C00E9457
S1135BF05303CFBFFF91EF91CF91BF91AF919F918D
S1135C008F917F916F915F914F913F912F910F9061
S1135C100BBE0F900FBE0F901F90189578941F9293
S1135C200F920FB60F9211240BB60F92AF92BF9240
S1135C30CF92DF92EF92FF920F931F932F933F9394
S1135C404F935F936F937F938F939F93AF93BF9380
S1135C50CF93DF93EF93FF9387B7877F87BF7894C2
S1135C60BFB6F8948091AF019091B001A091B101B9
S1135C70B091B201892B8A2B8B2B09F048C081E0AB
S1135C8080930D050DEF14E0CDE7D4E0A12CF801CD
S1135C908081882381F1C880D980EA80FB800E94BA
S1135CA0DD006C197D098E099F09CC80DD80EE80B2
S1135CB0FF806C157D058E059F05E8F0F8011082C4
S1135CC0F7E0AF16B1F0FA1540F0AA2079F082E0BF
S1135CD0A81211C00E94C10E0EC0E8E0AE1649F031
S1135CE0FFE0AF1208C00E94250105C00E94300BDE
