S01800006275696C642F6D6963617A2F6D61696E2E73726563E5
S11300000C9491010C9482350C948C350C94963597
S11300100C94A0350C94AA350C94B4350C94BE35CC
S11300200C94F2350C94B0010C94B0010C94573438
S11300300C944E320C94B5320C9465350C94FE310C
S11300400C9426320C94FC350C9463360C94B00159
S11300500C94D0360C94B0010C94B0010C94B00103
S11300600C944E330C9409380C94E8370C94F33701
S11300700C94FE370C941C380C94CC370C94B001BF
S11300800C94DD370C94B0010C94B001F317FE17F7
S11300902218B218B518B818BB18BE18C1184428CD
S11300A054287628B928F4281C2920292429E23147
S11300B079297D29B229C629112A1F2A262A3C2AF0
S11300C0862ADD2A682B862B9C2BD52B612C7E2C33
S11300D0922C9D2CBD2F043078309C30AB3069318C
S11300E07A317C317F31BA31B231242CED2B072C9B
S11300F0E2311B2CE231E231522C1E2C1E2C1E2C20
S1130100E231E231E231212C212C212C2C373737FA
S11301104C3795379C37A337AA37B13700081C18DA
S1130120141000002110422063308440A550C660A2
S1130130E770088129914AA16BB18CC1ADD1CEE1A0
S1130140EFF13112100273325222B5529442F77217
S1130150D662399318837BB35AA3BDD39CC3FFF3F0
S1130160DEE36224433420040114E664C774A44427
S113017085546AA54BB528850995EEE5CFF5ACC540
S11301808DD55336722611163006D776F6669556F7
S1130190B4465BB77AA719973887DFF7FEE79DD790
S11301A0BCC7C448E5588668A77840086118022887
S11301B02338CCC9EDD98EE9AFF9488969990AA9E0
S11301C02BB9F55AD44AB77A966A711A500A333A57
S11301D0122AFDDBDCCBBFFB9EEB799B588B3BBB30
S11301E01AABA66C877CE44CC55C222C033C600CE7
S11301F0411CAEED8FFDECCDCDDD2AAD0BBD688D80
S1130200499D977EB66ED55EF44E133E322E511E36
S1130210700E9FFFBEEFDDDFFCCF1BBF3AAF599FCF
S1130220788F8891A981CAB1EBA10CD12DC14EF16F
S11302306FE18010A100C230E320045025404670D5
S11302406760B9839893FBA3DAB33DC31CD37FE300
S11302505EF3B1029012F322D23235421452776225
S11302605672EAB5CBA5A89589856EF54FE52CD5D0
S11302700DC5E234C324A014810466744764245475
S11302800544DBA7FAB79987B8975FE77EF71DC7E0
S11302903CD7D326F2369106B016576676761546C5
S11302A034564CD96DC90EF92FE9C899E9898AB930
S11302B0ABA94458654806782768C018E108823815
S11302C0A3287DCB5CDB3FEB1EFBF98BD89BBBAB40
S11302D09ABB754A545A376A167AF10AD01AB32A65
S11302E0923A2EFD0FED6CDD4DCDAABD8BADE89D90
S11302F0C98D267C076C645C454CA23C832CE01CB5
S1130300C10C1FEF3EFF5DCF7CDF9BAFBABFD98F1F
S1130310F89F176E367E554E745E932EB23ED10E04
S1130320F01E11241FBECFEFD0E1DEBFCDBF11E020
S1130330A0E0B1E0EAE2FBE700E00BBF02C00790F7
S11303400D92AE35B107D9F719E0AEE5B1E001C0C1
S11303501D92AE31B107E1F70E9452380C94933DDF
S11303600C9400009FB7F894E82FF0E0E255F84FA2
S113037010829FBF0895FC0120816181862F90E047
S1130380A0E0B0E077276627922B2381622B22819D
S1130390722B0895C0980895B89A0895C09A089544
S11303A087B78F7E87BF08951092200810921F0888
S11303B084E080932F0310921B071092330810924D
S11303C0BB031092FF041092FE04089580915C0810
S11303D08F3F71F0E82FF0E0E251FE4F908190934F
S11303E05C089F3F11F490930B099FEF908308954D
S11303F08FEF089583B783BF00B600FCFDCF089547
S11304009FB7F894E82FF0E0E251FE4F20812F3F90
S1130410C9F421E030E0E0910B09E81711F020E085
S113042030E0232B79F420915C082F3F19F480935A
S11304305C0804C0F0E0E251FE4F808380930B0916
S113044080E001C085E09FBF0895CF93CFB7F894B3
S113045080910109811108C08FE10E94000281117D
S113046003C081E080930109CFBFCF9108958CE14F
S11304700C9400028BE10C9400028091DF068A3018
S113048021F480912F03843021F081E08093730163
S1130490089581E20E9400021092730108950F935F
S11304A01F938FB7F8946091FC047091FD040CB510
S11304B01DB506B602FE04C06F5F7F4F0CB51DB5B7
S11304C08FBFCB01A0E0B0E07727662720E030E0C3
S11304D0602B712B822B932B1F910F9108959FB743
S11304E0F89420910D01281307C08091890182306E
S11304F019F49FBF81E008959FBF80E008959FB7DE
S1130500F894E82FF0E0E255F84F80819FBF0895FA
S11305109FB7F89480918901823019F09FBF8FEFC3
S1130520089580910D019FBF0895CF93C82F0E9415
S11305308802C8130AC081E020917D0130917E01B8
S11305402430310519F080E001C085E0CF91089591
S113055080911F04909120049093D7048093D60433
S1130560EBE1F4E086819781A085B1858093CC048A
S11305709093CD04A093CE04B093CF048081918155
S1130580A281B3818093F8069093F906A093FA06AA
S1130590B093FB060895CF92DF92EF92FF920F93F0
S11305A01F930E944F02C0909201D0909301E0905B
S11305B09401F09095010091260210912702209158
S11305C02802309129020C0D1D1D2E1D3F1D6C1596
S11305D07D058E059F0530F00C151D052E053F0584
S11305E058F005C00C151D052E053F0590F5601744
S11305F071078207930768F568017901C61AD70A5B
S1130600E80AF90A41E0C41640E8D406E104F1041A
S113061018F18B019C0110582F4F3F4F009392010A
S113062010939301209394013093950197018601CF
S113063010582109310900932602109327022093B0
S1130640280230932902C12C50E8D52EE12CF12C3C
S113065013C0C12CD12C7601009392011093930105
S11306602093940130939501109226021092270250
S113067010922802109229024CB55DB54D5F5F4F70
S11306809A01261B370B2C153D0518F4AB014C0DB4
S11306905D1D4115510511F441E050E041505109EF
S11306A059BD48BD88E086BF87B7886087BF1F9162
S11306B00F91FF90EF90DF90CF900895CF93CFB735
S11306C0F89410927701109276010E94D00187B7B6
S11306D08F7D87BF0E94CE01CFBF80E0CF91089568
S11306E0CF92DF92EF92FF920F931F930E944F02DB
S11306F0C090C407D090C507E090C607F090C70724
S1130700009130031091310320913203309133036F
S11307100C0D1D1D2E1D3F1D6C157D058E059F05A1
S113072030F00C151D052E053F0558F005C00C15BD
S11307301D052E053F0590F5601771078207930785
S113074068F568017901C61AD70AE80AF90A41E08E
S1130750C41640E8D406E104F10418F18B019C01AD
S113076010582F4F3F4F0093C4071093C507209391
S1130770C6073093C707970186011058210931092C
S113078000933003109331032093320330933303E7
S1130790C12CE0E8DE2EE12CF12C13C0C12CD12CAD
S11307A076010093C4071093C5072093C6073093BE
S11307B0C707109230031092310310923203109243
S11307C033034CB55DB54D5F5F4F9A01261B370B64
S11307D02C153D0518F4AB014C0D5D1D411551055B
S11307E011F441E050E04150510950937900409395
S11307F0780081E080937C0080917D00816080930B
S11308007D001F910F91FF90EF90DF90CF9008959E
S11308104091D0044330B8F450916508242F30E05F
S1130820250F311D2330310510F023503109F90112
S1130830EE0FFF1FE45FF64F918380834F5F409379
S1130840D00480E0089581E008954091D1044430BB
S1130850B8F450910004242F30E0250F311D2430CA
S1130860310510F024503109F901EE0FFF1FE45E49
S1130870F84F918380834F5F4093D10480E00895C3
S113088081E008953091D1043323C1F02091000414
S1130890E22FF0E0EE0FFF1FE45EF84F80819181BC
S11308A01182108231503093D1042F5F243019F01B
S11308B020930004089510920004089580E090E0CD
S11308C008953091D0043323C1F020916508E22FBC
S11308D0F0E0EE0FFF1FE45FF64F808191811182FB
S11308E0108231503093D0042F5F233019F02093BD
S11308F06508089510926508089580E090E00895D1
S11309000F931F934FB7F89498E0899FF001112437
S1130910E25DF84F64817581868197810081118140
S113092022813381600F711F821F931F4FBF1F915C
S11309300F910895CF92DF92EF92FF920F931F933E
S11309400E944F02C0901404D0901504E090160445
S1130950F0901704009104041091050420910604FA
S1130960309107040C0D1D1D2E1D3F1D6C157D05BA
S11309708E059F0530F00C151D052E053F0558F01A
S113098005C00C151D052E053F0590F56017710770
S11309908207930768F568017901C61AD70AE80A3D
S11309A0F90A41E0C41640E8D406E104F10418F160
S11309B08B019C0110582F4F3F4F00931404109348
S11309C015042093160430931704970186011058D8
S11309D021093109009304041093050420930604AB
S11309E030930704C12C20E8D22EE12CF12C13C043
S11309F0C12CD12C76010093140410931504209378
S1130A0016043093170410920404109205041092F3
S1130A100604109207044CB55DB54D5F5F4F9A0113
S1130A20261B370B2C153D0518F4AB014C0D5D1D31
S1130A304115510511F441E050E0415051095BBDAD
S1130A404ABD80E186BF87B7806187BF1F910F9140
S1130A50FF90EF90DF90CF9008952F923F924F92A6
S1130A605F926F927F928F929F92AF92BF92CF923A
S1130A70DF92EF92FF920F931F93EFB7F894809158
S1130A80F9039091FA03A091FB03B091FC031C01BC
S1130A902D019C01A20160E070E080E090E003E0A1
S1130AA00E947E3A51016201E12CF12C00E010E039
S1130AB00E94BE3A59016A017B01F82F192F03E005
S1130AC00E947E3A0F2F0E94BE3A59016A017B01AF
S1130AD0F82F192F03E00E947E3A0F2F0E94BE3A8E
S1130AE059016A017B01F82F192F03E00E947E3A15
S1130AF00F2F0E94BE3A59016A017B01F82F192F6A
S1130B0003E00E947E3A0F2F0E94BE3A01E00E9449
S1130B107E3A29013A0100E20E94993A49015A01B8
S1130B20C301B2019695879577956795680D791DF0
S1130B308A1D9B1D97FF05C09F776F5F7F4F8F4F67
S1130B409F4F6093F9037093FA038093FB03909390
S1130B50FC03EFBF1F910F91FF90EF90DF90CF90B8
S1130B60BF90AF909F908F907F906F905F904F90C9
S1130B703F902F90089530918301E32FF0E0EE0F22
S1130B80FF1FE653F84F8081918120918101222338
S1130B9059F03F5F343019F03093830102C0109252
S1130BA08301215020938101089530918001E32F26
S1130BB0F0E0EE0FFF1FEC53FB4F808191812091F9
S1130BC07F01222359F03F5F343019F030938001C4
S1130BD002C010928001215020937F0108958091DA
S1130BE01A07811102C086E004C08F5F80931A0740
S1130BF085E00C940002FF920F931F93CF93DF9331
S1130C008AE18093C60380E88093C70313E01093BE
S1130C10C8031092C9031092C3031092BD03FF24AA
S1130C20F394F092BE031092BF0386E08093CA034C
S1130C301092CB030FE00093CC031092E1031092C7
S1130C40E2031092E3031092E4030E942D056093E3
S1130C50CD03CFEFDFEFD093D603C093D5030E942B
S1130C602D056093CE03F092C00385E08093D203F8
S1130C7084E08093CF031093D3031093D003D093D5
S1130C80D803C093D7031092C10380E28093D403A6
S1130C901092C2031092C403D093DA03C093D90311
S1130CA00093D10384EF91E09093DC038093DB0302
S1130CB01092C50382EC97E0A0E0B0E08093DD03DE
S1130CC09093DE03A093DF03B093E003DF91CF9111
S1130CD01F910F91FF900895E2E2F1E06927660FFA
S1130CE0F11DE60FF11DC895982F802D3196C895FA
S1130CF090250895909167012091720191112FC060
S1130D0081112DC041E040936701809106018093D9
S1130D106601822F81708093E3018091000190919C
S1130D200101909365018093640180917101809326
S1130D306301322F31703427267EE32FF0E0EE0F6B
S1130D40FF1FEE5FFE4F808191819093010180939C
S1130D500001232B2093720184E20C94000220FFF3
S1130D6002C02B7F01C02D7F209372010895CF9381
S1130D70DF93D82FC62F80912F03813069F030F094
S1130D808230B9F1833009F444C001C1DD2309F490
S1130D9018C10E94D40112C1D11113C18091FE0463
S1130DA09091FF040E946C069093FF048093FE04CC
S1130DB082E080932F03C0933308C43409F0E7C062
S1130DC08091720180FF04C082FDE1C0846003C091
S1130DD081FDDDC082608093720180917201877E03
S1130DE0886080937201109271018FEF80930601E5
S1130DF0E8C0D111CCC06093BB038091FE049091F4
S1130E00FF040E946C069093FF048093FE0483E029
S1130E10D6C080911B078F3F09F4B9C0DD2309F4C4
S1130E2051C0823008F4B3C0E0911F08EE2311F0E2
S1130E30E15001C0E2E0AE2FB0E0A15EB74F1296E0
S1130E404C9150E0542F4427EE2311F0E15001C09F
S1130E50E2E0F0E0E15EF74F8281482B2091FE044E
S1130E603091FF044217530709F091C080E00E94BB
S1130E707A062091BB03E091E7043091E80481E015
S1130E808E0F863010F4982F01C090E0931769F00C
S1130E90F0E0E951FB4F2283863018F48093E70495
S1130EA002C01092E7040E9425020E94D40180919E
S1130EB062018D7F8093620180917301882309F41C
S1130EC080C073C0823008F44DC0E0912008F0E087
S1130ED0E15EF74F228130917201932F969596959A
S1130EE096959370892F90E08130910519F00297BF
S1130EF081F01FC0832F877E80618093720121114E
S1130F0002C081E101C080E0809371012093060159
S1130F1010C080917101843960F4E0910001F09176
S1130F200101E80FF11D2083809171018F5F80938F
S1130F30710180912008E82FF0E0E15EF74F6281B3
S1130F408F5F833018F48093200802C01092200829
S1130F508091FE049091FF040E946C069093FF041C
S1130F608093FE0480911F08E82FF0E0E15EF74FC4
S1130F70C2838F5F833018F480931F0802C01092DD
S1130F801F0880911B078F5F80931B071AC00E9464
S1130F90D401809162018D7F8093620181E00E947F
S1130FA07A0680917301882339F084E080932F03BB
S1130FB0DF91CF910C943D02DD2319F081E0809301
S1130FC02F03DF91CF910895CF93DF93EC018091AC
S1130FD01402843120F48F5F8093140217C010929E
S1130FE01402CE0148969F938F938EE191E09F93D4
S1130FF08F930E94E03A9FB7F8948BB321E0822745
S11310008BBB9FBF0F900F900F900F90CE01DF917D
S1131010CF91089563FF04C062FD04C097E003C04C
S113102093E001C09DE067FF07C086FF02C09E5F9A
S113103001C09C5F66FD9A5FFA01908380E0089589
S11310401F93CF93DF93FC011185C081D1810E944E
S1131050250480912002843120F48F5F8093200244
S113106014C0109220021F921F93CE0148969F93A2
S11310708F938EE391E09F938F930E94E03A0F90B9
S11310800F900F900F900F900F90DF91CF911F91C1
S113109008958091E304882349F01092E3041092A8
S11310A016021092150289E10C94000208959FB76C
S11310B0F8948091FF0381608093FF039FBF08959C
S11310C0813419F08D3419F008950C9457089FB7A2
S11310D0F8948091FF0382608093FF039FBF08957B
S11310E04F925F926F927F928F929F92AF92BF9234
S11310F0CF92DF92EF92FF920F931F93CF93DF93E0
S11311000E944F02CEEAD7E040E044244A94542C93
S11311103201EEE2F7E029912223C1F1808091802F
S1131120A280B3806B017C01C818D908EA08FB08C7
S11311300481158126813781C016D106E206F306A3
S113114068F0080D191D2A1D3B1D0083118322839D
S1131150338314821582168217820CC060837183D4
S1131160828393830C191D092E093F090483158377
S113117026833783048115812681378140165106E1
S11311806206730618F02801390141E0389627E019
S1131190EE3AF20709F0BFCF442341F177FE04C0D1
S11311A07694679457944794609392017093930153
S11311B080939401909395014092260250922702C5
S11311C06092280270922902DF91CF911F910F91B2
S11311D0FF90EF90DF90CF90BF90AF909F908F9053
S11311E07F906F905F904F900C94CB0287B7877F6E
S11311F087BFDF91CF911F910F91FF90EF90DF9008
S1131200CF90BF90AF909F908F907F906F905F90A2
S11312104F9008959FB7F8948091FF038460809362
S1131220FF039FBF08958091260490912704892B82
S113123059F581E090E090932B0880932A0888E187
S113124092E090932704809326041092B90310929D
S1131250B80381E08093BA035E9A569A8091B803EA
S11312609091B9039C012F5F3F4F3093B9032093B2
S1131270B803FC01E85EFD4F90818FB7F8949CB9E8
S11312805E9A8FBF80E0089585E0089593E8980FF3
S1131290923050F49091620191609093620190E2D7
S11312A098279093FD068DE7809318020C941309F8
S11312B09FB7F894809162018E7F809362018EE7DC
S11312C0809318029FBF0C94130920916D013091F3
S11312D06E01232BB1F52FB7F89431E130936B01F4
S11312E010926A019093700180936F0182E090E004
S11312F090936E0180936D011092680110926901C0
S1131300685E60936C012FBF8FB7F8949091DF06ED
S11313109A3011F48FBF17C08FBF9FB7F894809194
S11313202E04811106C081E080932E0410922F04B4
S113133001C080E09FBF882331F00E94250280E035
S1131340089585E0089510926E0110926D0181E078
S113135008958FEF80937D0880937C0884E68093C2
S113136082088091F6049091F704892BF1F48BE6BE
S113137098E09093F7048093F6048CE180938008BE
S113138080910701882399F0109207016CE18BE6A4
S113139098E00E946509882359F091E09093070131
S11313A01092F7041092F604089585E0089580E001
S11313B00895FB01833009F471C028F4882319F1DE
S11313C0823099F174C0833589F0803F29F18035EA
S11313D009F06DC0808191812FB7F89431E030938A
S11313E0C2079093EE038093ED030BC0808191813B
S11313F02FB7F89431E03093C20790931904809387
S113140018042FBF54C090818FB7F89421E0209323
S1131410C2079093D2074AC090818FB7F89421E015
S11314202093C2079093DF0141C09081892F8F736D
S113143095FD806C992787FD909597FF19C08F3F84
S11314402FEF9207B9F08D3F2FEF9207ACF48B3F4B
S11314502FEF92079CF4883F2FEF92078CF4843F80
S11314602FEF92077CF48D3E9F4F74F087E00DC000
S11314708FE10BC08BE109C087E107C083E105C0A0
S11314808FE003C08BE001C083E09FB7F89421E0B4
S11314902093C2078093F4039FBF09C090818FB744
S11314A0F89421E02093C207909366088FBF80913F
S11314B07D0190917E010697029718F484E10C94C3
S11314C000020895209181012430E0F430918201DA
S11314D0E32FF0E0EE0FFF1FE653F84F9183808374
S11314E081E0830F843019F08093820102C010924E
S11314F082012F5F209381018AE00E94000280E034
S113150090E0089581EF90E00895CF93CFB7F894D9
S11315108091150290911602892B19F4CFBF89E0AE
S11315200EC081E08093E30489B78F7B89BF8091EB
S11315302E03811102C00E944908CFBF80E0CF91E1
S11315400895CF93C82F0E948802C8131BC02FB7D9
S1131550F89480917D0190917E018430910519F475
S11315602FBF89E010C0079719F02FBF81E00BC08F
S113157088E090E090937E0180937D012FBFCF910E
S11315800C94850A85E0CF91089580E00C94A10A1B
S1131590CF92DF92EF92FF92CF93DF9300D000D0EF
S11315A0CDB7DEB76B017C0129833A834B835C831F
S11315B00E944F02660F771F881F991F6C197D09BF
S11315C08E099F09E1E029813A814B815C81621790
S11315D073078407950708F4E0E08E2F0F900F90AF
S11315E00F900F90DF91CF91FF90EF90DF90CF900D
S11315F00895CF93DF93EC01888199810E940804B8
S1131600CE01DF91CF910C9425049FB7F89481E02B
S113161020910B01211180E09FBF08956E9A8FB92C
S1131620779BFECF8FB108959091270791110C9469
S11316300E0B80E00895CF93CFB7F8940E94050B6A
S1131640811103C0CFBF81E00EC00E94CE010E9471
S1131650CA0183E00E94140B8BE00E94140B0E94C9
S1131660CE01CFBF80E0CF9108951F93CF93DF9336
S11316701F92CDB7DEB720917601309177012330E8
S1131680310509F049C089830E94CE010E94CA0134
S11316908981882311F085E001C084E00E94140B45
S11316A083FD09C080E00E94140B83FB112710F90D
S11316B081E0182701C011E00E94CE0111112EC053
S11316C084E090E09093770180937601E091F404B4
S11316D0F091F5040480F581E02D8FEF83838283FC
S11316E0818380830E944F026093140470931504D5
S11316F0809316049093170480EE91E0A0E0B0E08C
S11317008093040490930504A0930604B093070403
S11317100E949A0480E003C084E001C081E00F903D
S1131720DF91CF911F910895CF93CFB7F8940E9482
S1131730050B811103C0CFBF81E00BC00E94CE0115
S11317400E94CA0186E00E94140B0E94CE01CFBF02
S113175080E0CF910895CF92DF92EF92FF920F93A2
S11317601F93CF93DF930091690810916A08E0906A
S11317707106F0907206C091F204D091F3042091A6
S1131780960130919701CE010A962817390708F47B
S1131790C9016C0121E0C21AD108CC15DD05A0F401
S11317A00115110529F0F801EC0FFD1F808101C01E
S11317B080E00E940E0BE114F10421F0F701EC0F1C
S11317C0FD1F80832196E9CF6F9A0115110531F031
S11317D0F801EC0FFD1F80818FB901C01FB8D093B1
S11317E0F304C093F20480E0DF91CF911F910F9135
S11317F0FF90EF90DF90CF9008955093970140931E
S1131800960190936A0880936908709372066093B6
S113181071061092F3041092F204452B19F08FB163
S11318200C94AB0B87E10E94000280E00895CF93F3
S1131830DF930E94CE010E94CA01C0918206D0911A
S1131840830680912707882391F08FE790E0909397
S11318502904809328048FE70E940E0B41E050E096
S1131860BE0180E090E0DF91CF910C94FD0BDF91FD
S1131870CF910895EF92FF921F93CF93DF931F921E
S1131880CDB7DEB77C01809127078823A9F08EE3CA
S113189090E090932904809328048EE369830E9446
S11318A00E0B182F6981462F50E060E070E0C701ED
S11318B00E94FD0B812F01C080E00F90DF91CF913A
S11318C01F91FF90EF9008958F929F92AF92BF92D5
S11318D0CF92DF92EF92FF92CF93DF9300D000D0AC
S11318E0CDB7DEB74B015C0129833A834B835C831C
S11318F00E944F026B017C01CC0CDD1CEE1CFF1C12
S1131900C818D908EA08FB084601570129813A8119
S11319104B815C81C216D306E406F50610F4490136
S11319205A010E944F026093C4077093C5078093C5
S1131930C6079093C707D501C4018C199D09AE0948
S1131940BF09B695A7959795879580933003909393
S11319503103A0933203B09333030F900F900F9091
S11319600F90DF91CF91FF90EF90DF90CF90BF90D9
S1131970AF909F908F900C9470030F931F93CF930D
S1131980CFB7F89490918901923071F490910D0140
S113199098130AC08091100581110EC08091110521
S11319A0882309F43EC008C090E0CFBF81E08927B6
S11319B0CF911F910F91089520918A0130E0C901C0
S11319C0019661E070E08C30910511F480E090E0C4
S11319D0E82FE695E695E695F0E0E05FFA4FA08102
S11319E0482F47708B0102C0000F111F4A95E2F780
S11319F0A801BA2FB02331F040954A234083809345
S1131A008A0106C08217930711F00196DCCF8FEF8D
S1131A1080931A0281E08093890182E00E9400028F
S1131A2005C08FEF80930D011092890191E0BDCF25
S1131A306F927F928F929F92AF92BF92CF92DF92DA
S1131A40EF92FF920F931F93CF93DF93D0902F02C7
S1131A50CFB6F89480911209813011F4CFBE73C1CE
S1131A60A090FF03A2FEB6C0EFEBF1E0912C68EF6B
S1131A70C191D1912097C1F10990D881C02D8A815B
S1131A808C708C3089F526968CE793E070E010E03A
S1131A90191599F0783081F1AE019C0170E0DA01FA
S1131AA0FD90AD01D9010D919D01F01203C07F5F3E
S1131AB07830A9F71F5F0897EBCF7830E9F093945B
S1131AC0492D64039001112480E090E0275C3C4F91
S1131AD079910196A901480F591F465B5F4FDA01BE
S1131AE07C9388309105A1F7B1E0ED3CFB0721F030
S1131AF027E0291508F0BCCF092D10E048EF40037A
S1131B00C00111248C579C4FEFEBF1E0B12C7C0108
S1131B1052E0E51AF108C191D191209769F1099039
S1131B20D881C02D2A812C70283031F52F8130E0E6
S1131B30322F22274E81242B732E612CD301A22B0A
S1131B409D01A701812C8B1471F0EA016981425037
S1131B50510970E0762F6627C8816C2B261737074A
S1131B6091F08394F0CFB394EC01B2E0BB9EC01922
S1131B70D10911242883398321E0ED3CF20719F0BF
S1131B8036E03B1540F62CEF2003F001219FF00DC9
S1131B901124EB19F109EE0FFF1FED57FC4F54E030
S1131BA0000F111F5A95E1F70B290083990C990C2A
S1131BB09B0C990C939484E893E0891991092091E2
S1131BC0BF07921669F09092BF072A2D2F602093C9
S1131BD0FF0306C02091BF0784E893E0821B9109AC
S1131BE0A091FF03A1FF3AC09C0129533340222353
S1131BF029F0FC013197108261E001C060E0EC0142
S1131C00C61BD1092881277030E0D12C70E0472F02
S1131C1050E04217530764F4FE0143E0749FE00D63
S1131C20F11D1124448142954F70D40E7F5FEFCF94
S1131C302091E20162130CC04FE050E04D195109AC
S1131C402091ED0130E0215031094217530759F03A
S1131C506093E201AF60A093FF0305C02091E2010D
S1131C60EC01C21BD109DE0112974091FF0340FF32
S1131C701FC02091810650E1259F900111243091CD
S1131C802C08322B3C93FE0112928091BD038823D1
S1131C9011F080E880838091C503882319F0808146
S1131CA0806480838D2D80958F709081892B8083B3
S1131CB08091BF079091E201890F8E5F9091D904C2
S1131CC0890F80937A06B0937606A0937506407FB9
S1131CD04093FF03CFBED99ADA98E0917306F0914E
S1131CE074068091CD038F5F8383DFB7F89480916E
S1131CF01209813039F1C091FF03C4FF15C010915E
S1131D00D8040091DE01802F90E0412F50E06091D3
S1131D102102709122028C579C4F0E94D03AC5FF39
S1131D2003C0100F1093D9048091BF079091E20172
S1131D30890F8E5F9091D904890F80937A06CF70B2
S1131D40C093FF03DFBFDF91CF911F910F91FF90ED
S1131D50EF90DF90CF90BF90AF909F908F907F9047
S1131D606F900895EF92FF920F931F93CF93DF9399
S1131D708C01FFB6F8940E94050B882311F10E9490
S1131D80CE010E94CA0180912707882381F083E550
S1131D900E940E0BE82E80E00E940E0BC82FD0E0AC
S1131DA0DC2FCC2780E00E940E0BC82B01C0E12C55
S1131DB00E94CE01E1FE05C0F801C083FFBE80E0B1
S1131DC002C0FFBE81E0DF91CF911F910F91FF9080
S1131DD0EF900895CF93DF9300D0CDB7DEB79FB7D0
S1131DE0F89420912707222389F09FBF6A8379837F
S1131DF00E940E0B7981872F0E940E0B6A81862F19
S1131E000F900F90DF91CF910C940E0B9FBF80E049
S1131E100F900F90DF91CF9108958091D20790E0B9
S1131E200B9725E0289FB001299F700D11246B5951
S1131E307E4F706488E10C94EA0EE1E08091F10435
S1131E40811101C0E0E041E08091DF01811101C016
S1131E5040E021E080912302811101C020E08091C3
S1131E60F503882351F051E030E08091C3078111DC
S1131E7001C050E0852F932F02C080E090E0609174
S1131E80660830E4639FB001112462627260F0E07E
S1131E90FE2FEE27F295FF0FF07E6E2B7F2B50E086
S1131EA0542F44275295507F642B752B30E0322FEA
S1131EB02227330F330F330F622B732BA4E0880FC9
S1131EC0991FAA95E1F7682B792B81E10C94EA0E0E
S1131ED080917B0190917C010197F1F582E090E083
S1131EE090937C0180937B01DE98DE9A80917B0144
S1131EF090917C01029781F583E090E090937C01BE
S1131F0080937B010E94CE010E94CA0168E170E0C7
S1131F108DE10E94EA0E81E080931A0410927A0106
S1131F2080B386FB882780F98093250485E10E948D
S1131F30000281E00E94140B6FE772E08CE10E94C2
S1131F40EA0E0E940D0F0E941D0F66E57AE287E1FA
S1131F500E94EA0E0C94CE01089550915F015C3109
S1131F6018F4252F30E002C02CE130E08CE1E3E8E6
S1131F70F8E0DF011D928A95E9F74091610180E064
S1131F8090E08217930791F0E42FF0E0ED5CFD4FB1
S1131F906081552329F04F5F4A3F09F440E05150D6
S1131FA0FC01E559F74F608F0196EBCF4093610137
S1131FB050935F010E94A909882319F085E20C94CB
S1131FC000020895CF93DF931F92CDB7DEB79091AF
S1131FD05E0191110BC090915F019D3738F091E043
S1131FE090935E0189830E94AD0F89819FB7F89415
S1131FF020915F012A3FB8F430916001E32FF0E0B3
S1132000ED5CFD4F808381E0830F8A3F19F080935C
S1132010600102C0109260012F5F20935F019FBF97
S113202080E090E003C09FBF8FEF9FEF0F90DF91A0
S1132030CF91089597B79F7D97BF90E296BF88236D
S113204019F08EB5806402C08EB58F7B8EBD87B7C4
S1132050806287BF80E008956E98BA9ABB98B99A57
S11320600E94CC016C9A6F986B986A986E9A709AD9
S11320708DB18C7F8DB908951F93CF93DF931F92F9
S1132080CDB7DEB71FB7F8949091270791111FC001
S113209091E09093270720910801909178012111F4
S11320A002C0923079F0911115C092E090937801BA
S11320B01092080189830E942C100E94CC010E9476
S11320C0CA01898180930B0180E01FBF07C01FBF35
S11320D085E004C01092270781E0F7CF0F90DF91CD
S11320E0CF911F910895CF93CFB7F894909127077C
S11320F091110FC091E09093270780930B01909169
S1132100080180917801911110C0823071F486E148
S113211018C021E030E001C0220F8A95EAF78091CF
S11321207901822B809379012EC0882349F1809113
S11321307801811109C081E0809378011092250211
S113214088E10E9400021FC080912E028F3FD9F4C3
S113215081E090E0E0910901EE2311F080E090E04D
S1132160892B89F480910A018F3F19F410920A0196
S113217004C0F0E0E25DFD4F10821092090103C03B
S11321800E942C10D4CFCFBF80E0CF91089580E07F
S11321900C9473108091150290911602892BF1F022
S11321A08091E30481111AC083E090E090931602B9
S11321B08093150281E080932E039FB7F894809159
S11321C00B019FBF813011F40C94170C81E00E9425
S11321D03C108823C9F381E00C9473100895CF92C6
S11321E0DF92EF92FF92CF93DF93C82F6A017B01B6
S11321F00E944F02DFB7F8942C2F30E0F901B3E0CE
S1132200EE0FFF1FBA95E1F7E25DF84F608371832B
S113221082839383C482D582E682F782F901E255F0
S1132220F84F81E080838091BE07811102C00E9433
S11322307008DFBFDF91CF91FF90EF90DF90CF90D8
S11322400895CF93CFB7F894809176019091770158
S1132250019719F4CFBF89E00DC081E00E941A10E4
S113226081E090E09093770180937601109275015C
S1132270CFBF80E0CF9108958091790181114EC044
S113228080910B018F3F09F049C08091270781118C
S113229045C081E08093FB078091E6018111109293
S11322A0FB078091FB078823B9F180910801811114
S11322B004C080917801823099F180917801823054
S11322C029F580910801811121C080910A018F3F75
S11322D0C9F09FEF90930801E82FF0E0E25DFD4F15
S11322E0908190930A019F3F11F4909309019FEF0D
S11322F090838093250281E08093780188E10E9495
S1132300000204C080930801109278018091780142
S1132310811109C06E9807C085E0089581E0089591
S11323200E94CE01CACF80E00895CF93CFB7F8942E
S113233090910B01981719F0CFBF81E02DC08FEF5A
S113234080930B0170917901711105C010922707D8
S11323500E943C111CC060E0872F90E06170AC01CA
S1132360062E02C0559547950A94E2F740FF12C025
S113237060930B0181E090E001C0880F6A95EAF751
S1132380809587238093790186E10E940002CFBF64
S113239080E002C06F5FE2CFCF910895CF93CFB7B3
S11323A0F89480E00E949511CFBFCF91089581E009
S11323B00C949511CF93CFB7F89480911502909116
S11323C01602892B09F110922E038091E3048823CD
S11323D019F00E9449081AC080912402882311F040
S11323E0B79904C00E9908C0882319F081508093CE
S11323F024020E94CA100AC082E090E09093160260
S113240080931502109224020E94D711CFBFCF915E
S1132410089580E88093DD0110922E0310926308E2
S113242010925B08109224020E94CE010E94CA01FD
S113243088E00E94140B88E00E94140B0E94CE01D5
S11324400E94D7110C94DA110F93CF9320910805B1
S11324503091090540910A0550910B0560910C05D6
S113246070910D05C0910E05B0910F05FC01A8E017
S113247021938C2F9B2F08E00E94993AC82FB92FE3
S1132480A150B1F7CF910F910895EF92FF920F935E
S11324901F93CF93DF93CDB7DEB72C970FB6F89485
S11324A0DEBF0FBECDBF1FB7F894CE0101960E94C8
S11324B024129091ED038091EE0399878A8790917D
S11324C01804809119049B878C871FBF21E0809199
S11324D0ED039091EE03019609F020E0722F770F3F
S11324E0770F770F60E06F6772608CE10E94EA0EED
S11324F08FB7F89490912707911102C08FBF16C02F
S11325008FBF80EE0E940E0B80E80E940E0B8E019E
S11325100F5F1F4F7E018DE0E80EF11CF8018191E1
S11325208F010E940E0B0E151F05C1F72C960FB6D6
S1132530F894DEBF0FBECDBFDF91CF911F910F91F5
S1132540FF90EF900895CF93CFB7F8940E94050BB6
S1132550811103C0CFBF81E027C08091C2078823C7
S113256009F10E94CE010E94CA0186E00E94140B68
S11325700E94CE010E94CA010E940D0F0E941D0FED
S11325806091F40370E0606E706885E10E94EA0E69
S11325900E94CE010E94CA010E9445120E94CE01EF
S11325A01092C207CFBF80E0CF910895CF930E94CD
S11325B0A3120E942111E0912407F0912507CFB7BF
S11325C0F8948091760190917701019729F582E042
S11325D090E09093770180937601F093F504E09373
S11325E0F404A081B18186819781890F8E5F8C93D9
S11325F00E94CE010E94CA0189E00E94140B0E942D
S1132600CE010E94CA01E091F404F091F50461E066
S1132610808191810E943A0CCFBFCF9108950E948E
S1132620050B81110C94D61280E00E943C10882383
S1132630C9F30C94C7100F931F93FC01009709F47E
S113264041C080819181892BE9F182819381892B19
S113265019F48781811136C084819581892B91F188
S1132660A681878190E08A0F911D8E37910554F5DC
S1132670AFB7F89480917D0190917E01049719F091
S1132680AFBF81E020C089E090E090937E01809309
S11326907D01AFBFF0932507E093240740933503F2
S11326A05093360360933703709338030093CE013D
S11326B01093CF012093D0013093D1010E940F13C6
S11326C080E001C086E01F910F910895CF92DF92C0
S11326D0EF92FF920F931F93CF93DF9300D000D01C
S11326E0CDB7DEB781E08093120980910105E091B6
S11326F07306F0917406811115C08091FD039091C9
S1132700FE03892B61F481E090E0209199013091DE
S11327109A01232B11F480E090E0892B19F0818138
S1132720806102C081818F7E8183809159088823D2
S113273051F01092590810922A0210922B02109212
S11327402C0210922D02C0902A02D0902B02E0900D
S11327502C02F0902D024091F8045091F9046091FC
S1132760FA047091FB0449835A836B837C830E942F
S1132770880249815A816B817C81833031F49701CD
S1132780860183E796E00E941B130F900F900F9031
S11327900F90DF91CF911F910F91FF90EF90DF90F9
S11327A0CF9008954F925F927F928F929F92AF92B3
S11327B0BF92CF92DF92EF92FF920F931F93CF932A
S11327C0DF9300D000D0CDB7DEB71091ED0120919A
S11327D02A0730912B0740912C0750912D0785E053
S11327E029833A834B835C830E94950229813A8131
S11327F04B815C81882309F4B4C0A12FB0E00E940E
S11328004B3A4B015C016B017C0124EAC21A21E0C2
S1132810D20AE108F1088091F8069091F906A09196
S1132820FA06B091FB06C81AD90AEA0AFB0AC701DC
S1132830B60124E130E040E050E00E94563AE4E181
S1132840CE0ED11CE11CF11CC61AD70AE80AF90AFB
S11328508C149D04AE04BF0418F4C12CD12C760151
S11328608091EB019091EC01009749F0A0E0B0E079
S11328708C159D05AE05BF0510F46C017D016091BA
S1132880F8047091F9048091FA049091FB04A70173
S113289096010E94C80A811167C00091E00110915D
S11328A0E10170901D028090F8049090F904A090CA
S11328B0FA04B090FB044090D6045090D7040E94D0
S11328C08802853009F053C04114510409F44FC003
S11328D0F20180819181892B09F449C0828193811D
S11328E0892B19F48781811142C0F2018481958179
S11328F0892BE9F12681878190E0820F911D8E3723
S11329009105ACF580917D0190917E01049779F554
S11329108BE090E090937E0180937D015092250797
S1132920409224078CEC94E09093E5018093E401B9
S11329308092350390923603A0923703B092380305
S1132940C092CE01D092CF01E092D001F092D10199
S11329507092060910931C0800931B080E940F1321
S113296006C080E090E005C083E090E002C082E011
S113297090E00F900F900F900F90DF91CF911F91E7
S11329800F91FF90EF90DF90CF90BF90AF909F900A
S11329908F907F905F904F900895CF92DF92EF9247
S11329A0FF926B017C018091740181111FC083E04F
S11329B0809374010E944F026093C4077093C5070B
S11329C08093C6079093C707F694E794D794C79467
S11329D0C0923003D0923103E0923203F092330379
S11329E0FF90EF90DF90CF900C947003FF90EF90E6
S11329F0DF90CF900895CF93E091E401F091E50149
S1132A00C0810E942D052FEF3FEF02C0220F331F1C
S1132A10CA95E2F74DE050E050937E0140937D016A
S1132A20209530952623372384E1829FB001839F2C
S1132A30700D112480E090E0CF910C94CD142F926E
S1132A403F924F925F926F927F928F929F92AF923A
S1132A50BF92CF92DF92EF92FF920F931F93FC01EC
S1132A60DB0117968C91179716968C901697912CDC
S1132A70A12CB12C540199248824B82A14968C9141
S1132A801497882A15968C911597982A9401A50174
S1132A9060E070E080E090E000E20E947E3A1396ED
S1132AA0FC90139712962C901297822C912CA12CA7
S1132AB0B12C540199248824BF28FC908F281196A6
S1132AC0AC919A2A1401250151016201E12CF12CE7
S1132AD000E010E00E94B53A20833183428353839F
S1132AE064837583868397831F910F91FF90EF9082
S1132AF0DF90CF90BF90AF909F908F907F906F901A
S1132B005F904F903F902F900895FC01CB0132814C
S1132B1037FF29C0232F2C70283021F02C3021F0CE
S1132B2023E003C027E001C02DE0418146FF01C03E
S1132B3033FF2E5F3196432F407C30E0403861F400
S1132B40E20FF31F218130E0322F22274081242B12
S1132B50FC013183208305C0BF01620F731F0E94F3
S1132B601F1580E0089581E008958F929F92AF929F
S1132B70BF92CF92DF92EF92FF920F931F93CF9366
S1132B80DF93EC014A01D901B02EF6018EEF860FD6
S1132B90823070F54B839C82623039F49C9111969B
S1132BA08C919D838E8317E026C02C9111963C91C5
S1132BB0119712964C91129713965C911397149651
S1132BC06C91149715967C91159716968C9116977F
S1132BD017969C91DE0115966E011DE0C10ED11C65
S1132BE02D9308E00E94993AAC15BD05C9F702C0BF
S1132BF013E001C01DE08EEF8B0D823058F58E146A
S1132C009F0411F4A11007C0DE01A10FB11DEC92C5
S1132C101196FC921E5FA12FB0E082E0B81208C0AA
S1132C2090818181CA0FDB1F988389831E5F12C044
S1132C3020813181428153816481758186819781AC
S1132C40CA0FDB1FE8E0299308E00E94993AE1509B
S1132C50D1F7185F812FDF91CF911F910F91FF90D2
S1132C60EF90DF90CF90BF90AF909F908F9008959A
S1132C702FB7F894B79905C00E9903C02FBF81E010
S1132C80089580E88093DD0110922E03109263086A
S1132C9010925B081092240282E090E09093160256
S1132CA08093150289B78F7B89BF80E488BF8AB778
S1132CB080628ABF8AB78F7E8ABF89B7806489BFE2
S1132CC02FBF80E00895E0912407F091250701903B
S1132CD0F081E02D818185FF04C00E94CE110C9407
S1132CE03816089510920701E091F604F091F70464
S1132CF03097D1F08091640880FD16C0809107015F
S1132D00811116C0218982896589673718F08EE19F
S1132D100C94000290E0922B828B918BCF010E9445
S1132D206509882329F0F3CF81E080930701E6CF7A
S1132D300895CF93CFB7F8940E94050B811103C077
S1132D40CFBF81E01FC0B79B1BC00E94CA01809106
S1132D502707882349F08FE70E940E0B80E00E942A
S1132D600E0B80E00E940E0B0E94CE010E94CA014D
S1132D7088E00E94140B88E00E94140B0E94CE018C
S1132D80CFBF80E0CF9108958F929F92AF92BF9270
S1132D90CF92DF92EF92FF920F931F93CF93DF9323
S1132DA080911209813079F489E0DF91CF911F91EC
S1132DB00F91FF90EF90DF90CF90BF90AF909F90D6
S1132DC08F900C94000280912C088F3079F483E06A
S1132DD0DF91CF911F910F91FF90EF90DF90CF90F3
S1132DE0BF90AF909F908F900C94BD0CCFB7F89488
S1132DF082E080931209809159088111B3C08091B7
S1132E00D8019091D901A091DA01B091DB01892B0D
S1132E108A2B8B2B31F58091B9019091BA01A09145
S1132E20BB01B091BC010097A105B105D1F080931D
S1132E302A0290932B02A0932C02B0932D0210929D
S1132E40B9011092BA011092BB011092BC01809199
S1132E50CD0182FF06C08B7F8093CD0188E00E9464
S1132E60000220912A0230912B0240912C025091B1
S1132E702D026091F8047091F9048091FA04909104
S1132E80FB040E94C80A20912A0230912B0240912F
S1132E902C0250912D028823A9F08091D2049091A4
S1132EA0D304A091D404B091D504820F931FA41F1E
S1132EB0B51F80932A0290932B02A0932C02B09307
S1132EC02D02CFCF6091F8047091F9048091FA0437
S1132ED09091FB0460597140810991090E94C80ACC
S1132EE0811140C080902A0290902B02A0902C0265
S1132EF0B0902D02F0E9CF2EDD24D394E12CF12CF7
S1132F008091F8049091F904A091FA04B091FB0423
S1132F10C81AD90AEA0AFB0ADFB7F8940E944F02DA
S1132F20660F771F881F991F6C0D7D1D8E1D9F1DB9
S1132F306B017C01681579058A059B0510F4750100
S1132F40640197018601061B170B280B390BB90185
S1132F50A801769567955795479582E00E94EF10F2
S1132F60DFBF02C00E946613CFBFDF91CF911F91D4
S1132F700F91FF90EF90DF90CF90BF90AF909F9014
S1132F808F90089583E00E94950281110C94C416D9
S1132F9083E00C94A10A6F927F928F929F92AF92DA
S1132FA0BF92CF92DF92EF92FF920F931F93CF9332
S1132FB0DF931F92CDB7DEB7182F7FB6F8946983DD
S1132FC00E94880269818113E3C060930D01862FFA
S1132FD090E0FC013397E930F10508F0D6C0EA5BD4
S1132FE0FF4F0C94783A8091CD01897021F089E0EB
S1132FF00E940002CAC00E94C217C7C08091F80391
S11330008823E9F00091FD031091FE0301151105D9
S113301021F40091990110919A0181E080930105B6
S113302085E00E946F0281110AC08091C8079091C7
S1133030C907892B21F41093C9070093C80765E0D9
S113304084E0A1C0A091ED0120912A0730912B07C3
S113305040912C0750912D07B0E00E944B3A643AFE
S113306021E072078105910518F466E085E08BC0C4
S11330706B017C01E4EACE1AE1E0DE0AE108F10822
S11330808091C8079091C907892B31F081E0809322
S113309009098CE00E9400028090F8049090F904E1
S11330A0A090FA04B090FB046FB6F8940E944F020B
S11330B0660F771F881F991F681979098A099B0968
S11330C08B019C016C157D058E059F0510F49701FD
S11330D0860168017901C61AD70AE80AF90AB70114
S11330E0A601769567955795479587E00E94EF105E
S11330F06FBEC090EB01D090EC01C114D10479F102
S1133100E12CF12C8090F8049090F904A090FA043A
S1133110B090FB046FB6F8940E944F02660F771FBD
S1133120881F991F681979098A099B098B019C01D9
S11331306C157D058E059F0510F4970186016801C5
S11331407901C61AD70AE80AF90AB701A6017695E1
S113315067955795479588E00E94EF106FBE0E94CF
S1133160DA1813C063E086E00EC068E087E00BC0A5
S113317063E088E008C06AE089E005C063E08AE0B3
S113318002C063E08BE00E94CB177FBE80E002C0E8
S11331907FBE81E00F90DF91CF911F910F91FF903F
S11331A0EF90DF90CF90BF90AF909F908F907F90E3
S11331B06F900895CF93CFB7F89480910909811146
S11331C094C085E00E946F02882309F48EC081E0D8
S11331D080930909A091ED0120912A0730912B07D2
S11331E040912C0750912D07B0E00E944B3A9B016F
S11331F0AC01245A3140410951096091F80470919D
S1133200F9048091FA049091FB040E94C80A88236F
S113321039F085E00E949502882309F4BCC006C0F9
S113322087E00E947F028823A1F32CC087E00E94DC
S1133230B20188E00E94B20110920E048091C80786
S11332409091C907892BB9F00E94A8028091C80700
S11332509091C9079093BE018093BD0181EE90E0E7
S11332609093C1078093C00780E10E9400021092EE
S1133270C9071092C8071092090966E085E00E9408
S1133280CB1733C08091C8079091C907892B09F0E7
S11332905CC08091F6039091F703209117092111E6
S11332A006C021E0029709F020E0822F01C081E0EE
S11332B020918601811108C081E090E0211102C0B3
S11332C080E090E0892B99F085E00E9495028823A4
S11332D009F461C087E00E94B20188E00E94B20153
S11332E01092090985E00E94BD0CCFBF5BC02091FC
S11332F0EB013091EC012115310509F140E050E07A
S11333006091F8047091F9048091FA049091FB049F
S11333100E94C80A882399F08091300281110FC05D
S11333208091190281110BC085E00E9495028823C7
S113333019F083E090E021C080E090E01EC080910D
S1133340D6049091D704892B19F00E94D21315C08A
S11333500E948802853011F580917D0190917E0153
S11333600797E1F085E00E9495028823A1F085E0AB
S11333700E94571E81E090E007C08330910521F43C
S11333801092090983E090E0CFBF892B59F485E0BE
S1133390CF910C94A10A80E090E0F6CF8DE00E94DA
S11333A00002EECFCF9108952FB7F894FC018081ED
S11333B0809319022FBF0C94DA18FC018091CE037C
S11333C0A081B18113968C938F5F8093CE0310926A
S11333D0CF048091CF03809361088093CE048091C1
S11333E0D203809380068093CD048091D003809390
S11333F0CC049091BF03992329F0833018F082E024
S11334008093CC048091CC0480930D0480910409B2
S1133410909105098E179F0719F410920A0904C0A8
S11334208091D30380930A098681478150E0480F35
S1133430511D495F5F4F440F551F662757FD609527
S1133440762F4093F8065093F9066093FA0670932A
S1133450FB06A081B18111968C9185FF0CC04A5C5A
S11334605F4F6F4F7F4F4093F8065093F906609378
S1133470FA067093FB064091DD035091DE036091E0
S1133480DF037091E0034093D3015093D401609320
S1133490D5017093D601F093D704E093D604089530
S11334A020EE280F982F41E050E060E070E099236F
S11334B051F0440F551F661F771F91509213F7CF99
S11334C040E050E0BA014427587F7770452B462BE3
S11334D0472B51F08093C60366EC73E080E00E94B2
S11334E0D90980E090E0089588EE90E00895EF9285
S11334F0FF920F931F93CF93DF93CDB7DEB7289737
S11335000FB6F894DEBF0FBECDBF8C017B01FC016A
S1133510608171816A5F7F4FCE0101960E941F1501
S1133520F801808191810E940804C8010E94250449
S113353010920C04E114F10421F0F9EEEF16F104F9
S113354051F50FEF1FEF1093D8030093D70367EDE6
S113355073E080E50E94D9091093DA030093D9033C
S113356069ED73E083E50E94D9091092C3031093B7
S1133570D6030093D5031092E5031092E60310924C
S1133580E7031092E8031092E9031092EA03109201
S1133590EB031092EC0328960FB6F894DEBF0FBE2F
S11335A0CDBFDF91CF911F910F91FF90EF900895C0
S11335B00F931F93CF93DF93CDB7DEB728970FB642
S11335C0F894DEBF0FBECDBF8B01813069F130F0BE
S11335D0823071F5CB010E9420082AC0DB01ED91F5
S11335E0FC9182818C70883049F4878190E0982F17
S11335F088272681822B9A83898307C0BF016A5F4B
S11336007F4FCE0101960E941F15D8011296ED91AD
S1133610FC9113978FEF80838D919C910E940804F5
S1133620C8010E94250404C0BA01C8010E94771A87
S113363028960FB6F894DEBF0FBECDBFDF91CF91B1
S11336401F910F9108958F929F92AF92CF92DF9224
S1133650EF92FF920F93CF93DF93CDB7DEB76097CE
S11336600FB6F894DEBF0FBECDBFE091CD01E1FFF0
S1133670C0C08FEF9FEF9A8789870E9442044C0154
S1133680009709F459C00E946104009731F4C40101
S11336900E942504812C912C4FC0D40111969C9337
S11336A08E939C01285E3F4F15963C932E9314975E
S11336B02AED34E013963C932E93129723E0FC01F9
S11336C02183ED91FC91119780EC8283ED91FC9123
S11336D01197828188608283809108058983809113
S11336E009058A8380910A058B8380910B058C835D
S11336F080910C058D8380910D058E8380910E053C
S11337008F8380910F058887E090D703F090D803CA
S11337108D919C91A12C9E012F5F3F4F690103E085
S11337209E01275F3F4F4FEF5FEF62E001960E94DB
S1133730B515D40116968C938091CD018D7F80931D
S1133740CD018114910409F42EC1D4011296ED9196
S1133750FC91139788E080832091EF049091F0040A
S11337601296ED91FC911397218392832091D903B2
S11337709091DA031296ED91FC911397238394832D
S11337801296ED91FC911397909191019583129665
S1133790ED91FC9113979FEF9683978317968C93E3
S11337A080912C088F3080F42FB7F8948091FD031A
S11337B09091FE03892B31F49092FE038092FD03D5
S11337C02FBF13C02FBF06C0F401108680912907B4
S11337D081FF06C01092CD01C4010E94F90AE5C020
S11337E0C4010E94620A892BA9F78091CD018860E7
S11337F0D7C04091B5015091B6016091B701709165
S1133800B8014093D8015093D9016093DA017093C1
S1133810DB01109259081092B9011092BA0110926A
S1133820BB011092BC012091FC0620932C082F3080
S1133830A8F480EC93E0A0E0B0E0022E04C0880F6E
S1133840991FAA1FBB1F0A94D2F78093D2049093A6
S1133850D304A093D404B093D50408C01092D20426
S11338601092D3041092D4041092D50430913808E5
S1133870309381068091D2049091D304A091D40412
S1133880B091D504411551056105710569F0481BD6
S1133890590B6A0B7B0B4093F8045093F904609323
S11338A0FA047093FB040EC0E3FF09C08093B901CE
S11338B09093BA01A093BB01B093BC0103C041E053
S11338C04093590880932A0290932B02A0932C02D0
S11338D0B0932D028091CA038093070510921209B8
S11338E0203110F42093CC033093D1038091EF0462
S11338F09091F0049093D8038093D70367ED73E01D
S113390080E50E94D909809191010E94501A80910A
S11339102C088F3020F480911E028093BF03809185
S1133920EF038093C50365EC73E080EF0E94D9092F
S11339308091D9039091DA0321E08E3FFFEF9F0736
S113394009F420E0E0917306F091740611822223B9
S113395011F030E801C030EC32833091CD033F5F89
S113396033834091EF043091F00444833583222360
S113397021F08683978387E005C0CF0106960E94D5
S113398024128DE0809379068091FF038F608093E9
S1133990FF030E94180D80912C088F3020F484E0DE
S11339A08093CD0102C01092CD0160960FB6F894B9
S11339B0DEBF0FBECDBFDF91CF910F91FF90EF908F
S11339C0DF90CF90AF909F908F9008950E94231B1B
S11339D08091CD01877F8093CD010895EF92FF926E
S11339E00F931F93CF93DF93CDB7DEB760970FB6D6
S11339F0F894DEBF0FBECDBF8B017A018530E1F0B4
S1133A0050F4882371F0823009F082C0BA01C801F1
S1133A100E94771A7DC0873099F0883009F459C024
S1133A2077C0CB010E94F90AEF2819F40E94E61C22
S1133A306FC01092CD016CC0CB010E94200868C0F9
S1133A4086E06736780719F410926F0661C0EFEBD1
S1133A50F1E080E090E0219131912017310741F4A9
S1133A60FC01EE0FFF1FE154FE4F1182108204C0CF
S1133A7001968730910579F70E940A091092050989
S1133A801092040980919B018F77D80118968C932A
S1133A90189790910005915090930005ED91FC9139
S1133AA092819C70983031F49091260791509093B4
S1133AB0260707C09C3029F490911E0891509093DA
S1133AC01E08A701B8010E94D81A83E00E940002D0
S1133AD01FC0FB01E080F180809184018823C1F044
S1133AE0B7016A5F7F4FCE0109960E941F15B70187
S1133AF0605F7F4FCE0101960E941F15D8018D9102
S1133B009C910E940804C8010E942504109284011B
S1133B1060960FB6F894DEBF0FBECDBFDF91CF9194
S1133B201F910F91FF90EF9008950F931F93CF93E0
S1133B30DF938C01EB01809129078E7F8093290705
S1133B4080918101882301F10E94BB05AE01B80177
S1133B50F80180850E94EE1CCA3ED10539F08AE046
S1133B60DF91CF911F910F910C94000280918101FC
S1133B708823A9F30E94BB054AEE50E0BC01FC0176
S1133B8080850E94EE1CF2CFDF91CF911F910F919F
S1133B9008958091CD0183FF03C089E00C94000255
S1133BA080FF05C08E7F8093CD010E94231B0C945F
S1133BB0C21780913403882391F080912C058D7F66
S1133BC080932C05109234038FEF9FEF9093D803CA
S1133BD08093D70367ED73E080E50C94D9090895C9
S1133BE087E090E090937E0180937D010E941B0BFF
S1133BF081E08093E6010E94CE110E948802823007
S1133C0031F0853039F0811109C084E001C08EE0C3
S1133C100C940002109209090C94DA180895CF93B9
S1133C2086E090E090937E0180937D010E94A31230
S1133C300E945E030E942111CFB7F8942091CE0117
S1133C403091CF014091D0015091D1016091350361
S1133C507091360380913703909138030E94C80A0B
S1133C60882319F00E94F01D1FC02091CE013091CD
S1133C70CF014091D0015091D101809135039091B1
S1133C803603A0913703B0913803E0917401E11138
S1133C900BC0E1E0E0937401BC01CD0160517109F6
S1133CA0810991090E94640CCFBFCF910895CF93ED
S1133CB0C82F0E948802C81331C02FB7F89480918E
S1133CC07D0190917E01049719F02FBF81E027C0F8
S1133CD085E090E090937E0180937D012FBF109248
S1133CE03503109236031092370310923803109262
S1133CF0CE011092CF011092D0011092D1010E94F6
S1133D00381681110CC00E943C10811103C00E941E
S1133D100F1E02C00E94C71080E001C081EFCF9146
S1133D2008950F931F93CF93DF93E0911A0741E017
S1133D3050E060E070E00E2E04C0440F551F661F73
S1133D40771F0A94D2F7F0911D08F11121C08091D8
S1133D50170890911808A0911908B0911A0888279B
S1133D60987FB770EB3190F4C1E0CE0F8A019B01CC
S1133D70082319232A233B23012B022B032B31F481
S1133D80440F551F661F771FEC2FECCFE0931A07E3
S1133D9080911A078B3108F056C0F11156C00E9469
S1133DA0501A80915F08813071F0F8F0823021F070
S1133DB0833009F0A4C007C080E0DF91CF911F9148
S1133DC00F910C94571EC0918701D09188010E94D5
S1133DD08802811194C000E010E0980140E050E0B6
S1133DE0BA01CE010E941B138AC080910F049091E6
S1133DF01004A0911104B09112044FB7F8942091CB
S1133E007D0130917E012330310519F024303105D4
S1133E1011F04FBF74C023E030E030937E01209353
S1133E207D014FBF8093E7019093E801A093E901DE
S1133E30B093EA018DEA8093BC03DF91CF911F9187
S1133E400F910C94C710FF2351F180915F088150AA
S1133E50823020F476956795579547950091170819
S1133E60109118082091190830911A08DB01CA0131
S1133E7088279927AA27BC7F892B8A2B8B2B79F437
S1133E80DB01CA0180239123A223B323892B8A2B2C
S1133E908B2B29F0440F551F661F771FE7CF8091A6
S1133EA05F088150823068F4809105059091060581
S1133EB09093D8038093D70367ED73E080E50E9465
S1133EC0D909E0918701F0918801309751F0808100
S1133ED091810E94080480918701909188010E9439
S1133EE02504109288011092870180E00E946F02DD
S1133EF0882319F080E00E94BD0C10928601DF91A6
S1133F00CF911F910F910895CF93DF9381E00E9489
S1133F106F02882309F440C185E00E946F02811179
S1133F2049C08091D6049091D704009721F061EFA5
S1133F3070E00E94951D8091E5049091E60400973D
S1133F4021F061EF70E00E94951D8091C807909167
S1133F50C907009769F09093BE018093BD0181EF7A
S1133F6090E09093C1078093C00780E10E94000213
S1133F701092C9071092C8071092E6041092E50443
S1133F801092D7041092D6048091DD039091DE0341
S1133F90A091DF03B091E0038093D3019093D40107
S1133FA0A093D501B093D60187E00E94B20188E0C6
S1133FB00E94B20180912907826080932907809131
S1133FC08101882351F00E94BB0541EF50E0BC0100
S1133FD0FC0180850E94EE1CF2CF809129078D7F21
S1133FE08093290780918601882329F081E08093BA
S1133FF01D080E94911E0E942D056093CD0380EE42
S113400096E090937406809373061092790689E380
S113401093E0909376068093750610927A068BE867
S113402091E0909378068093770610922202109282
S113403021021092D804109212091092FF031092D8
S1134040CD011092E2011092BF071092D904109290
S1134050FC071092ED0110922F028FE080932C0840
S1134060809123058D7F8093230582E00E94B20115
S113407080912C058D7F80932C058FEF8093070909
S113408010922D0310923403EEEFF6E08083349601
S113409097E0EA31F907D1F78FEF80931B02109272
S11340A0320210920C0410927E0610927D068091CA
S11340B035058D7F80933505CFEBD1E0E991F991FA
S11340C0309731F041EF50E0BF0180850E94D81A4B
S11340D0E1E0CD3CDE0791F7EFEBF1E011921192B4
S11340E081E0ED3CF807D1F710920509109204091C
S11340F0109200051092260710921E088CE991E098
S113410090936806809367068DE298E090936C061E
S113411080936B068EE198E090936A06809369061B
S113412010926E0610926F0680917F01882329F009
S11341300E94D5050E942008F7CF8091FD0390913D
S1134140FE03009721F00E94F90A1092CD0110920B
S1134150BE011092BD0110929A0110929901109221
S1134160FE031092FD031092010581E090E090930C
S1134170F7038093F60380919801811110929801BE
S11341801092300280913E058D7F80933E0581E040
S1134190DF91CF910C940002DF91CF91089540916B
S11341A0CE0380918601811102C00C94BD0C8091D4
S11341B05F08823081F18330D1F1813009F082C00F
S11341C0E0918701F0918801A081B18193E011967B
S11341D09C93A081B18198E012969C93A081B181B7
S11341E013964C934F5F4093CE03A081B1819FEF10
S11341F014969C93A081B18115969C93A081B18162
S113420016969C93A081B18117969C9397E0968310
S11342109093620887838FEF9FEF9093D8038093E6
S1134220D70367ED73E080E50E94D9094BC0509134
S1134230D40320EC33E0529FC001539F900D11240E
S1134240AA2797FDA095BA2F80930F04909310048A
S1134250A0931104B0931204E0918701F0918801B6
S1134260A081B18183E411968C93A081B18188EC03
S113427012968C93A081B18113964C934F5F409317
S1134280CE03A081B1818FEF14968C93A081B1816C
S113429015968C93A081B18116968C93A081B181DF
S11342A017968C938081918108960E942412E09144
S11342B08701F09188018FE0868386E0809362080D
S11342C081E087830C94911E8091F6039091F7030B
S11342D0029719F482E00C94571E8FE00C940002AC
S11342E01F93CF93DF931F92CDB7DEB790910D014B
S11342F0953021F489830E94DA1889811FB7F894D4
S11343009091890191110BC091E090938901809360
S11343101A0282E00E9400021FBF80E017C0E82F4B
S1134320E695E695E695F0E0E05FFA4F90818770B8
S113433021E030E001C0220F8A95EAF7892F822319
S113434019F4292B208301C085E01FBF0F90DF9152
S1134350CF911F9108950E945E030E94940B0E94C6
S113436099161092E6010E94CE1184E090E0909399
S11343707E0180937D010E948802823081F028F4BE
S1134380882341F0813041F00895833051F0853025
S113439051F008950C94EF0580E00C9400020C9405
S11343A064210C94C416109209090C94DA18CF9362
S11343B010921D02483048F4463068F5442341F019
S11343C04130C1F521EE30E021C04B3031F032C034
S11343D010920309109202092DC020910A09222388
S11343E099F01092CF04309161083093CE0430914B
S11343F080063093CD0430910D043093CC042150C9
S113440020930A09C0E017C029EE30E03093030975
S1134410209302090FC081E080931D027093E10193
S11344206093E0011092090987E00E947F028111E4
S11344303EC03AC0C1E02091C8073091C907821735
S11344409307F9F40E94A802CC2329F08091020971
S11344509091030902C081EE90E02091C807309149
S1134460C9073093BE012093BD019093C107809387
S1134470C00780E10E9400021092C9071092C80789
S113448011C0CC2379F08091D6049091D7049093F5
S1134490E6048093E5041092D7041092D6048BE0CE
S11344A00E94000210920909CF910C94DA18CF915E
S11344B00895EF92FF920F931F93CF93DF931F9270
S11344C0CDB7DEB700917D0110917E01E090240705
S11344D0F09025070E94940B0E9499161092E60111
S11344E00E945E030E94CE1184E090E090937E01CE
S11344F080937D010F30110509F0DCC00E94880211
S1134500882319F0833059F0EFC080E00F90DF91D9
S1134510CF911F910F91FF90EF900C94571ED701EC
S113452014968D919C9115970E94BB010091D20421
S11345301091D3042091D4043091D5046F3FBFEF80
S11345407B078B079B07E9F06093F8047093F904E9
S11345508093FA049093FB0400932A0210932B0295
S113456020932C0230932D02D7011296ED91FC91E9
S113457013978281877080932F02811123C041E0B9
S113458025C080912A0290912B02A0912C02B09117
S11345902D02800F911FA21FB31F80932A029093B4
S11345A02B02A0932C02B0932D0283E00E94702171
S11345B083E00F90DF91CF911F910F91FF90EF90C7
S11345C00C94BD0C482F440F480F4E5F81818F70AF
S11345D08F5F8093ED01808182958F700CE310E0F2
S11345E020E030E004C0000F111F221F331F8A9502
S11345F0D2F700932A0710932B0720932C073093AC
S11346002D07D7018D919C91DC0111968C9184FF2B
S113461004C081E08093F80302C01092F80350E0D4
S1134620BF016E5F7F4F8CEF97E00E94D03AD701B5
S11346301296ED91FC911397818184FF26C0169602
S11346408C91169717962C9130E0280F311DC901D3
S11346500796880F991F2131310514F0889601C0FF
S11346600C969093EC018093EB01209107058091C7
S1134670EB019091EC01B4E12B9F800D911D11246D
S11346809093EC018093EB0104C01092EC01109222
S1134690EB0183E00E94702164E083E00E94CB1769
S11346A087E00F90DF91CF911F910F91FF90EF90D2
S11346B00C94000201311105B9F44091DC01009120
S11346C01B0810911C0849830E9488024981853087
S11346D059F4B801C7010F90DF91CF911F910F9149
S11346E0FF90EF900C94D7210F90DF91CF911F9101
S11346F00F91FF90EF9008958093D2016093DC01B5
S11347000E94050B811102C00C94850A0C94592255
S11347108F929F92AF92BF92CF92DF92EF92FF92CD
S1134720CF93DF9380910609882339F0C0911B0849
S1134730D0911C081092060918C0E091E401F09190
S1134740E501C0810E942D052FEF3FEF02C0220F2B
S1134750331FCA95E2F7209530952623372384E149
S1134760829FE001839FD00D11240E944F026B01B0
S11347707C01BE0180E090E0CC0CDD1CEE1CFF1C33
S1134780C60ED71EE81EF91E80903503909036039E
S1134790A0903703B0903803C818D908EA08FB087A
S11347A08090CE019090CF01A090D001B090D10123
S11347B08C149D04AE04BF0438F4C0912407D09136
S11347C02507209799F448C02EE030E030937E010D
S11347D020937D01DF91CF91FF90EF90DF90CF90F8
S11347E0BF90AF909F908F900C94CD141092E601DF
S11347F00E945E030E94CE1184E090E090937E01BB
S113480080937D010E948802853031F5C701B6018D
S1134810681979098A099B094B015C0124E1820E1C
S1134820911CA11CB11C24E130E040E050E00E9446
S1134830563A861A970AA80AB90A47E0B401CE0183
S1134840DF91CF91FF90EF90DF90CF90BF90AF902A
S11348509F908F900C94D721DF91CF91FF90EF9090
S1134860DF90CF90BF90AF909F908F9008950F935B
S11348701F93CF93DF93EC018B018091280486FF73
S11348802AC18F7B8F3309F0B0C1C0918206D091C9
S113489083062881209317028091150290911602B5
S11348A08430910579F118F4039749F003C18530F8
S11348B0910509F451C0069709F469C0FBC084E06E
S11348C090E0909316028093150230E08091DD0110
S11348D090E02817390734F0DF91CF911F910F91A1
S11348E00C940912B79903C00E9B0E94091280917F
S11348F0170284508C3880F7BE016F5F7F4F43E00E
S113490050E022C06A81898183FDE6CF47ED51E002
S11349100E940A088111E0CF4091D70180911702CB
S113492090E00197242F30E028173907ACF6443083
S113493098F085E090E0909316028093150243501E
S113494050E0BE016C5F7F4F80E090E0DF91CF913B
S11349501F910F910C94FD0B409117022091D701E8
S1134960842F90E0821B9109893791050CF0B4CF14
S113497086E090E09093160280931502421B50E06B
S11349806091820670918306685E7F4FDDCF0E943E
S1134990CE0180912402811102C00E94D71130916E
S11349A05B08C0918206D0918306209117023323BD
S11349B049F12530C0F18091630890E0FC01EE0FCD
S11349C0FF1FEE0FFF1FE75CF74F7081618152817B
S11349D04381DE01AF56BF4F7C93DE01A057BF4F2A
S11349E06C93DE01A157BF4F5C93DE01A257BF4F0A
S11349F04C930196877099278093630831503093C4
S1134A005B0811C08FEFDE01AF56BF4F8C93DE0100
S1134A10A057BF4F8C93DE01A157BF4F8C93DE018B
S1134A20A257BF4F8C93E22FF0E08091D701E81B8F
S1134A30F109EC0FFD1F878987FF36C0012BA1F117
S1134A4089818770823029F5809176019091770170
S1134A500697D9F4E091F404F091F5040190F08103
S1134A60E02D93818B81981310C00E94D00189811D
S1134A7021E030E0309377012093760160E0829565
S1134A8081700E947C230E943C118091F104882350
S1134A9059F08091E304811107C08AE1DF91CF913D
S1134AA01F910F910C940002DF91CF911F910F91F0
S1134AB00C94DA1110922E030E94CE010E94D71199
S1134AC08091E304882309F490C0DF91CF911F9172
S1134AD00F910C9449088E3309F087C00E94CE01CF
S1134AE0E091F404F091F50480819181C817D9070D
S1134AF059F40E94CA01E091F404F091F504808114
S1134B009181668101960DC00196C817D90779F481
S1134B100E94CA01E091F404F091F5046781828156
S1134B209381DF91CF911F910F910C943A0C83E004
S1134B3090E0909377018093760180917D0190912C
S1134B407E018A30910509F444C08B30910509F443
S1134B5046C0099709F049C08CE090E090937E012B
S1134B6080937D012091CE013091CF014091D001FD
S1134B705091D101211531054105510579F48FE09A
S1134B8090E090937E0180937D0180E00E94350B3C
S1134B90DF91CF911F910F910C946316809135038F
S1134BA090913603A0913703B0913803E0917401DA
S1134BB0E1111BC0E2E0E0937401BC01CD0160513E
S1134BC0710981099109DF91CF911F910F910C9483
S1134BD0640CDF91CF911F910F910C94FB14DF9122
S1134BE0CF911F910F910C948823DF91CF911F9146
S1134BF00F9108954F925F926F927F928F929F923E
S1134C00AF92BF92CF92DF92EF92FF920F931F93D6
S1134C10CF93DF93CDB7DEB768970FB6F894DEBFB6
S1134C200FBECDBFE2E1F5E020E030E0108511FFDA
S1134C30E8C14080518062807380C480D580E68062
S1134C40F7804B015C0184189508A608B7088C14FA
S1134C509D04AE04BF0408F4D4C110FF03C01D7F3B
S1134C6010870AC0D301C2018C0D9D1DAE1DBF1D4E
S1134C7080839183A283B3832230B1F018F421306E
S1134C8081F006C0233009F4C1C0243009F473C193
S1134C9080E00E946F02882309F4BAC10E94C50A09
S1134CA0B7C10E94180DB4C180913403882309F45C
S1134CB0AFC110912D03123039F49091D503809136
S1134CC0D603998B8A8B1BC02091E5033091E603B0
S1134CD04091E7035091E8036091E9037091EA037E
S1134CE08091EB039091EC03FE017196DE015996DD
S1134CF0219308E00E94993AEA17FB07C9F740900C
S1134D00D7035090D8030E9442044C01009709F441
S1134D1078C00E9461043C01009709F46FC0D4017B
S1134D2011969C938E93489615969C938E93149704
S1134D3081E019968C93E090D703F090D803123059
S1134D4019F442E050E002C048E050E0BE016F5E5A
S1134D507F4FCE0101960E94D03AD401ED91FC918F
S1134D60123010F483E204C04E145F04D9F783E6D2
S1134D708183812F880F880F806C8283809108053E
S1134D808987809109058A8780910A058B8780919C
S1134D900B058C8780910C058D8780910D058E877E
S1134DA080910E058F8780910F05888BA180A6FACC
S1134DB0AA24A0F8F401808191819E01275F3F4FCE
S1134DC0690103E09E012F5F3F4FA201612F01960D
S1134DD00E94B515D40116968C9316978CE091E039
S1134DE013969C938E93129781E017968C93179742
S1134DF086E018968C93C3010E940804C4010E94A3
S1134E0025040E94D91D0E94D91D02C10E944F028F
S1134E102B013C01440C551C661C771C8091CC036F
S1134E208F3070F421E030E002C0220F331F8A95E6
S1134E30E2F7A0ECB3E00E943C3A9B01AC0104C051
S1134E4020EC33E040E050E0A091DB03B091DC03C0
S1134E500E944B3A6B017C010FEB11E0812C912CE9
S1134E605401D801ED91FC91309709F44DC0809123
S1134E70040990910509E817F90709F445C08481EC
S1134E8095810E94BB01A70196010E94C80AD8011E
S1134E90ED91FC911197882331F180858F7780877C
S1134EA01D921C9290910005915090930005A08151
S1134EB0B18112969C919C70983031F490912607A0
S1134EC091509093260707C09C3029F490911E08B6
S1134ED0915090931E0840EF50E0BF010E94D81AF1
S1134EE00E940A0911C0848195810E94BB01A3011B
S1134EF09201261B370B480B590B82169306A40606
S1134F00B50610F449015A010E5F1F4F31E00D3C04
S1134F10130709F0A6CF81149104A104B10409F484
S1134F2077C0C814D904EA04FB0410F446015701FD
S1134F30C818D908EA08FB080E944F02660F771FB9
S1134F40881F991F60932D0570932E0580932F055C
S1134F5090933005C0923105D0923205E09233052A
S1134F60F092340580913505816082608093350527
S1134F700E9437024DC080913002811138C081E017
S1134F80809330028091130890911408A091150821
S1134F90B09116084091F0035091F1036091F2032F
S1134FA07091F303840F951FA61FB71F4091080447
S1134FB05091090460910A0470910B0440933605E2
S1134FC050933705609338057093390580933A05FB
S1134FD090933B05A0933C05B0933D0580913E051D
S1134FE08160826080933E050E94370207C0109260
S1134FF03002809198018111109298010E94DA1870
S113500007C02F5F3F4F39962530310509F00ECE8A
S11350100E94370268960FB6F894DEBF0FBECDBF6C
S1135020DF91CF911F910F91FF90EF90DF90CF9080
S1135030BF90AF909F908F907F906F905F904F90B4
S113504008954F925F926F927F928F929F92AF9248
S1135050BF92CF92DF92EF92FF920F931F93CF9361
S1135060DF93CDB7DEB762970FB6F894DEBF0FBEFD
S1135070CDBF90E08632910510F00C94E231FC0132
S1135080E15BFF4F0C94783A2FB7F89480917D013F
S113509090917E01009711F42FBF01C4049709F089
S11350A0A4C381E090E019C08091170981508093D6
S11350B01709882319F081E00C94B7312FB7F894BD
S11350C080917D0190917E018430910509F48DC316
S11350D0892B09F08AC382E090E090937E0180934B
S11350E07D012FBF0E94C7100C94E2318FB7F89452
S11350F090911A0290930D0192E0909389018FBFD1
S113510080910D01813089F038F08230C1F0833014
S113511009F4EFC00C94E23180E00E949502811101
S11351208FC00E94C50A0C94E23181E00E94A10A5A
S1135130882311F40C94E23180E00C94B7319FB7CA
S1135140F89481E08093C207109223028093F104C3
S11351501092F5039FBF82E00E949502882321F0FC
S11351600E9464210C94E23182E00E94A10A0C9412
S1135170E2318091040990910509892B11F00C9476
S1135180E23180910005882311F40C94E231EFEBB5
S1135190F1E081919191009709F1DC0118962C912D
S11351A0189727FF1BC09093050980930409209347
S11351B09B0127E018962C932091290721FF07C013
S11351C0109205091092040983E00C94B7310E94EF
S11351D0620A892B11F40C94E231F2CFB1E0ED3C78
S11351E0FB07B9F60C94E231C0900F04D090100480
S11351F0E0901104F09012040E944F02660F771F92
S1135200881F991F609312057093130580931405EA
S113521090931505C0921605D0921705E0921805D3
S1135220F092190580911A058160826080931A05B5
S11352300E9437020C94E2310E94911E0C94E231D8
S11352400E94CF200C94E231E0917306F091740631
S113525083818093CD0383818F5F83834091F8049E
S11352605091F9046091FA047091FB044093E103B6
S11352705093E2036093E3037093E4038091D204B8
S11352809091D304A091D404B091D504853CE9E075
S11352909E07A105B10528F0845C9940A109B109D4
S11352A003C080E090E0DC0140931B0550931C0593
S11352B060931D0570931E0580931F059093200530
S11352C0A0932105B093220580912305816082601B
S11352D0809323050E9437028091CD0182FF03C091
S11352E08B7F8093CD0110921209DA9AD9980C948D
S11352F0E2310E94C91D0C94E2318091290780FF9C
S113530002C00C94E23180918101882311F40C9441
S1135310E231E0918301F0E0EE0FFF1FE653F84F16
S113532000811181D80116968C91811105C00E94CB
S1135330BB058AE00E940002F80180858093E404A2
S113534020912907822F8160809329078091D604B8
S11353509091D704892B11F00C94DA31C8010E9482
S1135360DD195BC08091E5049091E6046091020927
S113537070910309109285011092E6041092E504DD
S1135380009709F44AC00E94951D47C00091D604B5
S11353901091D7048091C8079091C9070097D9F15B
S11353A04091F8065091F9066091FA067091FB0657
S11353B0C090CC04D090CD04E090CE04F090CF0403
S11353C0CF82D886E986FA8649835A836B837C83A5
S11353D01E830D832AE0FE013196ABE1B4E0019017
S11353E00D922A95E1F70E94DD190115110599F036
S11353F0E091C807F091C9070190F081E02D838105
S1135400D8012D913C91D90113969C919383D80195
S1135410ED91FC918383109209090E94DA180C948F
S1135420E23180913002882311F40C94E2318091AE
S11354309801882309F4C6C710929801C3C783E072
S113544090E09093F7038093F603BCC79FB7F8945A
S113545081E08093C207809323021092F104809329
S1135460F5039FBF81E090E09093F7038093F603E8
S113547082E00E94BD0CA6C780910105882309F42F
S1135480A1C78091BD019091BE012091FD0330918F
S1135490FE038217930791F41092FE031092FD030A
S11354A00091C0071091C1070E94F90A012B19F459
S11354B00E94E61C28C01092CD0125C020919901BC
S11354C030919A0182179307F1F40E94D5058091D7
S11354D07F01811105C010929A01109299010DC0AB
S11354E0E0918001F0E0EE0FFF1FEC53FB4F808151
S11354F0918190939A01809399018091BD0190913B
S1135500BE010E942008109201055CC7CE010196DD
S11355100E94B20E811107C089819091BC03981733
S113552014F48093BC032091E7013091E801409189
S1135530E9015091EA016091240870912508809155
S11355402608909127080E94C80A882309F471C18B
S11355508091BC038D528093BC030E94940B0E94E3
S113556099160E94CE1184E090E090937E0180937E
S11355707D019091BC038091B401882369F0E0918E
S11355806708F09168088091280721E0280F20938C
S11355902807E80FF11D9083909128078091B401AA
S11355A0981303C081E080931D080E94C50A8930C6
S11355B009F008C70E94EF0505C78FB7F8949091CA
S11355C0D2078FBF8FB7F89421E02093C20790933E
S11355D0D2078FBF0E94A3120E94CE1184E090E0F4
S11355E090937E0180937D0181E00E946F02882365
S11355F009F4E8C680917F0681110E94FB0566ECE0
S113560073E080E00E94D90969ED73E083E50E94AC
S1135610D90967ED73E080E50E94D90968EC73E06D
S113562083E00E94D90967EC73E082E00E94D90903
S113563065EC73E080EF0E94D90981E00E94BD0C03
S11356401092C70367EC73E082E00E94D90981E3FA
S113565093E49093DA038093D90369ED73E083E5CF
S11356600E94D9091092BD030E9457088091D90362
S11356709091DA03019609F4A5C68091CD01857055
S113568009F0A0C682E791E89093F0048093EF04B8
S11356908AE1809391011092B5011092B6011092A3
S11356A0B7011092B80185E08093FC068093380816
S11356B091E09093EF0310921E028093CD018091AC
S11356C02C088F3009F07EC683E00E9470217AC6D0
S11356D080917D0190917E018830910531F008F42C
S11356E071C60F97039738F06DC680E00E943C1096
S11356F08111F8CCD7C00E94050B8111A2C080E0B3
S11357000E943C10882309F49CC0ECCC80E00E94E9
S11357103C1081110FC00E94A31280917D019091D1
S11357207E01079721F40E94940B0E941B0B0E9498
S1135730CE1148C684E11BC68FB7F89490917A01C4
S11357409111D6C58FBF10B316FB112710F98091A4
S11357501A0490912504981721F1181322C084E0AB
S113576090E090937C0180937B018FB7F89491E053
S113577090937A018FBF0E94CE010E94CA0160E01B
S113578070E08DE10E94EA0E0E9445120E94CE0153
S11357900E94940B0E9499161092E60182E10E94E5
S11357A000021093250485E1E2C59FB7F894809127
S11357B00B019FBF882321F0813009F476C002C613
S11357C0E0917D01F0917E013197E131F10508F01E
S11357D0F9C5EB58FF4F0C94783A2FB7F8948091A1
S11357E07B0190917C01892B11F02FBFEBC581E0E7
S11357F090E090937C0180937B012FBFDD9A44E17C
S113580050E060E070E080E00E94EF10DBC50E9491
S1135810A3120E941B0B0E944F02660F771F881F62
S1135820991F609324087093250880932608909309
S1135830270881E19CC50E940F1EC4C50E94D61290
S1135840C1C50E945922BEC50E94940B0E9499169C
S11358501FB7F89480917B0190917C01049779F4AF
S113586082E090E090937C0180937B010E94CE01C2
S11358700E94CA0187E00E94140B0E94CE011FBF40
S113588010927C0110927B01DE98DD98DE9A1092D2
S1135890E6010E94CE1110927E0110927D010E94B9
S11358A0841F90C50E94AB218DC51FB7F8948091C9
S11358B0150290911602892B09F418C40E94170C42
S11358C015C41FB7F89460917106709172068091A7
S11358D0690890916A0810927206109271061092EB
S11358E06A0810926908109297011092960110921A
S11358F0F3041092F2040E943724F8C38FB7F8948B
S1135900909125029093080192E0909378018FBFC3
S113591080910801811156C50E94CC010E94CA01E0
S113592086E125C50E94D7118FB7F894109216020C
S1135930109215028FBF83E11AC5E0918206F0919F
S11359408306208122508091D701281B8FB7F894B9
S11359508FBF8090820690908306822F90E0D401BE
S1135960A80FB91F59963C913F77D4013C93A80FD7
S1135970B91F58968C91DF01AE56BF4F8C93D4015A
S11359808C91ED56FF4F80832C9380917D019091F3
S11359907E01079709F0E5C212968C91807390E01E
S11359A041973CF08091F6039091F703039709F037
S11359B0D8C2F401818183FF07C08091F6039091DE
S11359C0F703039709F0CDC20E948802853009F4D9
S11359D067C130F4882359F0823009F455C1C1C23B
S11359E0863009F4BAC28A3009F4B7C2BAC28091C7
S11359F08601882309F4B5C280915F08833009F0D9
S1135A004BC0809128078111ACC2D40111968C91AE
S1135A1011978770833009F0A4C258968C915897D7
S1135A20883009F09EC25A968C915A9790E0982F2C
S1135A30882759962C91822B9093D8038093D7036F
S1135A4067ED73E080E50E94D909F401848D90E04C
S1135A50982F8827238D822B9093D6038093D50388
S1135A60858D0E94501AD4015F968C915F9790E0C7
S1135A70982F88275E962C91822B9093DA0380933B
S1135A80D90369ED73E083E50E94D9098091280761
S1135A908F5F8093280710C0F4018181877009F01B
S1135AA060C28091BE03882309F45BC280912807F9
S1135AB09091B401891758F081E080931D0880917A
S1135AC01A058D7F80931A050E94C50A4AC2009167
S1135AD0670810916808F2E28F9F000D111D1124D0
S1135AE0F0901A07D40112968C911297982F9078FF
S1135AF0903809F036C28295869586958370F801B0
S1135B00808315968C91159790E0982F882714968A
S1135B102C911497822B9283818312968C911297E5
S1135B20807C803861F417968C91179790E0982FB9
S1135B30882716962C91822B9483838307C0B40103
S1135B406A5F7F4FC80103960E941F15D8011B96F8
S1135B50FC921B971C961C921C97F401808D1D9639
S1135B608C931D97818D1E968C931E97828D881F12
S1135B708827881F1F968C931F97ED56FF4F8081AF
S1135B8050968C93C40182579F4F0E94BB01D80149
S1135B9051966D937D938D939C93549756961C9236
S1135BA01E92559757961C92579758961C92589741
S1135BB059961C9259975A961C925A975B961C9226
S1135BC05B975C961C925C975D961C925D975E96C3
S1135BD01C925E975F961C925F9790961C9290978A
S1135BE091961C92E0916708F091680870902807DC
S1135BF0DF0122E2729EA00DB11D1124612C6714F5
S1135C0009F4DCC32181328111968D919C91129704
S1135C1028173907B1F580819C91891332C08230ED
S1135C2051F42381348113968D919C9114972817F4
S1135C30390739F596C1833021F5238134814581B3
S1135C405681678170851396AC9013971496BC9017
S1135C5014971596CC9015971696DC901697179670
S1135C60EC9017971896FC90189719960C91199721
S1135C701A961C911A97818592850E94C73A09F455
S1135C8070C16394B296BBCF8091F6039091F703F1
S1135C90039709F066C1D4018C9180688C935DC12F
S1135CA0F40181818770833011F4808D8D5F1FB77B
S1135CB0F894863091F030F4813051F0843009F456
S1135CC03BC149C1873061F0893009F435C143C112
S1135CD0C4010E94E4074C013EC1F40182812FC13A
S1135CE0D40112962C91B22FB07CDB2EB7FF33C1B6
