S01800006275696C642F6D6963617A2F6D61696E2E73726563E5
S11300000C9491010C9435350C943F350C9449357E
S11300100C9453350C945D350C9467350C94713500
S11300200C94A5350C94B0010C94B0010C940A34D2
S11300300C9401320C9468320C9418350C94B13140
S11300400C94D9310C94AF350C9416360C94B00141
S11300500C9483360C94B0010C94B0010C94B00150
S11300600C9401330C94BC370C949B370C94A63736
S11300700C94B1370C94CF370C947F370C94B001A7
S11300800C9490370C94B0010C94B001A717B217DC
S1130090D617661869186C186F1872187518F32734
S11300A0032825286828A328CB28CF28D3289531CE
S11300B027292B2960297429BF29CE29D529EB2981
S11300C03A2A912A1D2B3B2B512B8A2B162C332C8D
S11300D0472C522C702FB72F2B304F305E301C31F1
S11300E02D312F3132316D316531D92BA22BBC2BFF
S11300F09531D02B95319531072CD32BD32BD32B82
S1130100953195319531D62BD62BD62BDF36EA3661
S1130110FF3648374F3756375D37643700081C18A9
S1130120141000002110422063308440A550C660A2
S1130130E770088129914AA16BB18CC1ADD1CEE1A0
S1130140EFF13112100273325222B5529442F77217
S1130150D662399318837BB35AA3BDD39CC3FFF3F0
S1130160DEE36224433420040114E664C774A44427
S113017085546AA54BB528850995EEE5CFF5ACC540
S11301808DD55336722611163006D776F6669556F7
S1130190B4465BB77AA719973887DFF7FEE79DD790
S11301A0BCC7C448E5588668A77840086118022887
S11301B02338CCC9EDD98EE9AFF9488969990AA9E0
S11301C02BB9F55AD44AB77A966A711A500A333A57
S11301D0122AFDDBDCCBBFFB9EEB799B588B3BBB30
S11301E01AABA66C877CE44CC55C222C033C600CE7
S11301F0411CAEED8FFDECCDCDDD2AAD0BBD688D80
S1130200499D977EB66ED55EF44E133E322E511E36
S1130210700E9FFFBEEFDDDFFCCF1BBF3AAF599FCF
S1130220788F8891A981CAB1EBA10CD12DC14EF16F
S11302306FE18010A100C230E320045025404670D5
S11302406760B9839893FBA3DAB33DC31CD37FE300
S11302505EF3B1029012F322D23235421452776225
S11302605672EAB5CBA5A89589856EF54FE52CD5D0
S11302700DC5E234C324A014810466744764245475
S11302800544DBA7FAB79987B8975FE77EF71DC7E0
S11302903CD7D326F2369106B016576676761546C5
S11302A034564CD96DC90EF92FE9C899E9898AB930
S11302B0ABA94458654806782768C018E108823815
S11302C0A3287DCB5CDB3FEB1EFBF98BD89BBBAB40
S11302D09ABB754A545A376A167AF10AD01AB32A65
S11302E0923A2EFD0FED6CDD4DCDAABD8BADE89D90
S11302F0C98D267C076C645C454CA23C832CE01CB5
S1130300C10C1FEF3EFF5DCF7CDF9BAFBABFD98F1F
S1130310F89F176E367E554E745E932EB23ED10E04
S1130320F01E11241FBECFEFD0E1DEBFCDBF11E020
S1130330A0E0B1E0EAE2F5E700E00BBF02C00790FD
S11303400D92AE31B107D9F718E0AEE1B1E001C0CA
S11303501D92AC3DB107E1F70E9405380C94933A25
S11303600C9400009FB7F894E82FF0E0E459F84F9C
S113037010829FBF0895FC0120816181862F90E047
S1130380A0E0B0E077276627922B2381622B22819D
S1130390722B0895C0980895B89A0895C09A089544
S11303A087B78F7E87BF08951092DE071092DD070E
S11303B084E08093ED021092D9061092F107109216
S11303C079031092BD041092BC04089580911A0818
S11303D08F3F71F0E82FF0E0E255FE4F908190934B
S11303E01A089F3F11F49093C9089FEF90830895D2
S11303F08FEF089583B783BF00B600FCFDCF089547
S11304009FB7F894E82FF0E0E255FE4F20812F3F8C
S1130410C9F421E030E0E091C908E81711F020E0C8
S113042030E0232B79F420911A082F3F19F480939C
S11304301A0804C0F0E0E255FE4F80838093C90897
S113044080E001C085E09FBF0895CF93CFB7F894B3
S11304508091BF08811108C08FE10E9400028111C0
S113046003C081E08093BF08CFBFCF9108958CE192
S11304700C9400028BE10C94000280919D068A305A
S113048021F48091ED02843021F081E080933301E6
S1130490089581E20E9400021092330108950F939F
S11304A01F938FB7F8946091BA047091BB040CB594
S11304B01DB506B602FE04C06F5F7F4F0CB51DB5B7
S11304C08FBFCB01A0E0B0E07727662720E030E0C3
S11304D0602B712B822B932B1F910F9108959FB743
S11304E0F89420910D01281307C0809149018230AE
S11304F019F49FBF81E008959FBF80E008959FB7DE
S1130500F894E82FF0E0E459F84F80819FBF0895F4
S11305109FB7F89480914901823019F09FBF8FEF03
S1130520089580910D019FBF0895CF93C82F0E9415
S11305308802C8130AC081E020913D0130913E0138
S11305402430310519F080E001C085E0CF91089591
S11305508091DD039091DE0390939504809394043D
S1130560E9EDF3E086819781A085B18580938A04C3
S113057090938B04A0938C04B0938D04808191811B
S1130580A281B3818093B6069093B706A093B80670
S1130590B093B9060895CF92DF92EF92FF920F9332
S11305A01F930E944F02C0905201D0905301E090DB
S11305B05401F09055010091E4011091E50120915E
S11305C0E6013091E7010C0D1D1D2E1D3F1D6C151C
S11305D07D058E059F0530F00C151D052E053F0584
S11305E058F005C00C151D052E053F0590F5601744
S11305F071078207930768F568017901C61AD70A5B
S1130600E80AF90A41E0C41640E8D406E104F1041A
S113061018F18B019C0110582F4F3F4F009352014A
S1130620109353012093540130935501970186018F
S11306301058210931090093E4011093E501209336
S1130640E6013093E701C12C50E8D52EE12CF12CC2
S113065013C0C12CD12C7601009352011093530185
S113066020935401309355011092E4011092E50156
S11306701092E6011092E7014CB55DB54D5F5F4FF6
S11306809A01261B370B2C153D0518F4AB014C0DB4
S11306905D1D4115510511F441E050E041505109EF
S11306A059BD48BD88E086BF87B7886087BF1F9162
S11306B00F91FF90EF90DF90CF900895CF93CFB735
S11306C0F89410923701109236010E94D00187B736
S11306D08F7D87BF0E94CE01CFBF80E0CF91089568
S11306E0CF92DF92EF92FF920F931F930E944F02DB
S11306F0C0908207D0908307E0908407F09085072C
S11307000091EE021091EF022091F0023091F1027B
S11307100C0D1D1D2E1D3F1D6C157D058E059F05A1
S113072030F00C151D052E053F0558F005C00C15BD
S11307301D052E053F0590F5601771078207930785
S113074068F568017901C61AD70AE80AF90A41E08E
S1130750C41640E8D406E104F10418F18B019C01AD
S113076010582F4F3F4F0093820710938307209315
S113077084073093850797018601105821093109B0
S11307800093EE021093EF022093F0023093F102F3
S1130790C12CE0E8DE2EE12CF12C13C0C12CD12CAD
S11307A07601009382071093830720938407309384
S11307B085071092EE021092EF021092F00210924E
S11307C0F1024CB55DB54D5F5F4F9A01261B370BA7
S11307D02C153D0518F4AB014C0D5D1D411551055B
S11307E011F441E050E04150510950937900409395
S11307F0780081E080937C0080917D00816080930B
S11308007D001F910F91FF90EF90DF90CF9008959E
S113081040918E044330B8F450912308242F30E0E3
S1130820250F311D2330310510F023503109F90112
S1130830EE0FFF1FE653F74F918380834F5F409382
S11308408E0480E0089581E0089540918F0444303F
S1130850B8F45091BE03242F30E0250F311D24300D
S1130860310510F024503109F901EE0FFF1FE65253
S1130870F94F918380834F5F40938F0480E0089504
S113088081E0089530918F043323C1F02091BE0399
S1130890E22FF0E0EE0FFF1FE652F94F80819181C5
S11308A011821082315030938F042F5F243019F05D
S11308B02093BE0308951092BE03089580E090E053
S11308C0089530918E043323C1F020912308E22F40
S11308D0F0E0EE0FFF1FE653F74F80819181118204
S11308E01082315030938E042F5F233019F02093FF
S11308F02308089510922308089580E090E0089555
S11309000F931F934FB7F89498E0899FF001112437
S1130910E451F94F64817581868197810081118149
S113092022813381600F711F821F931F4FBF1F915C
S11309300F910895CF92DF92EF92FF920F931F933E
S11309400E944F02C090D203D090D303E090D4030E
S1130950F090D5030091C2031091C3032091C40306
S11309603091C5030C0D1D1D2E1D3F1D6C157D05FD
S11309708E059F0530F00C151D052E053F0558F01A
S113098005C00C151D052E053F0590F56017710770
S11309908207930768F568017901C61AD70AE80A3D
S11309A0F90A41E0C41640E8D406E104F10418F160
S11309B08B019C0110582F4F3F4F0093D20310938B
S11309C0D3032093D4033093D503970186011058A1
S11309D0210931090093C2031093C3032093C40374
S11309E03093C503C12C20E8D22EE12CF12C13C086
S11309F0C12CD12C76010093D2031093D3032093FE
S1130A00D4033093D5031092C2031092C3031092FF
S1130A10C4031092C5034CB55DB54D5F5F4F9A0199
S1130A20261B370B2C153D0518F4AB014C0D5D1D31
S1130A304115510511F441E050E0415051095BBDAD
S1130A404ABD80E186BF87B7806187BF1F910F9140
S1130A50FF90EF90DF90CF9008952F923F924F92A6
S1130A605F926F927F928F929F92AF92BF92CF923A
S1130A70DF92EF92FF920F931F93EFB7F894809158
S1130A80B7039091B803A091B903B091BA031C01C4
S1130A902D019C01A20160E070E080E090E003E0A1
S1130AA00E94313A51016201E12CF12C00E010E086
S1130AB00E94713A59016A017B01F82F192F03E052
S1130AC00E94313A0F2F0E94713A59016A017B0149
S1130AD0F82F192F03E00E94313A0F2F0E94713A28
S1130AE059016A017B01F82F192F03E00E94313A62
S1130AF00F2F0E94713A59016A017B01F82F192FB7
S1130B0003E00E94313A0F2F0E94713A01E00E94E3
S1130B10313A29013A0100E20E944C3A49015A0152
S1130B20C301B2019695879577956795680D791DF0
S1130B308A1D9B1D97FF05C09F776F5F7F4F8F4F67
S1130B409F4F6093B7037093B8038093B903909356
S1130B50BA03EFBF1F910F91FF90EF90DF90CF90FA
S1130B60BF90AF909F908F907F906F905F904F90C9
S1130B703F902F90089530914301E32FF0E0EE0F62
S1130B80FF1FE857F84F8081918120914101222372
S1130B9059F03F5F343019F03093430102C0109292
S1130BA04301215020934101089530914001E32FE6
S1130BB0F0E0EE0FFF1FEE57FB4F808191812091F3
S1130BC03F01222359F03F5F343019F03093400144
S1130BD002C010924001215020933F01089580915A
S1130BE0D806811102C086E004C08F5F8093D806C6
S1130BF085E00C940002FF920F931F93CF93DF9331
S1130C008AE18093840380E88093850313E0109342
S1130C108603109287031092810310927B03FF24B2
S1130C20F394F0927C0310927D0386E08093880312
S1130C30109289030FE000938A0310929F0310928D
S1130C40A0031092A1031092A2030E942D056093A9
S1130C508B03CFEFDFEFD0939403C09393030E94F1
S1130C602D0560938C03F0927E0385E080939003BE
S1130C7084E080938D031093910310938E03D0939B
S1130C809603C093950310927F0380E280939203AE
S1130C901092800310928203D0939803C093970319
S1130CA000938F0384EF91E090939A0380939903C8
S1130CB01092830382EC97E0A0E0B0E080939B0362
S1130CC090939C03A0939D03B0939E03DF91CF91D7
S1130CD01F910F91FF900895E2E2F1E06927660FFA
S1130CE0F11DE60FF11DC895982F802D3196C895FA
S1130CF090250895909127012091320191112FC0E0
S1130D0081112DC041E04093270180910601809319
S1130D102601822F81708093A3018091000190911C
S1130D2001019093250180932401809131018093E6
S1130D302301322F31703427267EE32FF0E0EE0FAB
S1130D40FF1FEE5FFE4F808191819093010180939C
S1130D500001232B2093320184E20C94000220FF33
S1130D6002C02B7F01C02D7F209332010895CF93C1
S1130D70DF93D82FC62F8091ED02813069F030F0D7
S1130D808230B9F1833009F444C001C1DD2309F490
S1130D9018C10E94D40112C1D11113C18091BC04A5
S1130DA09091BD040E946C069093BD048093BC0492
S1130DB082E08093ED02C093F107C43409F0E7C0E8
S1130DC08091320180FF04C082FDE1C0846003C0D1
S1130DD081FDDDC082608093320180913201877E83
S1130DE0886080933201109231018FEF8093060165
S1130DF0E8C0D111CCC0609379038091BC04909178
S1130E00BD040E946C069093BD048093BC0483E0EF
S1130E10D6C08091D9068F3F09F4B9C0DD2309F407
S1130E2051C0823008F4B3C0E091DD07EE2311F025
S1130E30E15001C0E2E0AE2FB0E0A352B84F1296E9
S1130E404C9150E0542F4427EE2311F0E15001C09F
S1130E50E2E0F0E0E352F84F8281482B2091BC0499
S1130E603091BD044217530709F091C080E00E94FD
S1130E707A0620917903E091A5043091A60481E0DB
S1130E808E0F863010F4982F01C090E0931769F00C
S1130E90F0E0EB55FB4F2283863018F48093A504D1
S1130EA002C01092A5040E9425020E94D4018091E0
S1130EB022018D7F8093220180913301882309F4DC
S1130EC080C073C0823008F44DC0E091DE07F0E0CA
S1130ED0E352F84F228130913201932F96959695E3
S1130EE096959370892F90E08130910519F00297BF
S1130EF081F01FC0832F877E80618093320121118E
S1130F0002C081E101C080E0809331012093060199
S1130F1010C080913101843960F4E0910001F091B6
S1130F200101E80FF11D2083809131018F5F8093CF
S1130F3031018091DE07E82FF0E0E352F84F62813F
S1130F408F5F833018F48093DE0702C01092DE07AF
S1130F508091BC049091BD040E946C069093BD04E2
S1130F608093BC048091DD07E82FF0E0E352F84F52
S1130F70C2838F5F833018F48093DD0702C0109220
S1130F80DD078091D9068F5F8093D9061AC00E942D
S1130F90D401809122018D7F8093220181E00E94FF
S1130FA07A0680913301882339F084E08093ED023E
S1130FB0DF91CF910C943D02DD2319F081E0809301
S1130FC0ED02DF91CF91089563FF04C062FD04C078
S1130FD097E003C093E001C09DE067FF07C086FF70
S1130FE002C09E5F01C09C5F66FD9A5FFA01908318
S1130FF080E008958091A104882349F01092A1040F
S11310001092D5011092D40189E10C940002089544
S11310109FB7F8948091BD0381608093BD039FBF07
S11310200895813419F08D3419F008950C9408084A
S11310309FB7F8948091BD0382608093BD039FBFE6
S113104008954F925F926F927F928F929F92AF9288
S1131050BF92CF92DF92EF92FF920F931F93CF93A1
S1131060DF930E944F02CCE6D7E040E044244A9448
S1131070542C3201ECEEF6E029912223C1F1808058
S11310809180A280B3806B017C01C818D908EA085A
S1131090FB080481158126813781C016D106E2063A
S11310A0F30668F0080D191D2A1D3B1D00831183EA
S11310B02283338314821582168217820CC06083C4
S11310C07183828393830C191D092E093F090483BC
S11310D01583268337830481158126813781401641
S11310E051066206730618F02801390141E038966A
S11310F027E0EC36F20709F0BFCF442341F177FE35
S113110004C0769467945794479460935201709303
S1131110530180935401909355014092E4015092FD
S1131120E5016092E6017092E701DF91CF911F9192
S11311300F91FF90EF90DF90CF90BF90AF909F9072
S11311408F907F906F905F904F900C94CB0287B7F5
S1131150877F87BFDF91CF911F910F91FF90EF9011
S1131160DF90CF90BF90AF909F908F907F906F90C3
S11311705F904F9008959FB7F8948091BD03846069
S11311808093BD039FBF08956F927F928F929F9229
S1131190AF92BF92CF92DF92EF92FF920F931F9381
S11311A0CF93DF93D090ED01CFB6F8948091D0081F
S11311B0813011F4CFBE72C1A090BD03A2FEB6C0AF
S11311C0EFE7F1E0912C68EFC191D1912097C1F143
S11311D00990D881C02D8A818C708C3089F526962F
S11311E08AE393E070E010E0191599F0783081F10A
S11311F0AE019C0170E0DA01FD90AD01D9010D91C1
S11312009D01F01203C07F5F7830A9F71F5F089734
S1131210EBCF7830E9F09394492D640390011124C5
S113122080E090E029503D4F79910196A901480F43
S1131230591F465B5F4FDA017C9388309105A1F713
S1131240B1E0ED38FB0721F027E0291508F0BCCF09
S1131250092D10E048EF4003C00111248E5B9C4F20
S1131260EFE7F1E0B12C7C0152E0E51AF108C191FD
S1131270D191209769F10990D881C02D2A812C70D1
S1131280283031F52F8130E0322F22274E81242B54
S1131290732E612CD301A22B9D01A701812C8B14E9
S11312A071F0EA0169814250510970E0762F662796
S11312B0C8816C2B2617370791F08394F0CFB39431
S11312C0EC01B2E0BB9EC019D109112428833983F3
S11312D021E0ED38F20719F036E03B1540F62CEF2B
S11312E02003F001219FF00D1124EB19F109EE0FF9
S11312F0FF1FEF5BFC4FB4E0000F111FBA95E1F73D
S11313000B290083990C990C9B0C990C939482E4FF
S113131093E08919910920917D07921669F09092C2
S11313207D072A2D2F602093BD0306C020917D07E1
S113133082E493E0821B9109A091BD03A1FF3AC00E
S11313409C01275F3240222329F0FC01319710824F
S113135061E001C060E0EC01C61BD109288127705F
S113136030E0D12C70E0472F50E04217530764F46B
S1131370FE0143E0749FE00DF11D11244481429568
S11313804F70D40E7F5FEFCF2091A20162130CC087
S11313904FE050E04D1951092091AD0130E021504A
S11313A031094217530759F06093A201AF60A0932B
S11313B0BD0305C02091A201EC01C21BD109DE01CD
S11313C012974091BD0340FF1FC020913F0650E19A
S11313D0259F900111243091EA07322B3C93FE01A2
S11313E0129280917B03882311F080E8808380919E
S11313F08303882319F08081806480838D2D8095F8
S11314008F709081892B808380917D079091A201B8
S1131410890F8E5F90919704890F80933806B0935B
S11314203406A0933306407F4093BD03CFBEDA98C1
S1131430E0913106F091320680918B038F5F8383B4
S1131440DFB7F8948091D008813039F1C091BD03A1
S1131450C4FF15C01091960400919E01802F90E066
S1131460412F50E06091DF017091E0018E5B9C4F51
S11314700E94833AC5FF03C0100F10939704809114
S11314807D079091A201890F8E5F90919704890F37
S113149080933806CF70C093BD03DFBFDF91CF9137
S11314A01F910F91FF90EF90DF90CF90BF90AF907E
S11314B09F908F907F906F9008958091E403909116
S11314C0E503892B59F581E090E09093E907809337
S11314D0E80787ED91E09093E5038093E40310928D
S11314E077031092760381E0809378035E9A569A8C
S11314F080917603909177039C012F5F3F4F309347
S1131500770320937603FC01E952FE4F90818FB755
S1131510F8949CB95E9A8FBF80E0089585E00895A1
S113152093E8980F923050F4909122019160909337
S1131530220190E298279093BB068DE78093D70110
S11315400C945D0A9FB7F894809122018E7F80935A
S113155022018EE78093D7019FBF0C945D0A2091EE
S11315602D0130912E01232BB1F52FB7F89431E1E1
S113157030932B0110922A019093300180932F0114
S113158082E090E090932E0180932D011092280127
S113159010922901685E60932C012FBF8FB7F894D5
S11315A090919D069A3011F48FBF17C08FBF9FB7DB
S11315B0F8948091EC03811106C081E08093EC03E0
S11315C01092ED0301C080E09FBF882331F00E9498
S11315D0250280E0089585E0089510922E0110926E
S11315E02D0181E008958FEF80933B0880933A08A2
S11315F084E6809340088091B4049091B504892BCB
S1131600F1F489E298E09093B5048093B4048CE1FA
S113161080933E0880910701882399F01092070176
S11316206CE189E298E00E94AF0A882359F091E0C6
S1131630909307011092B5041092B404089585E0C4
S1131640089580E00895FB01833009F471C028F403
S1131650882319F1823099F174C0833589F0803F71
S113166029F1803509F06DC0808191812FB7F894FC
S113167031E0309380079093AC038093AB030BC0AD
S1131680808191812FB7F89431E030938007909353
S1131690D7038093D6032FBF54C090818FB7F8949B
S11316A021E020938007909390074AC090818FB7E0
S11316B0F89421E02093800790939F0141C090818A
S11316C0892F8F7395FD806C992787FD909597FFDF
S11316D019C08F3F2FEF9207B9F08D3F2FEF92077C
S11316E0ACF48B3F2FEF92079CF4883F2FEF9207C7
S11316F08CF4843F2FEF92077CF48D3E9F4F74F05F
S113170087E00DC08FE10BC08BE109C087E107C002
S113171083E105C08FE003C08BE001C083E09FB785
S1131720F89421E0209380078093B2039FBF09C0FF
S113173090818FB7F89421E0209380079093240838
S11317408FBF80913D0190913E010697029718F456
S113175084E10C9400020895209141012430E0F4C6
S113176030914201E32FF0E0EE0FFF1FE857F84FEE
S11317709183808381E0830F843019F08093420148
S113178002C0109242012F5F209341018AE00E941F
S1131790000280E090E0089581EF90E00895CF93F7
S11317A0CFB7F8948091D4019091D501892B19F485
S11317B0CFBF89E00EC081E08093A10489B78F7BFD
S11317C089BF8091EC02811102C00E94FA07CFBF49
S11317D080E0CF910895CF93C82F0E948802C81348
S11317E01BC02FB7F89480913D0190913E01843045
S11317F0910519F42FBF89E010C0079719F02FBF86
S113180081E00BC088E090E090933E0180933D011D
S11318102FBFCF910C94CF0B85E0CF91089580E03A
S11318200C94EB0BCF92DF92EF92FF92CF93DF9366
S113183000D000D0CDB7DEB76B017C0129833A8399
S11318404B835C830E944F02660F771F881F991F8A
S11318506C197D098E099F09E1E029813A814B8148
S11318605C81621773078407950708F4E0E08E2F04
S11318700F900F900F900F90DF91CF91FF90EF900A
S1131880DF90CF900895CF93DF93EC018881998105
S11318900E940804CE01DF91CF910C9425049FB7D8
S11318A0F89481E020910B01211180E09FBF0895FD
S11318B08F929F92AF92BF92CF92DF92EF92FF925C
S11318C0CF93DF9300D000D0CDB7DEB74B015C01DE
S11318D029833A834B835C830E944F026B017C0112
S11318E0CC0CDD1CEE1CFF1CC818D908EA08FB0848
S11318F04601570129813A814B815C81C216D30686
S1131900E406F50610F449015A010E944F0260935F
S11319108207709383078093840790938507D5018A
S1131920C4018C199D09AE09BF09B695A795979571
S113193087958093EE029093EF02A093F002B09308
S1131940F1020F900F900F900F90DF91CF91FF90C5
S1131950EF90DF90CF90BF90AF909F908F900C94BA
S113196070036E9A8FB9779BFECF8FB108959091D3
S1131970E50691110C94B10C80E00895CF93CFB794
S1131980F8940E944F0C811103C0CFBF81E00EC0B8
S11319900E94CE010E94CA0183E00E94B70C8BE032
S11319A00E94B70C0E94CE01CFBF80E0CF91089572
S11319B01F93CF93DF931F92CDB7DEB720913601EB
S11319C0309137012330310509F049C089830E94E1
S11319D0CE010E94CA018981882311F085E001C0EB
S11319E084E00E94B70C83FD09C080E00E94B70C1C
S11319F083FB112710F981E0182701C011E00E9430
S1131A00CE0111112EC084E090E0909337018093B1
S1131A103601E091B204F091B3040480F581E02D25
S1131A208FEF83838283818380830E944F0260933C
S1131A30D2037093D3038093D4039093D50380EEA1
S1131A4091E0A0E0B0E08093C2039093C303A0931D
S1131A50C403B093C5030E949A0480E003C084E0E9
S1131A6001C081E00F90DF91CF911F910895CF9332
S1131A70CFB7F8940E944F0C811103C0CFBF81E00F
S1131A800BC00E94CE010E94CA0186E00E94B70CDE
S1131A900E94CE01CFBF80E0CF910895CF92DF9214
S1131AA0EF92FF920F931F93CF93DF930091270838
S1131AB010912808E0902F06F0903006C091B004F1
S1131AC0D091B1042091560130915701CE010A966C
S1131AD02817390708F4C9016C0121E0C21AD1089A
S1131AE0CC15DD05A0F40115110529F0F801EC0F62
S1131AF0FD1F808101C080E00E94B10CE114F1045B
S1131B0021F0F701EC0FFD1F80832196E9CF6F9A36
S1131B100115110531F0F801EC0FFD1F80818FB91B
S1131B2001C01FB8D093B104C093B00480E0DF912A
S1131B30CF911F910F91FF90EF90DF90CF90089578
S1131B405093570140935601909328088093270897
S1131B507093300660932F061092B1041092B00473
S1131B60452B19F08FB10C944E0D87E10E940002B1
S1131B7080E00895CF93DF930E94CE010E94CA01B2
S1131B80C0914006D09141068091E506882391F0EA
S1131B908FE790E09093E7038093E6038FE70E943A
S1131BA0B10C41E050E0BE0180E090E0DF91CF91C4
S1131BB00C94A00DDF91CF910895EF92FF921F93A3
S1131BC0CF93DF931F92CDB7DEB77C018091E506FA
S1131BD08823A9F08EE390E09093E7038093E603D3
S1131BE08EE369830E94B10C182F6981462F50E05F
S1131BF060E070E0C7010E94A00D812F01C080E069
S1131C000F90DF91CF911F91FF90EF9008950F9364
S1131C101F93CF93CFB7F89490914901923071F408
S1131C2090910D0198130AC08091CE0481110EC0C9
S1131C308091CF04882309F43EC008C090E0CFBF50
S1131C4081E08927CF911F910F91089520914A0136
S1131C5030E0C901019661E070E08C30910511F427
S1131C6080E090E0E82FE695E695E695F0E0E25313
S1131C70FB4FA081482F47708B0102C0000F111F3A
S1131C804A95E2F7A801BA2FB02331F040954A23D0
S1131C90408380934A0106C08217930711F001968E
S1131CA0DCCF8FEF8093D90181E08093490182E0FA
S1131CB00E94000205C08FEF80930D01109249012C
S1131CC091E0BDCFEF92FF920F931F93CF93DF93D9
S1131CD08C01FFB6F8940E944F0C882311F10E94E6
S1131CE0CE010E94CA018091E506882381F083E534
S1131CF00E94B10CE82E80E00E94B10CC82FD0E005
S1131D00DC2FCC2780E00E94B10CC82B01C0E12C51
S1131D100E94CE01E1FE05C0F801C083FFBE80E051
S1131D2002C0FFBE81E0DF91CF911F910F91FF9020
S1131D30EF900895CF93DF9300D0CDB7DEB79FB770
S1131D40F8942091E506222389F09FBF6A83798362
S1131D500E94B10C7981872F0E94B10C6A81862F71
S1131D600F900F90DF91CF910C94B10C9FBF80E046
S1131D700F900F90DF91CF9108958091900790E09C
S1131D800B9725E0289FB001299F700D11246B59F2
S1131D907E4F706488E10C949A0EE1E08091AF0468
S1131DA0811101C0E0E041E080919F01811101C0F7
S1131DB040E021E08091E101811101C020E08091A7
S1131DC0B303882351F051E030E080918107811101
S1131DD001C050E0852F932F02C080E090E0609115
S1131DE0240830E4639FB001112462627260F0E061
S1131DF0FE2FEE27F295FF0FF07E6E2B7F2B50E027
S1131E00542F44275295507F642B752B30E0322F8A
S1131E102227330F330F330F622B732B54E0880FB9
S1131E20991F5A95E1F7682B792B81E10C949A0E4E
S1131E3080913B0190913C010197F1F582E090E0A3
S1131E4090933C0180933B01DE98DE9A80913B01A4
S1131E5090913C01029781F583E090E090933C01DE
S1131E6080933B010E94CE010E94CA0168E170E0A8
S1131E708DE10E949A0E81E08093D80310923A017A
S1131E8080B386FB882780F98093E30385E10E9471
S1131E90000281E00E94B70C6FE772E08CE10E94BF
S1131EA09A0E0E94BD0E0E94CD0E66E57AE287E18D
S1131EB00E949A0E0C94CE01089550911F015C313A
S1131EC018F4252F30E002C02CE130E08CE1E1E48D
S1131ED0F8E0DF011D928A95E9F74091210180E045
S1131EE090E08217930791F0E42FF0E0EF50FE4F5B
S1131EF06081552329F04F5F4A3F09F440E0515077
S1131F00FC01E75DF74F608F0196EBCF4093210111
S1131F1050931F010E94F30A882319F085E20C9460
S1131F2000020895CF93DF931F92CDB7DEB790914F
S1131F301E0191110BC090911F019D3738F091E063
S1131F4090931E0189830E945D0F89819FB7F89445
S1131F5020911F012A3FB8F430912001E32FF0E0D3
S1131F60EF50FE4F808381E0830F8A3F19F0809306
S1131F70200102C0109220012F5F20931F019FBFF8
S1131F8080E090E003C09FBF8FEF9FEF0F90DF9141
S1131F90CF91089597B79F7D97BF90E296BF88230E
S1131FA019F08EB5806402C08EB58F7B8EBD87B765
S1131FB0806287BF80E00895DA9AD99AD898089504
S1131FC06E98BA9ABB98B99A0E94CC016C9A6F9891
S1131FD06B986A986E9A709A8DB18C7F8DB90895BA
S1131FE01F93CF93DF931F92CDB7DEB71FB7F8943B
S1131FF09091E50691111FC091E09093E506209120
S1132000080190913801211102C0923079F09111A8
S113201015C092E0909338011092080189830E94C0
S1132020E00F0E94CC010E94CA01898180930B01B8
S113203080E01FBF07C01FBF85E004C01092E50603
S113204081E0F7CF0F90DF91CF911F910895CF9347
S1132050CFB7F8949091E50691110FC091E0909359
S1132060E50680930B01909108018091380191114C
S113207010C0823071F486E118C021E030E001C064
S1132080220F8A95EAF780913901822B80933901D6
S11320902EC0882349F180913801811109C081E063
S11320A0809338011092E30188E10E9400021FC06E
S11320B08091EC018F3FD9F481E090E0E091090137
S11320C0EE2311F080E090E0892B89F480910A01DD
S11320D08F3F19F410920A0104C0F0E0E451FE4F5E
S11320E010821092090103C00E94E00FD4CFCFBF29
S11320F080E0CF91089580E00C9427108091D40162
S11321009091D501892BF1F08091A10481111AC01D
S113211083E090E09093D5018093D40181E0809393
S1132120EC029FB7F89480910B019FBF813011F4AA
S11321300C94BA0D81E00E94F00F8823C9F381E06A
S11321400C9427100895CF92DF92EF92FF92CF93D1
S1132150DF93C82F6A017B010E944F02DFB7F89416
S11321602C2F30E0F901A3E0EE0FFF1FAA95E1F751
S1132170E451F94F6083718382839383C482D5824F
S1132180E682F782F901E459F84F81E08083809177
S11321907C07811102C00E942108DFBFDF91CF912B
S11321A0FF90EF90DF90CF900895CF93CFB7F8943E
S11321B08091360190913701019719F4CFBF89E0DE
S11321C00DC081E00E94CA0F81E090E09093370136
S11321D08093360110923501CFBF80E0CF910895EE
S11321E08091390181114EC080910B018F3F09F01C
S11321F049C08091E506811145C081E08093B9070B
S11322008091A60181111092B9078091B9078823A2
S1132210B9F180910801811104C0809138018230A4
S113222099F180913801823029F58091080181115A
S113223021C080910A018F3FC9F09FEF909308015C
S1132240E82FF0E0E451FE4F908190930A019F3F04
S113225011F4909309019FEF90838093E30181E04F
S11322608093380188E10E94000204C08093080131
S11322701092380180913801811109C06E9807C00D
S113228085E0089581E008950E94CE01CACF80E0E0
S11322900895CF93CFB7F89490910B01981719F044
S11322A0CFBF81E02DC08FEF80930B017091390176
S11322B0711105C01092E5060E94F0101CC060E088
S11322C0872F90E06170AC01062E02C055954795AA
S11322D00A94E2F740FF12C060930B0181E090E0A2
S11322E001C0880F6A95EAF78095872380933901A6
S11322F086E10E940002CFBF80E002C06F5FE2CFA0
S1132300CF910895CF93CFB7F89480E00E944911FC
S1132310CFBFCF91089581E00C944911CF93CFB7EB
S1132320F8948091D4019091D501892B09F11092F0
S1132330EC028091A104882319F00E94FA071AC0C4
S11323408091E201882311F0B79904C00E9908C066
S1132350882319F081508093E2010E947E100AC004
S113236082E090E09093D5018093D4011092E20131
S11323700E948B11CFBFCF91089580E880939D0177
S11323801092EC0210922108109219081092E201A6
S11323900E94CE010E94CA0188E00E94B70C88E026
S11323A00E94B70C0E94CE010E948B110C948E11D6
S11323B00F93CF932091C6043091C7044091C80471
S11323C05091C9046091CA047091CB04C091CC04AB
S11323D0B091CD04FC01A8E021938C2F9B2F08E041
S11323E00E944C3AC82FB92FA150B1F7CF910F9149
S11323F00895EF92FF920F931F93CF93DF93CDB77E
S1132400DEB72C970FB6F894DEBF0FBECDBF1FB753
S1132410F894CE0101960E94D8119091AB0380915B
S1132420AC0399878A879091D6038091D7039B87C1
S11324308C871FBF21E08091AB039091AC03019680
S113244009F020E0722F770F770F770F60E06F6746
S113245072608CE10E949A0E8FB7F8949091E50611
S1132460911102C08FBF16C08FBF80EE0E94B10CC5
S113247080E80E94B10C8E010F5F1F4F7E018DE03A
S1132480E80EF11CF80181918F010E94B10C0E1528
S11324901F05C1F72C960FB6F894DEBF0FBECDBF53
S11324A0DF91CF911F910F91FF90EF900895CF93FB
S11324B0CFB7F8940E944F0C811103C0CFBF81E0C5
S11324C027C080918007882309F10E94CE010E94D1
S11324D0CA0186E00E94B70C0E94CE010E94CA0184
S11324E00E94BD0E0E94CD0E6091B20370E0606E3A
S11324F0706885E10E949A0E0E94CE010E94CA0172
S11325000E94F9110E94CE0110928007CFBF80E093
S1132510CF910895CF930E9457120E94D510E09155
S1132520E206F091E306CFB7F894809136019091DA
S11325303701019729F582E090E090933701809369
S11325403601F093B304E093B204A081B181868193
S11325509781890F8E5F8C930E94CE010E94CA01DD
S113256089E00E94B70C0E94CE010E94CA01E0914A
S1132570B204F091B30461E0808191810E94DD0D89
S1132580CFBFCF9108950E944F0C81110C948A12F1
S113259080E00E94F00F8823C9F30C947B100F9302
S11325A01F93FC01009709F441C080819181892B1C
S11325B0E9F182819381892B19F48781811136C0D5
S11325C084819581892B91F1A681878190E08A0F7E
S11325D0911D8E37910554F5AFB7F89480913D0164
S11325E090913E01049719F0AFBF81E020C089E0CB
S11325F090E090933E0180933D01AFBFF093E306DA
S1132600E093E2064093F3025093F4026093F502E0
S11326107093F60200938E0110938F012093900122
S1132620309391010E94C31280E001C086E01F91A3
S11326300F910895CF92DF92EF92FF920F931F9321
S1132640CF93DF9300D000D0CDB7DEB781E0809385
S1132650D0088091BF04E0913106F09132068111D7
S113266015C08091BB039091BC03892B61F481E078
S113267090E02091590130915A01232B11F480E00C
S113268090E0892B19F08181806102C081818F7E65
S1132690818380911708882351F0109217081092B3
S11326A0E8011092E9011092EA011092EB01C09046
S11326B0E801D090E901E090EA01F090EB0140914B
S11326C0B6045091B7046091B8047091B904498379
S11326D05A836B837C830E94880249815A816B816F
S11326E07C81833031F49701860181E396E00E9476
S11326F0CF120F900F900F900F90DF91CF911F91F9
S11327000F91FF90EF90DF90CF9008954F925F92DA
S11327107F928F929F92AF92BF92CF92DF92EF926D
S1132720FF920F931F93CF93DF9300D000D0CDB7C8
S1132730DEB71091AD012091E8063091E906409191
S1132740EA065091EB0685E029833A834B835C8348
S11327500E94950229813A814B815C81882309F486
S1132760B4C0A12FB0E00E94FE394B015C016B01A3
S11327707C0124EAC21A21E0D20AE108F10880911E
S1132780B6069091B706A091B806B091B906C81ADA
S1132790D90AEA0AFB0AC701B60124E130E040E0A5
S11327A050E00E94093AE4E1CE0ED11CE11CF11C78
S11327B0C61AD70AE80AF90A8C149D04AE04BF04A9
S11327C018F4C12CD12C76018091AB019091AC010D
S11327D0009749F0A0E0B0E08C159D05AE05BF055B
S11327E010F46C017D016091B6047091B70480917E
S11327F0B8049091B904A70196010E94120C8111AA
S113280067C00091A0011091A1017090DC0180903B
S1132810B6049090B704A090B804B090B904409066
S11328209404509095040E948802853009F053C0A6
S11328304114510409F44FC0F20180819181892B24
S113284009F449C082819381892B19F4878181110C
S113285042C0F20184819581892BE9F12681878127
S113286090E0820F911D8E379105ACF580913D016A
S113287090913E01049779F58BE090E090933E01AE
S113288080933D015092E3064092E2068AE894E088
S11328909093A5018093A4018092F3029092F40294
S11328A0A092F502B092F602C0928E01D0928F01EE
S11328B0E0929001F09291017092C4081093DA07AB
S11328C00093D9070E94C31206C080E090E005C0BF
S11328D083E090E002C082E090E00F900F900F90B0
S11328E00F90DF91CF911F910F91FF90EF90DF90A8
S11328F0CF90BF90AF909F908F907F905F904F90BC
S11329000895CF92DF92EF92FF926B017C01809148
S1132910340181111FC083E0809334010E944F026F
S1132920609382077093830780938407909385074D
S1132930F694E794D794C794C092EE02D092EF0233
S1132940E092F002F092F102FF90EF90DF90CF90CE
S11329500C947003FF90EF90DF90CF900895CF9385
S1132960E091A401F091A501C0810E942D052FEFF3
S11329703FEF02C0220F331FCA95E2F74DE050E04B
S113298050933E0140933D012095309526233723F3
S113299084E1829FB001839F700D112480E090E058
S11329A0CF910C9481142F923F924F925F926F9229
S11329B07F928F929F92AF92BF92CF92DF92EF92CB
S11329C0FF920F931F93FC01DB0117968C911797CD
S11329D016968C901697912CA12CB12C5401992405
S11329E08824B82A14968C911497882A15968C9169
S11329F01597982A9401A50160E070E080E090E0CA
S1132A0000E20E94313A1396FC90139712962C9090
S1132A101297822C912CA12CB12C54019924882436
S1132A20BF28FC908F281196AC919A2A1401250195
S1132A3051016201E12CF12C00E010E00E94683A9F
S1132A40208331834283538364837583868397838E
S1132A501F910F91FF90EF90DF90CF90BF90AF90B8
S1132A609F908F907F906F905F904F903F902F90AA
S1132A700895FC01CB01328137FF29C0232F2C702C
S1132A80283021F02C3021F023E003C027E001C0DE
S1132A902DE0418146FF01C033FF2E5F3196432F65
S1132AA0407C30E0403861F4E20FF31F218130E0D4
S1132AB0322F22274081242BFC013183208305C03F
S1132AC0BF01620F731F0E94D31480E0089581E058
S1132AD008958F929F92AF92BF92CF92DF92EF921E
S1132AE0FF920F931F93CF93DF93EC014A01D90117
S1132AF0B02EF6018EEF860F823070F54B839C82E8
S1132B00623039F49C9111968C919D838E8317E0E9
S1132B1026C02C9111963C91119712964C911297C4
S1132B2013965C91139714966C91149715967C9157
S1132B30159716968C91169717969C91DE0115960B
S1132B406E011DE0C10ED11C2D9308E00E944C3A89
S1132B50AC15BD05C9F702C013E001C01DE08EEF3E
S1132B608B0D823058F58E149F0411F4A11007C008
S1132B70DE01A10FB11DEC921196FC921E5FA12FF4
S1132B80B0E082E0B81208C090818181CA0FDB1FD7
S1132B90988389831E5F12C02081318142815381D1
S1132BA06481758186819781CA0FDB1FE8E02993D0
S1132BB008E00E944C3AE150D1F7185F812FDF9171
S1132BC0CF911F910F91FF90EF90DF90CF90BF9026
S1132BD0AF909F908F9008952FB7F894B79905C040
S1132BE00E9903C02FBF81E0089580E880939D0172
S1132BF01092EC0210922108109219081092E2012E
S1132C0082E090E09093D5018093D40189B78F7BC3
S1132C1089BF80E488BF8AB780628ABF8AB78F7E03
S1132C208ABF89B7806489BF2FBF80E00895E0918F
S1132C30E206F091E3060190F081E02D818185FFA9
S1132C4004C00E9482110C94EC150895109207019F
S1132C50E091B404F091B5043097D1F0809122084A
S1132C6080FD16C080910701811116C021898289D7
S1132C706589673718F08EE10C94000290E0922B7E
S1132C80828B918BCF010E94AF0A882329F0F3CF66
S1132C9081E080930701E6CF0895CF93CFB7F894EE
S1132CA00E944F0C811103C0CFBF81E01FC0B79BAE
S1132CB01BC00E94CA018091E506882349F08FE772
S1132CC00E94B10C80E00E94B10C80E00E94B10C23
S1132CD00E94CE010E94CA0188E00E94B70C88E0DD
S1132CE00E94B70C0E94CE01CFBF80E0CF9108951F
S1132CF08F929F92AF92BF92CF92DF92EF92FF9208
S1132D000F931F93CF93DF938091D008813079F490
S1132D1089E0DF91CF911F910F91FF90EF90DF90A9
S1132D20CF90BF90AF909F908F900C9400028091B1
S1132D30EA078F3079F483E0DF91CF911F910F91EF
S1132D40FF90EF90DF90CF90BF90AF909F908F90C7
S1132D500C94070ECFB7F89482E08093D00880914A
S1132D6017088111B3C08091980190919901A091A5
S1132D709A01B0919B01892B8A2B8B2B31F5809181
S1132D80790190917A01A0917B01B0917C01009727
S1132D90A105B105D1F08093E8019093E901A093D6
S1132DA0EA01B093EB011092790110927A0110922A
S1132DB07B0110927C0180918D0182FF06C08B7F84
S1132DC080938D0188E00E9400022091E8013091F7
S1132DD0E9014091EA015091EB016091B6047091D0
S1132DE0B7048091B8049091B9040E94120C209108
S1132DF0E8013091E9014091EA015091EB01882307
S1132E00A9F08091900490919104A0919204B091C2
S1132E109304820F931FA41FB51F8093E80190931E
S1132E20E901A093EA01B093EB01CFCF6091B6041E
S1132E307091B7048091B8049091B90460597140BD
S1132E40810991090E94120C811140C08090E8010F
S1132E509090E901A090EA01B090EB01F0E9CF2E47
S1132E60DD24D394E12CF12C8091B6049091B70425
S1132E70A091B804B091B904C81AD90AEA0AFB0AA5
S1132E80DFB7F8940E944F02660F771F881F991FBF
S1132E906C0D7D1D8E1D9F1D6B017C0168157905D0
S1132EA08A059B0510F47501640197018601061BD0
S1132EB0170B280B390BB901A8017695679557951F
S1132EC0479582E00E94A310DFBF02C00E941A133C
S1132ED0CFBFDF91CF911F910F91FF90EF90DF90C3
S1132EE0CF90BF90AF909F908F90089583E00E9401
S1132EF0950281110C94781683E00C94EB0B6F927D
S1132F007F928F929F92AF92BF92CF92DF92EF9275
S1132F10FF920F931F93CF93DF931F92CDB7DEB72A
S1132F20182F7FB6F89469830E94880269818113FF
S1132F30E3C060930D01862F90E0FC013397E930E4
S1132F40F10508F0D6C0EA5BFF4F0C942B3A809150
S1132F508D01897021F089E00E940002CAC00E949C
S1132F607617C7C08091B6038823E9F00091BB03AC
S1132F701091BC030115110521F400915901109120
S1132F805A0181E08093BF0485E00E946F028111A1
S1132F900AC08091860790918707892B21F41093AA
S1132FA087070093860765E084E0A1C0A091AD0186
S1132FB02091E8063091E9064091EA065091EB062B
S1132FC0B0E00E94FE39643A21E072078105910560
S1132FD018F466E085E08BC06B017C01E4EACE1A4C
S1132FE0E1E0DE0AE108F108809186079091870705
S1132FF0892B31F081E08093C7088CE00E940002A5
S11330008090B6049090B704A090B804B090B9042E
S11330106FB6F8940E944F02660F771F881F991F9E
S1133020681979098A099B098B019C016C157D0536
S11330308E059F0510F49701860168017901C61A6F
S1133040D70AE80AF90AB701A60176956795579554
S1133050479587E00E94A3106FBEC090AB01D0904B
S1133060AC01C114D10479F1E12CF12C8090B604A7
S11330709090B704A090B804B090B9046FB6F894D7
S11330800E944F02660F771F881F991F68197909DC
S11330908A099B098B019C016C157D058E059F0592
S11330A010F49701860168017901C61AD70AE80A63
S11330B0F90AB701A601769567955795479588E073
S11330C00E94A3106FBE0E948E1813C063E086E0B6
S11330D00EC068E087E00BC063E088E008C06AE0E7
S11330E089E005C063E08AE002C063E08BE00E94EF
S11330F07F177FBE80E002C07FBE81E00F90DF912A
S1133100CF911F910F91FF90EF90DF90CF90BF90E0
S1133110AF909F908F907F906F900895CF93CFB78B
S1133120F8948091C708811194C085E00E946F02D1
S1133130882309F48EC081E08093C708A091AD0173
S11331402091E8063091E9064091EA065091EB0699
S1133150B0E00E94FE399B01AC01245A3140410980
S113316051096091B6047091B7048091B8049091AC
S1133170B9040E94120C882339F085E00E9495025C
S1133180882309F4BCC006C087E00E947F0288231C
S1133190A1F32CC087E00E94B20188E00E94B20132
S11331A01092CC038091860790918707892BB9F000
S11331B00E94A802809186079091870790937E01D0
S11331C080937D0181EE90E090937F0780937E074A
S11331D080E10E94000210928707109286071092E5
S11331E0C70866E085E00E947F1733C08091860798
S11331F090918707892B09F05CC08091B40390916A
S1133200B5032091D508211106C021E0029709F0E9
S113321020E0822F01C081E020914601811108C085
S113322081E090E0211102C080E090E0892B99F0C8
S113323085E00E949502882309F461C087E00E941A
S1133240B20188E00E94B2011092C70885E00E9492
S1133250070ECFBF5BC02091AB013091AC012115AB
S1133260310509F140E050E06091B6047091B70473
S11332708091B8049091B9040E94120C882399F0AB
S11332808091EE0181110FC08091D80181110BC092
S113329085E00E949502882319F083E090E021C024
S11332A080E090E01EC08091940490919504892B55
S11332B019F00E94861315C00E948802853011F50A
S11332C080913D0190913E010797E1F085E00E94D5
S11332D095028823A1F085E00E94061E81E090E01B
S11332E007C08330910521F41092C70883E090E071
S11332F0CFBF892B59F485E0CF910C94EB0B80E080
S113330090E0F6CF8DE00E940002EECFCF910895B9
S11333102FB7F894FC0180818093D8012FBF0C94BF
S11333208E18FC0180918C03A081B18113968C933B
S11333308F5F80938C0310928D0480918D03809312
S11333401F0880938C048091900380933E068093A1
S11333508B0480918E0380938A0490917D0399233A
S113336029F0833018F082E080938A0480918A04E3
S11333708093CB038091C2089091C3088E179F0756
S113338019F41092C80804C0809191038093C8086E
S11333908681478150E0480F511D495F5F4F440FBC
S11333A0551F662757FD6095762F4093B6065093B8
S11333B0B7066093B8067093B906A081B1811196DF
S11333C08C9185FF0CC04A5C5F4F6F4F7F4F4093D9
S11333D0B6065093B7066093B8067093B906409149
S11333E09B0350919C0360919D0370919E034093B5
S11333F09301509394016093950170939601F09317
S11334009504E09394040895EF92FF920F931F9311
S1133410CF93DF93CDB7DEB728970FB6F894DEBF0E
S11334200FBECDBF8C017B01FC01608171816A5F9D
S11334307F4FCE0101960E94D314F80180819181BF
S11334400E940804C8010E9425041092CA03E114D2
S1133450F10421F0F9EEEF16F10451F50FEF1FEF2F
S1133460109396030093950365E973E080E50E9449
S1133470230B109398030093970367E973E083E5A4
S11334800E94230B109281031093940300939303DF
S11334901092A3031092A4031092A5031092A60302
S11334A01092A7031092A8031092A9031092AA03E2
S11334B028960FB6F894DEBF0FBECDBFDF91CF9133
S11334C01F910F91FF90EF9008950F931F93CF9347
S11334D0DF93CDB7DEB728970FB6F894DEBF0FBEE3
S11334E0CDBF8B01813039F118F0823049F12BC006
S11334F0DB01ED91FC9182818C70883049F48781E5
S113350090E0982F88272681822B9A83898307C08D
S1133510BF016A5F7F4FCE0101960E94D314D80188
S11335201296ED91FC9113978FEF80838D919C916E
S11335300E94080405C0BA01C8010E94041A03C00D
S1133540C8010E94250428960FB6F894DEBF0FBE6A
S1133550CDBFDF91CF911F910F91089520EE280FD9
S1133560982F41E050E060E070E0992351F0440F5F
S1133570551F661F771F91509213F7CF40E050E01C
S1133580BA014427587F7770452B462B472B51F0BF
S11335908093840364E873E080E00E94230B80E05E
S11335A090E0089588EE90E008958091F2028823D7
S11335B091F08091EA048D7F8093EA041092F202E4
S11335C08FEF9FEF909396038093950365E973E0E3
S11335D080E50C94230B08958F929F92AF92CF9223
S11335E0DF92EF92FF920F93CF93DF93CDB7DEB7C5
S11335F060970FB6F894DEBF0FBECDBFE0918D018A
S1133600E1FFC0C08FEF9FEF9A8789870E94420431
S11336104C01009709F459C00E946104009731F4E9
S1133620C4010E942504812C912C4FC0D401119611
S11336309C938E939C01285E3F4F15963C932E934A
S1133640149728E934E013963C932E93129723E0C1
S1133650FC012183ED91FC91119780EC8283ED9123
S1133660FC9111978281886082838091C60489834A
S11336708091C7048A838091C8048B838091C90494
S11336808C838091CA048D838091CB048E83809136
S1133690CC048F838091CD048887E0909503F090CB
S11336A096038D919C91A12C9E012F5F3F4F690140
S11336B003E09E01275F3F4F4FEF5FEF62E001960B
S11336C00E946915D40116968C9380918D018D7F8B
S11336D080938D018114910409F42EC1D4011296B2
S11336E0ED91FC91139788E080832091AD04909133
S11336F0AE041296ED91FC9113972183928320914D
S11337009703909198031296ED91FC91139723835C
S113371094831296ED91FC911397909151019583A6
S11337201296ED91FC9113979FEF968397831796CA
S11337308C938091EA078F3080F42FB7F8948091AE
S1133740BB039091BC03892B31F49092BC0380920B
S1133750BB032FBF13C02FBF06C0F4011086809196
S1133760E70681FF06C010928D01C4010E94430C3C
S1133770E5C0C4010E94AC0B892BA9F780918D018F
S11337808860D7C0409175015091760160917701AE
S113379070917801409398015093990160939A0134
S11337A070939B01109217081092790110927A017C
S11337B010927B0110927C012091BA062093EA07B3
S11337C02F30A8F480EC93E0A0E0B0E0022E04C017
S11337D0880F991FAA1FBB1F0A94D2F780939004E5
S11337E090939104A0939204B093930408C0109210
S11337F090041092910410929204109293043091C8
S1133800F60730933F068091900490919104A09123
S11338109204B0919304411551056105710569F055
S1133820481B590B6A0B7B0B4093B6045093B704A7
S11338306093B8047093B9040EC0E3FF09C0809389
S1133840790190937A01A0937B01B0937C0103C02A
S113385041E0409317088093E8019093E901A09315
S1133860EA01B093EB01809188038093C504109220
S1133870D008203110F420938A0330938F03809171
S1133880AD049091AE04909396038093950365E9FB
S113389073E080E50E94230B809151010E94AE1ACF
S11338A08091EA078F3020F48091DD0180937D03BD
S11338B08091AD038093830363E873E080EF0E94FB
S11338C0230B809197039091980321E08E3FFFEFA3
S11338D09F0709F420E0E0913106F091320611824D
S11338E0222311F030E801C030EC328330918B0395
S11338F03F5F33834091AD043091AE0444833583FC
S1133900222321F08683978387E005C0CF010696A2
S11339100E94D8118DE0809337068091BD038F609B
S11339208093BD030E94C4088091EA078F3020F47D
S113393084E080938D0102C010928D0160960FB6D1
S1133940F894DEBF0FBECDBFDF91CF910F91FF90F2
S1133950EF90DF90CF90AF909F908F9008958091DB
S11339608D0183FF03C089E00C94000280FF05C031
S11339708E7F80938D010E94EC1A0C947617EF923F
S1133980FF920F931F93CF93DF93CDB7DEB760976A
S11339900FB6F894DEBF0FBECDBF8B017A01853020
S11339A009F150F4882371F0823009F087C0BA011C
S11339B0C8010E94041A82C08730C1F0883009F41B
S11339C05EC07CC0CB010E94430CEF2841F40E94EE
S11339D0EC1A80918D01877F80938D016FC01092C6
S11339E08D016CC0CB010E94250468C086E065325D
S11339F0780719F410922D0661C0EFE7F1E080E03A
S1133A0090E0219131912017310741F4FC01EE0F30
S1133A10FF1FE158FE4F1182108204C001968730C7
S1133A20910579F70E94BB081092C3081092C2084E
S1133A3080915B018F77D80118968C931897909199
S1133A40BE0491509093BE04ED91FC9192819C70C0
S1133A50983031F49091E40691509093E40607C0B5
S1133A609C3029F49091DC0791509093DC07A701D6
S1133A70B8010E94651A83E00E9400021FC0FB0186
S1133A80E080F180809144018823C1F0B7016A5F2E
S1133A907F4FCE0109960E94D314B701605F7F4F18
S1133AA0CE0101960E94D314D8018D919C910E945D
S1133AB00804C8010E9425041092440160960FB6C0
S1133AC0F894DEBF0FBECDBFDF91CF911F910F9150
S1133AD0FF90EF9008950F931F93CF93DF938C0182
S1133AE0EB018091E7068E7F8093E7068091410188
S1133AF0882301F10E94BB05AE01B801F80180855D
S1133B000E94BF1CCA3ED10539F08AE0DF91CF91F3
S1133B101F910F910C940002809141018823A9F315
S1133B200E94BB054AEE50E0BC01FC0180850E9466
S1133B30BF1CF2CFDF91CF911F910F91089587E0C1
S1133B4090E090933E0180933D010E94BE0C81E081
S1133B508093A6010E9482110E948802823031F073
S1133B60853039F0811109C084E001C08EE00C94E5
S1133B7000021092C7080C948E180895CF9386E023
S1133B8090E090933E0180933D010E9457120E9461
S1133B905E030E94D510CFB7F89420918E01309126
S1133BA08F0140919001509191016091F3027091C5
S1133BB0F4028091F5029091F6020E94120C88237F
S1133BC019F00E949F1D1FC020918E0130918F011A
S1133BD040919001509191018091F3029091F402EF
S1133BE0A091F502B091F602E0913401E1110BC00D
S1133BF0E1E0E0933401BC01CD0160517109810918
S1133C0091090E94580CCFBFCF910895CF93C82F2C
S1133C100E948802C81331C02FB7F89480913D01E7
S1133C2090913E01049719F02FBF81E027C085E0F1
S1133C3090E090933E0180933D012FBF1092F302D8
S1133C401092F4021092F5021092F60210928E0174
S1133C5010928F0110929001109291010E94EC1524
S1133C6081110CC00E94F00F811103C00E94BE1D7F
S1133C7002C00E947B1080E001C081EFCF910895C3
S1133C800F931F93CF93DF93E091D80641E050E068
S1133C9060E070E00E2E04C0440F551F661F771FAE
S1133CA00A94D2F7F091DB07F11121C08091D50776
S1133CB09091D607A091D707B091D8078827987F0D
S1133CC0B770EB3190F4C1E0CE0F8A019B01082359
S1133CD019232A233B23012B022B032B31F4440FFA
S1133CE0551F661F771FEC2FECCFE093D806809109
S1133CF0D8068B3108F056C0F11156C00E94AE1A96
S1133D0080911D08813071F0F8F0823021F0833009
S1133D1009F0A4C007C080E0DF91CF911F910F91FB
S1133D200C94061EC0914701D09148010E9488025C
S1133D30811194C000E010E0980140E050E0BA0125
S1133D40CE010E94CF128AC08091CD039091CE0300
S1133D50A091CF03B091D0034FB7F89420913D01C7
S1133D6030913E012330310519F02430310511F032
S1133D704FBF74C023E030E030933E0120933D01F7
S1133D804FBF8093A7019093A801A093A901B0937A
S1133D90AA018DEA80937A03DF91CF911F910F914D
S1133DA00C947B10FF2351F180911D0881508230C7
S1133DB020F476956795579547950091D50710910E
S1133DC0D6072091D7073091D807DB01CA0188278D
S1133DD09927AA27BC7F892B8A2B8B2B79F4DB01AB
S1133DE0CA0180239123A223B323892B8A2B8B2BF3
S1133DF029F0440F551F661F771FE7CF80911D08D8
S1133E008150823068F48091C3049091C4049093EB
S1133E1096038093950365E973E080E50E94230B84
S1133E20E0914701F0914801309751F080819181F0
S1133E300E94080480914701909148010E94250442
S1133E40109248011092470180E00E946F0288237B
S1133E5019F080E00E94070E10924601DF91CF9185
S1133E601F910F910895CF93DF9381E00E946F0219
S1133E70882309F440C185E00E946F02811149C082
S1133E808091940490919504009721F061EF70E083
S1133E900E946B1D8091A3049091A404009721F0CB
S1133EA061EF70E00E946B1D8091860790918707F7
S1133EB0009769F090937E0180937D0181EF90E0FB
S1133EC090937F0780937E0780E10E940002109206
S1133ED08707109286071092A4041092A3041092EC
S1133EE095041092940480919B0390919C03A0915B
S1133EF09D03B0919E038093930190939401A093AA
S1133F009501B093960187E00E94B20188E00E9477
S1133F10B2018091E70682608093E70680914101B7
S1133F20882351F00E94BB0541EF50E0BC01FC0125
S1133F3080850E94BF1CF2CF8091E7068D7F80931D
S1133F40E70680914601882329F081E08093DB070E
S1133F500E94401E0E942D0560938B038EE996E01B
S1133F6090933206809331061092370687EF92E0E1
S1133F709093340680933306109238068BE491E0D4
S1133F8090933606809335061092E0011092DF017B
S1133F90109296041092D0081092BD0310928D01D5
S1133FA01092A20110927D07109297041092BA0702
S1133FB01092AD011092ED018FE08093EA07809199
S1133FC0E1048D7F8093E10482E00E94B20180913C
S1133FD0EA048D7F8093EA048FEF8093C5081092E2
S1133FE0EB021092F202ECEBF6E08083349696E05A
S1133FF0E83DF907D1F78FEF8093DA011092F001D1
S11340001092CA0310923C0610923B068091F3046E
S11340108D7F8093F304CFE7D1E0E991F991309754
S113402031F041EF50E0BF0180850E94651AE1E064
S1134030CD38DE0791F7EFE7F1E01192119281E0BC
S1134040ED38F807D1F71092C3081092C208109205
S1134050BE041092E4061092DC078CE591E0909384
S11340602606809325068BEE97E090932A0680938C
S113407029068CED97E090932806809327061092EA
S11340802C0610922D0680913F01882329F00E946E
S1134090D5050E942504F7CF8091BB039091BC0302
S11340A0009721F00E94430C10928D0110927E0122
S11340B010927D0110925A01109259011092BC0382
S11340C01092BB031092BF0481E090E09093B5037B
S11340D08093B40380915801811110925801109279
S11340E0EE018091FC048D7F8093FC0481E0DF91DC
S11340F0CF910C940002DF91CF91089540918C03ED
S113410080914601811102C00C94070E80911D0814
S1134110823081F18330D1F1813009F082C0E091A5
S11341204701F0914801A081B18193E011969C93DD
S1134130A081B18198E012969C93A081B1811396DD
S11341404C934F5F40938C03A081B1819FEF1496F1
S11341509C93A081B18115969C93A081B181169600
S11341609C93A081B18117969C9397E0968390933A
S1134170200887838FEF9FEF909396038093950396
S113418065E973E080E50E94230B4BC050919203D4
S113419020EC33E0529FC001539F900D1124AA27B5
S11341A097FDA095BA2F8093CD039093CE03A0934F
S11341B0CF03B093D003E0914701F0914801A0816F
S11341C0B18183E411968C93A081B18188EC12961D
S11341D08C93A081B18113964C934F5F40938C03D1
S11341E0A081B1818FEF14968C93A081B181159633
S11341F08C93A081B18116968C93A081B18117967E
S11342008C938081918108960E94D811E091470196
S1134210F09148018FE0868386E08093200881E056
S113422087830C94401E8091B4039091B503029748
S113423019F482E00C94061E8FE00C9400021F9384
S1134240CF93DF931F92CDB7DEB790910D019530D8
S113425021F489830E948E1889811FB7F894909164
S1134260490191110BC091E0909349018093D901C8
S113427082E00E9400021FBF80E017C0E82FE6958D
S1134280E695E695F0E0E253FB4F9081877021E0DC
S113429030E001C0220F8A95EAF7892F822319F4AE
S11342A0292B208301C085E01FBF0F90DF91CF91A0
S11342B01F9108950E945E030E94370D0E944D16BF
S11342C01092A6010E94821184E090E090933E0136
S11342D080933D010E948802823081F028F4882373
S11342E041F0813041F00895833051F0853051F030
S11342F008950C94EF0580E00C9400020C941321B3
S11343000C9478161092C7080C948E18CF931092C0
S1134310DC01483048F4463068F5442341F041302C
S1134320C1F521EE30E021C04B3031F032C01092A3
S1134330C1081092C0082DC02091C808222399F00A
S113434010928D0430911F0830938C0430913E06F6
S113435030938B043091CB0330938A042150209303
S1134360C808C0E017C029EE30E03093C10820939C
S1134370C0080FC081E08093DC017093A1016093B9
S1134380A0011092C70887E00E947F0281113EC0FD
S11343903AC0C1E0209186073091870782179307BE
S11343A0F9F40E94A802CC2329F08091C0089091CE
S11343B0C10802C081EE90E0209186073091870702
S11343C030937E0120937D0190937F0780937E0735
S11343D080E10E940002109287071092860711C0A4
S11343E0CC2379F080919404909195049093A40443
S11343F08093A30410929504109294048BE00E947D
S113440000021092C708CF910C948E18CF91089592
S1134410EF92FF920F931F93CF93DF931F92CDB729
S1134420DEB700913D0110913E01E090E206F0906C
S1134430E3060E94370D0E944D161092A6010E94B9
S11344405E030E94821184E090E090933E01809389
S11344503D010F30110509F0DCC00E948802882359
S113446019F0833059F0EFC080E00F90DF91CF91C5
S11344701F910F91FF90EF900C94061ED701149694
S11344808D919C9115970E94BB010091900410910D
S1134490910420919204309193046F3FBFEF7B0706
S11344A08B079B07E9F06093B6047093B70480937D
S11344B0B8049093B9040093E8011093E9012093A0
S11344C0EA013093EB01D7011296ED91FC91139719
S11344D0828187708093ED01811123C041E025C062
S11344E08091E8019091E901A091EA01B091EB017A
S11344F0800F911FA21FB31F8093E8019093E901DD
S1134500A093EA01B093EB0183E00E941F2183E0B2
S11345100F90DF91CF911F910F91FF90EF900C942A
S1134520070E482F440F480F4E5F81818F708F5FB5
S11345308093AD01808182958F700CE310E020E0C0
S113454030E004C0000F111F221F331F8A95D2F7D9
S11345500093E8061093E9062093EA063093EB06ED
S1134560D7018D919C91DC0111968C9184FF04C03C
S113457081E08093B60302C01092B60350E0BF01FD
S11345806E5F7F4F8AEB97E00E94833AD7011296C1
S1134590ED91FC911397818184FF26C016968C912E
S11345A0169717962C9130E0280F311DC9010796F4
S11345B0880F991F2131310514F0889601C00C969B
S11345C09093AC018093AB012091C5048091AB0121
S11345D09091AC01B4E12B9F800D911D1124909317
S11345E0AC018093AB0104C01092AC011092AB01FA
S11345F083E00E941F2164E083E00E947F1787E02C
S11346000F90DF91CF911F910F91FF90EF900C9439
S1134610000201311105B9F440919C010091D907C0
S11346201091DA0749830E9488024981853059F440
S1134630B801C7010F90DF91CF911F910F91FF90A7
S1134640EF900C9486210F90DF91CF911F910F91E1
S1134650FF90EF9008958093920160939C010E94D3
S11346604F0C811102C00C94CF0B0C9408228F9232
S11346709F92AF92BF92CF92DF92EF92FF92CF932D
S1134680DF938091C408882339F0C091D907D09171
S1134690DA071092C40818C0E091A401F091A501B2
S11346A0C0810E942D052FEF3FEF02C0220F331F60
S11346B0CA95E2F7209530952623372384E1829F1B
S11346C0E001839FD00D11240E944F026B017C01F5
S11346D0BE0180E090E0CC0CDD1CEE1CFF1CC60E7D
S11346E0D71EE81EF91E8090F3029090F402A09069
S11346F0F502B090F602C818D908EA08FB088090C1
S11347008E0190908F01A0909001B09091018C1433
S11347109D04AE04BF0438F4C091E206D091E306D0
S1134720209799F448C02EE030E030933E01209366
S11347303D01DF91CF91FF90EF90DF90CF90BF903C
S1134740AF909F908F900C9481141092A6010E94B8
S11347505E030E94821184E090E090933E01809376
S11347603D010E948802853031F5C701B601681900
S113477079098A099B094B015C0124E1820E911C91
S1134780A11CB11C24E130E040E050E00E94093A51
S1134790861A970AA80AB90A47E0B401CE01DF9144
S11347A0CF91FF90EF90DF90CF90BF90AF909F900C
S11347B08F900C948621DF91CF91FF90EF90DF9042
S11347C0CF90BF90AF909F908F9008950F931F93B9
S11347D0CF93DF93EC018B018091E60386FF2AC11E
S11347E08F7B8F3309F0B0C1C0914006D091410650
S11347F028812093D6018091D4019091D5018430F1
S1134800910579F118F4039749F003C185309105B6
S113481009F451C0069709F469C0FBC084E090E034
S11348209093D5018093D40130E080919D0190E074
S11348302817390734F0DF91CF911F910F910C9411
S1134840BD11B79903C00E9B0E94BD118091D60182
S113485084508C3880F7BE016F5F7F4F43E050E097
S113486022C06A81898183FDE6CF47E951E00E9435
S1134870E4078111E0CF409197018091D60190E047
S11348800197242F30E028173907ACF6443098F00C
S113489085E090E09093D5018093D401435050E09B
S11348A0BE016C5F7F4F80E090E0DF91CF911F915C
S11348B00F910C94A00D4091D60120919701842F63
S11348C090E0821B9109893791050CF0B4CF86E002
S11348D090E09093D5018093D401421B50E0609105
S11348E0400670914106685E7F4FDDCF0E94CE0185
S11348F08091E201811102C00E948B11309119084C
S1134900C0914006D09141062091D601332349F14C
S11349102530C0F18091210890E0FC01EE0FFF1FCB
S1134920EE0FFF1FE950F84F70816181528143817E
S1134930DE01AF56BF4F7C93DE01A057BF4F6C938F
S1134940DE01A157BF4F5C93DE01A257BF4F4C93CA
S11349500196877099278093210831503093190864
S113496011C08FEFDE01AF56BF4F8C93DE01A0570D
S1134970BF4F8C93DE01A157BF4F8C93DE01A2572A
S1134980BF4F8C93E22FF0E080919701E81BF1096F
S1134990EC0FFD1F878987FF36C0012BA1F18981A8
S11349A08770823029F580913601909137010697FE
S11349B0D9F4E091B204F091B3040190F081E02DB8
S11349C093818B81981310C00E94D001898121E0CA
S11349D030E0309337012093360160E08295817096
S11349E00E942B230E94F0108091AF04882359F079
S11349F08091A104811107C08AE1DF91CF911F91B9
S1134A000F910C940002DF91CF911F910F910C94A0
S1134A108E111092EC020E94CE010E948B118091A3
S1134A20A104882309F490C0DF91CF911F910F91C5
S1134A300C94FA078E3309F087C00E94CE01E091EE
S1134A40B204F091B30480819181C817D90759F455
S1134A500E94CA01E091B204F091B3048081918173
S1134A60668101960DC00196C817D90779F40E9492
S1134A70CA01E091B204F091B30467818281938109
S1134A80DF91CF911F910F910C94DD0D83E090E0A5
S1134A90909337018093360180913D0190913E01BE
S1134AA08A30910509F444C08B30910509F446C05D
S1134AB0099709F049C08CE090E090933E018093FF
S1134AC03D0120918E0130918F01409190015091D0
S1134AD09101211531054105510579F48FE090E0EC
S1134AE090933E0180933D0180E00E94D80CDF91B9
S1134AF0CF911F910F910C9417168091F30290910E
S1134B00F402A091F502B091F602E0913401E111B2
S1134B101BC0E2E0E0933401BC01CD016051710996
S1134B2081099109DF91CF911F910F910C94580C39
S1134B30DF91CF911F910F910C94AF14DF91CF911E
S1134B401F910F910C943723DF91CF911F910F91F7
S1134B5008954F925F926F927F928F929F92AF923D
S1134B60BF92CF92DF92EF92FF920F931F93CF9356
S1134B70DF93CDB7DEB768970FB6F894DEBF0FBEEC
S1134B80CDBFE0EDF4E020E030E0108511FFE8C196
S1134B904080518062807380C480D580E680F78035
S1134BA04B015C0184189508A608B7088C149D0471
S1134BB0AE04BF0408F4D4C110FF03C01D7F1087E6
S1134BC00AC0D301C2018C0D9D1DAE1DBF1D808383
S1134BD09183A283B3832230B1F018F4213081F0A1
S1134BE006C0233009F4C1C0243009F473C180E045
S1134BF00E946F02882309F4BAC10E940F0CB7C146
S1134C000E94C408B4C18091F202882309F4AFC1A0
S1134C101091EB02123039F4909193038091940334
S1134C20998B8A8B1BC02091A3033091A4034091DC
S1134C30A5035091A6036091A7037091A8038091E6
S1134C40A9039091AA03FE017196DE01599621935E
S1134C5008E00E944C3AEA17FB07C9F74090950315
S1134C60509096030E9442044C01009709F478C0C6
S1134C700E9461043C01009709F46FC0D4011196AD
S1134C809C938E93489615969C938E93149781E0EB
S1134C9019968C93E0909503F0909603123019F4D2
S1134CA042E050E002C048E050E0BE016F5E7F4F3A
S1134CB0CE0101960E94833AD401ED91FC91123009
S1134CC010F483E204C04E145F04D9F783E68183B1
S1134CD0812F880F880F806C82838091C604898716
S1134CE08091C7048A878091C8048B878091C90406
S1134CF08C878091CA048D878091CB048E878091A4
S1134D00CC048F878091CD04888BA180A6FAAA2435
S1134D10A0F8F401808191819E01275F3F4F6901D2
S1134D2003E09E012F5F3F4FA201612F01960E9475
S1134D306915D40116968C9316978CE091E013961E
S1134D409C938E93129781E017968C93179786E025
S1134D5018968C93C3010E940804C4010E94250480
S1134D600E94D51A0E94D51A02C10E944F022B013B
S1134D703C01440C551C661C771C80918A038F30BF
S1134D8070F421E030E002C0220F331F8A95E2F76D
S1134D90A0ECB3E00E94EF399B01AC0104C020EC0D
S1134DA033E040E050E0A0919903B0919A030E944F
S1134DB0FE396B017C010FE711E0812C912C540129
S1134DC0D801ED91FC91309709F44DC08091C2084F
S1134DD09091C308E817F90709F445C084819581C7
S1134DE00E94BB01A70196010E94120CD801ED910B
S1134DF0FC911197882331F180858F7780871D92EC
S1134E001C929091BE0491509093BE04A081B181F4
S1134E1012969C919C70983031F49091E4069150D4
S1134E209093E40607C09C3029F49091DC079150DC
S1134E309093DC0740EF50E0BF010E94651A0E9486
S1134E40BB0811C0848195810E94BB01A30192011A
S1134E50261B370B480B590B82169306A406B5067E
S1134E6010F449015A010E5F1F4F31E00D3813074A
S1134E7009F0A6CF81149104A104B10409F477C008
S1134E80C814D904EA04FB0410F446015701C818F5
S1134E90D908EA08FB080E944F02660F771F881F93
S1134EA0991F6093EB047093EC048093ED0490934A
S1134EB0EE04C092EF04D092F004E092F104F09278
S1134EC0F2048091F304816082608093F3040E9471
S1134ED037024DC08091EE01811138C081E080938A
S1134EE0EE018091D1079091D207A091D307B091A0
S1134EF0D4074091AE035091AF036091B003709119
S1134F00B103840F951FA61FB71F4091C60350918C
S1134F10C7036091C8037091C9034093F40450938C
S1134F20F5046093F6047093F7048093F804909367
S1134F30F904A093FA04B093FB048091FC0481600B
S1134F4082608093FC040E94370207C01092EE0135
S1134F50809158018111109258010E948E1807C047
S1134F602F5F3F4F39962530310509F00ECE0E9450
S1134F70370268960FB6F894DEBF0FBECDBFDF913F
S1134F80CF911F910F91FF90EF90DF90CF90BF9042
S1134F90AF909F908F907F906F905F904F90089507
S1134FA04F925F926F927F928F929F92AF92BF9235
S1134FB0CF92DF92EF92FF920F931F93CF93DF93E1
S1134FC0CDB7DEB762970FB6F894DEBF0FBECDBF84
S1134FD090E08632910510F00C949531FC01E15B70
S1134FE0FF4F0C942B3A2FB7F89480913D01909188
S1134FF03E01009711F42FBF07C4049709F0AAC318
S113500081E090E019C08091D50881508093D50843
S1135010882319F081E00C946A312FB7F8948091B9
S11350203D0190913E018430910509F493C3892B8D
S113503009F090C382E090E090933E0180933D019B
S11350402FBF0E947B100C9495318FB7F8949091E8
S1135050D90190930D0192E0909349018FBF809103
S11350600D01813089F038F08230C1F0833009F4C9
S1135070EEC00C94953180E00E94950281118FC09E
S11350800E940F0C0C94953181E00E94EB0B882355
S113509011F40C94953180E00C946A319FB7F89424
S11350A081E0809380071092E1018093AF04109215
S11350B0B3039FBF82E00E949502882321F00E94DF
S11350C013210C94953182E00E94EB0B0C949531E2
S11350D08091C2089091C308892B11F00C949531EA
S11350E08091BE04882311F40C949531EFE7F1E02C
S11350F081919191009709F1DC0118962C911897F0
S113510027FF1BC09093C3088093C20820935B01C0
S113511027E018962C932091E70621FF07C01092F0
S1135120C3081092C20883E00C946A310E94AC0B4D
S1135130892B11F40C949531F2CFB1E0ED38FB07D3
S1135140B9F60C949531C090CD03D090CE03E09085
S1135150CF03F090D0030E944F02660F771F881F81
S1135160991F6093D0047093D1048093D2049093D8
S1135170D304C092D404D092D504E092D604F09221
S1135180D7048091D804816082608093D8040E94FF
S113519037020C9495310E94401E0C9495310E9464
S11351A07E200C949531E0913106F0913206838192
S11351B080938B0383818F5F83834091B6045091E6
S11351C0B7046091B8047091B90440939F0350935D
S11351D0A0036093A1037093A20380919004909123
S11351E09104A0919204B0919304853CE9E09E0758
S11351F0A105B10528F0845C9940A109B10903C057
S113520080E090E0DC014093D9045093DA04609389
S1135210DB047093DC048093DD049093DE04A0939C
S1135220DF04B093E0048091E104816082608093A4
S1135230E1040E94370280918D0182FF03C08B7FBD
S113524080938D011092D008D9980C9495310E94C6
S1135250AF1C0C9495318091E70680FF02C00C943A
S1135260953180914101882311F40C949531E0919A
S11352704301F0E0EE0FFF1FE857F84F0081118162
S1135280D80116968C91811105C00E94BB058AE055
S11352900E940002F80180858093A2042091E70611
S11352A0822F81608093E706809194049091950405
S11352B0892B11F00C948D31C8010E9491195BC0A7
S11352C08091A3049091A4046091C0087091C108D6
S11352D0109245011092A4041092A304009709F4BB
S11352E04AC00E946B1D47C000919404109195041C
S11352F080918607909187070097D9F14091B6066F
S11353005091B7066091B8067091B906C0908A04AE
S1135310D0908B04E0908C04F0908D04CF82D886DA
S1135320E986FA8649835A836B837C831E830D83C3
S11353302AE0FE013196A9EDB3E001900D922A9581
S1135340E1F70E9491190115110599F0E091860782
S1135350F09187070190F081E02D8381D8012D9190
S11353603C91D90113969C919383D801ED91FC91C2
S113537083831092C7080E948E180C9495318091F3
S1135380EE01882311F40C949531809158018823FF
S113539011F40C94953110925801C7C783E090E042
S11353A09093B5038093B403C0C79FB7F89481E08A
S11353B0809380078093E1011092AF048093B3033C
S11353C09FBF81E090E09093B5038093B40382E0A3
S11353D00E94070EAAC78091BF04882309F4A5C7B9
S11353E080917D0190917E012091BB033091BC039B
S11353F082179307B9F41092BC031092BB03009177
S11354007E0710917F070E94430C012B41F40E94F8
S1135410EC1A80918D01877F80938D0128C01092B2
S11354208D0125C02091590130915A0182179307AB
S1135430F1F40E94D50580913F01811105C01092BD
S11354405A01109259010DC0E0914001F0E0EE0FB5
S1135450FF1FEE57FB4F8081918190935A018093F7
S1135460590180917D0190917E010E942504109242
S1135470BF045BC7CE0101960E94620E811107C072
S1135480898190917A03981714F480937A03209178
S1135490A7013091A8014091A9015091AA016091FE
S11354A0E2077091E3078091E4079091E5070E9479
S11354B0120C882309F472C180917A038D5280936F
S11354C07A030E94370D0E944D160E94821184E0D7
S11354D090E090933E0180933D0190917A038091F6
S11354E07401882369F0E0912508F09126088091E1
S11354F0E60621E0280F2093E606E80FF11D9083CD
S11355009091E60680917401981303C081E0809322
S1135510DB070E940F0C893009F007C70E94EF05D2
S113552004C78FB7F894909190078FBF8FB7F89402
S113553021E020938007909390078FBF0E94571219
S11355400E94821184E090E090933E0180933D019B
S113555081E00E946F02882309F4E7C680913D062A
S113556081110E94FB0564E873E080E00E94230B34
S113557067E973E083E50E94230B65E973E080E546
S11355800E94230B66E873E083E00E94230B65E826
S113559073E082E00E94230B63E873E080EF0E94D3
S11355A0230B81E00E94070E8CE28093850365E85B
S11355B073E082E00E94230B81E393E490939803C9
S11355C08093970367E973E083E50E94230B1092AD
S11355D07B030E9408088091970390919803019699
S11355E009F4A3C680918D01857009F09EC682E7F7
S11355F091E89093AE048093AD048AE180935101C5
S11356001092750110927601109277011092780130
S113561085E08093BA068093F60791E09093AD03FA
S11356201092DD0180938D018091EA078F3009F09B
S11356307CC683E00E941F2178C680913D01909131
S11356403E018830910531F008F46FC60F97039737
S113565038F06BC680E00E94F00F8111F2CCD7C005
S11356600E944F0C8111A2C080E00E94F00F882399
S113567009F49CC0E6CC80E00E94F00F81110FC0B9
S11356800E94571280913D0190913E01079721F4A9
S11356900E94370D0E94BE0C0E94821146C684E10E
S11356A019C68FB7F89490913A019111D4C58FBF60
S11356B010B316FB112710F98091D8039091E303DE
S11356C0981721F1181322C084E090E090933C01D4
S11356D080933B018FB7F89491E090933A018FBF88
S11356E00E94CE010E94CA0160E070E08DE10E9438
S11356F09A0E0E94F9110E94CE010E94370D0E9459
S11357004D161092A60182E10E9400021093E30359
S113571085E1E0C59FB7F89480910B019FBF882372
S113572021F0813009F476C000C6E0913D01F0918A
S11357303E013197E131F10508F0F7C5EB58FF4F11
S11357400C942B3A2FB7F89480913B0190913C0133
S1135750892B11F02FBFE9C581E090E090933C01C3
S113576080933B012FBFDD9A44E150E060E070E09C
S113577080E00E94A310D9C50E9457120E94BE0C5B
S11357800E944F02660F771F881F991F6093E207DC
S11357907093E3078093E4079093E50781E19AC54A
S11357A00E94BE1DC2C50E948A12BFC50E94082263
S11357B0BCC50E94370D0E944D161FB7F894809106
S11357C03B0190913C01049779F482E090E090933E
S11357D03C0180933B010E94CE010E94CA0187E0F4
S11357E00E94B70C0E94CE011FBF10923C01109280
S11357F03B01DE98DD98DE9A1092A6010E94821188
S113580010923E0110923D010E94331F8EC50E94EA
S11358105A218BC51FB7F8948091D4019091D5017A
S1135820892B09F416C40E94BA0D13C41FB7F89447
S113583060912F0670913006809127089091280876
S11358401092300610922F06109228081092270802
S113585010925701109256011092B1041092B004A4
S11358600E94E623F6C38FB7F8949091E3019093D6
S1135870080192E0909338018FBF80910801811153
S113588054C50E94CC010E94CA0186E123C50E942E
S11358908B118FB7F8941092D5011092D4018FBF59
S11358A083E118C5E0914006F09141062081225021
S11358B080919701281B8FB7F8948FBF8090400682
S11358C090904106822F90E0D401A80FB91F5996F9
S11358D03C913F77D4013C93A80FB91F58968C9103
S11358E0DF01AE56BF4F8C93D4018C91ED56FF4F20
S11358F080832C9380913D0190913E01079709F09C
S1135900E3C212968C91807390E041973CF08091B1
S1135910B4039091B503039709F0D6C2F4018181D1
S113592083FF07C08091B4039091B503039709F0F6
S1135930CBC20E948802853009F467C130F4882301
S113594059F0823009F455C1BFC2863009F4B9C296
S11359508A3009F4B6C2B8C280914601882309F49A
S1135960B3C280911D08833009F04BC08091E606D4
S11359708111AAC2D40111968C911197877083303A
S113598009F0A2C258968C915897883009F09CC2AD
S11359905A968C915A9790E0982F882759962C9173
S11359A0822B909396038093950365E973E080E5D9
S11359B00E94230BF401848D90E0982F8827238D77
S11359C0822B9093940380939303858D0E94AE1A47
S11359D0D4015F968C915F9790E0982F88275E960C
S11359E02C91822B909398038093970367E973E03B
S11359F083E50E94230B8091E6068F5F8093E60681
S1135A0010C0F4018181877009F05EC280917C032B
S1135A10882309F459C28091E6069091740189178C
S1135A2058F081E08093DB078091D8048D7F8093C8
S1135A30D8040E940F0C48C2009125081091260832
S1135A40F2E28F9F000D111D1124F090D806D401AD
S1135A5012968C911297982F9078903809F034C24E
S1135A608295869586958370F801808315968C912E
S1135A70159790E0982F882714962C911497822BD1
S1135A809283818312968C911297807C803861F482
S1135A9017968C91179790E0982F882716962C913B
S1135AA0822B9483838307C0B4016A5F7F4FC8014C
S1135AB003960E94D314D8011B96FC921B971C9644
S1135AC01C921C97F401808D1D968C931D97818DDB
S1135AD01E968C931E97828D881F8827881F1F9679
S1135AE08C931F97ED56FF4F808150968C93C40181
S1135AF082579F4F0E94BB01D80151966D937D93AD
S1135B008D939C93549756961C921E925597579634
S1135B101C92579758961C92589759961C925997CD
S1135B205A961C925A975B961C925B975C961C92B1
S1135B305C975D961C925D975E961C925E975F964D
S1135B401C925F9790961C92909791961C92E0916C
S1135B502508F09126087090E606DF0122E2729E85
S1135B60A00DB11D1124612C671409F4DAC321813D
S1135B70328111968D919C91129728173907B1F5AE
S1135B8080819C91891332C0823051F42381348105
S1135B9013968D919C9114972817390739F594C160
S1135BA0833021F523813481458156816781708555
S1135BB01396AC9013971496BC9014971596CC90AA
S1135BC015971696DC9016971796EC9017971896DB
S1135BD0FC90189719960C9119971A961C911A977C
S1135BE0818592850E947A3A09F46EC16394B296D3
S1135BF0BBCF8091B4039091B503039709F064C1BE
S1135C00D4018C9180688C935CC1F401818187708C
S1135C10833011F4808D8D5F1FB7F894863089F03E
S1135C2030F4813051F0843009F43AC148C18730EE
S1135C3059F0893009F434C142C10E94DC0F4C018F
S1135C403EC1F40182812FC1D40112962C91B22F4E
S1135C50B07CDB2EB7FF33C1322F3C70C4010496F5
S1135C60383019F4C401089604C03C3011F4C4015E
S1135C700E96F401318136FF01C023FF0296BFE77F
S1135C806B2EB1E07B2EE0E0F0E0ED2CF12CD301A3
S1135C902D913D913D0121153105A9F1D9014D9178
S1135CA05C91DA0112966C916C70B0E16B9FB0015B
S1135CB011246E157F0539F54A5F5F4FA0E8CA2E9F
S1135CC0DC1003C072E0C72E02C068E0C62EBC011F
S1135CD000E0DA01AD90AD01DB01BD90BD01AB1078
S1135CE003C00F5F0C15A8F30C110DC0309751F0D1
