S01800006275696C642F6D6963617A2F6D61696E2E73726563E5
S11300000C9491010C9491340C949B340C94A5346D
S11300100C94AF340C94B9340C94C3340C94CD3494
S11300200C9401350C94B0010C94B0010C9466331B
S11300300C9457310C94BE310C9474340C940731E5
S11300400C942F310C940B350C9472350C94B00134
S11300500C94DF350C94B0010C94B0010C94B001F5
S11300600C945C320C9418370C94F7360C940237C9
S11300700C940D370C942B370C94DB360C94B00194
S11300800C94EC360C94B0010C94B00197139A13B1
S11300909D13A013A313A613B11339143C14F32511
S11300A00326242669269326A026A426A8266528A6
S11300B0692820293329382945294C296229A3296B
S11300C0FA29402A5E2A742AAD2A382B562B6A2B29
S11300D0752BDC2D232E972EBB2ECA2E882F992FFD
S11300E09C2F9F2FDA2FD22FFA2FFC2AC52ADF2A22
S11300F0E930F32AE930E9302A2BF62AF62AF62ADF
S1130100E930E930E930F92AF92AF92A3B3646364A
S11301105B36A436AB36B236B936C03600081C1886
S1130120141000002110422063308440A550C660A2
S1130130E770088129914AA16BB18CC1ADD1CEE1A0
S1130140EFF13112100273325222B5529442F77217
S1130150D662399318837BB35AA3BDD39CC3FFF3F0
S1130160DEE36224433420040114E664C774A44427
S113017085546AA54BB528850995EEE5CFF5ACC540
S11301808DD55336722611163006D776F6669556F7
S1130190B4465BB77AA719973887DFF7FEE79DD790
S11301A0BCC7C448E5588668A77840086118022887
S11301B02338CCC9EDD98EE9AFF9488969990AA9E0
S11301C02BB9F55AD44AB77A966A711A500A333A57
S11301D0122AFDDBDCCBBFFB9EEB799B588B3BBB30
S11301E01AABA66C877CE44CC55C222C033C600CE7
S11301F0411CAEED8FFDECCDCDDD2AAD0BBD688D80
S1130200499D977EB66ED55EF44E133E322E511E36
S1130210700E9FFFBEEFDDDFFCCF1BBF3AAF599FCF
S1130220788F8891A981CAB1EBA10CD12DC14EF16F
S11302306FE18010A100C230E320045025404670D5
S11302406760B9839893FBA3DAB33DC31CD37FE300
S11302505EF3B1029012F322D23235421452776225
S11302605672EAB5CBA5A89589856EF54FE52CD5D0
S11302700DC5E234C324A014810466744764245475
S11302800544DBA7FAB79987B8975FE77EF71DC7E0
S11302903CD7D326F2369106B016576676761546C5
S11302A034564CD96DC90EF92FE9C899E9898AB930
S11302B0ABA94458654806782768C018E108823815
S11302C0A3287DCB5CDB3FEB1EFBF98BD89BBBAB40
S11302D09ABB754A545A376A167AF10AD01AB32A65
S11302E0923A2EFD0FED6CDD4DCDAABD8BADE89D90
S11302F0C98D267C076C645C454CA23C832CE01CB5
S1130300C10C1FEF3EFF5DCF7CDF9BAFBABFD98F1F
S1130310F89F176E367E554E745E932EB23ED10E04
S1130320F01E11241FBECFEFD0E1DEBFCDBF11E020
S1130330A0E0B1E0ECE2F4E700E00BBF02C00790FC
S11303400D92A433B107D9F719E0A4E3B1E001C0D9
S11303501D92A937B107E1F70E9461370C94143A52
S11303600C940000D99A08959FB7F894E82FF0E010
S1130370E950F84F10829FBF0895FC0120816181EC
S1130380862F90E0A0E0B0E077276627922B2381A8
S1130390622B2281722B0895C0980895B89A08950B
S11303A0C09A08959FB7F8948BB321E082278BBB42
S11303B09FBF089587B78F7E87BF08958C709091F3
S11303C06B01937F892B80936B01089510925208DF
S11303D01092510884E0809387031092680710926A
S11303E06708109294031092500510924F050895D7
S11303F080918E088F3F71F0E82FF0E0EC54FE4FAF
S1130400908190938E089F3F11F4909367099FEF1A
S1130410908308958FEF089583B783BF00B600FCDF
S1130420FDCF0895309135053323C1F02091D603D3
S1130430E22FF0E0EE0FFF1FE759F84F8081918122
S1130440118210823150309335052F5F243019F01A
S11304502093D60308951092D603089580E090E087
S113046008950F931F938FB7F89460914D05709181
S11304704E050CB51DB506B602FE04C06F5F7F4F76
S11304800CB51DB58FBFCB01A0E0B0E07727662780
S113049020E030E0602B712B822B932B1F910F9166
S11304A008959FB7F894E82FF0E0EC54FE4F2081B4
S11304B02F3FC9F421E030E0E0916709E81711F01B
S11304C020E030E0232B79F420918E082F3F19F49B
S11304D080938E0804C0F0E0EC54FE4F8083809338
S11304E0670980E001C085E09FBF08958AE10C940C
S11304F05102409135054430B8F45091D603242F6D
S113050030E0250F311D2430310510F0245031091D
S1130510F901EE0FFF1FE759F84F918380834F5F76
S11305204093350580E0089581E00895CF93CFB7D7
S1130530F89480913609811108C08EE10E9451021D
S1130540811103C081E080933609CFBFCF91089514
S113055080912E078A3021F480918703843021F022
S113056081E080934901089580E20E945102109233
S1130570490108959FB7F89420910F01281307C0EB
S113058080915F01823019F49FBF81E008959FBF7D
S113059080E008959FB7F894E82FF0E0E950F84F11
S11305A080819FBF08959FB7F89480915F01823046
S11305B019F09FBF8FEF089580910F019FBF089599
S11305C0CF93C82F0E94D302C8130AC081E02091A0
S11305D05301309154012430310519F080E001C0F9
S11305E085E0CF910895CF92DF92EF92FF920F931F
S11305F01F930E943102C0906101D0906201E0908B
S11306006301F09064010091EC011091ED012091DF
S1130610EE013091EF010C0D1D1D2E1D3F1D6C15BB
S11306207D058E059F0530F00C151D052E053F0533
S113063058F005C00C151D052E053F0590F56017F3
S113064071078207930768F568017901C61AD70A0A
S1130650E80AF90A41E0C41640E8D406E104F104CA
S113066018F18B019C0110582F4F3F4F00936101EB
S11306701093620120936301309364019701860112
S11306801058210931090093EC011093ED012093D6
S1130690EE013093EF01C12CE0E8DE2EE12CF12CC9
S11306A013C0C12CD12C7601009361011093620117
S11306B020936301309364011092EC011092ED01D8
S11306C01092EE011092EF014CB55DB54D5F5F4F96
S11306D09A01261B370B2C153D0518F4AB014C0D64
S11306E05D1D4115510511F441E050E0415051099F
S11306F059BD48BD88E086BF87B7886087BF1F9112
S11307000F91FF90EF90DF90CF900895CF93CFB7E4
S1130710F89410924D0110924C010E94DA0187B7AF
S11307208F7D87BF0E94D001CFBF80E0CF91089515
S1130730CF92DF92EF92FF920F931F930E943102A8
S1130740C0900C08D0900D08E0900E08F0900F08AF
S1130750009188031091890320918A0330918B03BF
S11307600C0D1D1D2E1D3F1D6C157D058E059F0551
S113077030F00C151D052E053F0558F005C00C156D
S11307801D052E053F0590F5601771078207930735
S113079068F568017901C61AD70AE80AF90A41E03E
S11307A0C41640E8D406E104F10418F18B019C015D
S11307B010582F4F3F4F00930C0810930D082093AF
S11307C00E0830930F08970186011058210931094A
S11307D0009388031093890320938A0330938B0337
S11307E0C12CF0E8DF2EE12CF12C13C0C12CD12C4C
S11307F0760100930C0810930D0820930E08309393
S11308000F08109288031092890310928A031092A1
S11308108B034CB55DB54D5F5F4F9A01261B370BBB
S11308202C153D0518F4AB014C0D5D1D411551050A
S113083011F441E050E04150510950937900409344
S1130840780081E080937C0080917D0081608093BA
S11308507D001F910F91FF90EF90DF90CF9008954E
S1130860409134054330B8F450919708242F30E078
S1130870250F311D2330310510F023503109F901C2
S1130880EE0FFF1FE859F64F918380834F5F40932B
S1130890340580E0089581E00895309134053323D0
S11308A0C1F020919708E22FF0E0EE0FFF1FE85906
S11308B0F64F80819181118210823150309334053A
S11308C02F5F233019F0209397080895109297080A
S11308D0089580E090E008950F931F934FB7F89424
S11308E098E0899FF0011124E958F84F64817581DB
S11308F0868197810081118122813381600F711F6C
S1130900821F931F4FBF1F910F91089530915A0179
S1130910E32FF0E0EE0FFF1FE45CF74F808191813D
S113092020915801222359F03F5F343019F030935D
S11309305A0102C010925A0121502093580108957F
S1130940CF92DF92EF92FF920F931F930E94310296
S1130950C0908004D0908104E0908204F0908304DD
S11309600091DA031091DB032091DC033091DD0365
S11309700C0D1D1D2E1D3F1D6C157D058E059F053F
S113098030F00C151D052E053F0558F005C00C155B
S11309901D052E053F0590F5601771078207930723
S11309A068F568017901C61AD70AE80AF90A41E02C
S11309B0C41640E8D406E104F10418F18B019C014B
S11309C010582F4F3F4F00938004109381042093BD
S11309D08204309383049701860110582109310958
S11309E00093DA031093DB032093DC033093DD03DD
S11309F0C12C90E8D92EE12CF12C13C0C12CD12CA0
S1130A007601009380041093810420938204309330
S1130A1083041092DA031092DB031092DC03109229
S1130A20DD034CB55DB54D5F5F4F9A01261B370B57
S1130A302C153D0518F4AB014C0D5D1D41155105F8
S1130A4011F441E050E0415051095BBD4ABD80E1E1
S1130A5086BF87B7806187BF1F910F91FF90EF908A
S1130A60DF90CF9008952F923F924F925F926F92B2
S1130A707F928F929F92AF92BF92CF92DF92EF922A
S1130A80FF920F931F93EFB7F8948091D003909146
S1130A90D103A091D203B091D3031C012D019C0179
S1130AA0A20160E070E080E090E003E00E94B239CF
S1130AB051016201E12CF12C00E010E00E94F239B6
S1130AC059016A017B01F82F192F03E00E94B23902
S1130AD00F2F0E94F23959016A017B01F82F192F57
S1130AE003E00E94B2390F2F0E94F23959016A01C2
S1130AF07B01F82F192F03E00E94B2390F2F0E94B7
S1130B00F23959016A017B01F82F192F03E00E9481
S1130B10B2390F2F0E94F23901E00E94B239290143
S1130B203A0100E20E94CD3949015A01C301B201E0
S1130B309695879577956795680D791D8A1D9B1DF8
S1130B4097FF05C09F776F5F7F4F8F4F9F4F6093D5
S1130B50D0037093D1038093D2039093D303EFBF58
S1130B601F910F91FF90EF90DF90CF90BF90AF90C7
S1130B709F908F907F906F905F904F903F902F90B9
S1130B80089530915701E32FF0E0EE0FFF1FE85D69
S1130B90FA4F8081918120915501222359F03F5FC2
S1130BA0343019F03093570102C01092570121508C
S1130BB020935501089580916707811102C086E052
S1130BC004C08F5F8093670785E00C945102FF9205
S1130BD00F931F93CF93DF938AE180939F0380E861
S1130BE08093A00313E01093A1031092A203109228
S1130BF09C0310929603FF24F394F09297031092AF
S1130C00980386E08093A3031092A4030FE000935B
S1130C10A5031092BA031092BB031092BC03109266
S1130C20BD030E9433056093A603CFEFDFEFD0939B
S1130C30AF03C093AE030E9433056093A703F09201
S1130C40990385E08093AB0384E08093A803109319
S1130C50AC031093A903D093B103C093B0031092D3
S1130C609A0380E28093AD0310929B0310929D033C
S1130C70D093B303C093B2030093AA0384EF91E02B
S1130C809093B5038093B40310929E0382EC97E093
S1130C90A0E0B0E08093B6039093B703A093B803A9
S1130CA0B093B903DF91CF911F910F91FF900895F5
S1130CB0E2E2F1E06927660FF11DE60FF11DC89528
S1130CC0982F802D3196C8959025089590913D01D7
S1130CD02091480191112FC081112DC041E0409312
S1130CE03D018091060180933C01822F81708093A5
S1130CF0AA01809100019091010190933B0180939E
S1130D003A018091470180933901322F31703427A1
S1130D10267EE32FF0E0EE0FFF1FEE5FFE4F808193
S1130D2091819093010180930001232B209348012A
S1130D3083E20C94510220FF02C02B7F01C02D7F5F
S1130D40209348010895CF93DF93D82FC62F809125
S1130D508703813069F030F08230B9F1833009F4CF
S1130D6044C001C1DD2309F418C10E94E60112C187
S1130D70D11113C180914F05909150050E945806DE
S1130D809093500580934F0582E080938703C0932E
S1130D906708C43409F0E7C08091480180FF04C0AB
S1130DA082FDE1C0846003C081FDDDC08260809368
S1130DB0480180914801877E8860809348011092A1
S1130DC047018FEF80930601E8C0D111CCC0609336
S1130DD0940380914F05909150050E94580690937A
S1130DE0500580934F0583E0D6C0809168078F3FFC
S1130DF009F4B9C0DD2309F451C0823008F4B3C04A
S1130E00E0915108EE2311F0E15001C0E2E0AE2F71
S1130E10B0E0AF5AB74F12964C9150E0542F44278C
S1130E20EE2311F0E15001C0E2E0F0E0EF5AF74F99
S1130E308281482B20914F0530915005421753076A
S1130E4009F091C080E00E94660620919403E0912D
S1130E503E0530913F0581E08E0F863010F4982FC7
S1130E6001C090E0931769F0F0E0E25CFA4F22834E
S1130E70863018F480933E0502C010923E050E940D
S1130E8096020E94E601809138018D7F809338019B
S1130E9080914901882309F480C073C0823008F42A
S1130EA04DC0E0915208F0E0EF5AF74F22813091A3
S1130EB04801932F9695969596959370892F90E077
S1130EC08130910519F0029781F01FC0832F877E2E
S1130ED0806180934801211102C083E101C080E058
S1130EE0809347012093060110C080914701863901
S1130EF060F4E0910001F0910101E80FF11D2083FD
S1130F00809147018F5F8093470180915208E82FB9
S1130F10F0E0EF5AF74F62818F5F833018F48093CB
S1130F20520802C01092520880914F0590915005CA
S1130F300E9458069093500580934F058091510864
S1130F40E82FF0E0EF5AF74FC2838F5F833018F435
S1130F508093510802C010925108809168078F5FF6
S1130F60809368071AC00E94E601809138018D7F42
S1130F708093380181E00E946606809149018823AC
S1130F8039F084E080938703DF91CF910C94A80219
S1130F90DD2319F081E080938703DF91CF910895D9
S1130FA063FF04C062FD04C097E003C093E001C086
S1130FB09DE067FF07C086FF02C09E5F01C09C5F83
S1130FC066FD9A5FFA01908380E00895DF92EF92C4
S1130FD0FF920F931F93CF93DF93D22EE32EF42E21
S1130FE0D52FC62FB72FFC01A8E0019398014D2DF2
S1130FF05E2D6F2D7D2F8C2F9B2F08E00E94CD3905
S11310008901D42EE52EF62ED72FC82FB92FA15043
S113101061F7DF91CF911F910F91FF90EF90DF90D7
S1131020089580913A05882349F010923A05109268
S1131030DC011092DB0188E10C94510208954F9277
S11310405F926F927F928F929F92AF92BF92CF9254
S1131050DF92EF92FF920F931F93CF93DF930E943F
S11310603102C7EFD7E040E044244A94542C3201C3
S1131070E7E7F7E029912223C1F180809180A280E3
S1131080B3806B017C01C818D908EA08FB08048105
S1131090158126813781C016D106E206F30668F071
S11310A0080D191D2A1D3B1D0083118322833383E0
S11310B014821582168217820CC060837183828326
S11310C093830C191D092E093F0904831583268374
S11310D037830481158126813781401651066206C3
S11310E0730618F02801390141E0389627E0E73FFC
S11310F0F20709F0BFCF442341F177FE04C0769490
S1131100679457944794609361017093620180934C
S11311106301909364014092EC015092ED0160925E
S1131120EE017092EF01DF91CF911F910F91FF902B
S1131130EF90DF90CF90BF90AF909F908F907F9073
S11311406F905F904F900C94F30287B7877F87BFAF
S1131150DF91CF911F910F91FF90EF90DF90CF908F
S1131160BF90AF909F908F907F906F905F904F90C3
S113117008958091880490918904892B59F581E020
S113118090E09093600880935F088EED91E09093D7
S1131190890480938804109292031092910381E051
S11311A0809393035E9A569A80919103909192034F
S11311B09C012F5F3F4F3093920320939103FC01D6
S11311C0E252FE4F90818FB7F8949CB95E9A8FBF1C
S11311D080E0089585E0089593E8980F923050F4E4
S11311E09091380191609093380190E29827909300
S11311F033078DE78093DE010C94B9089FB7F89408
S1131200809138018E7F809338018EE78093DE01D0
S11312109FBF0C94B9082091430130914401232BC2
S1131220B1F52FB7F89433E13093410110924001A6
S1131230909346018093450182E090E090934401AD
S11312408093430110923E0110923F01665E6093C9
S113125042012FBF8FB7F89490912E079A3011F462
S11312608FBF17C08FBF9FB7F894809190048111EE
S113127006C081E0809390041092910401C080E044
S11312809FBF882331F00E94960280E0089585E094
S11312900895109244011092430181E008958FEF64
S11312A08093B2088093B10884E68093B708809154
S11312B04B0590914C05892BF1F48EE998E09093BD
S11312C04C0580934B058CE18093B5088091070110
S11312D0882399F0109207016CE18EE998E00E944E
S11312E00B09882359F091E09093070110924C0563
S11312F010924B05089585E0089580E00895FB0160
S1131300833009F471C028F4882319F1823099F1EB
S113131074C0833589F0803F29F1803509F06DC0B0
S1131320808191812FB7F89431E030930A0890932B
S1131330C7038093C6030BC0808191812FB7F894B3
S113134031E030930A0890938504809384042FBF7E
S113135054C090818FB7F89421E020930A089093A9
S113136012084AC090818FB7F89421E020930A08AC
S11313709093A70141C09081892F8F7395FD806C54
S1131380992787FD909597FF19C08F3F2FEF9207FC
S1131390B9F08D3F2FEF9207ACF48B3F2FEF9207FC
S11313A09CF4883F2FEF92078CF4843F2FEF920731
S11313B07CF48D3E9F4F74F087E00DC08FE10BC02D
S11313C08BE109C087E107C083E105C08FE003C05A
S11313D08BE001C083E09FB7F89421E020930A08D2
S11313E08093CC039FBF09C090818FB7F89421E00C
S11313F020930A08909399088FBF8091530190918C
S113140054010697029718F483E10C94510208954D
S1131410209158012430E0F430915901E32FF0E099
S1131420EE0FFF1FE45CF74F9183808381E0830F0D
S1131430843019F08093590102C0109259012F5F32
S11314402093580189E00E94510280E090E00895C1
S113145081EF90E00895CF93CFB7F8948091DB01AA
S11314609091DC01892B19F4CFBF89E00EC081E093
S113147080933A0589B78F7B89BF80918603811158
S113148002C00E941108CFBF80E0CF910895CF938E
S1131490C82F0E94D302C8131BC02FB7F8948091A1
S11314A05301909154018430910519F42FBF89E0C0
S11314B010C0079719F02FBF81E00BC088E090E0BF
S11314C090935401809353012FBFCF910C942B0A16
S11314D085E0CF91089580E00C94470ACF92DF9283
S11314E0EF92FF92CF93DF9300D000D0CDB7DEB759
S11314F06B017C0129833A834B835C830E94310214
S1131500660F771F881F991F6C197D098E099F0923
S1131510E1E029813A814B815C816217730784077A
S1131520950708F4E0E08E2F0F900F900F900F9026
S1131530DF91CF91FF90EF90DF90CF90089584E0FA
S11315400E94B40186E00E94B40185E00C94B401C9
S11315509FB7F89481E020910B01211180E09FBF97
S113156008958F929F92AF92BF92CF92DF92EF92A3
S1131570FF92CF93DF9300D000D0CDB7DEB74B01FD
S11315805C0129833A834B835C830E9431026B01A3
S11315907C01CC0CDD1CEE1CFF1CC818D908EA0821
S11315A0FB084601570129813A814B815C81C216AF
S11315B0D306E406F50610F449015A010E943102EB
S11315C060930C0870930D0880930E0890930F0895
S11315D0D501C4018C199D09AE09BF09B695A7951B
S11315E0979587958093880390938903A0938A03A2
S11315F0B0938B030F900F900F900F90DF91CF91CA
S1131600FF90EF90DF90CF90BF90AF909F908F901E
S11316100C9498036E9A8FB9779BFECF8FB108957F
S11316209091740791110C940A0B80E00895CF9364
S1131630CFB7F8940E94A80A811103C0CFBF81E0FC
S11316400EC00E94D0010E94CC0183E00E94100BC6
S11316508BE00E94100B0E94D001CFBF80E0CF919D
S113166008951F93CF93DF931F92CDB7DEB72091D8
S11316704C0130914D012330310509F049C0898373
S11316800E94D0010E94CC018981882311F085E059
S113169001C084E00E94100B83FD09C080E00E9419
S11316A0100B83FB112710F981E0182701C011E00A
S11316B00E94D00111112EC084E090E090934D015E
S11316C080934C01E0914905F0914A050480F5812D
S11316D0E02D8FEF83838283818380830E94310294
S11316E060938004709381048093820490938304B4
S11316F080EE91E0A0E0B0E08093DA039093DB0306
S1131700A093DC03B093DD030E94A00480E003C037
S113171084E001C081E00F90DF91CF911F91089583
S1131720CF93CFB7F8940E94A80A811103C0CFBF0A
S113173081E00BC00E94D0010E94CC0186E00E948F
S1131740100B0E94D001CFBF80E0CF910895CF92BB
S1131750DF92EF92FF920F931F93CF93DF93009149
S11317609C0810919D08E090C506F090C606C091B3
S11317704705D09148052091690130916A01CE0155
S11317800A962817390708F4C9016C0121E0C21A26
S1131790D108CC15DD05A0F40115110529F0F801D7
S11317A0EC0FFD1F808101C080E00E940A0BE11450
S11317B0F10421F0F701EC0FFD1F80832196E9CF9E
S11317C06F9A0115110531F0F801EC0FFD1F8081AE
S11317D08FB901C01FB8D0934805C093470580E076
S11317E0DF91CF911F910F91FF90EF90DF90CF90F9
S11317F0089550936A014093690190939D088093E2
S11318009C087093C6066093C50610924805109212
S11318104705452B19F08FB10C94A70B86E10E9464
S1131820510280E00895CF93DF930E94D0010E947B
S1131830CC01C091CB06D091CC068091740788234B
S113184091F08FE790E090938B0480938A048FE764
S11318500E940A0B41E050E0BE0180E090E0DF917D
S1131860CF910C94F90BDF91CF910895EF92FF92F1
S11318701F93CF93DF931F92CDB7DEB77C01809186
S113188074078823A9F08EE390E090938B048093EF
S11318908A048EE369830E940A0B182F6981462FFC
S11318A050E060E070E0C7010E94F90B812F01C095
S11318B080E00F90DF91CF911F91FF90EF900895FA
S11318C00F931F93CF93CFB7F89490915F01923009
S11318D071F490910F0198130AC0809160058111F1
S11318E00EC080916105882309F43EC008C090E0D1
S11318F0CFBF81E08927CF911F910F910895209147
S1131900600130E0C901019661E070E08C3091051E
S113191011F480E090E0E82FE695E695E695F0E096
S1131920E05AFA4FA081482F47708B0102C0000F84
S1131930111F4A95E2F7A801BA2FB02331F0409560
S11319404A2340838093600106C08217930711F0F5
S11319500196DCCF8FEF8093E00181E080935F01FB
S113196082E00E94510205C08FEF80930F01109214
S11319705F0191E0BDCFCF92DF92EF92FF92CF93C0
S1131980C82F6A017B010E94310229E0C29FF00145
S11319901124EE59FA4F660F771F881F991F608331
S11319A0718382839383C482D582E682F7828085A1
S11319B08160826080878BE1CF91FF90EF90DF9010
S11319C0CF900C945102EF92FF920F931F93CF93F9
S11319D0DF938C01FFB6F8940E94A80A882311F1C2
S11319E00E94D0010E94CC0180917407882381F069
S11319F083E50E940A0BE82E80E00E940A0BC82FA0
S1131A00D0E0DC2FCC2780E00E940A0BC82B01C059
S1131A10E12C0E94D001E1FE05C0F801C083FFBEA5
S1131A2080E002C0FFBE81E0DF91CF911F910F9152
S1131A30FF90EF900895CF93DF9300D0CDB7DEB73A
S1131A409FB7F89420917407222389F09FBF6A837B
S1131A5079830E940A0B7981872F0E940A0B6A817D
S1131A60862F0F900F90DF91CF910C940A0B9FBF9C
S1131A7080E00F900F90DF91CF910895809112082C
S1131A8090E00B9725E0289FB001299F700D112449
S1131A906B597E4F706488E10C941B0DE1E08091DA
S1131AA04605811101C0E0E041E08091A701811168
S1131AB001C040E021E08091E901811101C020E0F2
S1131AC08091CD03882351F051E030E080910B08E0
S1131AD0811101C050E0852F932F02C080E090E077
S1131AE06091990830E4639FB001112462627260CE
S1131AF0F0E0FE2FEE27F295FF0FF07E6E2B7F2B8A
S1131B0050E0542F44275295507F642B752B30E0BE
S1131B10322F2227330F330F330F622B732B54E0F2
S1131B20880F991F5A95E1F7682B792B81E10C9462
S1131B301B0DEF92FF920F931F93CF93DF93CDB7BB
S1131B40DEB72C970FB6F894DEBF0FBECDBFFFB63D
S1131B50F894009158051091590520915A05309137
S1131B605B0540915C0550915D0560915E05709147
S1131B705F05CE0101960E94E6079091C60380910D
S1131B80C70399878A8790918404809185049B87F1
S1131B908C87FFBE21E08091C6039091C703019614
S1131BA009F020E0722F770F770F770F60E06F67EF
S1131BB072608CE10E941B0D8FB7F89490917407AA
S1131BC0911102C08FBF16C08FBF80EE0E940A0B16
S1131BD080E80E940A0B8E010F5F1F4F7E018DE08B
S1131BE0E80EF11CF80181918F010E940A0B0E1579
S1131BF01F05C1F72C960FB6F894DEBF0FBECDBFFC
S1131C00DF91CF911F910F91FF90EF900895CF93A3
S1131C10CFB7F8940E94A80A811103C0CFBF81E016
S1131C2027C080910A08882309F10E94D0010E94EC
S1131C30CC0186E00E94100B0E94D0010E94CC01CE
S1131C400E943E0D0E944E0D6091CC0370E0606EC8
S1131C50706885E10E941B0D0E94D0010E94CC0196
S1131C600E94990D0E94D00110920A08CFBF80E013
S1131C70CF91089580915101909152010197F1F50E
S1131C8082E090E09093520180935101DE98DE9AB5
S1131C908091510190915201029781F583E090E087
S1131CA090935201809351010E94D0010E94CC0173
S1131CB068E170E08DE10E941B0D81E08093860451
S1131CC01092500180B386FB882780F980938704A3
S1131CD084E10E94510281E00E94100B6FE772E0E0
S1131CE08CE10E941B0D0E943E0D0E944E0D66E584
S1131CF07AE287E10E941B0D0C94D0010895509163
S1131D0035015C3118F4252F30E002C02CE130E0BD
S1131D108CE1E8EBF8E0DF011D928A95E9F7409148
S1131D20370180E090E08217930791F0E42FF0E010
S1131D30E557FD4F6081552329F04F5F4A3F09F471
S1131D4040E05150FC01E256F74F628F0196EBCF11
S1131D5040933701509335010E944F09882319F0AD
S1131D6084E20C9451020895CF93DF931F92CDB770
S1131D70DEB79091340191110BC0909135019D37DC
S1131D8038F091E09093340189830E947F0E898119
S1131D909FB7F894209135012A3FB8F43091360169
S1131DA0E32FF0E0E557FD4F808381E0830F8A3F06
S1131DB019F08093360102C0109236012F5F2093F0
S1131DC035019FBF80E090E003C09FBF8FEF9FEF7E
S1131DD00F90DF91CF91089597B79F7D97BF90E2C1
S1131DE096BF882319F08EB5806402C08EB58F7BB0
S1131DF08EBD87B7806287BF80E008956E98BA9AD7
S1131E00BB98B99A0E94CE016C9A6F986B986A98A5
S1131E106E9A709A8DB18C7F8DB908951F93CF936C
S1131E20DF931F92CDB7DEB71FB7F8949091740774
S1131E3091111FC091E09093740720910801909133
S1131E404E01211102C0923079F0911115C092E037
S1131E5090934E011092080189830E94FE0E0E9405
S1131E60CE010E94CC01898180930B0180E01FBFC9
S1131E7007C01FBF85E004C01092740781E0F7CF4C
S1131E800F90DF91CF911F910895CF93CFB7F8941E
S1131E909091740791110FC091E09093740780930F
S1131EA00B019091080180914E01911110C0823074
S1131EB071F485E118C021E030E001C0220F8A9559
S1131EC0EAF780914F01822B80934F012EC0882323
S1131ED049F180914E01811109C081E080934E0146
S1131EE01092EB0187E10E9451021FC08091F00122
S1131EF08F3FD9F481E090E0E0910901EE2311F0E5
S1131F0080E090E0892B89F480910A018F3F19F4D5
S1131F1010920A0104C0F0E0E051FE4F10821092CA
S1131F20090103C00E94FE0ED4CFCFBF80E0CF9141
S1131F30089580E00C94450F8091DB019091DC01C1
S1131F40892BF1F080913A0581111AC083E090E069
S1131F509093DC018093DB0181E0809386039FB73B
S1131F60F89480910B019FBF813011F40C94130CF1
S1131F7081E00E940E0F8823C9F381E00C94450F81
S1131F800895CF92DF92EF92FF92CF93DF93C82F01
S1131F906A017B010E943102DFB7F8942C2F30E0F4
S1131FA0F901A3E0EE0FFF1FAA95E1F7E958F84FF6
S1131FB06083718382839383C482D582E682F782AD
S1131FC0F901E950F84F81E080838091070881117D
S1131FD002C00E941F08DFBFDF91CF91FF90EF90F6
S1131FE0DF90CF900895CF93DF93EB010E947902A5
S1131FF0CD2B61F48091DA0191E0980F9093DA018E
S1132000843120F01092DA010E94D20185E2DF913E
S1132010CF910C945102CF93CFB7F89480914C0197
S113202090914D01019719F4CFBF89E00DC081E073
S11320300E94EC0E81E090E090934D0180934C015E
S113204010924B01CFBF80E0CF910895CF930E94AF
S1132050070E0E940B10E0917107F0917207CFB741
S1132060F89480914C0190914D01019729F582E0FB
S113207090E090934D0180934C01F0934A05E093D6
S11320804905A081B18186819781890F8E5F8C93E8
S11320900E94D0010E94CC0189E00E94100B0E9492
S11320A0D0010E94CC01E0914905F0914A0561E01C
S11320B0808191810E94360CCFBFCF9108950E94F8
S11320C0A80A81110C94261080E00E940E0F882328
S11320D0C9F30C94990F80914F0181114EC08091E6
S11320E00B018F3F09F049C080917407811145C0ED
S11320F081E080933B088091AF01811110923B08ED
S113210080913B088823B9F180910801811104C0B2
S113211080914E01823099F180914E01823029F5EF
S113212080910801811121C080910A018F3FC9F07B
S11321309FEF90930801E82FF0E0E051FE4F90816B
S113214090930A019F3F11F4909309019FEF9083AC
S11321508093EB0181E080934E0187E10E9451025C
S113216004C08093080110924E0180914E018111A8
S113217009C06E9807C085E0089581E008950E9423
S1132180D001CACF80E00895CF93CFB7F89490914F
S11321900B01981719F0CFBF81E02DC08FEF80930A
S11321A00B0170914F01711105C0109274070E94C8
S11321B06B101CC060E0872F90E06170AC01062EAC
S11321C002C0559547950A94E2F740FF12C0609308
S11321D00B0181E090E001C0880F6A95EAF78095D1
S11321E0872380934F0185E10E945102CFBF80E095
S11321F002C06F5FE2CFCF910895CF93CFB7F89429
S113220080E00E94C410CFBFCF91089581E00C9468
S1132210C410CF93CFB7F8948091DB019091DC0187
S1132220892B09F11092860380913A05882319F0CD
S11322300E9411081AC08091EA01882311F0B7990D
S113224004C00E9908C0882319F081508093EA01D4
S11322500E949C0F0AC082E090E09093DC0180937E
S1132260DB011092EA010E940611CFBFCF910895BD
S113227080E88093A601109286031092950810922C
S11322808D081092EA010E94D0010E94CC0188E0DE
S11322900E94100B88E00E94100B0E94D0010E9443
S11322A006110C940911CF92DF92EF92FF926B0109
S11322B07C0180914A0181111FC083E080934A010F
S11322C00E94310260930C0870930D0880930E08ED
S11322D090930F08F694E794D794C794C092880318
S11322E0D0928903E0928A03F0928B03FF90EF90DF
S11322F0DF90CF900C949803FF90EF90DF90CF90F5
S11323000895CF93E091AD01F091AE01C0810E9498
S113231033052FEF3FEF02C0220F331FCA95E2F7B8
S11323204DE050E050935401409353012095309573
S11323302623372384E1829FB001839F700D1124EB
S113234080E090E0CF910C9453112F923F924F92E2
S11323505F926F927F928F929F92AF92BF92CF9231
S1132360DF92EF92FF920F931F93FC01DB0117960C
S11323708C91179716968C901697912CA12CB12CB2
S1132380540199248824B82A14968C911497882A85
S113239015968C911597982A9401A50160E070E038
S11323A080E090E000E20E94B2391396FC9013970B
S11323B012962C901297822C912CA12CB12C5401A2
S11323C099248824BF28FC908F281196AC919A2ACE
S11323D01401250151016201E12CF12C00E010E00F
S11323E00E94E93920833183428353836483758354
S11323F0868397831F910F91FF90EF90DF90CF908A
S1132400BF90AF909F908F907F906F905F904F9010
S11324103F902F900895CF92DF92FF920F931F93D6
S1132420CF93DF931F92CDB7DEB78C01F62E6901EF
S1132430FC018181877009F05FC08281982F9078B8
S1132440903809F059C08295869586958370F90174
S11324508083F801858190E0982F88272481822B3E
S1132460F60192838183F8018281807C803851F463
S1132470878190E0982F88272681822BF601948308
S1132480838309C0B8016A5F7F4FC60103964983FD
S11324900E94A5114981F601F3864487F801828DD3
S11324A0F6018587F801838DF6018687F801848D0E
S11324B0881F8827881FF6018787F801EB56FF4F8E
S11324C08081F601808BC80180579F4F0E94BD0117
S11324D0F601618B728B838B948B168A158A178A0B
S11324E0108E118E128E138E148E158E168E178EDC
S11324F010A211A280E001C081E00F90DF91CF9182
S11325001F910F91FF90DF90CF900895CF93DF93A9
S1132510EC014091A2038B819091F10191111EC0B5
S113252025E439E06AE1CE010E940B1281111CC03E
S1132530809145098230C1F4809146099091470900
S11325408237914889F480914809909149098133EF
S1132550934451F481E08093F10106C080FF02C0EE
S1132560D99802C00E94B201CE01DF91CF910895A3
S1132570FC0180818F779181977021F5948D9770FC
S113258029F0292F220F290F2C5F01C023E07A960E
S113259030E0DF01A20FB31F4C912F5F3F4F2E0F8E
S11325A03F1F942F977021F0290F311D290F311DE2
S11325B0407729F050E056954795240F351FE21BCC
S11325C0F30B8E0F08952FB7F894B79905C00E99A1
S11325D003C02FBF81E0089580E88093A601109284
S11325E086031092950810928D081092EA0182E0F9
S11325F090E09093DC018093DB0189B78F7B89BFE6
S113260080E488BF8AB780628ABF8AB78F7E8ABF18
S113261089B7806489BF2FBF80E00895E091710776
S1132620F09172070190F081E02D818185FF04C053
S11326300E94FD100C94E312089510920701E0919A
S11326404B05F0914C053097D1F08091960880FDB0
S113265016C080910701811116C023898489678976
S1132660673718F08DE10C94510290E0922B848B23
S1132670938BCF010E940B09882329F0F3CF81E0CB
S113268080930701E6CF0895CF93CFB7F8940E94C3
S1132690A80A811103C0CFBF81E01FC0B79B1BC034
S11326A00E94CC0180917407882349F08FE70E942F
S11326B00A0B80E00E940A0B80E00E940A0B0E9431
S11326C0D0010E94CC0188E00E94100B88E00E9497
S11326D0100B0E94D001CFBF80E0CF9108956F927C
S11326E07F928F929F92AF92BF92CF92DF92EF929E
S11326F0FF920F931F93CF93DF931F92CDB7DEB753
S1132700182F7FB6F89469830E94D30269818113DC
S1132710BAC060930F01862F90E0FC013397E93033
S1132720F10508F0ADC0EA5BFF4F0C94AC3968E0EA
S113273083E0A4C065E084E0A1C066E085E09EC0BB
S113274068E086E09BC068E087E098C080916B01F8
S113275085FF04C088E00E94510292C00E94EB1FD2
S11327608FC0A0914E082091E1013091E201409187
S1132770E3015091E401B0E00E947F39643A21E022
S113278072078105910518F46AE089E077C06B014E
S11327907C01E4EACE1AE1E0DE0AE108F108809166
S11327A0980880937A0480903B0990903C09A0900B
S11327B03D09B0903E096FB6F8940E943102660F4D
S11327C0771F881F991F681979098A099B098B014A
S11327D09C016C157D058E059F0510F497018601FB
S11327E068017901C61AD70AE80AF90AB701A601ED
S11327F0769567955795479584E00E94C10F6FBE03
S1132800C0905D08D0905E08C114D10479F1E12C28
S1132810F12C80903B0990903C09A0903D09B09028
S11328203E096FB6F8940E943102660F771F881F25
S1132830991F681979098A099B098B019C016C15F8
S11328407D058E059F0510F49701860168017901C5
S1132850C61AD70AE80AF90AB701A6017695679558
S11328605795479585E00E94C10F6FBE0E9455148D
S113287007C068E08AE002C063E08BE00E946F1347
S11328807FBE80E002C07FBE81E00F90DF91CF91D8
S11328901F910F91FF90EF90DF90CF90BF90AF907A
S11328A09F908F907F906F9008954F925F926F9258
S11328B07F928F929F92AF92BF92CF92DF92EF92CC
S11328C0FF920F931F93CF93DF9300D000D0CDB727
S11328D0DEB75FB6F89480914309811178C089E02E
S11328E00E94BA02882309F472C081E080934309EC
S11328F0A0914E082091E1013091E2014091E30161
S11329005091E401B0E00E947F399B01AC01245A4C
S113291031404109510960913B0970913C09809112
S11329203D0990913E090E946E0A882339F089E09E
S11329300E94E002882309F480C106C084E00E945A
S1132940CA028823A1F310C00E949F0A80915B01F0
S113295081110E94651910927A04109243096AE069
S113296089E00E946F1333C080917A04882319F0A0
S11329700E942B1F41C180915B018111F9CF80918D
S1132980CE039091CF0320917209211106C021E05A
S1132990029709F020E0822F01C081E020915C01C0
S11329A0811108C081E090E0211102C080E090E034
S11329B0892B79F089E00E94E002882309F43DC163
S11329C00E949F0A1092430989E00E94600C5FBE36
S11329D037C120915D0830915E0821153105B9F0A9
S11329E040E050E060913B0970913C0980913D09C1
S11329F090913E090E946E0A882349F080918802D2
S1132A00811105C08091DF01882309F4EBC0809116
S1132A10380590913905892B09F4D3C010914E08DB
S1132A202091E1013091E2014091E3015091E401F0
S1132A3089E029833A834B835C830E94E0022981E5
S1132A403A814B815C81882309F4D4C0A12FB0E082
S1132A500E947F394B015C016B017C0124EAC21A9C
S1132A6021E0D20AE108F10880912F079091300704
S1132A70A0913107B0913207C81AD90AEA0AFB0AB1
S1132A80C701B60124E130E040E050E00E948A39F9
S1132A90E4E1CE0ED11CE11CF11CC61AD70AE80AE7
S1132AA0F90A8C149D04AE04BF0418F4C12CD12C73
S1132AB0760180915D0890915E08009749F0A0E04E
S1132AC0B0E08C159D05AE05BF0510F46C017D01C9
S1132AD060913B0970913C0980913D0990913E09B8
S1132AE0A70196010E946E0A811181C00091A8017C
S1132AF01091A9014090E70180903B0990903C0916
S1132B00A0903D09B0903E09609038057090390559
S1132B100E94D302893009F051C06114710409F490
S1132B204DC0F30180819181892B09F447C08281D2
S1132B309381892B19F48781811140C0F301848129
S1132B409581892BD9F12681878190E0820F911D8F
S1132B508E3791059CF52FB7F8948091530190918D
S1132B605401049711F02FBF29C08BE090E090939B
S1132B705401809353012FBF7092720760927107C2
S1132B8080E395E09093AE018093AD0180928D0334
S1132B9090928E03A0928F03B0929003C0929B01F7
S1132BA0D0929C01E0929D01F0929E0140923F09D7
S1132BB010934D0800934C080E945F1082E090E04F
S1132BC01BC080918802811104C08091DF01882399
S1132BD049F00E942B1F83309105A9F48CE00E94D8
S1132BE051020DC089E00E94E002882319F083E0BD
S1132BF090E002C080E090E08330910521F41092CF
S1132C00430983E090E05FBE892BD1F489E00F9003
S1132C100F900F900F90DF91CF911F910F91FF9024
S1132C20EF90DF90CF90BF90AF909F908F907F9068
S1132C306F905F904F900C94470A80E090E0E3CF50
S1132C400F900F900F900F90DF91CF911F910F91E4
S1132C50FF90EF90DF90CF90BF90AF909F908F90B8
S1132C607F906F905F904F9008952FB7F894FC0178
S1132C7080818093DF012FBF0C94551420EE280F20
S1132C80982F41E050E060E070E0992351F0440F48
S1132C90551F661F771F91509213F7CF40E050E005
S1132CA0BA014427587F7770452B462B472B51F0A8
S1132CB080939F036FE973E080E00E947F0980E0C6
S1132CC090E0089588EE90E00895CF93DF93CFEFDE
S1132CD0DFEFD093B103C093B00360EB73E080E502
S1132CE00E947F09D093B303C093B20362EB73E0F5
S1132CF083E50E947F0910929C03D093AF03C09395
S1132D00AE03EEEBF3E0108211821282138214827E
S1132D10158216821782DF91CF910895EF92FF9268
S1132D200F931F93CF93DF93CDB7DEB728970FB6DA
S1132D30F894DEBF0FBECDBF8B017A01813079F1EB
S1132D4040F0823009F047C0BA01C8010E94F30F75
S1132D5042C0DB01ED91FC9182818C70883049F492
S1132D60878190E0982F88272681822B9A838983F4
S1132D7007C0BF016A5F7F4FCE0101960E94A51173
S1132D80D8011296ED91FC9113978FEF80838D916A
S1132D909C910E943004C8010E9479021CC0FB016E
S1132DA0608171816A5F7F4FCE0101960E94A511F7
S1132DB0D8018D919C910E943004C8010E9479022F
S1132DC01092E203E114F10421F0B9EEEB16F104E0
S1132DD011F40E94651628960FB6F894DEBF0FBE54
S1132DE0CDBFDF91CF911F910F91FF90EF90089588
S1132DF0ECE7F5E080818D7F808310928C038FEF68
S1132E009FEF9093B1038093B00360EB73E080E590
S1132E100C947F09813029F480918C0381110C94E6
S1132E20F8160895EF92FF920F931F93CF93DF93B9
S1132E30CDB7DEB728970FB6F894DEBF0FBECDBF6F
S1132E408B017A01833049F118F4813041F06BC071
S1132E50843009F449C0863009F44BC064C0DB01F6
S1132E608D919C910E943004C8010E947902EF2840
S1132E7019F010928C0357C02091AD0380EC93E0BD
S1132E80289FA001299F500D1124662757FD6095A6
S1132E90762F82E00E94BB0C46C0DB01ED91FC91D1
S1132EA0BF016F5F7F4F82818C708C3011F087E09F
S1132EB001C08DE0680F711DCE0101960E94A5111D
S1132EC0F801808191810E943004C8010E94790236
S1132ED01092E203E114F10421F0F9EEEF16F1048B
S1132EE011F50E9465161FC0BA01C8010E94F30FB4
S1132EF01AC08091C7069091C80601979093C8069E
S1132F008093C706DB0119968C9192E0980F92305A
S1132F1010F00E940A17F801808191810E94300408
S1132F20C8010E94790228960FB6F894DEBF0FBE3E
S1132F30CDBFDF91CF911F910F91FF90EF90089536
S1132F400F931F93CF93DF938C01EB01809176074E
S1132F508E7F8093760780915801882301F10E9427
S1132F608604AE01B801F80180850E941217CA3E9A
S1132F70D10539F089E0DF91CF911F910F910C9425
S1132F805102809158018823A9F30E9486044AEED5
S1132F9050E0BC01FC0180850E941217F2CFDF9142
S1132FA0CF911F910F910895CF93C82F89E00E946C
S1132FB0BA02811134C08091380590913905009787
S1132FC021F06C2F70E00E94A01780913C05909135
S1132FD03D05009721F06C2F70E00E94A01710921D
S1132FE011081092100810923D0510923C051092A1
S1132FF03905109238058091B6039091B703A091DA
S1133000B803B091B9038093A0019093A101A09358
S1133010A201B093A3010E949F0A80E001C081E055
S1133020CF910895CF93DF93EB018B30A9F48C8D6E
S113303090E0982F88272B8D822B2091B00330911C
S1133040B1038217930741F41092F1010E94B20177
S1133050D89A8AEE0E94D417CE01DF91CF910895B9
S11330602F923F924F925F926F927F928F929F9294
S1133070AF92BF92CF92DF92EF92FF920F931F9382
S1133080CF93DF93CDB7DEB760970FB6F894DEBF6A
S11330900FBECDBF582E162F3A016901402E22E0F3
S11330A082130AC08091C7069091C806892B21F02B
S11330B082E00E940A17E4C00E9412027C01009779
S11330C009F4E4C00E944D045C01009709F4DBC0DC
S11330D0D70111969C938E934A9615969C938E9342
S11330E0149719965C928090B0039090B1031230BB
S11330F019F442E050E002C048E050E0B601CE01CD
S113310001960E94043AD701ED91FC9183E28183F8
S1133110123040F0B1E0B41528F46814790411F4C5
S113312083E68183212F220F220F30E4439EC001C6
S11331301124282B228382E0481207C08091B20315
S11331409091B3039A87898718C08091580589871D
S1133150809159058A8780915A058B8780915B05F8
S11331608C8780915C058D8780915D058E87809129
S11331705E058F8780915F05888B3180D701CD9064
S1133180DC908EEF810F8230D8F4F6016482758270
S1133190123039F499818A8196838783E7E02E2E51
S11331A011C009811A812B813C814D815E816F811F
S11331B07885C60106960E94E6077DE0272E02C0A8
S11331C063E0262E8EEF840D823060F5FFEFCF1A78
S11331D0DF0A6814790411F436FC07C0F601E20D25
S11331E0F11D8082918223942394822D90E022E029
S11331F042120AC039852A85F601E80FF91F308387
S11332002183239423940EC009851A852B853C853C
S11332104D855E856F8578898C0D9D1D0E94E6071E
S113322038E0230ED70116962C9216978EE091E083
S113323013969C938E93129781E017968C9317970D
S113324086E018968C938091760781FD07C0C701AC
S11332500E94080A8C01009751F002C001EF10E0AF
S1133260C5010E943004C7010E94790211C08091F7
S1133270C7069091C80601969093C8068093C70626
S113328080E090E009C0C7010E94790201EF10E0DC
S1133290852D0E940A17C80160960FB6F894DEBF08
S11332A00FBECDBFDF91CF911F910F91FF90EF9093
S11332B0DF90CF90BF90AF909F908F907F906F9052
S11332C05F904F903F902F90089580915B01811102
S11332D005C080917A04811106C0089510925B01A3
S11332E08AE00C94510210927A040C9455141F93A2
S11332F0CF93DF931F92CDB7DEB790910F01993032
S113330021F489830E94551489811FB7F894909100
S11333105F0191110BC091E090935F018093E001F4
S113332082E00E9451021FBF80E017C0E82FE6959B
S1133330E695E695F0E0E05AFA4F9081877021E037
S113334030E001C0220F8A95EAF7892F822319F40D
S1133350292B208301C085E01FBF0F90DF91CF91FF
S11333601F91089588E00C9477191092A00360EAE5
S113337073E082E00E947F0980911E0190911F01F9
S11333809093B3038093B20362EB73E083E50E94EE
S11333907F09109297031092F101E0915D01F09181
S11333A05E01309751F01182108284E998E0938392
S11333B082838AE190E09583848381E080935C0139
S11333C082E08093910880E090E0A0E0B4E08093F4
S11333D0480890934908A0934A08B0934B0880EC9E
S11333E09BE7A0E0B0E080937B0490937C04A093DF
S11333F07D04B0937E048091B0039091B1039093C7
S11334005705809356051092670710924F08109243
S1133410750710929B0810929A0810928A0180E016
S11334200C9477198F929F92AF92BF92CF92DF92B2
S1133430EF92FF920F931F93CF9387E090E09093C6
S11334405401809353010E94170B81E08093AF01D4
S11334500E94FD100E94D302823059F020F48111A1
S1133460AEC084E007C0883091F0893009F481C08F
S1133470A6C08DE0CF911F910F91FF90EF90DF9048
S1133480CF90BF90AF909F908F900C9451029091E9
S11334906B01892F8C7F816080936B01892F8370EE
S11334A061F1833009F08BC040EC53E060E070E0E0
S11334B00090AB0104C0440F551F661F771F0A9488
S11334C0D2F740545C4F6F4F7F4FC2E0440F551FFB
S11334D0661F771FCA95D1F77695679557954795D7
S11334E0CF911F910F91FF90EF90DF90CF90BF90FD
S11334F0AF909F908F900C94C10FC0906501D090B5
S11335006601E0906701F090680184E1C80E81E0F3
S1133510D81EE11CF11C80903B0990903C09A090BE
S11335203D09B0903E09CFB7F8940E943102660F6E
S1133530771F881F991F681979098A099B098B01CC
S11335409C016C157D058E059F0510F4970186017D
S113355068017901C61AD70AE80AF90AB701A6016F
S1133560769567955795479583E00E94C10FCFBF25
S113357026C080915B01811104C080917A04882364
S113358079F04091A0015091A1016091A201709144
S1133590A301769567955795479586E00E94C10FDC
S11335A010924309CF911F910F91FF90EF90DF90FC
S11335B0CF90BF90AF909F908F900C945514CF9163
S11335C01F910F91FF90EF90DF90CF90BF90AF903D
S11335D09F908F900895CF9386E090E0909354014C
S11335E0809353010E94070E0E9486030E940B10D1
S11335F0CFB7F89420919B0130919C0140919D019B
S113360050919E0160918D0370918E0380918F0380
S1133610909190030E946E0A882319F00E94121A56
S11336201FC020919B0130919C0140919D015091BC
S11336309E0180918D0390918E03A0918F03B09190
S11336409003E0914A01E1110BC0E1E0E0934A01EB
S1133650BC01CD0160517109810991090E94B10A2F
S1133660CFBFCF910895BF92CF92DF92EF92FF9296
S11336700F931F93CF93DF9300D000D0CDB7DEB765
S1133680B82E6801790149835A836B837C830E9435
S1133690D30249815A816B817C81B81231C02FB722
S11336A0F8948091530190915401049719F02FBF1D
S11336B081E027C085E090E090935401809353010A
S11336C02FBF40938D0350938E0360938F037093A9
S11336D09003C0929B01D0929C01E0929D01F092D4
S11336E09E010E94E31281110CC00E940E0F8111F1
S11336F003C00E94EB1A02C00E94990F80E001C02F
S113370081EF0F900F900F900F90DF91CF911F9149
S11337100F91FF90EF90DF90CF90BF9008950F939B
S11337201F9380916B01837041F5809165019091A5
S11337306601A0916701B091680184319105A105EA
S1133740B10528F044E150E060E070E002C0AC0153
S1133750BD018C019D01041B150B260B370B4091F9
S11337603B0950913C0960913D0970913E0988E004
S11337700E94331B1F910F91089588E01F910F91B0
S11337800C94470A0F931F938091CE039091CF031B
S1133790029761F400E010E0980140E050E0BA01C3
S11337A082E00E94331B1F910F9108958EE01F91B8
S11337B00F910C9451020F931F93CF93DF93E091D9
S11337C0670741E050E060E070E00E2E04C0440F53
S11337D0551F661F771F0A94D2F7F0914F08F11115
S11337E021C08091480890914908A0914A08B0915D
S11337F04B088827987FB770EB3190F4C1E0CE0F67
S11338008A019B01082319232A233B23012B022B22
S1133810032B31F4440F551F661F771FEC2FECCF99
S1133820E0936707809167078B3108F098C0F11126
S113383098C00E943E1680919108813091F008F45E
S113384060C0823021F0833009F074C10AC000E006
S113385010E0980140E050E0BA0180E00E94331B80
S113386069C1C0915D01D0915E010E94D3028111B2
S113387061C1209709F45EC188819981892B09F47B
S113388059C18A819B81892B19F48F81811152C17D
S11338908C819D81892B09F44DC12E818F8190E00B
S11338A0820F911D8E3791050CF044C12FB7F89407
S11338B08091530190915401049711F02FBF3AC1A4
S11338C089E090E090935401809353012FBFD093EB
S11338D07207C093710710928D0310928E03109299
S11338E08F031092900310929B0110929C011092EE
S11338F09D0110929E01DF91CF911F910F910C9425
S11339005F1080917B0490917C04A0917D04B09120
S11339107E044FB7F8942091530130915401233021
S1133920310519F02430310511F04FBF03C123E0F4
S113393030E030935401209353014FBF8093B00182
S11339409093B101A093B201B093B3018DEA809337
S11339509503DF91CF911F910F910C94990FFF2341
S113396051F1809191088150823020F476956795C9
S113397057954795009148081091490820914A08A5
S113398030914B08DB01CA0188279927AA27BC7FFD
S1133990892B8A2B8B2B79F4DB01CA018023912399
S11339A0A223B323892B8A2B8B2B29F0440F551F79
S11339B0661F771FE7CF809191088150823068F4A9
S11339C080915605909157059093B1038093B0036D
S11339D060EB73E080E50E947F09E0915D01F09166
S11339E05E01309751F0808191810E943004809172
S11339F05D0190915E010E94790210925E01109225
S1133A005D0180E00E94BA02882319F080E00E94E0
S1133A10600C10925C018091F101882309F477C055
S1133A2080914809909149099093AF038093AE0324
S1133A3080914609909147099093B1038093B00314
S1133A4060EB73E080E50E947F0930915109209179
S1133A50500981E090E0A0E0B0E0022E04C0880F9D
S1133A60991FAA1FBB1F0A94D2F78827987FB770A3
S1133A70892B8A2B8B2B49F08091B0039091B10351
S1133A80019619F0332309F448C020914609309176
S1133A9047098091B0039091B1034091E5034373CA
S1133AA048684093E5036091B2035091B303409199
S1133AB0E4032817390711F4406401C04F7B409395
S1133AC0E4034091E4032093E7033093E803E09197
S1133AD0480970914909E093E9037093EA032817B0
S1133AE0390711F446FD06C08093EB039093EC0371
S1133AF0E9E001C0E7E0F0E0EC51FC4F6083518362
S1133B0085E2DF91CF911F910F910C945102DF91C7
S1133B10CF911F910F910C94B51981E08093AC0162
S1133B2020935C0880916B01806A80936B010E94F2
S1133B30B219ABCFDF91CF911F910F910895CF931D
S1133B40DF9381E00E94BA02882309F4D6C081EF92
S1133B500E94D417809176078260809376078091C3
S1133B605801882351F00E94860441EF50E0BC01C3
S1133B70FC0180850E941217F2CF809176078D7F19
S1133B808093760780915C01882329F081E08093FB
S1133B904F080E94DB1B80916B01982F9C7098301A
S1133BA041F085FF0EC087FF0CC08091AC018823D3
S1133BB041F01092F1010E94B201D89A8AEE0E945B
S1133BC0D41780916B0186FF03C08AEE0E94D4173C
S1133BD080916B018F7180936B0180E00E94DE0104
S1133BE080917C058D7F80937C058FEF80934009C5
S1133BF01092850310928C03EBE4F7E080833496F3
S1133C0097E0E736F907D1F78FEF8093E50110923B
S1133C108A021092E2031092C8061092C70680919D
S1133C2085058D7F80938505CDE8D1E0E991F991F3
S1133C30309731F041EF50E0BF0180850E948E162D
S1133C40E1E0CB39DE0791F7EDE8F1E01192119252
S1133C5081E0EB39F807D1F710923A09109239094B
S1133C6010925105109273071092500880E791E06A
S1133C709093BC068093BB0681E698E09093C006BF
S1133C808093BF0680E598E09093BE068093BD06BE
S1133C901092C2061092C30680915501882341F008
S1133CA00E94C1050E94790285E20E945102F4CF6C
S1133CB010928C0110928B0110926E0110926D0182
S1133CC01092D5031092D4031092520581E090E033
S1133CD09093CF038093CE0380916C018111109255
S1133CE06C011092880280918E058D7F80938E05E1
S1133CF081E0DF91CF910C945102DF91CF9108952F
S1133D000F931F934091A70380915C01811104C01C
S1133D101F910F910C94600C80919108823081F175
S1133D208330D1F1813009F092C0E0915D01F091CE
S1133D305E01A081B18193E011969C93A081B18131
S1133D4098E012969C93A081B18113964C934F5F97
S1133D504093A703A081B1819FEF14969C93A08107
S1133D60B18115969C93A081B18116969C93A081F4
S1133D70B18117969C9397E09683909394088783D8
S1133D808FEF9FEF9093B1038093B00360EB73E0E8
S1133D9080E50E947F095BC05091AD0320EC33E0C5
S1133DA0529FC001539F900D1124AA2797FDA095FF
S1133DB0BA2F80937B0490937C04A0937D04B093EA
S1133DC07E04E0915D01F0915E01A081B18183E404
S1133DD011968C93A081B18188EC12968C93A0816A
S1133DE0B18113964C934F5F4093A703A081B18197
S1133DF08FEF14968C93A081B18115968C93A0813A
S1133E00B18116968C93A081B18117968C93009101
S1133E1058051091590520915A0530915B05409140
S1133E205C0550915D0560915E0570915F05808130
S1133E30918108960E94E607E0915D01F0915E0190
S1133E408FE0868386E08093940881E087831F91C6
S1133E500F910C94DB1B0F931F930E94D3028930A4
S1133E60B9F48091530190915401079789F089E046
S1133E700E94E002882379F000E010E0980140E01D
S1133E8050E0BA0189E00E94331B81E090E005C054
S1133E9083E090E002C080E090E01F910F910895CC
S1133EA08F929F92AF92BF92CF92DF92EF92FF9246
S1133EB00F931F93CF9380916B018370833051F4E0
S1133EC000E010E0980140E050E0BA0188E00E9470
S1133ED0331B75C0811165C0209165013091660165
S1133EE0409167015091680160913B0970913C09D0
S1133EF080913D0990913E09645A7140810991096C
S1133F000E946E0A811140C0809065019090660104
S1133F10A0906701B090680144EAC42EDD24D394D4
S1133F20E12CF12C80913B0990913C09A0913D0931
S1133F30B0913E09C81AD90AEA0AFB0ACFB7F89425
S1133F400E943102660F771F881F991F6C0D7D1D1B
S1133F508E1D9F1D6B017C01681579058A059B05E3
S1133F6010F47501640197018601061B170B280BD9
S1133F70390BB901A801769567955795479583E064
S1133F800E94C10FCFBF1BC0CF911F910F91FF9013
S1133F90EF90DF90CF90BF90AF909F908F900C9454
S1133FA08F1B87E0CF911F910F91FF90EF90DF90CF
S1133FB0CF90BF90AF909F908F900C945102CF916F
S1133FC01F910F91FF90EF90DF90CF90BF90AF9033
S1133FD09F908F900895CF92DF92EF92FF92CF93AC
S1133FE080916B01982F9C7009F45CC0982F93709A
S1133FF0933009F45FC08C7F80936B01C0E060EC68
S1134000C62E63E0D62EE12CF12C2091650130916F
S11340106601409167015091680160913B0970917C
S11340203C0980913D0990913E090E946E0A2091BD
S11340303705882349F14091AB014F3008F04EE039
S1134040D701C60104C0880F991FAA1FBB1F4A9538
S1134050D2F7AC01BD018091650190916601A091F8
S11340606701B0916801840F951FA61FB71F809345
S1134070650190936601A0936701B09368012F5F77
S113408020933705C1E0C1CF243040F087E0CF91C1
S1134090FF90EF90DF90CF900C945102CC2351F01D
S11340A00E94B21988E0CF91FF90EF90DF90CF90FB
S11340B00C94600C88E00E94E002882339F0CF91D0
S11340C0FF90EF90DF90CF900C94501F88E0CF9139
S11340D0FF90EF90DF90CF900C94470A80916B0192
S11340E085FF30C08091AC01882311F088E001C0C5
S11340F084E00E94DE0180915C080E943E162091BB
S1134100A5032093AB012F3008F02EE080EC93E060
S1134110A0E0B0E004C0880F991FAA1FBB1F2A9516
S1134120D2F78093650190936601A0936701B093E1
S1134130680184E08093370580916B018C7D8360F6
S113414080936B010C94EB1F0E9486030E94900BDA
S11341500E9444131092AF010E94FD1084E090E08D
S113416090935401809353010E94D302823081F0D2
S113417028F4882341F0813041F00895883051F0CB
S1134180893051F008950C94DB0580E00C945102C1
S11341900C94C21B0C94501F109243090C94551498
S11341A00F931F931092E701283058F4263008F03B
S11341B05EC0222349F0213009F068C081EE90E00E
S11341C051C02B30B9F162C01092380910923709EE
S11341D0DC011296ED91FC9113972081243009F0B3
S11341E055C0ED91FC9181818770833009F04EC0F8
S11341F08BEE90E09093380980933709662309F495
S113420045C081E080935B01809138059091390528
S113421090933D0580933C05109239051092380522
S113422000E010E0980140E050E0BA0189E00E940B
S1134230331B41C080914409882391F010923305C7
S113424090919308909332059091CA06909331050A
S1134250909179049093300581508093440925C04E
S113426089EE90E090933809809337090FC081E07C
S11342708093E7015093A9014093A8011092430948
S113428084E00E94CA02811116C011C080913805D1
S11342909091390590933D0580933C051092390522
S11342A0109238058AE00E945102109243091F912E
S11342B00F910C9455141F910F910895EF92FF9252
S11342C00F931F93CF93DF9300D0CDB7DEB7E09069
S11342D05301F090540100917107109172070E94EC
S11342E0900B0E9444131092AF010E9486030E9417
S11342F0FD1084E090E090935401809353018FE08B
S1134300E816F10469F40E94D302811129C000E087
S113431010E0980140E050E0BA010E94331B20C035
S1134320E1E1EE16F104E1F42091A501E0904C08DE
S1134330F0904D0860919F0129836A830E94D30203
S113434029816A81893061F4A701C8010F900F9017
S1134350DF91CF911F910F91FF90EF900C94D0209B
S11343600F900F90DF91CF911F910F91FF90EF90DD
S1134370089580939F016093A5010E94A80A81116A
S113438002C00C942B0A0C945E218F929F92AF92E0
S1134390BF92CF92DF92EF92FF92CF93DF938091FF
S11343A03F09882339F0C0914C08D0914D081092F0
S11343B03F0918C0E091AD01F091AE01C0810E94A7
S11343C033052FEF3FEF02C0220F331FCA95E2F7E8
S11343D0209530952623372384E1829FE001839F33
S11343E0D00D11240E9431026B017C01BE0180E0DA
S11343F090E0CC0CDD1CEE1CFF1CC60ED71EE81E84
S1134400F91E80908D0390908E03A0908F03B0903E
S11344109003C818D908EA08FB0880909B01909083
S11344209C01A0909D01B0909E018C149D04AE044B
S1134430BF0438F4C0917107D0917207209799F4A2
S113444049C02EE030E03093540120935301DF91B2
S1134450CF91FF90EF90DF90CF90BF90AF909F905F
S11344608F900C9453111092AF010E9486030E9406
S1134470FD1084E090E090935401809353010E94D6
S1134480D302893039F5C701B601681979098A0957
S11344909B094B015C0124E1820E911CA11CB11CFF
S11344A024E130E040E050E00E948A39861A970AFD
S11344B0A80AB90A27E0A40160E0CE01DF91CF91F8
S11344C0FF90EF90DF90CF90BF90AF909F908F9030
S11344D00C94D020DF91CF91FF90EF90DF90CF909C
S11344E0BF90AF909F908F9008950F931F93CF9399
S11344F0DF93EC018B0180918A0486FF2AC18F7BB4
S11345008F3309F0B0C1C091CB06D091CC0628817D
S11345102093DD018091DB019091DC0184309105D1
S113452079F118F4039749F003C18530910509F432
S113453051C0069709F469C0FBC084E090E09093F1
S1134540DC018093DB0130E08091A60190E0281724
S1134550390734F0DF91CF911F910F910C943811EA
S1134560B79903C00E9B0E9438118091DD018450DD
S11345708E3880F7BE016F5F7F4F43E050E022C06A
S11345806A81898183FDE6CF44EA51E00E94D00725
S11345908111E0CF4091A4018091DD0190E0019769
S11345A0242F30E028173907ACF6443098F085E022
S11345B090E09093DC018093DB01435050E0BE0116
S11345C06C5F7F4F80E090E0DF91CF911F910F915E
S11345D00C94F90B4091DD012091A401842F90E00B
S11345E0821B9109893791050CF0B4CF86E090E0E5
S11345F09093DC018093DB01421B50E06091CB0679
S11346007091CC06665E7F4FDDCF0E94D001809111
S1134610EA01811102C00E94061130918D08C091F7
S1134620CB06D091CC062091DD01332349F125300E
S1134630C0F18091950890E0FC01EE0FFF1FEE0F92
S1134640FF1FE459F74F7081618152814381DE017C
S1134650AD56BF4F7C93DE01AE56BF4F6C93DE0167
S1134660AF56BF4F5C93DE01A057BF4F4C930196EA
S11346708770992780939508315030938D0811C025
S11346808FEFDE01AD56BF4F8C93DE01AE56BF4FA8
S11346908C93DE01AF56BF4F8C93DE01A057BF4F02
S11346A08C93E22FF0E08091A401E81BF109EC0F58
S11346B0FD1F818D87FF36C0012BA1F18981877091
S11346C0823029F580914C0190914D010697D9F4DF
S11346D0E0914905F0914A050190F081E02D938124
S11346E08B81981310C00E94DA01898121E030E0A7
S11346F030934D0120934C0160E0829581700E94BB
S1134700B9210E946B1080914605882359F080914D
S11347103A05811107C089E1DF91CF911F910F9173
S11347200C945102DF91CF911F910F910C940911B8
S1134730109286030E94D0010E94061180913A05CE
S1134740882309F490C0DF91CF911F910F910C94AD
S113475011088E3309F087C00E94D001E091490509
S1134760F0914A0580819181C817D90759F40E94B4
S1134770CC01E0914905F0914A05808191816681DF
S113478001960DC00196C817D90779F40E94CC018F
S1134790E0914905F0914A05678182819381DF9117
S11347A0CF911F910F910C94360C83E090E090937D
S11347B04D0180934C0180915301909154018A30B2
S11347C0910509F444C08B30910509F446C009975A
S11347D009F049C08CE090E0909354018093530118
S11347E020919B0130919C0140919D0150919E012B
S11347F0211531054105510579F48FE090E090933E
S113480054018093530180E00E94310BDF91CF91DA
S11348101F910F910C940E1380918D0390918E0330
S1134820A0918F03B0919003E0914A01E1111BC064
S1134830E2E0E0934A01BC01CD01605171098109B4
S11348409109DF91CF911F910F910C94B10ADF91DF
S1134850CF911F910F910C948111DF91CF911F91F2
S11348600F910C94C521DF91CF911F910F91089561
S11348704F925F926F927F928F929F92AF92BF926C
S1134880CF92DF92EF92FF920F931F93CF93DF9318
S1134890CDB7DEB728970FB6F894DEBF0FBECDBFF5
S11348A0E2E6F5E020E030E0108511FF56C14080DB
S11348B0518062807380C480D580E680F7804B018C
S11348C05C0184189508A608B7088C149D04AE04EE
S11348D0BF0408F442C110FF03C01D7F10870AC043
S11348E0D301C2018C0D9D1DAE1DBF1D808391831C
S11348F0A283B3832230A1F018F4222341F034C1FF
S1134900233009F449C0243009F4E0C02DC180E00B
S11349100E94BA02882309F427C10E946B0A24C1A9
S113492080918C03882309F41FC180918503823010
S113493039F49091AE038091AF0399838A8314C0B4
S11349400091BE031091BF032091C0033091C103B5
S11349504091C2035091C3036091C4037091C50395
S1134960CE0101960E94E6074091B0035091B10335
S113497003E09E012F5F3F4F6091850381E00E9419
S11349803018892B09F4F0C080918C03882309F432
S1134990EBC00E94F816E8C00E9431022B013C01D2
S11349A0440C551C661C771C8091A5038F3070F451
S11349B021E030E002C0220F331F8A95E2F7A0EC19
S11349C0B3E00E9470399B01AC0104C020EC33E0D9
S11349D040E050E0A091B403B091B5030E947F3948
S11349E06B017C010DE811E0812C912C5401D8015C
S11349F0ED91FC91309709F44BC080913909909165
S1134A003A09E817F90709F443C0848195810E94A3
S1134A10BD01A70196010E946E0AD801ED91FC9197
S1134A201197882321F180858F7780871D921C92AE
S1134A3090915105915090935105A081B1811296A6
S1134A409C919C70983031F490917307915090939D
S1134A50730707C09C3029F49091500891509093AB
S1134A60500840EF50E0BF010E948E1611C08481AF
S1134A7095810E94BD01A3019201261B370B480BAF
S1134A80590B82169306A406B50610F449015A017F
S1134A900E5F1F4F31E00B39130709F0A8CF8114C3
S1134AA09104A104B10409F45FC0C814D904EA0450
S1134AB0FB0410F446015701B701A601481959092E
S1134AC06A097B0983E00E94BB0C4EC08091880276
S1134AD0811139C081E080938802809144089091CB
S1134AE04508A0914608B09147084091C8035091E9
S1134AF0C9036091CA037091CB03840F951FA61F4D
S1134B00B71F4091DE035091DF036091E003709181
S1134B10E10340938605509387056093880570935D
S1134B20890580938A0590938B05A0938C05B09397
S1134B308D0580918E058160826080938E058BE166
S1134B400E94510207C01092880280916C01811169
S1134B5010926C010E94551407C02F5F3F4F399685
S1134B602530310509F0A0CE8BE10E945102289630
S1134B700FB6F894DEBF0FBECDBFDF91CF911F916A
S1134B800F91FF90EF90DF90CF90BF90AF909F90E8
S1134B908F907F906F905F904F9008952F923F92E7
S1134BA04F925F926F927F928F929F92AF92BF9239
S1134BB0CF92DF92EF92FF920F931F93CF93DF93E5
S1134BC0CDB7DEB72B970FB6F894DEBF0FBECDBFBF
S1134BD090E08632910510F00C94E930FC01E15B21
S1134BE0FF4F0C94AC392FB7F894809153019091F6
S1134BF05401009711F42FBF2AC5049709F0CDC4BE
S1134C0081E090E018C0809172098150809372090C
S1134C10882311F081E03FC02FB7F89480915301AD
S1134C20909154018430910509F4B7C4892B09F09B
S1134C30B4C482E090E090935401809353012FBF59
S1134C400E94990F0C94E9308FB7F8949091E00189
S1134C5090930F0192E090935F018FBF80910F01B9
S1134C60813089F038F08230D1F0883009F42DC2D7
S1134C700C94E93080E00E94E002811165C00E943A
S1134C806B0A0C94E93081E00E94470A882311F4EE
S1134C900C94E93080E00E9451020C94E9309FB7F3
S1134CA0F89481E080930A081092E9018093460504
S1134CB01092CD039FBF82E00E94E002882321F07E
S1134CC00E94C21B0C94E93082E00E94470A0C94B3
S1134CD0E9308091390990913A09892B11F00C94AB
S1134CE0E93080915105882311F40C94E930EDE802
S1134CF0F1E0A191B191109781F018968C911897D9
S1134D0087FF0BC080936F0187E018968C931092F5
S1134D103A091092390983E0BECF21E0EB39F2075A
S1134D2041F70C94E93040917B0450917C046091EC
S1134D307D0470917E0480E00E94BB0C0C94E930E9
S1134D400E94DB1B0C94E9300E94801E0C94E93015
S1134D5010916B0114FF0FC080910C0190910D0113
S1134D6080579F4F0E94BD016F3F7F4F8F4F9F4FD2
S1134D7011F40C94A83080916B018C70843019F478
S1134D8080E00E94DE0180916B018F7B80936B0138
S1134D900E94B21980916B0184FD49C08F7E80937B
S1134DA06B01809137058F5F809337058091AB014C
S1134DB08F3008F08EE040EC53E060E070E004C017
S1134DC0440F551F661F771F8A95D2F7809165019E
S1134DD090916601A0916701B0916801840F951FBD
S1134DE0A61FB71F8093650190936601A093670186
S1134DF0B093680116FF03C08AEE0E94D417809115
S1134E006B0187FF12C090913705943070F08F7753
S1134E1080936B0180E00E94DE011092F1010E94F8
S1134E20B201D89A8AEE0E94D41788E048C28090D2
S1134E300C0190900D0110919703D4015C962C9174
S1134E402770C4012B870E94B8128A87F40100815D
S1134E50C40180579F4F0E94BD01109237052B85D6
S1134E6020934209222329F0422F440F420F4E5F20
S1134E7001C041E060933B0970933C0980933D0974
S1134E8090933E09D4015B968C915B978F708F5FF2
S1134E9080934E085A962C9122952F708CE390E0C3
S1134EA0A0E0B0E004C0880F991FAA1FBB1F2A9579
S1134EB0D2F78093E1019093E201A093E301B093D0
S1134EC0E40150E0B401645E7F4F84E397E00E9404
S1134ED0043AF401838D84FF1FC00F77802F90E084
S1134EE00596880F991F033110F0889601C00C961F
S1134EF090935E0880935D082091A30380915D08E0
S1134F0090915E08F4E12F9F800D911D11249093E0
S1134F105E0880935D0804C010925E0810925D08DC
S1134F20D40111968C911197829581708093980881
S1134F305A962C912F702093AB012F3009F42EE058
S1134F4080EC93E0A0E0B0E004C0880F991FAA1F92
S1134F50BB1F2A95D2F78093650190936601A093B5
S1134F606701B093680169E088E00E946F13112320
S1134F7009F49AC0E0910C01F0910D013F01BAE1EE
S1134F806B0E711C848D877029F0282F220F280F37
S1134F902C5F01C023E030E0D301A20FB31F7C914A
S1134FA04091B2035091B3038181877009F079C0B5
S1134FB060E0872F8770482E512C2F5F3F4FE62FDC
S1134FC0F0E0E415F50594F4EE0FFF1FE20FF31F74
S1134FD0E60DF71D818190E0982F8827E0818E2BC4
S1134FE08417950709F444C06F5FE9CF7077272EC3
S1134FF0312C44E0359427944A95E1F7440C551C30
S1135000420E531E1986F9856F2F70E062157305E1
S11350100CF047C093E0660F771F9A95E1F7640D93
S1135020751D660D771DCE0101960E94A51129817B
S11350303A814B815C816D817E81A0905805B0904E
S11350405905C0905A05D0905B05E0905C05F0903E
S11350505D0500915E0510915F058F8198850E9422
S1135060FB3911F40C94E330E985EF5FE987CBCF8A
S113507002E0F4018281807C803811F40C94E630E3
S113508063E094012A5F3F4FD40115964C91159724
S113509050E0542F442714968C91482B80E00E94B2
S11350A03018FA85FF2351F080910C0190910D0185
S11350B00E94861290930D0180930C0180916B01E4
S11350C08F7E80936B010C94E9300E946E200C94C7
S11350D0E9308091760780FF02C00C94E93080911A
S11350E05801882311F40C94E930E0915A01F0E05E
S11350F0EE0FFF1FE45CF74FE080F180F70186813B
S113510081110AC00E94860460E070E0C7010E9419
S1135110F30F89E00E945102D70118968C911897D9
S113512080933B0520917607822F816080937607D8
S11351308091380590913905892B11F00C94AE308B
S11351408091A703ED91FC9183838F5F8093A703E4
S1135150109233058091A8038093930880933205BD
S11351608091AB038093CA06809331058091A90393
S11351708093300590919803992329F0833018F097
S113518082E080933005809130058093790480918A
S1135190AC0380934409F7018681478150E0480FAE
S11351A0511D495F5F4F440F551F662757FD60959A
S11351B0762F40932F0750933007609331077093F5
S11351C032070190F081E02D818185FF0CC04A5C9B
S11351D05F4F6F4F7F4F40932F075093300760937B
S11351E03107709332074091B6035091B703609131
S11351F0B8037091B9034093A0015093A101609347
S1135200A2017093A301F0923905E09238058091D0
S11352106B01982F9C70983041F1806480936B01EE
S11352200E94B21980916B0185FD1FC090919F036C
S113523090935C081092AC01806280936B0115C05E
S113524080913C0590913D05609137097091380932
S113525010925B0110923D0510923C05009729F0D5
S11352600E94A01702C0109243090E945514B1C7AE
S113527080918802882309F4ACC780916C0188234B
S113528009F4A7C710926C01A4C783E090E090933F
S1135290CF038093CE039DC79FB7F89481E080939A
S11352A00A088093E901109246058093CD039FBFBD
S11352B081E090E09093CF038093CE0382E00E943C
S11352C0600C87C780915205882309F482C78091B6
S11352D08B0190918C012091D4033091D5038217D6
S11352E0930729F41092D5031092D40329C0209176
S11352F06D0130916E018217930711F50E94C1056B
S113530080915501811105C010926E0110926D01BA
S11353100DC0E0915701F0E0EE0FFF1FE85DFA4F7A
S11353208081918190936E0180936D016091080852
S11353307091090880918B0190918C010E94F30F68
S11353401092520546C7CE0101960E94E30C8111CA
S113535007C0898190919503981714F4809395035D
S11353602091B0013091B1014091B2015091B3014B
S11353706091560870915708809158089091590887
S11353800E946E0A882309F42CC1809195038D52E2
S1135390809395030E94900B0E9444130E94FD1079
S11353A084E090E09093540180935301909195038D
S11353B080918A01882369F0E0919A08F0919B0812
S11353C08091750721E0280F20937507E80FF11DE0
S11353D090839091750780918A01981303C081E0AE
S11353E080934F080E946B0A893009F0F2C60E942C
S11353F0DB05EFC68FB7F894909112088FBF8FB773
S1135400F89421E020930A08909312088FBF0E9419
S1135410070E0E94FD1084E090E090935401809365
S1135420530181E00E94BA02882309F4D2C6809114
S1135430C90681110E94E7056FE973E080E00E94CC
S11354407F0962EB73E083E50E947F0960EB73E000
S113545080E50E947F0961EA73E083E00E947F098E
S113546060EA73E082E00E947F096EE973E080EFF6
S11354700E947F0981E00E94600C0E94B519A9C6B0
S113548080915301909154018830910531F008F4D2
S1135490A0C60F97039738F09CC680E00E940E0FB9
S11354A08111CECBD7C00E94A80A8111A2C080E08E
S11354B00E940E0F882309F49CC0C2CB80E00E9496
S11354C00E0F81110FC00E94070E8091530190911D
S11354D05401079721F40E94900B0E94170B0E941D
S11354E0FD1077C683E1D7CB8FB7F8949091500124
S11354F091111DC58FBF10B316FB112710F98091B0
S1135500860490918704981721F1181322C084E02F
S113551090E090935201809351018FB7F89491E0F9
S1135520909350018FBF0E94D0010E94CC0160E093
S113553070E08DE10E941B0D0E94990D0E94D00124
S11355400E94900B0E9444131092AF0181E10E94CB
S113555051021093870484E19ECB9FB7F894809105
S11355600B019FBF882321F0813009F476C031C636
S1135570E0915301F09154013197E131F10508F0C4
S113558028C6EB58FF4F0C94AC392FB7F894809190
S1135590510190915201892B11F02FBF1AC681E05D
S11355A090E090935201809351012FBFDD9A44E122
S11355B050E060E070E080E00E94C10F0AC60E94E3
S11355C0070E0E94170B0E943102660F771F881F77
S11355D0991F6093560870935708809358089093C6
S11355E0590880E158CB0E94EB1AF3C50E9426109B
S11355F0F0C50E945E21EDC50E94900B0E944413E9
S11356001FB7F8948091510190915201049779F455
S113561082E090E090935201809351010E94D00166
S11356200E94CC0187E00E94100B0E94D0011FBF92
S11356301092520110925101DE98DD98DE9A109278
S1135640AF010E94FD1010925401109253010E9468
S11356509F1DBFC50E94A420BCC51FB7F8948091AC
S1135660DB019091DC01892BF9F00E94130C1CC022
S11356701FB7F8946091C5067091C60680919C0886
S113568090919D081092C6061092C50610929D082E
S113569010929C0810926A011092690110924805B8
S11356A0109247050E9475221FBF93C58FB7F894C7
S11356B09091EB019093080192E090934E018FBF7B
S11356C080910801811185C50E94CE010E94CC0100
S11356D085E1E1CA0E9406118FB7F8941092DC01AB
S11356E01092DB018FBF82E1D6CAE091CB06F09124
S11356F0CC06208122508091A401281B8FB7F894F6
S11357008FBF8090CB069090CC06822F90E0D4017E
S1135710A80FB91F5B963C913F77D4013C93A80F27
S1135720B91F5A968C91DF01AC56BF4F8C93D401AC
S11357308C91EB56FF4F80832C9380915301909171
S11357405401079709F02CC212968C91807390E053
S113575041973CF08091CE039091CF03039709F0D9
S11357601FC2F401818183FF07C08091CE03909111
S1135770CF03039709F014C20E94D302823009F4C4
S1135780F5C018F4882341F00BC2883009F4FAC03C
S1135790893009F44EC104C280915C01882309F464
S11357A0FFC180919108833009F055C0809175073D
S11357B08111F6C1D40111968C91119787708330B1
S11357C009F0EEC15A968C915A97883009F0E8C1D5
S11357D05C968C915C9790E0982F88275B962C912F
S11357E0822B9093B1038093B00360EB73E080E568
S11357F00E947F09F401868D90E0982F8827258DDB
S1135800822B9093AF038093AE03878D0E943E1644
S1135810D40191968C91919790E0982F8827909637
S11358202C91822B9093B3038093B20362EB73E0C9
S113583083E50E947F09809175078F5F80937507C8
S113584081E080934F0880916A058D7F80936A057B
S11358500E946B0AA5C1F4018181877009F0A0C17F
S113586080919703882309F47CC0809175079091F7
S11358708A01891758F081E080934F0880916A0566
S11358808D7F80936A050E946B0A65C020919A08F7
S113589030919B08F2E28F9F200D311D112440E0CE
S11358A060916707C4010E940B12811154C0E091FA
S11358B09A08F0919B0870907507DF0122E2729EAE
S11358C0A00DB11D1124612C671409F441C021817C
S11358D0328111968D919C91129728173907A9F559
S11358E080819C91891331C0823051F423813481A9
S11358F013968D919C9114972817390731F52BC075
S1135900833019F5238134814581568167817085FF
S11359101396AC9013971496BC9014971596CC904C
S113592015971696DC9016971796EC90179718967D
S1135930FC90189719960C9119971A961C911A971E
S1135940818592850E94FB3931F06394B296BCCF75
S1135950639460927507C4010E94B812882309F405
S11359601FC1C4010E9486124C011AC18091CE034A
S11359709091CF03039709F013C1D4018C918068EF
S11359808C930EC180916B0184FD0AC1F401818165
S1135990877009F005C18281482F407C09F400C159
S11359A08C7009F0FDC0858190E0982F88272481B0
S11359B0822B2091B0033091B1038217930709F031
S11359C0EFC0403879F4878190E0982F88272681AA
S11359D0822B2091AE033091AF038217930709F015
S11359E0DFC0C0C3403C09F0BDC3B4016A5F7F4F50
S11359F0CE0101960E94A51129813A814B815C81D7
S1135A006D817E81A090BE03B090BF03C090C0039F
S1135A10D090C103E090C203F090C3030091C4038B
S1135A201091C5038F8198850E94FB3909F49AC3AC
S1135A30B7C0D40111969C9111979770933019F4C3
S1135A405A969C919D5FFFB6F89480915B018111F9
S1135A5005C080917A04882309F49CC086E09B8762
S1135A600E94B401109238091092370980915B01A9
S1135A709B85882309F486C000913C0510913D055F
S1135A80913019F0953081F082C00115110509F4A7
S1135A907EC0F80181858F3F11F00E940A178EEFB6
S1135AA0D80119968C9373C0F401248D838D358DA0
S1135AB090918C03992309F46AC090917C059D7F91
S1135AC090937C0510928C03311150C090E0922B7E
S1135AD09093B3038093B20362EB73E083E50E9477
S1135AE07F098091AE039091AF03019609F44FC0F2
S1135AF0D40112969C91892F829586958695837000
S1135B00833009F044C0B4016F5F7F4F892F8C70DC
S1135B10883021F08C3021F083E003C087E001C09D
S1135B208DE0F401218126FF01C093FF8E5F680F91
S1135B30711DCE0101960E94A51189818093BE0337
S1135B408A818093BF038B818093C0038C8180936F
S1135B50C1038D818093C2038E818093C3038F819F
S1135B608093C40388858093C50311C08FEF9FEF92
S1135B709093B1038093B00360EB73E080E50E94DF
S1135B807F0905C0B401892F0E9412184C010E949C
S1135B90651905C0B401892F0E9412184C01FFBE7B
S1135BA09092CC068092CB068FB7F894109286031D
S1135BB08FBF0E9409110DC38091E80181113CC07F
S1135BC0C0906808D0906908E0906A08F0906B086B
S1135BD08FE00E946C042B013C01C0926808D092B3
S1135BE06908E0926A08F0926B081092E801BFB667
S1135BF0F8940E9431026419750986099709660FA1
S1135C00771F881F991F8B019C016C157D058E05DC
S1135C109F0510F49701860168017901C61AD70A15
S1135C20E80AF90AB701A60176956795579547954D
S1135C308FE00E94C10FBFBE0E943102660F771F22
S1135C40881F991F40C00E9431026B017C01CC0C5B
S1135C50DD1CEE1CFF1C8FE00E94B401E2E6F5E0BF
S1135C6020E044244A94542C642CBFE77B2E808586
S1135C7081FF1AC080819181A281B381B701A601FD
S1135C80481B590B6A0B7B0B84819581A681B781D4
S1135C90841B950BA60BB70B84159505A605B705B4
S1135CA01CF42C013D0121E0399635E0EF38F3076F
S1135CB0F1F6222309F48DC21414150416041704F2
S1135CC02CF0C701B6010E94382483C240926808B0
S1135CD05092690860926A0870926B0881E0809320
S1135CE0E8013FB6F8940E943102660F771F881FBF
