:100000000C948E010C94F22D0C94FC2D0C94062E65
:100010000C94102E0C941A2E0C94242E0C942E2E2C
:100020000C94622E0C94AD010C94AD010C94C72C71
:100030000C94BF2A0C94262B0C94D52D0C946F2A6B
:100040000C94972A0C946C2E0C94D32E0C94AD0126
:100050000C94402F0C94AD010C94AD010C94AD01A7
:100060000C94AE2B0C9479300C9458300C94633073
:100070000C946E300C948C300C943C300C94AD018C
:100080000C944D300C94AD010C94AD01F81516167E
:100090001B165C165C1643166016A7166B1F7B1F9B
:1000A0009D1FE01FF41F0420512A0E20BF20F320C3
:1000B0000021042108210F2117212E21872102224E
:1000C000222239227222FD221B232F233A237B274F
:1000D000B527022826283528F328042906290929C6
:1000E00045293C29C1228A22A422512AB822512A18
:1000F000512AEF22BB22BB22BB22512A512A512A6C
:10010000BE22BE22BE229C2FA72FBC2F05300C3052
:1001100013301A30213000081C1814100000211070
:10012000422063308440A550C660E7700881299161
:100130004AA16BB18CC1ADD1CEE1EFF13112100209
:1001400073325222B5529442F772D66239931883B1
:100150007BB35AA3BDD39CC3FFF3DEE362244334D5
:1001600020040114E664C774A44485546AA54BB501
:1001700028850995EEE5CFF5ACC58DD553367226A9
:1001800011163006D776F6669556B4465BB77AA751
:1001900019973887DFF7FEE79DD7BCC7C448E558F5
:1001A0008668A7784008611802282338CCC9EDD9A1
:1001B0008EE9AFF9488969990AA92BB9F55AD44A49
:1001C000B77A966A711A500A333A122AFDDBDCCBF1
:1001D000BFFB9EEB799B588B3BBB1AABA66C877C15
:1001E000E44CC55C222C033C600C411CAEED8FFD41
:1001F000ECCDCDDD2AAD0BBD688D499D977EB66EE9
:10020000D55EF44E133E322E511E700E9FFFBEEF90
:10021000DDDFFCCF1BBF3AAF599F788F8891A98152
:10022000CAB1EBA10CD12DC14EF16FE18010A1003C
:10023000C230E3200450254046706760B98398932C
:10024000FBA3DAB33DC31CD37FE35EF3B10290128C
:10025000F322D2323542145277625672EAB5CBA5F8
:10026000A89589856EF54FE52CD50DC5E234C324DC
:10027000A01481046674476424540544DBA7FAB7CC
:100280009987B8975FE77EF71DC73CD7D326F2362C
:100290009106B01657667676154634564CD96DC918
:1002A0000EF92FE9C899E9898AB9ABA9445865487C
:1002B00006782768C018E1088238A3287DCB5CDB6C
:1002C0003FEB1EFBF98BD89BBBAB9ABB754A545ACC
:1002D000376A167AF10AD01AB32A923A2EFD0FED38
:1002E0006CDD4DCDAABD8BADE89DC98D267C076C1C
:1002F000645C454CA23C832CE01CC10C1FEF3EFF0C
:100300005DCF7CDF9BAFBABFD98FF89F176E367E6B
:10031000554E745E932EB23ED10EF01E11241FBEB8
:10032000CFEFD0E1DEBFCDBF11E0A0E0B1E0ECE067
:10033000FCE600E00BBF02C007900D92A034B107AD
:10034000D9F717E0A0E4B1E001C01D92AD3DB107BF
:10035000E1F70E94C2300C9404360C940000D99A44
:100360000895FC0120816181862F90E0A0E0B0E03B
:1003700077276627922B2381622B2281722B089587
:10038000C0980895B89A0895C09A089587B78F7E47
:1003900087BF08951092D8061092D70684E0809304
:1003A000E901109267051092EA061092F801109286
:1003B0001303109212030895809112078F3F71F07A
:1003C000E82FF0E0E055FE4F9081909312079F3F99
:1003D00011F49093C9079FEF908308958FEF0895CC
:1003E00083B783BF00B600FCFDCF08959FB7F89494
:1003F000E82FF0E0E055FE4F20812F3FC9F421E0C7
:1004000030E0E091C907E81711F020E030E0232B3D
:1004100079F4209112072F3F19F48093120704C03A
:10042000F0E0E055FE4F80838093C90780E001C073
:1004300085E09FBF0895CF93CFB7F8948091C3070D
:10044000811108C08DE10E94F601811103C081E095
:100450008093C307CFBFCF910895809145058A301F
:1004600021F48091E901843021F081E080935501ED
:1004700008958FE10E94F6011092550108950F939F
:100480001F938FB7F89460911003709111030CB50E
:100490001DB506B602FE04C06F5F7F4F0CB51DB5DB
:1004A0008FBFCB01A0E0B0E07727662720E030E0E7
:1004B000602B712B822B932B1F910F9108959FB767
:1004C000F89420910D01281307C0809169018230B2
:1004D00019F49FBF81E008959FBF80E008959FB702
:1004E000F89480916901823019F09FBF8FEF0895D1
:1004F00080910D019FBF0895CF93C82F0E946F0276
:10050000C8130AC081E020915F013091600124305E
:10051000310519F080E001C085E0CF910895CF93B7
:10052000CFB7F89410925901109258010E94C60159
:1005300087B78F7D87BF0E94C401CFBF80E0CF9176
:100540000895CF92DF92EF92FF920F931F930E9434
:100550003F02C0909A05D0909B05E0909C05F090DA
:100560009D050091EA011091EB012091EC01309181
:10057000ED010C0D1D1D2E1D3F1D6C157D058E05FD
:100580009F0530F00C151D052E053F0558F005C0E0
:100590000C151D052E053F0590F5601771078207A4
:1005A000930768F568017901C61AD70AE80AF90ABB
:1005B00041E0C41640E8D406E104F10418F18B01CF
:1005C0009C0110582F4F3F4F00939A0510939B05A5
:1005D00020939C0530939D059701860110582109B1
:1005E00031090093EA011093EB012093EC01309361
:1005F000ED01C12C50E8D52EE12CF12C13C0C12CFB
:10060000D12C760100939A0510939B0520939C05AD
:1006100030939D051092EA011092EB011092EC01CB
:100620001092ED014CB55DB54D5F5F4F9A01261BF1
:10063000370B2C153D0518F4AB014C0D5D1D411514
:10064000510511F441E050E04150510950937900B7
:100650004093780081E080937C0080917D008160F0
:1006600080937D001F910F91FF90EF90DF90CF90CE
:100670000895CF93CFB7F89480916801882329F02B
:100680001092680183E00E94F601CFBFCF910895D8
:100690004091F5024330B8F450911B07242F30E00D
:1006A000250F311D2330310510F023503109F90198
:1006B000EE0FFF1FE453F84F918380834F5F409309
:1006C000F50280E0089581E008954091F6024430FB
:1006D000B8F450913902242F30E0250F311D243019
:1006E000310510F024503109F901EE0FFF1FE859D0
:1006F000FA4F918380834F5F4093F60280E0089524
:1007000081E008953091F6023323C1F0209139023F
:10071000E22FF0E0EE0FFF1FE859FA4F8081918140
:100720001182108231503093F6022F5F243019F07D
:1007300020933902089510923902089580E090E0E4
:1007400008953091F5023323C1F020911B07E22F69
:10075000F0E0EE0FFF1FE453F84F8081918111828A
:10076000108231503093F5022F5F233019F020931F
:100770001B07089510921B07089580E090E00895EC
:10078000CF92DF92EF92FF920F931F930E943F024E
:10079000C0906B01D0906C01E0906D01F0906E0103
:1007A0000091DF011091E0012091E1013091E2011F
:1007B0000C0D1D1D2E1D3F1D6C157D058E059F0505
:1007C00030F00C151D052E053F0558F005C00C1521
:1007D0001D052E053F0590F56017710782079307E9
:1007E00068F568017901C61AD70AE80AF90A41E0F2
:1007F000C41640E8D406E104F10418F18B019C0111
:1008000010582F4F3F4F00936B0110936C012093B2
:100810006D0130936E01970186011058210931094D
:100820000093DF011093E0012093E1013093E20196
:10083000C12C10E8D12EE12CF12C13C0C12CD12CED
:10084000760100936B0110936C0120936D0130933E
:100850006E011092DF011092E0011092E1011092FE
:10086000E2014CB55DB54D5F5F4F9A01261B370B1A
:100870002C153D0518F4AB014C0D5D1D41155105BE
:1008800011F441E050E04150510959BD48BD88E0A4
:1008900086BF87B7886087BF1F910F91FF90EF9049
:1008A000DF90CF900895CF92DF92EF92FF920F9357
:1008B0001F930E943F02C0904B02D0904C02E090E8
:1008C0004D02F0904E0200913D0210913E022091A7
:1008D0003F02309140020C0D1D1D2E1D3F1D6C1559
:1008E0007D058E059F0530F00C151D052E053F0575
:1008F00058F005C00C151D052E053F0590F5601735
:1009000071078207930768F568017901C61AD70A4B
:10091000E80AF90A41E0C41640E8D406E104F1040B
:1009200018F18B019C0110582F4F3F4F00934B0241
:1009300010934C0220934D0230934E029701860192
:1009400010582109310900933D0210933E02209373
:100950003F0230934002C12C00E8D02EE12CF12C54
:1009600013C0C12CD12C760100934B0210934C0282
:1009700020934D0230934E0210923D0210923E029F
:1009800010923F02109240024CB55DB54D5F5F4F33
:100990009A01261B370B2C153D0518F4AB014C0DA5
:1009A0005D1D4115510511F441E050E041505109E0
:1009B0005BBD4ABD80E186BF87B7806187BF1F915D
:1009C0000F91FF90EF90DF90CF9008952F923F927C
:1009D0004F925F926F927F928F929F92AF92BF924F
:1009E000CF92DF92EF92FF920F931F93EFB7F8949D
:1009F0008091340290913502A0913602B091370275
:100A00001C012D019C01A20160E070E080E090E0FB
:100A100003E00E94EF3251016201E12CF12C00E071
:100A200010E00E942F3359016A017B01F82F192F22
:100A300003E00E94EF320F2F0E942F3359016A0109
:100A40007B01F82F192F03E00E94EF320F2F0E9435
:100A50002F3359016A017B01F82F192F03E00E94FF
:100A6000EF320F2F0E942F3359016A017B01F82FBB
:100A7000192F03E00E94EF320F2F0E942F3301E065
:100A80000E94EF3229013A0100E20E940A33490133
:100A90005A01C301B2019695879577956795680DC0
:100AA000791D8A1D9B1D97FF05C09F776F5F7F4F44
:100AB0008F4F9F4F609334027093350280933602BC
:100AC00090933702EFBF1F910F91FF90EF90DF904F
:100AD000CF90BF90AF909F908F907F906F905F90DE
:100AE0004F903F902F90089530916301E32FF0E0F5
:100AF000EE0FFF1FEE53F94F80819181209161012C
:100B0000222359F03F5F343019F03093630102C063
:100B10001092630121502093610108958091660530
:100B2000811102C08BE004C08F5F809366058AE06C
:100B30000C94F601FF920F931F93CF93DF938AE1FA
:100B40008093030280E88093040213E0109305026F
:100B500010920602109200021092FA01FF24F39400
:100B6000F092FB011092FC0186E080930702109244
:100B700008020FE00093090210921E0210921F0259
:100B800010922002109221020E94E60460930A0251
:100B9000CFEFDFEFD0931302C09312020E94E6045E
:100BA00060930B02F092FD0185E080930F0284E0D8
:100BB00080930C021093100210930D02D093150233
:100BC000C09314021092FE0180E2809311021092F1
:100BD000FF0110920102D0931702C09316020093F6
:100BE0000E0284EF91E09093190280931802109204
:100BF000020282EC97E0A0E0B0E080931A029093AA
:100C00001B02A0931C02B0931D02DF91CF911F9194
:100C10000F91FF900895ECE1F1E06927660FF11D57
:100C2000E60FF11DC895982F802D3196C895902517
:100C30000895909149012091540191112FC0811183
:100C40002DC041E040934901809106018093480105
:100C5000822F81708093A601809100019091010103
:100C60009093470180934601809153018093450101
:100C7000322F31703427267EE32FF0E0EE0FFF1F76
:100C8000EE5FFE4F8081918190930101809300017E
:100C9000232B2093540182E20C94F60120FF02C022
:100CA0002B7F01C02D7F209354010895CF93DF93B4
:100CB000D82FC62F8091E901813069F030F0823061
:100CC000B9F1833009F444C001C1DD2309F418C12E
:100CD0000E94CA0112C1D11113C1809112039091D7
:100CE00013030E940B06909313038093120382E078
:100CF0008093E901C093EA06C43409F0E7C080910B
:100D0000540180FF04C082FDE1C0846003C081FD06
:100D1000DDC082608093540180915401877E886099
:100D200080935401109253018FEF80930601E8C025
:100D3000D111CCC06093F8018091120390911303FC
:100D40000E940B06909313038093120383E0D6C096
:100D5000809167058F3F09F4B9C0DD2309F451C0C4
:100D6000823008F4B3C0E091D706EE2311F0E150D1
:100D700001C0E2E0AE2FB0E0A952B94F12964C91FB
:100D800050E0542F4427EE2311F0E15001C0E2E07F
:100D9000F0E0E952F94F8281482B20911203309103
:100DA00013034217530709F091C080E00E9419060F
:100DB0002091F801E09101033091020381E08E0F50
:100DC000863010F4982F01C090E0931769F0F0E09E
:100DD000EF5FFC4F2283863018F48093010302C03A
:100DE000109201030E941B020E94CA0180914401DB
:100DF0008D7F8093440180915501882309F480C040
:100E000073C0823008F44DC0E091D806F0E0E9529A
:100E1000F94F228130915401932F9695969596958E
:100E20009370892F90E08130910519F0029781F03D
:100E30001FC0832F877E806180935401211102C0DF
:100E400083E101C080E0809353012093060110C02C
:100E500080915301863960F4E0910001F091010125
:100E6000E80FF11D2083809153018F5F8093530120
:100E70008091D806E82FF0E0E952F94F62818F5F48
:100E8000833018F48093D80602C01092D80680915F
:100E90001203909113030E940B0690931303809307
:100EA00012038091D706E82FF0E0E952F94FC28390
:100EB0008F5F833018F48093D70602C01092D70654
:100EC000809167058F5F809367051AC00E94CA01F1
:100ED000809144018D7F8093440181E00E94190636
:100EE00080915501882339F084E08093E901DF91F6
:100EF000CF910C942D02DD2319F081E08093E9015C
:100F0000DF91CF910895CF93DF93EC018091470556
:100F1000843120F48F5F8093470517C010924705F6
:100F2000CE014A969F938F938EE191E09F938F938A
:100F30000E9451339FB7F8948BB321E082278BBB7B
:100F40009FBF0F900F900F900F90CE01DF91CF9128
:100F5000089563FF04C062FD04C097E003C093E0FE
:100F600001C09DE067FF07C086FF02C09E5F01C011
:100F70009C5F66FD9A5FFA01908380E008958091FE
:100F8000FF02882349F01092FF021092D5011092BF
:100F9000D40187E10C94F601089580915302909159
:100FA0005402892B59F581E090E09093E3068093F9
:100FB000E20687ED91E090935402809353021092E1
:100FC000F4011092F30181E08093F5015E9A569A44
:100FD0008091F3019091F4019C012F5F3F4F30937A
:100FE000F4012093F301FC01E952FE4F90818FB789
:100FF000F8949CB95E9A8FBF80E0089585E00895CB
:1010000093E8980F923050F490914401916090933E
:10101000440190E29827909348058DE78093D7018B
:101020000C94CD079FB7F894809144018E7F8093F4
:1010300044018EE78093D7019FBF0C94CD07209188
:101040004F0130915001232BB1F52FB7F89433E1C4
:1010500030934D0110924C019093520180935101B5
:1010600082E090E09093500180934F0110924A01EA
:1010700010924B01665E60934E012FBF8FB7F894BC
:10108000909145059A3011F48FBF17C08FBF9FB75D
:10109000F89480915B02811106C081E080935B022D
:1010A00010925C0201C080E09FBF882331F00E9453
:1010B0001B0280E0089585E008951092500110927F
:1010C0004F0181E008958FEF80933F0780933E07A3
:1010D00084E68093440780910E0390910F03892B3F
:1010E000F1F48BE297E090930F0380930E038CE171
:1010F0008093420780910701882399F0109207019D
:101100006CE18BE297E00E941F08882359F091E080
:101110009093070110920F0310920E03089585E03B
:10112000089580E00895FB01833009F471C028F42C
:10113000882319F1823099F174C0833589F0803F9A
:1011400029F1803509F06DC0808191812FB7F89425
:1011500031E03093980590932B0280932A020BC0C4
:10116000808191812FB7F89431E030939805909366
:10117000500280934F022FBF54C090818FB7F894D4
:1011800021E020939805909398064AC090818FB7EC
:10119000F89421E0209398059093A50141C0908197
:1011A000892F8F7395FD806C992787FD909597FF08
:1011B00019C08F3F2FEF9207B9F08D3F2FEF9207A5
:1011C000ACF48B3F2FEF92079CF4883F2FEF9207F0
:1011D0008CF4843F2FEF92077CF48D3E9F4F74F088
:1011E00087E00DC08FE10BC08BE109C087E107C02C
:1011F00083E105C08FE003C08BE001C083E09FB7AF
:10120000F89421E020939805809330029FBF09C095
:1012100090818FB7F89421E020939805909326074A
:101220008FBF80915F01909160010697029718F43B
:1012300082E10C94F6010895FB01808780917B0583
:1012400081FD1FC0809161018430D8F490916201CA
:10125000E92FF0E0EE0FFF1FEE53F94F718360832B
:101260009F5F943019F09093620102C01092620166
:101270008F5F8093610187E00E94F60180E090E03B
:10128000089581EF90E00895CF93CFB7F8948091BF
:10129000D4019091D501892B19F4CFBF89E00EC0FC
:1012A00081E08093FF0289B78F7B89BF8091E8013D
:1012B000811102C00E94BF07CFBF80E0CF91089587
:1012C000CF93C82F0E946F02C8131BC02FB7F8948A
:1012D00080915F01909160018430910519F42FBFD6
:1012E00089E010C0079719F02FBF81E00BC088E09C
:1012F00090E09093600180935F012FBFCF910C9499
:10130000440985E0CF91089580E00C946009CF9264
:10131000DF92EF92FF92CF93DF9300D000D0CDB752
:10132000DEB76B017C0129833A834B835C830E9487
:101330003F02660F771F881F991F6C197D098E0960
:101340009F09E1E029813A814B815C816217730733
:101350008407950708F4E0E08E2F0F900F900F9010
:101360000F90DF91CF91FF90EF90DF90CF90089595
:101370009FB7F89481E020910B01211180E09FBF7D
:1013800008958F929F92AF92BF92CF92DF92EF9289
:10139000FF92CF93DF9300D000D0CDB7DEB74B01E3
:1013A0005C0129833A834B835C830E943F026B017B
:1013B0007C01CC0CDD1CEE1CFF1CC818D908EA0807
:1013C000FB084601570129813A814B815C81C21695
:1013D000D306E406F50610F449015A010E943F02C3
:1013E00060939A0570939B0580939C0590939D054F
:1013F000D501C4018C199D09AE09BF09B695A79501
:10140000979587958093EA019093EB01A093EC0167
:10141000B093ED010F900F900F900F90DF91CF914F
:10142000FF90EF90DF90CF90BF90AF909F908F9004
:101430000C94A1026E9A8FB9779BFECF8FB108955D
:101440009091730591110C941A0A80E00895CF933E
:10145000CFB7F8940E94B809811103C0CFBF81E0D3
:101460000EC00E94C4010E94C00183E00E94200AB5
:101470008BE00E94200A0E94C401CFBF80E0CF9180
:1014800008951F93CF93DF931F92CDB7DEB72091BE
:101490005801309159012330310509F049C0898341
:1014A0000E94C4010E94C0018981882311F085E057
:1014B00001C084E00E94200A83FD09C080E00E94F0
:1014C000200A83FB112710F981E0182701C011E0E1
:1014D0000E94C40111112EC084E090E09093590144
:1014E00080935801E0910C03F0910D030480F58185
:1014F000E02D8FEF83838283818380830E943F026C
:1015000060934B0270934C0280934D0290934E0275
:1015100080EE91E0A0E0B0E080933D0290933E0227
:10152000A0933F02B09340020E94530480E003C0A6
:1015300084E001C081E00F90DF91CF911F91089569
:10154000CF93CFB7F8940E94B809811103C0CFBFE1
:1015500081E00BC00E94C4010E94C00186E00E948D
:10156000200A0E94C401CFBF80E0CF910895CF929E
:10157000DF92EF92FF920F931F93CF93DF9300912F
:10158000290710912A07E090A904F090AA04C091BD
:101590000A03D0910B032091700130917101CE01AB
:1015A0000A962817390708F4C9016C0121E0C21A0C
:1015B000D108CC15DD05A0F40115110529F0F801BD
:1015C000EC0FFD1F808101C080E00E941A0AE11427
:1015D000F10421F0F701EC0FFD1F80832196E9CF84
:1015E0006F9A0115110531F0F801EC0FFD1F808194
:1015F0008FB901C01FB8D0930B03C0930A0380E0DA
:10160000DF91CF911F910F91FF90EF90DF90CF90DE
:101610000895509371014093700190932A0780932D
:1016200029077093AA046093A90410920B031092E7
:101630000A03452B19F08FB10C94B70A85E10E947B
:10164000F60180E00895CF93DF930E94C4010E94C9
:10165000C001C091E204D091E30480917305882316
:1016600091F08FE790E090935602809355028FE7B8
:101670000E941A0A41E050E0BE0180E090E0DF9154
:10168000CF910C94090BDF91CF910895EF92FF92C7
:101690001F93CF93DF931F92CDB7DEB77C0180916C
:1016A00073058823A9F08EE390E09093560280930F
:1016B00055028EE369830E941A0A182F6981462F0A
:1016C00050E060E070E0C7010E94090B812F01C06B
:1016D00080E00F90DF91CF911F91FF90EF900895E0
:1016E0000F931F93CF93CFB7F894909169019230E5
:1016F00071F490910D0198130AC0809144038111F7
:101700000EC080914503882309F43EC008C090E0D4
:10171000CFBF81E08927CF911F910F91089520912C
:101720006A0130E0C901019661E070E08D309105F9
:1017300011F480E090E0E82FE695E695E695F0E07C
:10174000EC5BFC4FA081482F47708B0102C0000F5B
:10175000111F4A95E2F7A801BA2FB02331F0409546
:101760004A23408380936A0106C08217930711F0D1
:101770000196DCCF8FEF8093D80181E080936901DF
:1017800082E00E94F60105C08FEF80930D01109258
:10179000690191E0BDCF4F925F926F927F928F92DD
:1017A0009F92AF92BF92CF92DF92EF92FF920F93F0
:1017B0001F93CF93DF930E943F02C4E9D5E040E03E
:1017C00044244A94542C3201ECE7F5E02991222379
:1017D000C1F180809180A280B3806B017C01C81828
:1017E000D908EA08FB080481158126813781C016D3
:1017F000D106E206F30668F0080D191D2A1D3B1DEF
:101800000083118322833383148215821682178208
:101810000CC060837183828393830C191D092E0988
:101820003F0904831583268337830481158126812C
:101830003781401651066206730618F028013901F7
:1018400041E0389625E0E439F20709F0BFCF4423A0
:1018500041F177FE04C0769467945794479460935F
:101860006B0170936C0180936D0190936E014092B7
:10187000DF015092E0016092E1017092E201DF919C
:10188000CF911F910F91FF90EF90DF90CF90BF907D
:10189000AF909F908F907F906F905F904F900C943F
:1018A000C00387B7877F87BFDF91CF911F910F91CB
:1018B000FF90EF90DF90CF90BF90AF909F908F9070
:1018C0007F906F905F904F900895EF92FF920F93EB
:1018D0001F93CF93DF938C01FFB6F8940E94B80951
:1018E000882311F10E94C4010E94C00180917305F8
:1018F000882381F083E50E941A0AE82E80E00E9486
:101900001A0AC82FD0E0DC2FCC2780E00E941A0AE8
:10191000C82B01C0E12C0E94C401E1FE05C0F80102
:10192000C083FFBE80E002C0FFBE81E0DF91CF91A7
:101930001F910F91FF90EF900895CF93DF9300D008
:10194000CDB7DEB79FB7F89420917305222389F0B5
:101950009FBF6A8379830E941A0A7981872F0E9428
:101960001A0A6A81862F0F900F90DF91CF910C9405
:101970001A0A9FBF80E00F900F90DF91CF910895DA
:101980008091980690E00B9725E0289FB001299F51
:10199000700D11246B597E4F706488E10C949D0C7E
:1019A000E1E080910903811101C0E0E041E0809114
:1019B000A501811101C040E021E08091DC0181118D
:1019C00001C020E080913102882351F051E030E0E5
:1019D00080919905811101C050E0852F932F02C09D
:1019E00080E090E06091260730E4639FB00111240D
:1019F00062627260F0E0FE2FEE27F295FF0FF07E3C
:101A00006E2B7F2B50E0542F44275295507F642B30
:101A1000752B30E0322F2227330F330F330F622B19
:101A2000732B54E0880F991F5A95E1F7682B792B97
:101A300081E10C949D0C80915D0190915E01019774
:101A4000F1F582E090E090935E0180935D01DE9875
:101A5000DE9A80915D0190915E01029781F583E0AD
:101A600090E090935E0180935D010E94C4010E940A
:101A7000C00168E170E08DE10E949D0C81E08093DF
:101A8000510210925C0180B386FB882780F9809315
:101A9000520283E10E94F60181E00E94200A6FE772
:101AA00072E08CE10E949D0C0E94C00C0E94D00C40
:101AB00066E57AE287E10E949D0C0C94C4010895CA
:101AC000509141015C3118F4252F30E002C02CE127
:101AD00030E08CE1E5E4F7E0DF011D928A95E9F75B
:101AE0004091430180E090E08217930791F0E42F4A
:101AF000F0E0E256FA4F6081552329F04F5F4A3FEC
:101B000009F440E05150FC01E55DF84F628F019609
:101B1000EBCF40934301509341010E946308882317
:101B200019F083E20C94F6010895CF93DF931F928E
:101B3000CDB7DEB79091400191110BC0909141015A
:101B40009D3738F091E09093400189830E94600DA9
:101B500089819FB7F894209141012A3FB8F43091D0
:101B60004201E32FF0E0E256FA4F808381E0830FD9
:101B70008A3F19F08093420102C0109242012F5F08
:101B8000209341019FBF80E090E003C09FBF8FEF93
:101B90009FEF0F90DF91CF910895CF92DF92EF9258
:101BA000FF92CF93C82F6A017B010E943F0229E078
:101BB000C29FF0011124EA5BFC4F660F771F881F5C
:101BC000991F6083718382839383C482D582E68266
:101BD000F78280858160826080878AE1CF91FF9063
:101BE000EF90DF90CF900C94F60197B79F7D97BF51
:101BF00090E296BF882319F08EB5806402C08EB53E
:101C00008F7B8EBD87B7806287BF80E008956E9816
:101C1000BA9ABB98B99A0E94C2016C9A6F986B9855
:101C20006A986E9A709A8DB18C7F8DB908951F93C2
:101C3000CF93DF931F92CDB7DEB71FB7F894909183
:101C4000730591111FC091E09093730520910801D5
:101C500090915A01211102C0923079F0911115C072
:101C600092E090935A011092080189830E94070E16
:101C70000E94C2010E94C001898180930B0180E013
:101C80001FBF07C01FBF85E004C01092730581E02D
:101C9000F7CF0F90DF91CF911F910895CF93CFB7DA
:101CA000F8949091730591110FC091E09093730592
:101CB00080930B019091080180915A01911110C0FD
:101CC000823071F484E118C021E030E001C0220FBD
:101CD0008A95EAF780915B01822B80935B012EC08D
:101CE000882349F180915A01811109C081E08093D4
:101CF0005A011092DE0186E10E94F6011FC0809118
:101D0000E3018F3FD9F481E090E0E0910901EE23F7
:101D100011F080E090E0892B89F480910A018F3FD7
:101D200019F410920A0104C0F0E0ED51FE4F108248
:101D30001092090103C00E94070ED4CFCFBF80E0EC
:101D4000CF91089580E00C944E0E8091D401909133
:101D5000D501892BF1F08091FF0281111AC083E037
:101D600090E09093D5018093D40181E08093E801C5
:101D70009FB7F89480910B019FBF813011F40C94B0
:101D8000230B81E00E94170E8823C9F381E00C9495
:101D90004E0E0895CF92DF92EF92FF92CF93DF9392
:101DA000C82F6A017B010E943F02DFB7F8942C2FF5
:101DB00030E0F901B3E0EE0FFF1FBA95E1F7E45808
:101DC000FA4F6083718382839383C482D582E682D3
:101DD000F782F901E458FA4F81E0808F80919705EE
:101DE000811102C00E94CB0BDFBFDF91CF91FF902A
:101DF000EF90DF90CF9008957F928F929F92AF9255
:101E0000BF92CF92DF92EF92FF920F931F93CF93E7
:101E1000DF9300D000D0CDB7DEB74B015C017FB6B9
:101E2000F89429833A834B835C830E943F02660FB8
:101E3000771F881F991F681979098A099B096B0107
:101E40007C0129813A814B815C8162177307840789
:101E5000950710F469017A0197018601061B170B9B
:101E6000280B390BB901A8017695679557954795C9
:101E700082E00E94CA0E7FBE0F900F900F900F90CD
:101E8000DF91CF911F910F91FF90EF90DF90CF9056
:101E9000BF90AF909F908F907F900895CF93CFB7D2
:101EA000F8948091580190915901019719F4CFBF8E
:101EB00089E00DC081E00E94F50D81E090E09093F3
:101EC00059018093580110925701CFBF80E0CF9104
:101ED000089580915B0181114EC080910B018F3F6D
:101EE00009F049C080917305811145C081E080935C
:101EF000C1068091AB0181111092C1068091C1068B
:101F00008823B9F180910801811104C080915A01A0
:101F1000823099F180915A01823029F5809108012F
:101F2000811121C080910A018F3FC9F09FEF9093EA
:101F30000801E82FF0E0ED51FE4F908190930A01E7
:101F40009F3F11F4909309019FEF90838093DE01EE
:101F500081E080935A0186E10E94F60104C08093DB
:101F6000080110925A0180915A01811109C06E989E
:101F700007C085E0089581E008950E94C401CACF9A
:101F800080E00895CF93CFB7F89490910B01981704
:101F900019F0CFBF81E02DC08FEF80930B017091BE
:101FA0005B01711105C0109273050E94690F1CC07E
:101FB00060E0872F90E06170AC01062E02C055955D
:101FC00047950A94E2F740FF12C060930B0181E04D
:101FD00090E001C0880F6A95EAF780958723809387
:101FE0005B0184E10E94F601CFBF80E002C06F5F19
:101FF000E2CFCF910895CF93CFB7F89480E00E94BD
:10200000C20FCFBFCF91089581E00C94C20FCF9340
:10201000CFB7F8948091D4019091D501892B09F123
:102020001092E8018091FF02882319F00E94BF07F7
:102030001AC08091DD01882311F0B79904C00E9970
:1020400008C0882319F081508093DD010E94A50EFD
:102050000AC082E090E09093D5018093D401109261
:10206000DD010E940410CFBFCF91089580E88093D6
:10207000A4011092E8011092190710921107109212
:10208000DD010E94C4010E94C00188E00E94200A74
:1020900088E00E94200A0E94C4010E9404100C944F
:1020A00007100F93CF9320913C0330913D03409153
:1020B0003E0350913F036091400370914103C091F2
:1020C0004203B0914303FC01A8E021938C2F9B2F86
:1020D00008E00E940A33C82FB92FA150B1F7CF9161
:1020E0000F910895EF92FF920F931F93CF93DF9379
:1020F000CDB7DEB72C970FB6F894DEBF0FBECDBFBD
:102100001FB7F894CE0101960E94511090912A02B7
:1021100080912B0299878A8790914F02809150027B
:102120009B878C871FBF21E080912A0290912B0210
:10213000019609F020E0722F770F770F770F60E09C
:102140006F6772608CE10E949D0C8FB7F89490913C
:102150007305911102C08FBF16C08FBF80EE0E9421
:102160001A0A80E80E941A0A8E010F5F1F4F7E0133
:102170008DE0E80EF11CF80181918F010E941A0A8E
:102180000E151F05C1F72C960FB6F894DEBF0FBED3
:10219000CDBFDF91CF911F910F91FF90EF900895E8
:1021A000CF93CFB7F8940E94B809811103C0CFBF75
:1021B00081E027C080919805882309F10E94C4011D
:1021C0000E94C00186E00E94200A0E94C4010E9471
:1021D000C0010E94C00C0E94D00C6091300270E0DF
:1021E000606E706885E10E949D0C0E94C4010E948F
:1021F000C0010E9472100E94C40110929805CFBFC6
:1022000080E0CF910895CF930E94D0100E944E0F8E
:10221000E0917005F0917105CFB7F8948091580165
:1022200090915901019729F582E090E0909359012E
:1022300080935801F0930D03E0930C03A081B181CA
:1022400086819781890F8E5F8C930E94C4010E94C2
:10225000C00189E00E94200A0E94C4010E94C001BE
:10226000E0910C03F0910D0361E0808191810E9467
:10227000460BCFBFCF9108950E94B80981110C94ED
:10228000031180E00E94170E8823C9F30C94A20E5C
:10229000CF92DF92EF92FF926B017C018091560109
:1022A00081111FC083E0809356010E943F0260931A
:1022B0009A0570939B0580939C0590939D05F694D9
:1022C000E794D794C794C092EA01D092EB01E092D0
:1022D000EC01F092ED01FF90EF90DF90CF900C9425
:1022E000A102FF90EF90DF90CF900895CF93E091FF
:1022F000A901F091AA01C0810E94E6042FEF3FEFEF
:1023000002C0220F331FCA95E2F74DE050E0509310
:10231000600140935F01209530952623372384E1A7
:10232000829FB001839F700D112480E090E0CF91D7
:102330000C944811CF92DF92EF92FF920F931F936C
:102340008091C607882339F00091D2061091D306F8
:102350001092C60718C0E091A901F091AA0110815E
:102360000E94E6042FEF3FEF02C0220F331F1A95A1
:10237000E2F7209530952623372384E1829F800160
:10238000839F100D11240E943F0220E030E0660F71
:10239000771F881F991F600F711F821F931FC090A6
:1023A000EF01D090F001E090F101F090F2016C1992
:1023B0007D098E099F09C0909D01D0909E01E090FB
:1023C0009F01F090A001C616D706E806F90698F41A
:1023D0008091700590917105892BE9F01092AB0105
:1023E0000E948F020E94FB0F84E090E090936001B6
:1023F00080935F0110C08EE090E090936001809325
:102400005F01C901B8011F910F91FF90EF90DF901C
:10241000CF900C9448111F910F91FF90EF90DF9097
:10242000CF9008952F923F924F925F926F927F923A
:102430008F929F92AF92BF92CF92DF92EF92FF92D4
:102440000F931F93FC01DB0117968C91179716963B
:102450008C901697912CA12CB12C5401992488248E
:10246000B82A14968C911497882A15968C911597F2
:10247000982A9401A50160E070E080E090E000E21D
:102480000E94EF321396FC90139712962C9012979D
:10249000822C912CA12CB12C540199248824BF2882
:1024A000FC908F281196AC919A2A140125015101B4
:1024B0006201E12CF12C00E010E00E942633208321
:1024C00031834283538364837583868397831F910B
:1024D0000F91FF90EF90DF90CF90BF90AF909F90C3
:1024E0008F907F906F905F904F903F902F900895C6
:1024F000FC01CB01328137FF29C0232F2C702830FB
:1025000021F02C3021F023E003C027E001C02DE0B2
:10251000418146FF01C033FF2E5F3196432F407C3F
:1025200030E0403861F4E20FF31F218130E0322FB8
:1025300022274081242BFC013183208305C0BF0169
:10254000620F731F0E94121280E0089581E00895C7
:102550008F929F92AF92BF92CF92DF92EF92FF92B3
:102560000F931F93CF93DF93EC014A01D901B02E53
:10257000F6018EEF860F823070F54B839C826230BD
:1025800039F49C9111968C919D838E8317E026C01F
:102590002C9111963C91119712964C91129713968B
:1025A0005C91139714966C91149715967C911597DE
:1025B00016968C91169717969C91DE0115966E01D2
:1025C0001DE0C10ED11C2D9308E00E940A33AC150A
:1025D000BD05C9F702C013E001C01DE08EEF8B0DF1
:1025E000823058F58E149F0411F4A11007C0DE014B
:1025F000A10FB11DEC921196FC921E5FA12FB0E0CD
:1026000082E0B81208C090818181CA0FDB1F9883D5
:1026100089831E5F12C02081318142815381648190
:10262000758186819781CA0FDB1FE8E0299308E056
:102630000E940A33E150D1F7185F812FDF91CF91CB
:102640001F910F91FF90EF90DF90CF90BF90AF90D0
:102650009F908F9008952FB7F894B79905C00E9961
:1026600003C02FBF81E0089580E88093A4011092F9
:10267000E80110921907109211071092DD0182E013
:1026800090E09093D5018093D40189B78F7B89BF67
:1026900080E488BF8AB780628ABF8AB78F7E8ABF8C
:1026A00089B7806489BF2FBF80E00895E0917005ED
:1026B000F09171050190F081E02D818185FF04C0CA
:1026C0000E94FB0F0C942B13089510920701E091C8
:1026D0000E03F0910F033097D1F080911A0780FD1F
:1026E00016C080910701811116C0238984896789EA
:1026F000673718F08CE10C94F60190E0922B848BF4
:10270000938BCF010E941F08882329F0F3CF81E02B
:1027100080930701E6CF0895CF93CFB7F8940E9436
:10272000B809811103C0CFBF81E01FC0B79B1BC098
:102730000E94C00180917305882349F08FE70E94B1
:102740001A0A80E00E941A0A80E00E941A0A0E9477
:10275000C4010E94C00188E00E94200A88E00E9413
:10276000200A0E94C401CFBF80E0CF9108951F933B
:10277000CF93DF931FB7F894809149058111AEC0C4
:102780008CE00E945F02882309F4A8C081E0809356
:10279000490580916801882339F00E94951C833097
:1027A000910509F486C089C080913202909133026C
:1027B0002091D607211106C021E0029709F020E000
:1027C000822F01C081E020916501811108C081E064
:1027D00090E0211102C080E090E0892B51F08CE064
:1027E0000E947C02882309F471C08CE00E9473145B
:1027F00070C08091A7019091A801892B09F442C073
:102800008CE00E947C02882309F460C0C091A7017B
:10281000D091A8010E946F028C3089F5209779F140
:1028200088819981892B59F18A819B81892B19F49F
:102830008F81811124C08C819D81892B01F12E8192
:102840008F8190E0820F911D8E379105C4F48091A5
:102850005F0190916001049791F48AE090E0909379
:10286000600180935F01D0937105C09370058EE184
:1028700093E09093AA018093A9010E943C1182E009
:1028800090E01BC08091E401811104C08091F402AA
:10289000882349F00E94951C8330910571F484E0EF
:1028A0000E94F60106C08CE00E947C02811111C0DA
:1028B0000DC01092490583E090E01FBF892B79F489
:1028C0008CE0DF91CF911F910C94600980E090E043
:1028D000F4CF109249058CE00E94700B1FBFDF916E
:1028E000CF911F9108951F93CF93DF931F92CDB780
:1028F000DEB790910D019C3021F489830E94B713BB
:1029000089811FB7F8949091690191110BC091E0F2
:10291000909369018093D80182E00E94F6011FBF65
:1029200080E017C0E82FE695E695E695F0E0EC5BD1
:10293000FC4F9081877021E030E001C0220F8A9522
:10294000EAF7892F822319F4292B208301C085E01F
:102950001FBF0F90DF91CF911F9108958CE00E94CF
:102960005F02811103C08CE00C9473140C94B713B4
:102970002FB7F894FC0180818093F4022FBF0C9450
:10298000AE1420EE280F982F41E050E060E070E098
:10299000992351F0440F551F661F771F91509213D2
:1029A000F7CF40E050E0BA014427587F7770452BBD
:1029B000462B472B51F08093030263E072E080E0E6
:1029C0000E94930880E090E0089588EE90E00895DA
:1029D000CF93DF93CFEFDFEFD0931502C0931402B4
:1029E00064E172E080E50E949308D0931702C093DF
:1029F000160266E172E083E50E94930810920002DD
:102A0000D0931302C0931202E2E2F2E0108211822C
:102A1000128213821482158216821782DF91CF915F
:102A20000895EF92FF920F931F93CF93DF93CDB74B
:102A3000DEB728970FB6F894DEBF0FBECDBF8C016E
:102A40007B01FC01608171816A5F7F4FCE0101963D
:102A50000E941212F801808191810E944803C801EE
:102A60000E94650310924502E114F10421F0F9EE91
:102A7000EF16F10411F40E94E81428960FB6F894AA
:102A8000DEBF0FBECDBFDF91CF911F910F91FF90A1
:102A9000EF900895EF92FF920F931F93CF93DF93E0
:102AA000CDB7DEB760970FB6F894DEBF0FBECDBFCF
:102AB0008B017A01813009F455C038F0823009F079
:102AC00055C0CB010E94650351C0DB01ED91FC9123
:102AD00082818C70883049F4878190E0982F882714
:102AE0002681822B9A87898707C0BF016A5F7F4F43
:102AF000CE0109960E941212D8011296ED91FC9116
:102B000013978FEF80838D919C910E944803C80199
:102B10000E94650388E0FE013996DE01119601905E
:102B20000D928A95E1F779816A815B814C813D81C3
:102B30002E819F818885EF2891F4D9987093F702B0
:102B40006093F8025093F9024093FA023093FB022B
:102B50002093FC029093FD028093FE0207C00E9426
:102B6000AF0104C0BA01C8010E94111560960FB6EA
:102B7000F894DEBF0FBECDBFDF91CF911F910F91B3
:102B8000FF90EF9008958091EE01882391F080915D
:102B900057038D7F809357031092EE018FEF9FEFC5
:102BA000909315028093140264E172E080E50C9426
:102BB00093080895CF92DF92EF92FF920F931F93A5
:102BC000CF93DF93CDB7DEB768970FB6F894DEBF2B
:102BD0000FBECDBF7B016A01082F10E0F8013197CD
:102BE000E830F10508F0FAC0EA5BFF4F0C94E932D7
:102BF000DB018D919C910E944803C7010E946503EF
:102C0000CD2819F01092EE01E9C02091110280EC5C
:102C100093E0289FA001299F500D1124662757FD9E
:102C20006095762F81E00E94CD0DD8C0BA01C70112
:102C30000E941115D3C0DB01ED91FC91BF016F5FC4
:102C40007F4F82818C708C3011F087E001C08DE065
:102C5000680F711DCE0101960E941212F70180814A
:102C600091810E944803C7010E94650310924502AA
:102C7000C114D10429F0F9EECF16D10409F0AEC089
:102C80000E94E814ABC08091DF049091E0040197AA
:102C90009093E0048093DF04DB0119968C9192E01D
:102CA000980F923020F0811102C00E94C315F701E5
:102CB000808191810E944803C7010E9465038EC0F4
:102CC000F4E06F397F0719F41092A70487C0EFE88A
:102CD000F1E080E090E0219131912E153F0541F423
:102CE000FC01EE0FFF1FE157FE4F1182108204C05E
:102CF00001968730910579F71092C5071092C407A5
:102D0000809173018F77D70118968C9318979091C3
:102D10001403915090931403ED91FC9192819C7057
:102D2000983031F49091720591509093720507C0DC
:102D30009C3029F49091D50691509093D506A60128
:102D4000B7010E944A1588E00E94F60147C0FB01C6
:102D50000081118180916401882309F43FC0B8018A
:102D60006A5F7F4FCE0141960E941212B801605FE8
:102D70007F4FCE0109960E94121288E0FE017196E3
:102D8000DE01119601900D928A95E1F779816A81B1
:102D90005B814C813D812E819F818885CD2891F476
:102DA000D9987093F7026093F8025093F902409318
:102DB000FA023093FB022093FC029093FD02809371
:102DC000FE0202C00E94AF01D7018D919C910E942A
:102DD0004803C7010E9465031092640168960FB60C
:102DE000F894DEBF0FBECDBFDF91CF911F910F9141
:102DF000FF90EF90DF90CF9008950F931F93CF93A4
:102E0000DF93EC018B0180917B058E7F80937B05A6
:102E100080916101882371F00E947405A801BE01B0
:102E200088850E94DA1587E0DF91CF911F910F917D
:102E30000C94F601DF91CF911F910F91089580912D
:102E4000A7019091A801009721F061EF70E00E9426
:102E5000FD168091CA079091CB07009721F061EF92
:102E600070E00E94FD161092CB071092CA071092D4
:102E7000A8011092A701809169038D7F8093690357
:102E800080E008954F925F926F927F928F929F920F
:102E9000AF92BF92CF92DF92EF92FF920F931F9368
:102EA000CF93DF93CDB7DEB768970FB6F894DEBF48
:102EB0000FBECDBFE6E4F3E020E030E0108511FF67
:102EC000D7C14080518062807380C480D580E68005
:102ED000F7804B015C0184189508A608B7088C148C
:102EE0009D04AE04BF0408F4C3C110FF03C01D7FDE
:102EF00010870AC0D301C2018C0D9D1DAE1DBF1DE0
:102F000080839183A283B383223009F4CDC018F467
:102F1000213081F006C0233009F460C1243009F467
:102F200060C180E00E945F02882309F4A8C10E946A
:102F30008409A5C18091EE01882309F4A0C11091F4
:102F4000E701123039F49091120280911302998BAB
:102F50008A8B1BC0209122023091230240912402CF
:102F600050912502609126027091270280912802DB
:102F700090912902FE017196DE015996219308E095
:102F80000E940A33EA17FB07C9F7409014025090D9
:102F900015020E9482034C01009709F48AC10E9425
:102FA000A1033C01009709F47BC0D40111969C93C6
:102FB0008E934A9615969C938E93149719961C920D
:102FC000E0901402F0901502123019F442E050E043
:102FD00002C048E050E0BE016F5E7F4FCE01019617
:102FE0000E944133D401ED91FC91123010F483E240
:102FF00004C04E145F04D9F783E68183812F880FC4
:10300000880F806C828380913C03898780913D0387
:103010008A8780913E038B8780913F038C878091C4
:1030200040038D87809141038E87809142038F8773
:1030300080914303888BA180A6FAAA24A0F8F4010A
:10304000808191819E01275F3F4F690103E09E01CE
:103050002F5F3F4FA201612F01960E94A812D40159
:1030600016968C9316978CE091E013969C938E9312
:10307000129781E017968C93B40186E00E941C0998
:10308000892B21F0C3010E9448030AC08091DF040C
:103090009091E00401969093E0048093DF04EFC0E8
:1030A000C4010E94650305C10E943F022B013C013F
:1030B000440C551C661C771C809109028F3070F4FB
:1030C00021E030E002C0220F331F8A95E2F7A0EC26
:1030D000B3E00E94AD329B01AC0104C020EC33E0B0
:1030E00040E050E0A0911802B09119020E94BC3259
:1030F0006B017C010FE811E0812C912C5401D80167
:10310000ED91FC91309709F44BC08091C4079091E8
:10311000C507E817F90709F443C0848195810E9427
:10312000B101A70196010E948709D801ED91FC9198
:103130001197882321F180858F7780871D921C92BB
:1031400090911403915090931403A081B181129631
:103150009C919C70983031F49091720591509093AD
:10316000720507C09C3029F49091D5069150909338
:10317000D50640EF50E0BF010E944A1511C084817E
:1031800095810E94B101A3019201261B370B480BC8
:10319000590B82169306A406B50610F449015A018C
:1031A0000E5F1F4F31E00D39130709F0A8CF8114CE
:1031B0009104A104B10409F462C0C814D904EA045A
:1031C000FB0410F446015701B701A601481959093B
:1031D0006A097B0982E00E94CD0D51C00E9439032B
:1031E0004EC08091E401811139C081E08093E401F7
:1031F0008091CA069091CB06A091CC06B091CD06E5
:1032000040912C0250912D0260912E0270912F025C
:10321000840F951FA61FB71F409141025091420293
:10322000609143027091440240936A0350936B0390
:1032300060936C0370936D0380936E0390936F03A0
:10324000A0937003B09371038091720381608260D8
:10325000809372038AE10E94F60107C01092E40194
:10326000809172018111109272010E94AE1407C008
:103270002F5F3F4F39962530310509F01FCE8AE187
:103280000E94F60168960FB6F894DEBF0FBECDBF60
:10329000DF91CF911F910F91FF90EF90DF90CF9032
:1032A000BF90AF909F908F907F906F905F904F9066
:1032B00008950E94C3150E94C315E1CF87E090E0F6
:1032C0009093600180935F010E94270A81E08093C0
:1032D000AB010E94FB0F0E946F02823031F08C30F4
:1032E00039F0811110C089E001C08DE00C94F60125
:1032F00080916801882319F085E00E94F601109200
:1033000049050C94B7130895CF9386E090E090930D
:10331000600180935F010E94D0100E948F020E9482
:103320004E0FCFB7F89420919D0130919E014091AE
:103330009F015091A0016091EF017091F001809187
:10334000F1019091F2010E948709882319F00E94EF
:103350005E191FC020919D0130919E0140919F01F7
:103360005091A0018091EF019091F001A091F101A5
:10337000B091F201E0915601E1110BC0E1E0E09360
:103380005601BC01CD0160517109810991090E946A
:10339000C109CFBFCF910895CF93C82F0E946F026C
:1033A000C81331C02FB7F89480915F0190916001EC
:1033B000049719F02FBF81E027C085E090E090933B
:1033C000600180935F012FBF1092EF011092F00116
:1033D0001092F1011092F20110929D0110929E0143
:1033E00010929F011092A0010E942B1381110CC01A
:1033F0000E94170E811103C00E94841902C00E940E
:10340000A20E80E001C081EFCF9108950F931F932A
:10341000CF93DF93E091660541E050E060E070E01B
:103420000E2E04C0440F551F661F771F0A94D2F753
:10343000F091D406F11121C08091CE069091CF0673
:10344000A091D006B091D1068827987FB770EB3154
:1034500090F4C1E0CE0F8A019B01082319232A238F
:103460003B23012B022B032B31F4440F551F661F06
:10347000771FEC2FECCFE0936605809166058B31CA
:1034800008F095C0F11195C00E94C11480911507F4
:10349000813079F008F45DC0823021F0833009F08A
:1034A000E2C007C080E0DF91CF911F910F910C9493
:1034B000CC19C0916601D09167010E946F02811101
:1034C000D2C0209709F4CFC088819981892B09F453
:1034D000CAC08A819B81892B19F48F818111C3C055
:1034E0008C819D81892B09F4BEC02E818F8190E053
:1034F000820F911D8E3791050CF0B5C02FB7F8944F
:1035000080915F0190916001049711F02FBFABC0D3
:1035100089E090E09093600180935F012FBFD0938A
:103520007105C09370051092EF011092F001109296
:10353000F1011092F20110929D0110929E011092E1
:103540009F011092A001DF91CF911F910F910C94D8
:103550003C118091460290914702A0914802B0919F
:1035600049024FB7F89420915F01309160012330F8
:10357000310519F02430310511F04FBF74C023E03C
:1035800030E03093600120935F014FBF8093AC0126
:103590009093AD01A093AE01B093AF018DEA8093FB
:1035A000F901DF91CF911F910F910C94A20EFF238F
:1035B00051F1809115078150823020F476956795FE
:1035C000579547950091CE061091CF062091D006D1
:1035D0003091D106DB01CA0188279927AA27BC7F31
:1035E000892B8A2B8B2B79F4DB01CA018023912351
:1035F000A223B323892B8A2B8B2B29F0440F551F31
:10360000661F771FE7CF809115078150823068F4DD
:1036100080911C0390911D039093150280931402D6
:1036200064E172E080E50E949308E0916601F09108
:103630006701309751F0808191810E944803809109
:103640006601909167010E946503109267011092D4
:10365000660180E00E945F02882319F080E00E94EA
:10366000700B10926501DF91CF911F910F9108951A
:10367000CF93DF9381E00E945F02882309F4B1C0F9
:103680000E941F170E941F1780917B058260809304
:103690007B0580916101882351F00E94740541EF00
:1036A00050E0BC01FC0180850E94DA15F2CF8091C8
:1036B0007B058D7F80937B0580916501882329F0B0
:1036C00081E08093D4060E94061A1092170782E2C6
:1036D00093E090931D0780931C07109222078BEABA
:1036E00094E090931F0780931E0784E08093230744
:1036F00084E795E0909321078093200780915703FA
:103700008D7F809357038FEF8093C7071092E70157
:103710001092EE01EAE4F5E08083349695E0E63617
:10372000F907D1F78FEF8093D9011092E60110923B
:1037300045021092E0041092DF04809160038D7FB7
:1037400080936003CFE8D1E0E991F991309731F0AF
:1037500041EF50E0BF0180850E944A15E1E0CD397C
:10376000DE0791F7EFE8F1E01192119281E0ED3977
:10377000F807D1F71092C5071092C40710921403EE
:10378000109272051092D50684E791E09093A00400
:1037900080939F0484EE96E09093A4048093A30406
:1037A00085ED96E09093A2048093A1041092A60464
:1037B0001092A70481E090E090933302809332024C
:1037C000809172018111109272011092E401809136
:1037D00072038D7F8093720381E0DF91CF910C940F
:1037E000F601DF91CF91089540910B028091650120
:1037F000811102C00C94700B80911507823081F109
:103800008330D1F1813009F082C0E0916601F091FE
:103810006701A081B18193E011969C93A081B18151
:1038200098E012969C93A081B18113964C934F5FC0
:1038300040930B02A081B1819FEF14969C93A081CD
:10384000B18115969C93A081B18116969C93A0811D
:10385000B18117969C9397E096839093180787837E
:103860008FEF9FEF909315028093140264E172E052
:1038700080E50E9493084BC05091110220EC33E088
:10388000529FC001539F900D1124AA2797FDA09528
:10389000BA2F8093460290934702A0934802B093B8
:1038A0004902E0916601F0916701A081B18183E452
:1038B00011968C93A081B18188EC12968C93A08193
:1038C000B18113964C934F5F40930B02A081B1815D
:1038D0008FEF14968C93A081B18115968C93A08163
:1038E000B18116968C93A081B18117968C938081BB
:1038F000918108960E945110E0916601F091670154
:103900008FE0868386E08093180781E087830C949C
:10391000061A8091320290913302029719F482E0E4
:103920000C94CC198EE00C94F6010E946F028C303E
:1039300089F480915F0190916001079759F08CE0C4
:103940000E947C02882349F08CE00E94CC1981E01F
:1039500090E0089583E090E0089580E090E008957D
:103960000E948F020E94A00A0E948C131092AB0149
:103970000E94FB0F84E090E09093600180935F01D0
:103980000E946F02813041F028F0823041F08C308B
:1039900041F008950C948E0580E00C94F6010C948F
:1039A000891C109249050C94B7130F931F93CF9362
:1039B000DF9300915F0110916001C0917005D0917B
:1039C00071050E94A00A0E948C131092AB010E9404
:1039D0008F020E94FB0F84E090E09093600180933F
:1039E0005F010F30110529F40E946F0281117AC026
:1039F0003DC00031110509F075C01091A30100917F
:103A0000A1010E946F028C3009F06CC01092380244
:103A1000113091F118F01B3091F14DC01092F70167
:103A20001092F601EA81FB818081843009F043C065
:103A3000E881F981818187708330E9F58BEE90E030
:103A40009093F7018093F6010023A9F181E0809320
:103A500068018091A7019091A8019093CB07809372
:103A6000CA071092A8011092A7018CE0DF91CF91B4
:103A70001F910F910C94CC1981EE90E018C08091A9
:103A8000D606882391F0109221039091F30290932F
:103A900020039091460590931F0390916F0190939E
:103AA0001E0381508093D60615C089EE90E0909356
:103AB000F7018093F6018091A7019091A80190935E
:103AC000CB078093CA071092A8011092A70183E048
:103AD0000E94F60110924905DF91CF911F910F913D
:103AE0000C94B713DF91CF911F910F91089580939C
:103AF000A1016093A3010E94B809811102C00C9436
:103B000044090C94D51C0F931F93CF93DF93EC01C2
:103B10008B018091550286FF2AC18F7B8F3309F07C
:103B2000B0C1C091E204D091E30428812093D60172
:103B30008091D4019091D5018430910579F118F4E8
:103B4000039749F003C18530910509F451C00697E8
:103B500009F469C0FBC084E090E09093D5018093A4
:103B6000D40130E08091A40190E02817390734F0A7
:103B7000DF91CF911F910F910C943610B79903C02C
:103B80000E9B0E9436108091D60184508E3880F7AB
:103B9000BE016F5F7F4F43E050E022C06A818981A0
:103BA00083FDE6CF42EA51E00E94A9078111E0CFF0
:103BB0004091A2018091D60190E00197242F30E03E
:103BC00028173907ACF6443098F085E090E09093E0
:103BD000D5018093D401435050E0BE016C5F7F4F0C
:103BE00080E090E0DF91CF911F910F910C94090B31
:103BF0004091D6012091A201842F90E0821B91096F
:103C0000893791050CF0B4CF86E090E09093D50110
:103C10008093D401421B50E06091E2047091E30470
:103C2000665E7F4FDDCF0E94C4018091DD0181116E
:103C300002C00E94041030911107C091E204D0919B
:103C4000E3042091D601332349F12530C0F180915E
:103C5000190790E0FC01EE0FFF1FEE0FFF1FE1516F
:103C6000F94F7081618152814381DE01AD56BF4FB2
:103C70007C93DE01AE56BF4F6C93DE01AF56BF4F53
:103C80005C93DE01A057BF4F4C9301968770992734
:103C90008093190731503093110711C08FEFDE0167
:103CA000AD56BF4F8C93DE01AE56BF4F8C93DE01F5
:103CB000AF56BF4F8C93DE01A057BF4F8C93E22FBE
:103CC000F0E08091A201E81BF109EC0FFD1F818D4E
:103CD00087FF36C0012BA1F189818770823029F5D9
:103CE00080915801909159010697D9F4E0910C0305
:103CF000F0910D030190F081E02D93818B81981359
:103D000010C00E94C601898121E030E03093590142
:103D10002093580160E0829581700E94771D0E9477
:103D2000690F80910903882359F08091FF02811166
:103D300007C088E1DF91CF911F910F910C94F6019C
:103D4000DF91CF911F910F910C9407101092E80111
:103D50000E94C4010E9404108091FF02882309F48C
:103D600090C0DF91CF911F910F910C94BF078E33BC
:103D700009F087C00E94C401E0910C03F0910D038B
:103D800080819181C817D90759F40E94C001E09140
:103D90000C03F0910D0380819181668101960DC025
:103DA0000196C817D90779F40E94C001E0910C036D
:103DB000F0910D03678182819381DF91CF911F91F3
:103DC0000F910C94460B83E090E0909359018093FF
:103DD000580180915F01909160018A30910509F44A
:103DE00044C08B30910509F446C0099709F049C0D9
:103DF0008CE090E09093600180935F0120919D01A1
:103E000030919E0140919F015091A00121153105F3
:103E10004105510579F48FE090E090936001809323
:103E20005F0180E00E94410ADF91CF911F910F91C5
:103E30000C9456138091EF019091F001A091F10143
:103E4000B091F201E0915601E1111BC0E2E0E09374
:103E50005601BC01CD016051710981099109DF91C1
:103E6000CF911F910F910C94C109DF91CF911F91B8
:103E70000F910C947611DF91CF911F910F910C94BB
:103E80009A11DF91CF911F910F9108952F923F9238
:103E90004F925F926F927F928F929F92AF92BF925A
:103EA000CF92DF92EF92FF920F931F93CF93DF9306
:103EB000CDB7DEB768970FB6F894DEBF0FBECDBFA3
:103EC00090E08432910510F00C94512AFC01E25BE1
:103ED000FF4F0C94E9322FB7F89480915F019091D5
:103EE0006001009711F42FBF77C3049709F01AC33C
:103EF00081E090E019C08091D60781508093D60769
:103F0000882319F081E00C9442292FB7F89480910E
:103F10005F01909160018430910509F403C3892BFE
:103F200009F000C382E090E09093600180935F010C
:103F30002FBF0E94A20E0C94512A8FB7F894909133
:103F4000D80190930D0192E0909369018FBF809109
:103F50000D01813089F038F08230C1F08C3009F4E5
:103F600005C10C94512A80E00E947C0281114CC151
:103F70000E9484090C94512A81E00E9460098823E0
:103F800011F40C94512A80E00C9442299FB7F894C4
:103F900081E0809398051092DC01809309031092D0
:103FA00031029FBF82E00E947C02882321F00E94A0
:103FB000891C0C94512A82E00E9460090C94512AB9
:103FC0008091CA079091CB076091F6017091F7013B
:103FD000109268011092CB071092CA07009709F45B
:103FE000C5C00E94FD16C2C08091E401882311F46F
:103FF0000C94512A80917201882311F40C94512A57
:10400000109272010C94512A40911A0250911B0295
:1040100060911C0270911D0283E0EEC080917B05CF
:1040200080FF02C00C94512A80916101882311F411
:104030000C94512AE0916301F0E0EE0FFF1FEE5364
:10404000F94F00811181D80116968C91811108C019
:104050000E947405C8010E94650387E00E94F60172
:10406000F80180858093000320917B05822F816079
:1040700080937B058091A7019091A801892B11F075
:104080000C9465290190F081E02D8181882339F01D
:1040900080910B0283838F5F80930B0206C0809117
:1040A0000A0283838F5F80930A021092210380911A
:1040B0000C028093F3028093200380910F0280937F
:1040C000460580931F0380910D0280931E039091FB
:1040D000FC01992329F0833018F082E080931E03BD
:1040E00080911E0380936F018091C4079091C50752
:1040F0008017910719F41092D60604C0809110021F
:104100008093D606D80116968C91169717964C91E7
:10411000179750E0480F511D495F5F4F440F551FDF
:10412000662757FD6095762F40931503509316032D
:104130006093170370931803ED91FC91818185FFC3
:104140000CC04A5C5F4F6F4F7F4F409315035093F5
:10415000160360931703709318031093A80100933C
:10416000A7018CE00E945F02882321F00E94B71310
:104170000C94512A8CE00E9473140C94512A809163
:10418000C4079091C507892B11F00C94512A809196
:104190001403882311F40C94512AEFE8F1E06191A3
:1041A000719161157105C9F0DB0118968C9187FF3B
:1041B00014C07093C5076093C4078093730187E0B0
:1041C0000E941C09892B11F40C94512A1092C507E6
:1041D0001092C40788E00C944229B1E0ED39FB0746
:1041E000F1F60C94512A4091460250914702609199
:1041F00048027091490280E00E94CD0D0C94512A32
:104200000E94061A0C94512A0E94F41B0C94512A05
:104210006CE177E080E00E941C090C94512A83E055
:1042200090E090933302809332020C94512A9FB70E
:10423000F89481E0809398058093DC011092090343
:10424000809331029FBF81E090E09093330280938E
:10425000320282E00E94700B0C94512ACE0101962A
:104260000E94650C811107C089819091F90198170E
:1042700014F48093F9012091AC013091AD0140918B
:10428000AE015091AF016091DC067091DD06809126
:10429000DE069091DF060E948709882309F466C133
:1042A0008091F9018D528093F9010E94A00A0E9429
:1042B0008C130E94FB0F84E090E090936001809348
:1042C0005F019091F90180918E01882369F0E0915E
:1042D0002707F091280780917A0521E0280F209385
:1042E0007A05E80FF11D908390917A0580918E01F7
:1042F000981303C081E08093D4060E94840989301A
:1043000011F00C94512A0E948E050C94512A8FB7FB
:10431000F894909198068FBF8FB7F89421E020937E
:104320009805909398068FBF0E94D0100E94FB0FB3
:1043300084E090E09093600180935F0181E00E94AF
:104340005F02882311F40C94512A8091E1048111B9
:104350000E949A0563E072E080E00E94930866E1A3
:1043600072E083E50E94930864E172E080E50E94B8
:10437000930865E072E083E00E94930864E072E0D5
:1043800082E00E94930862E072E080EF0E9493084E
:1043900081E00E94700B1092040264E072E082E0FF
:1043A0000E94930881E393E490931702809316028E
:1043B00066E172E083E50E94930811E01093FA0130
:1043C0008091160290911702019611F40C94512AD3
:1043D00082E791E8909315028093140264E172E001
:1043E00080E50E9493088AE10E94C1148FE08093C7
:1043F00009021093020262E072E080EF0E949308CB
:1044000086E040C780915F019091600188309105FE
:1044100041F010F40C94512A0F97039740F00C943C
:10442000512A80E00E94170E811183CDD8C00E94CE
:10443000B8098111A3C080E00E94170E882309F4F7
:104440009DC077CD80E00E94170E811110C00E94A0
:10445000D01080915F0190916001079721F40E9434
:10446000A00A0E94270A0E94FB0F0C94512A82E1A5
:1044700009C78FB7F89490915C019111C3C68FBFA3
:1044800010B316FB112710F980915102909152023E
:10449000981721F1181322C084E090E090935E01F8
:1044A00080935D018FB7F89491E090935C018FBF8A
:1044B0000E94C4010E94C00160E070E08DE10E9492
:1044C0009D0C0E9472100E94C4010E94A00A0E94CA
:1044D0008C131092AB0180E10E94F60110935202FE
:1044E00083E1D0C69FB7F89480910B019FBF8823CA
:1044F00021F0813009F476C0D4C7E0915F01F091DA
:1045000060013197E131F10508F0CBC7EE58FF4F5C
:104510000C94E9322FB7F89480915D0190915E017F
:10452000892B11F02FBFBDC781E090E090935E0111
:1045300080935D012FBFDD9A44E150E060E070E0C0
:1045400080E00E94CA0EADC70E94D0100E94270AC8
:104550000E943F02660F771F881F991F6093DC0639
:104560007093DD068093DE069093DF068FE08AC6A7
:104570000E94841996C70E94031193C70E94D51CFC
:1045800090C70E94A00A0E948C131FB7F8948091D4
:104590005D0190915E01049779F482E090E0909340
:1045A0005E0180935D010E94C4010E94C00187E00A
:1045B0000E94200A0E94C4011FBF10925E01109247
:1045C0005D01DE98DD98DE9A1092AB010E94FB0F30
:1045D0001092600110925F010E94381B62C70E9416
:1045E000B01C5FC71FB7F8948091D4019091D5019A
:1045F000892BF9F00E94230B1CC01FB7F89460911F
:10460000A9047091AA048091290790912A07109219
:10461000AA041092A90410922A0710922907109256
:1046200071011092700110920B0310920A030E9404
:10463000831D1FBF36C78FB7F8949091DE0190930A
:10464000080192E090935A018FBF80910801811177
:1046500028C70E94C2010E94C00184E113C60E94C3
:1046600004108FB7F8941092D5011092D4018FBF27
:1046700081E108C6E091E204F091E3042081225038
:104680008091A201281B8FB7F8948FBF8090E2041D
:104690009090E304822F90E0D401A80FB91F5B969D
:1046A0003C913F77D4013C93A80FB91F5A968C9147
:1046B000DF01AC56BF4F8C93D4018C91EB56FF4F6A
:1046C00080832C9380915F0190916001079709F09E
:1046D00006C412968C91807390E041973CF08091D3
:1046E000320290913302039709F0F9C3F4018181FA
:1046F00083FF07C08091320290913302039709F043
:10470000EEC30E946F02823009F452C18C3009F46A
:104710005FC18111E4C380916501882309F4DFC37F
:1047200080911507833009F04BC080917A05811183
:10473000D6C3D40111968C9111978770833009F0FC
:10474000CEC35A968C915A97883009F0C8C35C96AC
:104750008C915C9790E0982F88275B962C91822B08
:10476000909315028093140264E172E080E50E9448
:104770009308F401868D90E0982F8827258D822B51
:104780009093130280931202878D0E94C114D4016A
:1047900091968C91919790E0982F882790962C91E4
:1047A000822B909317028093160266E172E083E5F4
:1047B0000E94930880917A058F5F80937A0510C0DC
:1047C000F4018181877009F08AC38091FB018823FD
:1047D00009F485C380917A0590918E01891758F06C
:1047E00081E08093D40680914E038D7F80934E03A9
:1047F0000E94840974C30091270710912807F2E2F0
:104800008F9F000D111D1124F0906605D4011296A2
:104810008C911297982F9078903809F060C3829508
:10482000869586958370F801808315968C911597EF
:1048300090E0982F882714962C911497822B9283BE
:10484000818312968C911297807C803861F4179640
:104850008C91179790E0982F882716962C91822B91
:104860009483838307C0B4016A5F7F4FC8010396B6
:104870000E941212D8011B96FC921B971C961C9248
:104880001C97F401828D1D968C931D97838D1E9627
:104890008C931E97848D881F8827881F1F968C9362
:1048A0001F97EB56FF4F808150968C93C401805721
:1048B0009F4F0E94B101D80151966D937D938D93C6
:1048C0009C93549756961C921E92559757961C92FD
:1048D000579758961C92589759961C9259975A96E2
:1048E0001C925A975B961C925B975C961C925C9705
:1048F0005D961C925D975E961C925E975F961C92E9
:104900005F9790961C92909791961C92E091270742
:10491000F091280770907A05DF0102E2709EA00DE9
:10492000B11D1124612C671409F4B7C521813281AE
:1049300011968D919C91129728173907B1F58081B6
:104940009C91891332C0823051F4238134811396B3
:104950008D919C9114972817390739F5C0C283307F
:1049600021F52381348145815681678170851396B5
:10497000AC9013971496BC9014971596CC901597FD
:104980001696DC9016971796EC9017971896FC9051
:10499000189719960C9119971A961C911A97818558
:1049A00092850E94383309F49AC26394B296BBCFC1
:1049B0008091320290913302039709F090C2D401A2
:1049C0008C9180688C93C4010E9483074C0187C23C
:1049D000F40181818770833011F4828D8D5F1FB760
:1049E000F89490916801992309F48AC09091690321
:1049F0009D7F909369031092F7011092F601E09069
:104A0000CA07F090CB078530D9F0863009F473C01F
:104A1000813009F072C0E114F10409F46EC0D701CD
:104A200019968C918F3F21F0811102C00E94C3150D
:104A30008EEFF7018187C4010E9483074C015DC09E
:104A4000D4015C962C915C975B968C915B975D96FC
:104A50003C919091EE01992309F44FC09091570336
:104A60009D7F909357031092EE01311138C090E072
:104A7000922B909317028093160266E172E083E511
:104A80000E94930880911202909113020196A9F15D
:104A9000F40182818295869586958370833069F5CD
:104AA000BE016F5F7F4FC4010E947812898180939D
:104AB00022028A81809323028B81809324028C813D
:104AC000809325028D81809326028E818093270218
:104AD0008F81809328028885809329020EC08FEFF2
:104AE0009FEF909315028093140264E172E080E5D9
:104AF0000E94930802C00E94AF010E943903EEC1D8
:104B0000863009F453C028F4813069F0843081F094
:104B1000E5C1893009F484C18A3009F492C1873033
:104B200009F0DCC157C0C4010E9483074C01D6C103
:104B3000D40112968C9182958695869583708330E8
:104B400009F0CCC1BE016F5E7F4FC4010E94781294
:104B50008111C4C1F989EA897B896C895D894E8993
:104B60003F89288D20900F0730901007C1010196D2
:104B70009093100780930F07F987EA877B876C87EC
:104B80005D874E873F87288BEAE4F5E0E12CF12C26
:104B9000B080BFEFBB1609F49CC30FEFE01AF00A18
:104BA000349627E0E216F10499F798C1F401828166
:104BB0008295869586958370833009F08FC1BE01FA
:104BC0006F5F7F4FC4010E947812811187C10E94DC
:104BD000AF0184C1D40112962C91322F3C70B22FB8
:104BE000B07CBB2EB7FF7AC1C4010496383019F4EB
:104BF000C401089604C03C3011F4C4010E96F401BF
:104C0000318136FF01C023FF02966FE8662E61E016
:104C1000762EE0E0F0E0EB2CF12CD3012D913D91CC
:104C20003D0121153105A1F1D9016D917C91DB0187
:104C300012964C914C70B0E14B9FA00111244E157F
:104C40005F0531F56A5F7F4F00E8B01203C052E0A4
:104C5000A52E02C048E0A42EAC0100E0DB01CD90FF
:104C6000BD01DA01DD90AD01CD1003C00F5F0A1563
:104C7000A8F30A110DC0309751F020813181D9017C
:104C800011964C911197406111964C9301C0F90116
:104C9000BDE96B16B1E07B0609F0BFCF309729F074
:104CA00080858068808788E017C160909F0470903D
:104CB000A0048091A704811111C1BE01675F7F4FDD
:104CC000C4010E947812811109C1C4010196F40146
:104CD0006281262F2C7067FF01C1283021F02C3013
:104CE00021F0E3E003C0E7E001C0EDE0D40111965C
:104CF0003C91119736FF0BC063FF09C015964C918C
:104D0000159750E0542F442714968C9108C0F0E07A
:104D1000E80FF91F418150E0542F44278081482B30
:104D2000629566956695637030E035952795359563
:104D30002795A22FC3010196E0901402F09015026E
:104D4000E4E06E9F60011124F301728173737C298A
:104D5000F901B6E0EE0FFF1FBA95E1F77E2BF301E4
:104D60007283223071F4E0911602F0911702FA83F7
:104D7000E9834E155F05F9F4F30171817064718365
:104D800021C070913C03798370913D037A837091C7
:104D90003E037B8370913F037C83709140037D834E
:104DA000709141037E83709142037F83709143032E
:104DB0007887A230F0F6D30111967C9111977F7B12
:104DC00011967C93F301A180A6FAAA24A0F8DE0133
:104DD00011966D01022F9E01275F3F4F0E94A8127E
:104DE000E0919F04F091A004818181608183F301AF
:104DF0006281818183FD03C0A6010E94A907898188
:104E00008093A50481E08093A7046FE974E087E0B4
:104E10000E941C09892B09F461C01092A7045EC08E
:104E2000D40112968C9182958695869583708330F5
:104E300009F054C0BE016F5F7F4FC4010E94781219
:104E40004DC0809116029091170221E08E3FBFEF76
:104E50009B0709F420E0E0911C07F0911D071182E7
:104E6000222311F030E801C030EC3283409114026B
:104E70003091150244833583222321F08683978362
:104E800087E005C0CF0106960E9451108DE0809307
:104E900022078FEF8093AB041092AC048091020242
:104EA000813019F480E48093AC048091FA01813060
:104EB00029F48091AC0480688093AC048091FC015B
:104EC000813029F48091AC0480618093AC0410920D
:104ED000AD041092AE048CE00E94F6011FBF9092C8
:104EE000E3048092E2048FB7F8941092E8018FBF38
:104EF0000E940710D6C28091DB0181112FC0209142
:104F0000EB063091EC064091ED065091EE06EFB7BE
:104F1000F89460919005709191058091920590911F
:104F2000930580908C0590908D05A0908E05B09093
:104F30008F05680D791D8A1D9B1DEFBF2093EB0621
:104F40003093EC064093ED065093EE061092DB0191
:104F5000660F771F881F991F0E94FC0E0E943F0258
:104F6000660F771F881F991F3CC00E943F02660F83
:104F7000771F881F991F2FB7F894109296052FBF9F
:104F8000E6E4F3E0A0E02FEF3FEF4FEF5FE7B085FF
:104F9000B1FF1AC080809180A280B3807B018C0118
:104FA000E818F9080A091B09448055806680778053
:104FB0004E185F08600A710A4216530664067506A9
:104FC0001CF4A3019201A1E0399603E0E337F00756
:104FD000F1F6AA2309F465C2121613061406150683
:104FE0001CF00E9442175DC22093EB063093EC0642
:104FF0004093ED065093EE06E1E0E093DB010E9462
:10500000FC0E4FC280911A07882309F44AC20EE0B1
:1050100013E0F12CEE24E39490911A078E2D89234E
:1050200069F0D8011D921C928E2D80958923809362
:105030001A07F11003C083E20E94F601EE0CF3940C
:105040000E5F1F4FB8E0FB12E7CF2BC21091070194
:10505000E12FF0E0EE0FFF1FE25FFC4F11821082A4
:105060000E94651311111DC20CC12FB7F894109244
:10507000C3079091450588EF890F823050F4109254
:105080004505E0911B03F0E0EE0FFF1FE75AFD4FCF
:1050900010822FBF823010F52FB7F8948091160739
:1050A0008F5F8093160780914A02833481F4809148
:1050B000020390910103981739F08F5F80930203E8
:1050C000863010F01092020390E080E005C081E08D
:1050D000983009F480E091E02FBF03C091115AC0CD
:1050E00080E03FB7F894209155013FBF222339F06B
:1050F0002FB7F8943AE0309345052FBF3FC04FB724
:10510000F8943091590220915B024FBF6FB7F89429
:1051100050910103409102036FBF541709F13111FF
:105120001FC03FB7F89422E0209359025FB7F8946C
:1051300040910103209102035FBF421739F0E091D3
:105140000203F0E0EF5FFC4F228101C020E02093DA
:105150005A0223E420934A0210921B033FBF0CC063
:105160002150223058F42FB7F89435E430934A0296
:1051700031E030931B032FBF11E001C010E09923F1
:1051800051F09FB7F89480934C019FBF81E20E9439
:10519000F60101C010E00FB7F894809145058A3000
:1051A00021F40E942D020FBF7CC10FBF112309F40F
:1051B00078C18FB7F8941092D3071092D20710924B
:1051C0003C0291E0909345058FBF0E94120888230E
:1051D00009F467C18FB7F89499E0909345058FBFA4
:1051E0000E941B025EC1569857981092E4041092D8
:1051F000F501539A549A579A8FB7F894109245052F
:105200001092E9018FBF4DC180E23CC05398549881
:1052100048C11092500110924F018FB7F89410912D
:105220004C018FBF80914B01811113E0809151019E
:105230009091520120914A01211133C1209107011F
:1052400021112FC120910E0330910F032817390728
:1052500009F027C110920F0310920E030E946513EC
:1052600011110FC080914101882319F00E94600D37
:1052700018C11092400115C10E946308882309F4E7
:1052800010C183E20E94F6010CC13FB7F8948091EF
:105290004601909147012091A6013FBF3FB7F89486
:1052A000E22FF0E0EE0FFF1FEE5FFE4F9183808351
:1052B00080915401222311F08B7F01C08D7F809358
:1052C0005401109249013FBFECC02E7F20937B0513
:1052D000E8C00E9482033C01009709F4FFCD0E94C0
:1052E000A1032C01009721F4C3010E946503F6CDB0
:1052F000D30111969C938E934A9615969C938E9308
:105300001497C701880F991F880F991F865B9A4FC2
:1053100013969C938E93129780913C03898380917E
:105320003D038A8380913E038B8380913F038C836E
:10533000809140038D83809141038E83809142034D
:105340008F83809143038887409114025091150206
:10535000AA24A394FE0131966F017A0103E09E0115
:10536000275F3F4F63E0C20101960E94A812D3015C
:1053700016968C931697ED91FC91119783E6818395
:10538000ED91FC9111978CEC82831296ED91FC913A
:10539000139782E080831296ED91FC9113972182FE
:1053A00032821296ED91FC911397138284E0179646
:1053B0008C93179780911403873008F061C018967A
:1053C0001C920E943F02660F771F881F991FD3010E
:1053D0001496ED91FC91159763837283818390837A
:1053E000AFE8B1E0E0E08D919D91892B19F0EF5F7E
:1053F000E730C9F7F0E0EE0FFF1FE157FE4F718273
:105400006082809114038F5F80931403D301ED9128
:10541000FC9182818C70883031F4809172058F5FAD
:105420008093720507C08C3029F48091D5068F5F78
:105430008093D5068091600381FD50CD8091090253
:105440008F3070F421E030E002C0220F331F8A95C4
:10545000E2F7A0ECB3E00E94AD329B01AC0104C0C6
:1054600020EC33E040E050E0A0911802B091190226
:105470000E94BC32AB01BC0182E00E94CD0D2ECD5A
:10548000D3011296ED91FC911397B082C3010E9453
:105490006503C2010E94480321CD639460927A059E
:1054A0001ECD68960FB6F894DEBF0FBECDBFDF915C
:1054B000CF911F910F91FF90EF90DF90CF90BF9011
:1054C000AF909F908F907F906F905F904F903F90A4
:1054D0002F9008958FB7F89408958FBF08951F9265
:1054E0000F920FB60F9211240BB60F922F933F938A
:1054F0004F935F936F937F938F939F93AF93BF93DC
:10550000EF93FF930E94F001FF91EF91BF91AF9154
:105510009F918F917F916F915F914F913F912F91CB
:105520000F900BBE0F900FBE0F901F9018951F92FB
:105530000F920FB60F9211240BB60F922F933F9339
:105540004F935F936F937F938F939F93AF93BF938B
:10555000EF93FF930E94F001FF91EF91BF91AF9104
:105560009F918F917F916F915F914F913F912F917B
:105570000F900BBE0F900FBE0F901F901895789450
:105580001F920F920FB60F9211240BB60F922F930A
:105590003F934F935F936F937F938F939F93AF93BB
:1055A000BF93CF93EF93FF930E94C6017894CFB738
:1055B000F89480913D0290913E02A0913F02B091FB
:1055C0004002892B8A2B8B2B51F5809158019091A9
:1055D00059018430910528F18630910550F00697E5
:1055E00001F581E090E090935901809358016BE0C0
:1055F00010C00E94C4010E94C00189E00E94200ADC
:105600000E94C40181E090E0909359018093580179
:1056100067E080E00E94771D0E94690F02C00E942F
:105620005304CFBFFF91EF91CF91BF91AF919F9165
:105630008F917F916F915F914F913F912F910F903B
:105640000BBE0F900FBE0F901F90189578941F926D
:105650000F920FB60F9211240BB60F92AF92BF921A
:10566000CF92DF92EF92FF920F931F932F933F936E
:105670004F935F936F937F938F939F93AF93BF935A
:10568000CF93DF93EF93FF9387B7877F87BF78949C
:10569000BFB6F8948091DF019091E001A091E10103
:1056A000B091E201892B8A2B8B2BC1F581E080938D
:1056B000970504E915E0CCE7D5E0A12CF80180813D
:1056C000882301F1C880D980EA80FB800E943F02D4
:1056D0006C197D098E099F09CC80DD80EE80FF80EA
:1056E0006C157D058E059F0568F0F8011082AA20D3
:1056F00039F0F2E0AF1206C089E10E94F60102C063
:105700000E941B0DA3940F5F1F4F289683E0A812E1
:10571000D5CF109297050E94CB0B02C00E94C00308
:10572000BFBEFF91EF91DF91CF91BF91AF919F915C
:105730008F917F916F915F914F913F912F911F9129
:105740000F91FF90EF90DF90CF90BF90AF900F90B0
:105750000BBE0F900FBE0F901F90189578941F925C
:105760000F920FB60F9211240BB60F921F932F9327
:105770003F934F935F936F937F938F939F93AF93D9
:10578000BF93EF93FF93CF93DF931F92CDB7DEB715
:1057900080917D008E7F80937D0078941FB7F89470
:1057A0008091EA019091EB01A091EC01B091ED01A3
:1057B000892B8A2B8B2B09F0CAC08091560182302D
:1057C00051F08330A1F0813009F0C3C0109256012E
:1057D0000E945E19BEC0109256018FE090E0909337
:1057E000600180935F0180E00E94410A62C01092D4
:1057F000560180915F01909160018D30910509F40F
:1058000045C00E9709F0A5C00E94270A81E190E0EB
:105810009093600180935F01CE0101960E94650C18
:105820008111FACF8699ADC00E94A00A0E948C1304
:105830008BE090E09093600180935F01E091A9017B
:10584000F091AA0183818F5F838392819817A0F4DE
:105850008091700590917105892B09F47AC010929E
:10586000AB010E948F020E94FB0F84E090E09093B6
:10587000600180935F016DC080818F5F8083918123
:10588000981708F490830E949A1163C00E94270A17
:1058900080E190E09093600180935F01CE010196DA
:1058A0000E94650C8111FACF81E00E94410A8111AA
:1058B00003C00E9456134DC00E94A00A0E948C1380
:1058C000E091A901F091AA0183818F5F8383928186
:1058D000981738F48091700590917105892B59F4CF
:1058E00038C080818F5F80839181981708F49083FE
:1058F0000E9476112EC01092AB010E948F020E946E
:10590000FB0F84E090E09093600180935F010E9420
:105910006F028C30F1F41092380281EE90E0909397
:10592000F7018093F6018091A7019091A8019093CF
:10593000CB078093CA071092A8011092A70183E0B9
:105940000E94F601109249050E94B71302C00E94FE
:10595000A1021FBF0F90DF91CF91FF91EF91BF91F7
:10596000AF919F918F917F916F915F914F913F91F7
:105970002F911F910F900BBE0F900FBE0F901F9095
:10598000189581E00E94410A81114ECF92CF789400
:105990001F920F920FB60F9211240BB60F92CF9257
:1059A000DF92EF92FF921F932F933F934F935F935A
:1059B0006F937F938F939F93AF93BF93CF93DF9317
:1059C000EF93FF93C6B5D7B51FB7F8940E943F0277
:1059D000660F771F881F991F6B017C012AE0C21A8E
:1059E000D108E108F1089E01220F331F621B730BDF
:1059F000C61AD70AE108F10880915801909159011F
:105A00008430910519F00597F1F059C085E090E0D8
:105A1000909359018093580181E08093E5011092A1
:105A2000570180E00E94F50DE0910C03F0910D0309
:105A30000480F581E02DC382D282E182F0820E944F
:105A4000C601849997C01092E50181E00E94F50D8E
:105A5000E0910C03F0910D030190F081E02D818124
:105A600085FF1FC086E090E0909359018093580114
:105A70000E943F0260934B0270934C0280934D0250
:105A800090934E028BE490E0A0E0B0E080933D0262
:105A900090933E02A0933F02B09340020E945304B1
:105AA0000CC081E090E0909359018093580160E030
:105AB00080E00E94771D0E94690F849B5BC08091EB
:105AC0005701811133C08091E50181112FC081E020
:105AD0008093E50180E00E94F50D20B38091D40110
