S01800006275696C642F6D6963617A2F6D61696E2E73726563E5
S11300000C948E010C94F42D0C94FE2D0C94082E5B
S11300100C94122E0C941C2E0C94262E0C94302E20
S11300200C94642E0C94AD010C94AD010C94C92C69
S11300300C94C12A0C94282B0C94D72D0C94712A5F
S11300400C94992A0C946E2E0C94D52E0C94AD011C
S11300500C94422F0C94AD010C94AD010C94AD01A1
S11300600C94B02B0C947B300C945A300C94653067
S11300700C9470300C948E300C943E300C94AD0182
S11300800C944F300C94AD010C94AD01F815161678
S11300901B165C165C1643166016A7166B1F7B1F97
S11300A09D1FE01FF41F04200E201120C220F62003
S11300B0032107210B2112211A2131218A21042233
S11300C024223B227422FF221D2331233C237D273B
S11300D0B727042828283728F528062908290B29B2
S11300E047293E29C3228C22A622532ABA22532A04
S11300F0532AF122BD22BD22BD22532A532A532A58
S1130100C022C022C0229E2FA92FBE2F07300E303E
S113011015301C30233000081C1814100000211066
S1130120422063308440A550C660E770088129915D
S11301304AA16BB18CC1ADD1CEE1EFF13112100205
S113014073325222B5529442F772D66239931883AD
S11301507BB35AA3BDD39CC3FFF3DEE362244334D1
S113016020040114E664C774A44485546AA54BB5FD
S113017028850995EEE5CFF5ACC58DD553367226A5
S113018011163006D776F6669556B4465BB77AA74D
S113019019973887DFF7FEE79DD7BCC7C448E558F1
S11301A08668A7784008611802282338CCC9EDD99D
S11301B08EE9AFF9488969990AA92BB9F55AD44A45
S11301C0B77A966A711A500A333A122AFDDBDCCBED
S11301D0BFFB9EEB799B588B3BBB1AABA66C877C11
S11301E0E44CC55C222C033C600C411CAEED8FFD3D
S11301F0ECCDCDDD2AAD0BBD688D499D977EB66EE5
S1130200D55EF44E133E322E511E700E9FFFBEEF8C
S1130210DDDFFCCF1BBF3AAF599F788F8891A9814E
S1130220CAB1EBA10CD12DC14EF16FE18010A10038
S1130230C230E3200450254046706760B983989328
S1130240FBA3DAB33DC31CD37FE35EF3B102901288
S1130250F322D2323542145277625672EAB5CBA5F4
S1130260A89589856EF54FE52CD50DC5E234C324D8
S1130270A01481046674476424540544DBA7FAB7C8
S11302809987B8975FE77EF71DC73CD7D326F23628
S11302909106B01657667676154634564CD96DC914
S11302A00EF92FE9C899E9898AB9ABA94458654878
S11302B006782768C018E1088238A3287DCB5CDB68
S11302C03FEB1EFBF98BD89BBBAB9ABB754A545AC8
S11302D0376A167AF10AD01AB32A923A2EFD0FED34
S11302E06CDD4DCDAABD8BADE89DC98D267C076C18
S11302F0645C454CA23C832CE01CC10C1FEF3EFF08
S11303005DCF7CDF9BAFBABFD98FF89F176E367E67
S1130310554E745E932EB23ED10EF01E11241FBEB4
S1130320CFEFD0E1DEBFCDBF11E0A0E0B1E0E0E16E
S1130330FCE600E00BBF02C007900D92A034B107A9
S1130340D9F717E0A0E4B1E001C01D92AD3DB107BB
S1130350E1F70E94C4300C9406360C940000D99A3C
S11303600895FC0120816181862F90E0A0E0B0E037
S113037077276627922B2381622B2281722B089583
S1130380C0980895B89A0895C09A089587B78F7E43
S113039087BF08951092D8061092D70684E0809300
S11303A0EA01109267051092EA061092F901109280
S11303B01403109213030895809112078F3F71F074
S11303C0E82FF0E0EF54FE4F9081909312079F3F87
S11303D011F49093C9079FEF908308958FEF0895C8
S11303E083B783BF00B600FCFDCF08959FB7F89490
S11303F0E82FF0E0EF54FE4F20812F3FC9F421E0B5
S113040030E0E091C907E81711F020E030E0232B39
S113041079F4209112072F3F19F48093120704C036
S1130420F0E0EF54FE4F80838093C90780E001C061
S113043085E09FBF0895CF93CFB7F8948091C30709
S1130440811108C08DE10E94F601811103C081E091
S11304508093C307CFBFCF910895809146058A301A
S113046021F48091EA01843021F081E080935501E8
S113047008958FE10E94F6011092550108950F939B
S11304801F938FB7F89460911103709112030CB508
S11304901DB506B602FE04C06F5F7F4F0CB51DB5D7
S11304A08FBFCB01A0E0B0E07727662720E030E0E3
S11304B0602B712B822B932B1F910F9108959FB763
S11304C0F89420910D01281307C080916A018230AD
S11304D019F49FBF81E008959FBF80E008959FB7FE
S11304E0F89480916A01823019F09FBF8FEF0895CC
S11304F080910D019FBF0895CF93C82F0E946F0272
S1130500C8130AC081E02091600130916101243058
S1130510310519F080E001C085E0CF910895CF93B3
S1130520CFB7F89410925A01109259010E94C60153
S113053087B78F7D87BF0E94C401CFBF80E0CF9172
S11305400895CF92DF92EF92FF920F931F930E9430
S11305503F02C0909A05D0909B05E0909C05F090D6
S11305609D050091EB011091EC012091ED0130917A
S1130570EE010C0D1D1D2E1D3F1D6C157D058E05F8
S11305809F0530F00C151D052E053F0558F005C0DC
S11305900C151D052E053F0590F5601771078207A0
S11305A0930768F568017901C61AD70AE80AF90AB7
S11305B041E0C41640E8D406E104F10418F18B01CB
S11305C09C0110582F4F3F4F00939A0510939B05A1
S11305D020939C0530939D059701860110582109AD
S11305E031090093EB011093EC012093ED0130935A
S11305F0EE01C12C50E8D52EE12CF12C13C0C12CF6
S1130600D12C760100939A0510939B0520939C05A9
S113061030939D051092EB011092EC011092ED01C4
S11306201092EE014CB55DB54D5F5F4F9A01261BEC
S1130630370B2C153D0518F4AB014C0D5D1D411510
S1130640510511F441E050E04150510950937900B3
S11306504093780081E080937C0080917D008160EC
S113066080937D001F910F91FF90EF90DF90CF90CA
S11306700895CF93CFB7F89480916901882329F026
S11306801092690183E00E94F601CFBFCF910895D3
S11306904091F6024330B8F450911B07242F30E008
S11306A0250F311D2330310510F023503109F90194
S11306B0EE0FFF1FE453F84F918380834F5F409305
S11306C0F60280E0089581E008954091F7024430F5
S11306D0B8F450913A02242F30E0250F311D243014
S11306E0310510F024503109F901EE0FFF1FE859CC
S11306F0FA4F918380834F5F4093F70280E008951F
S113070081E008953091F7023323C1F020913A0239
S1130710E22FF0E0EE0FFF1FE859FA4F808191813C
S11307201182108231503093F7022F5F243019F078
S113073020933A02089510923A02089580E090E0DE
S113074008953091F6023323C1F020911B07E22F64
S1130750F0E0EE0FFF1FE453F84F80819181118286
S1130760108231503093F6022F5F233019F020931A
S11307701B07089510921B07089580E090E00895E8
S1130780CF92DF92EF92FF920F931F930E943F024A
S1130790C0906C01D0906D01E0906E01F0906F01FB
S11307A00091E0011091E1012091E2013091E30117
S11307B00C0D1D1D2E1D3F1D6C157D058E059F0501
S11307C030F00C151D052E053F0558F005C00C151D
S11307D01D052E053F0590F56017710782079307E5
S11307E068F568017901C61AD70AE80AF90A41E0EE
S11307F0C41640E8D406E104F10418F18B019C010D
S113080010582F4F3F4F00936C0110936D012093AC
S11308106E0130936F019701860110582109310947
S11308200093E0011093E1012093E2013093E3018E
S1130830C12C10E8D12EE12CF12C13C0C12CD12CE9
S1130840760100936C0110936D0120936E01309337
S11308506F011092E0011092E1011092E2011092F6
S1130860E3014CB55DB54D5F5F4F9A01261B370B15
S11308702C153D0518F4AB014C0D5D1D41155105BA
S113088011F441E050E04150510959BD48BD88E0A0
S113089086BF87B7886087BF1F910F91FF90EF9045
S11308A0DF90CF900895CF92DF92EF92FF920F9353
S11308B01F930E943F02C0904C02D0904D02E090E2
S11308C04E02F0904F0200913E0210913F0220919F
S11308D04002309141020C0D1D1D2E1D3F1D6C1553
S11308E07D058E059F0530F00C151D052E053F0571
S11308F058F005C00C151D052E053F0590F5601731
S113090071078207930768F568017901C61AD70A47
S1130910E80AF90A41E0C41640E8D406E104F10407
S113092018F18B019C0110582F4F3F4F00934C023C
S113093010934D0220934E0230934F02970186018B
S113094010582109310900933E0210933F0220936D
S1130950400230934102C12C00E8D02EE12CF12C4E
S113096013C0C12CD12C760100934C0210934D027C
S113097020934E0230934F0210923E0210923F0297
S113098010924002109241024CB55DB54D5F5F4F2D
S11309909A01261B370B2C153D0518F4AB014C0DA1
S11309A05D1D4115510511F441E050E041505109DC
S11309B05BBD4ABD80E186BF87B7806187BF1F9159
S11309C00F91FF90EF90DF90CF9008952F923F9278
S11309D04F925F926F927F928F929F92AF92BF924B
S11309E0CF92DF92EF92FF920F931F93EFB7F89499
S11309F08091350290913602A0913702B09138026D
S1130A001C012D019C01A20160E070E080E090E0F7
S1130A1003E00E94F13251016201E12CF12C00E06B
S1130A2010E00E94313359016A017B01F82F192F1C
S1130A3003E00E94F1320F2F0E94313359016A0101
S1130A407B01F82F192F03E00E94F1320F2F0E942F
S1130A50313359016A017B01F82F192F03E00E94F9
S1130A60F1320F2F0E94313359016A017B01F82FB3
S1130A70192F03E00E94F1320F2F0E94313301E05D
S1130A800E94F13229013A0100E20E940C3349012B
S1130A905A01C301B2019695879577956795680DBC
S1130AA0791D8A1D9B1D97FF05C09F776F5F7F4F40
S1130AB08F4F9F4F609335027093360280933702B5
S1130AC090933802EFBF1F910F91FF90EF90DF904A
S1130AD0CF90BF90AF909F908F907F906F905F90DA
S1130AE04F903F902F90089530916401E32FF0E0F0
S1130AF0EE0FFF1FEE53F94F808191812091620127
S1130B00222359F03F5F343019F03093640102C05E
S1130B10109264012150209362010895809166052A
S1130B20811102C08BE004C08F5F809366058AE068
S1130B300C94F601FF920F931F93CF93DF938AE1F6
S1130B408093040280E88093050213E01093060268
S1130B5010920702109201021092FB01FF24F394F9
S1130B60F092FC011092FD0186E08093080210923D
S1130B7009020FE000930A0210921F021092200251
S1130B8010922102109222020E94E60460930B024A
S1130B90CFEFDFEFD0931402C09313020E94E60458
S1130BA060930C02F092FE0185E08093100284E0D1
S1130BB080930D021093110210930E02D09316022B
S1130BC0C09315021092FF0180E2809312021092EA
S1130BD0000210920202D0931802C09317020093ED
S1130BE00F0284EF91E090931A02809319021092FD
S1130BF0030282EC97E0A0E0B0E080931B029093A4
S1130C001C02A0931D02B0931E02DF91CF911F918D
S1130C100F91FF900895ECE1F1E06927660FF11D53
S1130C20E60FF11DC895982F802D3196C895902513
S1130C300895909149012091540191112FC081117F
S1130C402DC041E040934901809106018093480101
S1130C50822F81708093A7018091000190910101FE
S1130C6090934701809346018091530180934501FD
S1130C70322F31703427267EE32FF0E0EE0FFF1F72
S1130C80EE5FFE4F8081918190930101809300017A
S1130C90232B2093540182E20C94F60120FF02C01E
S1130CA02B7F01C02D7F209354010895CF93DF93B0
S1130CB0D82FC62F8091EA01813069F030F082305C
S1130CC0B9F1833009F444C001C1DD2309F418C12A
S1130CD00E94CA0112C1D11113C1809113039091D2
S1130CE014030E940B06909314038093130382E071
S1130CF08093EA01C093EA06C43409F0E7C0809106
S1130D00540180FF04C082FDE1C0846003C081FD02
S1130D10DDC082608093540180915401877E886095
S1130D2080935401109253018FEF80930601E8C021
S1130D30D111CCC06093F9018091130390911403F5
S1130D400E940B06909314038093130383E0D6C090
S1130D50809167058F3F09F4B9C0DD2309F451C0C0
S1130D60823008F4B3C0E091D706EE2311F0E150CD
S1130D7001C0E2E0AE2FB0E0A952B94F12964C91F7
S1130D8050E0542F4427EE2311F0E15001C0E2E07B
S1130D90F0E0E952F94F8281482B209113033091FE
S1130DA014034217530709F091C080E00E9419060A
S1130DB02091F901E09102033091030381E08E0F49
S1130DC0863010F4982F01C090E0931769F0F0E09A
S1130DD0EE5FFC4F2283863018F48093020302C036
S1130DE0109202030E941B020E94CA0180914401D6
S1130DF08D7F8093440180915501882309F480C03C
S1130E0073C0823008F44DC0E091D806F0E0E95296
S1130E10F94F228130915401932F9695969596958A
S1130E209370892F90E08130910519F0029781F039
S1130E301FC0832F877E806180935401211102C0DB
S1130E4083E101C080E0809353012093060110C028
S1130E5080915301863960F4E0910001F091010121
S1130E60E80FF11D2083809153018F5F809353011C
S1130E708091D806E82FF0E0E952F94F62818F5F44
S1130E80833018F48093D80602C01092D80680915B
S1130E901303909114030E940B0690931403809300
S1130EA013038091D706E82FF0E0E952F94FC2838B
S1130EB08F5F833018F48093D70602C01092D70650
S1130EC0809167058F5F809367051AC00E94CA01ED
S1130ED0809144018D7F8093440181E00E94190632
S1130EE080915501882339F084E08093EA01DF91F1
S1130EF0CF910C942D02DD2319F081E08093EA0157
S1130F00DF91CF910895CF93DF93EC018091560147
S1130F10843120F48F5F8093560117C010925601DC
S1130F20CE014A969F938F938EE191E09F938F9386
S1130F300E9453339FB7F8948BB321E082278BBB75
S1130F409FBF0F900F900F900F90CE01DF91CF9124
S1130F50089563FF04C062FD04C097E003C093E0FA
S1130F6001C09DE067FF07C086FF02C09E5F01C00D
S1130F709C5F66FD9A5FFA01908380E008958091FA
S1130F800003882349F0109200031092D6011092B6
S1130F90D50187E10C94F601089580915402909153
S1130FA05502892B59F581E090E09093E3068093F4
S1130FB0E20688ED91E090935502809354021092DA
S1130FC0F5011092F40181E08093F6015E9A569A3D
S1130FD08091F4019091F5019C012F5F3F4F309374
S1130FE0F5012093F401FC01E852FE4F90818FB784
S1130FF0F8949CB95E9A8FBF80E0089585E00895C7
S113100093E8980F923050F490914401916090933A
S1131010440190E29827909348058DE78093D80186
S11310200C94CD079FB7F894809144018E7F8093F0
S113103044018EE78093D8019FBF0C94CD07209183
S11310404F0130915001232BB1F52FB7F89433E1C0
S113105030934D0110924C019093520180935101B1
S113106082E090E09093500180934F0110924A01E6
S113107010924B01665E60934E012FBF8FB7F894B8
S1131080909146059A3011F48FBF17C08FBF9FB758
S1131090F89480915C02811106C081E080935C0227
S11310A010925D0201C080E09FBF882331F00E944E
S11310B01B0280E0089585E008951092500110927B
S11310C04F0181E008958FEF80933F0780933E079F
S11310D084E68093440780910F0390911003892B39
S11310E0F1F48BE297E09093100380930F038CE16B
S11310F08093420780910701882399F01092070199
S11311006CE18BE297E00E941F08882359F091E07C
S1131110909307011092100310920F03089585E035
S1131120089580E00895FB01833009F471C028F428
S1131130882319F1823099F174C0833589F0803F96
S113114029F1803509F06DC0808191812FB7F89421
S113115031E03093980590932C0280932B020BC0BE
S1131160808191812FB7F89431E030939805909362
S11311705102809350022FBF54C090818FB7F894CE
S113118021E020939805909398064AC090818FB7E8
S1131190F89421E0209398059093A60141C0908192
S11311A0892F8F7395FD806C992787FD909597FF04
S11311B019C08F3F2FEF9207B9F08D3F2FEF9207A1
S11311C0ACF48B3F2FEF92079CF4883F2FEF9207EC
S11311D08CF4843F2FEF92077CF48D3E9F4F74F084
S11311E087E00DC08FE10BC08BE109C087E107C028
S11311F083E105C08FE003C08BE001C083E09FB7AB
S1131200F89421E020939805809331029FBF09C090
S113121090818FB7F89421E0209398059093260746
S11312208FBF80916001909161010697029718F435
S113123082E10C94F6010895FB01808780917B057F
S113124081FD1FC0809162018430D8F490916301C4
S1131250E92FF0E0EE0FFF1FEE53F94F7183608327
S11312609F5F943019F09093630102C01092630160
S11312708F5F8093620187E00E94F60180E090E036
S1131280089581EF90E00895CF93CFB7F8948091BB
S1131290D5019091D601892B19F4CFBF89E00EC0F6
S11312A081E08093000389B78F7B89BF8091E90136
S11312B0811102C00E94BF07CFBF80E0CF91089583
S11312C0CF93C82F0E946F02C8131BC02FB7F89486
S11312D080916001909161018430910519F42FBFD0
S11312E089E010C0079719F02FBF81E00BC088E098
S11312F090E090936101809360012FBFCF910C9493
S1131300440985E0CF91089580E00C946009CF9260
S1131310DF92EF92FF92CF93DF9300D000D0CDB74E
S1131320DEB76B017C0129833A834B835C830E9483
S11313303F02660F771F881F991F6C197D098E095C
S11313409F09E1E029813A814B815C81621773072F
S11313508407950708F4E0E08E2F0F900F900F900C
S11313600F90DF91CF91FF90EF90DF90CF90089591
S11313709FB7F89481E020910B01211180E09FBF79
S113138008958F929F92AF92BF92CF92DF92EF9285
S1131390FF92CF93DF9300D000D0CDB7DEB74B01DF
S11313A05C0129833A834B835C830E943F026B0177
S11313B07C01CC0CDD1CEE1CFF1CC818D908EA0803
S11313C0FB084601570129813A814B815C81C21691
S11313D0D306E406F50610F449015A010E943F02BF
S11313E060939A0570939B0580939C0590939D054B
S11313F0D501C4018C199D09AE09BF09B695A795FD
S1131400979587958093EB019093EC01A093ED0160
S1131410B093EE010F900F900F900F90DF91CF914A
S1131420FF90EF90DF90CF90BF90AF909F908F9000
S11314300C94A1026E9A8FB9779BFECF8FB1089559
S11314409091730591110C941A0A80E00895CF933A
S1131450CFB7F8940E94B809811103C0CFBF81E0CF
S11314600EC00E94C4010E94C00183E00E94200AB1
S11314708BE00E94200A0E94C401CFBF80E0CF917C
S113148008951F93CF93DF931F92CDB7DEB72091BA
S1131490590130915A012330310509F049C089833B
S11314A00E94C4010E94C0018981882311F085E053
S11314B001C084E00E94200A83FD09C080E00E94EC
S11314C0200A83FB112710F981E0182701C011E0DD
S11314D00E94C40111112EC084E090E090935A013F
S11314E080935901E0910D03F0910E030480F5817E
S11314F0E02D8FEF83838283818380830E943F0268
S113150060934C0270934D0280934E0290934F026D
S113151080EE91E0A0E0B0E080933E0290933F0221
S1131520A0934002B09341020E94530480E003C0A0
S113153084E001C081E00F90DF91CF911F91089565
S1131540CF93CFB7F8940E94B809811103C0CFBFDD
S113155081E00BC00E94C4010E94C00186E00E9489
S1131560200A0E94C401CFBF80E0CF910895CF929A
S1131570DF92EF92FF920F931F93CF93DF9300912B
S1131580290710912A07E090AA04F090AB04C091B7
S11315900B03D0910C032091710130917201CE01A3
S11315A00A962817390708F4C9016C0121E0C21A08
S11315B0D108CC15DD05A0F40115110529F0F801B9
S11315C0EC0FFD1F808101C080E00E941A0AE11423
S11315D0F10421F0F701EC0FFD1F80832196E9CF80
S11315E06F9A0115110531F0F801EC0FFD1F808190
S11315F08FB901C01FB8D0930C03C0930B0380E0D4
S1131600DF91CF911F910F91FF90EF90DF90CF90DA
S11316100895509372014093710190932A07809327
S113162029077093AB046093AA0410920C031092E0
S11316300B03452B19F08FB10C94B70A85E10E9476
S1131640F60180E00895CF93DF930E94C4010E94C5
S1131650C001C091E304D091E40480917305882310
S113166091F08FE790E090935702809356028FE7B2
S11316700E941A0A41E050E0BE0180E090E0DF9150
S1131680CF910C94090BDF91CF910895EF92FF92C3
S11316901F93CF93DF931F92CDB7DEB77C01809168
S11316A073058823A9F08EE390E09093570280930A
S11316B056028EE369830E941A0A182F6981462F05
S11316C050E060E070E0C7010E94090B812F01C067
S11316D080E00F90DF91CF911F91FF90EF900895DC
S11316E00F931F93CF93CFB7F89490916A019230E0
S11316F071F490910D0198130AC0809145038111F2
S11317000EC080914603882309F43EC008C090E0CF
S1131710CFBF81E08927CF911F910F910895209128
S11317206B0130E0C901019661E070E08D309105F4
S113173011F480E090E0E82FE695E695E695F0E078
S1131740EB5BFC4FA081482F47708B0102C0000F58
S1131750111F4A95E2F7A801BA2FB02331F0409542
S11317604A23408380936B0106C08217930711F0CC
S11317700196DCCF8FEF8093D90181E080936A01D9
S113178082E00E94F60105C08FEF80930D01109254
S11317906A0191E0BDCF4F925F926F927F928F92D8
S11317A09F92AF92BF92CF92DF92EF92FF920F93EC
S11317B01F93CF93DF930E943F02C4E9D5E040E03A
S11317C044244A94542C3201ECE7F5E02991222375
S11317D0C1F180809180A280B3806B017C01C81824
S11317E0D908EA08FB080481158126813781C016CF
S11317F0D106E206F30668F0080D191D2A1D3B1DEB
S11318000083118322833383148215821682178204
S11318100CC060837183828393830C191D092E0984
S11318203F09048315832683378304811581268128
S11318303781401651066206730618F028013901F3
S113184041E0389625E0E439F20709F0BFCF44239C
S113185041F177FE04C0769467945794479460935B
S11318606C0170936D0180936E0190936F014092AF
S1131870E0015092E1016092E2017092E301DF9194
S1131880CF911F910F91FF90EF90DF90CF90BF9079
S1131890AF909F908F907F906F905F904F900C943B
S11318A0C00387B7877F87BFDF91CF911F910F91C7
S11318B0FF90EF90DF90CF90BF90AF909F908F906C
S11318C07F906F905F904F900895EF92FF920F93E7
S11318D01F93CF93DF938C01FFB6F8940E94B8094D
S11318E0882311F10E94C4010E94C00180917305F4
S11318F0882381F083E50E941A0AE82E80E00E9482
S11319001A0AC82FD0E0DC2FCC2780E00E941A0AE4
S1131910C82B01C0E12C0E94C401E1FE05C0F801FE
S1131920C083FFBE80E002C0FFBE81E0DF91CF91A3
S11319301F910F91FF90EF900895CF93DF9300D004
S1131940CDB7DEB79FB7F89420917305222389F0B1
S11319509FBF6A8379830E941A0A7981872F0E9424
S11319601A0A6A81862F0F900F90DF91CF910C9401
S11319701A0A9FBF80E00F900F90DF91CF910895D6
S11319808091980690E00B9725E0289FB001299F4D
S1131990700D11246B597E4F706488E10C949D0C7A
S11319A0E1E080910A03811101C0E0E041E080910F
S11319B0A601811101C040E021E08091DD01811187
S11319C001C020E080913202882351F051E030E0E0
S11319D080919905811101C050E0852F932F02C099
S11319E080E090E06091260730E4639FB001112409
S11319F062627260F0E0FE2FEE27F295FF0FF07E38
S1131A006E2B7F2B50E0542F44275295507F642B2C
S1131A10752B30E0322F2227330F330F330F622B15
S1131A20732B54E0880F991F5A95E1F7682B792B93
S1131A3081E10C949D0C80915E0190915F0101976E
S1131A40F1F582E090E090935F0180935E01DE986F
S1131A50DE9A80915E0190915F01029781F583E0A7
S1131A6090E090935F0180935E010E94C4010E9404
S1131A70C00168E170E08DE10E949D0C81E08093DB
S1131A80520210925D0180B386FB882780F980930F
S1131A90530283E10E94F60181E00E94200A6FE76D
S1131AA072E08CE10E949D0C0E94C00C0E94D00C3C
S1131AB066E57AE287E10E949D0C0C94C4010895C6
S1131AC0509141015C3118F4252F30E002C02CE123
S1131AD030E08CE1E5E4F7E0DF011D928A95E9F757
S1131AE04091430180E090E08217930791F0E42F46
S1131AF0F0E0E256FA4F6081552329F04F5F4A3FE8
S1131B0009F440E05150FC01E55DF84F628F019605
S1131B10EBCF40934301509341010E946308882313
S1131B2019F083E20C94F6010895CF93DF931F928A
S1131B30CDB7DEB79091400191110BC09091410156
S1131B409D3738F091E09093400189830E94600DA5
S1131B5089819FB7F894209141012A3FB8F43091CC
S1131B604201E32FF0E0E256FA4F808381E0830FD5
S1131B708A3F19F08093420102C0109242012F5F04
S1131B80209341019FBF80E090E003C09FBF8FEF8F
S1131B909FEF0F90DF91CF910895CF92DF92EF9254
S1131BA0FF92CF93C82F6A017B010E943F0229E074
S1131BB0C29FF0011124E95BFC4F660F771F881F59
S1131BC0991F6083718382839383C482D582E68262
S1131BD0F78280858160826080878AE1CF91FF905F
S1131BE0EF90DF90CF900C94F60197B79F7D97BF4D
S1131BF090E296BF882319F08EB5806402C08EB53A
S1131C008F7B8EBD87B7806287BF80E008956E9812
S1131C10BA9ABB98B99A0E94C2016C9A6F986B9851
S1131C206A986E9A709A8DB18C7F8DB908951F93BE
S1131C30CF93DF931F92CDB7DEB71FB7F89490917F
S1131C40730591111FC091E09093730520910801D1
S1131C5090915B01211102C0923079F0911115C06D
S1131C6092E090935B011092080189830E94070E11
S1131C700E94C2010E94C001898180930B0180E00F
S1131C801FBF07C01FBF85E004C01092730581E029
S1131C90F7CF0F90DF91CF911F910895CF93CFB7D6
S1131CA0F8949091730591110FC091E0909373058E
S1131CB080930B019091080180915B01911110C0F8
S1131CC0823071F484E118C021E030E001C0220FB9
S1131CD08A95EAF780915C01822B80935C012EC087
S1131CE0882349F180915B01811109C081E08093CF
S1131CF05B011092DF0186E10E94F6011FC0809112
S1131D00E4018F3FD9F481E090E0E0910901EE23F2
S1131D1011F080E090E0892B89F480910A018F3FD3
S1131D2019F410920A0104C0F0E0EC51FE4F108245
S1131D301092090103C00E94070ED4CFCFBF80E0E8
S1131D40CF91089580E00C944E0E8091D50190912E
S1131D50D601892BF1F08091000381111AC083E030
S1131D6090E09093D6018093D50181E08093E901BE
S1131D709FB7F89480910B019FBF813011F40C94AC
S1131D80230B81E00E94170E8823C9F381E00C9491
S1131D904E0E0895CF92DF92EF92FF92CF93DF938E
S1131DA0C82F6A017B010E943F02DFB7F8942C2FF1
S1131DB030E0F901B3E0EE0FFF1FBA95E1F7E45804
S1131DC0FA4F6083718382839383C482D582E682CF
S1131DD0F782F901E458FA4F81E0808F80919705EA
S1131DE0811102C00E94CB0BDFBFDF91CF91FF9026
S1131DF0EF90DF90CF9008957F928F929F92AF9251
S1131E00BF92CF92DF92EF92FF920F931F93CF93E3
S1131E10DF9300D000D0CDB7DEB74B015C017FB6B5
S1131E20F89429833A834B835C830E943F02660FB4
S1131E30771F881F991F681979098A099B096B0103
S1131E407C0129813A814B815C8162177307840785
S1131E50950710F469017A0197018601061B170B97
S1131E60280B390BB901A8017695679557954795C5
S1131E7082E00E94CA0E7FBE0F900F900F900F90C9
S1131E80DF91CF911F910F91FF90EF90DF90CF9052
S1131E90BF90AF909F908F907F900895CF93CFB7CE
S1131EA0F8948091590190915A01019719F4CFBF88
S1131EB089E00DC081E00E94F50D81E090E09093EF
S1131EC05A018093590110925801CFBF80E0CF91FD
S1131ED0089580915C0181114EC080910B018F3F68
S1131EE009F049C080917305811145C081E0809358
S1131EF0C1068091AC0181111092C1068091C10686
S1131F008823B9F180910801811104C080915B019B
S1131F10823099F180915B01823029F5809108012A
S1131F20811121C080910A018F3FC9F09FEF9093E6
S1131F300801E82FF0E0EC51FE4F908190930A01E4
S1131F409F3F11F4909309019FEF90838093DF01E9
S1131F5081E080935B0186E10E94F60104C08093D6
S1131F60080110925B0180915B01811109C06E9898
S1131F7007C085E0089581E008950E94C401CACF96
S1131F8080E00895CF93CFB7F89490910B01981700
S1131F9019F0CFBF81E02DC08FEF80930B017091BA
S1131FA05C01711105C0109273050E94690F1CC079
S1131FB060E0872F90E06170AC01062E02C0559559
S1131FC047950A94E2F740FF12C060930B0181E049
S1131FD090E001C0880F6A95EAF780958723809383
S1131FE05C0184E10E94F601CFBF80E002C06F5F14
S1131FF0E2CFCF910895CF93CFB7F89480E00E94B9
S1132000C20FCFBFCF91089581E00C94C20FCF933C
S1132010CFB7F8948091D5019091D601892B09F11D
S11320201092E90180910003882319F00E94BF07F0
S11320301AC08091DE01882311F0B79904C00E996B
S113204008C0882319F081508093DE010E94A50EF8
S11320500AC082E090E09093D6018093D50110925B
S1132060DE010E940410CFBFCF91089580E88093D1
S1132070A5011092E901109219071092110710920C
S1132080DE010E94C4010E94C00188E00E94200A6F
S113209088E00E94200A0E94C4010E9404100C944B
S11320A007100F93CF9320913D0330913E0340914D
S11320B03F03509140036091410370914203C091EA
S11320C04303B0914403FC01A8E021938C2F9B2F80
S11320D008E00E940C33C82FB92FA150B1F7CF915B
S11320E00F910895EF92FF920F931F93CF93DF9375
S11320F0CDB7DEB72C970FB6F894DEBF0FBECDBFB9
S11321001FB7F894CE0101960E94511090912B02B2
S113211080912C0299878A87909150028091510274
S11321209B878C871FBF21E080912B0290912C020A
S1132130019609F020E0722F770F770F770F60E098
S11321406F6772608CE10E949D0C8FB7F894909138
S11321507305911102C08FBF16C08FBF80EE0E941D
S11321601A0A80E80E941A0A8E010F5F1F4F7E012F
S11321708DE0E80EF11CF80181918F010E941A0A8A
S11321800E151F05C1F72C960FB6F894DEBF0FBECF
S1132190CDBFDF91CF911F910F91FF90EF900895E4
S11321A0CF93CFB7F8940E94B809811103C0CFBF71
S11321B081E027C080919805882309F10E94C40119
S11321C00E94C00186E00E94200A0E94C4010E946D
S11321D0C0010E94C00C0E94D00C6091310270E0DA
S11321E0606E706885E10E949D0C0E94C4010E948B
S11321F0C0010E9472100E94C40110929805CFBFC2
S113220080E0CF910895CF930E94D0100E944E0F8A
S1132210E0917005F0917105CFB7F8948091590160
S113222090915A01019729F582E090E090935A0128
S113223080935901F0930E03E0930D03A081B181C3
S113224086819781890F8E5F8C930E94C4010E94BE
S1132250C00189E00E94200A0E94C4010E94C001BA
S1132260E0910D03F0910E0361E0808191810E9461
S1132270460BCFBFCF9108950E94B80981110C94E9
S1132280031180E00E94170E8823C9F30C94A20E58
S1132290CF92DF92EF92FF926B017C018091570104
S11322A081111FC083E0809357010E943F02609315
S11322B09A0570939B0580939C0590939D05F694D5
S11322C0E794D794C794C092EB01D092EC01E092CA
S11322D0ED01F092EE01FF90EF90DF90CF900C941F
S11322E0A102FF90EF90DF90CF900895CF93E091FB
S11322F0AA01F091AB01C0810E94E6042FEF3FEFE9
S113230002C0220F331FCA95E2F74DE050E050930C
S1132310610140936001209530952623372384E1A1
S1132320829FB001839F700D112480E090E0CF91D3
S11323300C944811CF92DF92EF92FF920F931F9368
S11323408091C607882339F00091D2061091D306F4
S11323501092C60718C0E091AA01F091AB01108158
S11323600E94E6042FEF3FEF02C0220F331F1A959D
S1132370E2F7209530952623372384E1829F80015C
S1132380839F100D11240E943F0220E030E0660F6D
S1132390771F881F991F600F711F821F931FC090A2
S11323A0F001D090F101E090F201F090F3016C198A
S11323B07D098E099F09C0909E01D0909F01E090F5
S11323C0A001F090A101C616D706E806F90698F414
S11323D08091700590917105892BE9F01092AC0100
S11323E00E948F020E94FB0F84E090E090936101B1
S11323F08093600110C08EE090E09093610180931F
S11324006001C901B8011F910F91FF90EF90DF9017
S1132410CF900C9448111F910F91FF90EF90DF9093
S1132420CF9008952F923F924F925F926F927F9236
S11324308F929F92AF92BF92CF92DF92EF92FF92D0
S11324400F931F93FC01DB0117968C911797169637
S11324508C901697912CA12CB12C5401992488248A
S1132460B82A14968C911497882A15968C911597EE
S1132470982A9401A50160E070E080E090E000E219
S11324800E94F1321396FC90139712962C90129797
S1132490822C912CA12CB12C540199248824BF287E
S11324A0FC908F281196AC919A2A140125015101B0
S11324B06201E12CF12C00E010E00E94283320831B
S11324C031834283538364837583868397831F9107
S11324D00F91FF90EF90DF90CF90BF90AF909F90BF
S11324E08F907F906F905F904F903F902F900895C2
S11324F0FC01CB01328137FF29C0232F2C702830F7
S113250021F02C3021F023E003C027E001C02DE0AE
S1132510418146FF01C033FF2E5F3196432F407C3B
S113252030E0403861F4E20FF31F218130E0322FB4
S113253022274081242BFC013183208305C0BF0165
S1132540620F731F0E94121280E0089581E00895C3
S11325508F929F92AF92BF92CF92DF92EF92FF92AF
S11325600F931F93CF93DF93EC014A01D901B02E4F
S1132570F6018EEF860F823070F54B839C826230B9
S113258039F49C9111968C919D838E8317E026C01B
S11325902C9111963C91119712964C911297139687
S11325A05C91139714966C91149715967C911597DA
S11325B016968C91169717969C91DE0115966E01CE
S11325C01DE0C10ED11C2D9308E00E940C33AC1504
S11325D0BD05C9F702C013E001C01DE08EEF8B0DED
S11325E0823058F58E149F0411F4A11007C0DE0147
S11325F0A10FB11DEC921196FC921E5FA12FB0E0C9
S113260082E0B81208C090818181CA0FDB1F9883D1
S113261089831E5F12C0208131814281538164818C
S1132620758186819781CA0FDB1FE8E0299308E052
S11326300E940C33E150D1F7185F812FDF91CF91C5
S11326401F910F91FF90EF90DF90CF90BF90AF90CC
S11326509F908F9008952FB7F894B79905C00E995D
S113266003C02FBF81E0089580E88093A5011092F4
S1132670E90110921907109211071092DE0182E00D
S113268090E09093D6018093D50189B78F7B89BF61
S113269080E488BF8AB780628ABF8AB78F7E8ABF88
S11326A089B7806489BF2FBF80E00895E0917005E9
S11326B0F09171050190F081E02D818185FF04C0C6
S11326C00E94FB0F0C942B13089510920701E091C4
S11326D00F03F09110033097D1F080911A0780FD19
S11326E016C080910701811116C0238984896789E6
S11326F0673718F08CE10C94F60190E0922B848BF0
S1132700938BCF010E941F08882329F0F3CF81E027
S113271080930701E6CF0895CF93CFB7F8940E9432
S1132720B809811103C0CFBF81E01FC0B79B1BC094
S11327300E94C00180917305882349F08FE70E94AD
S11327401A0A80E00E941A0A80E00E941A0A0E9473
S1132750C4010E94C00188E00E94200A88E00E940F
S1132760200A0E94C401CFBF80E0CF9108951F9337
S1132770CF93DF931FB7F894809149058111AEC0C0
S11327808CE00E945F02882309F4A8C081E0809352
S1132790490580916901882339F00E94951C833092
S11327A0910509F486C089C0809133029091340266
S11327B02091D607211106C021E0029709F020E0FC
S11327C0822F01C081E020916601811108C081E05F
S11327D090E0211102C080E090E0892B51F08CE060
S11327E00E947C02882309F471C08CE00E94731457
S11327F070C08091A8019091A901892B09F442C06D
S11328008CE00E947C02882309F460C0C091A80176
S1132810D091A9010E946F028C3089F5209779F13B
S113282088819981892B59F18A819B81892B19F49B
S11328308F81811124C08C819D81892B01F12E818E
S11328408F8190E0820F911D8E379105C4F48091A1
S1132850600190916101049791F48AE090E0909373
S1132860610180936001D0937105C09370058FE17D
S113287093E09093AB018093AA010E943C1182E003
S113288090E01BC08091E501811104C08091F502A4
S1132890882349F00E94951C8330910571F484E0EB
S11328A00E94F60106C08CE00E947C02811111C0D6
S11328B00DC01092490583E090E01FBF892B79F485
S11328C08CE0DF91CF911F910C94600980E090E03F
S11328D0F4CF109249058CE00E94700B1FBFDF916A
S11328E0CF911F9108951F93CF93DF931F92CDB77C
S11328F0DEB790910D019C3021F489830E94B713B7
S113290089811FB7F89490916A0191110BC091E0ED
S113291090936A018093D90182E00E94F6011FBF5F
S113292080E017C0E82FE695E695E695F0E0EB5BCE
S1132930FC4F9081877021E030E001C0220F8A951E
S1132940EAF7892F822319F4292B208301C085E01B
S11329501FBF0F90DF91CF911F9108958CE00E94CB
S11329605F02811103C08CE00C9473140C94B713B0
S11329702FB7F894FC0180818093F5022FBF0C944B
S1132980AE1420EE280F982F41E050E060E070E094
S1132990992351F0440F551F661F771F91509213CE
S11329A0F7CF40E050E0BA014427587F7770452BB9
S11329B0462B472B51F08093040264E072E080E0E0
S11329C00E94930880E090E0089588EE90E00895D6
S11329D0CF93DF93CFEFDFEFD0931602C0931502AE
S11329E065E172E080E50E949308D0931802C093D9
S11329F0170267E172E083E50E94930810920102D6
S1132A00D0931402C0931302E3E2F2E01082118225
S1132A10128213821482158216821782DF91CF915B
S1132A200895EF92FF920F931F93CF93DF93CDB747
S1132A30DEB728970FB6F894DEBF0FBECDBF8C016A
S1132A407B01FC01608171816A5F7F4FCE01019639
S1132A500E941212F801808191810E944803C801EA
S1132A600E94650310924602E114F10421F0F9EE8C
S1132A70EF16F10411F40E94E81428960FB6F894A6
S1132A80DEBF0FBECDBFDF91CF911F910F91FF909D
S1132A90EF900895EF92FF920F931F93CF93DF93DC
S1132AA0CDB7DEB760970FB6F894DEBF0FBECDBFCB
S1132AB08B017A01813009F455C038F0823009F075
S1132AC055C0CB010E94650351C0DB01ED91FC911F
S1132AD082818C70883049F4878190E0982F882710
S1132AE02681822B9A87898707C0BF016A5F7F4F3F
S1132AF0CE0109960E941212D8011296ED91FC9112
S1132B0013978FEF80838D919C910E944803C80195
S1132B100E94650388E0FE013996DE01119601905A
S1132B200D928A95E1F779816A815B814C813D81BF
S1132B302E819F818885EF2891F4D9987093F802AB
S1132B406093F9025093FA024093FB023093FC0223
S1132B502093FD029093FE028093FF0207C00E941F
S1132B60AF0104C0BA01C8010E94111560960FB6E6
S1132B70F894DEBF0FBECDBFDF91CF911F910F91AF
S1132B80FF90EF9008958091EF01882391F0809158
S1132B9058038D7F809358031092EF018FEF9FEFBE
S1132BA0909316028093150265E172E080E50C941F
S1132BB093080895CF92DF92EF92FF920F931F93A1
S1132BC0CF93DF93CDB7DEB768970FB6F894DEBF27
S1132BD00FBECDBF7B016A01082F10E0F8013197C9
S1132BE0E830F10508F0FAC0EA5BFF4F0C94EB32D1
S1132BF0DB018D919C910E944803C7010E946503EB
S1132C00CD2819F01092EF01E9C02091120280EC56
S1132C1093E0289FA001299F500D1124662757FD9A
S1132C206095762F81E00E94CD0DD8C0BA01C7010E
S1132C300E941115D3C0DB01ED91FC91BF016F5FC0
S1132C407F4F82818C708C3011F087E001C08DE061
S1132C50680F711DCE0101960E941212F701808146
S1132C6091810E944803C7010E94650310924602A5
S1132C70C114D10429F0F9EECF16D10409F0AEC085
S1132C800E94E814ABC08091E0049091E1040197A4
S1132C909093E1048093E004DB0119968C9192E017
S1132CA0980F923020F0811102C00E94C315F701E1
S1132CB0808191810E944803C7010E9465038EC0F0
S1132CC0F4E0603A7F0719F41092A80487C0E0E9A1
S1132CD0F1E080E090E0219131912E153F0541F41F
S1132CE0FC01EE0FFF1FE057FE4F1182108204C05B
S1132CF001968730910579F71092C5071092C407A1
S1132D00809174018F77D70118968C9318979091BE
S1132D101503915090931503ED91FC9192819C7051
S1132D20983031F49091720591509093720507C0D8
S1132D309C3029F49091D50691509093D506A60124
S1132D40B7010E944A1588E00E94F60147C0FB01C2
S1132D500081118180916501882309F43FC0B80185
S1132D606A5F7F4FCE0141960E941212B801605FE4
S1132D707F4FCE0109960E94121288E0FE017196DF
S1132D80DE01119601900D928A95E1F779816A81AD
S1132D905B814C813D812E819F818885CD2891F472
S1132DA0D9987093F8026093F9025093FA02409311
S1132DB0FB023093FC022093FD029093FE02809369
S1132DC0FF0202C00E94AF01D7018D919C910E9425
S1132DD04803C7010E9465031092650168960FB607
S1132DE0F894DEBF0FBECDBFDF91CF911F910F913D
S1132DF0FF90EF90DF90CF9008950F931F93CF93A0
S1132E00DF93EC018B0180917B058E7F80937B05A2
S1132E1080916201882371F00E947405A801BE01AB
S1132E2088850E94DA1587E0DF91CF911F910F9179
S1132E300C94F601DF91CF911F910F910895809129
S1132E40A8019091A901009721F061EF70E00E9420
S1132E50FD168091CA079091CB07009721F061EF8E
S1132E6070E00E94FD161092CB071092CA071092D0
S1132E70A9011092A80180916A038D7F80936A034F
S1132E8080E008954F925F926F927F928F929F920B
S1132E90AF92BF92CF92DF92EF92FF920F931F9364
S1132EA0CF93DF93CDB7DEB768970FB6F894DEBF44
S1132EB00FBECDBFE7E4F3E020E030E0108511FF62
S1132EC0D7C14080518062807380C480D580E68001
S1132ED0F7804B015C0184189508A608B7088C1488
S1132EE09D04AE04BF0408F4C3C110FF03C01D7FDA
S1132EF010870AC0D301C2018C0D9D1DAE1DBF1DDC
S1132F0080839183A283B383223009F4CDC018F463
S1132F10213081F006C0233009F460C1243009F463
S1132F2060C180E00E945F02882309F4A8C10E9466
S1132F308409A5C18091EF01882309F4A0C11091EF
S1132F40E801123039F49091130280911402998BA4
S1132F508A8B1BC0209123023091240240912502C8
S1132F6050912602609127027091280280912902D3
S1132F7090912A02FE017196DE015996219308E090
S1132F800E940C33EA17FB07C9F7409015025090D2
S1132F9016020E9482034C01009709F48AC10E9420
S1132FA0A1033C01009709F47BC0D40111969C93C2
S1132FB08E934A9615969C938E93149719961C9209
S1132FC0E0901502F0901602123019F442E050E03D
S1132FD002C048E050E0BE016F5E7F4FCE01019613
S1132FE00E944333D401ED91FC91123010F483E23A
S1132FF004C04E145F04D9F783E68183812F880FC0
S1133000880F806C828380913D03898780913E0381
S11330108A8780913F038B87809140038C878091BE
S113302041038D87809142038E87809143038F876C
S113303080914403888BA180A6FAAA24A0F8F40105
S1133040808191819E01275F3F4F690103E09E01CA
S11330502F5F3F4FA201612F01960E94A812D40155
S113306016968C9316978CE091E013969C938E930E
S1133070129781E017968C93B40186E00E941C0994
S1133080892B21F0C3010E9448030AC08091E00407
S11330909091E10401969093E1048093E004EFC0E1
S11330A0C4010E94650305C10E943F022B013C013B
S11330B0440C551C661C771C80910A028F3070F4F6
S11330C021E030E002C0220F331F8A95E2F7A0EC22
S11330D0B3E00E94AF329B01AC0104C020EC33E0AA
S11330E040E050E0A0911902B0911A020E94BE3251
S11330F06B017C0100E911E0812C912C5401D80171
S1133100ED91FC91309709F44BC08091C4079091E4
S1133110C507E817F90709F443C0848195810E9423
S1133120B101A70196010E948709D801ED91FC9194
S11331301197882321F180858F7780871D921C92B7
S113314090911503915090931503A081B18112962B
S11331509C919C70983031F49091720591509093A9
S1133160720507C09C3029F49091D5069150909334
S1133170D50640EF50E0BF010E944A1511C084817A
S113318095810E94B101A3019201261B370B480BC4
S1133190590B82169306A406B50610F449015A0188
S11331A00E5F1F4F31E00E39130709F0A8CF8114C9
S11331B09104A104B10409F462C0C814D904EA0456
S11331C0FB0410F446015701B701A6014819590937
S11331D06A097B0982E00E94CD0D51C00E94390327
S11331E04EC08091E501811139C081E08093E501F1
S11331F08091CA069091CB06A091CC06B091CD06E1
S113320040912D0250912E0260912F027091300254
S1133210840F951FA61FB71F40914202509143028D
S1133220609144027091450240936B0350936C0388
S113323060936D0370936E0380936F039093700398
S1133240A0937103B09372038091730381608260D1
S1133250809373038AE10E94F60107C01092E5018E
S1133260809173018111109273010E94AE1407C002
S11332702F5F3F4F39962530310509F01FCE8AE183
S11332800E94F60168960FB6F894DEBF0FBECDBF5C
S1133290DF91CF911F910F91FF90EF90DF90CF902E
S11332A0BF90AF909F908F907F906F905F904F9062
S11332B008950E94C3150E94C315E1CF87E090E0F2
S11332C090936101809360010E94270A81E08093BA
S11332D0AC010E94FB0F0E946F02823031F08C30EF
S11332E039F0811110C089E001C08DE00C94F60121
S11332F080916901882319F085E00E94F6011092FB
S113330049050C94B7130895CF9386E090E0909309
S11333106101809360010E94D0100E948F020E947C
S11333204E0FCFB7F89420919E0130919F014091A8
S1133330A0015091A1016091F0017091F10180917F
S1133340F2019091F3010E948709882319F00E94E9
S11333505E191FC020919E0130919F014091A001F0
S11333605091A1018091F0019091F101A091F2019D
S1133370B091F301E0915701E1110BC0E1E0E0935A
S11333805701BC01CD0160517109810991090E9465
S1133390C109CFBFCF910895CF93C82F0E946F0268
S11333A0C81331C02FB7F8948091600190916101E6
S11333B0049719F02FBF81E027C085E090E0909337
S11333C06101809360012FBF1092F0011092F1010E
S11333D01092F2011092F30110929E0110929F013B
S11333E01092A0011092A1010E942B1381110CC014
S11333F00E94170E811103C00E94841902C00E940A
S1133400A20E80E001C081EFCF9108950F931F9326
S1133410CF93DF93E091660541E050E060E070E017
S11334200E2E04C0440F551F661F771F0A94D2F74F
S1133430F091D406F11121C08091CE069091CF066F
S1133440A091D006B091D1068827987FB770EB3150
S113345090F4C1E0CE0F8A019B01082319232A238B
S11334603B23012B022B032B31F4440F551F661F02
S1133470771FEC2FECCFE0936605809166058B31C6
S113348008F095C0F11195C00E94C11480911507F0
S1133490813079F008F45DC0823021F0833009F086
S11334A0E2C007C080E0DF91CF911F910F910C948F
S11334B0CC19C0916701D09168010E946F028111FB
S11334C0D2C0209709F4CFC088819981892B09F44F
S11334D0CAC08A819B81892B19F48F818111C3C051
S11334E08C819D81892B09F4BEC02E818F8190E04F
S11334F0820F911D8E3791050CF0B5C02FB7F8944B
S11335008091600190916101049711F02FBFABC0CD
S113351089E090E090936101809360012FBFD09384
S11335207105C09370051092F0011092F101109290
S1133530F2011092F30110929E0110929F011092D9
S1133540A0011092A101DF91CF911F910F910C94D2
S11335503C118091470290914802A0914902B09198
S11335604A024FB7F89420916001309161012330F1
S1133570310519F02430310511F04FBF74C023E038
S113358030E030936101209360014FBF8093AD011F
S11335909093AE01A093AF01B093B0018DEA8093F4
S11335A0FA01DF91CF911F910F910C94A20EFF238A
S11335B051F1809115078150823020F476956795FA
S11335C0579547950091CE061091CF062091D006CD
S11335D03091D106DB01CA0188279927AA27BC7F2D
S11335E0892B8A2B8B2B79F4DB01CA01802391234D
S11335F0A223B323892B8A2B8B2B29F0440F551F2D
S1133600661F771FE7CF809115078150823068F4D9
S113361080911D0390911E039093160280931502CE
S113362065E172E080E50E949308E0916701F09102
S11336306801309751F0808191810E944803809104
S11336406701909168010E946503109268011092CD
S1133650670180E00E945F02882319F080E00E94E5
S1133660700B10926601DF91CF911F910F91089515
S1133670CF93DF9381E00E945F02882309F4B1C0F5
S11336800E941F170E941F1780917B058260809300
S11336907B0580916201882351F00E94740541EFFB
S11336A050E0BC01FC0180850E94DA15F2CF8091C4
S11336B07B058D7F80937B0580916601882329F0AB
S11336C081E08093D4060E94061A1092170783E2C1
S11336D093E090931D0780931C07109222078CEAB5
S11336E094E090931F0780931E0784E08093230740
S11336F084E795E0909321078093200780915803F5
S11337008D7F809358038FEF8093C7071092E80151
S11337101092EF01EAE4F5E08083349695E0E63612
S1133720F907D1F78FEF8093DA011092E701109235
S113373046021092E1041092E004809161038D7FAF
S113374080936103C0E9D1E0E991F991309731F0B8
S113375041EF50E0BF0180850E944A15E1E0CE3977
S1133760DE0791F7E0E9F1E01192119281E0EE3980
S1133770F807D1F71092C5071092C40710921503E9
S1133780109272051092D50685E791E09093A104FA
S11337908093A00484EE96E09093A5048093A404FF
S11337A085ED96E09093A3048093A2041092A7045D
S11337B01092A80481E090E0909334028093330245
S11337C0809173018111109273011092E50180912F
S11337D073038D7F8093730381E0DF91CF910C9409
S11337E0F601DF91CF91089540910C02809166011A
S11337F0811102C00C94700B80911507823081F105
S11338008330D1F1813009F082C0E0916701F091F9
S11338106801A081B18193E011969C93A081B1814C
S113382098E012969C93A081B18113964C934F5FBC
S113383040930C02A081B1819FEF14969C93A081C8
S1133840B18115969C93A081B18116969C93A08119
S1133850B18117969C9397E096839093180787837A
S11338608FEF9FEF909316028093150265E172E04B
S113387080E50E9493084BC05091120220EC33E083
S1133880529FC001539F900D1124AA2797FDA09524
S1133890BA2F8093470290934802A0934902B093B1
S11338A04A02E0916701F0916801A081B18183E44B
S11338B011968C93A081B18188EC12968C93A0818F
S11338C0B18113964C934F5F40930C02A081B18158
S11338D08FEF14968C93A081B18115968C93A0815F
S11338E0B18116968C93A081B18117968C938081B7
S11338F0918108960E945110E0916701F09168014E
S11339008FE0868386E08093180781E087830C9498
S1133910061A8091330290913402029719F482E0DE
S11339200C94CC198EE00C94F6010E946F028C303A
S113393089F48091600190916101079759F08CE0BE
S11339400E947C02882349F08CE00E94CC1981E01B
S113395090E0089583E090E0089580E090E0089579
S11339600E948F020E94A00A0E948C131092AC0144
S11339700E94FB0F84E090E09093610180936001CA
S11339800E946F02813041F028F0823041F08C3087
S113399041F008950C948E0580E00C94F6010C948B
S11339A0891C109249050C94B7130F931F93CF935E
S11339B0DF930091600110916101C0917005D09175
S11339C071050E94A00A0E948C131092AC010E94FF
S11339D08F020E94FB0F84E090E09093610180933A
S11339E060010F30110529F40E946F0281117AC021
S11339F03DC00031110509F075C01091A40100917A
S1133A00A2010E946F028C3009F06CC0109239023E
S1133A10113091F118F01B3091F14DC01092F80162
S1133A201092F701EA81FB818081843009F043C060
S1133A30E881F981818187708330E9F58BEE90E02C
S1133A409093F8018093F7010023A9F181E080931A
S1133A5069018091A8019091A9019093CB0780936B
S1133A60CA071092A9011092A8018CE0DF91CF91AE
S1133A701F910F910C94CC1981EE90E018C08091A5
S1133A80D606882391F0109222039091F402909329
S1133A902103909147059093200390917001909396
S1133AA01F0381508093D60615C089EE90E0909351
S1133AB0F8018093F7018091A8019091A901909356
S1133AC0CB078093CA071092A9011092A80183E042
S1133AD00E94F60110924905DF91CF911F910F9139
S1133AE00C94B713DF91CF911F910F910895809398
S1133AF0A2016093A4010E94B809811102C00C9430
S1133B0044090C94D51C0F931F93CF93DF93EC01BE
S1133B108B018091560286FF2AC18F7B8F3309F077
S1133B20B0C1C091E304D091E40428812093D7016B
S1133B308091D5019091D6018430910579F118F4E2
S1133B40039749F003C18530910509F451C00697E4
S1133B5009F469C0FBC084E090E09093D60180939F
S1133B60D50130E08091A50190E02817390734F0A1
S1133B70DF91CF911F910F910C943610B79903C028
S1133B800E9B0E9436108091D70184508E3880F7A6
S1133B90BE016F5F7F4F43E050E022C06A8189819C
S1133BA083FDE6CF43EA51E00E94A9078111E0CFEB
S1133BB04091A3018091D70190E00197242F30E038
S1133BC028173907ACF6443098F085E090E09093DC
S1133BD0D6018093D501435050E0BE016C5F7F4F06
S1133BE080E090E0DF91CF911F910F910C94090B2D
S1133BF04091D7012091A301842F90E0821B910969
S1133C00893791050CF0B4CF86E090E09093D6010B
S1133C108093D501421B50E06091E3047091E40469
S1133C20665E7F4FDDCF0E94C4018091DE01811169
S1133C3002C00E94041030911107C091E304D09196
S1133C40E4042091D701332349F12530C0F1809158
S1133C50190790E0FC01EE0FFF1FEE0FFF1FE1516B
S1133C60F94F7081618152814381DE01AD56BF4FAE
S1133C707C93DE01AE56BF4F6C93DE01AF56BF4F4F
S1133C805C93DE01A057BF4F4C9301968770992730
S1133C908093190731503093110711C08FEFDE0163
S1133CA0AD56BF4F8C93DE01AE56BF4F8C93DE01F1
S1133CB0AF56BF4F8C93DE01A057BF4F8C93E22FBA
S1133CC0F0E08091A301E81BF109EC0FFD1F818D49
S1133CD087FF36C0012BA1F189818770823029F5D5
S1133CE08091590190915A010697D9F4E0910D03FE
S1133CF0F0910E030190F081E02D93818B81981354
S1133D0010C00E94C601898121E030E030935A013D
S1133D102093590160E0829581700E94771D0E9472
S1133D20690F80910A03882359F08091000381115F
S1133D3007C088E1DF91CF911F910F910C94F60198
S1133D40DF91CF911F910F910C9407101092E9010C
S1133D500E94C4010E94041080910003882309F486
S1133D6090C0DF91CF911F910F910C94BF078E33B8
S1133D7009F087C00E94C401E0910D03F0910E0385
S1133D8080819181C817D90759F40E94C001E0913C
S1133D900D03F0910E0380819181668101960DC01F
S1133DA00196C817D90779F40E94C001E0910D0368
S1133DB0F0910E03678182819381DF91CF911F91EE
S1133DC00F910C94460B83E090E090935A018093FA
S1133DD0590180916001909161018A30910509F443
S1133DE044C08B30910509F446C0099709F049C0D5
S1133DF08CE090E0909361018093600120919E019A
S1133E0030919F014091A0015091A10121153105EC
S1133E104105510579F48FE090E09093610180931E
S1133E20600180E00E94410ADF91CF911F910F91C0
S1133E300C9456138091F0019091F101A091F2013C
S1133E40B091F301E0915701E1111BC0E2E0E0936E
S1133E505701BC01CD016051710981099109DF91BC
S1133E60CF911F910F910C94C109DF91CF911F91B4
S1133E700F910C947611DF91CF911F910F910C94B7
S1133E809A11DF91CF911F910F9108952F923F9234
S1133E904F925F926F927F928F929F92AF92BF9256
S1133EA0CF92DF92EF92FF920F931F93CF93DF9302
S1133EB0CDB7DEB768970FB6F894DEBF0FBECDBF9F
S1133EC090E08432910510F00C94532AFC01E25BDB
S1133ED0FF4F0C94EB322FB7F894809160019091CE
S1133EE06101009711F42FBF79C3049709F01CC333
S1133EF081E090E019C08091D60781508093D60765
S1133F00882319F081E00C9444292FB7F894809108
S1133F106001909161018430910509F405C3892BF6
S1133F2009F002C382E090E0909361018093600104
S1133F302FBF0E94A20E0C94532A8FB7F89490912D
S1133F40D90190930D0192E090936A018FBF809103
S1133F500D01813089F038F08230C1F08C3009F4E1
S1133F6008C10C94532A80E00E947C0281114FC145
S1133F700E9484090C94532A81E00E9460098823DA
S1133F8011F40C94532A80E00C9444299FB7F894BC
S1133F9081E0809398051092DD0180930A031092CA
S1133FA032029FBF82E00E947C02882321F00E949B
S1133FB0891C0C94532A82E00E9460090C94532AB1
S1133FC08091CA079091CB076091F7017091F80135
S1133FD0109269011092CB071092CA07009709F456
S1133FE0C8C00E94FD16C5C08091E501882311F464
S1133FF00C94532A80917301882311F40C94532A4E
S1134000109273010C94532A40911B0250911C028C
S113401060911D0270911E0283E0F1C0DA980C9445
S1134020532A80917B0580FF02C00C94532A80910F
S11340306201882311F40C94532AE0916401F0E0A6
S1134040EE0FFF1FEE53F94F00811181D801169630
S11340508C91811108C00E947405C8010E946503F7
S113406087E00E94F601F801808580930103209186
S11340707B05822F816080937B058091A8019091BC
S1134080A901892B11F00C9467290190F081E02D8E
S11340908181882339F080910C0283838F5F809320
S11340A00C0206C080910B0283838F5F80930B0206
S11340B01092220380910D028093F40280932103D5
S11340C080911002809347058093200380910E0213
S11340D080931F039091FD01992329F0833018F0F8
S11340E082E080931F0380911F038093700180916D
S11340F0C4079091C5078017910719F41092D6064A
S113410004C0809111028093D606D80116968C9132
S1134110169717964C91179750E0480F511D495F19
S11341205F4F440F551F662757FD6095762F4093C8
S11341301603509317036093180370931903ED91BA
S1134140FC91818185FF0CC04A5C5F4F6F4F7F4FAC
S11341504093160350931703609318037093190345
S11341601093A9010093A8018CE00E945F028823A8
S113417021F00E94B7130C94532A8CE00E9473140C
S11341800C94532A8091C4079091C507892B11F090
S11341900C94532A80911503882311F40C94532A08
S11341A0E0E9F1E06191719161157105C9F0DB01FC
S11341B018968C9187FF14C07093C5076093C40749
S11341C08093740187E00E941C09892B11F40C94DC
S11341D0532A1092C5071092C40788E00C9444290E
S11341E0B1E0EE39FB07F1F60C94532A40914702F3
S11341F0509148026091490270914A0280E00E9405
S1134200CD0D0C94532A0E94061A0C94532A0E9432
S1134210F41B0C94532A6CE177E080E00E941C09A3
S11342200C94532A83E090E09093340280933302F9
S11342300C94532A9FB7F89481E080939805809357
S1134240DD0110920A03809332029FBF81E090E067
S1134250909334028093330282E00E94700B0C949A
S1134260532ACE0101960E94650C811107C08981F1
S11342709091FA01981714F48093FA012091AD01FA
S11342803091AE014091AF015091B0016091DC06D4
S11342907091DD068091DE069091DF060E94870909
S11342A0882309F465C18091FA018D528093FA0143
S11342B00E94A00A0E948C130E94FB0F84E090E0ED
S11342C090936101809360019091FA0180918F0134
S11342D0882369F0E0912707F091280780917A05F7
S11342E021E0280F20937A05E80FF11D9083909127
S11342F07A0580918F01981303C081E08093D406DE
S11343000E948409893011F00C94532A0E948E056E
S11343100C94532A8FB7F894909198068FBF8FB757
S1134320F89421E020939805909398068FBF0E94FB
S1134330D0100E94FB0F84E090E090936101809381
S1134340600181E00E945F02882311F40C94532AD7
S11343508091E20481110E949A0564E072E080E099
S11343600E94930867E172E083E50E94930865E187
S113437072E080E50E94930866E072E083E00E94A8
S1134380930865E072E082E00E94930863E072E0C3
S113439080EF0E94930881E00E94700B82E297E70D
S11343A0909318028093170267E172E083E50E94FC
S11343B0930811E01093FB011093000280E092E057
S11343C00E94B8148091170290911802019611F47A
S11343D00C94532A88E796E9909316028093150269
S11343E065E172E080E50E9493088AE10E94C114AD
S11343F08FE080930A021093030263E072E080EF7F
S11344000E94930886E040C7809160019091610109
S11344108830910541F010F40C94532A0F970397B8
S113442040F00C94532A80E00E94170E811181CD34
S1134430D8C00E94B8098111A3C080E00E94170E61
S1134440882309F49DC075CD80E00E94170E811168
S113445010C00E94D0108091600190916101079773
S113446021F40E94A00A0E94270A0E94FB0F0C94C8
S1134470532A82E109C78FB7F89490915D01911195
S1134480C3C68FBF10B316FB112710F980915202D7
S113449090915302981721F1181322C084E090E000
S11344A090935F0180935E018FB7F89491E09093AD
S11344B05D018FBF0E94C4010E94C00160E070E0F2
S11344C08DE10E949D0C0E9472100E94C4010E9402
S11344D0A00A0E948C131092AC0180E10E94F601A4
S11344E01093530283E1D0C69FB7F89480910B01D7
S11344F09FBF882321F0813009F476C0D4C7E091AE
S11345006001F09161013197E131F10508F0CBC709
S1134510EE58FF4F0C94EB322FB7F89480915E0164
S113452090915F01892B11F02FBFBDC781E090E00E
S113453090935F0180935E012FBFDD9A44E150E0C8
S113454060E070E080E00E94CA0EADC70E94D01007
S11345500E94270A0E943F02660F771F881F991F37
S11345606093DC067093DD068093DE069093DF068D
S11345708FE08AC60E94841996C70E94031193C7CC
S11345800E94D51C90C70E94A00A0E948C131FB7DA
S1134590F89480915E0190915F01049779F482E030
S11345A090E090935F0180935E010E94C4010E9499
S11345B0C00187E00E94200A0E94C4011FBF10921C
S11345C05F0110925E01DE98DD98DE9A1092AC01D4
S11345D00E94FB0F10926101109260010E94381B2F
S11345E062C70E94B01C5FC71FB7F8948091D501C1
S11345F09091D601892BF9F00E94230B1CC01FB7A0
S1134600F8946091AA047091AB0480912907909169
S11346102A071092AB041092AA0410922A0710924F
S11346202907109272011092710110920C031092DA
S11346300B030E94831D1FBF36C78FB7F894909158
S1134640DF019093080192E090935B018FBF80910A
S11346500801811128C70E94C2010E94C00184E19F
S113466013C60E9404108FB7F8941092D6011092CA
S1134670D5018FBF81E108C6E091E304F091E40421
S1134680208122508091A301281B8FB7F8948FBFFB
S11346908090E3049090E404822F90E0D401A80F6A
S11346A0B91F5B963C913F77D4013C93A80FB91F87
S11346B05A968C91DF01AC56BF4F8C93D4018C91E8
S11346C0EB56FF4F80832C938091600190916101A0
S11346D0079709F006C412968C91807390E0419775
S11346E03CF08091330290913402039709F0F9C3AE
S11346F0F401818183FF07C08091330290913402D9
S1134700039709F0EEC30E946F02823009F452C18C
S11347108C3009F45FC18111E4C380916601882360
S113472009F4DFC380911507833009F04BC08091F1
S11347307A058111D6C3D40111968C911197877093
S1134740833009F0CEC35A968C915A97883009F079
S1134750C8C35C968C915C9790E0982F88275B96F1
S11347602C91822B909316028093150265E172E0DE
S113477080E50E949308F401868D90E0982F8827A5
S1134780258D822B9093140280931302878D0E94AF
S1134790C114D40191968C91919790E0982F882719
S11347A090962C91822B909318028093170267E1C4
S11347B072E083E50E94930880917A058F5F80936D
S11347C07A0510C0F4018181877009F08AC3809151
S11347D0FC01882309F485C380917A0590918F01A7
S11347E0891758F081E08093D40680914F038D7F20
S11347F080934F030E94840974C30091270710918A
S11348002807F2E28F9F000D111D1124F090660518
S1134810D40112968C911297982F9078903809F0C1
S113482060C38295869586958370F801808315967A
S11348308C91159790E0982F882714962C911497B3
S1134840822B9283818312968C911297807C80387C
S113485061F417968C91179790E0982F88271696F5
S11348602C91822B9483838307C0B4016A5F7F4FAA
S1134870C80103960E941212D8011B96FC921B9742
S11348801C961C921C97F401828D1D968C931D9787
S1134890838D1E968C931E97848D881F8827881F6E
S11348A01F968C931F97EB56FF4F808150968C93E5
S11348B0C40180579F4F0E94B101D80151966D9356
S11348C07D938D939C93549756961C921E92559764
S11348D057961C92579758961C92589759961C9223
S11348E059975A961C925A975B961C925B975C96C2
S11348F01C925C975D961C925D975E961C925E97E7
S11349005F961C925F9790961C92909791961C923A
S1134910E0912707F091280770907A05DF0102E201
S1134920709EA00DB11D1124612C671409F4B7C544
S11349302181328111968D919C9112972817390704
S1134940B1F580819C91891332C0823051F4238166
S1134950348113968D919C9114972817390739F552
S1134960C0C2833021F5238134814581568167811A
S113497070851396AC9013971496BC901497159663
S1134980CC9015971696DC9016971796EC9017977F
S11349901896FC90189719960C9119971A961C91D1
S11349A01A97818592850E943A3309F49AC26394D6
S11349B0B296BBCF8091330290913402039709F0F1
S11349C090C2D4018C9180688C93C4010E948307A7
S11349D04C0187C2F40181818770833011F4828D88
S11349E08D5F1FB7F89490916901992309F48AC0E7
S11349F090916A039D7F90936A031092F80110923C
S1134A00F701E090CA07F090CB078530D9F08630E3
S1134A1009F473C0813009F072C0E114F10409F49F
S1134A206EC0D70119968C918F3F21F0811102C07D
S1134A300E94C3158EEFF7018187C4010E9483078A
S1134A404C015DC0D4015C962C915C975B968C9173
S1134A505B975D963C919091EF01992309F44FC0C7
S1134A60909158039D7F909358031092EF01311158
S1134A7038C090E0922B909318028093170267E15C
S1134A8072E083E50E9493088091130290911402CE
S1134A900196A9F1F40182818295869586958370A9
S1134AA0833069F5BE016F5F7F4FC4010E947812A5
S1134AB08981809323028A81809324028B8180934D
S1134AC025028C81809326028D81809327028E811A
S1134AD0809328028F8180932902888580932A02FB
S1134AE00EC08FEF9FEF909316028093150265E13D
S1134AF072E080E50E94930802C00E94AF010E9408
S1134B003903EEC1863009F453C028F4813069F0CA
S1134B10843081F0E5C1893009F484C18A3009F414
S1134B2092C1873009F0DCC157C0C4010E948307D9
S1134B304C01D6C1D40112968C91829586958695A6
S1134B408370833009F0CCC1BE016F5E7F4FC40116
S1134B500E9478128111C4C1F989EA897B896C8920
S1134B605D894E893F89288D20900F07309010076A
S1134B70C10101969093100780930F07F987EA8784
S1134B807B876C875D874E873F87288BEAE4F5E057
S1134B90E12CF12CB080BFEFBB1609F49CC30FEFDE
S1134BA0E01AF00A349627E0E216F10499F798C166
S1134BB0F40182818295869586958370833009F00D
S1134BC08FC1BE016F5F7F4FC4010E9478128111B3
S1134BD087C10E94AF0184C1D40112962C91322F57
S1134BE03C70B22FB07CBB2EB7FF7AC1C4010496CF
S1134BF0383019F4C401089604C03C3011F4C401DF
S1134C000E96F401318136FF01C023FF029660E95C
S1134C10662E61E0762EE0E0F0E0EB2CF12CD3017F
S1134C202D913D913D0121153105A1F1D9016D91E0
S1134C307C91DB0112964C914C70B0E14B9FA0012A
S1134C4011244E155F0531F56A5F7F4F00E8B012FD
S1134C5003C052E0A52E02C048E0A42EAC0100E03F
S1134C60DB01CD90BD01DA01DD90AD01CD1003C0B3
S1134C700F5F0A15A8F30A110DC0309751F0208177
S1134C803181D90111964C911197406111964C9341
S1134C9001C0F901BEE96B16B1E07B0609F0BFCF94
S1134CA0309729F080858068808788E017C16090FC
S1134CB0A0047090A1048091A804811111C1BE01C7
S1134CC0675F7F4FC4010E947812811109C1C4013A
S1134CD00196F4016281262F2C7067FF01C12830F0
S1134CE021F02C3021F0E3E003C0E7E001C0EDE067
S1134CF0D40111963C91119736FF0BC063FF09C094
S1134D0015964C91159750E0542F442714968C9186
S1134D1008C0F0E0E80FF91F418150E0542F442708
S1134D208081482B629566956695637030E0359571
S1134D30279535952795A22FC3010196E09015027A
S1134D40F0901602E4E06E9F60011124F301728179
S1134D5073737C29F901B6E0EE0FFF1FBA95E1F7F2
S1134D607E2BF3017283223071F4E0911702F091EB
S1134D701802FA83E9834E155F05F9F4F301718192
S1134D807064718321C070913D03798370913E03F7
S1134D907A8370913F037B83709140037C8370918D
S1134DA041037D83709142037E83709143037F832B
S1134DB0709144037887A230F0F6D30111967C9168
S1134DC011977F7B11967C93F301A180A6FAAA2404
S1134DD0A0F8DE0111966D01022F9E01275F3F4F5F
S1134DE00E94A812E091A004F091A1048181816045
S1134DF08183F3016281818183FD03C0A6010E9446
S1134E00A90789818093A60481E08093A80460EABD
S1134E1074E087E00E941C09892B09F461C0109298
S1134E20A8045EC0D40112968C91829586958695CD
S1134E308370833009F054C0BE016F5F7F4FC4019B
S1134E400E9478124DC0809117029091180221E0BF
S1134E508E3FBFEF9B0709F420E0E0911C07F0911F
S1134E601D071182222311F030E801C030EC328397
S1134E70409115023091160244833583222321F098
S1134E808683978387E005C0CF0106960E94511060
S1134E908DE0809322078FEF8093AC041092AD04D1
S1134EA080910302813019F480E48093AD048091F1
S1134EB0FB01813029F48091AD0480688093AD04B6
S1134EC08091FD01813029F48091AD04806180934B
S1134ED0AD041092AE041092AF048CE00E94F6016F
S1134EE01FBF9092E4048092E3048FB7F894109269
S1134EF0E9018FBF0E940710D6C28091DC018111A5
S1134F002FC02091EB063091EC064091ED065091B4
S1134F10EE06EFB7F8946091900570919105809139
S1134F2092059091930580908C0590908D05A090AA
S1134F308E05B0908F05680D791D8A1D9B1DEFBFEE
S1134F402093EB063093EC064093ED065093EE0667
S1134F501092DC01660F771F881F991F0E94FC0EB8
S1134F600E943F02660F771F881F991F3CC00E9452
S1134F703F02660F771F881F991F2FB7F89410926E
S1134F8096052FBFE7E4F3E0A0E02FEF3FEF4FEFEC
S1134F905FE7B085B1FF1AC080809180A280B380A2
S1134FA07B018C01E818F9080A091B094480558023
S1134FB0668077804E185F08600A710A42165306AD
S1134FC0640675061CF4A3019201A1E0399603E07E
S1134FD0E437F007F1F6AA2309F465C212161306A2
S1134FE0140615061CF00E9442175DC22093EB06BE
S1134FF03093EC064093ED065093EE06E1E0E09327
S1135000DC010E94FC0E4FC280911A07882309F428
S11350104AC20FE013E0F12CEE24E39490911A07B6
S11350208E2D892369F0D8011D921C928E2D8095B6
S1135030892380931A07F11003C083E20E94F601CA
S1135040EE0CF3940E5F1F4FB8E0FB12E7CF2BC2B8
S113505010910701E12FF0E0EE0FFF1FE15FFC4F1D
S1135060118210820E94651311111DC20CC12FB749
S1135070F8941092C3079091460588EF890F823007
S113508050F410924605E0911C03F0E0EE0FFF1F70
S1135090E65AFD4F10822FBF823010F52FB7F894D7
S11350A0809116078F5F8093160780914B0283349B
S11350B081F48091030390910203981739F08F5F74
S11350C080930303863010F01092030390E080E095
S11350D005C081E0983009F480E091E02FBF03C05F
S11350E091115AC080E03FB7F894209155013FBF19
S11350F0222339F02FB7F8943AE0309346052FBFB6
S11351003FC04FB7F89430915A0220915C024FBFD0
S11351106FB7F89450910203409103036FBF541783
S113512009F131111FC03FB7F89422E020935A02CD
S11351305FB7F89440910203209103035FBF4217C5
S113514039F0E0910303F0E0EE5FFC4F228101C0EF
S113515020E020935B0223E420934B0210921C0373
S11351603FBF0CC02150223058F42FB7F89435E4D7
S113517030934B0231E030931C032FBF11E001C088
S113518010E0992351F09FB7F89480934C019FBF8E
S113519081E20E94F60101C010E00FB7F8948091FB
S11351A046058A3021F40E942D020FBF7CC10FBF37
S11351B0112309F478C18FB7F8941092D307109291
S11351C0D20710923D0291E0909346058FBF0E9452
S11351D01208882309F467C18FB7F89499E0909373
S11351E046058FBF0E941B025EC1569857981092C5
S11351F0E5041092F601539A549A579A8FB7F8948B
S1135200109246051092EA018FBF4DC180E23CC066
S11352105398549848C11092500110924F018FB77F
S1135220F89410914C018FBF80914B01811113E0D0
S1135230809151019091520120914A01211133C171
S11352402091070121112FC120910F0330911003E8
S11352502817390709F027C11092100310920F0381
S11352600E94651311110FC080914101882319F028
S11352700E94600D18C11092400115C10E9463087C
S1135280882309F410C183E20E94F6010CC13FB7E0
S1135290F89480914601909147012091A7013FBF66
S11352A03FB7F894E22FF0E0EE0FFF1FEE5FFE4FE2
S11352B09183808380915401222311F08B7F01C05C
S11352C08D7F80935401109249013FBFECC02E7F23
S11352D020937B05E8C00E9482033C01009709F4F7
S11352E0FFCD0E94A1032C01009721F4C3010E9469
S11352F06503F6CDD30111969C938E934A96159629
S11353009C938E931497C701880F991F880F991F38
S1135310865B9A4F13969C938E93129780913D03CC
S1135320898380913E038A8380913F038B8380919C
S113533040038C83809141038D83809142038E834B
S1135340809143038F8380914403888740911502A1
S113535050911602AA24A394FE0131966F017A019A
S113536003E09E01275F3F4F63E0C20101960E9464
S1135370A812D30116968C931697ED91FC91119770
S113538083E68183ED91FC9111978CEC82831296D4
S1135390ED91FC91139782E080831296ED91FC913C
S11353A01397218232821296ED91FC911397138206
S11353B084E017968C93179780911503873008F033
S11353C061C018961C920E943F02660F771F881FC7
S11353D0991FD3011496ED91FC9115976383728301
S11353E081839083A0E9B1E0E0E08D919D91892BC8
S11353F019F0EF5FE730C9F7F0E0EE0FFF1FE05759
S1135400FE4F71826082809115038F5F8093150334
S1135410D301ED91FC9182818C70883031F48091BC
S113542072058F5F8093720507C08C3029F48091D8
S1135430D5068F5F8093D5068091610381FD50CDA1
S113544080910A028F3070F421E030E002C0220F14
S1135450331F8A95E2F7A0ECB3E00E94AF329B01C0
S1135460AC0104C020EC33E040E050E0A09119020C
S1135470B0911A020E94BE32AB01BC0182E00E94CC
S1135480CD0D2ECDD3011296ED91FC911397B082E0
S1135490C3010E946503C2010E94480321CD6394A5
S11354A060927A051ECD68960FB6F894DEBF0FBEE3
S11354B0CDBFDF91CF911F910F91FF90EF90DF90BF
S11354C0CF90BF90AF909F908F907F906F905F90A0
S11354D04F903F902F9008958FB7F89408958FBF01
S11354E008951F920F920FB60F9211240BB60F92CC
S11354F02F933F934F935F936F937F938F939F93D8
S1135500AF93BF93EF93FF930E94F001FF91EF914C
S1135510BF91AF919F918F917F916F915F914F91C7
S11355203F912F910F900BBE0F900FBE0F901F90C5
S113553018951F920F920FB60F9211240BB60F926B
S11355402F933F934F935F936F937F938F939F9387
S1135550AF93BF93EF93FF930E94F001FF91EF91FC
S1135560BF91AF919F918F917F916F915F914F9177
S11355703F912F910F900BBE0F900FBE0F901F9075
S1135580189578941F920F920FB60F9211240BB6B0
S11355900F922F933F934F935F936F937F938F93C8
S11355A09F93AF93BF93CF93EF93FF930E94C60152
S11355B07894CFB7F89480913E0290913F02A091E5
S11355C04002B0914102892B8A2B8B2B51F580919B
S11355D0590190915A018430910528F18630910542
S11355E050F0069701F581E090E090935A01809382
S11355F059016BE010C00E94C4010E94C00189E0FF
S11356000E94200A0E94C40181E090E090935A0114
S11356108093590167E080E00E94771D0E94690F22
S113562002C00E945304CFBFFF91EF91CF91BF916D
S1135630AF919F918F917F916F915F914F913F9126
S11356402F910F900BBE0F900FBE0F901F901895C7
S113565078941F920F920FB60F9211240BB60F92EB
S1135660AF92BF92CF92DF92EF92FF920F931F936C
S11356702F933F934F935F936F937F938F939F9356
S1135680AF93BF93CF93DF93EF93FF9387B7877F56
S113569087BF7894BFB6F8948091E0019091E101BE
S11356A0A091E201B091E301892B8A2B8B2BC1F5E8
S11356B081E08093970504E915E0CCE7D5E0A12CBF
S11356C0F8018081882301F1C880D980EA80FB80B9
S11356D00E943F026C197D098E099F09CC80DD80F0
S11356E0EE80FF806C157D058E059F0568F0F8013E
S11356F01082AA2039F0F2E0AF1206C089E10E94BC
S1135700F60102C00E941B0DA3940F5F1F4F289641
S113571083E0A812D5CF109297050E94CB0B02C04C
S11357200E94C003BFBEFF91EF91DF91CF91BF9163
S1135730AF919F918F917F916F915F914F913F9125
S11357402F911F910F91FF90EF90DF90CF90BF901A
S1135750AF900F900BBE0F900FBE0F901F90189537
S113576078941F920F920FB60F9211240BB60F92DA
S11357701F932F933F934F935F936F937F938F93D5
S11357809F93AF93BF93EF93FF93CF93DF931F92B6
S1135790CDB7DEB780917D008E7F80937D007894B5
S11357A01FB7F8948091EB019091EC01A091ED0169
S11357B0B091EE01892B8A2B8B2B09F0CAC0809102
S11357C05701823051F08330A1F0813009F0C3C019
S11357D0109257010E945E19BEC0109257018FE0CB
S11357E090E0909361018093600180E00E94410AFF
S11357F062C01092570180916001909161018D30D7
S1135800910509F445C00E9709F0A5C00E94270A26
S113581081E190E09093610180936001CE01019653
S11358200E94650C8111FACF8699ADC00E94A00A2E
S11358300E948C138BE090E090936101809360014F
S1135840E091AA01F091AB0183818F5F8383928100
S11358509817A0F48091700590917105892B09F433
S11358607AC01092AC010E948F020E94FB0F84E068
S113587090E090936101809360016DC080818F5F9F
S113588080839181981708F490830E949A1163C0D1
S11358900E94270A80E190E0909361018093600167
S11358A0CE0101960E94650C8111FACF81E00E941D
S11358B0410A811103C00E9456134DC00E94A00AE0
S11358C00E948C13E091AA01F091AB0183818F5F58
S11358D083839281981738F48091700590917105B3
S11358E0892B59F438C080818F5F80839181981708
S11358F008F490830E9476112EC01092AC010E948D
S11359008F020E94FB0F84E090E0909361018093EA
S113591060010E946F028C30F1F41092390281EE22
S113592090E09093F8018093F7018091A801909101
S1135930A9019093CB078093CA071092A9011092F2
S1135940A80183E00E94F601109249050E94B71352
S113595002C00E94A1021FBF0F90DF91CF91FF915F
S1135960EF91BF91AF919F918F917F916F915F91D3
S11359704F913F912F911F910F900BBE0F900FBE2F
S11359800F901F90189581E00E94410A81114ECF1B
S113599092CF78941F920F920FB60F9211240BB6E8
S11359A00F92CF92DF92EF92FF921F932F933F9328
S11359B04F935F936F937F938F939F93AF93BF9313
S11359C0CF93DF93EF93FF93C6B5D7B51FB7F89482
S11359D00E943F02660F771F881F991F6B017C018D
S11359E02AE0C21AD108E108F1089E01220F331FF0
S11359F0621B730BC61AD70AE108F108809159019A
S1135A0090915A018430910519F00597F1F059C02D
S1135A1085E090E090935A018093590181E080934E
S1135A20E6011092580180E00E94F50DE0910D030B
S1135A30F0910E030480F581E02DC382D282E182CD
S1135A40F0820E94C601849997C01092E60181E019
S1135A500E94F50DE0910D03F0910E030190F08189
S1135A60E02D818185FF1FC086E090E090935A016C
S1135A70809359010E943F0260934C0270934D023F
S1135A8080934E0290934F028BE490E0A0E0B0E04C
S1135A9080933E0290933F02A0934002B093410250
S1135AA00E9453040CC081E090E090935A018093CB
S1135AB0590160E080E00E94771D0E94690F849B79
S1135AC05BC080915801811133C08091E60181113E
S1135AD02FC081E08093E60180E00E94F50D20B3A1
S1135AE08091D5019091D601892BA9F0809111075D
S1135AF0883088F4E0911907E80FE77094E0E99F93
S1135B00F0011124E151F94FC082D182E282F38283
S1135B108F5F8093110781E080935801D0935902DD
S1135B20C0935802849928C024FBFF24F0F801C0D4
S1135B30F12C8091E6018130F9F41092E6010E9483
S1135B40F50D10925801F11017C0809158029091F0
S1135B505902C81BD90BCC0FDD1F649768F48091E0
S1135B60D5019091D601892B39F0809111078823B2
S1135B7019F08150809311071FBFFF91EF91DF91BE
S1135B80CF91BF91AF919F918F917F916F915F91D1
S1135B904F913F912F911F91FF90EF90DF90CF9005
S1135BA00F900BBE0F900FBE0F901F901895789416
S1135BB01F920F920FB60F9211242F938F939F93DE
S1135BC02FB7F8948091110390911203019690934A
S1135BD01203809311032FBF9F918F912F910F90E8
S1135BE00FBE0F901F9018951F920F920FB60F9231
S1135BF011240F900FBE0F901F9018951F920F92B3
S1135C000FB60F9211240F900FBE0F901F9018958E
S1135C101F920F920FB60F9211240F900FBE0F9088
S1135C201F9018951F920F920FB60F9211240F9088
S1135C300FBE0F901F9018951F920F920FB60F92E0
S1135C4011240F900FBE0F901F9018951F920F9262
S1135C500FB60F9211240F900FBE0F901F9018953E
S1135C601F920F920FB60F9211240BB60F922F931F
S1135C703F934F935F936F937F938F939F93AF93D0
S1135C80BF93EF93FF938091D5019091D601029732
S1135C9019F40E94A50E05C08091DE018F5F8093E8
S1135CA0DE01FF91EF91BF91AF919F918F917F9111
S1135CB06F915F914F913F912F910F900BBE0F9079
S1135CC00FBE0F901F9018951F920F920FB60F9250
S1135CD011240F900FBE0F901F9018951F920F92D2
S1135CE00FB60F9211240BB60F922F933F934F933D
