S01800006275696C642F6D6963617A2F6D61696E2E73726563E5
S11300000C9480000C94152F0C941F2F0C94292F02
S11300100C94332F0C943D2F0C94472F0C94512F98
S11300200C94852F0C949F000C949F000C94EA2D43
S11300300C94DB2B0C94422C0C94F82E0C948B2BEC
S11300400C94B32B0C948F2F0C949F000C949F0052
S11300500C949F000C949F000C949F000C949F00A0
S11300600C94E02C0C949F000C949F000C949F0023
S11300700C949F000C949F000C949F000C949F0080
S11300800C949F000C949F000C949F007E0F810F92
S1130090840F870F8A0F8D0F980F20102310DB21F8
S11300A0EB210C2251227B2288228C2290224B2489
S11300B04E2401251425192526252D25432584257F
S11300C0DB2521263F26552690261B2739274D2739
S11300D05827BF29062A7A2ADF26A826C2266D2B8E
S11300E0D6266D2B6D2B0D27D926D926D9266D2B17
S11300F06D2B6D2BDC26DC26DC2600081C18141066
S113010011241FBECFEFD0E1DEBFCDBF11E0A0E0D0
S1130110B1E0E6E4F4E600E00BBF02C007900D9204
S1130120AE31B107D9F716E0AEE1B1E001C01D92DE
S1130130AB34B107E1F70E94F62F0C9421320C94F2
S11301400000D89A08959FB7F894E82FF0E0E85695
S1130150FA4F10829FBF0895FC0120816181862F90
S113016090E0A0E0B0E077276627922B2381622BF2
S11301702281722B0895C0980895B89A0895C09A60
S113018008959FB7F8948BB322E082278BBB9FBF5F
S1130190089587B78F7E87BF08958C7090913F0133
S11301A0937F892B80933F010895809125068F3F8B
S11301B071F0E82FF0E0E957FE4F90819093250607
S11301C09F3F11F4909342069FEF908308958FEF21
S11301D0089583B783BF00B600FCFDCF0895309126
S11301E080033323C1F020919F02E22FF0E0EE0F51
S11301F0FF1FE65FFA4F8081918111821082315096
S1130200309380032F5F243019F020939F020895C8
S113021010929F02089580E090E008950F931F9339
S11302208FB7F89460918D0370918E030CB51DB552
S113023006B602FE04C06F5F7F4F0CB51DB58FBFBD
S1130240CB01A0E0B0E07727662720E030E0602B08
S1130250712B822B932B1F910F9108959FB7F894C4
S1130260E82FF0E0E957FE4F20812F3FC9F421E049
S113027030E0E0914206E81711F020E030E0232B53
S113028079F4209125062F3F19F48093250604C0A4
S1130290F0E0E957FE4F80838093420680E001C07E
S11302A085E09FBF08958AE10C942E01409180035C
S11302B04430B8F450919F02242F30E0250F311DB3
S11302C02430310510F024503109F901EE0FFF1FDD
S11302D0E65FFA4F918380834F5F4093800380E011
S11302E0089581E008959FB7F89420910701281399
S11302F007C080913301823019F49FBF81E00895D3
S11303009FBF80E008959FB7F894E82FF0E0E85687
S1130310FA4F80819FBF08959FB7F894809133016D
S1130320823019F09FBF8FEF0895809107019FBF1E
S11303300895CF93C82F0E948C01C8130AC081E08E
S113034020912701309128012430310519F080E0F3
S113035001C085E0CF910895CF92DF92EF92FF9292
S11303600F931F930E940E01C0903501D090360167
S1130370E0903701F09038010091B4011091B5017B
S11303802091B6013091B7010C0D1D1D2E1D3F1D8E
S11303906C157D058E059F0530F00C151D052E0589
S11303A03F0558F005C00C151D052E053F0590F5B9
S11303B0601771078207930768F568017901C61A07
S11303C0D70AE80AF90A41E0C41640E8D406E10471
S11303D0F10418F18B019C0110582F4F3F4F0093EB
S11303E0350110933601209337013093380197017A
S11303F086011058210931090093B4011093B50105
S11304002093B6013093B701C12CE0E8DE2EE12C35
S1130410F12C13C0C12CD12C76010093350110931B
S1130420360120933701309338011092B4011092B1
S1130430B5011092B6011092B7014CB55DB54D5F90
S11304405F4F9A01261B370B2C153D0518F4AB01A1
S11304504C0D5D1D4115510511F441E050E0415032
S1130460510959BD48BD88E086BF87B7886087BFFA
S11304701F910F91FF90EF90DF90CF900895CF934D
S1130480CFB7F89410922101109220010E94C90064
S113049087B78F7D87BF0E94BF00CFBF80E0CF9119
S11304A00895CF92DF92EF92FF920F931F930E94D1
S11304B00E01C090AD05D090AE05E090AF05F09070
S11304C0B0050091550210915602209157023091C7
S11304D058020C0D1D1D2E1D3F1D6C157D058E052E
S11304E09F0530F00C151D052E053F0558F005C07D
S11304F00C151D052E053F0590F560177107820741
S1130500930768F568017901C61AD70AE80AF90A57
S113051041E0C41640E8D406E104F10418F18B016B
S11305209C0110582F4F3F4F0093AD051093AE051B
S11305302093AF053093B005970186011058210927
S113054031090093550210935602209357023093B9
S11305505802C12CF0E8DF2EE12CF12C13C0C12C81
S1130560D12C76010093AD051093AE052093AF0511
S11305703093B00510925502109256021092570211
S1130580109258024CB55DB54D5F5F4F9A01261B22
S1130590370B2C153D0518F4AB014C0D5D1D4115B1
S11305A0510511F441E050E0415051095093790054
S11305B04093780081E080937C0080917D0081608D
S11305C080937D001F910F91FF90EF90DF90CF906B
S11305D0089540917F034330B8F450912C06242FA2
S11305E030E0250F311D2330310510F0235031093F
S11305F0F901EE0FFF1FED5BF94F918380834F5F8D
S113060040937F0380E0089581E0089530917F0353
S11306103323C1F020912C06E22FF0E0EE0FFF1FF0
S1130620ED5BF94F808191811182108231503093BA
S11306307F032F5F233019F020932C060895109226
S11306402C06089580E090E008950F931F934FB710
S1130650F89498E0899FF0011124E85EFA4F6481D0
S11306607581868197810081118122813381600F98
S1130670711F821F931F4FBF1F910F9108953091D7
S11306802E01E32FF0E0EE0FFF1FE352FA4F8081BB
S1130690918120912C01222359F03F5F343019F0CD
S11306A030932E0102C010922E01215020932C0170
S11306B00895CF92DF92EF92FF920F931F930E94BF
S11306C00E01C090D102D090D202E090D302F090FB
S11306D0D4020091A0021091A1022091A2023091B3
S11306E0A3020C0D1D1D2E1D3F1D6C157D058E05D1
S11306F09F0530F00C151D052E053F0558F005C06B
S11307000C151D052E053F0590F56017710782072E
S1130710930768F568017901C61AD70AE80AF90A45
S113072041E0C41640E8D406E104F10418F18B0159
S11307309C0110582F4F3F4F0093D1021093D202C7
S11307402093D3023093D4029701860110582109D3
S113075031090093A0021093A1022093A2023093C6
S1130760A302C12C90E8D92EE12CF12C13C0C12C8A
S1130770D12C76010093D1021093D2022093D3029C
S11307803093D4021092A0021092A1021092A202FD
S11307901092A3024CB55DB54D5F5F4F9A01261BC5
S11307A0370B2C153D0518F4AB014C0D5D1D41159F
S11307B0510511F441E050E0415051095BBD4ABD7F
S11307C080E186BF87B7806187BF1F910F91FF903B
S11307D0EF90DF90CF9008952F923F924F925F92C7
S11307E06F927F928F929F92AF92BF92CF92DF923D
S11307F0EF92FF920F931F93EFB7F89480919902B1
S113080090919A02A0919B02B0919C021C012D012F
S11308109C01A20160E070E080E090E003E00E94AF
S1130820BF3151016201E12CF12C00E010E00E9483
S1130830FF3159016A017B01F82F192F03E00E944F
S1130840BF310F2F0E94FF3159016A017B01F82F3C
S1130850192F03E00E94BF310F2F0E94FF3159016D
S11308606A017B01F82F192F03E00E94BF310F2F7B
S11308700E94FF3159016A017B01F82F192F03E00F
S11308800E94BF310F2F0E94FF3101E00E94BF314F
S113089029013A0100E20E94DA3149015A01C301F7
S11308A0B2019695879577956795680D791D8A1D90
S11308B09B1D97FF05C09F776F5F7F4F8F4F9F4FA3
S11308C06093990270939A0280939B0290939C0286
S11308D0EFBF1F910F91FF90EF90DF90CF90BF90EB
S11308E0AF909F908F907F906F905F904F903F90CC
S11308F02F90089530912B01E32FF0E0EE0FFF1FAE
S1130900ED58FC4F8081918120912901222359F0D7
S11309103F5F343019F030932B0102C010922B0149
S1130920215020932901089580910905811102C065
S113093086E004C08F5F8093090585E00C942E0146
S1130940FF920F931F93CF93DF938AE18093680202
S113095080E88093690213E010936A0210926B029C
S11309601092650210925F02FF24F394F0926002E9
S11309701092610286E080936C0210926D020FE087
S113098000936E02109283021092840210928502E8
S1130990109286020E94EC0360936F02CFEFDFEFA8
S11309A0D0937802C09377020E94EC0360937002A4
S11309B0F092620285E08093740284E08093710275
S11309C01093750210937202D0937A02C093790245
S11309D01092630280E28093760210926402109275
S11309E06602D0937C02C0937B020093730284EF6F
S11309F091E090937E0280937D021092670282ECD4
S1130A0097E0A0E0B0E080937F0290938002A093EF
S1130A108102B0938202DF91CF911F910F91FF90D9
S1130A20089563FF04C062FD04C097E003C093E02F
S1130A3001C09DE067FF07C086FF02C09E5F01C042
S1130A409C5F66FD9A5FFA01908380E00895DF92CF
S1130A50EF92FF920F931F93CF93DF93D22EE32E47
S1130A60F42ED52FC62FB72FFC01A8E001939801CF
S1130A704D2D5E2D6F2D7D2F8C2F9B2F08E00E9416
S1130A80DA318901D42EE52EF62ED72FC82FB92FAF
S1130A90A15061F7DF91CF911F910F91FF90EF90DB
S1130AA0DF90089580918403882349F01092840391
S1130AB01092A5011092A40188E10C942E010895CE
S1130AC04F925F926F927F928F929F92AF92BF925A
S1130AD0CF92DF92EF92FF920F931F93CF93DF9306
S1130AE00E940E01C8E9D5E040E044244A94542C05
S1130AF03201E8E1F5E029912223C1F1808091805F
S1130B00A280B3806B017C01C818D908EA08FB08ED
S1130B100481158126813781C016D106E206F306C9
S1130B2068F0080D191D2A1D3B1D008311832283C3
S1130B30338314821582168217820CC060837183FA
S1130B40828393830C191D092E093F09048315839D
S1130B502683378304811581268137814016510607
S1130B606206730618F02801390141E0389625E041
S1130B70E839F20709F0BFCF442341F177FE04C0FE
S1130B807694679457944794609335017093360133
S1130B9080933701909338014092B4015092B5018B
S1130BA06092B6017092B701DF91CF911F910F91BE
S1130BB0FF90EF90DF90CF90BF90AF909F908F9079
S1130BC07F906F905F904F900C94AC0187B7877FB4
S1130BD087BFDF91CF911F910F91FF90EF90DF902E
S1130BE0CF90BF90AF909F908F907F906F905F90C9
S1130BF04F900895FB01833009F471C028F48823D1
S1130C0019F1823099F174C0833589F0803F29F15C
S1130C10803509F06DC0808191812FB7F89431E05F
S1130C203093AB059093900280938F020BC0808128
S1130C3091812FB7F89431E03093AB059093D602AD
S1130C408093D5022FBF54C090818FB7F89421E0D0
S1130C502093AB059093B3054AC090818FB7F89465
S1130C6021E02093AB0590937B0141C09081892FB3
S1130C708F7395FD806C992787FD909597FF19C018
S1130C808F3F2FEF9207B9F08D3F2FEF9207ACF40F
S1130C908B3F2FEF92079CF4883F2FEF92078CF441
S1130CA0843F2FEF92077CF48D3E9F4F74F087E0D2
S1130CB00DC08FE10BC08BE109C087E107C083E160
S1130CC005C08FE003C08BE001C083E09FB7F894B8
S1130CD021E02093AB05809395029FBF09C09081CA
S1130CE08FB7F89421E02093AB0590932F068FBF24
S1130CF080912701909128010697029718F483E1C7
S1130D000C942E01089520912C012430E0F43091AC
S1130D102D01E32FF0E0EE0FFF1FE352FA4F918312
S1130D20808381E0830F843019F080932D0102C009
S1130D3010922D012F5F20932C0189E00E942E0137
S1130D4080E090E0089581EF90E00895CF93CFB7CD
S1130D50F8948091A4019091A501892B19F4CFBF37
S1130D6089E00EC081E08093840389B78F7B89BFBB
S1130D7080915402811102C00E945205CFBF80E0CD
S1130D80CF910895CF93C82F0E948C01C8131BC024
S1130D902FB7F89480912701909128018430910510
S1130DA019F42FBF89E010C0079719F02FBF81E015
S1130DB00BC088E090E090932801809327012FBF17
S1130DC0CF910C94A60685E0CF91089580E00C9411
S1130DD0C206CF92DF92EF92FF92CF93DF9300D0BF
S1130DE000D0CDB7DEB76B017C0129833A834B83F6
S1130DF05C830E940E01660F771F881F991F6C1970
S1130E007D098E099F09E1E029813A814B815C814A
S1130E10621773078407950708F4E0E08E2F0F909C
S1130E200F900F900F90DF91CF91FF90EF90DF9094
S1130E30CF90089584E00E94A30086E00E94A3005E
S1130E4085E00C94A3009FB7F89481E020910301FE
S1130E50211180E09FBF08958F929F92AF92BF921D
S1130E60CF92DF92EF92FF92CF93DF9300D000D026
S1130E70CDB7DEB74B015C0129833A834B835C8396
S1130E800E940E016B017C01CC0CDD1CEE1CFF1CCE
S1130E90C818D908EA08FB084601570129813A8194
S1130EA04B815C81C216D306E406F50610F44901B1
S1130EB05A010E940E016093AD057093AE058093B4
S1130EC0AF059093B005D501C4018C199D09AE09F5
S1130ED0BF09B695A79597958795809355029093EA
S1130EE05602A0935702B09358020F900F900F90A0
S1130EF00F90DF91CF91FF90EF90DF90CF90BF9054
S1130F00AF909F908F900C9451026E9A8FB9779BFB
S1130F10FECF8FB108959091150591110C9485071A
S1130F2080E00895CF93CFB7F8940E9423078111EE
S1130F3003C0CFBF81E00EC00E94BF000E94BB006F
S1130F4083E00E948B078BE00E948B070E94BF0006
S1130F50CFBF80E0CF9108951F93CF93DF931F926B
S1130F60CDB7DEB720912001309121012330310526
S1130F7009F049C089830E94BF000E94BB00898197
S1130F80882311F085E001C084E00E948B0783FD73
S1130F9009C080E00E948B0783FB112710F981E0D0
S1130FA0182701C011E00E94BF0011112EC084E077
S1130FB090E09093210180932001E0918B03F091C4
S1130FC08C030480F581E02D8FEF838382838183FA
S1130FD080830E940E016093D1027093D2028093A9
S1130FE0D3029093D40280EE91E0A0E0B0E080932D
S1130FF0A0029093A102A093A202B093A3020E9424
S1131000590380E003C084E001C081E00F90DF91C8
S1131010CF911F910895CF93CFB7F8940E942307DF
S1131020811103C0CFBF81E00BC00E94BF000E94AA
S1131030BB0086E00E948B070E94BF00CFBF80E008
S1131040CF910895CF92DF92EF92FF920F931F9367
S1131050CF93DF930091320610913306E0906A0437
S1131060F0906B04C0918903D0918A0320913D01D3
S113107030913E01CE010A962817390708F4C901B8
S11310806C0121E0C21AD108CC15DD05A0F40115CC
S1131090110529F0F801EC0FFD1F808101C080E0EB
S11310A00E948507E114F10421F0F701EC0FFD1F04
S11310B080832196E9CF6F9A0115110531F0F8016B
S11310C0EC0FFD1F80818FB901C01FB8D0938A0334
S11310D0C093890380E0DF91CF911F910F91FF901E
S11310E0EF90DF90CF90089550933E0140933D01DF
S11310F0909333068093320670936B0460936A0472
S113110010928A0310928903452B19F08FB10C9425
S1131110220886E10E942E0180E00895CF93DF9398
S11311200E94BF000E94BB00C0917004D091710462
S113113080911505882391F08FE790E09093DA026F
S11311408093D9028FE70E94850741E050E0BE01F9
S113115080E090E0DF91CF910C947408DF91CF91FF
S11311600895EF92FF921F93CF93DF931F92CDB711
S1131170DEB77C01809115058823A9F08EE390E009
S11311809093DA028093D9028EE369830E948507E3
S1131190182F6981462F50E060E070E0C7010E947B
S11311A07408812F01C080E00F90DF91CF911F91CF
S11311B0FF90EF9008950F931F93CF93CFB7F894B8
S11311C090913301923071F49091070198130AC001
S11311D08091310481110EC080913204882309F476
S11311E03EC008C090E0CFBF81E08927CF911F9116
S11311F00F9108952091340130E0C901019661E016
S113120070E08C30910511F480E090E0E82FE695D1
S1131210E695E695F0E0EF5CFB4FA081482F477020
S11312208B0102C0000F111F4A95E2F7A801BA2FE3
S1131230B02331F040954A2340838093340106C0A3
S11312408217930711F00196DCCF8FEF8093A801EA
S113125081E08093330182E00E942E0105C08FEF6C
S1131260809307011092330191E0BDCFCF92DF92BA
S1131270EF92FF92CF93C82F6A017B010E940E0167
S113128029E0C29FF0011124ED5CFB4F660F771F2C
S1131290881F991F6083718382839383C482D5825C
S11312A0E682F78280858160826080878BE1CF91BE
S11312B0FF90EF90DF90CF900C942E01EF92FF926D
S11312C00F931F93CF93DF938C01FFB6F8940E9482
S11312D02307882311F10E94BF000E94BB00809164
S11312E01505882381F083E50E948507E82E80E0B8
S11312F00E948507C82FD0E0DC2FCC2780E00E9415
S11313008507C82B01C0E12C0E94BF00E1FE05C087
S1131310F801C083FFBE80E002C0FFBE81E0DF9120
S1131320CF911F910F91FF90EF900895CF93DF938A
S113133000D0CDB7DEB79FB7F894209115052223CE
S113134089F09FBF6A8379830E9485077981872FFB
S11313500E9485076A81862F0F900F90DF91CF91AD
S11313600C9485079FBF80E00F900F90DF91CF9181
S113137008958091B30590E00B9725E0289FB00174
S1131380299F700D11246B597E4F706488E10C9471
S11313909609E1E080918803811101C0E0E041E019
S11313A080917B01811101C040E021E08091B10175
S11313B0811101C020E080919602882351F051E010
S11313C030E08091AC05811101C050E0852F932F4E
S11313D002C080E090E060912F0630E4639FB0018A
S11313E0112462627260F0E0FE2FEE27F295FF0F87
S11313F0F07E6E2B7F2B50E0542F44275295507F64
S1131400642B752B30E0322F2227330F330F330F29
S1131410622B732B54E0880F991F5A95E1F7682BC0
S1131420792B81E10C949609EF92FF920F931F930D
S1131430CF93DF93CDB7DEB72C970FB6F894DEBF0A
S11314400FBECDBFFFB6F8940091290410912A0471
S113145020912B0430912C0440912D0450912E04A2
S113146060912F0470913004CE0101960E942705EB
S113147090918F028091900299878A879091D502EA
S11314808091D6029B878C87FFBE21E080918F02DA
S113149090919002019609F020E0722F770F770F58
S11314A0770F60E06F6772608CE10E9496098FB7D6
S11314B0F89490911505911102C08FBF16C08FBF8B
S11314C080EE0E94850780E80E9485078E010F5FE9
S11314D01F4F7E018DE0E80EF11CF80181918F0110
S11314E00E9485070E151F05C1F72C960FB6F894B8
S11314F0DEBF0FBECDBFDF91CF911F910F91FF9043
S1131500EF900895CF93CFB7F8940E9423078111E9
S113151003C0CFBF81E027C08091AB05882309F1C8
S11315200E94BF000E94BB0086E00E948B070E94BD
S1131530BF000E94BB000E94B9090E94C9096091C2
S1131540950270E0606E706885E10E9496090E94C1
S1131550BF000E94BB000E94140A0E94BF001092A8
S1131560AB05CFBF80E0CF91089580912501909184
S113157026010197F1F582E090E090932601809393
S11315802501DE98DE9A809125019091260102972B
S113159081F583E090E090932601809325010E94D9
S11315A0BF000E94BB0068E170E08DE10E949609D3
S11315B081E08093D7021092240180B386FB8827B0
S11315C080F98093D80284E10E942E0181E00E9478
S11315D08B076FE772E08CE10E9496090E94B909BB
S11315E00E94C90966E57AE287E10E9496090C9493
S11315F0BF00089597B79F7D97BF90E296BF882359
S113160019F08EB5806402C08EB58F7B8EBD87B70E
S1131610806287BF80E008956E98BA9ABB98B99AA1
S11316200E94BD006C9A6F986B986A986E9A709A33
S11316308DB18C7F8DB908951F93CF93DF931F9243
S1131640CDB7DEB71FB7F8949091150591111FC05F
S113165091E09093150520910001909122012111B0
S113166002C0923079F0911115C092E0909322015A
S11316701092000189830E940C0B0E94BD000E94FD
S1131680BB0089818093030180E01FBF07C01FBF97
S113169085E004C01092150581E0F7CF0F90DF912B
S11316A0CF911F910895CF93CFB7F89490911505DA
S11316B091110FC091E090931505809303019091CF
S11316C0000180912201911110C0823071F485E1F2
S11316D018C021E030E001C0220F8A95EAF780911A
S11316E02301822B809323012EC0882349F180910A
S11316F02201811109C081E0809322011092B3017B
S113170087E10E942E011FC08091B8018F3FD9F458
S113171081E090E0E0910101EE2311F080E090E09F
S1131720892B89F4809102018F3F19F410920201F0
S113173004C0F0E0E854FE4F10821092010103C08F
S11317400E940C0BD4CFCFBF80E0CF91089580E0EE
S11317500C94530B8091A4019091A501892BF1F075
S11317608091840381111AC083E090E09093A501D5
S11317708093A40181E0809354029FB7F8948091F0
S113178003019FBF813011F40C948E0881E00E9404
S11317901C0B8823C9F381E00C94530B0895CF925A
S11317A0DF92EF92FF92CF93DF93C82F6A017B0100
S11317B00E940E01DFB7F8942C2F30E0F901A3E06A
S11317C0EE0FFF1FAA95E1F7E85EFA4F608371837D
S11317D082839383C482D582E682F782F901E85634
S11317E0FA4F81E080838091A805811102C00E9494
S11317F06005DFBFDF91CF91FF90EF90DF90CF9036
S11318000895CF93DF93EB010E945601CD2B61F431
S11318108091490691E0980F90934906843120F015
S1131820109249060E94C1008CE1DF91CF910C9483
S11318302E01CF93CFB7F89480912001909121018C
S1131840019719F4CFBF89E00DC081E00E94FA0A24
S113185081E090E0909321018093200110921F0178
S1131860CFBF80E0CF910895CF930E94820A0E9457
S1131870190CE0911205F0911305CFB7F8948091FB
S1131880200190912101019729F582E090E0909345
S1131890210180932001F0938C03E0938B03A081BA
S11318A0B18186819781890F8E5F8C930E94BF00DE
S11318B00E94BB0089E00E948B070E94BF000E9427
S11318C0BB00E0918B03F0918C0361E080819181F6
S11318D00E94B108CFBFCF9108950E9423078111C0
S11318E00C94340C80E00E941C0B8823C9F30C94E4
S11318F0A70B8091230181114EC0809103018F3F7A
S113190009F049C080911505811145C081E080939B
S1131910DC058091820181111092DC058091DC0547
S11319208823B9F180910001811104C080912201C2
S1131930823099F180912201823029F58091000151
S1131940811121C0809102018F3FC9F09FEF9093D4
S11319500001E82FF0E0E854FE4F908190930201DB
S11319609F3F11F4909301019FEF90838093B30103
S113197081E08093220187E10E942E0104C08093BC
S113198000011092220180912201811109C06E98F8
S113199007C085E0089581E008950E94BF00CACF82
S11319A080E00895CF93CFB7F894909103019817EE
S11319B019F0CFBF81E02DC08FEF809303017091A8
S11319C02301711105C0109215050E94790C1CC0E9
S11319D060E0872F90E06170AC01062E02C055953F
S11319E047950A94E2F740FF12C06093030181E037
S11319F090E001C0880F6A95EAF780958723809369
S1131A00230185E10E942E01CFBF80E002C06F5FF9
S1131A10E2CFCF910895CF93CFB7F89480E00E949E
S1131A20D20CCFBFCF91089581E00C94D20CCF9308
S1131A30CFB7F8948091A4019091A501892B09F165
S1131A401092540280918403882319F00E94520555
S1131A501AC08091B201882311F0B79904C00E997D
S1131A6008C0882319F081508093B2010E94AA0B08
S1131A700AC082E090E09093A5018093A4011092A3
S1131A80B2010E94140DCFBFCF91089580E88093D6
S1131A907A011092540210922B061092240610928E
S1131AA0B2010E94BF000E94BB0088E00E948B0725
S1131AB088E00E948B070E94BF000E94140D0C94C2
S1131AC0170DCF92DF92EF92FF926B017C01809110
S1131AD01E0181111FC083E080931E010E940E012C
S1131AE06093AD057093AE058093AF059093B005F8
S1131AF0F694E794D794C794C0925502D0925602B4
S1131B00E0925702F0925802FF90EF90DF90CF904E
S1131B100C945102FF90EF90DF90CF900895CF93F3
S1131B20E0918001F0918101C0810E94EC032FEFCC
S1131B303FEF02C0220F331FCA95E2F74DE050E099
S1131B40509328014093270120953095262337236D
S1131B5084E1829FB001839F700D112480E090E0A6
S1131B60CF910C94610D2F923F924F925F926F929E
S1131B707F928F929F92AF92BF92CF92DF92EF9219
S1131B80FF920F931F93FC01DB0117968C9117971B
S1131B9016968C901697912CA12CB12C5401992453
S1131BA08824B82A14968C911497882A15968C91B7
S1131BB01597982A9401A50160E070E080E090E018
S1131BC000E20E94BF311396FC90139712962C905A
S1131BD01297822C912CA12CB12C54019924882485
S1131BE0BF28FC908F281196AC919A2A14012501E4
S1131BF051016201E12CF12C00E010E00E94F63169
S1131C0020833183428353836483758386839783DC
S1131C101F910F91FF90EF90DF90CF90BF90AF9006
S1131C209F908F907F906F905F904F903F902F90F8
S1131C300895CF92DF92FF920F931F93CF93DF9378
S1131C401F92CDB7DEB78C01F62E6901FC018181AC
S1131C50877009F05FC08281982F9078903809F0DE
S1131C6059C08295869586958370F9018083F80121
S1131C70858190E0982F88272481822BF601928316
S1131C808183F8018281807C803851F4878190E0DF
S1131C90982F88272681822BF6019483838309C099
S1131CA0B8016A5F7F4FC601039649830E94B30D52
S1131CB04981F601F3864487F801828DF601858710
S1131CC0F801838DF6018687F801848D881F8827A3
S1131CD0881FF6018787F801EB56FF4F8081F601D4
S1131CE0808BC80180579F4F0E94AC00F601618B26
S1131CF0728B838B948B168A158A178A108E118E99
S1131D00128E138E148E158E168E178E10A211A29B
S1131D1080E001C081E00F90DF91CF911F910F917E
S1131D20FF90DF90CF900895CF93DF93EC01409123
S1131D306B028B819091520291111EC02FEA32E006
S1131D406AE1CE010E94190E81111CC08091AF027C
S1131D508230C1F48091B0029091B10282379148EF
S1131D6089F48091B2029091B3028133934451F487
S1131D7081E08093520206C080FF02C0D89802C05E
S1131D800E94A100CE01DF91CF910895FC018081D2
S1131D908F779181977021F5948D977029F0292F71
S1131DA0220F290F2C5F01C023E07A9630E0DF0177
S1131DB0A20FB31F4C912F5F3F4F2E0F3F1F942F45
S1131DC0977021F0290F311D290F311D407729F01B
S1131DD050E056954795240F351FE21BF30B8E0FE9
S1131DE008952FB7F894B79905C00E9903C02FBF73
S1131DF081E0089580E880937A0110925402109251
S1131E002B06109224061092B20182E090E0909387
S1131E10A5018093A40189B78F7B89BF80E488BF23
S1131E208AB780628ABF8AB78F7E8ABF89B7806487
S1131E3089BF2FBF80E00895E0911205F09113054A
S1131E400190F081E02D818185FF04C00E940B0D7B
S1131E500C94F10E0895CF93CFB7F8940E94230702
S1131E60811103C0CFBF81E01FC0B79B1BC00E947C
S1131E70BB0080911505882349F08FE70E948507F0
S1131E8080E00E94850780E00E9485070E94BF00D1
S1131E900E94BB0088E00E948B0788E00E948B07A9
S1131EA00E94BF00CFBF80E0CF9108956F927F92D0
S1131EB08F929F92AF92BF92CF92DF92EF92FF9256
S1131EC00F931F93CF93DF931F92CDB7DEB7182FD5
S1131ED07FB6F89469830E948C0169818113BAC02A
S1131EE060930701862F90E0FC013397E930F105F8
S1131EF008F0ADC0EA5BFF4F0C94B93168E083E0B1
S1131F00A4C065E084E0A1C066E085E09EC068E00E
S1131F1086E09BC068E087E098C080913F0185FF20
S1131F2004C088E00E942E0192C00E94D31B8FC07F
S1131F30A091EF052091A9013091AA014091AB0134
S1131F405091AC01B0E00E948C31643A21E07207F8
S1131F508105910518F46AE089E077C06B017C0182
S1131F60E4EACE1AE1E0DE0AE108F10880912D06E8
S1131F708093AA028090380690903906A0903A0681
S1131F80B0903B066FB6F8940E940E01660F771F5F
S1131F90881F991F681979098A099B098B019C017B
S1131FA06C157D058E059F0510F497018601680167
S1131FB07901C61AD70AE80AF90AB701A601769583
S1131FC067955795479584E00E94CF0B6FBEC090EC
S1131FD0F705D090F805C114D10479F1E12CF12C66
S1131FE08090380690903906A0903A06B0903B064F
S1131FF06FB6F8940E940E01660F771F881F991F11
S1132000681979098A099B098B019C016C157D0566
S11320108E059F0510F49701860168017901C61A9F
S1132020D70AE80AF90AB701A60176956795579584
S1132030479585E00E94CF0B6FBE0E943C1007C0FD
S113204068E08AE002C063E08BE00E94560F7FBE26
S113205080E002C07FBE81E00F90DF91CF911F919D
S11320600F91FF90EF90DF90CF90BF90AF909F9033
S11320708F907F906F9008954F925F926F927F92AE
S11320808F929F92AF92BF92CF92DF92EF92FF9284
S11320900F931F93CF93DF9300D000D0CDB7DEB75B
S11320A05FB6F89480914006811178C089E00E945F
S11320B07301882309F472C081E080934006A091E3
S11320C0EF052091A9013091AA014091AB015091F3
S11320D0AC01B0E00E948C319B01AC01245A314028
S11320E041095109609138067091390680913A0688
S11320F090913B060E94E906882339F089E00E940A
S11321009901882309F480C106C084E00E948301F8
S11321108823A1F310C00E941A0780912F01811116
S11321200E944C151092AA02109240066AE089E0BF
S11321300E94560F33C08091AA02882319F00E948E
S1132140131B41C180912F018111F9CF8091970216
S11321509091980220914A06211106C021E002972D
S113216009F020E0822F01C081E02091300181112B
S113217008C081E090E0211102C080E090E0892B4A
S113218079F089E00E949901882309F43DC10E94F5
S11321901A071092400689E00E94DB085FBE37C12F
S11321A02091F7053091F80521153105B9F040E08B
S11321B050E0609138067091390680913A0690910A
S11321C03B060E94E906882349F080914F02811161
S11321D005C08091A701882309F4EBC08091820394
S11321E090918303892B09F4D3C01091EF052091BA
S11321F0A9013091AA014091AB015091AC0189E051
S113220029833A834B835C830E94990129813A8113
S11322104B815C81882309F4D4C0A12FB0E00E94D3
S11322208C314B015C016B017C0124EAC21A21E070
S1132230D20AE108F1088091D2049091D304A091CC
S1132240D404B091D504C81AD90AEA0AFB0AC70112
S1132250B60124E130E040E050E00E949731E4E12F
S1132260CE0ED11CE11CF11CC61AD70AE80AF90AE1
S11322708C149D04AE04BF0418F4C12CD12C760137
S11322808091F7059091F805009749F0A0E0B0E03F
S11322908C159D05AE05BF0510F46C017D016091A0
S11322A038067091390680913A0690913B06A70151
S11322B096010E94E906811181C000917C01109170
S11322C07D014090AF018090380690903906A0902F
S11322D03A06B0903B0660908203709083030E949C
S11322E08C01893009F051C06114710409F44DC0A6
S11322F0F30180819181892B09F447C08281938104
S1132300892B19F48781811140C0F301848195815F
S1132310892BD9F12681878190E0820F911D8E3718
S113232091059CF52FB7F89480912701909128018D
S1132330049711F02FBF29C08BE090E090932801FF
S1132340809327012FBF70921305609212058BE7CB
S113235093E0909381018093800180925A0290923D
S11323605B02A0925C02B0925D02C0926F01D092B7
S11323707001E0927101F092720140923C06109358
S1132380EE050093ED050E946D0C82E090E01BC009
S113239080914F02811104C08091A701882349F0E4
S11323A00E94131B83309105A9F48CE00E942E0136
S11323B00DC089E00E949901882319F083E090E020
S11323C002C080E090E08330910521F41092400631
S11323D083E090E05FBE892BD1F489E00F900F90E9
S11323E00F900F90DF91CF911F910F91FF90EF907D
S11323F0DF90CF90BF90AF909F908F907F906F9021
S11324005F904F900C94C20680E090E0E3CF0F9071
S11324100F900F900F90DF91CF911F910F91FF902C
S1132420EF90DF90CF90BF90AF909F908F907F9070
S11324306F905F904F9008952FB7F894FC018081BE
S11324408093A7012FBF0C943C1020EE280F982FE7
S113245041E050E060E070E0992351F0440F551FD3
S1132460661F771F91509213F7CF40E050E0BA01F6
S11324704427587F7770452B462B472B51F0809388
S1132480680268E672E080E00E94FA0580E090E06D
S1132490089588EE90E00895EDE4F4E080818D7F66
S11324A08083109259028FEF9FEF90937A0280936A
S11324B0790269E772E080E50C94FA05813029F429
S11324C08091590281110C944C1208952F923F92DD
S11324D04F925F926F927F928F929F92AF92BF9230
S11324E0CF92DF92EF92FF920F931F93CF93DF93DC
S11324F0CDB7DEB760970FB6F894DEBF0FBECDBF81
S1132500582E162F3A016901402E22E082130AC088
S113251080916C0490916D04892B21F082E00E94DB
S11325205E12E4C00E94EF007C01009709F4E4C04D
S11325300E9406035C01009709F4DBC0D7011196E1
S11325409C938E934A9615969C938E931497199602
S11325505C928090790290907A02123019F442E0F1
S113256050E002C048E050E0B601CE0101960E945E
S11325701132D701ED91FC9183E28183123040F056
S1132580B1E0B41528F46814790411F483E6818366
S1132590212F220F220F30E4439EC0011124282B47
S11325A0228382E0481207C080917B0290917C02D2
S11325B09A87898718C080912904898780912A0481
S11325C08A8780912B048B8780912C048C8780913F
S11325D02D048D8780912E048E8780912F048F8700
S11325E080913004888B3180D701CD90DC908EEFC0
S11325F0810F8230D8F4F60164827582123039F486
S113260099818A819683878367E0262E11C0098188
S11326101A812B813C814D815E816F817885C60151
S113262006960E9427055DE0252E02C043E0242E75
S11326308EEF840D823060F5FFEFCF1ADF0A681445
S1132640790411F436FC07C0F601E20DF11D808215
S1132650918223942394822D90E022E042120AC0B6
S113266039852A85F601E80FF91F308321832394E5
S113267023940EC009851A852B853C854D855E857E
S11326806F8578898C0D9D1D0E94270538E0230EE7
S1132690D70116962C92169786E091E013969C9398
S11326A08E93129781E017968C93179786E018966D
S11326B08C938091170581FD07C0C7010E94830692
S11326C08C01009751F002C001EF10E0C5010E9497
S11326D0E902C7010E94560111C080916C049091D7
S11326E06D04019690936D0480936C0480E090E0F7
S11326F009C0C7010E94560101EF10E0852D0E9418
S11327005E12C80160960FB6F894DEBF0FBECDBF4F
S1132710DF91CF911F910F91FF90EF90DF90CF90B9
S1132720BF90AF909F908F907F906F905F904F90ED
S11327303F902F900895CF93DF93CFEFDFEFD093A7
S11327407A02C093790269E772E080E50E94FA0593
S1132750D0937C02C0937B026BE772E083E50E9416
S1132760FA0510926502D0937802C0937702E7E8E5
S1132770F2E0108211821282138214821582168270
S11327801782DF91CF910895EF92FF920F931F93D9
S1132790CF93DF93CDB7DEB728970FB6F894DEBF9B
S11327A00FBECDBF8B017A01833049F118F481301B
S11327B041F06BC0843009F449C0863009F44BC041
S11327C064C0DB018D919C910E94E902C8010E94C2
S11327D05601EF2819F01092590257C02091760241
S11327E080EC93E0289FA001299F500D11246627B7
S11327F057FD6095762F82E00E94360946C0DB01C2
S1132800ED91FC91BF016F5F7F4F82818C708C30A2
S113281011F087E001C08DE0680F711DCE010196B3
S11328200E94B30DF801808191810E94E902C801E0
S11328300E9456011092A802E114F10421F0F9EE6D
S1132840EF16F10411F50E949B131FC0BA01C801D1
S11328500E94010C1AC080916C0490916D04019740
S113286090936D0480936C04DB0119968C9192E033
S1132870980F923010F00E945E12F80180819181CD
S11328800E94E902C8010E94560128960FB6F894E6
S1132890DEBF0FBECDBFDF91CF911F910F91FF908F
S11328A0EF9008950F931F93CF93DF938C01EB0167
S11328B0809117058E7F8093170580912C018823C2
S11328C001F10E943F03AE01B801F80180850E9426
S11328D0C413CA3ED10539F089E0DF91CF911F912D
S11328E00F910C942E0180912C018823A9F30E944E
S11328F03F034AEE50E0BC01FC0180850E94C413F2
S1132900F2CFDF91CF911F910F910895CF93C82FEC
S113291089E00E947301811134C0809182039091F7
S11329208303009721F06C2F70E00E945214809171
S1132930860390918703009721F06C2F70E00E942A
S113294052141092B2051092B1051092870310929E
S11329508603109283031092820380917F029091E8
S11329608002A0918102B0918202809374019093BD
S11329707501A0937601B09377010E941A0780E055
S113298001C081E0CF910895CF93DF93EB018B30A9
S1132990A9F48C8D90E0982F88272B8D822B209181
S11329A0790230917A028217930741F4109252020D
S11329B0D99A0E94A1008AEE0E948614CE01DF916A
S11329C0CF910895EF92FF920F931F93CF93DF93CC
S11329D0CDB7DEB728970FB6F894DEBF0FBECDBFD4
S11329E08B017A01813079F140F0823009F047C0DF
S11329F0BA01C8010E94010C42C0DB01ED91FC91B7
S1132A0082818C70883049F4878190E0982F8827E0
S1132A102681822B9A83898307C0BF016A5F7F4F17
S1132A20CE0101960E94B30DD8011296ED91FC914E
S1132A3013978FEF80838D919C910E94E902C801C6
S1132A400E9456011CC0FB01608171816A5F7F4F47
S1132A50CE0101960E94B30DD8018D919C910E94E4
S1132A60E902C8010E9456011092A802E114F1047F
S1132A7021F0B9EEEB16F10411F40E949B13289691
S1132A800FB6F894DEBF0FBECDBFDF91CF911F917B
S1132A900F91FF90EF90089580912F01811105C04F
S1132AA08091AA02811106C0089510922F018AE034
S1132AB00C942E011092AA020C943C101F93CF93F5
S1132AC0DF931F92CDB7DEB790910701993021F4BF
S1132AD089830E943C1089811FB7F8949091330137
S1132AE091110BC091E0909333018093A80182E08F
S1132AF00E942E011FBF80E017C0E82FE695E695DF
S1132B00E695F0E0EF5CFB4F9081877021E030E0C8
S1132B1001C0220F8A95EAF7892F822319F4292B01
S1132B20208301C085E01FBF0F90DF91CF911F91DB
S1132B30089588E00C945E158CE28093690269E63E
S1132B4072E082E00E94FA058091080190910901E7
S1132B5090937C0280937B026BE772E083E50E9492
S1132B60FA051092600210925202E0913101F09144
S1132B703201309751F0118210828AE296E09383F9
S1132B8082838AE190E09583848381E0809330019D
S1132B9082E08093280680E090E0A0E0B4E0809397
S1132BA0E9059093EA05A093EB05B093EC0580EC5E
S1132BB09BE7A0E0B0E08093AB029093AC02A093BB
S1132BC0AD02B093AE028091790290917A02909313
S1132BD0280480932704109209051092F00510929E
S1132BE01605109231061092300610925E0180E0B4
S1132BF00C945E158F929F92AF92BF92CF92DF9208
S1132C00EF92FF920F931F93CF9387E090E09093FE
S1132C102801809327010E94920781E0809382011A
S1132C200E940B0D0E948C01823059F020F4811116
S1132C30AEC084E007C0883091F0893009F481C0C7
S1132C40A6C08DE0CF911F910F91FF90EF90DF9080
S1132C50CF90BF90AF909F908F900C942E01909145
S1132C603F01892F8C7F816080933F01892F83707E
S1132C7061F1833009F08BC040EC53E060E070E018
S1132C8000907E0104C0440F551F661F771F0A94ED
S1132C90D2F740545C4F6F4F7F4F92E0440F551F63
S1132CA0661F771F9A95D1F776956795579547953F
S1132CB0CF911F910F91FF90EF90DF90CF90BF9035
S1132CC0AF909F908F900C94CF0BC0903901D0900F
S1132CD03A01E0903B01F0903C0184E1C80E81E0B0
S1132CE0D81EE11CF11C8090380690903906A09003
S1132CF03A06B0903B06CFB7F8940E940E01660FD7
S1132D00771F881F991F681979098A099B098B0104
S1132D109C016C157D058E059F0510F497018601B5
S1132D2068017901C61AD70AE80AF90AB701A601A7
S1132D30769567955795479583E00E94CF0BCFBF53
S1132D4026C080912F01811104C08091AA0288239A
S1132D5079F0409174015091750160917601709100
S1132D607701769567955795479586E00E94CF0B36
S1132D7010924006CF911F910F91FF90EF90DF903A
S1132D80CF90BF90AF909F908F900C943C10CF91B8
S1132D901F910F91FF90EF90DF90CF90BF90AF9075
S1132DA09F908F900895CF9386E090E090932801B0
S1132DB0809327010E94820A0E943F020E94190CFC
S1132DC0CFB7F89420916F01309170014091710157
S1132DD05091720160915A0270915B0280915C0281
S1132DE090915D020E94E906882319F00E94FA1569
S1132DF01FC020916F013091700140917101509179
S1132E00720180915A0290915B02A0915C02B09190
S1132E105D02E0911E01E1110BC0E1E0E0931E01AF
S1132E20BC01CD0160517109810991090E942C07EF
S1132E30CFBFCF910895BF92CF92DF92EF92FF92CE
S1132E400F931F93CF93DF9300D000D0CDB7DEB79D
S1132E50B82E6801790149835A836B837C830E946D
S1132E608C0149815A816B817C81B81231C02FB7A2
S1132E70F8948091270190912801049719F02FBFAD
S1132E8081E027C085E090E090932801809327019A
S1132E902FBF40935A0250935B0260935C0270937D
S1132EA05D02C0926F01D0927001E0927101F092C4
S1132EB072010E94F10E81110CC00E941C0B811141
S1132EC003C00E94D31602C00E94A70B80E001C079
S1132ED081EF0F900F900F900F90DF91CF911F9182
S1132EE00F91FF90EF90DF90CF90BF9008950F93D4
S1132EF01F9380913F01837041F580913901909136
S1132F003A01A0913B01B0913C0184319105A105A6
S1132F10B10528F044E150E060E070E002C0AC018B
S1132F20BD018C019D01041B150B260B370B409131
S1132F3038065091390660913A0670913B0688E054
S1132F400E941B171F910F91089588E01F910F9104
S1132F500C94C2060F931F9380919702909198024C
S1132F60029761F400E010E0980140E050E0BA01FB
S1132F7082E00E941B171F910F9108958EE01F910C
S1132F800F910C942E010F931F93CF93DF93E09135
S1132F90090541E050E060E070E00E2E04C0440FEB
S1132FA0551F661F771F0A94D2F7F091F005F111AF
S1132FB021C08091E9059091EA05A091EB05B091BB
S1132FC0EC058827987FB770EB3190F4C1E0CE0F01
S1132FD08A019B01082319232A233B23012B022B5B
S1132FE0032B31F4440F551F661F771FEC2FECCFD2
S1132FF0E0930905809109058B3108F098C0F1111F
S113300098C00E94251280912806813091F008F41E
S113301060C0823021F0833009F074C10AC000E03E
S113302010E0980140E050E0BA0180E00E941B17D4
S113303069C1C0913101D09132010E948C0181118A
S113304061C1209709F45EC188819981892B09F4B3
S113305059C18A819B81892B19F48F81811152C1B5
S11330608C819D81892B09F44DC12E818F8190E043
S1133070820F911D8E3791050CF044C12FB7F8943F
S11330808091270190912801049711F02FBF3AC134
S113309089E090E090932801809327012FBFD0937B
S11330A01305C093120510925A0210925B021092FB
S11330B05C0210925D0210926F01109270011092E6
S11330C0710110927201DF91CF911F910F910C94B5
S11330D06D0C8091AB029091AC02A091AD02B091C5
S11330E0AE024FB7F8942091270130912801233084
S11330F0310519F02430310511F04FBF03C123E02D
S113310030E030932801209327014FBF809383013F
S113311090938401A0938501B09386018DEA8093F6
S11331205E02DF91CF911F910F910C94A70BFF23A7
S113313051F1809128068150823020F4769567956C
S1133140579547950091E9051091EA052091EB0503
S11331503091EC05DB01CA0188279927AA27BC7F97
S1133160892B8A2B8B2B79F4DB01CA0180239123D1
S1133170A223B323892B8A2B8B2B29F0440F551FB1
S1133180661F771FE7CF809128068150823068F44C
S1133190809127049091280490937A028093790275
S11331A069E772E080E50E94FA05E0913101F0914F
S11331B03201309751F0808191810E94E90280911F
S11331C03101909132010E94560110923201109205
S11331D0310180E00E947301882319F080E00E948D
S11331E0DB081092300180915202882309F477C0E1
S11331F08091B2029091B302909378028093770207
S11332008091B0029091B10290937A0280937902F6
S113321069E772E080E50E94FA053091BB022091D3
S1133220BA0281E090E0A0E0B0E0022E04C0880F72
S1133230991FAA1FBB1F0A94D2F78827987FB770DB
S1133240892B8A2B8B2B49F08091790290917A02F9
S1133250019619F0332309F448C02091B00230914B
S1133260B1028091790290917A0240919303437361
S113327048684093930360917B0250917C02409193
S113328092032817390711F4406401C04F7B40931F
S11332909203409192032093950330939603E09117
S11332A0B2027091B302E0939703709398032817C6
S11332B0390711F446FD06C08093990390939A034D
S11332C0E9E001C0E7E0F0E0EE56FC4F6083518393
S11332D08CE1DF91CF911F910F910C942E01DF911E
S11332E0CF911F910F910C949C1581E080937F01E5
S11332F02093F60580913F01806A80933F010E94EC
S11333009915ABCFDF91CF911F910F910895CF9372
S1133310DF9381E00E947301882309F4D6C081EF12
S11333200E9486148091170582608093170580910E
S11333302C01882351F00E943F0341EF50E0BC016F
S1133340FC0180850E94C413F2CF809117058D7F04
S11333508093170580913001882329F081E08093C0
S1133360F0050E94C31780913F01982F9C709830FC
S113337041F085FF0EC087FF0CC080917F01882338
S113338041F010925202D99A0E94A1008AEE0E9442
S1133390861480913F0186FF03C08AEE0E94861442
S11333A080913F018F7180933F0180E00E94CD00A6
S11333B080914D048D7F80934D048FEF80933D0663
S11333C01092530210925902EDEEF4E08083349689
S11333D095E0E930F907D1F78FEF8093AD011092B2
S11333E051021092A80210926D0410926C04809104
S11333F056048D7F80935604C1E6D1E0E991F9919A
S1133400309731F041EF50E0BF0180850E94E21413
S1133410E1E0CF36DE0791F7E1E6F1E01192119297
S113342081E0EF36F807D1F710923706109236068E
S113343010928F03109214051092F10584E491E028
S1133440909361048093600489EF95E09093650400
S11334508093640481EF95E0909363048093620405
S1133460109267041092680480912901882341F026
S11334700E947A040E9456018CE10E942E01F4CF2E
S11334801092600110925F0110924201109241016A
S113349010929E0210929D021092900381E090E09F
S11334A09093980280939702809140018111109229
S11334B0400110924F0280915F048D7F80935F04DE
S11334C081E0DF91CF910C942E01DF91CF9108958B
S11334D00F931F934091700280913001811104C0B9
S11334E01F910F910C94DB0880912806823081F1A2
S11334F08330D1F1813009F092C0E0913101F09133
S11335003201A081B18193E011969C93A081B18195
S113351098E012969C93A081B18113964C934F5FCF
S113352040937002A081B1819FEF14969C93A08177
S1133530B18115969C93A081B18116969C93A0812C
S1133540B18117969C9397E0968390932A0687837C
S11335508FEF9FEF90937A028093790269E772E08C
S113356080E50E94FA055BC05091760220EC33E0BE
S1133570529FC001539F900D1124AA2797FDA09537
S1133580BA2F8093AB029093AC02A093AD02B09398
S1133590AE02E0913101F0913201A081B18183E466
S11335A011968C93A081B18188EC12968C93A081A2
S11335B0B18113964C934F5F40937002A081B18107
S11335C08FEF14968C93A081B18115968C93A08172
S11335D0B18116968C93A081B18117968C9300913A
S11335E0290410912A0420912B0430912C04409139
S11335F02D0450912E0460912F0470913004808129
S1133600918108960E942705E0913101F0913201E1
S11336108FE0868386E080932A0681E087831F916A
S11336200F910C94C3170F931F930E948C01893040
S1133630B9F48091270190912801079789F089E0D6
S11336400E949901882379F000E010E0980140E09D
S113365050E0BA0189E00E941B1781E090E005C0A8
S113366083E090E002C080E090E01F910F91089504
S11336708F929F92AF92BF92CF92DF92EF92FF927E
S11336800F931F93CF9380913F018370833051F444
S113369000E010E0980140E050E0BA0188E00E94A8
S11336A01B1775C0811165C02091390130913A0111
S11336B040913B0150913C0160913806709139066C
S11336C080913A0690913B06645A714081099109B0
S11336D00E94E906811140C08090390190903A011E
S11336E0A0903B01B0903C0104EAC02EDD24D394A9
S11336F0E12CF12C8091380690913906A0913A067C
S1133700B0913B06C81AD90AEA0AFB0ACFB7F89463
S11337100E940E01660F771F881F991F6C0D7D1D77
S11337208E1D9F1D6B017C01681579058A059B051B
S113373010F47501640197018601061B170B280B11
S1133740390BB901A801769567955795479583E09C
S11337500E94CF0BCFBF1BC0CF911F910F91FF9041
S1133760EF90DF90CF90BF90AF909F908F900C948C
S1133770771787E0CF911F910F91FF90EF90DF9023
S1133780CF90BF90AF909F908F900C942E01CF91CB
S11337901F910F91FF90EF90DF90CF90BF90AF906B
S11337A09F908F900895CF92DF92EF92FF92CF93E4
S11337B080913F01982F9C7009F45CC0982F9370FE
S11337C0933009F45FC08C7F80933F01C0E030ECFC
S11337D0C32E33E0D32EE12CF12C2091390130910A
S11337E03A0140913B0150913C016091380670913F
S11337F0390680913A0690913B060E94E906209191
S11338008103882349F140917E014F3008F04EE056
S1133810D701C60104C0880F991FAA1FBB1F4A9570
S1133820D2F7AC01BD018091390190913A01A09188
S11338303B01B0913C01840F951FA61FB71F8093D5
S1133840390190933A01A0933B01B0933C012F5F5F
S113385020938103C1E0C1CF243040F087E0CF91B1
S1133860FF90EF90DF90CF900C942E01CC2351F079
S11338700E94991588E0CF91FF90EF90DF90CF9050
S11338800C94DB0888E00E949901882339F0CF91D9
S1133890FF90EF90DF90CF900C94381B88E0CF918D
S11338A0FF90EF90DF90CF900C94C20680913F017F
S11338B085FF30C080917F01882311F088E001C02A
S11338C084E00E94CD008091F6050E94251220918B
S11338D06E0220937E012F3008F02EE080EC93E0FE
S11338E0A0E0B0E004C0880F991FAA1FBB1F2A954F
S11338F0D2F78093390190933A01A0933B01B0939E
S11339003C0184E08093810380913F018C7D83603E
S113391080933F010C94D31B0E943F020E940B082A
S11339200E942B0F109282010E940B0D84E090E004
S113393090932801809327010E948C01823081F0AA
S113394028F4882341F0813041F00895883051F003
S1133950893051F008950C94940480E00C942E0165
S11339600C94AA170C94381B109240060C943C102B
S11339700F931F931092AF01283058F4263008F0AB
S11339805EC0222349F0213009F068C081EE90E046
S113399051C02B30B9F162C0109235061092340632
S11339A0DC011296ED91FC9113972081243009F0EB
S11339B055C0ED91FC9181818770833009F04EC030
S11339C08BEE90E09093350680933406662309F4D9
S11339D045C081E080932F018091820390918303FD
S11339E0909387038093860310928303109282033B
S11339F000E010E0980140E050E0BA0189E00E9444
S1133A001B1741C080914106882391F010927E03D8
S1133A109091290690937D0390916F0490937C0379
S1133A209091A90290937B0381508093410625C015
S1133A3089EE90E090933506809334060FC081E0C0
S1133A408093AF0150937D0140937C011092400616
S1133A5084E00E948301811116C011C08091820309
S1133A60909183039093870380938603109283033A
S1133A70109282038AE00E942E01109240061F9148
S1133A800F910C943C101F910F910895EF92FF92A7
S1133A900F931F93CF93DF9300D0CDB7DEB7E090A1
S1133AA02701F090280100911205109113050E943E
S1133AB00B080E942B0F109282010E943F020E9469
S1133AC00B0D84E090E090932801809327018FE010
S1133AD0E816F10469F40E948C01811129C000E008
S1133AE010E0980140E050E0BA010E941B1720C08A
S1133AF0E1E1EE16F104E1F420917901E090ED05A5
S1133B00F090EE056091730129836A830E948C0111
S1133B1029816A81893061F4A701C8010F900F904F
S1133B20DF91CF911F910F91FF90EF900C94B81CEF
S1133B300F900F90DF91CF911F910F91FF90EF9015
S1133B40089580937301609379010E942307811182
S1133B5002C00C94A6060C94461D8F929F92AF92BD
S1133B60BF92CF92DF92EF92FF92CF93DF93809137
S1133B703C06882339F0C091ED05D091EE051092F2
S1133B803C0618C0E0918001F0918101C0810E943F
S1133B90EC032FEF3FEF02C0220F331FCA95E2F769
S1133BA0209530952623372384E1829FE001839F6B
S1133BB0D00D11240E940E016B017C01BE0180E036
S1133BC090E0CC0CDD1CEE1CFF1CC60ED71EE81EBC
S1133BD0F91E80905A0290905B02A0905C02B09013
S1133BE05D02C818D908EA08FB0880906F0190901C
S1133BF07001A0907101B09072018C149D04AE0408
S1133C00BF0438F4C0911205D0911305209799F49C
S1133C1049C02EE030E03093280120932701DF9142
S1133C20CF91FF90EF90DF90CF90BF90AF909F9097
S1133C308F900C94610D109282010E943F020E94A9
S1133C400B0D84E090E090932801809327010E945B
S1133C508C01893039F5C701B601681979098A09D7
S1133C609B094B015C0124E1820E911CA11CB11C37
S1133C7024E130E040E050E00E949731861A970A30
S1133C80A80AB90A27E0A40160E0CE01DF91CF9130
S1133C90FF90EF90DF90CF90BF90AF909F908F9068
S1133CA00C94B81CDF91CF91FF90EF90DF90CF90F0
S1133CB0BF90AF909F908F9008950F931F93CF93D1
S1133CC0DF93EC018B018091D90286FF2AC18F7B9F
S1133CD08F3309F0B0C1C0917004D0917104288170
S1133CE02093A6018091A4019091A50184309105AF
S1133CF079F118F4039749F003C18530910509F46B
S1133D0051C0069709F469C0FBC084E090E0909329
S1133D10A5018093A40130E080917A0190E02817F6
S1133D20390734F0DF91CF911F910F910C94460D18
S1133D30B79903C00E9B0E94460D8091A601845042
S1133D408E3880F7BE016F5F7F4F43E050E022C0A2
S1133D506A81898183FDE6CF48E751E00E9411051D
S1133D608111E0CF409178018091A60190E0019704
S1133D70242F30E028173907ACF6443098F085E05A
S1133D8090E09093A5018093A401435050E0BE01BC
S1133D906C5F7F4F80E090E0DF91CF911F910F9196
S1133DA00C9474084091A60120917801842F90E02E
S1133DB0821B9109893791050CF0B4CF86E090E01D
S1133DC09093A5018093A401421B50E0609170047C
S1133DD070917104665E7F4FDDCF0E94BF008091B9
S1133DE0B201811102C00E94140D30912406C091C9
S1133DF07004D09171042091A601332349F1253038
S1133E00C0F180912B0690E0FC01EE0FFF1FEE0F36
S1133E10FF1FED5FF94F7081618152814381DE01A3
S1133E20AD56BF4F7C93DE01AE56BF4F6C93DE019F
S1133E30AF56BF4F5C93DE01A057BF4F4C93019622
S1133E408770992780932B0631503093240611C034
S1133E508FEFDE01AD56BF4F8C93DE01AE56BF4FE0
S1133E608C93DE01AF56BF4F8C93DE01A057BF4F3A
S1133E708C93E22FF0E080917801E81BF109EC0FBC
S1133E80FD1F818D87FF36C0012BA1F189818770C9
S1133E90823029F580912001909121010697D9F46F
S1133EA0E0918B03F0918C030190F081E02D9381DC
S1133EB08B81981310C00E94C900898121E030E0F1
S1133EC0309321012093200160E0829581700E944B
S1133ED0A11D0E94790C80918803882359F0809158
S1133EE08403811107C089E1DF91CF911F910F9164
S1133EF00C942E01DF91CF911F910F910C94170D0B
S1133F00109254020E94BF000E94140D80918403F9
S1133F10882309F490C0DF91CF911F910F910C94E5
S1133F2052058E3309F087C00E94BF00E0918B03D5
S1133F30F0918C0380819181C817D90759F40E94AC
S1133F40BB00E0918B03F0918C03808191816681A9
S1133F5001960DC00196C817D90779F40E94BB00D9
S1133F60E0918B03F0918C03678182819381DF91CF
S1133F70CF911F910F910C94B10883E090E090933E
S1133F8021018093200180912701909128018A309A
S1133F90910509F444C08B30910509F446C0099792
S1133FA009F049C08CE090E09093280180932701A8
S1133FB020916F0130917001409171015091720113
S1133FC0211531054105510579F48FE090E0909376
S1133FD028018093270180E00E94AC07DF91CF91F4
S1133FE01F910F910C941C0F80915A0290915B02C7
S1133FF0A0915C02B0915D02E0911E01E1111BC031
S1134000E2E0E0931E01BC01CD0160517109810918
S11340109109DF91CF911F910F910C942C07DF919F
S1134020CF911F910F910C948F0DDF91CF911F9120
S11340300F910C94AD1DDF91CF911F910F910895B5
S11340404F925F926F927F928F929F92AF92BF92A4
S1134050CF92DF92EF92FF920F931F93CF93DF9350
S1134060CDB7DEB728970FB6F894DEBF0FBECDBF2D
S1134070E3E3F4E020E030E0108511FF56C1408016
S1134080518062807380C480D580E680F7804B01C4
S11340905C0184189508A608B7088C149D04AE0426
S11340A0BF0408F442C110FF03C01D7F10870AC07B
S11340B0D301C2018C0D9D1DAE1DBF1D8083918354
S11340C0A283B3832230A1F018F4222341F034C137
S11340D0233009F449C0243009F4E0C02DC180E044
S11340E00E947301882309F427C10E94E60624C1B3
S11340F080915902882309F41FC1809153028230B0
S113410039F4909177028091780299838A8314C05C
S113411000918702109188022091890230918A02CD
S113412040918B0250918C0260918D0270918E02AD
S1134130CE0101960E9427054091790250917A029E
S113414003E09E012F5F3F4F6091530281E00E9484
S11341506612892B09F4F0C080915902882309F46E
S1134160EBC00E944C12E8C00E940E012B013C01DE
S1134170440C551C661C771C80916E028F3070F4C1
S113418021E030E002C0220F331F8A95E2F7A0EC51
S1134190B3E00E947D319B01AC0104C020EC33E00C
S11341A040E050E0A0917D02B0917E020E948C31EB
S11341B06B017C0101E611E0812C912C5401D801A2
S11341C0ED91FC91309709F44BC0809136069091A3
S11341D03706E817F90709F443C0848195810E94E2
S11341E0AC00A70196010E94E906D801ED91FC916B
S11341F01197882321F180858F7780871D921C92E7
S113420090918F03915090938F03A081B181129666
S11342109C919C70983031F4909114059150909336
S1134220140507C09C3029F49091F10591509093A6
S1134230F10540EF50E0BF010E94E21411C08481F7
S113424095810E94AC00A3019201261B370B480BF9
S1134250590B82169306A406B50610F449015A01B7
S11342600E5F1F4F31E00F36130709F0A8CF8114FA
S11342709104A104B10409F45FC0C814D904EA0488
S1134280FB0410F446015701B701A6014819590966
S11342906A097B0983E00E9436094EC080914F026F
S11342A0811139C081E080934F028091E50590919E
S11342B0E605A091E705B091E8054091910250917F
S11342C092026091930270919402840F951FA61F2D
S11342D0B71F4091A4025091A5026091A60270916B
S11342E0A702409357045093580460935904709361
S11342F05A0480935B0490935C04A0935D04B09390
S11343005E0480915F048160826080935F048BE12E
S11343100E942E0107C010924F028091400181112A
S1134320109240010E943C1007C02F5F3F4F399606
S11343302530310509F0A0CE8BE10E942E0128968C
S11343400FB6F894DEBF0FBECDBFDF91CF911F91A2
S11343500F91FF90EF90DF90CF90BF90AF909F9020
S11343608F907F906F905F904F9008952F923F921F
S11343704F925F926F927F928F929F92AF92BF9271
S1134380CF92DF92EF92FF920F931F93CF93DF931D
S1134390CDB7DEB72B970FB6F894DEBF0FBECDBFF7
S11343A090E08D31910510F00C946D2BFC01E15BD4
S11343B0FF4F0C94B9312FB7F89480912701909155
S11343C02801009711F42FBF25C5049709F0C8C42C
S11343D081E090E018C080914A06815080934A069B
S11343E0882311F081E03FC02FB7F8948091270112
S11343F0909128018430910509F4B2C4892B09F005
S1134400AFC482E090E090932801809327012FBFEE
S11344100E94A70B0C946D2B8FB7F8949091A80170
S11344209093070192E0909333018FBF809107012D
S1134430813089F038F08230D1F0883009F42BC211
S11344400C946D2B80E00E949901811165C00E943B
S1134450E6060C946D2B81E00E94C206882311F4B9
S11344600C946D2B80E00E942E010C946D2B9FB751
S1134470F89481E08093AB051092B1018093880396
S1134480109296029FBF82E00E949901882321F036
S11344900E94AA170C946D2B82E00E94C2060C9411
S11344A06D2B8091360690913706892B11F00C9470
S11344B06D2B80918F03882311F40C946D2BE1E60E
S11344C0F1E0A191B191109781F018968C91189711
S11344D087FF0BC08093430187E018968C9310925A
S11344E037061092360683E0BECF21E0EF36F2079E
S11344F041F70C946D2B4091AB025091AC0260914A
S1134500AD027091AE0280E00E9436090C946D2BCE
S11345100E94C3170C946D2B0E94681A0C946D2B87
S113452010913F0114FF0FC0809104019091050187
S113453080579F4F0E94AC006F3F7F4F8F4F9F4F1C
S113454011F40C942E2B80913F018C70843019F45B
S113455080E00E94CD0080913F018F7B80933F01DA
S11345600E94991580913F0184FD49C08F7E8093FC
S11345703F01809181038F5F8093810380917E014D
S11345808F3008F08EE040EC53E060E070E004C04F
S1134590440F551F661F771F8A95D2F78091390102
S11345A090913A01A0913B01B0913C01840F951F79
S11345B0A61FB71F8093390190933A01A0933B0142
S11345C0B0933C0116FF03C08AEE0E9486148091CA
S11345D03F0187FF12C090918103943070F08F7770
S11345E080933F0180E00E94CD0010925202D99A3C
S11345F00E94A1008AEE0E94861488E041C2809045
S113460004019090050110916002D4015C962C91F4
S11346102770C4012B870E94C60E8A87F40100818B
S1134620C40180579F4F0E94AC00109281032B85D8
S113463020933F06222329F0422F440F420F4E5F5E
S113464001C041E0609338067093390680933A06BE
S113465090933B06D4015B968C915B978F708F5F30
S11346608093EF055A962C9122952F708CE390E05D
S1134670A0E0B0E004C0880F991FAA1FBB1F2A95B1
S1134680D2F78093A9019093AA01A093AB01B093B0
S1134690AC0150E0B401645E7F4F86ED94E00E946B
S11346A01132F401838D84FF1FC00F77802F90E0B7
S11346B00596880F991F033110F0889601C00C9657
S11346C09093F8058093F70520916C028091F7058B
S11346D09091F805F4E12F9F800D911D1124909382
S11346E0F8058093F70504C01092F8051092F705B9
S11346F0D40111968C9111978295817080932D0627
S11347005A962C912F7020937E012F3009F42EE0BD
S113471080EC93E0A0E0B0E004C0880F991FAA1FCA
S1134720BB1F2A95D2F78093390190933A01A09345
S11347303B01B0933C0169E088E00E94560F1123CD
S113474009F499C0E0910401F09105013F01BAE137
S11347506B0E711C848D877029F0282F220F280F6F
S11347602C5F01C023E030E0D301A20FB31F7C9182
S113477040917B0250917C028181877009F078C05E
S113478060E0872F8770482E512C2F5F3F4FE62F14
S1134790F0E0E415F50594F4EE0FFF1FE20FF31FAC
S11347A0E60DF71D818190E0982F8827E0818E2BFC
S11347B08417950709F443C06F5FE9CF7077272EFC
S11347C0312C44E0359427944A95E1F7440C551C68
S11347D0420E531E1986F9856F2F70E0621573051A
S11347E00CF046C093E0660F771F9A95E1F7640DCD
S11347F0751D660D771DCE0101960E94B30D2981AA
S11348003A814B815C816D817E81A0902904B090B6
S11348102A04C0902B04D0902C04E0902D04F09036
S11348202E0400912F04109130048F8198850E94EA
S1134830083209F44EC7E985EF5FE987CCCF02E07F
S1134840D40112968C91807C803809F444C763E0CB
S113485094012A5F3F4FD40115964C91159750E06F
S1134860542F442714968C91482B80E00E946612A2
S1134870BA85BB2351F080910401909105010E94F7
S1134880940E909305018093040180913F018F7EE3
S113489080933F0122C70E94561C1FC780911705B1
S11348A080FD1BC780912C01882309F416C7E09171
S11348B02E01F0E0EE0FFF1FE352FA4FE080F1808B
S11348C0F701868181110AC00E943F0360E070E015
S11348D0C7010E94010C89E00E942E01D70118969D
S11348E08C9118978093850320911705822F8160FE
S11348F0809317058091820390918303892B09F09B
S1134900B3C680917002ED91FC9183838F5F809395
S1134910700210927E038091710280932906809325
S11349207D038091740280936F0480937C03809153
S1134930720280937B0390916102992329F0833062
S113494018F082E080937B0380917B038093A9021B
S11349508091750280934106F7018681478150E07A
S1134960480F511D495F5F4F440F551F662757FD80
S11349706095762F4093D2045093D3046093D4046B
S11349807093D5040190F081E02D818185FF0CC0E6
S11349904A5C5F4F6F4F7F4F4093D2045093D304D0
S11349A06093D4047093D50440917F0250918002A7
S11349B06091810270918202409374015093750159
S11349C06093760170937701F0928303E0928203FF
S11349D080913F01982F9C70983041F180648093BE
S11349E03F010E94991580913F0185FD1FC0909160
S11349F068029093F60510927F01806280933F01D4
S1134A0015C080918603909187036091340670915C
S1134A10350610922F011092870310928603009797
S1134A2029F00E94521402C0109240060E943C10C9
S1134A3054C680914F02882309F44FC680914001E7
S1134A40882309F44AC61092400147C683E090E0E7
S1134A50909398028093970240C69FB7F89481E0A0
S1134A608093AB058093B1011092880380939602E2
S1134A709FBF81E090E0909398028093970282E038
S1134A800E94DB082AC680919003882309F425C676
S1134A9080915F019091600120919D0230919E026E
S1134AA08217930729F410929E0210929D0229C046
S1134AB020914101309142018217930711F50E9420
S1134AC07A0480912901811105C01092420110924B
S1134AD041010DC0E0912B01F0E0EE0FFF1FED58F6
S1134AE0FC4F8081918190934201809341016091B8
S1134AF0A9057091AA0580915F01909160010E94BF
S1134B00010C10929003E9C5CE0101960E945E0942
S1134B10811107C0898190915E02981714F48093E3
S1134B205E0220918301309184014091850150916E
S1134B3086016091F2057091F3058091F4059091DE
S1134B40F5050E94E906882309F42EC180915E02CE
S1134B508D5280935E020E940B080E942B0F0E94CC
S1134B600B0D84E090E090932801809327019091AD
S1134B705E0280915E01882369F0E0913006F09135
S1134B8031068091160521E0280F20931605E80FC1
S1134B90F11D90839091160580915E01981303C0D6
S1134BA081E08093F0050E94E606893009F095C5FE
S1134BB00E94940492C58FB7F8949091B3058FBF67
S1134BC08FB7F89421E02093AB059093B3058FBF82
S1134BD00E94820A0E940B0D84E090E090932801C9
S1134BE08093270181E00E947301882309F475C52D
S1134BF080916E0481110E94A00468E672E080E056
S1134C000E94FA056BE772E083E50E94FA0569E702
S1134C1072E080E50E94FA056AE672E083E00E9491
S1134C20FA0569E672E082E00E94FA0567E672E03E
S1134C3080EF0E94FA0581E00E94DB080E949C1527
S1134C404CC580912701909128018830910531F05D
S1134C5008F443C50F97039738F03FC580E00E94DE
S1134C601C0B8111D5CBD9C00E9423078111A4C08C
S1134C7080E00E941C0B882309F49EC0C9CB80E00D
S1134C800E941C0B81110FC00E94820A809127018F
S1134C9090912801079721F40E940B080E94920723
S1134CA00E940B0D1AC583E1DECB8FB7F894909167
S1134CB02401992311F08FBF10C58FBF10B316FBC9
S1134CC0112710F98091D7029091D802981721F1F9
S1134CD0181322C084E090E090932601809325016C
S1134CE08FB7F89491E0909324018FBF0E94BF0086
S1134CF00E94BB0060E070E08DE10E9496090E9472
S1134D00140A0E94BF000E940B080E942B0F1092ED
S1134D10820181E10E942E011093D80284E1A3CB89
S1134D209FB7F894809103019FBF882321F08130BD
S1134D3009F476C0D2C4E0912701F091280131979B
S1134D40E131F10508F0C9C4E459FF4F0C94B931BD
S1134D502FB7F8948091250190912601892B11F0A9
S1134D602FBFBBC481E090E090932601809325017E
S1134D702FBFDD9A44E150E060E070E080E00E94E3
S1134D80CF0BABC40E94820A0E9492070E940E01BC
S1134D90660F771F881F991F6093F2057093F305C0
S1134DA08093F4059093F50580E15DCB0E94D316C2
S1134DB094C40E94340C91C40E94461D8EC40E9467
S1134DC00B080E942B0F1FB7F89480912501909136
S1134DD02601049779F482E090E090932601809371
S1134DE025010E94BF000E94BB0087E00E948B0740
S1134DF00E94BF001FBF1092260110922501DE9869
S1134E00DD98DE9A109282010E940B0D1092280107
S1134E10109227010E94871960C40E948C1C5DC4F3
S1134E201FB7F8948091A4019091A501892BF9F002
S1134E300E948E081CC01FB7F89460916A04709198
S1134E406B04809132069091330610926B04109299
S1134E506A04109233061092320610923E011092A8
S1134E603D0110928A03109289030E945D1E1FBFA8
S1134E7034C48FB7F8949091B3019093000192E0F9
S1134E80909322018FBF80910001811126C40E945A
S1134E90BD000E94BB0085E1E6CA0E94140D8FB7D5
S1134EA0F8941092A5011092A4018FBF82E1DBCA8D
S1134EB0E0917004F0917104208122508091780176
S1134EC0281B8FB7F8948FBF809070049090710462
S1134ED0822F90E0D401A80FB91F5B963C913F77D5
S1134EE0D4013C93A80FB91F5A968C91DF01AC569C
S1134EF0BF4F8C93D4018C91EB56FF4F80832C933E
S1134F008091270190912801079709F02CC21296ED
S1134F108C91807390E041973CF08091970290913E
S1134F209802039709F01FC2F401818183FF07C02F
S1134F308091970290919802039709F014C20E94FD
S1134F408C01823009F4F5C018F4882341F00BC2B7
S1134F50883009F4FAC0893009F44EC104C2809142
S1134F603001882309F4FFC180912806833009F0B9
S1134F7055C0809116058111F6C1D40111968C910A
S1134F8011978770833009F0EEC15A968C915A9725
S1134F90883009F0E8C15C968C915C9790E0982F7A
S1134FA088275B962C91822B90937A0280937902C6
S1134FB069E772E080E50E94FA05F401868D90E0CD
S1134FC0982F8827258D822B9093780280937702DF
S1134FD0878D0E942512D40191968C91919790E02F
S1134FE0982F882790962C91822B90937C02809303
S1134FF07B026BE772E083E50E94FA058091160557
S11350008F5F8093160581E08093F00580913B04C7
S11350108D7F80933B040E94E606A5C1F401818143
S1135020877009F0A0C180916002882309F47CC0D4
S11350308091160590915E01891758F081E0809364
S1135040F00580913B048D7F80933B040E94E6062B
S113505065C02091300630913106F2E28F9F200D19
S1135060311D112440E060910905C4010E94190E0C
S1135070811154C0E0913006F0913106709016050C
S1135080DF0122E2729EA00DB11D1124612C671470
S113509009F441C02181328111968D919C9112971E
S11350A028173907A9F580819C91891331C0823072
S11350B051F42381348113968D919C911497281770
S11350C0390731F52BC0833019F5238134814581AB
S11350D05681678170851396AC9013971496BC9093
S11350E014971596CC9015971696DC9016971796EC
S11350F0EC9017971896FC90189719960C9119979D
S11351001A961C911A97818592850E94083231F073
S11351106394B296BCCF639460921605C4010E9456
S1135120C60E882309F41FC1C4010E94940E4C01C9
S11351301AC18091970290919802039709F013C1C4
S1135140D4018C9180688C930EC180913F0184FDC1
S11351500AC1F4018181877009F005C18281482F59
S1135160407C09F400C18C7009F0FDC0858190E099
S1135170982F88272481822B2091790230917A02FA
S11351808217930709F0EFC0403879F4878190E0E3
S1135190982F88272681822B2091770230917802DC
S11351A08217930709F0DFC063C2403C09F060C274
S11351B0B4016A5F7F4FCE0101960E94B30D29812D
S11351C03A814B815C816D817E81A0908702B09091
S11351D08802C0908902D0908A02E0908B02F090FD
S11351E08C0200918D0210918E028F8198850E940D
S11351F0083209F43DC2B7C0D40111969C911197AD
S11352009770933019F45A969C919D5FFFB6F89469
S113521080912F01811105C08091AA02882309F48D
S11352209CC086E09B870E94A300109235061092D2
S1135230340680912F019B85882309F486C0009150
S1135240860310918703913019F0953081F082C064
S11352500115110509F47EC0F80181858F3F11F015
S11352600E945E128EEFD80119968C9373C0F401DC
S1135270248D838D358D90915902992309F46AC048
S113528090914D049D7F90934D04109259023111D9
S113529050C090E0922B90937C0280937B026BE74A
S11352A072E083E50E94FA0580917702909178027A
S11352B0019609F44FC0D40112969C91892F8295CE
S11352C0869586958370833009F044C0B4016F5F7E
S11352D07F4F892F8C70883021F08C3021F083E04F
S11352E003C087E001C08DE0F401218126FF01C0E5
S11352F093FF8E5F680F711DCE0101960E94B30D5E
S11353008981809387028A81809388028B8180932C
S113531089028C8180938A028D8180938B028E8195
S113532080938C028F8180938D02888580938E0276
S113533011C08FEF9FEF90937A028093790269E70F
S113534072E080E50E94FA0505C0B401892F0E942D
S1135350C4144C010E944C1505C0B401892F0E944D
S1135360C4144C01FFBE90927104809270048FB7F4
S1135370F894109254028FBF0E94170DAEC1809111
S1135380B00181113CC0C090FF05D0900006E090B0
S11353900106F09002068FE00E9425032B013C01D8
S11353A0C092FF05D0920006E0920106F092020638
S11353B01092B001BFB6F8940E940E0164197509E9
S11353C086099709660F771F881F991F8B019C0117
S11353D06C157D058E059F0510F497018601680103
S11353E07901C61AD70AE80AF90AB701A60176951F
S11353F06795579547958FE00E94CF0BBFBE0E94DB
S11354000E01660F771F881F991F40C00E940E016E
S11354106B017C01CC0CDD1CEE1CFF1C8FE00E9498
S1135420A300E3E3F4E020E044244A94542C642CE5
S1135430BFE77B2E808581FF1AC080819181A28184
S1135440B381B701A601481B590B6A0B7B0B8481FE
S11354509581A681B781841B950BA60BB70B841588
S11354609505A605B7051CF42C013D0121E03996EC
S113547034E0E036F307F1F6222309F42EC11414C4
S11354801504160417042CF0C701B6010E9420204D
S113549024C14092FF05509200066092010670926A
S11354A0020681E08093B0013FB6F8940E940E0199
S11354B0660F771F881F991F6C197D098E099F0934
S11354C08B019C01641575058605970510F49301FD
S11354D0820168017901C61AD70AE80AF90AB701F4
S11354E0A60176956795579547958FE00E94CF0B57
S11354F03FBEF3C080915202882309F4EEC00091AC
S11355002E06109193038091920383FD06C0AE0191
S11355104F5F5F4F612F0E941105F980073708F034
S113552090C0802F90E08F0D911D8E3791050CF067
S113553088C0812F82958695869583701C701695F8
S11355401695811103C009F47FC003C0813009F4AA
S11355507BC0113009F478C00E94EF004C01009721
S113556009F475C081E993E0D40111969C938E935C
S11355708BEA93E013969C938E93129781E294E0C6
S113558015969C938E93149717960C9317971696CB
S1135590FC9280919203887C816280939203809133
S11355A093038F7C80939303073618F08061809374
S11355B09303F40111868091930383FF14C08C70CC
S11355C0883059F48091980390E0982F882720918F
S11355D09703822B9A83898306C067E973E0CE011F
S11355E001960E94B30D123059F429813A818091B9
S11355F07702909178022817390709F052C05BC0EE
S11356001330E1F429813A814B815C816D817E8183
S1135610A0908702B0908802C0908902D0908A023C
S1135620E0908B02F0908C0200918D0210918E021A
S11356308F8198850E940832A1F53DC01123D9F1CC
S113564030C008EE10E005C005EF10E002C001EF25
S113565010E0012B09F441C0DA983FC0812F8F7EFE
S113566080933F010C94A3222E7F2093170535C00D
S1135670009104011091050180913F01982F9061E0
S113568090933F01909205018092040183708130D0
S113569031F483E00E94A30088E00E94C20648011E
S11356A062CE85E0D40118968C9301EF10E0C4011A
S11356B00E945601CECF84E0F401808780911705C3
S11356C081FDF3CFC4010E9483068C01009709F287
S11356D0EECF03E0B5C862E0BBC82B960FB6F894D2
S11356E0DEBF0FBECDBFDF91CF911F910F91FF9011
S11356F0EF90DF90CF90BF90AF909F908F907F906E
S11357006F905F904F903F902F9008958FB7F894CB
S113571008958FBF08951F920F920FB60F92112410
S11357200BB60F922F933F934F935F936F937F9397
S11357308F939F93AF93BF93EF93FF930E94E900DE
S1135740FF91EF91BF91AF919F918F917F916F9155
S11357505F914F913F912F910F900BBE0F900FBE11
S11357600F901F9018951F920F920FB60F9211244D
S11357700BB60F922F933F934F935F936F937F9347
S11357808F939F93AF93BF93EF93FF930E94E9008E
S1135790FF91EF91BF91AF919F918F917F916F9105
S11357A05F914F913F912F910F900BBE0F900FBEC1
S11357B00F901F90189578941F920F920FB60F9226
S11357C011240BB60F922F933F934F935F936F93D4
S11357D07F938F939F93AF93BF93CF93EF93FF9355
S11357E00E94C9007894CFB7F8948091A002909158
S11357F0A102A091A202B091A302892B8A2B8B2B28
S113580051F580912001909121018430910528F176
S11358108630910550F0069701F581E090E0909371
S11358202101809320016BE010C00E94BF000E9400
S1135830BB0089E00E948B070E94BF0081E090E0DA
S1135840909321018093200167E080E00E94A11DD4
S11358500E94790C02C00E945903CFBFFF91EF91BF
S1135860CF91BF91AF919F918F917F916F915F91F4
S11358704F913F912F910F900BBE0F900FBE0F9041
S11358801F90189578941F920F920FB60F921124BF
S11358900BB60F92AF92BF92CF92DF92EF92FF922C
S11358A00F931F932F933F934F935F936F937F9324
S11358B08F939F93AF93BF93CF93DF93EF93FF9314
S11358C087B7877F87BF7894BFB6F8948091B40177
S11358D09091B501A091B601B091B701892B8A2BA3
S11358E08B2B09F04DC081E08093A80508E915E0F1
S11358F0C8E1D5E0A12CF80180818823A9F1C880F2
S1135900D980EA80FB800E940E016C197D098E0902
S11359109F09CC80DD80EE80FF806C157D058E05AF
S11359209F0510F1F8011082F4E0AF16C1F0FA15EA
S113593040F0AA2089F083E0A81216C00E947717CD
S113594013C0E6E0AE1671F0AE1648F0FFE0AF12F9
S11359500BC00E94530108C00E94B50A05C00E94F2
S11359603C1002C00E944C15A3940F5F1F4F289651
S113597080E1A812C0CF1092A8050E94600502C061
S11359800E94AC01BFBEFF91EF91DF91CF91BF9117
S1135990AF919F918F917F916F915F914F913F91C3
S11359A02F911F910F91FF90EF90DF90CF90BF90B8
S11359B0AF900F900BBE0F900FBE0F901F901895D5
S11359C078941F920F920FB60F9211240BB60F9278
S11359D0FF920F931F932F933F934F935F936F9374
S11359E07F938F939F93AF93BF93EF93FF93CF9343
S11359F0DF931F92CDB7DEB780917D008E7F8093B9
S1135A007D007894FFB6F8948091550290915602E7
S1135A10A0915702B0915802892B8A2B8B2B09F045
S1135A20B7C080911E01823051F08330A1F08130E3
S1135A3009F0B0C010921E010E94FA15ABC010927A
S1135A401E018FE090E0909328018093270180E06D
S1135A500E94AC076FC010921E01809127019091A3
S1135A6028018D30910509F452C00E9709F092C0B7
S1135A700E94920781E190E090932801809327018E
S1135A80CE0101960E945E098111FACF86999CC0CD
S1135A900E940B080E942B0F8BE090E0909328014A
S1135AA080932701E0918001F091810183818F5FD0
S1135AB083839281981740F4009112051091130585
S1135AC00115110559F466C080818F5F808391812F
S1135AD0981708F490830E94AD1D5CC01092820157
S1135AE00E943F020E940B0D84E090E090932801F5
S1135AF0809327010E948C01893009F04BC021E07A
S1135B0040E050E060E0C8010E94B81C43C00E941D
S1135B10920780E190E09093280180932701CE01C1
S1135B2001960E945E098111FACF81E00E94AC07C0
S1135B30811103C00E941C0F2DC00E940B080E94FB
S1135B402B0FE0918001F091810183818F5F83832A
S1135B509281981798F48091120590911305892BDE
S1135B60C9F0109282010E943F020E940B0D84E052
S1135B7090E090932801809327010CC080818F5F6F
S1135B8080839181981708F490830E948F0D02C03E
S1135B900E945102FFBE0F90DF91CF91FF91EF91D0
S1135BA0BF91AF919F918F917F916F915F914F9131
S1135BB03F912F911F910F91FF900F900BBE0F906B
S1135BC00FBE0F901F90189581E00E94AC078111C1
S1135BD05FCFB0CF78941F920F920FB60F9211241B
S1135BE00BB60F92CF92DF92EF92FF921F932F93F7
S1135BF03F934F935F936F937F938F939F93AF9351
S1135C00BF93CF93DF93EF93FF93C6B5D7B51FB779
S1135C10F8940E940E01660F771F881F991F6B016D
S1135C207C012AE0C21AD108E108F1089E01220F82
S1135C30331F621B730BC61AD70AE108F10880915F
S1135C402001909121018430910519F00597F1F01C
S1135C5059C085E090E0909321018093200181E078
S1135C608093500210921F0180E00E94FA0AE09192
S1135C708B03F0918C030480F581E02DC382D282E2
S1135C80E182F0820E94C900849997C01092500268
S1135C9081E00E94FA0AE0918B03F0918C03019059
S1135CA0F081E02D818185FF1FC086E090E0909314
S1135CB02101809320010E940E016093D102709310
S1135CC0D2028093D3029093D4028BE490E0A0E0BC
S1135CD0B0E08093A0029093A102A093A202B0939B
S1135CE0A3020E9459030CC081E090E0909321012B
