S01800006275696C642F6D6963617A2F6D61696E2E73726563E5
S11300000C9491010C942B350C9435350C943F359C
S11300100C9449350C9453350C945D350C94673528
S11300200C949B350C94B0010C94B0010C940034E6
S11300300C94F7310C945E320C940E350C94A73169
S11300400C94CF310C94A5350C940C360C94B0015F
S11300500C9479360C94B0010C94B0010C94B0015A
S11300600C94F7320C94B2370C9491370C949C375F
S11300700C94A7370C94C5370C9475370C94B001C5
S11300800C9486370C94B0010C94B001A417AF17EC
S1130090D3176318661869186C186F187218F0274C
S11300A0002822286528A028C828CC28D0288B31ED
S11300B0332937296C298029CA29D729DE29F4292B
S11300C0432A9A2A262B442B5A2B932B1F2C3C2C45
S11300D0502C5B2C662FAD2F21304530543012311B
S11300E023312531283163315B31E22BAB2BC52B16
S11300F08B31D92B8B318B31102CDC2BDC2BDC2B73
S11301008B318B318B31DF2BDF2BDF2BD536E03678
S1130110F5363E3745374C3753375A3700081C18E5
S1130120141000002110422063308440A550C660A2
S1130130E770088129914AA16BB18CC1ADD1CEE1A0
S1130140EFF13112100273325222B5529442F77217
S1130150D662399318837BB35AA3BDD39CC3FFF3F0
S1130160DEE36224433420040114E664C774A44427
S113017085546AA54BB528850995EEE5CFF5ACC540
S11301808DD55336722611163006D776F6669556F7
S1130190B4465BB77AA719973887DFF7FEE79DD790
S11301A0BCC7C448E5588668A77840086118022887
S11301B02338CCC9EDD98EE9AFF9488969990AA9E0
S11301C02BB9F55AD44AB77A966A711A500A333A57
S11301D0122AFDDBDCCBBFFB9EEB799B588B3BBB30
S11301E01AABA66C877CE44CC55C222C033C600CE7
S11301F0411CAEED8FFDECCDCDDD2AAD0BBD688D80
S1130200499D977EB66ED55EF44E133E322E511E36
S1130210700E9FFFBEEFDDDFFCCF1BBF3AAF599FCF
S1130220788F8891A981CAB1EBA10CD12DC14EF16F
S11302306FE18010A100C230E320045025404670D5
S11302406760B9839893FBA3DAB33DC31CD37FE300
S11302505EF3B1029012F322D23235421452776225
S11302605672EAB5CBA5A89589856EF54FE52CD5D0
S11302700DC5E234C324A014810466744764245475
S11302800544DBA7FAB79987B8975FE77EF71DC7E0
S11302903CD7D326F2369106B016576676761546C5
S11302A034564CD96DC90EF92FE9C899E9898AB930
S11302B0ABA94458654806782768C018E108823815
S11302C0A3287DCB5CDB3FEB1EFBF98BD89BBBAB40
S11302D09ABB754A545A376A167AF10AD01AB32A65
S11302E0923A2EFD0FED6CDD4DCDAABD8BADE89D90
S11302F0C98D267C076C645C454CA23C832CE01CB5
S1130300C10C1FEF3EFF5DCF7CDF9BAFBABFD98F1F
S1130310F89F176E367E554E745E932EB23ED10E04
S1130320F01E11241FBECFEFD0E1DEBFCDBF11E020
S1130330A0E0B1E0ECE7FAE700E00BBF02C00790F1
S11303400D92A434B107D9F719E0A4E4B1E001C0D7
S11303501D92A230B107E1F70E94FB370C943C3D9B
S11303600C9400009FB7F894E82FF0E0EE56F84F95
S113037010829FBF0895FC0120816181862F90E047
S1130380A0E0B0E077276627922B2381622B22819D
S1130390722B0895C0980895B89A0895C09A089544
S11303A087B78F7E87BF08951092040810920308C0
S11303B084E0809313031092FF06109217081092A2
S11303C09F031092E3041092E20408958091400880
S11303D08F3F71F0E82FF0E0EC52FE4F9081909344
S11303E040089F3F11F49093EF089FEF9083089586
S11303F08FEF089583B783BF00B600FCFDCF089547
S11304009FB7F894E82FF0E0EC52FE4F20812F3F85
S1130410C9F421E030E0E091EF08E81711F020E0A2
S113042030E0232B79F4209140082F3F19F4809376
S1130430400804C0F0E0EC52FE4F80838093EF0844
S113044080E001C085E09FBF0895CF93CFB7F894B3
S11304508091E508811108C08FE10E94000281119A
S113046003C081E08093E508CFBFCF9108958CE16C
S11304700C9400028BE10C9400028091C3068A3034
S113048021F480911303843021F081E08093590199
S1130490089581E20E9400021092590108950F9379
S11304A01F938FB7F8946091E0047091E1040CB548
S11304B01DB506B602FE04C06F5F7F4F0CB51DB5B7
S11304C08FBFCB01A0E0B0E07727662720E030E0C3
S11304D0602B712B822B932B1F910F9108959FB743
S11304E0F89420910D01281307C080916F01823088
S11304F019F49FBF81E008959FBF80E008959FB7DE
S1130500F894E82FF0E0EE56F84F80819FBF0895ED
S11305109FB7F89480916F01823019F09FBF8FEFDD
S1130520089580910D019FBF0895CF93C82F0E9415
S11305308802C8130AC081E02091630130916401EC
S11305402430310519F080E001C085E0CF91089591
S113055080910304909104049093BB048093BA04A3
S1130560EFEFF3E086819781A085B1858093B00495
S11305709093B104A093B204B093B30480819181A9
S1130580A281B3818093DC069093DD06A093DE06FE
S1130590B093DF060895CF92DF92EF92FF920F930C
S11305A01F930E944F02C0907801D0907901E0908F
S11305B07A01F0907B0100910A0210910B022091C4
S11305C00C0230910D020C0D1D1D2E1D3F1D6C15CE
S11305D07D058E059F0530F00C151D052E053F0584
S11305E058F005C00C151D052E053F0590F5601744
S11305F071078207930768F568017901C61AD70A5B
S1130600E80AF90A41E0C41640E8D406E104F1041A
S113061018F18B019C0110582F4F3F4F0093780124
S11306201093790120937A0130937B01970186011D
S113063010582109310900930A0210930B022093E8
S11306400C0230930D02C12C50E8D52EE12CF12C74
S113065013C0C12CD12C7601009378011093790139
S113066020937A0130937B0110920A0210920B02BC
S113067010920C0210920D024CB55DB54D5F5F4FA8
S11306809A01261B370B2C153D0518F4AB014C0DB4
S11306905D1D4115510511F441E050E041505109EF
S11306A059BD48BD88E086BF87B7886087BF1F9162
S11306B00F91FF90EF90DF90CF900895CF93CFB735
S11306C0F89410925D0110925C010E94D00187B7EA
S11306D08F7D87BF0E94CE01CFBF80E0CF91089568
S11306E0CF92DF92EF92FF920F931F930E944F02DB
S11306F0C090A807D090A907E090AA07F090AB0794
S113070000911403109115032091160330911703DF
S11307100C0D1D1D2E1D3F1D6C157D058E059F05A1
S113072030F00C151D052E053F0558F005C00C15BD
S11307301D052E053F0590F5601771078207930785
S113074068F568017901C61AD70AE80AF90A41E08E
S1130750C41640E8D406E104F10418F18B019C01AD
S113076010582F4F3F4F0093A8071093A9072093C9
S1130770AA073093AB079701860110582109310964
S11307800093140310931503209316033093170357
S1130790C12CE0E8DE2EE12CF12C13C0C12CD12CAD
S11307A076010093A8071093A9072093AA07309312
S11307B0AB071092140310921503109216031092B3
S11307C017034CB55DB54D5F5F4F9A01261B370B80
S11307D02C153D0518F4AB014C0D5D1D411551055B
S11307E011F441E050E04150510950937900409395
S11307F0780081E080937C0080917D00816080930B
S11308007D001F910F91FF90EF90DF90CF9008959E
S11308104091B4044330B8F450914908242F30E097
S1130820250F311D2330310510F023503109F90112
S1130830EE0FFF1FE051F74F918380834F5F40938A
S1130840B40480E0089581E008954091B5044430F3
S1130850B8F45091E403242F30E0250F311D2430E7
S1130860310510F024503109F901EE0FFF1FE0505B
S1130870F94F918380834F5F4093B50480E00895DE
S113088081E008953091B5043323C1F02091E4034D
S1130890E22FF0E0EE0FFF1FE050F94F80819181CD
S11308A01182108231503093B5042F5F243019F037
S11308B02093E40308951092E403089580E090E007
S11308C008953091B4043323C1F020914908E22FF4
S11308D0F0E0EE0FFF1FE051F74F8081918111820C
S11308E0108231503093B4042F5F233019F02093D9
S11308F04908089510924908089580E090E0089509
S11309000F931F934FB7F89498E0899FF001112437
S1130910EE5EF84F64817581868197810081118133
S113092022813381600F711F821F931F4FBF1F915C
S11309300F910895CF92DF92EF92FF920F931F933E
S11309400E944F02C090F803D090F903E090FA039C
S1130950F090FB030091E8031091E9032091EA036E
S11309603091EB030C0D1D1D2E1D3F1D6C157D05D7
S11309708E059F0530F00C151D052E053F0558F01A
S113098005C00C151D052E053F0590F56017710770
S11309908207930768F568017901C61AD70AE80A3D
S11309A0F90A41E0C41640E8D406E104F10418F160
S11309B08B019C0110582F4F3F4F0093F803109365
S11309C0F9032093FA033093FB039701860110582F
S11309D0210931090093E8031093E9032093EA0302
S11309E03093EB03C12C20E8D22EE12CF12C13C060
S11309F0C12CD12C76010093F8031093F9032093B2
S1130A00FA033093FB031092E8031092E903109267
S1130A10EA031092EB034CB55DB54D5F5F4F9A014D
S1130A20261B370B2C153D0518F4AB014C0D5D1D31
S1130A304115510511F441E050E0415051095BBDAD
S1130A404ABD80E186BF87B7806187BF1F910F9140
S1130A50FF90EF90DF90CF9008952F923F924F92A6
S1130A605F926F927F928F929F92AF92BF92CF923A
S1130A70DF92EF92FF920F931F93EFB7F894809158
S1130A80DD039091DE03A091DF03B091E0031C012C
S1130A902D019C01A20160E070E080E090E003E0A1
S1130AA00E94273A51016201E12CF12C00E010E090
S1130AB00E94673A59016A017B01F82F192F03E05C
S1130AC00E94273A0F2F0E94673A59016A017B015D
S1130AD0F82F192F03E00E94273A0F2F0E94673A3C
S1130AE059016A017B01F82F192F03E00E94273A6C
S1130AF00F2F0E94673A59016A017B01F82F192FC1
S1130B0003E00E94273A0F2F0E94673A01E00E94F7
S1130B10273A29013A0100E20E94423A49015A0166
S1130B20C301B2019695879577956795680D791DF0
S1130B308A1D9B1D97FF05C09F776F5F7F4F8F4F67
S1130B409F4F6093DD037093DE038093DF039093E4
S1130B50E003EFBF1F910F91FF90EF90DF90CF90D4
S1130B60BF90AF909F908F907F906F905F904F90C9
S1130B703F902F90089530916901E32FF0E0EE0F3C
S1130B80FF1FE255F84F8081918120916701222354
S1130B9059F03F5F343019F03093690102C010926C
S1130BA06901215020936701089530916601E32F74
S1130BB0F0E0EE0FFF1FE855FB4F808191812091FB
S1130BC06501222359F03F5F343019F030936601F8
S1130BD002C010926601215020936501089580910E
S1130BE0FE06811102C086E004C08F5F8093FE067A
S1130BF085E00C940002FF920F931F93CF93DF9331
S1130C008AE18093AA0380E88093AB0313E01093F6
S1130C10AC031092AD031092A7031092A103FF241A
S1130C20F394F092A2031092A30386E08093AE03A0
S1130C301092AF030FE00093B0031092C50310921B
S1130C40C6031092C7031092C8030E942D05609337
S1130C50B103CFEFDFEFD093BA03C093B9030E947F
S1130C602D056093B203F092A40385E08093B6034C
S1130C7084E08093B3031093B7031093B403D09329
S1130C80BC03C093BB031092A50380E28093B80316
S1130C901092A6031092A803D093BE03C093BD0381
S1130CA00093B50384EF91E09093C0038093BF0356
S1130CB01092A90382EC97E0A0E0B0E08093C10316
S1130CC09093C203A093C303B093C403DF91CF9165
S1130CD01F910F91FF900895E2E2F1E06927660FFA
S1130CE0F11DE60FF11DC895982F802D3196C895FA
S1130CF09025089590914D012091580191112FC094
S1130D0081112DC041E040934D01809106018093F3
S1130D104C01822F81708093C901809100019091D0
S1130D20010190934B0180934A0180915701809374
S1130D304901322F31703427267EE32FF0E0EE0F85
S1130D40FF1FEE5FFE4F808191819093010180939C
S1130D500001232B2093580184E20C94000220FF0D
S1130D6002C02B7F01C02D7F209358010895CF939B
S1130D70DF93D82FC62F80911303813069F030F0B0
S1130D808230B9F1833009F444C001C1DD2309F490
S1130D9018C10E94D40112C1D11113C18091E2047F
S1130DA09091E3040E946C069093E3048093E20420
S1130DB082E080931303C0931708C43409F0E7C09A
S1130DC08091580180FF04C082FDE1C0846003C0AB
S1130DD081FDDDC082608093580180915801877E37
S1130DE0886080935801109257018FEF8093060119
S1130DF0E8C0D111CCC060939F038091E20490912C
S1130E00E3040E946C069093E3048093E20483E07D
S1130E10D6C08091FF068F3F09F4B9C0DD2309F4E1
S1130E2051C0823008F4B3C0E0910308EE2311F0FE
S1130E30E15001C0E2E0AE2FB0E0AD5FB74F1296D3
S1130E404C9150E0542F4427EE2311F0E15001C09F
S1130E50E2E0F0E0ED5FF74F8281482B2091E2045D
S1130E603091E3044217530709F091C080E00E94D7
S1130E707A0620919F03E091CB043091CC0481E069
S1130E808E0F863010F4982F01C090E0931769F00C
S1130E90F0E0E553FB4F2283863018F48093CB04B3
S1130EA002C01092CB040E9425020E94D4018091BA
S1130EB048018D7F8093480180915901882309F46A
S1130EC080C073C0823008F44DC0E0910408F0E0A3
S1130ED0ED5FF74F228130915801932F96959695A7
S1130EE096959370892F90E08130910519F00297BF
S1130EF081F01FC0832F877E806180935801211168
S1130F0002C081E101C080E0809357012093060173
S1130F1010C080915701843960F4E0910001F09190
S1130F200101E80FF11D2083809157018F5F8093A9
S1130F30570180910408E82FF0E0ED5FF74F6281DC
S1130F408F5F833018F48093040802C01092040861
S1130F508091E2049091E3040E946C069093E30470
S1130F608093E20480910308E82FF0E0ED5FF74FEF
S1130F70C2838F5F833018F48093030802C01092F9
S1130F8003088091FF068F5F8093FF061AC00E94BA
S1130F90D401809148018D7F8093480181E00E94B3
S1130FA07A0680915901882339F084E080931303F1
S1130FB0DF91CF910C943D02DD2319F081E0809301
S1130FC01303DF91CF91089563FF04C062FD04C051
S1130FD097E003C093E001C09DE067FF07C086FF70
S1130FE002C09E5F01C09C5F66FD9A5FFA01908318
S1130FF080E008958091C704882349F01092C704C3
S11310001092FB011092FA0189E10C9400020895F8
S11310109FB7F8948091E30381608093E3039FBFBB
S11310200895813419F08D3419F008950C9408084A
S11310309FB7F8948091E30382608093E3039FBF9A
S113104008954F925F926F927F928F929F92AF9288
S1131050BF92CF92DF92EF92FF920F931F93CF93A1
S1131060DF930E944F02C2E9D7E040E044244A944F
S1131070542C3201E2E1F7E029912223C1F180806E
S11310809180A280B3806B017C01C818D908EA085A
S1131090FB080481158126813781C016D106E2063A
S11310A0F30668F0080D191D2A1D3B1D00831183EA
S11310B02283338314821582168217820CC06083C4
S11310C07183828393830C191D092E093F090483BC
S11310D01583268337830481158126813781401641
S11310E051066206730618F02801390141E038966A
S11310F027E0E239F20709F0BFCF442341F177FE3C
S113110004C07694679457944794609378017093DD
S1131110790180937A0190937B0140920A02509264
S11311200B0260920C0270920D02DF91CF911F911D
S11311300F91FF90EF90DF90CF90BF90AF909F9072
S11311408F907F906F905F904F900C94CB0287B7F5
S1131150877F87BFDF91CF911F910F91FF90EF9011
S1131160DF90CF90BF90AF909F908F907F906F90C3
S11311705F904F9008959FB7F8948091E303846043
S11311808093E3039FBF089580910A0490910B0418
S1131190892B59F581E090E090930F0880930E0815
S11311A08DEF91E090930B0480930A0410929D03B9
S11311B010929C0381E080939E035E9A569A8091DC
S11311C09C0390919D039C012F5F3F4F30939D039F
S11311D020939C03FC01E350FE4F90818FB7F89459
S11311E09CB95E9A8FBF80E0089585E0089593E8E6
S11311F0980F923050F49091480191609093480177
S113120090E298279093E1068DE78093FD010C947A
S1131210C4089FB7F894809148018E7F8093480159
S11312208EE78093FD019FBF0C94C4082091530165
S113123030915401232BB1F52FB7F89431E1309359
S1131240510110925001909356018093550182E010
S113125090E0909354018093530110924E011092A8
S11312604F01685E609352012FBF8FB7F89490913D
S1131270C3069A3011F48FBF17C08FBF9FB7F8947D
S113128080911204811106C081E0809312041092AF
S1131290130401C080E09FBF882331F00E9425021F
S11312A080E0089585E0089510925401109253014E
S11312B081E008958FEF809361088093600884E64D
S11312C0809366088091DA049091DB04892BF1F411
S11312D08FE498E09093DB048093DA048CE18093AC
S11312E0640880910701882399F0109207016CE14A
S11312F08FE498E00E941609882359F091E09093B6
S113130007011092DB041092DA04089585E0089531
S113131080E00895FB01833009F471C028F4882328
S113132019F1823099F174C0833589F0803F29F135
S1131330803509F06DC0808191812FB7F89431E038
S11313403093A6079093D2038093D1030BC080817E
S113135091812FB7F89431E03093A6079093FD0361
S11313608093FC032FBF54C090818FB7F89421E081
S11313702093A6079093B6074AC090818FB7F8943C
S113138021E02093A6079093C50141C09081892F45
S11313908F7395FD806C992787FD909597FF19C0F1
S11313A08F3F2FEF9207B9F08D3F2FEF9207ACF4E8
S11313B08B3F2FEF92079CF4883F2FEF92078CF41A
S11313C0843F2FEF92077CF48D3E9F4F74F087E0AB
S11313D00DC08FE10BC08BE109C087E107C083E139
S11313E005C08FE003C08BE001C083E09FB7F89491
S11313F021E02093A6078093D8039FBF09C0908162
S11314008FB7F89421E02093A60790934A088FBFE2
S113141080916301909164010697029718F484E126
S11314200C9400020895209167012430E0F4309177
S11314306801E32FF0E0EE0FFF1FE255F84F9183B0
S1131440808381E0830F843019F08093680102C0A7
S1131450109268012F5F209367018AE00E940002C6
S113146080E090E0089581EF90E00895CF93CFB7A6
S1131470F8948091FA019091FB01892B19F4CFBF64
S113148089E00EC081E08093C70489B78F7B89BF50
S113149080911203811102C00E94FA07CFBF80E03D
S11314A0CF910895CF93C82F0E948802C8131BC000
S11314B02FB7F89480916301909164018430910571
S11314C019F42FBF89E010C0079719F02FBF81E0EE
S11314D00BC088E090E090936401809363012FBF78
S11314E0CF910C94360A85E0CF91089580E00C9456
S11314F0520ACF92DF92EF92FF92CF93DF9300D004
S113150000D0CDB7DEB76B017C0129833A834B83CE
S11315105C830E944F02660F771F881F991F6C1906
S11315207D098E099F09E1E029813A814B815C8123
S1131530621773078407950708F4E0E08E2F0F9075
S11315400F900F900F90DF91CF91FF90EF90DF906D
S1131550CF900895CF93DF93EC01888199810E9405
S11315600804CE01DF91CF910C9425049FB7F89421
S113157081E020910B01211180E09FBF08956E9AB4
S11315808FB9779BFECF8FB1089590910B0791117E
S11315900C94BF0A80E00895CF93CFB7F8940E94CB
S11315A0B60A811103C0CFBF81E00EC00E94CE01F4
S11315B00E94CA0183E00E94C50A8BE00E94C50A0A
S11315C00E94CE01CFBF80E0CF9108951F93CF93A7
S11315D0DF931F92CDB7DEB720915C0130915D019E
S11315E02330310509F049C089830E94CE010E944D
S11315F0CA018981882311F085E001C084E00E943A
S1131600C50A83FD09C080E00E94C50A83FB112737
S113161010F981E0182701C011E00E94CE011111D8
S11316202EC084E090E090935D0180935C01E09192
S1131630D804F091D9040480F581E02D8FEF8383E1
S11316408283818380830E944F026093F8037093A6
S1131650F9038093FA039093FB0380EE91E0A0E0FA
S1131660B0E08093E8039093E903A093EA03B09376
S1131670EB030E949A0480E003C084E001C081E08F
S11316800F90DF91CF911F910895CF93CFB7F89426
S11316900E94B60A811103C0CFBF81E00BC00E9433
S11316A0CE010E94CA0186E00E94C50A0E94CE01B2
S11316B0CFBF80E0CF910895CF92DF92EF92FF9257
S11316C00F931F93CF93DF9300914D0810914E0811
S11316D0E0905506F0905606C091D604D091D704F8
S11316E020917C0130917D01CE010A96281739079B
S11316F008F4C9016C0121E0C21AD108CC15DD053A
S1131700A0F40115110529F0F801EC0FFD1F8081EB
S113171001C080E00E94BF0AE114F10421F0F70146
S1131720EC0FFD1F80832196E9CF6F9A01151105F7
S113173031F0F801EC0FFD1F80818FB901C01FB893
S1131740D093D704C093D60480E0DF91CF911F914A
S11317500F91FF90EF90DF90CF90089550937D010B
S113176040937C0190934E0880934D0870935606E5
S1131770609355061092D7041092D604452B19F0A5
S11317808FB10C945C0B87E10E94000280E0089505
S1131790CF93DF930E94CE010E94CA01C0916606D6
S11317A0D091670680910B07882391F08FE790E032
S11317B090930D0480930C048FE70E94BF0A41E0CC
S11317C050E0BE0180E090E0DF91CF910C94AE0B2D
S11317D0DF91CF910895EF92FF921F93CF93DF9300
S11317E01F92CDB7DEB77C0180910B078823A9F047
S11317F08EE390E090930D0480930C048EE3698350
S11318000E94BF0A182F6981462F50E060E070E003
S1131810C7010E94AE0B812F01C080E00F90DF91C1
S1131820CF911F91FF90EF9008958F929F92AF9266
S1131830BF92CF92DF92EF92FF92CF93DF9300D0CB
S113184000D0CDB7DEB74B015C0129833A834B83CB
S11318505C830E944F026B017C01CC0CDD1CEE1CEE
S1131860FF1CC818D908EA08FB084601570129815A
S11318703A814B815C81C216D306E406F50610F466
S113188049015A010E944F026093A8077093A90767
S11318908093AA079093AB07D501C4018C199D09C5
S11318A0AE09BF09B695A7959795879580931403BC
S11318B090931503A0931603B09317030F900F9002
S11318C00F900F90DF91CF91FF90EF90DF90CF902A
S11318D0BF90AF909F908F900C9470030F931F93C1
S11318E0CF93CFB7F89490916F01923071F49091A7
S11318F00D0198130AC08091F40481110EC08091E7
S1131900F504882309F43EC008C090E0CFBF81E00D
S11319108927CF911F910F9108952091700130E094
S1131920C901019661E070E08C30910511F480E00A
S113193090E0E82FE695E695E695F0E0EC50FB4F55
S1131940A081482F47708B0102C0000F111F4A95D8
S1131950E2F7A801BA2FB02331F040954A2340831F
S11319608093700106C08217930711F00196DCCFB3
S11319708FEF8093FF0181E080936F0182E00E94EA
S1131980000205C08FEF80930D0110926F0191E06A
S1131990BDCF6F927F928F929F92AF92BF92CF9260
S11319A0DF92EF92FF920F931F93CF93DF93D09028
S11319B01302CFB6F8948091F608813011F4CFBEAB
S11319C073C1A090E303A2FEB6C0E5EAF1E0912C56
S11319D068EFC191D1912097C1F10990D881C02DB0
S11319E08A818C708C3089F5269680E693E070E0CD
S11319F010E0191599F0783081F1AE019C0170E086
S1131A00DA01FD90AD01D9010D919D01F01203C0E1
S1131A107F5F7830A9F71F5F0897EBCF7830E9F044
S1131A209394492D64039001112480E090E0235E97
S1131A303C4F79910196A901480F591F465B5F4FAE
S1131A40DA017C9388309105A1F7B1E0E33BFB0711
S1131A5021F027E0291508F0BCCF092D10E048EF4C
S1131A604003C001112488599C4FE5EAF1E0B12CF0
S1131A707C0152E0E51AF108C191D191209769F1F6
S1131A800990D881C02D2A812C70283031F52F81FE
S1131A9030E0322F22274E81242B732E612CD30168
S1131AA0A22B9D01A701812C8B1471F0EA0169819D
S1131AB04250510970E0762F6627C8816C2B261797
S1131AC0370791F08394F0CFB394EC01B2E0BB9E5E
S1131AD0C019D10911242883398321E0E33BF2079B
S1131AE019F036E03B1540F62CEF2003F001219F5E
S1131AF0F00D1124EB19F109EE0FFF1FE959FC4F0A
S1131B0054E0000F111F5A95E1F70B290083990C3B
S1131B10990C9B0C990C939488E693E0891991098C
S1131B202091A307921669F09092A3072A2D2F60A3
S1131B302093E30306C02091A30788E693E0821B69
S1131B409109A091E303A1FF3AC09C012D513340B8
S1131B50222329F0FC013197108261E001C060E08A
S1131B60EC01C61BD1092881277030E0D12C70E02C
S1131B70472F50E04217530764F4FE0143E0749F7B
S1131B80E00DF11D1124448142954F70D40E7F5F06
S1131B90EFCF2091C80162130CC04FE050E04D1903
S1131BA051092091D30130E02150310942175307E4
S1131BB059F06093C801AF60A093E30305C020917E
S1131BC0C801EC01C21BD109DE0112974091E30365
S1131BD040FF1FC02091650650E1259F900111240C
S1131BE030911008322B3C93FE0112928091A10394
S1131BF0882311F080E880838091A903882319F059
S1131C008081806480838D2D80958F709081892B55
S1131C1080838091A3079091C801890F8E5F909172
S1131C20BD04890F80935E06B0935A06A0935906AB
S1131C30407F4093E303CFBED99ADA98E0915706E8
S1131C40F09158068091B1038F5F8383DFB7F894D6
S1131C508091F608813039F1C091E303C4FF15C0C7
S1131C601091BC040091C401802F90E0412F50E0FA
S1131C70609105027091060288599C4F0E94793A3E
S1131C80C5FF03C0100F1093BD048091A30790916A
S1131C90C801890F8E5F9091BD04890F80935E0601
S1131CA0CF70C093E303DFBFDF91CF911F910F91FA
S1131CB0FF90EF90DF90CF90BF90AF909F908F9068
S1131CC07F906F900895EF92FF920F931F93CF939D
S1131CD0DF938C01FFB6F8940E94B60A882311F1B1
S1131CE00E94CE010E94CA0180910B07882381F0D3
S1131CF083E50E94BF0AE82E80E00E94BF0AC82F35
S1131D00D0E0DC2FCC2780E00E94BF0AC82B01C0A2
S1131D10E12C0E94CE01E1FE05C0F801C083FFBEA4
S1131D2080E002C0FFBE81E0DF91CF911F910F914F
S1131D30FF90EF900895CF93DF9300D0CDB7DEB737
S1131D409FB7F89420910B07222389F09FBF6A83E1
S1131D5079830E94BF0A7981872F0E94BF0A6A8112
S1131D60862F0F900F90DF91CF910C94BF0A9FBFE5
S1131D7080E00F900F90DF91CF9108958091B60786
S1131D8090E00B9725E0289FB001299F700D112446
S1131D906B597E4F706488E10C949B0EE1E0809156
S1131DA0D504811101C0E0E041E08091C5018111B9
S1131DB001C040E021E080910702811101C020E0D0
S1131DC08091D903882351F051E030E08091A70736
S1131DD0811101C050E0852F932F02C080E090E074
S1131DE060914A0830E4639FB0011124626272601A
S1131DF0F0E0FE2FEE27F295FF0FF07E6E2B7F2B87
S1131E0050E0542F44275295507F642B752B30E0BB
S1131E10322F2227330F330F330F622B732BA4E09F
S1131E20880F991FAA95E1F7682B792B81E10C940F
S1131E309B0E80916101909162010197F1F582E01E
S1131E4090E09093620180936101DE98DE9A809124
S1131E50610190916201029781F583E090E0909393
S1131E606201809361010E94CE010E94CA0168E16F
S1131E7070E08DE10E949B0E81E08093FE0310923E
S1131E80600180B386FB882780F98093090485E18B
S1131E900E94000281E00E94C50A6FE772E08CE1B3
S1131EA00E949B0E0E94BE0E0E94CE0E66E57AE250
S1131EB087E10E949B0E0C94CE0108955091450138
S1131EC05C3118F4252F30E002C02CE130E08CE1C5
S1131ED0E7E6F8E0DF011D928A95E9F740914701B2
S1131EE080E090E08217930791F0E42FF0E0E95E40
S1131EF0FD4F6081552329F04F5F4A3F09F440E0CC
S1131F005150FC01E15BF74F608F0196EBCF40939A
S1131F104701509345010E945A09882319F085E22C
S1131F200C9400020895CF93DF931F92CDB7DEB7D0
S1131F309091440191110BC0909145019D3738F067
S1131F4091E09093440189830E945E0F89819FB739
S1131F50F894209145012A3FB8F430914601E32FCB
S1131F60F0E0E95EFD4F808381E0830F8A3F19F042
S1131F708093460102C0109246012F5F20934501D1
S1131F809FBF80E090E003C09FBF8FEF9FEF0F9053
S1131F90DF91CF91089597B79F7D97BF90E296BF49
S1131FA0882319F08EB5806402C08EB58F7B8EBDF8
S1131FB087B7806287BF80E008956E98BA9ABB980D
S1131FC0B99A0E94CC016C9A6F986B986A986E9A31
S1131FD0709A8DB18C7F8DB908951F93CF93DF9341
S1131FE01F92CDB7DEB71FB7F89490910B079111EC
S1131FF01FC091E090930B072091080190915E011E
S1132000211102C0923079F0911115C092E09093A1
S11320105E011092080189830E94DD0F0E94CC01A9
S11320200E94CA01898180930B0180E01FBF07C011
S11320301FBF85E004C010920B0781E0F7CF0F901B
S1132040DF91CF911F910895CF93CFB7F8949091DA
S11320500B0791110FC091E090930B0780930B0134
S11320609091080180915E01911110C0823071F449
S113207086E118C021E030E001C0220F8A95EAF71A
S113208080915F01822B80935F012EC0882349F1E8
S113209080915E01811109C081E080935E011092FC
S11320A0090288E10E9400021FC0809112028F3F42
S11320B0D9F481E090E0E0910901EE2311F080E091
S11320C090E0892B89F480910A018F3F19F41092D2
S11320D00A0104C0F0E0EE5EFD4F10821092090187
S11320E003C00E94DD0FD4CFCFBF80E0CF9108950D
S11320F080E00C9424108091FA019091FB01892BCB
S1132100F1F08091C70481111AC083E090E09093AC
S1132110FB018093FA0181E0809312039FB7F89446
S113212080910B019FBF813011F40C94C80B81E0A6
S11321300E94ED0F8823C9F381E00C9424100895C4
S1132140CF92DF92EF92FF92CF93DF93C82F6A0171
S11321507B010E944F02DFB7F8942C2F30E0F90185
S1132160B3E0EE0FFF1FBA95E1F7EE5EF84F608320
S1132170718382839383C482D582E682F782F901D4
S1132180EE56F84F81E080838091A207811102C04E
S11321900E942108DFBFDF91CF91FF90EF90DF9085
S11321A0CF900895CF93CFB7F89480915C0190912C
S11321B05D01019719F4CFBF89E00DC081E00E9451
S11321C0CB0F81E090E090935D0180935C011092CD
S11321D05B01CFBF80E0CF91089580915F018111B1
S11321E04EC080910B018F3F09F049C080910B07CD
S11321F0811145C081E08093DF078091CC0181117A
S11322001092DF078091DF078823B9F180910801DC
S1132210811104C080915E01823099F180915E0148
S1132220823029F580910801811121C080910A0131
S11322308F3FC9F09FEF90930801E82FF0E0EE5E26
S1132240FD4F908190930A019F3F11F490930901EF
S11322509FEF90838093090281E080935E0188E17F
S11322600E94000204C08093080110925E018091D4
S11322705E01811109C06E9807C085E0089581E070
S113228008950E94CE01CACF80E00895CF93CFB7BE
S1132290F89490910B01981719F0CFBF81E02DC0ED
S11322A08FEF80930B0170915F01711105C0109243
S11322B00B070E94ED101CC060E0872F90E0617056
S11322C0AC01062E02C0559547950A94E2F740FFEB
S11322D012C060930B0181E090E001C0880F6A9501
S11322E0EAF78095872380935F0186E10E940002CC
S11322F0CFBF80E002C06F5FE2CFCF910895CF934C
S1132300CFB7F89480E00E944611CFBFCF910895D3
S113231081E00C944611CF93CFB7F8948091FA01E1
S11323209091FB01892B09F1109212038091C7044B
S1132330882319F00E94FA071AC0809108028823A2
S113234011F0B79904C00E9908C0882319F0815080
S1132350809308020E947B100AC082E090E0909370
S1132360FB018093FA01109208020E948811CFBFEA
S1132370CF91089580E88093C301109212031092C4
S1132380470810923F08109208020E94CE010E9452
S1132390CA0188E00E94C50A88E00E94C50A0E941A
S11323A0CE010E9488110C948B110F93CF9320912E
S11323B0EC043091ED044091EE045091EF046091EF
S11323C0F0047091F104C091F204B091F304FC01A3
S11323D0A8E021938C2F9B2F08E00E94423AC82F3B
S11323E0B92FA150B1F7CF910F910895EF92FF92B9
S11323F00F931F93CF93DF93CDB7DEB72C970FB610
S1132400F894DEBF0FBECDBF1FB7F894CE0101967E
S11324100E94D5119091D1038091D20399878A8724
S11324209091FC038091FD039B878C871FBF21E063
S11324308091D1039091D203019609F020E0722F8C
S1132440770F770F770F60E06F6772608CE10E94FF
S11324509B0E8FB7F89490910B07911102C08FBF18
S113246016C08FBF80EE0E94BF0A80E80E94BF0A98
S11324708E010F5F1F4F7E018DE0E80EF11CF80105
S113248081918F010E94BF0A0E151F05C1F72C967A
S11324900FB6F894DEBF0FBECDBFDF91CF911F9171
S11324A00F91FF90EF900895CF93CFB7F8940E94C7
S11324B0B60A811103C0CFBF81E027C08091A6076F
S11324C0882309F10E94CE010E94CA0186E00E947D
S11324D0C50A0E94CE010E94CA010E94BE0E0E943B
S11324E0CE0E6091D80370E0606E706885E10E9442
S11324F09B0E0E94CE010E94CA010E94F6110E9406
S1132500CE011092A607CFBF80E0CF910895CF935C
S11325100E9454120E94D210E0910807F09109071A
S1132520CFB7F89480915C0190915D01019729F5F2
S113253082E090E090935D0180935C01F093D90474
S1132540E093D804A081B18186819781890F8E5F41
S11325508C930E94CE010E94CA0189E00E94C50AA0
S11325600E94CE010E94CA01E091D804F091D904DE
S113257061E0808191810E94EB0BCFBFCF910895E0
S11325800E94B60A81110C94871280E00E94ED0F1C
S11325908823C9F30C9478100F931F93FC010097C0
S11325A009F441C080819181892BE9F18281938171
S11325B0892B19F48781811136C084819581892BF7
S11325C091F1A681878190E08A0F911D8E37910544
S11325D054F5AFB7F8948091630190916401049726
S11325E019F0AFBF81E020C089E090E090936401CE
S11325F080936301AFBFF0930907E093080740930A
S1132600190350931A0360931B0370931C030093E4
S1132610B4011093B5012093B6013093B7010E9421
S1132620C01280E001C086E01F910F910895CF92FF
S1132630DF92EF92FF920F931F93CF93DF9300D01B
S113264000D0CDB7DEB781E08093F6088091E50431
S1132650E0915706F0915806811115C08091E1036D
S11326609091E203892B61F481E090E020917F0155
S113267030918001232B11F480E090E0892B19F034
S11326808181806102C081818F7E818380913D0838
S1132690882351F010923D0810920E0210920F02FE
S11326A01092100210921102C0900E02D0900F02EC
S11326B0E0901002F09011024091DC045091DD048E
S11326C06091DE047091DF0449835A836B837C83B9
S11326D00E94880249815A816B817C81833031F464
S11326E09701860187E596E00E94CC120F900F9027
S11326F00F900F90DF91CF911F910F91FF90EF906A
S1132700DF90CF9008954F925F927F928F929F9225
S1132710AF92BF92CF92DF92EF92FF920F931F93EB
S1132720CF93DF9300D000D0CDB7DEB71091D301A3
S113273020910E0730910F07409110075091110717
S113274085E029833A834B835C830E949502298127
S11327503A814B815C81882309F4B4C0A12FB0E095
S11327600E94F4394B015C016B017C0124EAC21A1A
S113277021E0D20AE108F1088091DC069091DD069F
S1132780A091DE06B091DF06C81AD90AEA0AFB0A4C
S1132790C701B60124E130E040E050E00E94FF3977
S11327A0E4E1CE0ED11CE11CF11CC61AD70AE80ADA
S11327B0F90A8C149D04AE04BF0418F4C12CD12C66
S11327C076018091D1019091D201009749F0A0E067
S11327D0B0E08C159D05AE05BF0510F46C017D01BC
S11327E06091DC047091DD048091DE049091DF043B
S11327F0A70196010E94790A811167C00091C60160
S11328001091C701709002028090DC049090DD0466
S1132810A090DE04B090DF044090BA045090BB0452
S11328200E948802853009F053C04114510409F410
S11328304FC0F20180819181892B09F449C08281C2
S11328409381892B19F48781811142C0F20184811B
S11328509581892BE9F12681878190E0820F911D72
S11328608E379105ACF580916301909164010497D2
S113287079F58BE090E0909364018093630150922A
S113288009074092080780EB94E09093CB01809372
S1132890CA018092190390921A03A0921B03B0926A
S11328A01C03C092B401D092B501E092B601F0923B
S11328B0B7017092EA08109300080093FF070E9482
S11328C0C01206C080E090E005C083E090E002C042
S11328D082E090E00F900F900F900F90DF91CF91D6
S11328E01F910F91FF90EF90DF90CF90BF90AF902A
S11328F09F908F907F905F904F900895CF92DF923A
S1132900EF92FF926B017C0180915A0181111FC0EB
S113291083E080935A010E944F026093A80770934A
S1132920A9078093AA079093AB07F694E794D794EA
S1132930C794C0921403D0921503E0921603F09248
S11329401703FF90EF90DF90CF900C947003FF90EB
S1132950EF90DF90CF900895CF93E091CA01F0916A
S1132960CB01C0810E942D052FEF3FEF02C0220F43
S1132970331FCA95E2F74DE050E050936401409351
S11329806301209530952623372384E1829FB0018B
S1132990839F700D112480E090E0CF910C947E14FD
S11329A02F923F924F925F926F927F928F929F925B
S11329B0AF92BF92CF92DF92EF92FF920F931F9349
S11329C0FC01DB0117968C91179716968C9016973D
S11329D0912CA12CB12C540199248824B82A149642
S11329E08C911497882A15968C911597982A94019E
S11329F0A50160E070E080E090E000E20E94273AE8
S1132A001396FC90139712962C901297822C912C6B
S1132A10A12CB12C540199248824BF28FC908F2820
S1132A201196AC919A2A1401250151016201E12CFD
S1132A30F12C00E010E00E945E3A2083318342834F
S1132A40538364837583868397831F910F91FF90CB
S1132A50EF90DF90CF90BF90AF909F908F907F903A
S1132A606F905F904F903F902F900895FC01CB01A1
S1132A70328137FF29C0232F2C70283021F02C30CD
S1132A8021F023E003C027E001C02DE0418146FF8F
S1132A9001C033FF2E5F3196432F407C30E0403835
S1132AA061F4E20FF31F218130E0322F22274081AD
S1132AB0242BFC013183208305C0BF01620F731FE7
S1132AC00E94D01480E0089581E008958F929F922F
S1132AD0AF92BF92CF92DF92EF92FF920F931F9328
S1132AE0CF93DF93EC014A01D901B02EF6018EEFAA
S1132AF0860F823070F54B839C82623039F49C914E
S1132B0011968C919D838E8317E026C02C9111968B
S1132B103C91119712964C91129713965C911397CE
S1132B2014966C91149715967C91159716968C9122
S1132B30169717969C91DE0115966E011DE0C10E45
S1132B40D11C2D9308E00E94423AAC15BD05C9F78B
S1132B5002C013E001C01DE08EEF8B0D823058F5EA
S1132B608E149F0411F4A11007C0DE01A10FB11D42
S1132B70EC921196FC921E5FA12FB0E082E0B81295
S1132B8008C090818181CA0FDB1F988389831E5FEF
S1132B9012C0208131814281538164817581868193
S1132BA09781CA0FDB1FE8E0299308E00E94423AAC
S1132BB0E150D1F7185F812FDF91CF911F910F91D1
S1132BC0FF90EF90DF90CF90BF90AF909F908F9049
S1132BD008952FB7F894B79905C00E9903C02FBF75
S1132BE081E0089580E88093C3011092120310924B
S1132BF0470810923F081092080282E090E09093F8
S1132C00FB018093FA0189B78F7B89BF80E488BF79
S1132C108AB780628ABF8AB78F7E8ABF89B7806489
S1132C2089BF2FBF80E00895E0910807F09109075C
S1132C300190F081E02D818185FF04C00E947F1105
S1132C400C94E915089510920701E091DA04F091CB
S1132C50DB043097D1F08091480880FD16C0809144
S1132C600701811116C0218982896589673718F0A7
S1132C708EE10C94000290E0922B828B918BCF0119
S1132C800E941609882329F0F3CF81E0809307017D
S1132C90E6CF0895CF93CFB7F8940E94B60A811176
S1132CA003C0CFBF81E01FC0B79B1BC00E94CA01F5
S1132CB080910B07882349F08FE70E94BF0A80E0C8
S1132CC00E94BF0A80E00E94BF0A0E94CE010E94B7
S1132CD0CA0188E00E94C50A88E00E94C50A0E94D1
S1132CE0CE01CFBF80E0CF9108958F929F92AF9293
S1132CF0BF92CF92DF92EF92FF920F931F93CF93E5
S1132D00DF938091F608813079F489E0DF91CF91E7
S1132D101F910F91FF90EF90DF90CF90BF90AF90F5
S1132D209F908F900C940002809110088F3079F45A
S1132D3083E0DF91CF911F910F91FF90EF90DF908F
S1132D40CF90BF90AF909F908F900C946E0CCFB7A4
S1132D50F89482E08093F60880913D088111B3C015
S1132D608091BE019091BF01A091C001B091C101B9
S1132D70892B8A2B8B2B31F580919F019091A00197
S1132D80A091A101B091A2010097A105B105D1F0D4
S1132D9080930E0290930F02A0931002B09311023D
S1132DA010929F011092A0011092A1011092A20111
S1132DB08091B30182FF06C08B7F8093B30188E0CA
S1132DC00E94000220910E0230910F0240911002E5
S1132DD0509111026091DC047091DD048091DE0455
S1132DE09091DF040E94790A20910E0230910F0223
S1132DF040911002509111028823A9F08091B604E9
S1132E009091B704A091B804B091B904820F931FB4
S1132E10A41FB51F80930E0290930F02A09310027B
S1132E20B0931102CFCF6091DC047091DD048091E6
S1132E30DE049091DF0460597140810991090E9478
S1132E40790A811140C080900E0290900F02A090E8
S1132E501002B0901102F0E9CF2EDD24D394E12CBE
S1132E60F12C8091DC049091DD04A091DE04B091FA
S1132E70DF04C81AD90AEA0AFB0ADFB7F8940E94E9
S1132E804F02660F771F881F991F6C0D7D1D8E1DC5
S1132E909F1D6B017C01681579058A059B0510F45B
S1132EA07501640197018601061B170B280B390B6A
S1132EB0B901A801769567955795479582E00E94D8
S1132EC0A010DFBF02C00E941713CFBFDF91CF91C4
S1132ED01F910F91FF90EF90DF90CF90BF90AF9034
S1132EE09F908F90089583E00E94950281110C9425
S1132EF0751683E00C94520A6F927F928F929F9280
S1132F00AF92BF92CF92DF92EF92FF920F931F93F3
S1132F10CF93DF931F92CDB7DEB7182F7FB6F89407
S1132F2069830E94880269818113E3C060930D0163
S1132F30862F90E0FC013397E930F10508F0D6C004
S1132F40EA5BFF4F0C94213A8091B301897021F020
S1132F5089E00E940002CAC00E947317C7C0809112
S1132F60DC038823E9F00091E1031091E2030115E9
S1132F70110521F400917F011091800181E080937B
S1132F80E50485E00E946F0281110AC08091AC07BC
S1132F909091AD07892B21F41093AD070093AC07F2
S1132FA065E084E0A1C0A091D30120910E07309187
S1132FB00F074091100750911107B0E00E94F439B7
S1132FC0643A21E072078105910518F466E085E012
S1132FD08BC06B017C01E4EACE1AE1E0DE0AE10871
S1132FE0F1088091AC079091AD07892B31F081E015
S1132FF08093ED088CE00E9400028090DC049090A5
S1133000DD04A090DE04B090DF046FB6F8940E9453
S11330104F02660F771F881F991F681979098A095B
S11330209B098B019C016C157D058E059F0510F491
S11330309701860168017901C61AD70AE80AF90AD4
S1133040B701A601769567955795479587E00E9445
S1133050A0106FBEC090D101D090D201C114D10490
S113306079F1E12CF12C8090DC049090DD04A090A7
S1133070DE04B090DF046FB6F8940E944F02660F2E
S1133080771F881F991F681979098A099B098B0181
S11330909C016C157D058E059F0510F49701860132
S11330A068017901C61AD70AE80AF90AB701A60124
S11330B0769567955795479588E00E94A0106FBE56
S11330C00E948B1813C063E086E00EC068E087E0BE
S11330D00BC063E088E008C06AE089E005C063E0F3
S11330E08AE002C063E08BE00E947C177FBE80E030
S11330F002C07FBE81E00F90DF91CF911F910F91AD
S1133100FF90EF90DF90CF90BF90AF909F908F9003
S11331107F906F900895CF93CFB7F8948091ED0886
S1133120811194C085E00E946F02882309F48EC047
S113313081E08093ED08A091D30120910E07309196
S11331400F074091100750911107B0E00E94F43925
S11331509B01AC01245A3140410951096091DC04BE
S11331607091DD048091DE049091DF040E94790A5D
S1133170882339F085E00E949502882309F4BCC0B5
S113318006C087E00E947F028823A1F32CC087E059
S11331900E94B20188E00E94B2011092F203809171
S11331A0AC079091AD07892BB9F00E94A8028091D9
S11331B0AC079091AD079093A4018093A30181EE95
S11331C090E09093A5078093A40780E10E940002F9
S11331D01092AD071092AC071092ED0866E085E0FE
S11331E00E947C1733C08091AC079091AD07892B66
S11331F009F05CC08091DA039091DB032091FB0815
S1133200211106C021E0029709F020E0822F01C0BD
S113321081E020916C01811108C081E090E02111CE
S113322002C080E090E0892B99F085E00E9495022D
S1133230882309F461C087E00E94B20188E00E94FB
S1133240B2011092ED0885E00E946E0CCFBF5BC006
S11332502091D1013091D2012115310509F140E0CD
S113326050E06091DC047091DD048091DE04909163
S1133270DF040E94790A882399F080911402811155
S11332800FC08091FE0181110BC085E00E94950260
S1133290882319F083E090E021C080E090E01EC014
S11332A08091BA049091BB04892B19F00E94831376
S11332B015C00E948802853011F5809163019091B8
S11332C064010797E1F085E00E9495028823A1F04C
S11332D085E00E94031E81E090E007C083309105E1
S11332E021F41092ED0883E090E0CFBF892B59F4CC
S11332F085E0CF910C94520A80E090E0F6CF8DE007
S11333000E940002EECFCF9108952FB7F894FC01EC
S113331080818093FE012FBF0C948B18FC01809157
S1133320B203A081B18113968C938F5F8093B20313
S11333301092B3048091B303809345088093B20440
S11333408091B603809364068093B1048091B403A2
S11333508093B0049091A303992329F0833018F04B
S113336082E08093B0048091B0048093F103809153
S1133370E8089091E9088E179F0719F41092EE0857
S113338004C08091B7038093EE088681478150E0A2
S1133390480F511D495F5F4F440F551F662757FD66
S11333A06095762F4093DC065093DD066093DE062D
S11333B07093DF06A081B18111968C9185FF0CC0BA
S11333C04A5C5F4F6F4F7F4F4093DC065093DD069E
S11333D06093DE067093DF064091C1035091C203EF
S11333E06091C3037091C4034093B9015093BA012F
S11333F06093BB017093BC01F093BB04E093BA04E7
S11334000895EF92FF920F931F93CF93DF93CDB75D
S1133410DEB728970FB6F894DEBF0FBECDBF8C0180
S11334207B01FC01608171816A5F7F4FCE0101964F
S11334300E94D014F801808191810E940804C8017F
S11334400E9425041092F003E114F10421F0F9EE36
S1133450EF16F10451F50FEF1FEF1093BC03009327
S1133460BB036BEB73E080E50E948A091093BE03F3
S11334700093BD036DEB73E083E50E948A0910920B
S1133480A7031093BA030093B9031092C9031092CF
S1133490CA031092CB031092CC031092CD03109266
S11334A0CE031092CF031092D00328960FB6F8944F
S11334B0DEBF0FBECDBFDF91CF911F910F91FF9063
S11334C0EF9008950F931F93CF93DF93CDB7DEB79B
S11334D028970FB6F894DEBF0FBECDBF8B018130A5
S11334E039F118F0823049F12BC0DB01ED91FC91E8
S11334F082818C70883049F4878190E0982F8827E6
S11335002681822B9A83898307C0BF016A5F7F4F1C
S1133510CE0101960E94D014D8011296ED91FC912F
S113352013978FEF80838D919C910E94080405C0AE
S1133530BA01C8010E94011A03C0C8010E942504EF
S113354028960FB6F894DEBF0FBECDBFDF91CF91A2
S11335501F910F91089520EE280F982F41E050E01D
S113356060E070E0992351F0440F551F661F771FE8
S113357091509213F7CF40E050E0BA014427587FAE
S11335807770452B462B472B51F08093AA036AEAA8
S113359073E080E00E948A0980E090E0089588EE5C
S11335A090E008958F929F92AF92CF92DF92EF9224
S11335B0FF920F93CF93DF93CDB7DEB760970FB62B
S11335C0F894DEBF0FBECDBFE091B301E1FFC0C0F0
S11335D08FEF9FEF9A8789870E9442044C010097DE
S11335E009F459C00E946104009731F4C4010E9497
S11335F02504812C912C4FC0D40111969C938E9359
S11336009C01285E3F4F15963C932E9314972EEB06
S113361034E013963C932E93129723E0FC0121830C
S1133620ED91FC91119780EC8283ED91FC911197BF
S11336308281886082838091EC0489838091ED0487
S11336408A838091EE048B838091EF048C83809134
S1133650F0048D838091F1048E838091F2048F8332
S11336608091F3048887E090BB03F090BC038D91B4
S11336709C91A12C9E012F5F3F4F690103E09E01A5
S1133680275F3F4F4FEF5FEF62E001960E946615A0
S1133690D40116968C938091B3018D7F8093B301EE
S11336A08114910409F42EC1D4011296ED91FC9178
S11336B0139788E080832091D3049091D4041296C8
S11336C0ED91FC911397218392832091BD039091F6
S11336D0BE031296ED91FC91139723839483129663
S11336E0ED91FC9113979091770195831296ED914A
S11336F0FC9113979FEF9683978317968C938091F1
S113370010088F3080F42FB7F8948091E1039091E2
S1133710E203892B31F49092E2038092E1032FBFFC
S113372013C02FBF06C0F401108680910D0781FFDE
S113373006C01092B301C4010E94AA0AE5C0C401E4
S11337400E94130A892BA9F78091B3018860D7C01E
S113375040919B0150919C0160919D0170919E014B
S11337604093BE015093BF016093C0017093C101A7
S113377010923D0810929F011092A0011092A10195
S11337801092A2012091E006209310082F30A8F493
S113379080EC93E0A0E0B0E0022E04C0880F991FF3
S11337A0AA1FBB1F0A94D2F78093B6049093B70460
S11337B0A093B804B093B90408C01092B604109250
S11337C0B7041092B8041092B90430911C083093D5
S11337D065068091B6049091B704A091B804B091A5
S11337E0B904411551056105710569F0481B590B70
S11337F06A0B7B0B4093DC045093DD046093DE047E
S11338007093DF040EC0E3FF09C080939F0190937F
S1133810A001A093A101B093A20103C041E0409391
S11338203D0880930E0290930F02A0931002B09370
S113383011028091AE038093EB041092F6082031BC
S113384010F42093B0033093B5038091D304909186
S1133850D4049093BC038093BB036BEB73E080E5CB
S11338600E948A09809177010E94AB1A8091100806
S11338708F3020F4809103028093A3038091D303BB
S11338808093A90369EA73E080EF0E948A0980911A
S1133890BD039091BE0321E08E3FFFEF9F0709F423
S11338A020E0E0915706F09158061182222311F08E
S11338B030E801C030EC32833091B1033F5F338391
S11338C04091D3043091D40444833583222321F0DE
S11338D08683978387E005C0CF0106960E94D511A1
S11338E08DE080935D068091E3038F608093E30312
S11338F00E94C90C809110088F3020F484E08093DA
S1133900B30102C01092B30160960FB6F894DEBF03
S11339100FBECDBFDF91CF910F91FF90EF90DF905D
S1133920CF90AF909F908F9008958091B30183FFC3
S113393003C089E00C94000280FF05C08E7F809351
S1133940B3010E94D21A0C947317EF92FF920F9353
S11339501F93CF93DF93CDB7DEB760970FB6F8947C
S1133960DEBF0FBECDBF8B017A01853009F150F463
S1133970882371F0823009F087C0BA01C8010E941F
S1133980011A82C08730C1F0883009F45EC07CC05F
S1133990CB010E94AA0AEF2841F40E94D21A809116
S11339A0B301877F8093B3016FC01092B3016CC0E1
S11339B0CB010E94250468C086E06B34780719F4B3
S11339C01092530661C0E5EAF1E080E090E02191B5
S11339D031912017310741F4FC01EE0FFF1FEB5525
S11339E0FE4F1182108204C001968730910579F749
S11339F00E94BB081092E9081092E80880918101A6
S1133A008F77D80118968C9318979091E40491506D
S1133A109093E404ED91FC9192819C70983031F480
S1133A2090910A07915090930A0707C09C3029F49B
S1133A3090910208915090930208A701B8010E9446
S1133A40621A83E00E9400021FC0FB01E080F18043
S1133A5080916A018823C1F0B7016A5F7F4FCE016C
S1133A6009960E94D014B701605F7F4FCE01019682
S1133A700E94D014D8018D919C910E940804C80121
S1133A800E94250410926A0160960FB6F894DEBF76
S1133A900FBECDBFDF91CF911F910F91FF90EF909B
S1133AA008950F931F93CF93DF938C01EB018091C3
S1133AB00D078E7F80930D0780916701882301F1A4
S1133AC00E94BB05AE01B801F80180850E94A51CC7
S1133AD0CA3ED10539F08AE0DF91CF911F910F9151
S1133AE00C940002809167018823A9F30E94BB050E
S1133AF04AEE50E0BC01FC0180850E94A51CF2CF77
S1133B00DF91CF911F910F9108958091180388231D
S1133B1091F0809110058D7F809310051092180309
S1133B208FEF9FEF9093BC038093BB036BEB73E029
S1133B3080E50C948A09089587E090E090936401ED
S1133B40809363010E94CC0A81E08093CC010E949F
S1133B507F110E948802823031F0853039F0811162
S1133B6009C084E001C08EE00C9400021092ED08BC
S1133B700C948B180895CF9386E090E090936401A1
S1133B80809363010E9454120E945E030E94D2102B
S1133B90CFB7F8942091B4013091B5014091B601AA
S1133BA05091B7016091190370911A0380911B031E
S1133BB090911C030E94790A882319F00E949C1D8D
S1133BC01FC02091B4013091B5014091B6015091CC
S1133BD0B7018091190390911A03A0911B03B0912E
S1133BE01C03E0915A01E1110BC0E1E0E0935A019A
S1133BF0BC01CD0160517109810991090E94150C24
S1133C00CFBFCF910895CF93C82F0E948802C813C5
S1133C1031C02FB7F89480916301909164010497A7
S1133C2019F02FBF81E027C085E090E090936401F4
S1133C30809363012FBF1092190310921A031092FC
S1133C401B0310921C031092B4011092B501109240
S1133C50B6011092B7010E94E91581110CC00E94AF
S1133C60ED0F811103C00E94BB1D02C00E94781099
S1133C7080E001C081EFCF9108950F931F93CF93FC
S1133C80DF93E091FE0641E050E060E070E00E2E2C
S1133C9004C0440F551F661F771F0A94D2F7F09192
S1133CA00108F11121C08091FB079091FC07A091BC
S1133CB0FD07B091FE078827987FB770EB3190F429
S1133CC0C1E0CE0F8A019B01082319232A233B2339
S1133CD0012B022B032B31F4440F551F661F771F52
S1133CE0EC2FECCFE093FE068091FE068B3108F0BA
S1133CF056C0F11156C00E94AB1A8091430881301E
S1133D0071F0F8F0823021F0833009F0A4C007C0CC
S1133D1080E0DF91CF911F910F910C94031EC0910D
S1133D206D01D0916E010E948802811194C000E05F
S1133D3010E0980140E050E0BA01CE010E94CC129C
S1133D408AC08091F3039091F403A091F503B0919C
S1133D50F6034FB7F8942091630130916401233046
S1133D60310519F02430310511F04FBF74C023E040
S1133D7030E030936401209363014FBF8093CD0101
S1133D809093CE01A093CF01B093D0018DEA80939C
S1133D90A003DF91CF911F910F910C947810FF2312
S1133DA051F1809143088150823020F476956795D3
S1133DB0579547950091FB071091FC072091FD074B
S1133DC03091FE07DB01CA0188279927AA27BC7F07
S1133DD0892B8A2B8B2B79F4DB01CA018023912355
S1133DE0A223B323892B8A2B8B2B29F0440F551F35
S1133DF0661F771FE7CF809143088150823068F4B3
S1133E008091E9049091EA049093BC038093BB03EE
S1133E106BEB73E080E50E948A09E0916D01F091FB
S1133E206E01309751F0808191810E940804809145
S1133E306D0190916E010E94250410926E01109202
S1133E406D0180E00E946F02882319F080E00E94D7
S1133E506E0C10926C01DF91CF911F910F91089518
S1133E60CF93DF9381E00E946F02882309F440C15D
S1133E7085E00E946F02811149C08091BA0490913B
S1133E80BB04009721F061EF70E00E94511D809106
S1133E90C9049091CA04009721F061EF70E00E9478
S1133EA0511D8091AC079091AD07009769F09093F4
S1133EB0A4018093A30181EF90E09093A5078093E0
S1133EC0A40780E10E9400021092AD071092AC0793
S1133ED01092CA041092C9041092BB041092BA043E
S1133EE08091C1039091C203A091C303B091C40314
S1133EF08093B9019093BA01A093BB01B093BC0124
S1133F0087E00E94B20188E00E94B20180910D070F
S1133F10826080930D0780916701882351F00E948D
S1133F20BB0541EF50E0BC01FC0180850E94A51C4B
S1133F30F2CF80910D078D7F80930D0780916C01E6
S1133F40882329F081E0809301080E943D1E0E948D
S1133F502D056093B10384EC96E09093580680930A
S1133F60570610925D068DE193E090935A06809374
S1133F70590610925E0681E791E090935C06809367
S1133F805B0610920602109205021092BC04109275
S1133F90F6081092E3031092B3011092C801109234
S1133FA0A3071092BD041092E0071092D30110925F
S1133FB013028FE080931008809107058D7F809312
S1133FC0070582E00E94B201809110058D7F8093E5
S1133FD010058FEF8093EB081092110310921803D1
S1133FE0E2EEF6E08083349696E0EE3FF907D1F7EF
S1133FF08FEF80930002109216021092F003109239
S1134000620610926106809119058D7F80931905CF
S1134010C5EAD1E0E991F991309731F041EF50E0F0
S1134020BF0180850E94621AE1E0C33BDE0791F77D
S1134030E5EAF1E01192119281E0E33BF807D1F750
S11340401092E9081092E8081092E40410920A070A
S11340501092020882E891E090934C0680934B06FC
S113406081E198E09093500680934F0682E098E0B7
S113407090934E0680934D0610925206109253066A
S113408080916501882329F00E94D5050E942504AA
S1134090F7CF8091E1039091E203009721F00E9411
S11340A0AA0A1092B3011092A4011092A3011092D3
S11340B0800110927F011092E2031092E1031092AA
S11340C0E50481E090E09093DB038093DA03809130
S11340D07E01811110927E011092140280912205BA
S11340E08D7F8093220581E0DF91CF910C940002B3
S11340F0DF91CF9108954091B20380916C018111B9
S113410002C00C946E0C80914308823081F183309C
S1134110D1F1813009F082C0E0916D01F0916E011E
S1134120A081B18193E011969C93A081B18198E024
S113413012969C93A081B18113964C934F5F409348
S1134140B203A081B1819FEF14969C93A081B181A9
S113415015969C93A081B18116969C93A081B18100
S113416017969C9397E096839093460887838FEFE6
S11341709FEF9093BC038093BB036BEB73E080E5EC
S11341800E948A094BC05091B80320EC33E0529F3F
S1134190C001539F900D1124AA2797FDA095BA2F13
S11341A08093F3039093F403A093F503B093F60381
S11341B0E0916D01F0916E01A081B18183E41196CB
S11341C08C93A081B18188EC12968C93A081B181EB
S11341D013964C934F5F4093B203A081B1818FEF4C
S11341E014968C93A081B18115968C93A081B18192
S11341F016968C93A081B18117968C9380819181BE
S113420008960E94D511E0916D01F0916E018FE046
S1134210868386E08093460881E087830C943D1E64
S11342208091DA039091DB03029719F482E00C94F5
S1134230031E8FE00C9400021F93CF93DF931F9211
S1134240CDB7DEB790910D01953021F489830E949A
S11342508B1889811FB7F89490916F0191110BC04D
S113426091E090936F018093FF0182E00E9400022D
S11342701FBF80E017C0E82FE695E695E695F0E0CD
S1134280EC50FB4F9081877021E030E001C0220F99
S11342908A95EAF7892F822319F4292B208301C0F8
S11342A085E01FBF0F90DF91CF911F9108950E9469
S11342B05E030E94450B0E944A161092CC010E9494
S11342C07F1184E090E090936401809363010E94E5
S11342D08802823081F028F4882341F0813041F053
S11342E00895833051F0853051F008950C94EF0512
S11342F080E00C9400020C9410210C94751610921A
S1134300ED080C948B18CF9310920202483048F4B5
S1134310463068F5442341F04130C1F521EE30E0E8
S113432021C04B3031F032C01092E7081092E608F9
S11343302DC02091EE08222399F01092B3043091FD
S113434045083093B204309164063093B10430913F
S1134350F1033093B00421502093EE08C0E017C05D
S113436029EE30E03093E7082093E6080FC081E09F
S1134370809302027093C7016093C6011092ED0806
S113438087E00E947F0281113EC03AC0C1E02091C3
S1134390AC073091AD0782179307F9F40E94A80285
S11343A0CC2329F08091E6089091E70802C081EEC1
S11343B090E02091AC073091AD073093A401209395
S11343C0A3019093A5078093A40780E10E940002B3
S11343D01092AD071092AC0711C0CC2379F08091F4
S11343E0BA049091BB049093CA048093C9041092B8
S11343F0BB041092BA048BE00E9400021092ED08F4
S1134400CF910C948B18CF910895EF92FF920F9354
S11344101F93CF93DF931F92CDB7DEB70091630153
S113442010916401E0900807F09009070E94450B81
S11344300E944A161092CC010E945E030E947F11D2
S113444084E090E090936401809363010F30110540
S113445009F0DCC00E948802882319F0833059F0E7
S1134460EFC080E00F90DF91CF911F910F91FF90EB
S1134470EF900C94031ED70114968D919C9115977F
S11344800E94BB010091B6041091B7042091B804B6
S11344903091B9046F3FBFEF7B078B079B07E9F0AF
S11344A06093DC047093DD048093DE049093DF0456
S11344B000930E0210930F02209310023093110206
S11344C0D7011296ED91FC911397828187708093A6
S11344D01302811123C041E025C080910E02909106
S11344E00F02A0911002B0911102800F911FA21F20
S11344F0B31F80930E0290930F02A0931002B09307
S1134500110283E00E941C2183E00F90DF91CF9180
S11345101F910F91FF90EF900C946E0C482F440F55
S1134520480F4E5F81818F708F5F8093D3018081AC
S113453082958F700CE310E020E030E004C0000F9F
S1134540111F221F331F8A95D2F700930E07109371
S11345500F072093100730931107D7018D919C9179
S1134560DC0111968C9184FF04C081E08093DC030C
S113457002C01092DC0350E0BF016E5F7F4F80EEFB
S113458097E00E94793AD7011296ED91FC91139726
S1134590818184FF26C016968C91169717962C91CC
S11345A030E0280F311DC9010796880F991F21316A
S11345B0310514F0889601C00C969093D201809333
S11345C0D1012091EB048091D1019091D201B4E109
S11345D02B9F800D911D11249093D2018093D101C2
S11345E004C01092D2011092D10183E00E941C21D8
S11345F064E083E00E947C1787E00F90DF91CF9105
S11346001F910F91FF90EF900C940002013111055E
S1134610B9F44091C2010091FF0710910008498349
S11346200E9488024981853059F4B801C7010F906E
S1134630DF91CF911F910F91FF90EF900C94832104
S11346400F90DF91CF911F910F91FF90EF900895FC
S11346508093B8016093C2010E94B60A811102C01E
S11346600C94360A0C9405228F929F92AF92BF92BB
S1134670CF92DF92EF92FF92CF93DF938091EA087B
S1134680882339F0C091FF07D09100081092EA08FE
S113469018C0E091CA01F091CB01C0810E942D05A0
S11346A02FEF3FEF02C0220F331FCA95E2F7209588
S11346B030952623372384E1829FE001839FD00D28
S11346C011240E944F026B017C01BE0180E090E046
S11346D0CC0CDD1CEE1CFF1CC60ED71EE81EF91EFA
S11346E08090190390901A03A0901B03B0901C03B0
S11346F0C818D908EA08FB088090B4019090B50165
S1134700A090B601B090B7018C149D04AE04BF0410
S113471038F4C0910807D0910907209799F448C04C
S11347202EE030E03093640120936301DF91CF9158
S1134730FF90EF90DF90CF90BF90AF909F908F90BD
S11347400C947E141092CC010E945E030E947F118F
S113475084E090E090936401809363010E94880256
S1134760853031F5C701B601681979098A099B09B1
S11347704B015C0124E1820E911CA11CB11C24E1BB
S113478030E040E050E00E94FF39861A970AA80AF8
S1134790B90A47E0B401CE01DF91CF91FF90EF90C9
S11347A0DF90CF90BF90AF909F908F900C94832117
S11347B0DF91CF91FF90EF90DF90CF90BF90AF90BB
S11347C09F908F9008950F931F93CF93DF93EC01E5
S11347D08B0180910C0486FF2AC18F7B8F3309F0F3
S11347E0B0C1C0916606D091670628812093FC0170
S11347F08091FA019091FB018430910579F118F4CC
S1134800039749F003C18530910509F451C0069717
S113481009F469C0FBC084E090E09093FB018093AD
S1134820FA0130E08091C30190E02817390734F091
S1134830DF91CF911F910F910C94BA11B79903C0D6
S11348400E9B0E94BA118091FC0184508C3880F731
S1134850BE016F5F7F4F43E050E022C06A818981CF
S113486083FDE6CF4DEB51E00E94E4078111E0CFD8
S11348704091BD018091FC0190E00197242F30E02C
S113488028173907ACF6443098F085E090E090930F
S1134890FB018093FA01435050E0BE016C5F7F4FEF
S11348A080E090E0DF91CF911F910F910C94AE0BBB
S11348B04091FC012091BD01842F90E0821B91095D
S11348C0893791050CF0B4CF86E090E09093FB011A
S11348D08093FA01421B50E060916606709167066E
S11348E0685E7F4FDDCF0E94CE0180910802811166
S11348F002C00E94881130913F08C0916606D09191
S113490067062091FC01332349F12530C0F18091E1
S1134910470890E0FC01EE0FFF1FEE0FFF1FE35E60
S1134920F74F7081618152814381DE01AF56BF4FE1
S11349307C93DE01A057BF4F6C93DE01A157BF4F9C
S11349405C93DE01A257BF4F4C9301968770992761
S113495080934708315030933F0811C08FEFDE0138
S1134960AF56BF4F8C93DE01A057BF4F8C93DE012F
S1134970A157BF4F8C93DE01A257BF4F8C93E22FF8
S1134980F0E08091BD01E81BF109EC0FFD1F878960
S113499087FF36C0012BA1F189818770823029F508
S11349A080915C0190915D010697D9F4E091D8045F
S11349B0F091D9040190F081E02D93818B819813BB
S11349C010C00E94D001898121E030E030935D0164
S11349D020935C0160E0829581700E9428230E94EC
S11349E0ED108091D504882359F08091C70481117A
S11349F007C08AE1DF91CF911F910F910C940002BF
S1134A00DF91CF911F910F910C948B11109212038F
S1134A100E94CE010E9488118091C704882309F462
S1134A2090C0DF91CF911F910F910C94FA078E33B0
S1134A3009F087C00E94CE01E091D804F091D90416
S1134A4080819181C817D90759F40E94CA01E09165
S1134A50D804F091D90480819181668101960DC0BA
S1134A600196C817D90779F40E94CA01E091D804C5
S1134A70F091D904678182819381DF91CF911F9155
S1134A800F910C94EB0B83E090E090935D01809385
S1134A905C0180916301909164018A30910509F46D
S1134AA044C08B30910509F446C0099709F049C008
S1134AB08CE090E090936401809363012091B401B1
S1134AC03091B5014091B6015091B70121153105DE
S1134AD04105510579F48FE090E09093640180934F
S1134AE0630180E00E94E60ADF91CF911F910F914C
S1134AF00C9414168091190390911A03A0911B032E
S1134B00B0911C03E0915A01E1111BC0E2E0E09373
S1134B105A01BC01CD016051710981099109DF91EC
S1134B20CF911F910F910C94150CDF91CF911F9190
S1134B300F910C94AC14DF91CF911F910F910C94B1
S1134B403423DF91CF911F910F9108954F925F927B
S1134B506F927F928F929F92AF92BF92CF92DF9289
S1134B60EF92FF920F931F93CF93DF93CDB7DEB7EE
S1134B7068970FB6F894DEBF0FBECDBFE6EFF4E042
S1134B8020E030E0108511FFE8C140805180628050
S1134B907380C480D580E680F7804B015C01841863
S1134BA09508A608B7088C149D04AE04BF0408F445
S1134BB0D4C110FF03C01D7F10870AC0D301C201F6
S1134BC08C0D9D1DAE1DBF1D80839183A283B38375
S1134BD02230B1F018F4213081F006C0233009F4FA
S1134BE0C1C0243009F473C180E00E946F0288239D
S1134BF009F4BAC10E94760AB7C10E94C90CB4C1B3
S1134C0080911803882309F4AFC110911103123065
S1134C1039F49091B9038091BA03998B8A8B1BC0A4
S1134C202091C9033091CA034091CB035091CC0326
S1134C306091CD037091CE038091CF039091D00306
S1134C40FE017196DE015996219308E00E94423AD2
S1134C50EA17FB07C9F74090BB035090BC030E94BE
S1134C6042044C01009709F478C00E9461043C019D
S1134C70009709F46FC0D40111969C938E934896C3
S1134C8015969C938E93149781E019968C93E090DB
S1134C90BB03F090BC03123019F442E050E002C0B0
S1134CA048E050E0BE016F5E7F4FCE0101960E9446
S1134CB0793AD401ED91FC91123010F483E204C0EE
S1134CC04E145F04D9F783E68183812F880F880F00
S1134CD0806C82838091EC0489878091ED048A87BB
S1134CE08091EE048B878091EF048C878091F0048F
S1134CF08D878091F1048E878091F2048F87809153
S1134D00F304888BA180A6FAAA24A0F8F401808178
S1134D1091819E01275F3F4F690103E09E012F5F50
S1134D203F4FA201612F01960E946615D401169689
S1134D308C9316978CE091E013969C938E93129724
S1134D4081E017968C93179786E018968C93C3018D
S1134D500E940804C4010E9425040E94851D0E942B
S1134D60851D02C10E944F022B013C01440C551CBD
S1134D70661C771C8091B0038F3070F421E030E022
S1134D8002C0220F331F8A95E2F7A0ECB3E00E9421
S1134D90E5399B01AC0104C020EC33E040E050E075
S1134DA0A091BF03B091C0030E94F4396B017C0150
S1134DB005EA11E0812C912C5401D801ED91FC916C
S1134DC0309709F44DC08091E8089091E908E817FC
S1134DD0F90709F445C0848195810E94BB01A701AC
S1134DE096010E94790AD801ED91FC9111978823CC
S1134DF031F180858F7780871D921C929091E40415
S1134E0091509093E404A081B18112969C919C707E
S1134E10983031F490910A07915090930A0707C093
S1134E209C3029F49091020891509093020840EF2D
S1134E3050E0BF010E94621A0E94BB0811C0848125
S1134E4095810E94BB01A3019201261B370B480BDD
S1134E50590B82169306A406B50610F449015A01AB
S1134E600E5F1F4F31E0033B130709F0A6CF8114F7
S1134E709104A104B10409F477C0C814D904EA0464
S1134E80FB0410F446015701C818D908EA08FB08C6
S1134E900E944F02660F771F881F991F60931105A8
S1134EA0709312058093130590931405C092150511
S1134EB0D0921605E0921705F09218058091190515
S1134EC081608260809319050E9437024DC08091F1
S1134ED01402811138C081E0809314028091F70795
S1134EE09091F807A091F907B091FA074091D40383
S1134EF05091D5036091D6037091D703840F951F09
S1134F00A61FB71F4091EC035091ED036091EE038F
S1134F107091EF0340931A0550931B0560931C0591
S1134F2070931D0580931E0590931F05A093200583
S1134F30B0932105809122058160826080932205CF
S1134F400E94370207C01092140280917E018111E1
S1134F5010927E010E948B1807C02F5F3F4F399635
S1134F602530310509F00ECE0E94370268960FB63F
S1134F70F894DEBF0FBECDBFDF91CF911F910F918B
S1134F80FF90EF90DF90CF90BF90AF909F908F9065
S1134F907F906F905F904F9008954F925F926F92C1
S1134FA07F928F929F92AF92BF92CF92DF92EF92B5
S1134FB0FF920F931F93CF93DF93CDB7DEB7629722
S1134FC00FB6F894DEBF0FBECDBF90E086329105D8
S1134FD010F00C948B31FC01E15BFF4F0C94213AEF
S1134FE02FB7F8948091630190916401009711F4B4
S1134FF02FBF13C4049709F0B6C381E090E019C031
S11350008091FB0881508093FB08882319F081E08C
S11350100C9460312FB7F8948091630190916401EE
S11350208430910509F49FC3892B09F09CC382E065
S113503090E090936401809363012FBF0E947810E5
S11350400C948B318FB7F8949091FF0190930D01DC
S113505092E090936F018FBF80910D01813089F0B0
S113506038F08230C1F0833009F4FDC00C948B31E8
S113507080E00E94950281118FC00E94760A0C94F0
S11350808B3181E00E94520A882311F40C948B31F5
S113509080E00C9460319FB7F89481E08093A60778
S11350A0109207028093D5041092D9039FBF82E027
S11350B00E949502882321F00E9410210C948B31C8
S11350C082E00E94520A0C948B318091E8089091FE
S11350D0E908892B11F00C948B318091E404882326
S11350E011F40C948B31E5EAF1E0819191910097F0
S11350F009F1DC0118962C91189727FF1BC0909397
S1135100E9088093E8082093810127E018962C93FE
S113511020910D0721FF07C01092E9081092E808BA
S113512083E00C9460310E94130A892B11F40C94CF
S11351308B31F2CFB1E0E33BFB07B9F60C948B3132
S1135140C090F303D090F403E090F503F090F603DD
S11351500E944F02660F771F881F991F6093F60401
S11351607093F7048093F8049093F904C092FA04BE
S1135170D092FB04E092FC04F092FD048091FE04C2
S1135180816082608093FE040E9437020C948B310C
S11351900E943D1E0C948B310E947B200C948B3119
S11351A0E0915706F091580683818093B10383817F
S11351B08F5F83834091DC045091DD046091DE04B1
S11351C07091DF044093C5035093C6036093C703F3
S11351D07093C8038091B6049091B704A091B80469
S11351E0B091B904853CE9E09E07A105B10528F01A
S11351F0845C9940A109B10903C080E090E0DC011E
S11352004093FF04509300056093010570930205D9
S11352108093030590930405A0930505B0930605B8
S11352208091070581608260809307050E943702A0
S11352308091B30182FF03C08B7F8093B3011092EE
S1135240F6088091B1031F928F938EE191E09F93B2
S11352508F930E94893ADA9AD9980F900F900F9001
S11352600F900C948B310E94951C0C948B3180917F
S11352700D0780FF02C00C948B3180916701882355
S113528011F40C948B31E0916901F0E0EE0FFF1FF3
S1135290E255F84F00811181D80116968C91811145
S11352A005C00E94BB058AE00E940002F8018085C7
S11352B08093C80420910D07822F816080930D078D
S11352C08091BA049091BB04892B11F00C94833122
S11352D0C8010E948E195BC08091C9049091CA04D0
S11352E06091E6087091E70810926B011092CA046D
S11352F01092C904009709F44AC00E94511D47C086
S11353000091BA041091BB048091AC079091AD0751
S11353100097D9F14091DC065091DD066091DE06DC
S11353207091DF06C090B004D090B104E090B20454
S1135330F090B304CF82D886E986FA8649835A83EB
S11353406B837C831E830D832AE0FE013196AFEFCD
S1135350B3E001900D922A95E1F70E948E19011590
S1135360110599F0E091AC07F091AD070190F0813F
S1135370E02D8381D8012D913C91D90113969C9104
S11353809383D801ED91FC9183831092ED080E94E0
S11353908B18C1C780911402882309F4BCC780917B
S11353A07E01882309F4B7C710927E01B4C783E055
S11353B090E09093DB038093DA03ADC79FB7F89432
S11353C081E08093A607809307021092D50480930E
S11353D0D9039FBF81E090E09093DB038093DA03CD
S11353E082E00E946E0C97C78091E504882309F43B
S11353F092C78091A3019091A4012091E10330917F
S1135400E20382179307B9F41092E2031092E103C6
S11354100091A4071091A5070E94AA0A012B41F448
S11354200E94D21A8091B301877F8093B30128C070
S11354301092B30125C020917F0130918001821721
S11354409307F1F40E94D50580916501811105C08F
S11354501092800110927F010DC0E0916601F0E08E
S1135460EE0FFF1FE855FB4F8081918190938001DF
S113547080937F018091A3019091A4010E9425044F
S11354801092E50448C7CE0101960E94630E811173
S113549007C089819091A003981714F48093A00306
S11354A02091CD013091CE014091CF015091D00196
S11354B0609108087091090880910A0890910B087E
S11354C00E94790A882309F472C18091A0038D5245
S11354D08093A0030E94450B0E944A160E947F11EC
S11354E084E090E090936401809363019091A00321
S11354F080919A01882369F0E0914B08F0914C085F
S113550080910C0721E0280F20930C07E80FF11D70
S1135510908390910C0780919A01981303C081E0C5
S1135520809301080E94760A893009F0F4C60E942B
S1135530EF05F1C68FB7F8949091B6078FBF8FB778
S1135540F89421E02093A6079093B6078FBF0E949A
S113555054120E947F1184E090E090936401809340
S1135560630181E00E946F02882309F4D4C680910C
S1135570630681110E94FB056AEA73E080E00E94E1
S11355808A096DEB73E083E50E948A096BEB73E093
S113559080E50E948A096CEA73E083E00E948A092C
S11355A06BEA73E082E00E948A0969EA73E080EFA3
S11355B00E948A0981E00E946E0C1092AB036BEA90
S11355C073E082E00E948A0981E393E49093BE032E
S11355D08093BD036DEB73E083E50E948A0910920A
S11355E0A1030E9408088091BD039091BE03019617
S11355F009F491C68091B301857009F08CC682E7E5
S113560091E89093D4048093D3048AE18093770142
S113561010929B0110929C0110929D0110929E0188
S113562088E08093E00685E080931C0891E09093E5
S1135630D303109203028093B301809110088F303A
S113564009F069C683E00E941C2165C6809163014C
S1135650909164018830910531F008F45CC60F978D
S1135660039738F058C680E00E94ED0F8111E6CC14
S1135670D7C00E94B60A8111A2C080E00E94ED0F3B
S1135680882309F49CC0DACC80E00E94ED0F8111DC
S11356900FC00E9454128091630190916401079796
S11356A021F40E94450B0E94CC0A0E947F1133C64C
S11356B084E106C68FB7F894909160019111C1C539
S11356C08FBF10B316FB112710F98091FE03909140
S11356D00904981721F1181322C084E090E09093F4
S11356E06201809361018FB7F89491E09093600117
S11356F08FBF0E94CE010E94CA0160E070E08DE17C
S11357000E949B0E0E94F6110E94CE010E94450B3E
S11357100E944A161092CC0182E10E94000210936A
S1135720090485E1CDC59FB7F89480910B019FBF13
S1135730882321F0813009F476C0EDC5E09163013E
S1135740F09164013197E131F10508F0E4C5EB58BB
S1135750FF4F0C94213A2FB7F894809161019091F6
S11357606201892B11F02FBFD6C581E090E09093A0
S11357706201809361012FBFDD9A44E150E060E053
S113578070E080E00E94A010C6C50E9454120E94DE
S1135790CC0A0E944F02660F771F881F991F6093DF
S11357A008087093090880930A0890930B0881E114
S11357B087C50E94BB1DAFC50E948712ACC50E945D
S11357C00522A9C50E94450B0E944A161FB7F894EA
S11357D08091610190916201049779F482E090E0F4
S11357E090936201809361010E94CE010E94CA01DC
S11357F087E00E94C50A0E94CE011FBF1092620179
S113580010926101DE98DD98DE9A1092CC010E941C
S11358107F1110926401109263010E94301F7BC5B6
S11358200E94572178C51FB7F8948091FA0190918E
S1135830FB01892B09F403C40E94C80B00C41FB7E1
S1135840F894609155067091560680914D08909198
S11358504E08109256061092550610924E08109259
S11358604D0810927D0110927C011092D704109281
S1135870D6040E94E323E3C38FB7F89490910902FE
S11358809093080192E090935E018FBF809108018C
S1135890811141C50E94CC010E94CA0186E110C554
S11358A00E9488118FB7F8941092FB011092FA01AC
S11358B08FBF83E105C5E0916606F09167062081FC
S11358C022508091BD01281B8FB7F8948FBF809020
S11358D0660690906706822F90E0D401A80FB91F46
S11358E059963C913F77D4013C93A80FB91F589621
S11358F08C91DF01AE56BF4F8C93D4018C91ED5641
S1135900FF4F80832C9380916301909164010797EA
S113591009F0D0C212968C91807390E041973CF0CC
S11359208091DA039091DB03039709F0C3C2F40179
S1135930818183FF07C08091DA039091DB03039791
S113594009F0B8C20E948802823009F452C185303D
S113595009F45BC18111AEC280916C01882309F402
S1135960A9C280914308833009F04BC080910C0791
S11359708111A0C2D40111968C9111978770833044
S113598009F098C258968C915897883009F092C2C1
S11359905A968C915A9790E0982F882759962C9173
S11359A0822B9093BC038093BB036BEB73E080E585
S11359B00E948A09F401848D90E0982F8827238D12
S11359C0822B9093BA038093B903858D0E94AB1AFE
S11359D0D4015F968C915F9790E0982F88275E960C
S11359E02C91822B9093BE038093BD036DEB73E0E7
S11359F083E50E948A0980910C078F5F80930C07CE
S1135A0010C0F4018181877009F054C28091A2030F
S1135A10882309F44FC280910C0790919A01891749
S1135A2058F081E0809301088091FE048D7F80937B
S1135A30FE040E94760A3EC200914B0810914C0865
S1135A40F2E28F9F000D111D1124F090FE06D40187
S1135A5012968C911297982F9078903809F02AC258
S1135A608295869586958370F801808315968C912E
S1135A70159790E0982F882714962C911497822BD1
S1135A809283818312968C911297807C803861F482
S1135A9017968C91179790E0982F882716962C913B
S1135AA0822B9483838307C0B4016A5F7F4FC8014C
S1135AB003960E94D014D8011B96FC921B971C9647
S1135AC01C921C97F401808D1D968C931D97818DDB
S1135AD01E968C931E97828D881F8827881F1F9679
S1135AE08C931F97ED56FF4F808150968C93C40181
S1135AF082579F4F0E94BB01D80151966D937D93AD
S1135B008D939C93549756961C921E925597579634
S1135B101C92579758961C92589759961C925997CD
S1135B205A961C925A975B961C925B975C961C92B1
S1135B305C975D961C925D975E961C925E975F964D
S1135B401C925F9790961C92909791961C92E0916C
S1135B504B08F0914C0870900C07DF0122E2729E12
S1135B60A00DB11D1124612C671409F4D0C3218147
S1135B70328111968D919C91129728173907B1F5AE
S1135B8080819C91891332C0823051F42381348105
S1135B9013968D919C9114972817390739F58AC16A
S1135BA0833021F523813481458156816781708555
S1135BB01396AC9013971496BC9014971596CC90AA
S1135BC015971696DC9016971796EC9017971896DB
S1135BD0FC90189719960C9119971A961C911A977C
S1135BE0818592850E94703A09F464C16394B296E7
S1135BF0BBCF8091DA039091DB03039709F05AC17C
S1135C00D4018C9180688C9355C1F4018181877093
S1135C10833011F4808D8D5F1FB7F894863059F06E
S1135C2020F4843009F436C144C1873039F0893016
S1135C3009F430C13EC1F40182812FC1D40112960E
S1135C402C91B22FB07CDB2EB7FF33C1322F3C70C6
S1135C50C4010496383019F4C401089604C03C30D9
S1135C6011F4C4010E96F401318136FF01C023FF03
S1135C700296B5EA6B2EB1E07B2EE0E0F0E0ED2C6D
S1135C80F12CD3012D913D913D0121153105A9F14F
S1135C90D9014D915C91DA0112966C916C70B0E16E
S1135CA06B9FB00111246E157F0539F54A5F5F4F74
S1135CB0A0E8CA2EDC1003C072E0C72E02C068E060
S1135CC0C62EBC0100E0DA01AD90AD01DB01BD9050
S1135CD0BD01AB1003C00F5F0C15A8F30C110DC070
S1135CE0309751F020813181D90111964C9111974F
